{
  "contractName": "MutualAgreement",
  "abi": [
    {
      "inputs": [],
      "payable": false,
      "stateMutability": "nonpayable",
      "type": "constructor"
    },
    {
      "anonymous": false,
      "inputs": [],
      "name": "CrossContractValidateBegin",
      "type": "event"
    },
    {
      "anonymous": false,
      "inputs": [],
      "name": "CrossContractValidateEnd",
      "type": "event"
    },
    {
      "anonymous": false,
      "inputs": [
        {
          "indexed": false,
          "internalType": "string",
          "name": "",
          "type": "string"
        },
        {
          "indexed": false,
          "internalType": "uint256",
          "name": "",
          "type": "uint256"
        },
        {
          "indexed": false,
          "internalType": "bytes32[]",
          "name": "",
          "type": "bytes32[]"
        }
      ],
      "name": "RetrievedDataCache",
      "type": "event"
    },
    {
      "anonymous": false,
      "inputs": [
        {
          "indexed": false,
          "internalType": "uint16",
          "name": "",
          "type": "uint16"
        },
        {
          "indexed": false,
          "internalType": "uint256",
          "name": "",
          "type": "uint256"
        }
      ],
      "name": "cool",
      "type": "event"
    },
    {
      "anonymous": false,
      "inputs": [
        {
          "indexed": false,
          "internalType": "string",
          "name": "",
          "type": "string"
        }
      ],
      "name": "logStuff",
      "type": "event"
    },
    {
      "anonymous": false,
      "inputs": [
        {
          "indexed": false,
          "internalType": "string",
          "name": "",
          "type": "string"
        },
        {
          "indexed": false,
          "internalType": "uint256",
          "name": "",
          "type": "uint256"
        }
      ],
      "name": "numberLoggerLikeImUsingFuckingJava",
      "type": "event"
    },
    {
      "anonymous": false,
      "inputs": [
        {
          "indexed": false,
          "internalType": "string",
          "name": "",
          "type": "string"
        },
        {
          "indexed": false,
          "internalType": "uint16",
          "name": "",
          "type": "uint16"
        },
        {
          "indexed": false,
          "internalType": "uint256",
          "name": "",
          "type": "uint256"
        },
        {
          "indexed": false,
          "internalType": "address",
          "name": "",
          "type": "address"
        },
        {
          "indexed": false,
          "internalType": "address",
          "name": "",
          "type": "address"
        },
        {
          "indexed": false,
          "internalType": "address",
          "name": "",
          "type": "address"
        }
      ],
      "name": "whatTheFuck",
      "type": "event"
    },
    {
      "payable": true,
      "stateMutability": "payable",
      "type": "fallback"
    },
    {
      "constant": true,
      "inputs": [
        {
          "internalType": "uint8",
          "name": "",
          "type": "uint8"
        }
      ],
      "name": "__validatorNames",
      "outputs": [
        {
          "internalType": "string",
          "name": "",
          "type": "string"
        }
      ],
      "payable": false,
      "stateMutability": "view",
      "type": "function"
    },
    {
      "constant": true,
      "inputs": [
        {
          "internalType": "uint8",
          "name": "",
          "type": "uint8"
        }
      ],
      "name": "__validators",
      "outputs": [
        {
          "internalType": "address",
          "name": "",
          "type": "address"
        }
      ],
      "payable": false,
      "stateMutability": "view",
      "type": "function"
    },
    {
      "constant": false,
      "inputs": [
        {
          "internalType": "string",
          "name": "message",
          "type": "string"
        }
      ],
      "name": "doEmit",
      "outputs": [],
      "payable": false,
      "stateMutability": "nonpayable",
      "type": "function"
    },
    {
      "constant": true,
      "inputs": [],
      "name": "getFlag",
      "outputs": [
        {
          "internalType": "int256",
          "name": "",
          "type": "int256"
        }
      ],
      "payable": false,
      "stateMutability": "view",
      "type": "function"
    },
    {
      "constant": false,
      "inputs": [
        {
          "internalType": "int160",
          "name": "_flag",
          "type": "int160"
        }
      ],
      "name": "setFlag",
      "outputs": [],
      "payable": false,
      "stateMutability": "nonpayable",
      "type": "function"
    },
    {
      "constant": true,
      "inputs": [
        {
          "internalType": "string",
          "name": "poll",
          "type": "string"
        }
      ],
      "name": "getPoll",
      "outputs": [
        {
          "internalType": "address",
          "name": "initiator",
          "type": "address"
        },
        {
          "internalType": "uint256",
          "name": "stake",
          "type": "uint256"
        },
        {
          "internalType": "uint256",
          "name": "venueCost",
          "type": "uint256"
        },
        {
          "internalType": "uint8",
          "name": "minParticipants",
          "type": "uint8"
        },
        {
          "internalType": "uint8",
          "name": "participants",
          "type": "uint8"
        },
        {
          "internalType": "uint256",
          "name": "start",
          "type": "uint256"
        },
        {
          "internalType": "uint256",
          "name": "end",
          "type": "uint256"
        },
        {
          "internalType": "bytes32[5][]",
          "name": "committedProofs",
          "type": "bytes32[5][]"
        }
      ],
      "payable": false,
      "stateMutability": "view",
      "type": "function"
    },
    {
      "constant": true,
      "inputs": [
        {
          "internalType": "string",
          "name": "_poll",
          "type": "string"
        },
        {
          "internalType": "string",
          "name": "_fnName",
          "type": "string"
        },
        {
          "internalType": "uint8",
          "name": "_vt",
          "type": "uint8"
        }
      ],
      "name": "retrieve",
      "outputs": [
        {
          "internalType": "bytes32[]",
          "name": "",
          "type": "bytes32[]"
        }
      ],
      "payable": false,
      "stateMutability": "view",
      "type": "function"
    },
    {
      "constant": false,
      "inputs": [
        {
          "internalType": "string",
          "name": "_poll",
          "type": "string"
        },
        {
          "internalType": "string",
          "name": "_fnName",
          "type": "string"
        },
        {
          "internalType": "uint8",
          "name": "_vt",
          "type": "uint8"
        },
        {
          "internalType": "bytes32[]",
          "name": "data",
          "type": "bytes32[]"
        }
      ],
      "name": "set",
      "outputs": [],
      "payable": false,
      "stateMutability": "nonpayable",
      "type": "function"
    },
    {
      "constant": false,
      "inputs": [
        {
          "internalType": "string",
          "name": "_poll",
          "type": "string"
        },
        {
          "internalType": "string",
          "name": "_fnName",
          "type": "string"
        },
        {
          "internalType": "uint8",
          "name": "_vt",
          "type": "uint8"
        },
        {
          "internalType": "address",
          "name": "newMember",
          "type": "address"
        }
      ],
      "name": "add",
      "outputs": [],
      "payable": false,
      "stateMutability": "nonpayable",
      "type": "function"
    },
    {
      "constant": false,
      "inputs": [
        {
          "internalType": "string",
          "name": "_poll",
          "type": "string"
        },
        {
          "internalType": "string",
          "name": "_fnName",
          "type": "string"
        },
        {
          "internalType": "uint8",
          "name": "_vt",
          "type": "uint8"
        },
        {
          "internalType": "string",
          "name": "data",
          "type": "string"
        }
      ],
      "name": "setString",
      "outputs": [],
      "payable": false,
      "stateMutability": "nonpayable",
      "type": "function"
    },
    {
      "constant": true,
      "inputs": [
        {
          "internalType": "address",
          "name": "_pollContract",
          "type": "address"
        },
        {
          "internalType": "string",
          "name": "_poll",
          "type": "string"
        },
        {
          "internalType": "bytes32",
          "name": "_reveal",
          "type": "bytes32"
        }
      ],
      "name": "validate",
      "outputs": [
        {
          "internalType": "bool",
          "name": "",
          "type": "bool"
        }
      ],
      "payable": false,
      "stateMutability": "view",
      "type": "function"
    },
    {
      "constant": true,
      "inputs": [
        {
          "internalType": "string",
          "name": "_poll",
          "type": "string"
        },
        {
          "internalType": "uint8",
          "name": "validationType",
          "type": "uint8"
        }
      ],
      "name": "serialiseStakers",
      "outputs": [
        {
          "internalType": "address[]",
          "name": "",
          "type": "address[]"
        }
      ],
      "payable": false,
      "stateMutability": "pure",
      "type": "function"
    },
    {
      "constant": true,
      "inputs": [
        {
          "internalType": "string",
          "name": "_poll",
          "type": "string"
        },
        {
          "internalType": "uint8",
          "name": "validationType",
          "type": "uint8"
        }
      ],
      "name": "serialiseProofs",
      "outputs": [
        {
          "internalType": "address[]",
          "name": "",
          "type": "address[]"
        }
      ],
      "payable": false,
      "stateMutability": "pure",
      "type": "function"
    },
    {
      "constant": true,
      "inputs": [],
      "name": "proofType",
      "outputs": [
        {
          "internalType": "uint8",
          "name": "",
          "type": "uint8"
        }
      ],
      "payable": false,
      "stateMutability": "pure",
      "type": "function"
    },
    {
      "constant": true,
      "inputs": [
        {
          "internalType": "bytes",
          "name": "_bytes",
          "type": "bytes"
        }
      ],
      "name": "bytesToAddress",
      "outputs": [
        {
          "internalType": "address",
          "name": "",
          "type": "address"
        }
      ],
      "payable": false,
      "stateMutability": "pure",
      "type": "function"
    },
    {
      "constant": true,
      "inputs": [
        {
          "internalType": "address",
          "name": "account",
          "type": "address"
        }
      ],
      "name": "toString",
      "outputs": [
        {
          "internalType": "string",
          "name": "",
          "type": "string"
        }
      ],
      "payable": false,
      "stateMutability": "pure",
      "type": "function"
    },
    {
      "constant": true,
      "inputs": [
        {
          "internalType": "uint256",
          "name": "value",
          "type": "uint256"
        }
      ],
      "name": "toString",
      "outputs": [
        {
          "internalType": "string",
          "name": "",
          "type": "string"
        }
      ],
      "payable": false,
      "stateMutability": "pure",
      "type": "function"
    },
    {
      "constant": true,
      "inputs": [
        {
          "internalType": "bytes",
          "name": "data",
          "type": "bytes"
        },
        {
          "internalType": "uint16",
          "name": "len",
          "type": "uint16"
        }
      ],
      "name": "toString",
      "outputs": [
        {
          "internalType": "string",
          "name": "",
          "type": "string"
        }
      ],
      "payable": false,
      "stateMutability": "pure",
      "type": "function"
    },
    {
      "constant": true,
      "inputs": [
        {
          "internalType": "bytes32",
          "name": "value",
          "type": "bytes32"
        }
      ],
      "name": "toString",
      "outputs": [
        {
          "internalType": "string",
          "name": "",
          "type": "string"
        }
      ],
      "payable": false,
      "stateMutability": "pure",
      "type": "function"
    },
    {
      "constant": true,
      "inputs": [
        {
          "internalType": "bytes32",
          "name": "_bytes32",
          "type": "bytes32"
        }
      ],
      "name": "bytes32ToBytes",
      "outputs": [
        {
          "internalType": "bytes",
          "name": "",
          "type": "bytes"
        }
      ],
      "payable": false,
      "stateMutability": "pure",
      "type": "function"
    },
    {
      "constant": true,
      "inputs": [
        {
          "internalType": "bytes",
          "name": "b",
          "type": "bytes"
        }
      ],
      "name": "bytesToBytes32",
      "outputs": [
        {
          "internalType": "bytes32",
          "name": "bts",
          "type": "bytes32"
        }
      ],
      "payable": false,
      "stateMutability": "pure",
      "type": "function"
    },
    {
      "constant": true,
      "inputs": [
        {
          "internalType": "bytes32",
          "name": "_bytes32",
          "type": "bytes32"
        }
      ],
      "name": "bytes32ToString",
      "outputs": [
        {
          "internalType": "string",
          "name": "",
          "type": "string"
        }
      ],
      "payable": false,
      "stateMutability": "pure",
      "type": "function"
    },
    {
      "constant": true,
      "inputs": [
        {
          "internalType": "bytes32[]",
          "name": "data",
          "type": "bytes32[]"
        }
      ],
      "name": "bytes32ArrayToString",
      "outputs": [
        {
          "internalType": "string",
          "name": "",
          "type": "string"
        }
      ],
      "payable": false,
      "stateMutability": "pure",
      "type": "function"
    },
    {
      "constant": true,
      "inputs": [
        {
          "internalType": "string",
          "name": "source",
          "type": "string"
        }
      ],
      "name": "stringToBytes32Array",
      "outputs": [
        {
          "internalType": "bytes32[]",
          "name": "result",
          "type": "bytes32[]"
        }
      ],
      "payable": false,
      "stateMutability": "pure",
      "type": "function"
    },
    {
      "constant": true,
      "inputs": [
        {
          "internalType": "bytes",
          "name": "data",
          "type": "bytes"
        }
      ],
      "name": "bytesSplit32",
      "outputs": [
        {
          "internalType": "bytes32",
          "name": "",
          "type": "bytes32"
        },
        {
          "internalType": "bytes",
          "name": "",
          "type": "bytes"
        }
      ],
      "payable": false,
      "stateMutability": "pure",
      "type": "function"
    },
    {
      "constant": false,
      "inputs": [
        {
          "internalType": "bytes4",
          "name": "fnNameHash",
          "type": "bytes4"
        },
        {
          "internalType": "string",
          "name": "poll",
          "type": "string"
        },
        {
          "internalType": "uint256",
          "name": "valid",
          "type": "uint256"
        },
        {
          "internalType": "uint8",
          "name": "vt",
          "type": "uint8"
        }
      ],
      "name": "crossContractCall",
      "outputs": [
        {
          "internalType": "bytes32[]",
          "name": "",
          "type": "bytes32[]"
        }
      ],
      "payable": false,
      "stateMutability": "nonpayable",
      "type": "function"
    }
  ],
  "bytecode": "0x6080604052739d26a8a5db7dc10689692caf8d52c912958409cf600760006101000a81548173ffffffffffffffffffffffffffffffffffffffff021916908373ffffffffffffffffffffffffffffffffffffffff16021790555034801561006557600080fd5b5061352c806100756000396000f3fe6080604052600436106101815760003560e01c80636900a3ae116100d15780639201de551161008a578063b11a19e811610064578063b11a19e814611844578063bfe370d9146118f8578063d122491a146119d4578063f963393014611b9557610181565b80639201de55146115035780639cbc87a3146115b7578063a1bac85f146116f557610181565b80636900a3ae14610e885780636b2019d414610f3c5780638a9392c0146110c85780638e3dca0b146111d2578063901372441461132f57806391652043146113e657610181565b80632742bea81161013e57806356024939116101185780635602493914610a0e57806356ca623e14610af657806358666c0414610bc05780635e3e225f14610c8857610181565b80632742bea81461064f57806342526e4e146108525780634c0999c71461095a57610181565b806305af5d351461018b57806310a688e3146101bc57806313311a1c1461036357806319b5fc8b1461044b5780632333d14b146104c957806326a9cdf714610507575b610189611bc0565b005b34801561019757600080fd5b506101a0611c0d565b604051808260ff1660ff16815260200191505060405180910390f35b3480156101c857600080fd5b50610282600480360360208110156101df57600080fd5b81019080803590602001906401000000008111156101fc57600080fd5b82018360208201111561020e57600080fd5b8035906020019184600183028401116401000000008311171561023057600080fd5b91908080601f016020809104026020016040519081016040528093929190818152602001838380828437600081840152601f19601f820116905080830192505050505050509192919290505050611c16565b604051808973ffffffffffffffffffffffffffffffffffffffff1673ffffffffffffffffffffffffffffffffffffffff1681526020018881526020018781526020018660ff1660ff1681526020018560ff1660ff168152602001848152602001838152602001806020018281038252838181518152602001915080516000925b8184101561034b5782846020026020010151600560200280838360005b8381101561033a57808201518184015260208101905061031f565b505050509050019260010192610302565b92505050995050505050505050505060405180910390f35b34801561036f57600080fd5b506103f46004803603604081101561038657600080fd5b81019080803590602001906401000000008111156103a357600080fd5b8201836020820111156103b557600080fd5b803590602001918460018302840111640100000000831117156103d757600080fd5b9091929391929390803560ff169060200190929190505050611c6a565b6040518080602001828103825283818151815260200191508051906020019060200280838360005b8381101561043757808201518184015260208101905061041c565b505050509050019250505060405180910390f35b34801561045757600080fd5b506104876004803603602081101561046e57600080fd5b81019080803560ff169060200190929190505050611dd3565b604051808273ffffffffffffffffffffffffffffffffffffffff1673ffffffffffffffffffffffffffffffffffffffff16815260200191505060405180910390f35b3480156104d557600080fd5b50610505600480360360208110156104ec57600080fd5b81019080803560130b9060200190929190505050611e06565b005b34801561051357600080fd5b506105cd6004803603602081101561052a57600080fd5b810190808035906020019064010000000081111561054757600080fd5b82018360208201111561055957600080fd5b8035906020019184600183028401116401000000008311171561057b57600080fd5b91908080601f016020809104026020016040519081016040528093929190818152602001838380828437600081840152601f19601f820116905080830192505050505050509192919290505050611e4d565b6040518083815260200180602001828103825283818151815260200191508051906020019080838360005b838110156106135780820151818401526020810190506105f8565b50505050905090810190601f1680156106405780820380516001836020036101000a031916815260200191505b50935050505060405180910390f35b34801561065b57600080fd5b506108506004803603608081101561067257600080fd5b810190808035906020019064010000000081111561068f57600080fd5b8201836020820111156106a157600080fd5b803590602001918460018302840111640100000000831117156106c357600080fd5b91908080601f016020809104026020016040519081016040528093929190818152602001838380828437600081840152601f19601f8201169050808301925050505050505091929192908035906020019064010000000081111561072657600080fd5b82018360208201111561073857600080fd5b8035906020019184600183028401116401000000008311171561075a57600080fd5b91908080601f016020809104026020016040519081016040528093929190818152602001838380828437600081840152601f19601f820116905080830192505050505050509192919290803560ff169060200190929190803590602001906401000000008111156107ca57600080fd5b8201836020820111156107dc57600080fd5b803590602001918460018302840111640100000000831117156107fe57600080fd5b91908080601f016020809104026020016040519081016040528093929190818152602001838380828437600081840152601f19601f820116905080830192505050505050509192919290505050611fd8565b005b34801561085e57600080fd5b506109186004803603602081101561087557600080fd5b810190808035906020019064010000000081111561089257600080fd5b8201836020820111156108a457600080fd5b803590602001918460018302840111640100000000831117156108c657600080fd5b91908080601f016020809104026020016040519081016040528093929190818152602001838380828437600081840152601f19601f8201169050808301925050505050505091929192905050506120e4565b604051808273ffffffffffffffffffffffffffffffffffffffff1673ffffffffffffffffffffffffffffffffffffffff16815260200191505060405180910390f35b34801561096657600080fd5b506109936004803603602081101561097d57600080fd5b8101908080359060200190929190505050612109565b6040518080602001828103825283818151815260200191508051906020019080838360005b838110156109d35780820151818401526020810190506109b8565b50505050905090810190601f168015610a005780820380516001836020036101000a031916815260200191505b509250505060405180910390f35b348015610a1a57600080fd5b50610a9f60048036036040811015610a3157600080fd5b8101908080359060200190640100000000811115610a4e57600080fd5b820183602082011115610a6057600080fd5b80359060200191846001830284011164010000000083111715610a8257600080fd5b9091929391929390803560ff1690602001909291905050506121b1565b6040518080602001828103825283818151815260200191508051906020019060200280838360005b83811015610ae2578082015181840152602081019050610ac7565b505050509050019250505060405180910390f35b348015610b0257600080fd5b50610b4560048036036020811015610b1957600080fd5b81019080803573ffffffffffffffffffffffffffffffffffffffff16906020019092919050505061231a565b6040518080602001828103825283818151815260200191508051906020019080838360005b83811015610b85578082015181840152602081019050610b6a565b50505050905090810190601f168015610bb25780820380516001836020036101000a031916815260200191505b509250505060405180910390f35b348015610bcc57600080fd5b50610c8660048036036020811015610be357600080fd5b8101908080359060200190640100000000811115610c0057600080fd5b820183602082011115610c1257600080fd5b80359060200191846001830284011164010000000083111715610c3457600080fd5b91908080601f016020809104026020016040519081016040528093929190818152602001838380828437600081840152601f19601f82011690508083019250505050505050919291929050505061237c565b005b348015610c9457600080fd5b50610e8660048036036080811015610cab57600080fd5b8101908080359060200190640100000000811115610cc857600080fd5b820183602082011115610cda57600080fd5b80359060200191846001830284011164010000000083111715610cfc57600080fd5b91908080601f016020809104026020016040519081016040528093929190818152602001838380828437600081840152601f19601f82011690508083019250505050505050919291929080359060200190640100000000811115610d5f57600080fd5b820183602082011115610d7157600080fd5b80359060200191846001830284011164010000000083111715610d9357600080fd5b91908080601f016020809104026020016040519081016040528093929190818152602001838380828437600081840152601f19601f820116905080830192505050505050509192919290803560ff16906020019092919080359060200190640100000000811115610e0357600080fd5b820183602082011115610e1557600080fd5b80359060200191846020830284011164010000000083111715610e3757600080fd5b919080806020026020016040519081016040528093929190818152602001838360200280828437600081840152601f19601f82011690508083019250505050505050919291929050505061241b565b005b348015610e9457600080fd5b50610ec160048036036020811015610eab57600080fd5b81019080803590602001909291905050506125ea565b6040518080602001828103825283818151815260200191508051906020019080838360005b83811015610f01578082015181840152602081019050610ee6565b50505050905090810190601f168015610f2e5780820380516001836020036101000a031916815260200191505b509250505060405180910390f35b348015610f4857600080fd5b506110c660048036036080811015610f5f57600080fd5b8101908080359060200190640100000000811115610f7c57600080fd5b820183602082011115610f8e57600080fd5b80359060200191846001830284011164010000000083111715610fb057600080fd5b91908080601f016020809104026020016040519081016040528093929190818152602001838380828437600081840152601f19601f8201169050808301925050505050505091929192908035906020019064010000000081111561101357600080fd5b82018360208201111561102557600080fd5b8035906020019184600183028401116401000000008311171561104757600080fd5b91908080601f016020809104026020016040519081016040528093929190818152602001838380828437600081840152601f19601f820116905080830192505050505050509192919290803560ff169060200190929190803573ffffffffffffffffffffffffffffffffffffffff16906020019092919050505061261d565b005b3480156110d457600080fd5b506111b8600480360360608110156110eb57600080fd5b81019080803573ffffffffffffffffffffffffffffffffffffffff1690602001909291908035906020019064010000000081111561112857600080fd5b82018360208201111561113a57600080fd5b8035906020019184600183028401116401000000008311171561115c57600080fd5b91908080601f016020809104026020016040519081016040528093929190818152602001838380828437600081840152601f19601f82011690508083019250505050505050919291929080359060200190929190505050612748565b604051808215151515815260200191505060405180910390f35b3480156111de57600080fd5b506112d8600480360360808110156111f557600080fd5b8101908080357bffffffffffffffffffffffffffffffffffffffffffffffffffffffff191690602001909291908035906020019064010000000081111561123b57600080fd5b82018360208201111561124d57600080fd5b8035906020019184600183028401116401000000008311171561126f57600080fd5b91908080601f016020809104026020016040519081016040528093929190818152602001838380828437600081840152601f19601f82011690508083019250505050505050919291929080359060200190929190803560ff169060200190929190505050612c74565b6040518080602001828103825283818151815260200191508051906020019060200280838360005b8381101561131b578082015181840152602081019050611300565b505050509050019250505060405180910390f35b34801561133b57600080fd5b5061136b6004803603602081101561135257600080fd5b81019080803560ff169060200190929190505050612cf0565b6040518080602001828103825283818151815260200191508051906020019080838360005b838110156113ab578082015181840152602081019050611390565b50505050905090810190601f1680156113d85780820380516001836020036101000a031916815260200191505b509250505060405180910390f35b3480156113f257600080fd5b506114ac6004803603602081101561140957600080fd5b810190808035906020019064010000000081111561142657600080fd5b82018360208201111561143857600080fd5b8035906020019184600183028401116401000000008311171561145a57600080fd5b91908080601f016020809104026020016040519081016040528093929190818152602001838380828437600081840152601f19601f820116905080830192505050505050509192919290505050612da0565b6040518080602001828103825283818151815260200191508051906020019060200280838360005b838110156114ef5780820151818401526020810190506114d4565b505050509050019250505060405180910390f35b34801561150f57600080fd5b5061153c6004803603602081101561152657600080fd5b8101908080359060200190929190505050612e06565b6040518080602001828103825283818151815260200191508051906020019080838360005b8381101561157c578082015181840152602081019050611561565b50505050905090810190601f1680156115a95780820380516001836020036101000a031916815260200191505b509250505060405180910390f35b3480156115c357600080fd5b5061167a600480360360208110156115da57600080fd5b81019080803590602001906401000000008111156115f757600080fd5b82018360208201111561160957600080fd5b8035906020019184602083028401116401000000008311171561162b57600080fd5b919080806020026020016040519081016040528093929190818152602001838360200280828437600081840152601f19601f820116905080830192505050505050509192919290505050612e1d565b6040518080602001828103825283818151815260200191508051906020019080838360005b838110156116ba57808201518184015260208101905061169f565b50505050905090810190601f1680156116e75780820380516001836020036101000a031916815260200191505b509250505060405180910390f35b34801561170157600080fd5b506117c96004803603604081101561171857600080fd5b810190808035906020019064010000000081111561173557600080fd5b82018360208201111561174757600080fd5b8035906020019184600183028401116401000000008311171561176957600080fd5b91908080601f016020809104026020016040519081016040528093929190818152602001838380828437600081840152601f19601f820116905080830192505050505050509192919290803561ffff169060200190929190505050612fe0565b6040518080602001828103825283818151815260200191508051906020019080838360005b838110156118095780820151818401526020810190506117ee565b50505050905090810190601f1680156118365780820380516001836020036101000a031916815260200191505b509250505060405180910390f35b34801561185057600080fd5b5061187d6004803603602081101561186757600080fd5b810190808035906020019092919050505061325d565b6040518080602001828103825283818151815260200191508051906020019080838360005b838110156118bd5780820151818401526020810190506118a2565b50505050905090810190601f1680156118ea5780820380516001836020036101000a031916815260200191505b509250505060405180910390f35b34801561190457600080fd5b506119be6004803603602081101561191b57600080fd5b810190808035906020019064010000000081111561193857600080fd5b82018360208201111561194a57600080fd5b8035906020019184600183028401116401000000008311171561196c57600080fd5b91908080601f016020809104026020016040519081016040528093929190818152602001838380828437600081840152601f19601f820116905080830192505050505050509192919290505050613290565b6040518082815260200191505060405180910390f35b3480156119e057600080fd5b50611b3e600480360360608110156119f757600080fd5b8101908080359060200190640100000000811115611a1457600080fd5b820183602082011115611a2657600080fd5b80359060200191846001830284011164010000000083111715611a4857600080fd5b91908080601f016020809104026020016040519081016040528093929190818152602001838380828437600081840152601f19601f82011690508083019250505050505050919291929080359060200190640100000000811115611aab57600080fd5b820183602082011115611abd57600080fd5b80359060200191846001830284011164010000000083111715611adf57600080fd5b91908080601f016020809104026020016040519081016040528093929190818152602001838380828437600081840152601f19601f820116905080830192505050505050509192919290803560ff1690602001909291905050506132a3565b6040518080602001828103825283818151815260200191508051906020019060200280838360005b83811015611b81578082015181840152602081019050611b66565b505050509050019250505060405180910390f35b348015611ba157600080fd5b50611baa6133e6565b6040518082815260200191505060405180910390f35b60606000368080601f016020809104026020016040519081016040528093929190818152602001838380828437600081840152601f19601f82011690508083019250505050505050905050565b60006001905090565b600080600080600080600060606103e89650619c40955060039450600393506501728eee956092506501728ef01c009150878787878787878797509750975097509750975097509750919395975091939597565b6060806004604051908082528060200260200182016040528015611c9d5781602001602082028038833980820191505090505b509050600060056000600583935082925081915080905084600081518110611cc157fe5b6020026020010185600181518110611cd557fe5b6020026020010186600281518110611ce957fe5b6020026020010187600381518110611cfd57fe5b602002602001018473ffffffffffffffffffffffffffffffffffffffff1673ffffffffffffffffffffffffffffffffffffffff168152508473ffffffffffffffffffffffffffffffffffffffff1673ffffffffffffffffffffffffffffffffffffffff168152508473ffffffffffffffffffffffffffffffffffffffff1673ffffffffffffffffffffffffffffffffffffffff168152508473ffffffffffffffffffffffffffffffffffffffff1673ffffffffffffffffffffffffffffffffffffffff1681525050505050809150509392505050565b60036020528060005260406000206000915054906101000a900473ffffffffffffffffffffffffffffffffffffffff1681565b80600660006101000a81548173ffffffffffffffffffffffffffffffffffffffff021916908360130b73ffffffffffffffffffffffffffffffffffffffff16021790555050565b6000606060006020905060008090508160ff1685511115611e72578160ff1685510390505b600060608360ff166040519080825280601f01601f191660200182016040528015611eac5781602001600182028038833980820191505090505b5090506060836040519080825280601f01601f191660200182016040528015611ee45781602001600182028038833980820191505090505b50905060008090505b60018951038111611fbf578560ff16811015611f5a57888181518110611f0f57fe5b602001015160f81c60f81b838281518110611f2657fe5b60200101907effffffffffffffffffffffffffffffffffffffffffffffffffffffffffffff1916908160001a905350611fb2565b888181518110611f6657fe5b602001015160f81c60f81b828760ff16830381518110611f8257fe5b60200101907effffffffffffffffffffffffffffffffffffffffffffffffffffffffffffff1916908160001a9053505b8080600101915050611eed565b50611fc982613290565b81965096505050505050915091565b600084611fe485613400565b846040516020018084805190602001908083835b6020831061201b5780518252602082019150602081019050602083039250611ff8565b6001836020036101000a038019825116818451168082178552505050505050905001837bffffffffffffffffffffffffffffffffffffffffffffffffffffffff19167bffffffffffffffffffffffffffffffffffffffffffffffffffffffff191681526004018260ff1660ff1660f81b815260010193505050506040516020818303038152906040528051906020012090506120b682612da0565b6001600083815260200190815260200160002090805190602001906120dc929190613411565b505050505050565b6000806c01000000000000000000000000600060208501015104905080915050919050565b60608060206040519080825280601f01601f1916602001820160405280156121405781602001600182028038833980820191505090505b50905060005b60208110156121a75783816020811061215b57fe5b1a60f81b82828151811061216b57fe5b60200101907effffffffffffffffffffffffffffffffffffffffffffffffffffffffffffff1916908160001a9053508080600101915050612146565b5080915050919050565b60608060046040519080825280602002602001820160405280156121e45781602001602082028038833980820191505090505b50905060056000600560008393508292508191508090508460008151811061220857fe5b602002602001018560018151811061221c57fe5b602002602001018660028151811061223057fe5b602002602001018760038151811061224457fe5b602002602001018473ffffffffffffffffffffffffffffffffffffffff1673ffffffffffffffffffffffffffffffffffffffff168152508473ffffffffffffffffffffffffffffffffffffffff1673ffffffffffffffffffffffffffffffffffffffff168152508473ffffffffffffffffffffffffffffffffffffffff1673ffffffffffffffffffffffffffffffffffffffff168152508473ffffffffffffffffffffffffffffffffffffffff1673ffffffffffffffffffffffffffffffffffffffff1681525050505050809150509392505050565b606061237582604051602001808273ffffffffffffffffffffffffffffffffffffffff1673ffffffffffffffffffffffffffffffffffffffff1660601b81526014019150506040516020818303038152906040526005612fe0565b9050919050565b7fbef39ac07ea6b8a7a08590612f317b1db2e9821fea4739345478345d853321e7816040518080602001828103825283818151815260200191508051906020019080838360005b838110156123de5780820151818401526020810190506123c3565b50505050905090810190601f16801561240b5780820380516001836020036101000a031916815260200191505b509250505060405180910390a150565b60008461242785613400565b846040516020018084805190602001908083835b6020831061245e578051825260208201915060208101905060208303925061243b565b6001836020036101000a038019825116818451168082178552505050505050905001837bffffffffffffffffffffffffffffffffffffffffffffffffffffffff19167bffffffffffffffffffffffffffffffffffffffffffffffffffffffff191681526004018260ff1660ff1660f81b815260010193505050506040516020818303038152906040528051906020012090507f22f14870a91b566771f61195a4f0531a7d6968b4a2aba4dbe5bf74d8905ea6a46206793260016000848152602001908152602001600020604051808060200184815260200180602001838103835260128152602001807f56616c696461746f7220636f6e746578743a000000000000000000000000000081525060200183810382528481815481526020019150805480156125ab57602002820191906000526020600020905b815481526020019060010190808311612597575b505094505050505060405180910390a1816001600083815260200190815260200160002090805190602001906125e2929190613411565b505050505050565b606061261682604051602001808281526020019150506040516020818303038152906040526000612fe0565b9050919050565b60008461262985613400565b846040516020018084805190602001908083835b60208310612660578051825260208201915060208101905060208303925061263d565b6001836020036101000a038019825116818451168082178552505050505050905001837bffffffffffffffffffffffffffffffffffffffffffffffffffffffff19167bffffffffffffffffffffffffffffffffffffffffffffffffffffffff191681526004018260ff1660ff1660f81b81526001019350505050604051602081830303815290604052805190602001209050600160008281526020019081526020016000208260601b6bffffffffffffffffffffffff191690806001815401808255809150509060018203906000526020600020016000909192909190915055505050505050565b6000606061278d846040518060400160405280601081526020017f73657269616c6973655374616b6572730000000000000000000000000000000081525060016132a3565b905060606127d2856040518060400160405280600f81526020017f73657269616c69736550726f6f6673000000000000000000000000000000000081525060016132a3565b9050606082516040519080825280602002602001820160405280156128065781602001602082028038833980820191505090505b5090506060825160405190808252806020026020018201604052801561283b5781602001602082028038833980820191505090505b50905060008090505b84518161ffff1610156128d057612879612874868361ffff168151811061286757fe5b6020026020010151612109565b6120e4565b838261ffff168151811061288957fe5b602002602001019073ffffffffffffffffffffffffffffffffffffffff16908173ffffffffffffffffffffffffffffffffffffffff16815250508080600101915050612844565b600090505b83518161ffff1610156129615761290a612905858361ffff16815181106128f857fe5b6020026020010151612109565b6120e4565b828261ffff168151811061291a57fe5b602002602001019073ffffffffffffffffffffffffffffffffffffffff16908173ffffffffffffffffffffffffffffffffffffffff168152505080806001019150506128d5565b60006001905061296f61345e565b600092505b83518361ffff161015612b24577fffffffffffffffffffffffffffffffffffffffffffffffffffffffffffffffff816020019060000b908160000b8152505060008090505b8551811015612ae9578581815181106129ce57fe5b602002602001015173ffffffffffffffffffffffffffffffffffffffff16858561ffff16815181106129fc57fe5b602002602001015173ffffffffffffffffffffffffffffffffffffffff161415612adc573373ffffffffffffffffffffffffffffffffffffffff16858561ffff1681518110612a4757fe5b602002602001015173ffffffffffffffffffffffffffffffffffffffff161415612a7d5760018260600190151590811515815250505b81602001805180919060010160000b60000b815250506000868281518110612aa157fe5b602002602001019073ffffffffffffffffffffffffffffffffffffffff16908173ffffffffffffffffffffffffffffffffffffffff16815250505b80806001019150506129b9565b506000816020015160000b1315612b17578060200151816040018181510191509060ff16908160ff16815250505b8280600101935050612974565b8060600151612b7e576040517f08c379a00000000000000000000000000000000000000000000000000000000081526004018080602001828103825260228152602001806134b56022913960400191505060405180910390fd5b8160ff16816040015160ff168551031015612be4576040517f08c379a00000000000000000000000000000000000000000000000000000000081526004018080602001828103825260218152602001806134d76021913960400191505060405180910390fd5b806040015160ff1684511415612c62576040517f08c379a00000000000000000000000000000000000000000000000000000000081526004018080602001828103825260148152602001807f416c6c2070726f6f667320776572652066616b6500000000000000000000000081525060200191505060405180910390fd5b60019750505050505050509392505050565b60606000600760009054906101000a900473ffffffffffffffffffffffffffffffffffffffff1690507f1ff50e4650f7f1e5b26a5f5e921b803deee4a95a1b6ef46e05992b3bc1dcdb8c60405160405180910390a160405136600082376000803683855af43d806000843e8160008114612cec578184f35b8184fd5b60046020528060005260406000206000915090508054600181600116156101000203166002900480601f016020809104026020016040519081016040528092919081815260200182805460018160011615610100020316600290048015612d985780601f10612d6d57610100808354040283529160200191612d98565b820191906000526020600020905b815481529060010190602001808311612d7b57829003601f168201915b505050505081565b606060006001905060008090505b8161ffff168161ffff1611612dfc576000600182016020029050600081860151905080858461ffff1681518110612de157fe5b60200260200101818152505050508080600101915050612dae565b5081915050919050565b606080612e1283612109565b905080915050919050565b60608060208351026040519080825280601f01601f191660200182016040528015612e575781602001600182028038833980820191505090505b50905060008060009050600090505b8451811015612f305760008090505b6020811015612f225760008160080260020a878481518110612e9357fe5b602002602001015160001c0260001b9050600060f81b817effffffffffffffffffffffffffffffffffffffffffffffffffffffffffffff191614612f145780858581518110612ede57fe5b60200101907effffffffffffffffffffffffffffffffffffffffffffffffffffffffffffff1916908160001a9053506001840193505b508080600101915050612e75565b508080600101915050612e66565b6060826040519080825280601f01601f191660200182016040528015612f655781602001600182028038833980820191505090505b509050600091505b82821015612fd457838281518110612f8157fe5b602001015160f81c60f81b818381518110612f9857fe5b60200101907effffffffffffffffffffffffffffffffffffffffffffffffffffffffffffff1916908160001a9053508180600101925050612f6d565b80945050505050919050565b6060806040518060400160405280601081526020017f3031323334353637383961626364656600000000000000000000000000000000815250905060006014905060606002820260020161ffff166040519080825280601f01601f1916602001820160405280156130605781602001600182028038833980820191505090505b5090507f30000000000000000000000000000000000000000000000000000000000000008160008151811061309157fe5b60200101907effffffffffffffffffffffffffffffffffffffffffffffffffffffffffffff1916908160001a9053507f7800000000000000000000000000000000000000000000000000000000000000816001815181106130ee57fe5b60200101907effffffffffffffffffffffffffffffffffffffffffffffffffffffffffffff1916908160001a90535060008090505b8261ffff168110156132505783600488838151811061313e57fe5b602001015160f81c60f81b7effffffffffffffffffffffffffffffffffffffffffffffffffffffffffffff1916901c60f81c60ff168151811061317d57fe5b602001015160f81c60f81b82600283026002018151811061319a57fe5b60200101907effffffffffffffffffffffffffffffffffffffffffffffffffffffffffffff1916908160001a90535083600f60f81b8883815181106131db57fe5b602001015160f81c60f81b1660f81c60ff16815181106131f757fe5b602001015160f81c60f81b82600283026003018151811061321457fe5b60200101907effffffffffffffffffffffffffffffffffffffffffffffffffffffffffffff1916908160001a9053508080600101915050613123565b5080935050505092915050565b606061328982604051602001808281526020019150506040516020818303038152906040526000612fe0565b9050919050565b6000806020830151905080915050919050565b60606000846132b185613400565b846040516020018084805190602001908083835b602083106132e857805182526020820191506020810190506020830392506132c5565b6001836020036101000a038019825116818451168082178552505050505050905001837bffffffffffffffffffffffffffffffffffffffffffffffffffffffff19167bffffffffffffffffffffffffffffffffffffffffffffffffffffffff191681526004018260ff1660ff1660f81b81526001019350505050604051602081830303815290604052805190602001209050600160008281526020019081526020016000208054806020026020016040519081016040528092919081815260200182805480156133d757602002820191906000526020600020905b8154815260200190600101908083116133c3575b50505050509150509392505050565b6000600660009054906101000a900460130b60130b905090565b600081805190602001209050919050565b82805482825590600052602060002090810192821561344d579160200282015b8281111561344c578251825591602001919060010190613431565b5b50905061345a919061348f565b5090565b60405180608001604052806000151581526020016000800b8152602001600060ff1681526020016000151581525090565b6134b191905b808211156134ad576000816000905550600101613495565b5090565b9056fe53656e64657220646964206e6f7420726567697374657220617474656e64616e63654e6f7420656e6f75676820617474656e6465657320696e20636f6e73656e737573a265627a7a72315820f3d0cf3efa1c8ad1ab3f4b9edea06f9f47a6c6d4334b635df53aa3521a1864fa64736f6c63430005100032",
  "source": "pragma solidity ^0.5.0;\n\nimport \"./strings.sol\";\nimport \"./stringCasting.sol\";\n// import \"./BytesLib.sol\";\n\n\n/* empty contract - the real one is depolyed at an address which will be passed as param to validate */\n\n// contract PollReference {\n//     function serialiseStakers(string calldata _poll, uint8 validationType) external returns (address[] memory) {\n//         // return something which will make it obvious that you have accidentally delegated this context!\n//         address[] memory ret = new address[](3);\n//         (ret[0], ret[1], ret[2]) = (address(9), address(9), address(9));\n//         return ret;\n//\n//     }\n//\n//     function serialiseProofs(string calldata _poll, uint8 validationType) external returns (address[] memory) {\n//         // return something which will make it obvious that you have accidentally delegated this context!\n//         address[] memory ret = new address[](4);\n//         (ret[0], ret[1], ret[2], ret[3]) = (address(6), address(6), address(6), address(6));\n//         return ret;\n//     }\n// }\n\n\n/* Lunchcoin validator contract - mutual agreement */\ncontract MutualAgreement {\n    // Common storage structure for ALL contacts using this storage.\n    // _, __, __ , etc are unused in this contract, but must remain to occupy their slots.\n\n    address owner;  // is set by TokenStorage.. but retain types and order.\n\n    struct TimeRange {\n      uint start;\n      uint end;\n    }\n\n    struct Stake {\n      uint rep;\n      TimeRange[] available;\n      uint availabilityExpires;\n    }\n\n    struct Poll {\n      address initiator;\n      uint minStake;\n      uint venueCost;\n      uint8 minParticipants;\n      TimeRange eventTime;\n      mapping (address => Stake) staked;\n      mapping (address => bytes32[]) committedProofs;\n    }\n\n    struct PollExternal {\n      address initiator;\n      uint minStake;\n      uint venueCost;\n      uint8 minParticipants;\n      TimeRange eventTime;\n      // NB external view of Poll can never correctly represent committedProofs (a mapping to a dynamic array).\n      // Need to either make it indicative, or fixed size.\n      bytes32[5][] committedProofs;\n      address[] provers;\n    }\n\n    // shared across contracts\n    mapping (bytes32 => bytes32[]) allTheData;\n    mapping (bytes32 => bool) resultsCache;\n\n    // used only in Poll\n    mapping(uint8 => address) public __validators;\n    mapping(uint8 => string) public __validatorNames;\n    address __selfAddy ;\n\n\n    int160 flag;\n\n    // unused - previously for Storage Proxy\n    //    mapping (address => bool) internal _allowedAccess;\n\n    // used only in Validators\n\n      // used for testing only - will be deleted.\n      address pollAddress = 0x9D26a8a5Db7dC10689692caF8d52C912958409CF;\n\n    // constants: Do not use space in storage.\n    uint8 constant vType=1;\n    string constant vDesc = \"mutual agreement\";\n\n\n    struct proofCounter {\n        bool fakeProof;\n        int8 duplicateProofs;\n        uint8 fakeProofs;\n        bool senderIsPresent;\n    }\n\n\n    using strings for *;\n    using stringcast for string;\n\n    function () payable external {\n        _fallback();\n    }\n\n    // function() external payable {\n    //     // NB sol 0.6+ better syntax for calldata arrays : https://solidity.readthedocs.io/en/v0.6.0/types.html#array-slices\n    //     bytes memory input = msg.data;\n    //\n    //     // TODO: This is V.0 accepting a string (really a bytes32) of EXACTLY 32 bytes, eg a doodle poll without the https:// ;)\n    //     bytes32 __ownAdress;  // NB assuming 32b rather than 20b for calldata loose packing. Remember to get rid of this line when optimising!\n    //     bytes memory usefulData;\n    //     bytes32 poll32;\n    //     bytes memory __reveal;\n    //     // demo result! (we don;t need more than bool really ;)\n    //     uint256 valid = 7331;\n    //\n    //     (__ownAdress, usefulData) = (bytesSplit32(input));\n    //     (poll32, __reveal) = (bytesSplit32(usefulData));\n    //\n    //     // NB other validators will need to additionally retrieve reveal data from msg.data\n    //     bytes32[] memory stakers = crossContractCall (encodeFunctionName(\"serialiseStakers\"), bytes32ToString(poll32), valid, vType);\n    //     bytes32[] memory proofs = crossContractCall (encodeFunctionName(\"serialiseProofs\"), bytes32ToString(poll32), valid, vType);\n    //\n    // }\n\n    constructor () public {\n        // testing constructor access to storage across shared storage\n        // (one for later ;)\n        // constructed = 1;\n    }\n\n    function _fallback() internal {\n        bytes memory input = msg.data;\n\n\n    }\n\n    event logStuff (string);\n\n    function doEmit (string memory message) public {\n      emit logStuff (message);\n    }\n\n    function getFlag() public view returns (int) {\n      return flag;\n    }\n\n    function setFlag(int160 _flag) public {\n      flag = _flag;\n    }\n\n    function getPoll(string memory poll) public view returns (\n        address initiator,\n        uint stake,\n        uint venueCost,\n        uint8 minParticipants,\n        uint8 participants,\n        uint start,\n        uint end,\n        bytes32[5][] memory committedProofs ) {\n\n        // initiator = new address(0x0);\n        stake = 1000;\n        venueCost = 40000;\n        minParticipants = 3;\n        participants = 3;\n        start = 1591535900000;\n        end = 1591536000000;\n\n\n      return (initiator, stake, venueCost, minParticipants, participants, start, end, committedProofs);\n    }\n\n    event RetrievedDataCache(string, uint256, bytes32[]);\n    function retrieve (string memory _poll, string memory _fnName, uint8 _vt) public view returns (bytes32[] memory) {\n        bytes32 hash = keccak256(abi.encodePacked(_poll, encodeFunctionName(_fnName), _vt));\n        // emit RetrievedDataCache(\"Poll context:\", notes, allTheData[hash]);\n        return (allTheData[hash]);\n    }\n\n    function set (string memory _poll, string memory _fnName, uint8 _vt, bytes32[] memory data) public {\n      bytes32 hash = keccak256(abi.encodePacked(_poll, encodeFunctionName(_fnName), _vt));\n      emit RetrievedDataCache(\"Validator context:\", 424242, allTheData[hash]);\n      allTheData[hash] = data;\n    }\n\n    function add (string memory _poll, string memory _fnName, uint8 _vt, address newMember) public {\n      bytes32 hash = keccak256(abi.encodePacked(_poll, encodeFunctionName(_fnName), _vt));\n      allTheData[hash].push (bytes32(bytes20(newMember)));\n    }\n\n    function setString (string memory _poll, string memory _fnName, uint8 _vt, string memory data) public {\n      bytes32 hash = keccak256(abi.encodePacked(_poll, encodeFunctionName(_fnName), _vt));\n      // emit RetrievedDataCache(\"Poll context:\", notes, allTheData[hash]);\n      allTheData[hash] = stringToBytes32Array(data);\n    }\n\n    event whatTheFuck (string, uint16, uint, address, address, address);\n    event cool (uint16, uint);\n    event numberLoggerLikeImUsingFuckingJava (string, uint);\n    /* simplest possible validator - checks that a majority of poll.stakers(), including sender, are contained in poll.serialiseProofs() */\n    function validate(address _pollContract, string memory _poll, bytes32 _reveal) public view returns (bool) {\n        // require (_pollContract==howeverYoullIdentifySelf, 'wrong Poll contract - something needs upgrading');\n\n        bytes32[] memory rawStakers = retrieve(_poll, \"serialiseStakers\", vType);\n        bytes32[] memory rawProofs = retrieve(_poll, \"serialiseProofs\", vType);\n\n        // address[] memory stakers = splitToAddresses( bytes32ArrayToString(rawStakers));\n        // address[] memory proofs = splitToAddresses( bytes32ArrayToString(rawProofs));\n\n        address[] memory stakers = new address[](rawStakers.length);\n        address[] memory proofs = new address[](rawProofs.length);\n        uint16 i;\n\n        for(i = 0; i < rawStakers.length; i++) {\n            stakers[i] = bytesToAddress(bytes32ToBytes(rawStakers[i]));\n        }\n        for(i = 0; i < rawProofs.length; i++) {\n            proofs[i] = bytesToAddress(bytes32ToBytes(rawProofs[i]));\n        }\n        uint8 threshold = 1 ;\n        // emit numberLoggerLikeImUsingFuckingJava('stakers',stakers.length);\n        // emit numberLoggerLikeImUsingFuckingJava('proofs',proofs.length);\n\n        proofCounter memory pc;\n        // emit logStuff(\"am alive\");\n        for(i = 0; i < proofs.length; i++) {\n            // emit logStuff(\"started loop\");\n            pc.duplicateProofs = -1;\n            for(uint j = 0; j < stakers.length; j++) {\n                // emit whatThe (\"Huh?\",i,j,proofs[i], stakers[j], msg.sender);\n                if (proofs[i] == stakers[j]) {\n                    // emit cool (i,j);\n                    // Only set senderIsPresent = true the first time that proofs[i] == stakers[j] == msg.sender\n                    // if (proofs[i] == msg.sender) {\n                    if (proofs[i] == msg.sender) {\n                      pc.senderIsPresent = true;\n                      // emit logStuff(\"found sender\");\n                      // flag = int160(1000*i+j);\n                    }\n                    // set duplicateProofs hopefully to 0, and remove staker from the array\n                    pc.duplicateProofs++;\n                    stakers[j] = address(0);\n                    // emit logStuff(\"loop\");\n                }\n            }\n            if (pc.duplicateProofs>0) { pc.fakeProofs += uint8(pc.duplicateProofs); }\n        }\n\n        // // deal with 0 < threshold < 1\n        // if(percentageThreshold>0) {\n        //   threshold = percentageThreshold*stakers.length;\n        // }\n        // if (pc.senderIsPresent && (proofs.length-pc.fakeProofs >= threshold)) {\n        //     return true;\n        // }\n        // return false;\n\n        if (!pc.senderIsPresent)\n            revert('Sender did not register attendance');\n        if (proofs.length-pc.fakeProofs < threshold)\n            revert('Not enough attendees in consensus');\n        if (proofs.length == pc.fakeProofs)\n            revert('All proofs were fake');\n\n        // if (!pc.senderIsPresent)\n        //     emit logStuff('Sender did not register attendance');\n        // if (proofs.length-pc.fakeProofs < threshold)\n        //     emit logStuff('Not enough attendees in consensus');\n        // if (proofs.length == pc.fakeProofs)\n        //     emit logStuff('All proofs were fake');\n        // emit numberLoggerLikeImUsingFuckingJava ('fakeProofs',pc.fakeProofs);\n        // emit numberLoggerLikeImUsingFuckingJava ('proofs.length',proofs.length);\n        return true;\n    }\n\n    function serialiseStakers(string calldata _poll, uint8 validationType) external pure returns (address[] memory) {\n        // return something which will make it obvious that you have accidentally delegated this context!\n        address[] memory ret = new address[](4);\n        (ret[0], ret[1], ret[2], ret[3]) = (address(5), address(0), address(5), address(0));\n        return ret;\n    }\n\n    function serialiseProofs(string calldata _poll, uint8 validationType) external pure returns (address[] memory) {\n        // return something which will make it obvious that you have accidentally delegated this context!\n        address[] memory ret = new address[](4);\n        (ret[0], ret[1], ret[2], ret[3]) = (address(0), address(5), address(0), address(5));\n        return ret;\n    }\n\n\n    function proofType() public pure returns (uint8) {\n      return vType;\n    }\n\n    function encodeFunctionName (string memory name) internal pure returns (bytes4) {\n        // TODO: cache for readability!\n        // if (\"serialiseStakers\")\n        //     return\n        // if (\"serialiseStakers\")\n        //     return\n        return bytes4(keccak256(bytes(name)));\n    }\n\n    // split a serialised string of addresses (as received from main contract).\n    // NB - only works in this validator - other validators will use multiple types within serialised string\n    function splitToAddresses(string memory _concatenated) internal pure returns (address[] memory result) {\n        strings.slice memory delim = \",\".toSlice();\n        strings.slice memory source = _concatenated.toSlice();\n        address[] memory parts = new address[](source.count(delim));\n\n        for(uint i = 0; i < parts.length; i++) {\n           parts[i] = source.split(delim).toString().toAddress();\n        }\n        return parts;\n\n    }\n\n    function bytesToAddress(bytes memory _bytes) public pure returns (address) {\n      address tempAddress;\n      assembly {\n          tempAddress := div(mload(add(add(_bytes, 0x20), 0)), 0x1000000000000000000000000)\n      }\n      return tempAddress;\n    }\n\n    function toString(address account) public pure returns(string memory) {\n        return toString(abi.encodePacked(account), 5);\n    }\n\n    function toString(uint256 value) public pure returns(string memory) {\n        return toString(abi.encodePacked(value), 0);\n    }\n\n    function toString(bytes32 value) public pure returns(string memory) {\n        return toString(abi.encodePacked(value), 0);\n    }\n\n    function toString(bytes memory data, uint16 len) public pure returns(string memory) {\n        bytes memory alphabet = \"0123456789abcdef\";\n        uint16 strLen = 20;  // It's 20. The length is just fucking 20.  uint16(data.length);\n        // Pretty simple if statement - why won't it work ?\n        // if (len>0) {\n        //     strLen = len;\n        // }\n\n\n        bytes memory str = new bytes(2 + strLen * 2);\n        str[0] = '0';\n        str[1] = 'x';\n        for (uint i = 0; i < strLen; i++) {\n            str[2+i*2] = alphabet[uint(uint8(data[i] >> 4))];\n            str[3+i*2] = alphabet[uint(uint8(data[i] & 0x0f))];\n        }\n        return string(str);\n    }\n\n\n    function bytes32ToBytes(bytes32 _bytes32) public pure returns (bytes memory){\n        // string memory str = string(_bytes32);\n        // TypeError: Explicit type conversion not allowed from \"bytes32\" to \"string storage pointer\"\n        bytes memory bytesArray = new bytes(32);\n        for (uint256 i; i < 32; i++) {\n            bytesArray[i] = _bytes32[i];\n        }\n        return bytesArray;\n    }\n\n    // function bytesToBytes32(bytes b, uint offset) private pure returns (bytes32) {\n    //     bytes32 out;\n\n    //     for (uint i = 0; i < 32; i++) {\n    //         out |= bytes32(b[offset + i] & 0xFF) >> (i * 8);\n    //     }\n    //     return out;\n    // }\n\n\n    function bytesToBytes32(bytes memory b) public pure returns (bytes32 bts) {\n        bytes32 i;\n        //NB size etc= 32b = 0x20b\n        assembly { i := mload(add(b, 0x20)) }\n        bts = i;\n    }\n\n    function bytes32ToString(bytes32 _bytes32) public pure returns (string memory ){\n        bytes memory bytesArray = bytes32ToBytes(_bytes32);\n        return string(bytesArray);\n    }\n\n    function bytes32ArrayToString (bytes32[] memory data) public pure returns (string memory ) {\n        bytes memory bytesString = new bytes(data.length * 32);\n        uint urlLength;\n        uint i=0;\n        for (i=0; i<data.length; i++) {\n            for (uint j=0; j<32; j++) {\n                byte char = byte(bytes32(uint(data[i]) * 2 ** (8 * j)));\n                if (char != 0) {\n                    bytesString[urlLength] = char;\n                    urlLength += 1;\n                }\n            }\n        }\n        bytes memory bytesStringTrimmed = new bytes(urlLength);\n        for (i=0; i<urlLength; i++) {\n            bytesStringTrimmed[i] = bytesString[i];\n        }\n        return string(bytesStringTrimmed);\n    }\n\n    function stringToBytes32Array(string memory source) public pure returns (bytes32[] memory result) {\n        // uint16 words = uint16( (bytes(source).length+31)/32 );\n        uint16 words = 1;\n        for(uint16 i=0; i<=words; i++) {\n          uint16 offset = 32*(i+1);\n          bytes32 word;\n          assembly {\n            word := mload(add(source, offset))\n          }\n          result[i] = word;\n        }\n        return result;\n    }\n\n    // TODO !!!\n    // function bytes32ToUint (bytes32 data) returns (uint) {\n    //     return 2;\n    // }\n\n    function bytesSplit32(bytes  memory data) public pure returns (bytes32, bytes memory ) {\n        uint8 splitAt = 32;                             // all (if variable split, pass in splitAt)\n        uint256 taillength = 0;\n        if (data.length > splitAt)\n            taillength = data.length-splitAt;\n        bytes32 temp;\n        // bytes32 head;                                   // 32b split\n        bytes memory head = new bytes(splitAt);         // variable length split\n        bytes memory tail = new bytes(taillength);\n        for(uint i=0;i<=data.length-1;i++){\n            if (i<splitAt)\n                head[i] = bytes(data)[i] ;\n            else\n                tail[i-splitAt] = bytes(data)[i] ;\n        }\n        return (bytesToBytes32(head), tail);\n    }\n\n    // calls fallback function of pollAddress, passing 4 byte encoded function name to remote contract to select method.\n    // NB future better: just get the ABI of the finished Poll conmtract, and use that!\n    // NB in sol 0.6 + fallback cannot return anything\n    // NB future optimisation : we are not using the functionality of string here, since string must have come from a bytes32\n    event CrossContractValidateBegin();\n    event CrossContractValidateEnd();\n    function crossContractCall (bytes4 fnNameHash, string  memory poll, uint256 valid, uint8 vt) public returns (bytes32[] memory) {\n    address pollContract = pollAddress;\n\n        emit CrossContractValidateBegin();\n        assembly {\n            let ptr := mload(0x40)\n            calldatacopy(ptr, 0, calldatasize)\n            let result := delegatecall(gas, pollContract, ptr, calldatasize, 0, 0)\n            let size := returndatasize\n            returndatacopy(ptr, 0, size)\n            switch result\n            case 0 { revert(ptr, size) }\n            default { return(ptr, size) }\n        }\n        emit CrossContractValidateEnd();\n    }\n\n}\n",
  "sourcePath": "/home/teide/randomCode/lunchcoin/contracts.v1/contracts/MutualAgreement.sol",
  "compiler": {
    "name": "solc",
    "version": "0.5.16+commit.9c3226ce.Emscripten.clang"
  },
  "schemaVersion": "3.2.0",
  "updatedAt": "2020-06-07T16:39:32.432Z",
  "networkType": "ethereum",
  "devdoc": {
    "methods": {}
  },
  "userdoc": {
    "methods": {}
  }
}