{
  "contractName": "MutualAgreement",
  "abi": [
    {
      "inputs": [],
      "payable": false,
      "stateMutability": "nonpayable",
      "type": "constructor"
    },
    {
      "anonymous": false,
      "inputs": [],
      "name": "CrossContractValidateBegin",
      "type": "event"
    },
    {
      "anonymous": false,
      "inputs": [],
      "name": "CrossContractValidateEnd",
      "type": "event"
    },
    {
      "anonymous": false,
      "inputs": [
        {
          "indexed": false,
          "internalType": "string",
          "name": "",
          "type": "string"
        }
      ],
      "name": "logStuff",
      "type": "event"
    },
    {
      "anonymous": false,
      "inputs": [
        {
          "indexed": false,
          "internalType": "string",
          "name": "",
          "type": "string"
        },
        {
          "indexed": false,
          "internalType": "uint256",
          "name": "",
          "type": "uint256"
        }
      ],
      "name": "numberLoggerLikeImUsingFuckingJava",
      "type": "event"
    },
    {
      "anonymous": false,
      "inputs": [
        {
          "indexed": false,
          "internalType": "string",
          "name": "_poll",
          "type": "string"
        },
        {
          "indexed": false,
          "internalType": "address",
          "name": "to",
          "type": "address"
        },
        {
          "indexed": false,
          "internalType": "address",
          "name": "by",
          "type": "address"
        },
        {
          "indexed": false,
          "internalType": "int256",
          "name": "amount",
          "type": "int256"
        }
      ],
      "name": "venuePotDisbursed",
      "type": "event"
    },
    {
      "payable": true,
      "stateMutability": "payable",
      "type": "fallback"
    },
    {
      "constant": false,
      "inputs": [
        {
          "internalType": "string",
          "name": "message",
          "type": "string"
        }
      ],
      "name": "doEmit",
      "outputs": [],
      "payable": false,
      "stateMutability": "nonpayable",
      "type": "function"
    },
    {
      "constant": true,
      "inputs": [],
      "name": "getFlag",
      "outputs": [
        {
          "internalType": "int256",
          "name": "",
          "type": "int256"
        }
      ],
      "payable": false,
      "stateMutability": "view",
      "type": "function"
    },
    {
      "constant": false,
      "inputs": [
        {
          "internalType": "int160",
          "name": "_flag",
          "type": "int160"
        }
      ],
      "name": "setFlag",
      "outputs": [],
      "payable": false,
      "stateMutability": "nonpayable",
      "type": "function"
    },
    {
      "constant": true,
      "inputs": [
        {
          "internalType": "string",
          "name": "poll",
          "type": "string"
        }
      ],
      "name": "getPoll",
      "outputs": [
        {
          "internalType": "address",
          "name": "initiator",
          "type": "address"
        },
        {
          "internalType": "uint256",
          "name": "stake",
          "type": "uint256"
        },
        {
          "internalType": "uint256",
          "name": "venueCost",
          "type": "uint256"
        },
        {
          "internalType": "uint8",
          "name": "minParticipants",
          "type": "uint8"
        },
        {
          "internalType": "uint8",
          "name": "participants",
          "type": "uint8"
        },
        {
          "internalType": "uint256",
          "name": "start",
          "type": "uint256"
        },
        {
          "internalType": "uint256",
          "name": "end",
          "type": "uint256"
        },
        {
          "internalType": "bytes32[5][]",
          "name": "committedProofs",
          "type": "bytes32[5][]"
        }
      ],
      "payable": false,
      "stateMutability": "view",
      "type": "function"
    },
    {
      "constant": true,
      "inputs": [
        {
          "internalType": "string",
          "name": "_poll",
          "type": "string"
        },
        {
          "internalType": "string",
          "name": "_fnName",
          "type": "string"
        }
      ],
      "name": "get",
      "outputs": [
        {
          "internalType": "bytes32[]",
          "name": "",
          "type": "bytes32[]"
        }
      ],
      "payable": false,
      "stateMutability": "view",
      "type": "function"
    },
    {
      "constant": true,
      "inputs": [
        {
          "internalType": "string",
          "name": "_poll",
          "type": "string"
        }
      ],
      "name": "getStakerAddresses",
      "outputs": [
        {
          "internalType": "address[]",
          "name": "",
          "type": "address[]"
        }
      ],
      "payable": false,
      "stateMutability": "view",
      "type": "function"
    },
    {
      "constant": true,
      "inputs": [
        {
          "internalType": "string",
          "name": "_poll",
          "type": "string"
        }
      ],
      "name": "getproofsAsAddresses",
      "outputs": [
        {
          "internalType": "address[]",
          "name": "",
          "type": "address[]"
        }
      ],
      "payable": false,
      "stateMutability": "view",
      "type": "function"
    },
    {
      "constant": false,
      "inputs": [
        {
          "internalType": "string",
          "name": "_poll",
          "type": "string"
        },
        {
          "internalType": "string",
          "name": "_fnName",
          "type": "string"
        },
        {
          "internalType": "uint8",
          "name": "_vt",
          "type": "uint8"
        },
        {
          "internalType": "bytes32[]",
          "name": "data",
          "type": "bytes32[]"
        }
      ],
      "name": "setcheckedIn",
      "outputs": [],
      "payable": false,
      "stateMutability": "nonpayable",
      "type": "function"
    },
    {
      "constant": false,
      "inputs": [
        {
          "internalType": "string",
          "name": "_poll",
          "type": "string"
        },
        {
          "internalType": "string",
          "name": "_fnName",
          "type": "string"
        },
        {
          "internalType": "uint8",
          "name": "_vt",
          "type": "uint8"
        },
        {
          "internalType": "address",
          "name": "_newMember",
          "type": "address"
        }
      ],
      "name": "add",
      "outputs": [],
      "payable": false,
      "stateMutability": "nonpayable",
      "type": "function"
    },
    {
      "constant": false,
      "inputs": [
        {
          "internalType": "string",
          "name": "_poll",
          "type": "string"
        },
        {
          "internalType": "address",
          "name": "_newMember",
          "type": "address"
        }
      ],
      "name": "checkIn",
      "outputs": [],
      "payable": false,
      "stateMutability": "nonpayable",
      "type": "function"
    },
    {
      "constant": false,
      "inputs": [
        {
          "internalType": "string",
          "name": "_poll",
          "type": "string"
        },
        {
          "internalType": "address",
          "name": "_newMember",
          "type": "address"
        }
      ],
      "name": "addProof",
      "outputs": [],
      "payable": false,
      "stateMutability": "nonpayable",
      "type": "function"
    },
    {
      "constant": false,
      "inputs": [
        {
          "internalType": "string",
          "name": "_poll",
          "type": "string"
        }
      ],
      "name": "closeProofsWindow",
      "outputs": [],
      "payable": false,
      "stateMutability": "nonpayable",
      "type": "function"
    },
    {
      "constant": true,
      "inputs": [
        {
          "internalType": "string",
          "name": "_poll",
          "type": "string"
        },
        {
          "internalType": "address",
          "name": "_staker",
          "type": "address"
        }
      ],
      "name": "totalRepStaked",
      "outputs": [
        {
          "internalType": "uint256",
          "name": "",
          "type": "uint256"
        }
      ],
      "payable": false,
      "stateMutability": "view",
      "type": "function"
    },
    {
      "constant": true,
      "inputs": [
        {
          "internalType": "string",
          "name": "_poll",
          "type": "string"
        },
        {
          "internalType": "address",
          "name": "_staker",
          "type": "address"
        }
      ],
      "name": "totalVenueContribs",
      "outputs": [
        {
          "internalType": "uint256",
          "name": "total",
          "type": "uint256"
        }
      ],
      "payable": false,
      "stateMutability": "view",
      "type": "function"
    },
    {
      "constant": false,
      "inputs": [
        {
          "internalType": "string",
          "name": "_poll",
          "type": "string"
        }
      ],
      "name": "refundVenueStakes",
      "outputs": [],
      "payable": false,
      "stateMutability": "nonpayable",
      "type": "function"
    },
    {
      "constant": false,
      "inputs": [
        {
          "internalType": "string",
          "name": "_poll",
          "type": "string"
        },
        {
          "internalType": "string",
          "name": "_fnName",
          "type": "string"
        },
        {
          "internalType": "uint8",
          "name": "_vt",
          "type": "uint8"
        },
        {
          "internalType": "string",
          "name": "data",
          "type": "string"
        }
      ],
      "name": "setString",
      "outputs": [],
      "payable": false,
      "stateMutability": "nonpayable",
      "type": "function"
    },
    {
      "constant": true,
      "inputs": [
        {
          "internalType": "address",
          "name": "_pollContract",
          "type": "address"
        },
        {
          "internalType": "string",
          "name": "_poll",
          "type": "string"
        },
        {
          "internalType": "bytes32",
          "name": "_reveal",
          "type": "bytes32"
        }
      ],
      "name": "validate",
      "outputs": [
        {
          "internalType": "bool",
          "name": "",
          "type": "bool"
        }
      ],
      "payable": false,
      "stateMutability": "view",
      "type": "function"
    },
    {
      "constant": true,
      "inputs": [
        {
          "internalType": "string",
          "name": "_poll",
          "type": "string"
        }
      ],
      "name": "deserialiseStakers",
      "outputs": [
        {
          "internalType": "address[]",
          "name": "",
          "type": "address[]"
        }
      ],
      "payable": false,
      "stateMutability": "pure",
      "type": "function"
    },
    {
      "constant": true,
      "inputs": [
        {
          "internalType": "string",
          "name": "_poll",
          "type": "string"
        },
        {
          "internalType": "uint8",
          "name": "validationType",
          "type": "uint8"
        }
      ],
      "name": "serialiseStakers",
      "outputs": [
        {
          "internalType": "address[]",
          "name": "",
          "type": "address[]"
        }
      ],
      "payable": false,
      "stateMutability": "pure",
      "type": "function"
    },
    {
      "constant": true,
      "inputs": [
        {
          "internalType": "string",
          "name": "_poll",
          "type": "string"
        },
        {
          "internalType": "uint8",
          "name": "validationType",
          "type": "uint8"
        }
      ],
      "name": "serialiseProofs",
      "outputs": [
        {
          "internalType": "address[]",
          "name": "",
          "type": "address[]"
        }
      ],
      "payable": false,
      "stateMutability": "pure",
      "type": "function"
    },
    {
      "constant": true,
      "inputs": [],
      "name": "proofType",
      "outputs": [
        {
          "internalType": "uint8",
          "name": "",
          "type": "uint8"
        }
      ],
      "payable": false,
      "stateMutability": "pure",
      "type": "function"
    },
    {
      "constant": true,
      "inputs": [
        {
          "internalType": "bytes",
          "name": "_bytes",
          "type": "bytes"
        }
      ],
      "name": "bytesToAddress",
      "outputs": [
        {
          "internalType": "address",
          "name": "",
          "type": "address"
        }
      ],
      "payable": false,
      "stateMutability": "pure",
      "type": "function"
    },
    {
      "constant": true,
      "inputs": [
        {
          "internalType": "address",
          "name": "account",
          "type": "address"
        }
      ],
      "name": "toString",
      "outputs": [
        {
          "internalType": "string",
          "name": "",
          "type": "string"
        }
      ],
      "payable": false,
      "stateMutability": "pure",
      "type": "function"
    },
    {
      "constant": true,
      "inputs": [
        {
          "internalType": "uint256",
          "name": "value",
          "type": "uint256"
        }
      ],
      "name": "toString",
      "outputs": [
        {
          "internalType": "string",
          "name": "",
          "type": "string"
        }
      ],
      "payable": false,
      "stateMutability": "pure",
      "type": "function"
    },
    {
      "constant": true,
      "inputs": [
        {
          "internalType": "bytes",
          "name": "data",
          "type": "bytes"
        },
        {
          "internalType": "uint16",
          "name": "len",
          "type": "uint16"
        }
      ],
      "name": "toString",
      "outputs": [
        {
          "internalType": "string",
          "name": "",
          "type": "string"
        }
      ],
      "payable": false,
      "stateMutability": "pure",
      "type": "function"
    },
    {
      "constant": true,
      "inputs": [
        {
          "internalType": "bytes32",
          "name": "value",
          "type": "bytes32"
        }
      ],
      "name": "toString",
      "outputs": [
        {
          "internalType": "string",
          "name": "",
          "type": "string"
        }
      ],
      "payable": false,
      "stateMutability": "pure",
      "type": "function"
    },
    {
      "constant": true,
      "inputs": [
        {
          "internalType": "bytes32",
          "name": "_bytes32",
          "type": "bytes32"
        }
      ],
      "name": "bytes32ToBytes",
      "outputs": [
        {
          "internalType": "bytes",
          "name": "",
          "type": "bytes"
        }
      ],
      "payable": false,
      "stateMutability": "pure",
      "type": "function"
    },
    {
      "constant": true,
      "inputs": [
        {
          "internalType": "bytes",
          "name": "b",
          "type": "bytes"
        }
      ],
      "name": "bytesToBytes32",
      "outputs": [
        {
          "internalType": "bytes32",
          "name": "bts",
          "type": "bytes32"
        }
      ],
      "payable": false,
      "stateMutability": "pure",
      "type": "function"
    },
    {
      "constant": true,
      "inputs": [
        {
          "internalType": "bytes32",
          "name": "_bytes32",
          "type": "bytes32"
        }
      ],
      "name": "bytes32ToString",
      "outputs": [
        {
          "internalType": "string",
          "name": "",
          "type": "string"
        }
      ],
      "payable": false,
      "stateMutability": "pure",
      "type": "function"
    },
    {
      "constant": true,
      "inputs": [
        {
          "internalType": "bytes32[]",
          "name": "data",
          "type": "bytes32[]"
        }
      ],
      "name": "bytes32ArrayToString",
      "outputs": [
        {
          "internalType": "string",
          "name": "",
          "type": "string"
        }
      ],
      "payable": false,
      "stateMutability": "pure",
      "type": "function"
    },
    {
      "constant": true,
      "inputs": [
        {
          "internalType": "string",
          "name": "source",
          "type": "string"
        }
      ],
      "name": "stringToBytes32Array",
      "outputs": [
        {
          "internalType": "bytes32[]",
          "name": "result",
          "type": "bytes32[]"
        }
      ],
      "payable": false,
      "stateMutability": "pure",
      "type": "function"
    },
    {
      "constant": true,
      "inputs": [
        {
          "internalType": "bytes",
          "name": "data",
          "type": "bytes"
        }
      ],
      "name": "bytesSplit32",
      "outputs": [
        {
          "internalType": "bytes32",
          "name": "",
          "type": "bytes32"
        },
        {
          "internalType": "bytes",
          "name": "",
          "type": "bytes"
        }
      ],
      "payable": false,
      "stateMutability": "pure",
      "type": "function"
    },
    {
      "constant": false,
      "inputs": [
        {
          "internalType": "bytes4",
          "name": "fnNameHash",
          "type": "bytes4"
        },
        {
          "internalType": "string",
          "name": "poll",
          "type": "string"
        },
        {
          "internalType": "uint256",
          "name": "valid",
          "type": "uint256"
        },
        {
          "internalType": "uint8",
          "name": "vt",
          "type": "uint8"
        }
      ],
      "name": "crossContractCall",
      "outputs": [
        {
          "internalType": "bytes32[]",
          "name": "",
          "type": "bytes32[]"
        }
      ],
      "payable": false,
      "stateMutability": "nonpayable",
      "type": "function"
    }
  ],
  "bytecode": "0x6080604052739d26a8a5db7dc10689692caf8d52c912958409cf600960006101000a81548173ffffffffffffffffffffffffffffffffffffffff021916908373ffffffffffffffffffffffffffffffffffffffff16021790555034801561006557600080fd5b506143e5806100756000396000f3fe6080604052600436106101ee5760003560e01c80635a31204c1161010d57806391652043116100a0578063b11a19e81161006f578063b11a19e814611ea1578063bfe370d914611f55578063d7bcee3014612031578063e40a42ab14612231578063f96339301461232d576101ee565b80639165204314611a435780639201de5514611b605780639cbc87a314611c14578063a1bac85f14611d52576101ee565b80637c34d108116100dc5780637c34d108146116185780638a9392c0146117145780638e3dca0b1461181e5780638fee464b1461197b576101ee565b80635a31204c146111f35780636622f2cf146113105780636900a3ae146113d85780636b2019d41461148c576101ee565b80633e10510b11610185578063507ad4db11610154578063507ad4db14610e9e5780635602493914610f7957806356ca623e1461106157806358666c041461112b576101ee565b80633e10510b14610a46578063417aa13414610bfa57806342526e4e14610ce25780634c0999c714610dea576101ee565b806313311a1c116101c157806313311a1c146105d55780632333d14b146106bd57806326a9cdf7146106fb5780632742bea814610843576101ee565b806305af5d35146101f85780630987fc36146102295780630dd990c71461031157806310a688e31461042e575b6101f6612358565b005b34801561020457600080fd5b5061020d6123a5565b604051808260ff1660ff16815260200191505060405180910390f35b34801561023557600080fd5b5061030f6004803603604081101561024c57600080fd5b810190808035906020019064010000000081111561026957600080fd5b82018360208201111561027b57600080fd5b8035906020019184600183028401116401000000008311171561029d57600080fd5b91908080601f016020809104026020016040519081016040528093929190818152602001838380828437600081840152601f19601f820116905080830192505050505050509192919290803573ffffffffffffffffffffffffffffffffffffffff1690602001909291905050506123ae565b005b34801561031d57600080fd5b506103d76004803603602081101561033457600080fd5b810190808035906020019064010000000081111561035157600080fd5b82018360208201111561036357600080fd5b8035906020019184600183028401116401000000008311171561038557600080fd5b91908080601f016020809104026020016040519081016040528093929190818152602001838380828437600081840152601f19601f8201169050808301925050505050505091929192905050506123f4565b6040518080602001828103825283818151815260200191508051906020019060200280838360005b8381101561041a5780820151818401526020810190506103ff565b505050509050019250505060405180910390f35b34801561043a57600080fd5b506104f46004803603602081101561045157600080fd5b810190808035906020019064010000000081111561046e57600080fd5b82018360208201111561048057600080fd5b803590602001918460018302840111640100000000831117156104a257600080fd5b91908080601f016020809104026020016040519081016040528093929190818152602001838380828437600081840152601f19601f82011690508083019250505050505050919291929050505061250a565b604051808973ffffffffffffffffffffffffffffffffffffffff1673ffffffffffffffffffffffffffffffffffffffff1681526020018881526020018781526020018660ff1660ff1681526020018560ff1660ff168152602001848152602001838152602001806020018281038252838181518152602001915080516000925b818410156105bd5782846020026020010151600560200280838360005b838110156105ac578082015181840152602081019050610591565b505050509050019260010192610574565b92505050995050505050505050505060405180910390f35b3480156105e157600080fd5b50610666600480360360408110156105f857600080fd5b810190808035906020019064010000000081111561061557600080fd5b82018360208201111561062757600080fd5b8035906020019184600183028401116401000000008311171561064957600080fd5b9091929391929390803560ff16906020019092919050505061255e565b6040518080602001828103825283818151815260200191508051906020019060200280838360005b838110156106a957808201518184015260208101905061068e565b505050509050019250505060405180910390f35b3480156106c957600080fd5b506106f9600480360360208110156106e057600080fd5b81019080803560130b90602001909291905050506126c7565b005b34801561070757600080fd5b506107c16004803603602081101561071e57600080fd5b810190808035906020019064010000000081111561073b57600080fd5b82018360208201111561074d57600080fd5b8035906020019184600183028401116401000000008311171561076f57600080fd5b91908080601f016020809104026020016040519081016040528093929190818152602001838380828437600081840152601f19601f82011690508083019250505050505050919291929050505061270e565b6040518083815260200180602001828103825283818151815260200191508051906020019080838360005b838110156108075780820151818401526020810190506107ec565b50505050905090810190601f1680156108345780820380516001836020036101000a031916815260200191505b50935050505060405180910390f35b34801561084f57600080fd5b50610a446004803603608081101561086657600080fd5b810190808035906020019064010000000081111561088357600080fd5b82018360208201111561089557600080fd5b803590602001918460018302840111640100000000831117156108b757600080fd5b91908080601f016020809104026020016040519081016040528093929190818152602001838380828437600081840152601f19601f8201169050808301925050505050505091929192908035906020019064010000000081111561091a57600080fd5b82018360208201111561092c57600080fd5b8035906020019184600183028401116401000000008311171561094e57600080fd5b91908080601f016020809104026020016040519081016040528093929190818152602001838380828437600081840152601f19601f820116905080830192505050505050509192919290803560ff169060200190929190803590602001906401000000008111156109be57600080fd5b8201836020820111156109d057600080fd5b803590602001918460018302840111640100000000831117156109f257600080fd5b91908080601f016020809104026020016040519081016040528093929190818152602001838380828437600081840152601f19601f820116905080830192505050505050509192919290505050612899565b005b348015610a5257600080fd5b50610ba360048036036040811015610a6957600080fd5b8101908080359060200190640100000000811115610a8657600080fd5b820183602082011115610a9857600080fd5b80359060200191846001830284011164010000000083111715610aba57600080fd5b91908080601f016020809104026020016040519081016040528093929190818152602001838380828437600081840152601f19601f82011690508083019250505050505050919291929080359060200190640100000000811115610b1d57600080fd5b820183602082011115610b2f57600080fd5b80359060200191846001830284011164010000000083111715610b5157600080fd5b91908080601f016020809104026020016040519081016040528093929190818152602001838380828437600081840152601f19601f8201169050808301925050505050505091929192905050506129a5565b6040518080602001828103825283818151815260200191508051906020019060200280838360005b83811015610be6578082015181840152602081019050610bcb565b505050509050019250505060405180910390f35b348015610c0657600080fd5b50610ce060048036036040811015610c1d57600080fd5b8101908080359060200190640100000000811115610c3a57600080fd5b820183602082011115610c4c57600080fd5b80359060200191846001830284011164010000000083111715610c6e57600080fd5b91908080601f016020809104026020016040519081016040528093929190818152602001838380828437600081840152601f19601f820116905080830192505050505050509192919290803573ffffffffffffffffffffffffffffffffffffffff169060200190929190505050612ae8565b005b348015610cee57600080fd5b50610da860048036036020811015610d0557600080fd5b8101908080359060200190640100000000811115610d2257600080fd5b820183602082011115610d3457600080fd5b80359060200191846001830284011164010000000083111715610d5657600080fd5b91908080601f016020809104026020016040519081016040528093929190818152602001838380828437600081840152601f19601f820116905080830192505050505050509192919290505050612b2e565b604051808273ffffffffffffffffffffffffffffffffffffffff1673ffffffffffffffffffffffffffffffffffffffff16815260200191505060405180910390f35b348015610df657600080fd5b50610e2360048036036020811015610e0d57600080fd5b8101908080359060200190929190505050612b53565b6040518080602001828103825283818151815260200191508051906020019080838360005b83811015610e63578082015181840152602081019050610e48565b50505050905090810190601f168015610e905780820380516001836020036101000a031916815260200191505b509250505060405180910390f35b348015610eaa57600080fd5b50610f2260048036036020811015610ec157600080fd5b8101908080359060200190640100000000811115610ede57600080fd5b820183602082011115610ef057600080fd5b80359060200191846001830284011164010000000083111715610f1257600080fd5b9091929391929390505050612bfb565b6040518080602001828103825283818151815260200191508051906020019060200280838360005b83811015610f65578082015181840152602081019050610f4a565b505050509050019250505060405180910390f35b348015610f8557600080fd5b5061100a60048036036040811015610f9c57600080fd5b8101908080359060200190640100000000811115610fb957600080fd5b820183602082011115610fcb57600080fd5b80359060200191846001830284011164010000000083111715610fed57600080fd5b9091929391929390803560ff169060200190929190505050612d63565b6040518080602001828103825283818151815260200191508051906020019060200280838360005b8381101561104d578082015181840152602081019050611032565b505050509050019250505060405180910390f35b34801561106d57600080fd5b506110b06004803603602081101561108457600080fd5b81019080803573ffffffffffffffffffffffffffffffffffffffff169060200190929190505050612ecc565b6040518080602001828103825283818151815260200191508051906020019080838360005b838110156110f05780820151818401526020810190506110d5565b50505050905090810190601f16801561111d5780820380516001836020036101000a031916815260200191505b509250505060405180910390f35b34801561113757600080fd5b506111f16004803603602081101561114e57600080fd5b810190808035906020019064010000000081111561116b57600080fd5b82018360208201111561117d57600080fd5b8035906020019184600183028401116401000000008311171561119f57600080fd5b91908080601f016020809104026020016040519081016040528093929190818152602001838380828437600081840152601f19601f820116905080830192505050505050509192919290505050612f2e565b005b3480156111ff57600080fd5b506112b96004803603602081101561121657600080fd5b810190808035906020019064010000000081111561123357600080fd5b82018360208201111561124557600080fd5b8035906020019184600183028401116401000000008311171561126757600080fd5b91908080601f016020809104026020016040519081016040528093929190818152602001838380828437600081840152601f19601f820116905080830192505050505050509192919290505050612fcd565b6040518080602001828103825283818151815260200191508051906020019060200280838360005b838110156112fc5780820151818401526020810190506112e1565b505050509050019250505060405180910390f35b34801561131c57600080fd5b506113d66004803603602081101561133357600080fd5b810190808035906020019064010000000081111561135057600080fd5b82018360208201111561136257600080fd5b8035906020019184600183028401116401000000008311171561138457600080fd5b91908080601f016020809104026020016040519081016040528093929190818152602001838380828437600081840152601f19601f8201169050808301925050505050505091929192905050506130e3565b005b3480156113e457600080fd5b50611411600480360360208110156113fb57600080fd5b810190808035906020019092919050505061332b565b6040518080602001828103825283818151815260200191508051906020019080838360005b83811015611451578082015181840152602081019050611436565b50505050905090810190601f16801561147e5780820380516001836020036101000a031916815260200191505b509250505060405180910390f35b34801561149857600080fd5b50611616600480360360808110156114af57600080fd5b81019080803590602001906401000000008111156114cc57600080fd5b8201836020820111156114de57600080fd5b8035906020019184600183028401116401000000008311171561150057600080fd5b91908080601f016020809104026020016040519081016040528093929190818152602001838380828437600081840152601f19601f8201169050808301925050505050505091929192908035906020019064010000000081111561156357600080fd5b82018360208201111561157557600080fd5b8035906020019184600183028401116401000000008311171561159757600080fd5b91908080601f016020809104026020016040519081016040528093929190818152602001838380828437600081840152601f19601f820116905080830192505050505050509192919290803560ff169060200190929190803573ffffffffffffffffffffffffffffffffffffffff16906020019092919050505061335e565b005b34801561162457600080fd5b506116fe6004803603604081101561163b57600080fd5b810190808035906020019064010000000081111561165857600080fd5b82018360208201111561166a57600080fd5b8035906020019184600183028401116401000000008311171561168c57600080fd5b91908080601f016020809104026020016040519081016040528093929190818152602001838380828437600081840152601f19601f820116905080830192505050505050509192919290803573ffffffffffffffffffffffffffffffffffffffff169060200190929190505050613489565b6040518082815260200191505060405180910390f35b34801561172057600080fd5b506118046004803603606081101561173757600080fd5b81019080803573ffffffffffffffffffffffffffffffffffffffff1690602001909291908035906020019064010000000081111561177457600080fd5b82018360208201111561178657600080fd5b803590602001918460018302840111640100000000831117156117a857600080fd5b91908080601f016020809104026020016040519081016040528093929190818152602001838380828437600081840152601f19601f8201169050808301925050505050505091929192908035906020019092919050505061366b565b604051808215151515815260200191505060405180910390f35b34801561182a57600080fd5b506119246004803603608081101561184157600080fd5b8101908080357bffffffffffffffffffffffffffffffffffffffffffffffffffffffff191690602001909291908035906020019064010000000081111561188757600080fd5b82018360208201111561189957600080fd5b803590602001918460018302840111640100000000831117156118bb57600080fd5b91908080601f016020809104026020016040519081016040528093929190818152602001838380828437600081840152601f19601f82011690508083019250505050505050919291929080359060200190929190803560ff169060200190929190505050613999565b6040518080602001828103825283818151815260200191508051906020019060200280838360005b8381101561196757808201518184015260208101905061194c565b505050509050019250505060405180910390f35b34801561198757600080fd5b50611a416004803603602081101561199e57600080fd5b81019080803590602001906401000000008111156119bb57600080fd5b8201836020820111156119cd57600080fd5b803590602001918460018302840111640100000000831117156119ef57600080fd5b91908080601f016020809104026020016040519081016040528093929190818152602001838380828437600081840152601f19601f820116905080830192505050505050509192919290505050613a15565b005b348015611a4f57600080fd5b50611b0960048036036020811015611a6657600080fd5b8101908080359060200190640100000000811115611a8357600080fd5b820183602082011115611a9557600080fd5b80359060200191846001830284011164010000000083111715611ab757600080fd5b91908080601f016020809104026020016040519081016040528093929190818152602001838380828437600081840152601f19601f820116905080830192505050505050509192919290505050613a9d565b6040518080602001828103825283818151815260200191508051906020019060200280838360005b83811015611b4c578082015181840152602081019050611b31565b505050509050019250505060405180910390f35b348015611b6c57600080fd5b50611b9960048036036020811015611b8357600080fd5b8101908080359060200190929190505050613b03565b6040518080602001828103825283818151815260200191508051906020019080838360005b83811015611bd9578082015181840152602081019050611bbe565b50505050905090810190601f168015611c065780820380516001836020036101000a031916815260200191505b509250505060405180910390f35b348015611c2057600080fd5b50611cd760048036036020811015611c3757600080fd5b8101908080359060200190640100000000811115611c5457600080fd5b820183602082011115611c6657600080fd5b80359060200191846020830284011164010000000083111715611c8857600080fd5b919080806020026020016040519081016040528093929190818152602001838360200280828437600081840152601f19601f820116905080830192505050505050509192919290505050613b1a565b6040518080602001828103825283818151815260200191508051906020019080838360005b83811015611d17578082015181840152602081019050611cfc565b50505050905090810190601f168015611d445780820380516001836020036101000a031916815260200191505b509250505060405180910390f35b348015611d5e57600080fd5b50611e2660048036036040811015611d7557600080fd5b8101908080359060200190640100000000811115611d9257600080fd5b820183602082011115611da457600080fd5b80359060200191846001830284011164010000000083111715611dc657600080fd5b91908080601f016020809104026020016040519081016040528093929190818152602001838380828437600081840152601f19601f820116905080830192505050505050509192919290803561ffff169060200190929190505050613cdd565b6040518080602001828103825283818151815260200191508051906020019080838360005b83811015611e66578082015181840152602081019050611e4b565b50505050905090810190601f168015611e935780820380516001836020036101000a031916815260200191505b509250505060405180910390f35b348015611ead57600080fd5b50611eda60048036036020811015611ec457600080fd5b8101908080359060200190929190505050613f5a565b6040518080602001828103825283818151815260200191508051906020019080838360005b83811015611f1a578082015181840152602081019050611eff565b50505050905090810190601f168015611f475780820380516001836020036101000a031916815260200191505b509250505060405180910390f35b348015611f6157600080fd5b5061201b60048036036020811015611f7857600080fd5b8101908080359060200190640100000000811115611f9557600080fd5b820183602082011115611fa757600080fd5b80359060200191846001830284011164010000000083111715611fc957600080fd5b91908080601f016020809104026020016040519081016040528093929190818152602001838380828437600081840152601f19601f820116905080830192505050505050509192919290505050613f8d565b6040518082815260200191505060405180910390f35b34801561203d57600080fd5b5061222f6004803603608081101561205457600080fd5b810190808035906020019064010000000081111561207157600080fd5b82018360208201111561208357600080fd5b803590602001918460018302840111640100000000831117156120a557600080fd5b91908080601f016020809104026020016040519081016040528093929190818152602001838380828437600081840152601f19601f8201169050808301925050505050505091929192908035906020019064010000000081111561210857600080fd5b82018360208201111561211a57600080fd5b8035906020019184600183028401116401000000008311171561213c57600080fd5b91908080601f016020809104026020016040519081016040528093929190818152602001838380828437600081840152601f19601f820116905080830192505050505050509192919290803560ff169060200190929190803590602001906401000000008111156121ac57600080fd5b8201836020820111156121be57600080fd5b803590602001918460208302840111640100000000831117156121e057600080fd5b919080806020026020016040519081016040528093929190818152602001838360200280828437600081840152601f19601f820116905080830192505050505050509192919290505050613fa0565b005b34801561223d57600080fd5b506123176004803603604081101561225457600080fd5b810190808035906020019064010000000081111561227157600080fd5b82018360208201111561228357600080fd5b803590602001918460018302840111640100000000831117156122a557600080fd5b91908080601f016020809104026020016040519081016040528093929190818152602001838380828437600081840152601f19601f820116905080830192505050505050509192919290803573ffffffffffffffffffffffffffffffffffffffff1690602001909291905050506140a4565b6040518082815260200191505060405180910390f35b34801561233957600080fd5b5061234261415b565b6040518082815260200191505060405180910390f35b60606000368080601f016020809104026020016040519081016040528093929190818152602001838380828437600081840152601f19601f82011690508083019250505050505050905050565b60006001905090565b6123f0826040518060400160405280601081526020017f73657269616c6973655374616b6572730000000000000000000000000000000081525060018461335e565b5050565b606080612436836040518060400160405280600f81526020017f73657269616c69736550726f6f667300000000000000000000000000000000008152506129a5565b90506060815160405190808252806020026020018201604052801561246a5781602001602082028038833980820191505090505b50905060008090505b82518161ffff1610156124ff576124a86124a3848361ffff168151811061249657fe5b6020026020010151612b53565b612b2e565b828261ffff16815181106124b857fe5b602002602001019073ffffffffffffffffffffffffffffffffffffffff16908173ffffffffffffffffffffffffffffffffffffffff16815250508080600101915050612473565b508092505050919050565b600080600080600080600060606103e89650619c40955060039450600393506501728eee956092506501728ef01c009150878787878787878797509750975097509750975097509750919395975091939597565b60608060046040519080825280602002602001820160405280156125915781602001602082028038833980820191505090505b5090506000600560006005839350829250819150809050846000815181106125b557fe5b60200260200101856001815181106125c957fe5b60200260200101866002815181106125dd57fe5b60200260200101876003815181106125f157fe5b602002602001018473ffffffffffffffffffffffffffffffffffffffff1673ffffffffffffffffffffffffffffffffffffffff168152508473ffffffffffffffffffffffffffffffffffffffff1673ffffffffffffffffffffffffffffffffffffffff168152508473ffffffffffffffffffffffffffffffffffffffff1673ffffffffffffffffffffffffffffffffffffffff168152508473ffffffffffffffffffffffffffffffffffffffff1673ffffffffffffffffffffffffffffffffffffffff1681525050505050809150509392505050565b80600860006101000a81548173ffffffffffffffffffffffffffffffffffffffff021916908360130b73ffffffffffffffffffffffffffffffffffffffff16021790555050565b6000606060006020905060008090508160ff1685511115612733578160ff1685510390505b600060608360ff166040519080825280601f01601f19166020018201604052801561276d5781602001600182028038833980820191505090505b5090506060836040519080825280601f01601f1916602001820160405280156127a55781602001600182028038833980820191505090505b50905060008090505b60018951038111612880578560ff1681101561281b578881815181106127d057fe5b602001015160f81c60f81b8382815181106127e757fe5b60200101907effffffffffffffffffffffffffffffffffffffffffffffffffffffffffffff1916908160001a905350612873565b88818151811061282757fe5b602001015160f81c60f81b828760ff1683038151811061284357fe5b60200101907effffffffffffffffffffffffffffffffffffffffffffffffffffffffffffff1916908160001a9053505b80806001019150506127ae565b5061288a82613f8d565b81965096505050505050915091565b6000846128a585614175565b846040516020018084805190602001908083835b602083106128dc57805182526020820191506020810190506020830392506128b9565b6001836020036101000a038019825116818451168082178552505050505050905001837bffffffffffffffffffffffffffffffffffffffffffffffffffffffff19167bffffffffffffffffffffffffffffffffffffffffffffffffffffffff191681526004018260ff1660ff1660f81b8152600101935050505060405160208183030381529060405280519060200120905061297782613a9d565b60016000838152602001908152602001600020908051906020019061299d929190614296565b505050505050565b60606000836129b384614175565b60016040516020018084805190602001908083835b602083106129eb57805182526020820191506020810190506020830392506129c8565b6001836020036101000a038019825116818451168082178552505050505050905001837bffffffffffffffffffffffffffffffffffffffffffffffffffffffff19167bffffffffffffffffffffffffffffffffffffffffffffffffffffffff191681526004018260ff1660ff1660f81b8152600101935050505060405160208183030381529060405280519060200120905060016000828152602001908152602001600020805480602002602001604051908101604052809291908181526020018280548015612ada57602002820191906000526020600020905b815481526020019060010190808311612ac6575b505050505091505092915050565b612b2a826040518060400160405280600f81526020017f73657269616c69736550726f6f6673000000000000000000000000000000000081525060018461335e565b5050565b6000806c01000000000000000000000000600060208501015104905080915050919050565b60608060206040519080825280601f01601f191660200182016040528015612b8a5781602001600182028038833980820191505090505b50905060005b6020811015612bf157838160208110612ba557fe5b1a60f81b828281518110612bb557fe5b60200101907effffffffffffffffffffffffffffffffffffffffffffffffffffffffffffff1916908160001a9053508080600101915050612b90565b5080915050919050565b6060806004604051908082528060200260200182016040528015612c2e5781602001602082028038833980820191505090505b509050600560006005600083935082925081915080905084600081518110612c5257fe5b6020026020010185600181518110612c6657fe5b6020026020010186600281518110612c7a57fe5b6020026020010187600381518110612c8e57fe5b602002602001018473ffffffffffffffffffffffffffffffffffffffff1673ffffffffffffffffffffffffffffffffffffffff168152508473ffffffffffffffffffffffffffffffffffffffff1673ffffffffffffffffffffffffffffffffffffffff168152508473ffffffffffffffffffffffffffffffffffffffff1673ffffffffffffffffffffffffffffffffffffffff168152508473ffffffffffffffffffffffffffffffffffffffff1673ffffffffffffffffffffffffffffffffffffffff16815250505050508091505092915050565b6060806004604051908082528060200260200182016040528015612d965781602001602082028038833980820191505090505b509050600560006005600083935082925081915080905084600081518110612dba57fe5b6020026020010185600181518110612dce57fe5b6020026020010186600281518110612de257fe5b6020026020010187600381518110612df657fe5b602002602001018473ffffffffffffffffffffffffffffffffffffffff1673ffffffffffffffffffffffffffffffffffffffff168152508473ffffffffffffffffffffffffffffffffffffffff1673ffffffffffffffffffffffffffffffffffffffff168152508473ffffffffffffffffffffffffffffffffffffffff1673ffffffffffffffffffffffffffffffffffffffff168152508473ffffffffffffffffffffffffffffffffffffffff1673ffffffffffffffffffffffffffffffffffffffff1681525050505050809150509392505050565b6060612f2782604051602001808273ffffffffffffffffffffffffffffffffffffffff1673ffffffffffffffffffffffffffffffffffffffff1660601b81526014019150506040516020818303038152906040526005613cdd565b9050919050565b7fbef39ac07ea6b8a7a08590612f317b1db2e9821fea4739345478345d853321e7816040518080602001828103825283818151815260200191508051906020019080838360005b83811015612f90578082015181840152602081019050612f75565b50505050905090810190601f168015612fbd5780820380516001836020036101000a031916815260200191505b509250505060405180910390a150565b60608061300f836040518060400160405280601081526020017f73657269616c6973655374616b657273000000000000000000000000000000008152506129a5565b9050606081516040519080825280602002602001820160405280156130435781602001602082028038833980820191505090505b50905060008090505b82518161ffff1610156130d85761308161307c848361ffff168151811061306f57fe5b6020026020010151612b53565b612b2e565b828261ffff168151811061309157fe5b602002602001019073ffffffffffffffffffffffffffffffffffffffff16908173ffffffffffffffffffffffffffffffffffffffff1681525050808060010191505061304c565b508092505050919050565b8060606130ef82612fcd565b9050600080600090505b825181101561315b573373ffffffffffffffffffffffffffffffffffffffff1683828151811061312557fe5b602002602001015173ffffffffffffffffffffffffffffffffffffffff16141561314e57600191505b80806001019150506130f9565b50806131b2576040517f08c379a000000000000000000000000000000000000000000000000000000000815260040180806020018281038252603481526020018061435c6034913960400191505060405180910390fd5b60606131bd85612fcd565b9050600061324182516002886040518082805190602001908083835b602083106131fc57805182526020820191506020810190506020830392506131d9565b6001836020036101000a03801982511681845116808217855250505050505090500191505090815260200160405180910390206002015461418690919063ffffffff16565b905060006002876040518082805190602001908083835b6020831061327b5780518252602082019150602081019050602083039250613258565b6001836020036101000a0380198251168184511680821785525050505050509050019150509081526020016040518091039020600201546002886040518082805190602001908083835b602083106132e857805182526020820191506020810190506020830392506132c5565b6001836020036101000a03801982511681845116808217855250505050505090500191505090815260200160405180910390206003015403905050505050505050565b606061335782604051602001808281526020019150506040516020818303038152906040526000613cdd565b9050919050565b60008461336a85614175565b846040516020018084805190602001908083835b602083106133a1578051825260208201915060208101905060208303925061337e565b6001836020036101000a038019825116818451168082178552505050505050905001837bffffffffffffffffffffffffffffffffffffffffffffffffffffffff19167bffffffffffffffffffffffffffffffffffffffffffffffffffffffff191681526004018260ff1660ff1660f81b81526001019350505050604051602081830303815290604052805190602001209050600160008281526020019081526020016000208260601b6bffffffffffffffffffffffff191690806001815401808255809150509060018203906000526020600020016000909192909190915055505050505050565b60006002836040518082805190602001908083835b602083106134c1578051825260208201915060208101905060208303925061349e565b6001836020036101000a038019825116818451168082178552505050505050905001915050908152602001604051809103902060080160008373ffffffffffffffffffffffffffffffffffffffff1673ffffffffffffffffffffffffffffffffffffffff16815260200190815260200160002060030160008073ffffffffffffffffffffffffffffffffffffffff1673ffffffffffffffffffffffffffffffffffffffff168152602001908152602001600020546002846040518082805190602001908083835b602083106135ab5780518252602082019150602081019050602083039250613588565b6001836020036101000a038019825116818451168082178552505050505050905001915050908152602001604051809103902060080160008473ffffffffffffffffffffffffffffffffffffffff1673ffffffffffffffffffffffffffffffffffffffff16815260200190815260200160002060030160008473ffffffffffffffffffffffffffffffffffffffff1673ffffffffffffffffffffffffffffffffffffffff1681526020019081526020016000205401905080905092915050565b6000606061367884612fcd565b90506060613685856123f4565b9050600080600190506136966142e3565b600092505b83518361ffff16101561384b577fffffffffffffffffffffffffffffffffffffffffffffffffffffffffffffffff816020019060000b908160000b8152505060008090505b8551811015613810578581815181106136f557fe5b602002602001015173ffffffffffffffffffffffffffffffffffffffff16858561ffff168151811061372357fe5b602002602001015173ffffffffffffffffffffffffffffffffffffffff161415613803573373ffffffffffffffffffffffffffffffffffffffff16858561ffff168151811061376e57fe5b602002602001015173ffffffffffffffffffffffffffffffffffffffff1614156137a45760018260600190151590811515815250505b81602001805180919060010160000b60000b8152505060008682815181106137c857fe5b602002602001019073ffffffffffffffffffffffffffffffffffffffff16908173ffffffffffffffffffffffffffffffffffffffff16815250505b80806001019150506136e0565b506000816020015160000b131561383e578060200151816040018181510191509060ff16908160ff16815250505b828060010193505061369b565b80606001516138a5576040517f08c379a000000000000000000000000000000000000000000000000000000000815260040180806020018281038252602281526020018061433a6022913960400191505060405180910390fd5b8160ff16816040015160ff16855103101561390b576040517f08c379a00000000000000000000000000000000000000000000000000000000081526004018080602001828103825260218152602001806143906021913960400191505060405180910390fd5b806040015160ff1684511415613989576040517f08c379a00000000000000000000000000000000000000000000000000000000081526004018080602001828103825260148152602001807f416c6c2070726f6f667320776572652066616b6500000000000000000000000081525060200191505060405180910390fd5b6001955050505050509392505050565b60606000600960009054906101000a900473ffffffffffffffffffffffffffffffffffffffff1690507f1ff50e4650f7f1e5b26a5f5e921b803deee4a95a1b6ef46e05992b3bc1dcdb8c60405160405180910390a160405136600082376000803683855af43d806000843e8160008114613a11578184f35b8184fd5b60016002826040518082805190602001908083835b60208310613a4d5780518252602082019150602081019050602083039250613a2a565b6001836020036101000a038019825116818451168082178552505050505050905001915050908152602001604051809103902060070160006101000a81548160ff02191690831515021790555050565b606060006001905060008090505b8161ffff168161ffff1611613af9576000600182016020029050600081860151905080858461ffff1681518110613ade57fe5b60200260200101818152505050508080600101915050613aab565b5081915050919050565b606080613b0f83612b53565b905080915050919050565b60608060208351026040519080825280601f01601f191660200182016040528015613b545781602001600182028038833980820191505090505b50905060008060009050600090505b8451811015613c2d5760008090505b6020811015613c1f5760008160080260020a878481518110613b9057fe5b602002602001015160001c0260001b9050600060f81b817effffffffffffffffffffffffffffffffffffffffffffffffffffffffffffff191614613c115780858581518110613bdb57fe5b60200101907effffffffffffffffffffffffffffffffffffffffffffffffffffffffffffff1916908160001a9053506001840193505b508080600101915050613b72565b508080600101915050613b63565b6060826040519080825280601f01601f191660200182016040528015613c625781602001600182028038833980820191505090505b509050600091505b82821015613cd157838281518110613c7e57fe5b602001015160f81c60f81b818381518110613c9557fe5b60200101907effffffffffffffffffffffffffffffffffffffffffffffffffffffffffffff1916908160001a9053508180600101925050613c6a565b80945050505050919050565b6060806040518060400160405280601081526020017f3031323334353637383961626364656600000000000000000000000000000000815250905060006014905060606002820260020161ffff166040519080825280601f01601f191660200182016040528015613d5d5781602001600182028038833980820191505090505b5090507f300000000000000000000000000000000000000000000000000000000000000081600081518110613d8e57fe5b60200101907effffffffffffffffffffffffffffffffffffffffffffffffffffffffffffff1916908160001a9053507f780000000000000000000000000000000000000000000000000000000000000081600181518110613deb57fe5b60200101907effffffffffffffffffffffffffffffffffffffffffffffffffffffffffffff1916908160001a90535060008090505b8261ffff16811015613f4d57836004888381518110613e3b57fe5b602001015160f81c60f81b7effffffffffffffffffffffffffffffffffffffffffffffffffffffffffffff1916901c60f81c60ff1681518110613e7a57fe5b602001015160f81c60f81b826002830260020181518110613e9757fe5b60200101907effffffffffffffffffffffffffffffffffffffffffffffffffffffffffffff1916908160001a90535083600f60f81b888381518110613ed857fe5b602001015160f81c60f81b1660f81c60ff1681518110613ef457fe5b602001015160f81c60f81b826002830260030181518110613f1157fe5b60200101907effffffffffffffffffffffffffffffffffffffffffffffffffffffffffffff1916908160001a9053508080600101915050613e20565b5080935050505092915050565b6060613f8682604051602001808281526020019150506040516020818303038152906040526000613cdd565b9050919050565b6000806020830151905080915050919050565b600084613fac85614175565b846040516020018084805190602001908083835b60208310613fe35780518252602082019150602081019050602083039250613fc0565b6001836020036101000a038019825116818451168082178552505050505050905001837bffffffffffffffffffffffffffffffffffffffffffffffffffffffff19167bffffffffffffffffffffffffffffffffffffffffffffffffffffffff191681526004018260ff1660ff1660f81b815260010193505050506040516020818303038152906040528051906020012090508160016000838152602001908152602001600020908051906020019061409c929190614296565b505050505050565b60006002836040518082805190602001908083835b602083106140dc57805182526020820191506020810190506020830392506140b9565b6001836020036101000a038019825116818451168082178552505050505050905001915050908152602001604051809103902060080160008373ffffffffffffffffffffffffffffffffffffffff1673ffffffffffffffffffffffffffffffffffffffff16815260200190815260200160002060000154905092915050565b6000600860009054906101000a900460130b60130b905090565b600081805190602001209050919050565b60006141c883836040518060400160405280601a81526020017f536166654d6174683a206469766973696f6e206279207a65726f0000000000008152506141d0565b905092915050565b6000808311829061427c576040517f08c379a00000000000000000000000000000000000000000000000000000000081526004018080602001828103825283818151815260200191508051906020019080838360005b83811015614241578082015181840152602081019050614226565b50505050905090810190601f16801561426e5780820380516001836020036101000a031916815260200191505b509250505060405180910390fd5b50600083858161428857fe5b049050809150509392505050565b8280548282559060005260206000209081019282156142d2579160200282015b828111156142d15782518255916020019190600101906142b6565b5b5090506142df9190614314565b5090565b60405180608001604052806000151581526020016000800b8152602001600060ff1681526020016000151581525090565b61433691905b8082111561433257600081600090555060010161431a565b5090565b9056fe53656e64657220646964206e6f7420726567697374657220617474656e64616e636546756e6374696f6e206d6179206f6e6c792062652063616c6c65642062792061207374616b6572206f6e207468697320706f6c6c4e6f7420656e6f75676820617474656e6465657320696e20636f6e73656e737573a265627a7a72315820eb257f952e1895aaa33ceb5135a4a0ab0eaf922396887fdea0cbfb347b2335e364736f6c63430005100032",
  "source": "pragma solidity ^0.5.0;\n\nimport \"./strings.sol\";\nimport \"./stringCasting.sol\";\n// import \"./BytesLib.sol\";\nimport \"./SafeMath.sol\";\n\n/* empty contract - the real one is depolyed at an address which will be passed as param to validate */\n\n// contract PollReference {\n//     function serialiseStakers(string calldata _poll, uint8 validationType) external returns (address[] memory) {\n//         // return something which will make it obvious that you have accidentally delegated this context!\n//         address[] memory ret = new address[](3);\n//         (ret[0], ret[1], ret[2]) = (address(9), address(9), address(9));\n//         return ret;\n//\n//     }\n//\n//     function serialiseProofs(string calldata _poll, uint8 validationType) external returns (address[] memory) {\n//         // return something which will make it obvious that you have accidentally delegated this context!\n//         address[] memory ret = new address[](4);\n//         (ret[0], ret[1], ret[2], ret[3]) = (address(6), address(6), address(6), address(6));\n//         return ret;\n//     }\n// }\n\n\n/* Lunchcoin validator contract - mutual agreement */\ncontract MutualAgreement {\n    // Common storage structure for ALL contacts using this storage.\n    // _, __, __ , etc are unused in this contract, but must remain to occupy their slots.\n\n    address owner;  // is set by TokenStorage.. but retain types and order.\n\n    struct TimeRange {\n      uint start;\n      uint end;\n    }\n\n    struct Stake {\n      uint rep;\n      TimeRange[] available;\n      uint availabilityExpires;\n      mapping (address => uint) venueContribution;\n    }\n\n    struct dibs {\n      address payer;\n      address recipient;\n      uint amount;\n    }\n\n    struct Poll {\n      address initiator;\n      uint minStake;\n      uint venueCost;\n      uint venuePot;\n      uint8 minParticipants;\n      TimeRange eventTime;\n      bool proofsWindowClosed;\n      mapping (address => Stake) staked;\n      mapping (address => bytes32[]) committedProofs;\n      dibs[] dibsCalled;\n    }\n\n    struct PollExternal {\n      address initiator;\n      uint minStake;\n      uint venueCost;\n      uint venuePot;\n      uint8 minParticipants;\n      TimeRange eventTime;\n      // NB external view of Poll can never correctly represent committedProofs (a mapping to a dynamic array).\n      // Need to either make it indicative, or fixed size.\n      bytes32[5][] committedProofs;\n      address[] provers;\n      dibs[] dibsCalled;\n    }\n\n    // shared across contracts\n    mapping (bytes32 => bytes32[]) allTheData;\n    mapping (string => Poll) pollData;\n    mapping (bytes32 => bool) resultsCache;\n\n    // used only in Poll\n    mapping(uint8 => address) internal __validators;\n    mapping(uint8 => string) internal __validatorNames;\n    mapping(address => uint) internal __cashBalance;\n    address __selfAddy ;\n\n\n    int160 flag;\n\n    // unused - previously for Storage Proxy\n    //    mapping (address => bool) internal _allowedAccess;\n\n    // used only in Validators\n\n      // used for testing only - will be deleted.\n      address pollAddress = 0x9D26a8a5Db7dC10689692caF8d52C912958409CF;\n\n    // constants: Do not use space in storage.\n    uint8 constant vType=1;\n    string constant vDesc = \"mutual agreement\";\n\n\n    struct proofCounter {\n        bool fakeProof;\n        int8 duplicateProofs;\n        uint8 fakeProofs;\n        bool senderIsPresent;\n    }\n\n\n    using strings for *;\n    using stringcast for string;\n    using SafeMath for uint;\n\n    function () payable external {\n        _fallback();\n    }\n\n    // function() external payable {\n    //     // NB sol 0.6+ better syntax for calldata arrays : https://solidity.readthedocs.io/en/v0.6.0/types.html#array-slices\n    //     bytes memory input = msg.data;\n    //\n    //     // TODO: This is V.0 accepting a string (really a bytes32) of EXACTLY 32 bytes, eg a doodle poll without the https:// ;)\n    //     bytes32 __ownAdress;  // NB assuming 32b rather than 20b for calldata loose packing. Remember to get rid of this line when optimising!\n    //     bytes memory usefulData;\n    //     bytes32 poll32;\n    //     bytes memory __reveal;\n    //     // demo result! (we don;t need more than bool really ;)\n    //     uint256 valid = 7331;\n    //\n    //     (__ownAdress, usefulData) = (bytesSplit32(input));\n    //     (poll32, __reveal) = (bytesSplit32(usefulData));\n    //\n    //     // NB other validators will need to additionally retrieve reveal data from msg.data\n    //     bytes32[] memory stakers = crossContractCall (encodeFunctionName(\"serialiseStakers\"), bytes32ToString(poll32), valid, vType);\n    //     bytes32[] memory proofs = crossContractCall (encodeFunctionName(\"serialiseProofs\"), bytes32ToString(poll32), valid, vType);\n    //\n    // }\n\n    constructor () public {\n        // testing constructor access to storage across shared storage\n        // (one for later ;)\n        // constructed = 1;\n    }\n\n    function _fallback() internal {\n        bytes memory input = msg.data;\n\n\n    }\n\n    event logStuff (string);\n\n    modifier isStaker(string memory _poll) {\n      address[] memory stakers = getStakerAddresses(_poll);\n      bool senderIsPresent;\n\n      for(uint i = 0; i < stakers.length; i++) {\n        if (stakers[i] == msg.sender) {\n          senderIsPresent = true;\n        }\n      }\n      require(senderIsPresent, \"Function may only be called by a staker on this poll\");\n      _;\n    }\n\n    function doEmit (string memory message) public {\n      emit logStuff (message);\n    }\n\n    function getFlag() public view returns (int) {\n      return flag;\n    }\n\n    function setFlag(int160 _flag) public {\n      flag = _flag;\n    }\n\n    function getPoll(string memory poll) public view returns (\n        address initiator,\n        uint stake,\n        uint venueCost,\n        uint8 minParticipants,\n        uint8 participants,\n        uint start,\n        uint end,\n        bytes32[5][] memory committedProofs ) {\n\n        // initiator = new address(0x0);\n        stake = 1000;\n        venueCost = 40000;\n        minParticipants = 3;\n        participants = 3;\n        start = 1591535900000;\n        end = 1591536000000;\n\n\n      return (initiator, stake, venueCost, minParticipants, participants, start, end, committedProofs);\n    }\n\n    function get (string memory _poll, string memory _fnName) public view returns (bytes32[] memory) {\n        bytes32 hash = keccak256(abi.encodePacked(_poll, encodeFunctionName(_fnName), vType));\n        return (allTheData[hash]);\n    }\n\n    function getStakerAddresses (string memory _poll ) public view returns (address[] memory) {\n      bytes32[] memory rawStakers = get(_poll, \"serialiseStakers\");\n      address[] memory stakers = new address[](rawStakers.length);\n      for(uint16 i=0; i < rawStakers.length; i++) {\n          stakers[i] = bytesToAddress(bytes32ToBytes(rawStakers[i]));\n      }\n      return stakers;\n    }\n\n    function getproofsAsAddresses (string memory _poll ) public view returns (address[] memory) {\n      bytes32[] memory rawProofs = get(_poll, \"serialiseProofs\");\n      address[] memory proofs = new address[](rawProofs.length);\n      for(uint16 i=0; i < rawProofs.length; i++) {\n          proofs[i] = bytesToAddress(bytes32ToBytes(rawProofs[i]));\n      }\n      return proofs;\n    }\n\n    function setcheckedIn (string memory _poll, string memory _fnName, uint8 _vt, bytes32[] memory data) public {\n      bytes32 hash = keccak256(abi.encodePacked(_poll, encodeFunctionName(_fnName), _vt));\n      allTheData[hash] = data;\n    }\n\n    function add (string memory _poll, string memory _fnName, uint8 _vt, address _newMember) public {\n      bytes32 hash = keccak256(abi.encodePacked(_poll, encodeFunctionName(_fnName), _vt));\n      allTheData[hash].push (bytes32(bytes20(_newMember)));\n    }\n\n    function checkIn (string memory _poll, address _newMember) public {\n      add (_poll, \"serialiseStakers\", vType, _newMember);\n    }\n\n    function addProof (string memory _poll, address _newMember) public {\n      add (_poll, \"serialiseProofs\", vType, _newMember);\n    }\n\n    function closeProofsWindow (string memory _poll) public {\n      // require (isElibgible(msg.sender), \"msg.sender did not stake in this poll\");\n      // require (time.now()>.pollData[_poll].eventTime.end || AllstakersSubmittedProofs(), \"Not all stakers have submitted proofs and the event is not yet over\");\n      // require (, \"\");\n      pollData[_poll].proofsWindowClosed = true;\n\n      // NB here assuming that poll can be closed once all stakers have submitted a proof.\n      // The alternative would allow a non-attending staker to hold up refunds (by refusing to submit 'I can't make it')\n      // but this way means that early provers cannot necessarily revise rpoofs which turn out not to fit consensus\n      // This policy may be better left to differ between validators.\n    }\n\n    function totalRepStaked (string memory _poll, address _staker) public view returns (uint) {\n      return pollData[_poll].staked[_staker].rep;\n    }\n\n    function totalVenueContribs (string memory _poll, address _staker) public view returns (uint total) {\n      // dibs[] memory dibsList = allDibsPaidBy(_staker);\n      total = pollData[_poll].staked[_staker].venueContribution[_staker] + pollData[_poll].staked[_staker].venueContribution[address(0)];\n      // for(uint16 i = 0; i < dibsList.length; i++) {\n      //   total += dibsList[i].amount;\n      // }\n      return total;\n    }\n\n    // NB these require returning complex type.\n    // Keep the commented code, but integrate it direct into functions which need it (and eventually use new ABI encoder on it ;)\n\n    // function allDibsPaidBy(string memory _poll, address _staker) public view returns (dibs[] memory) {\n    //   uint16 size=0;\n    //   uint16 i;\n    //   for(i = 0; i < pollData[_poll].dibsCalled.length; i++) {\n    //     if (pollData[_poll].dibsCalled[i].payer == _staker)\n    //       size++;\n    //   }\n    //   dibs[size] memory dibsList = new dibs[](size);\n    //   for(uint16 i = 0; i < pollData[_poll].dibsCalled.length; i++) {\n    //     if (pollData[_poll].dibsCalled[i].payer == _staker)\n    //       dibsList.push(pollData[_poll].dibsCalled[i]);\n    //   }\n    //   return dibsList;\n    // }\n    //\n    // function allDibsPaidFor(string memory _poll, address _recipient) public view returns (dibs[] memory) {\n    //   uint16 size=0;\n    //   uint16 i;\n    //   for(i = 0; i < pollData[_poll].dibsCalled.length; i++) {\n    //     if (pollData[_poll].dibsCalled[i].recipient == _recipient)\n    //       size++;\n    //   }\n    //   dibs[size] memory dibsList = new dibs[](size);\n    //   for(i = 0; i < pollData[_poll].dibsCalled.length; i++) {\n    //     if (pollData[_poll].dibsCalled[i].recipient == _recipient)\n    //       dibsList.push(pollData[_poll].dibsCalled[i]);\n    //   }\n    //   return dibsList;\n    // }\n\n    event venuePotDisbursed (string _poll, address to, address by, int amount);\n    // Any staker can call refund of excess venue pot.\n    // Disbursement to venue payer must wait until initiator has actively set venue payer (eg to self);\n    function refundVenueStakes(string memory _poll) public isStaker(_poll) {\n      address[] memory stakers = getStakerAddresses(_poll);\n      uint equalShare = (pollData[_poll].venueCost).div(stakers.length);\n      uint spareCash = pollData[_poll].venuePot-pollData[_poll].venueCost;\n      // // proportional refunds:\n      // // allows recipients of gifted contributions to get a refund too\n      // for stakers\n      //   refund = 0\n      //   for (stakes = allDibsPaidBy(staker).concat(staker.stake[staker]).concat(staker.stake[0x0]))\n      //     refund += stake*proportion\n      //     remove stake\n      //   refund (refund)\n      //   emit\n      //\n      // // covering refunds:\n      // // gifted contributions are used only to top up recipients'\n      // for stakers\n      //   totalPaid = staker.stake[staker].amount + staker.stake[0x0].amount\n      //   if totalPaid < equalShare\n      //     for (stakes = allDibsPaidFor(staker).concat(staker.stake[staker]).concat(staker.stake[0x0]))\n      //       if amount>=shortfall\n      //         totalPaid += shortfall\n      //         shorten(stake)\n      //       else\n      //         totalPaid += amount\n      //         remove(stake) including own stake!\n      //     refund(0)\n      // for stakers\n      //   if exists(stake) (ie those who were not removed in last round)\n      //     for (stakes = allDibsPaidBy(staker).concat(staker.stake[staker]).concat(staker.stake[0x0]))\n      //       if amount>=shortfall\n      //         totalPaid += shortfall\n      //         refund += rest\n      //       else\n      //         totalPaid += amount\n      //       remove(stake)\n      //     refund (refund)\n      //     emit\n      //\n\n\n    }\n\n    function setString (string memory _poll, string memory _fnName, uint8 _vt, string memory data) public {\n      bytes32 hash = keccak256(abi.encodePacked(_poll, encodeFunctionName(_fnName), _vt));\n      // emit RetrievedDataCache(\"Poll context:\", notes, allTheData[hash]);\n      allTheData[hash] = stringToBytes32Array(data);\n    }\n\n    event numberLoggerLikeImUsingFuckingJava (string, uint);\n    /* simplest possible validator - checks that a majority of poll.stakers(), including sender, are contained in poll.serialiseProofs() */\n    function validate(address _pollContract, string memory _poll, bytes32 _reveal) public view returns (bool) {\n        // require (_pollContract==howeverYoullIdentifySelf, 'wrong Poll contract - something needs upgrading');\n\n        address[] memory stakers = getStakerAddresses(_poll);\n        address[] memory proofs = getproofsAsAddresses(_poll);\n        uint16 i;\n\n        // for(i = 0; i < rawStakers.length; i++) {\n        //     stakers[i] = bytesToAddress(bytes32ToBytes(rawStakers[i]));\n        // }\n        // for(i = 0; i < rawProofs.length; i++) {\n        //     proofs[i] = bytesToAddress(bytes32ToBytes(rawProofs[i]));\n        // }\n        uint8 threshold = 1 ;\n        // emit numberLoggerLikeImUsingFuckingJava('stakers',stakers.length);\n        // emit numberLoggerLikeImUsingFuckingJava('proofs',proofs.length);\n\n        proofCounter memory pc;\n        // emit logStuff(\"am alive\");\n        for(i = 0; i < proofs.length; i++) {\n            // emit logStuff(\"started loop\");\n            pc.duplicateProofs = -1;\n            for(uint j = 0; j < stakers.length; j++) {\n                // emit whatThe (\"Huh?\",i,j,proofs[i], stakers[j], msg.sender);\n                if (proofs[i] == stakers[j]) {\n                    // emit cool (i,j);\n                    // Only set senderIsPresent = true the first time that proofs[i] == stakers[j] == msg.sender\n                    // if (proofs[i] == msg.sender) {\n                    if (proofs[i] == msg.sender) {\n                      pc.senderIsPresent = true;\n                      // emit logStuff(\"found sender\");\n                      // flag = int160(1000*i+j);\n                    }\n                    // set duplicateProofs hopefully to 0, and remove staker from the array\n                    pc.duplicateProofs++;\n                    stakers[j] = address(0);\n                    // emit logStuff(\"loop\");\n                }\n            }\n            if (pc.duplicateProofs>0) { pc.fakeProofs += uint8(pc.duplicateProofs); }\n        }\n\n        // // deal with 0 < threshold < 1\n        // if(percentageThreshold>0) {\n        //   threshold = percentageThreshold*stakers.length;\n        // }\n        // if (pc.senderIsPresent && (proofs.length-pc.fakeProofs >= threshold)) {\n        //     return true;\n        // }\n        // return false;\n\n        if (!pc.senderIsPresent)\n            revert('Sender did not register attendance');\n        if (proofs.length-pc.fakeProofs < threshold)\n            revert('Not enough attendees in consensus');\n        if (proofs.length == pc.fakeProofs)\n            revert('All proofs were fake');\n\n        // if (!pc.senderIsPresent)\n        //     emit logStuff('Sender did not register attendance');\n        // if (proofs.length-pc.fakeProofs < threshold)\n        //     emit logStuff('Not enough attendees in consensus');\n        // if (proofs.length == pc.fakeProofs)\n        //     emit logStuff('All proofs were fake');\n        // emit numberLoggerLikeImUsingFuckingJava ('fakeProofs',pc.fakeProofs);\n        // emit numberLoggerLikeImUsingFuckingJava ('proofs.length',proofs.length);\n        return true;\n    }\n\n    function deserialiseStakers(string calldata _poll) external pure returns (address[] memory) {\n        // return something which will make it obvious that you have accidentally delegated this context!\n        address[] memory ret = new address[](4);\n        (ret[0], ret[1], ret[2], ret[3]) = (address(5), address(0), address(5), address(0));\n        return ret;\n    }\n\n    function serialiseStakers(string calldata _poll, uint8 validationType) external pure returns (address[] memory) {\n        // return something which will make it obvious that you have accidentally delegated this context!\n        address[] memory ret = new address[](4);\n        (ret[0], ret[1], ret[2], ret[3]) = (address(5), address(0), address(5), address(0));\n        return ret;\n    }\n\n    function serialiseProofs(string calldata _poll, uint8 validationType) external pure returns (address[] memory) {\n        // return something which will make it obvious that you have accidentally delegated this context!\n        address[] memory ret = new address[](4);\n        (ret[0], ret[1], ret[2], ret[3]) = (address(0), address(5), address(0), address(5));\n        return ret;\n    }\n\n\n    function proofType() public pure returns (uint8) {\n      return vType;\n    }\n\n    function encodeFunctionName (string memory name) internal pure returns (bytes4) {\n        // TODO: cache for readability!\n        // if (\"serialiseStakers\")\n        //     return\n        // if (\"serialiseStakers\")\n        //     return\n        return bytes4(keccak256(bytes(name)));\n    }\n\n    // split a serialised string of addresses (as received from main contract).\n    // NB - only works in this validator - other validators will use multiple types within serialised string\n    function splitToAddresses(string memory _concatenated) internal pure returns (address[] memory result) {\n        strings.slice memory delim = \",\".toSlice();\n        strings.slice memory source = _concatenated.toSlice();\n        address[] memory parts = new address[](source.count(delim));\n\n        for(uint i = 0; i < parts.length; i++) {\n           parts[i] = source.split(delim).toString().toAddress();\n        }\n        return parts;\n\n    }\n\n    function bytesToAddress(bytes memory _bytes) public pure returns (address) {\n      address tempAddress;\n      assembly {\n          tempAddress := div(mload(add(add(_bytes, 0x20), 0)), 0x1000000000000000000000000)\n      }\n      return tempAddress;\n    }\n\n    function toString(address account) public pure returns(string memory) {\n        return toString(abi.encodePacked(account), 5);\n    }\n\n    function toString(uint256 value) public pure returns(string memory) {\n        return toString(abi.encodePacked(value), 0);\n    }\n\n    function toString(bytes32 value) public pure returns(string memory) {\n        return toString(abi.encodePacked(value), 0);\n    }\n\n    function toString(bytes memory data, uint16 len) public pure returns(string memory) {\n        bytes memory alphabet = \"0123456789abcdef\";\n        uint16 strLen = 20;  // It's 20. The length is just fucking 20.  uint16(data.length);\n        // Pretty simple if statement - why won't it work ?\n        // if (len>0) {\n        //     strLen = len;\n        // }\n\n\n        bytes memory str = new bytes(2 + strLen * 2);\n        str[0] = '0';\n        str[1] = 'x';\n        for (uint i = 0; i < strLen; i++) {\n            str[2+i*2] = alphabet[uint(uint8(data[i] >> 4))];\n            str[3+i*2] = alphabet[uint(uint8(data[i] & 0x0f))];\n        }\n        return string(str);\n    }\n\n\n    function bytes32ToBytes(bytes32 _bytes32) public pure returns (bytes memory){\n        // string memory str = string(_bytes32);\n        // TypeError: Explicit type conversion not allowed from \"bytes32\" to \"string storage pointer\"\n        bytes memory bytesArray = new bytes(32);\n        for (uint256 i; i < 32; i++) {\n            bytesArray[i] = _bytes32[i];\n        }\n        return bytesArray;\n    }\n\n    // function bytesToBytes32(bytes b, uint offset) private pure returns (bytes32) {\n    //     bytes32 out;\n\n    //     for (uint i = 0; i < 32; i++) {\n    //         out |= bytes32(b[offset + i] & 0xFF) >> (i * 8);\n    //     }\n    //     return out;\n    // }\n\n\n    function bytesToBytes32(bytes memory b) public pure returns (bytes32 bts) {\n        bytes32 i;\n        //NB size etc= 32b = 0x20b\n        assembly { i := mload(add(b, 0x20)) }\n        bts = i;\n    }\n\n    function bytes32ToString(bytes32 _bytes32) public pure returns (string memory ){\n        bytes memory bytesArray = bytes32ToBytes(_bytes32);\n        return string(bytesArray);\n    }\n\n    function bytes32ArrayToString (bytes32[] memory data) public pure returns (string memory ) {\n        bytes memory bytesString = new bytes(data.length * 32);\n        uint urlLength;\n        uint i=0;\n        for (i=0; i<data.length; i++) {\n            for (uint j=0; j<32; j++) {\n                byte char = byte(bytes32(uint(data[i]) * 2 ** (8 * j)));\n                if (char != 0) {\n                    bytesString[urlLength] = char;\n                    urlLength += 1;\n                }\n            }\n        }\n        bytes memory bytesStringTrimmed = new bytes(urlLength);\n        for (i=0; i<urlLength; i++) {\n            bytesStringTrimmed[i] = bytesString[i];\n        }\n        return string(bytesStringTrimmed);\n    }\n\n    function stringToBytes32Array(string memory source) public pure returns (bytes32[] memory result) {\n        // uint16 words = uint16( (bytes(source).length+31)/32 );\n        uint16 words = 1;\n        for(uint16 i=0; i<=words; i++) {\n          uint16 offset = 32*(i+1);\n          bytes32 word;\n          assembly {\n            word := mload(add(source, offset))\n          }\n          result[i] = word;\n        }\n        return result;\n    }\n\n    // TODO !!!\n    // function bytes32ToUint (bytes32 data) returns (uint) {\n    //     return 2;\n    // }\n\n    function bytesSplit32(bytes  memory data) public pure returns (bytes32, bytes memory ) {\n        uint8 splitAt = 32;                             // all (if variable split, pass in splitAt)\n        uint256 taillength = 0;\n        if (data.length > splitAt)\n            taillength = data.length-splitAt;\n        bytes32 temp;\n        // bytes32 head;                                   // 32b split\n        bytes memory head = new bytes(splitAt);         // variable length split\n        bytes memory tail = new bytes(taillength);\n        for(uint i=0;i<=data.length-1;i++){\n            if (i<splitAt)\n                head[i] = bytes(data)[i] ;\n            else\n                tail[i-splitAt] = bytes(data)[i] ;\n        }\n        return (bytesToBytes32(head), tail);\n    }\n\n    // calls fallback function of pollAddress, passing 4 byte encoded function name to remote contract to select method.\n    // NB future better: just get the ABI of the finished Poll conmtract, and use that!\n    // NB in sol 0.6 + fallback cannot return anything\n    // NB future optimisation : we are not using the functionality of string here, since string must have come from a bytes32\n    event CrossContractValidateBegin();\n    event CrossContractValidateEnd();\n    function crossContractCall (bytes4 fnNameHash, string  memory poll, uint256 valid, uint8 vt) public returns (bytes32[] memory) {\n    address pollContract = pollAddress;\n\n        emit CrossContractValidateBegin();\n        assembly {\n            let ptr := mload(0x40)\n            calldatacopy(ptr, 0, calldatasize)\n            let result := delegatecall(gas, pollContract, ptr, calldatasize, 0, 0)\n            let size := returndatasize\n            returndatacopy(ptr, 0, size)\n            switch result\n            case 0 { revert(ptr, size) }\n            default { return(ptr, size) }\n        }\n        emit CrossContractValidateEnd();\n    }\n\n}\n",
  "sourcePath": "/home/teide/randomCode/lunchcoin/contracts.v1/contracts/MutualAgreement.sol",
  "compiler": {
    "name": "solc",
    "version": "0.5.16+commit.9c3226ce.Emscripten.clang"
  },
  "schemaVersion": "3.2.0",
  "updatedAt": "2020-06-08T18:53:06.814Z",
  "networkType": "ethereum",
  "devdoc": {
    "methods": {}
  },
  "userdoc": {
    "methods": {}
  }
}