{
  "contractName": "MutualAgreement",
  "abi": [
    {
      "inputs": [],
      "payable": false,
      "stateMutability": "nonpayable",
      "type": "constructor"
    },
    {
      "anonymous": false,
      "inputs": [],
      "name": "CrossContractValidateBegin",
      "type": "event"
    },
    {
      "anonymous": false,
      "inputs": [],
      "name": "CrossContractValidateEnd",
      "type": "event"
    },
    {
      "anonymous": false,
      "inputs": [
        {
          "indexed": false,
          "internalType": "address",
          "name": "",
          "type": "address"
        },
        {
          "indexed": false,
          "internalType": "string",
          "name": "",
          "type": "string"
        }
      ],
      "name": "disreputableStakerIgnored",
      "type": "event"
    },
    {
      "anonymous": false,
      "inputs": [
        {
          "indexed": false,
          "internalType": "string",
          "name": "_poll",
          "type": "string"
        },
        {
          "indexed": false,
          "internalType": "address",
          "name": "_staker",
          "type": "address"
        }
      ],
      "name": "emptyStakeRemoved",
      "type": "event"
    },
    {
      "anonymous": false,
      "inputs": [
        {
          "indexed": false,
          "internalType": "string",
          "name": "",
          "type": "string"
        },
        {
          "indexed": false,
          "internalType": "string",
          "name": "",
          "type": "string"
        },
        {
          "indexed": false,
          "internalType": "address",
          "name": "",
          "type": "address"
        },
        {
          "indexed": false,
          "internalType": "uint8",
          "name": "",
          "type": "uint8"
        },
        {
          "indexed": false,
          "internalType": "bytes32[]",
          "name": "",
          "type": "bytes32[]"
        }
      ],
      "name": "gpResult",
      "type": "event"
    },
    {
      "anonymous": false,
      "inputs": [
        {
          "indexed": false,
          "internalType": "string",
          "name": "",
          "type": "string"
        }
      ],
      "name": "logStuff",
      "type": "event"
    },
    {
      "anonymous": false,
      "inputs": [
        {
          "indexed": false,
          "internalType": "string",
          "name": "",
          "type": "string"
        },
        {
          "indexed": false,
          "internalType": "uint256",
          "name": "",
          "type": "uint256"
        }
      ],
      "name": "numberLoggerLikeImUsingFuckingJava",
      "type": "event"
    },
    {
      "anonymous": false,
      "inputs": [
        {
          "indexed": false,
          "internalType": "address",
          "name": "",
          "type": "address"
        }
      ],
      "name": "proofUpdated",
      "type": "event"
    },
    {
      "anonymous": false,
      "inputs": [
        {
          "indexed": false,
          "internalType": "string",
          "name": "poll",
          "type": "string"
        },
        {
          "indexed": false,
          "internalType": "address",
          "name": "by",
          "type": "address"
        }
      ],
      "name": "proofsWindowClosed",
      "type": "event"
    },
    {
      "anonymous": false,
      "inputs": [
        {
          "indexed": false,
          "internalType": "address",
          "name": "_staker",
          "type": "address"
        }
      ],
      "name": "refundFail",
      "type": "event"
    },
    {
      "anonymous": false,
      "inputs": [
        {
          "indexed": false,
          "internalType": "address",
          "name": "_staker",
          "type": "address"
        },
        {
          "indexed": false,
          "internalType": "uint256",
          "name": "_staked",
          "type": "uint256"
        },
        {
          "indexed": false,
          "internalType": "uint256",
          "name": "_refunded",
          "type": "uint256"
        }
      ],
      "name": "repRefund",
      "type": "event"
    },
    {
      "anonymous": false,
      "inputs": [
        {
          "indexed": false,
          "internalType": "address",
          "name": "",
          "type": "address"
        },
        {
          "indexed": false,
          "internalType": "string",
          "name": "",
          "type": "string"
        }
      ],
      "name": "stakeNotAccepted",
      "type": "event"
    },
    {
      "anonymous": false,
      "inputs": [
        {
          "indexed": false,
          "internalType": "address",
          "name": "",
          "type": "address"
        },
        {
          "indexed": false,
          "internalType": "string",
          "name": "",
          "type": "string"
        },
        {
          "indexed": false,
          "internalType": "uint256",
          "name": "",
          "type": "uint256"
        }
      ],
      "name": "staked",
      "type": "event"
    },
    {
      "anonymous": false,
      "inputs": [
        {
          "indexed": false,
          "internalType": "string",
          "name": "_poll",
          "type": "string"
        },
        {
          "indexed": false,
          "internalType": "address",
          "name": "to",
          "type": "address"
        },
        {
          "indexed": false,
          "internalType": "address",
          "name": "by",
          "type": "address"
        },
        {
          "indexed": false,
          "internalType": "int256",
          "name": "amount",
          "type": "int256"
        }
      ],
      "name": "venuePotDisbursed",
      "type": "event"
    },
    {
      "anonymous": false,
      "inputs": [
        {
          "indexed": false,
          "internalType": "bytes",
          "name": "",
          "type": "bytes"
        }
      ],
      "name": "whassahash",
      "type": "event"
    },
    {
      "anonymous": false,
      "inputs": [
        {
          "indexed": false,
          "internalType": "bytes32",
          "name": "",
          "type": "bytes32"
        }
      ],
      "name": "whassakeccack",
      "type": "event"
    },
    {
      "payable": true,
      "stateMutability": "payable",
      "type": "fallback"
    },
    {
      "constant": true,
      "inputs": [
        {
          "internalType": "string",
          "name": "",
          "type": "string"
        }
      ],
      "name": "pollData",
      "outputs": [
        {
          "internalType": "address",
          "name": "initiator",
          "type": "address"
        },
        {
          "internalType": "uint256",
          "name": "minStake",
          "type": "uint256"
        },
        {
          "internalType": "uint256",
          "name": "venueCost",
          "type": "uint256"
        },
        {
          "internalType": "uint256",
          "name": "venuePot",
          "type": "uint256"
        },
        {
          "internalType": "uint8",
          "name": "minParticipants",
          "type": "uint8"
        },
        {
          "components": [
            {
              "internalType": "uint256",
              "name": "start",
              "type": "uint256"
            },
            {
              "internalType": "uint256",
              "name": "end",
              "type": "uint256"
            }
          ],
          "internalType": "struct MutualAgreement.TimeRange",
          "name": "eventTime",
          "type": "tuple"
        },
        {
          "internalType": "bool",
          "name": "proofsWindowClosed",
          "type": "bool"
        }
      ],
      "payable": false,
      "stateMutability": "view",
      "type": "function"
    },
    {
      "constant": false,
      "inputs": [
        {
          "internalType": "string",
          "name": "_poll",
          "type": "string"
        }
      ],
      "name": "initialiseDemo",
      "outputs": [],
      "payable": false,
      "stateMutability": "nonpayable",
      "type": "function"
    },
    {
      "constant": true,
      "inputs": [],
      "name": "multiplier",
      "outputs": [
        {
          "internalType": "uint256",
          "name": "numerator",
          "type": "uint256"
        },
        {
          "internalType": "uint256",
          "name": "denominator",
          "type": "uint256"
        }
      ],
      "payable": false,
      "stateMutability": "view",
      "type": "function"
    },
    {
      "constant": true,
      "inputs": [],
      "name": "maxRep",
      "outputs": [
        {
          "internalType": "uint256",
          "name": "maxRep",
          "type": "uint256"
        }
      ],
      "payable": false,
      "stateMutability": "view",
      "type": "function"
    },
    {
      "constant": false,
      "inputs": [
        {
          "internalType": "string",
          "name": "message",
          "type": "string"
        }
      ],
      "name": "doEmit",
      "outputs": [],
      "payable": false,
      "stateMutability": "nonpayable",
      "type": "function"
    },
    {
      "constant": true,
      "inputs": [
        {
          "internalType": "string",
          "name": "_poll",
          "type": "string"
        }
      ],
      "name": "getPoll",
      "outputs": [
        {
          "internalType": "address",
          "name": "initiator",
          "type": "address"
        },
        {
          "internalType": "uint256",
          "name": "venueCost",
          "type": "uint256"
        },
        {
          "internalType": "uint8",
          "name": "minParticipants",
          "type": "uint8"
        },
        {
          "internalType": "uint256",
          "name": "start",
          "type": "uint256"
        },
        {
          "internalType": "uint256",
          "name": "end",
          "type": "uint256"
        },
        {
          "internalType": "bool",
          "name": "proofsWindowClosed",
          "type": "bool"
        },
        {
          "internalType": "bytes32[5][]",
          "name": "ownCheckInIndex",
          "type": "bytes32[5][]"
        }
      ],
      "payable": false,
      "stateMutability": "view",
      "type": "function"
    },
    {
      "constant": true,
      "inputs": [
        {
          "internalType": "string",
          "name": "_poll",
          "type": "string"
        }
      ],
      "name": "getPollStruct",
      "outputs": [
        {
          "components": [
            {
              "internalType": "address",
              "name": "initiator",
              "type": "address"
            },
            {
              "internalType": "uint256",
              "name": "minStake",
              "type": "uint256"
            },
            {
              "internalType": "uint256",
              "name": "venueCost",
              "type": "uint256"
            },
            {
              "internalType": "uint256",
              "name": "venuePot",
              "type": "uint256"
            },
            {
              "internalType": "uint8",
              "name": "minParticipants",
              "type": "uint8"
            },
            {
              "internalType": "uint8",
              "name": "participants",
              "type": "uint8"
            },
            {
              "components": [
                {
                  "internalType": "uint256",
                  "name": "start",
                  "type": "uint256"
                },
                {
                  "internalType": "uint256",
                  "name": "end",
                  "type": "uint256"
                }
              ],
              "internalType": "struct MutualAgreement.TimeRange",
              "name": "eventTime",
              "type": "tuple"
            },
            {
              "internalType": "bool",
              "name": "proofsWindowClosed",
              "type": "bool"
            }
          ],
          "internalType": "struct MutualAgreement.PollExternal",
          "name": "returnPoll",
          "type": "tuple"
        }
      ],
      "payable": false,
      "stateMutability": "view",
      "type": "function"
    },
    {
      "constant": false,
      "inputs": [
        {
          "internalType": "bytes32",
          "name": "_hash",
          "type": "bytes32"
        },
        {
          "internalType": "bytes32[]",
          "name": "_data",
          "type": "bytes32[]"
        }
      ],
      "name": "setByHash",
      "outputs": [],
      "payable": false,
      "stateMutability": "nonpayable",
      "type": "function"
    },
    {
      "constant": true,
      "inputs": [
        {
          "internalType": "bytes32",
          "name": "_hash",
          "type": "bytes32"
        }
      ],
      "name": "getByHash",
      "outputs": [
        {
          "internalType": "bytes32[]",
          "name": "",
          "type": "bytes32[]"
        }
      ],
      "payable": false,
      "stateMutability": "view",
      "type": "function"
    },
    {
      "constant": true,
      "inputs": [
        {
          "internalType": "string",
          "name": "_poll",
          "type": "string"
        },
        {
          "internalType": "string",
          "name": "_fnName",
          "type": "string"
        }
      ],
      "name": "get",
      "outputs": [
        {
          "internalType": "bytes32[]",
          "name": "",
          "type": "bytes32[]"
        }
      ],
      "payable": false,
      "stateMutability": "view",
      "type": "function"
    },
    {
      "constant": false,
      "inputs": [
        {
          "internalType": "string",
          "name": "_poll",
          "type": "string"
        },
        {
          "internalType": "string",
          "name": "_fnName",
          "type": "string"
        },
        {
          "internalType": "address",
          "name": "_staker",
          "type": "address"
        }
      ],
      "name": "getProofIgnoringStaker",
      "outputs": [
        {
          "internalType": "bytes32[]",
          "name": "",
          "type": "bytes32[]"
        }
      ],
      "payable": false,
      "stateMutability": "nonpayable",
      "type": "function"
    },
    {
      "constant": false,
      "inputs": [
        {
          "internalType": "string",
          "name": "_poll",
          "type": "string"
        },
        {
          "internalType": "string",
          "name": "_fnName",
          "type": "string"
        },
        {
          "internalType": "address",
          "name": "_staker",
          "type": "address"
        }
      ],
      "name": "getProofProperUsingStaker",
      "outputs": [
        {
          "internalType": "bytes32[]",
          "name": "",
          "type": "bytes32[]"
        }
      ],
      "payable": false,
      "stateMutability": "nonpayable",
      "type": "function"
    },
    {
      "constant": false,
      "inputs": [
        {
          "internalType": "string",
          "name": "_poll",
          "type": "string"
        },
        {
          "internalType": "string",
          "name": "_fnName",
          "type": "string"
        },
        {
          "internalType": "address",
          "name": "_stakerOrZero",
          "type": "address"
        },
        {
          "internalType": "uint8",
          "name": "_vt",
          "type": "uint8"
        },
        {
          "internalType": "bytes32[]",
          "name": "data",
          "type": "bytes32[]"
        }
      ],
      "name": "getProofEmitHashesOnlyWithStaker",
      "outputs": [],
      "payable": false,
      "stateMutability": "nonpayable",
      "type": "function"
    },
    {
      "constant": true,
      "inputs": [
        {
          "internalType": "string",
          "name": "_poll",
          "type": "string"
        }
      ],
      "name": "getStakerAddresses",
      "outputs": [
        {
          "internalType": "address[]",
          "name": "",
          "type": "address[]"
        }
      ],
      "payable": false,
      "stateMutability": "view",
      "type": "function"
    },
    {
      "constant": false,
      "inputs": [
        {
          "internalType": "string",
          "name": "_poll",
          "type": "string"
        }
      ],
      "name": "getproofsAsAddresses",
      "outputs": [
        {
          "internalType": "address[][]",
          "name": "",
          "type": "address[][]"
        }
      ],
      "payable": false,
      "stateMutability": "nonpayable",
      "type": "function"
    },
    {
      "constant": false,
      "inputs": [
        {
          "internalType": "string",
          "name": "_poll",
          "type": "string"
        },
        {
          "internalType": "string",
          "name": "_fnName",
          "type": "string"
        },
        {
          "internalType": "address",
          "name": "_stakerOrZero",
          "type": "address"
        },
        {
          "internalType": "uint8",
          "name": "_vt",
          "type": "uint8"
        },
        {
          "internalType": "bytes32[]",
          "name": "data",
          "type": "bytes32[]"
        }
      ],
      "name": "setCheckedInNoStaker",
      "outputs": [],
      "payable": false,
      "stateMutability": "nonpayable",
      "type": "function"
    },
    {
      "constant": false,
      "inputs": [
        {
          "internalType": "string",
          "name": "_poll",
          "type": "string"
        },
        {
          "internalType": "string",
          "name": "_fnName",
          "type": "string"
        },
        {
          "internalType": "address",
          "name": "_stakerOrZero",
          "type": "address"
        },
        {
          "internalType": "uint8",
          "name": "_vt",
          "type": "uint8"
        },
        {
          "internalType": "bytes32[]",
          "name": "data",
          "type": "bytes32[]"
        }
      ],
      "name": "setCheckedInWithStaker",
      "outputs": [],
      "payable": false,
      "stateMutability": "nonpayable",
      "type": "function"
    },
    {
      "constant": false,
      "inputs": [
        {
          "internalType": "string",
          "name": "_poll",
          "type": "string"
        },
        {
          "internalType": "string",
          "name": "_fnName",
          "type": "string"
        },
        {
          "internalType": "address",
          "name": "_stakerOrZero",
          "type": "address"
        },
        {
          "internalType": "uint8",
          "name": "_vt",
          "type": "uint8"
        },
        {
          "internalType": "bytes32[]",
          "name": "_data",
          "type": "bytes32[]"
        }
      ],
      "name": "set",
      "outputs": [],
      "payable": false,
      "stateMutability": "nonpayable",
      "type": "function"
    },
    {
      "constant": false,
      "inputs": [
        {
          "internalType": "string",
          "name": "_poll",
          "type": "string"
        },
        {
          "internalType": "string",
          "name": "_fnName",
          "type": "string"
        },
        {
          "internalType": "address",
          "name": "_staker",
          "type": "address"
        },
        {
          "internalType": "uint8",
          "name": "_vt",
          "type": "uint8"
        },
        {
          "internalType": "address",
          "name": "_newMember",
          "type": "address"
        }
      ],
      "name": "addStaker",
      "outputs": [],
      "payable": false,
      "stateMutability": "nonpayable",
      "type": "function"
    },
    {
      "constant": false,
      "inputs": [
        {
          "internalType": "string",
          "name": "_poll",
          "type": "string"
        },
        {
          "internalType": "address[]",
          "name": "_newProof",
          "type": "address[]"
        },
        {
          "internalType": "address",
          "name": "_impersonatedStaker",
          "type": "address"
        }
      ],
      "name": "checkIn",
      "outputs": [],
      "payable": false,
      "stateMutability": "nonpayable",
      "type": "function"
    },
    {
      "constant": false,
      "inputs": [
        {
          "internalType": "string",
          "name": "_poll",
          "type": "string"
        },
        {
          "internalType": "address",
          "name": "_impersonatedStaker",
          "type": "address"
        },
        {
          "internalType": "address[]",
          "name": "_newProof",
          "type": "address[]"
        }
      ],
      "name": "addProof",
      "outputs": [],
      "payable": false,
      "stateMutability": "nonpayable",
      "type": "function"
    },
    {
      "constant": false,
      "inputs": [
        {
          "internalType": "string",
          "name": "_poll",
          "type": "string"
        },
        {
          "internalType": "address[]",
          "name": "_newProof",
          "type": "address[]"
        }
      ],
      "name": "addProofSelf",
      "outputs": [],
      "payable": false,
      "stateMutability": "nonpayable",
      "type": "function"
    },
    {
      "constant": false,
      "inputs": [
        {
          "internalType": "string",
          "name": "_poll",
          "type": "string"
        }
      ],
      "name": "closeProofsWindow",
      "outputs": [],
      "payable": false,
      "stateMutability": "nonpayable",
      "type": "function"
    },
    {
      "constant": false,
      "inputs": [
        {
          "internalType": "string",
          "name": "_poll",
          "type": "string"
        }
      ],
      "name": "reopenProofsWindow",
      "outputs": [],
      "payable": false,
      "stateMutability": "nonpayable",
      "type": "function"
    },
    {
      "constant": true,
      "inputs": [
        {
          "internalType": "string",
          "name": "_poll",
          "type": "string"
        }
      ],
      "name": "isProofsWindowClosed",
      "outputs": [
        {
          "internalType": "bool",
          "name": "",
          "type": "bool"
        }
      ],
      "payable": false,
      "stateMutability": "view",
      "type": "function"
    },
    {
      "constant": false,
      "inputs": [
        {
          "internalType": "string",
          "name": "_poll",
          "type": "string"
        },
        {
          "internalType": "address",
          "name": "_staker",
          "type": "address"
        },
        {
          "internalType": "uint256",
          "name": "_rep",
          "type": "uint256"
        }
      ],
      "name": "setRep",
      "outputs": [],
      "payable": false,
      "stateMutability": "nonpayable",
      "type": "function"
    },
    {
      "constant": true,
      "inputs": [
        {
          "internalType": "string",
          "name": "_poll",
          "type": "string"
        },
        {
          "internalType": "address",
          "name": "_staker",
          "type": "address"
        }
      ],
      "name": "getRep",
      "outputs": [
        {
          "internalType": "uint256",
          "name": "",
          "type": "uint256"
        }
      ],
      "payable": false,
      "stateMutability": "view",
      "type": "function"
    },
    {
      "constant": false,
      "inputs": [
        {
          "internalType": "string",
          "name": "_poll",
          "type": "string"
        },
        {
          "internalType": "address",
          "name": "_impersonatedStaker",
          "type": "address"
        },
        {
          "internalType": "uint256",
          "name": "_rep",
          "type": "uint256"
        },
        {
          "internalType": "uint256",
          "name": "_venueContribution",
          "type": "uint256"
        },
        {
          "internalType": "address",
          "name": "_venueContributionFor",
          "type": "address"
        }
      ],
      "name": "addStake",
      "outputs": [],
      "payable": false,
      "stateMutability": "nonpayable",
      "type": "function"
    },
    {
      "constant": true,
      "inputs": [
        {
          "internalType": "string",
          "name": "_poll",
          "type": "string"
        },
        {
          "internalType": "address",
          "name": "_staker",
          "type": "address"
        }
      ],
      "name": "totalRepStaked",
      "outputs": [
        {
          "internalType": "uint256",
          "name": "",
          "type": "uint256"
        }
      ],
      "payable": false,
      "stateMutability": "view",
      "type": "function"
    },
    {
      "constant": true,
      "inputs": [
        {
          "internalType": "string",
          "name": "_poll",
          "type": "string"
        },
        {
          "internalType": "address",
          "name": "_staker",
          "type": "address"
        }
      ],
      "name": "totalVenueContribs",
      "outputs": [
        {
          "internalType": "uint256",
          "name": "total",
          "type": "uint256"
        }
      ],
      "payable": false,
      "stateMutability": "view",
      "type": "function"
    },
    {
      "constant": false,
      "inputs": [
        {
          "internalType": "string",
          "name": "_poll",
          "type": "string"
        },
        {
          "internalType": "address",
          "name": "_staker",
          "type": "address"
        }
      ],
      "name": "removeEmptyStake",
      "outputs": [],
      "payable": false,
      "stateMutability": "nonpayable",
      "type": "function"
    },
    {
      "constant": false,
      "inputs": [
        {
          "internalType": "string",
          "name": "_poll",
          "type": "string"
        }
      ],
      "name": "refundVenueStakes",
      "outputs": [],
      "payable": false,
      "stateMutability": "nonpayable",
      "type": "function"
    },
    {
      "constant": false,
      "inputs": [
        {
          "internalType": "string",
          "name": "_poll",
          "type": "string"
        },
        {
          "internalType": "string",
          "name": "_fnName",
          "type": "string"
        },
        {
          "internalType": "uint8",
          "name": "_vt",
          "type": "uint8"
        },
        {
          "internalType": "string",
          "name": "data",
          "type": "string"
        }
      ],
      "name": "setString",
      "outputs": [],
      "payable": false,
      "stateMutability": "nonpayable",
      "type": "function"
    },
    {
      "constant": false,
      "inputs": [
        {
          "internalType": "string",
          "name": "_poll",
          "type": "string"
        },
        {
          "internalType": "bytes32",
          "name": "_reveal",
          "type": "bytes32"
        }
      ],
      "name": "refundStake",
      "outputs": [],
      "payable": false,
      "stateMutability": "nonpayable",
      "type": "function"
    },
    {
      "constant": false,
      "inputs": [
        {
          "internalType": "address",
          "name": "_pollContract",
          "type": "address"
        },
        {
          "internalType": "string",
          "name": "_poll",
          "type": "string"
        },
        {
          "internalType": "bytes32",
          "name": "_reveal",
          "type": "bytes32"
        }
      ],
      "name": "validate",
      "outputs": [
        {
          "internalType": "bool",
          "name": "",
          "type": "bool"
        }
      ],
      "payable": false,
      "stateMutability": "nonpayable",
      "type": "function"
    },
    {
      "constant": true,
      "inputs": [
        {
          "internalType": "string",
          "name": "_poll",
          "type": "string"
        }
      ],
      "name": "deserialiseStakers",
      "outputs": [
        {
          "internalType": "address[]",
          "name": "",
          "type": "address[]"
        }
      ],
      "payable": false,
      "stateMutability": "pure",
      "type": "function"
    },
    {
      "constant": true,
      "inputs": [
        {
          "internalType": "string",
          "name": "_poll",
          "type": "string"
        },
        {
          "internalType": "uint8",
          "name": "validationType",
          "type": "uint8"
        }
      ],
      "name": "serialiseStakers",
      "outputs": [
        {
          "internalType": "address[]",
          "name": "",
          "type": "address[]"
        }
      ],
      "payable": false,
      "stateMutability": "pure",
      "type": "function"
    },
    {
      "constant": true,
      "inputs": [
        {
          "internalType": "string",
          "name": "_poll",
          "type": "string"
        },
        {
          "internalType": "uint8",
          "name": "validationType",
          "type": "uint8"
        }
      ],
      "name": "serialiseProofs",
      "outputs": [
        {
          "internalType": "address[]",
          "name": "",
          "type": "address[]"
        }
      ],
      "payable": false,
      "stateMutability": "pure",
      "type": "function"
    },
    {
      "constant": true,
      "inputs": [],
      "name": "proofType",
      "outputs": [
        {
          "internalType": "uint8",
          "name": "",
          "type": "uint8"
        }
      ],
      "payable": false,
      "stateMutability": "pure",
      "type": "function"
    },
    {
      "constant": true,
      "inputs": [
        {
          "internalType": "bytes",
          "name": "_bytes",
          "type": "bytes"
        }
      ],
      "name": "bytesToAddress",
      "outputs": [
        {
          "internalType": "address",
          "name": "",
          "type": "address"
        }
      ],
      "payable": false,
      "stateMutability": "pure",
      "type": "function"
    },
    {
      "constant": true,
      "inputs": [
        {
          "internalType": "address",
          "name": "account",
          "type": "address"
        }
      ],
      "name": "toString",
      "outputs": [
        {
          "internalType": "string",
          "name": "",
          "type": "string"
        }
      ],
      "payable": false,
      "stateMutability": "pure",
      "type": "function"
    },
    {
      "constant": true,
      "inputs": [
        {
          "internalType": "uint256",
          "name": "value",
          "type": "uint256"
        }
      ],
      "name": "toString",
      "outputs": [
        {
          "internalType": "string",
          "name": "",
          "type": "string"
        }
      ],
      "payable": false,
      "stateMutability": "pure",
      "type": "function"
    },
    {
      "constant": true,
      "inputs": [
        {
          "internalType": "bytes",
          "name": "data",
          "type": "bytes"
        },
        {
          "internalType": "uint16",
          "name": "len",
          "type": "uint16"
        }
      ],
      "name": "toString",
      "outputs": [
        {
          "internalType": "string",
          "name": "",
          "type": "string"
        }
      ],
      "payable": false,
      "stateMutability": "pure",
      "type": "function"
    },
    {
      "constant": true,
      "inputs": [
        {
          "internalType": "bytes32",
          "name": "value",
          "type": "bytes32"
        }
      ],
      "name": "toString",
      "outputs": [
        {
          "internalType": "string",
          "name": "",
          "type": "string"
        }
      ],
      "payable": false,
      "stateMutability": "pure",
      "type": "function"
    },
    {
      "constant": true,
      "inputs": [
        {
          "internalType": "bytes32",
          "name": "_bytes32",
          "type": "bytes32"
        }
      ],
      "name": "bytes32ToBytes",
      "outputs": [
        {
          "internalType": "bytes",
          "name": "",
          "type": "bytes"
        }
      ],
      "payable": false,
      "stateMutability": "pure",
      "type": "function"
    },
    {
      "constant": true,
      "inputs": [
        {
          "internalType": "bytes",
          "name": "b",
          "type": "bytes"
        }
      ],
      "name": "bytesToBytes32",
      "outputs": [
        {
          "internalType": "bytes32",
          "name": "bts",
          "type": "bytes32"
        }
      ],
      "payable": false,
      "stateMutability": "pure",
      "type": "function"
    },
    {
      "constant": true,
      "inputs": [
        {
          "internalType": "bytes32",
          "name": "_bytes32",
          "type": "bytes32"
        }
      ],
      "name": "bytes32ToString",
      "outputs": [
        {
          "internalType": "string",
          "name": "",
          "type": "string"
        }
      ],
      "payable": false,
      "stateMutability": "pure",
      "type": "function"
    },
    {
      "constant": true,
      "inputs": [
        {
          "internalType": "bytes32[]",
          "name": "data",
          "type": "bytes32[]"
        }
      ],
      "name": "bytes32ArrayToString",
      "outputs": [
        {
          "internalType": "string",
          "name": "",
          "type": "string"
        }
      ],
      "payable": false,
      "stateMutability": "pure",
      "type": "function"
    },
    {
      "constant": true,
      "inputs": [
        {
          "internalType": "string",
          "name": "source",
          "type": "string"
        }
      ],
      "name": "stringToBytes32Array",
      "outputs": [
        {
          "internalType": "bytes32[]",
          "name": "result",
          "type": "bytes32[]"
        }
      ],
      "payable": false,
      "stateMutability": "pure",
      "type": "function"
    },
    {
      "constant": true,
      "inputs": [
        {
          "internalType": "bytes",
          "name": "data",
          "type": "bytes"
        }
      ],
      "name": "bytesSplit32",
      "outputs": [
        {
          "internalType": "bytes32",
          "name": "",
          "type": "bytes32"
        },
        {
          "internalType": "bytes",
          "name": "",
          "type": "bytes"
        }
      ],
      "payable": false,
      "stateMutability": "pure",
      "type": "function"
    },
    {
      "constant": false,
      "inputs": [
        {
          "internalType": "bytes4",
          "name": "fnNameHash",
          "type": "bytes4"
        },
        {
          "internalType": "string",
          "name": "poll",
          "type": "string"
        },
        {
          "internalType": "uint256",
          "name": "valid",
          "type": "uint256"
        },
        {
          "internalType": "uint8",
          "name": "vt",
          "type": "uint8"
        }
      ],
      "name": "crossContractCall",
      "outputs": [
        {
          "internalType": "bytes32[]",
          "name": "",
          "type": "bytes32[]"
        }
      ],
      "payable": false,
      "stateMutability": "nonpayable",
      "type": "function"
    }
  ],
  "bytecode": "0x6080604052739d26a8a5db7dc10689692caf8d52c912958409cf600a60006101000a81548173ffffffffffffffffffffffffffffffffffffffff021916908373ffffffffffffffffffffffffffffffffffffffff16021790555034801561006557600080fd5b50615ce280620000766000396000f3fe6080604052600436106102e45760003560e01c80636026ad9c116101905780639cbc87a3116100dc578063bfe370d911610095578063d76db9d61161006f578063d76db9d614610cb9578063e40a42ab14610ce2578063e68043df14610d1f578063f4602b2e14610d48576102e4565b8063bfe370d914610c16578063cd2eddfb14610c53578063d6a7736914610c90576102e4565b80639cbc87a314610abc578063a053795c14610af9578063a1bac85f14610b36578063a2dd3d4714610b73578063a5c9168f14610bb0578063b11a19e814610bd9576102e4565b80637c34d108116101495780638fee464b116101235780638fee464b146109f05780639165204314610a195780639201de5514610a565780639478485e14610a93576102e4565b80637c34d108146109395780638a9392c0146109765780638e3dca0b146109b3576102e4565b80636026ad9c1461082d57806363039be8146108565780636622f2cf146108815780636900a3ae146108aa5780637514d750146108e75780637682484d14610910576102e4565b80633e10510b1161024f578063507ad4db1161020857806358666c04116101e257806358666c04146107615780635a31204c1461078a5780635bdf0b5f146107c75780635d8636c014610804576102e4565b8063507ad4db146106aa57806356024939146106e757806356ca623e14610724576102e4565b80633e10510b1461054a578063405a6adb1461058757806342526e4e146105b05780634665ecb4146105ed5780634a0f2fd71461062a5780634c0999c71461066d576102e4565b806310a688e3116102a157806310a688e31461040e57806313311a1c146104515780631b3ed7221461048e57806323e51210146104ba57806326a9cdf7146104e35780632742bea814610521576102e4565b806302f3e676146102ee57806305af5d3514610317578063062ffb071461034257806309421c251461036b5780630dd990c7146103945780630f58bb42146103d1575b6102ec610d71565b005b3480156102fa57600080fd5b5061031560048036036103109190810190614883565b610dbe565b005b34801561032357600080fd5b5061032c610e4c565b60405161033991906157a6565b60405180910390f35b34801561034e57600080fd5b506103696004803603610364919081019061492a565b610e55565b005b34801561037757600080fd5b50610392600480360361038d9190810190614659565b610f87565b005b3480156103a057600080fd5b506103bb60048036036103b6919081019061444f565b610f96565b6040516103c89190615520565b60405180910390f35b3480156103dd57600080fd5b506103f860048036036103f3919081019061444f565b61115b565b6040516104059190615564565b60405180910390f35b34801561041a57600080fd5b506104356004803603610430919081019061444f565b611193565b6040516104489796959493929190615488565b60405180910390f35b34801561045d57600080fd5b50610478600480360361047391908101906143b6565b61129a565b60405161048591906154fe565b60405180910390f35b34801561049a57600080fd5b506104a3611403565b6040516104b192919061577d565b60405180910390f35b3480156104c657600080fd5b506104e160048036036104dc9190810190614490565b611418565b005b3480156104ef57600080fd5b5061050a600480360361050591908101906142dc565b61141c565b60405161051892919061559a565b60405180910390f35b34801561052d57600080fd5b50610548600480360361054391908101906149e9565b6115a7565b005b34801561055657600080fd5b50610571600480360361056c9190810190614798565b611615565b60405161057e9190615542565b60405180910390f35b34801561059357600080fd5b506105ae60048036036105a99190810190614563565b6116ba565b005b3480156105bc57600080fd5b506105d760048036036105d291908101906142dc565b611725565b6040516105e4919061533d565b60405180910390f35b3480156105f957600080fd5b50610614600480360361060f919081019061444f565b61174a565b6040516106219190615746565b60405180910390f35b34801561063657600080fd5b50610651600480360361064c919081019061440e565b6117cc565b6040516106649796959493929190615418565b60405180910390f35b34801561067957600080fd5b50610694600480360361068f91908101906141e4565b61187c565b6040516106a191906155ca565b60405180910390f35b3480156106b657600080fd5b506106d160048036036106cc9190810190614371565b611924565b6040516106de91906154fe565b60405180910390f35b3480156106f357600080fd5b5061070e600480360361070991908101906143b6565b611a8c565b60405161071b91906154fe565b60405180910390f35b34801561073057600080fd5b5061074b60048036036107469190810190614113565b611bf5565b60405161075891906155ec565b60405180910390f35b34801561076d57600080fd5b506107886004803603610783919081019061444f565b611c28565b005b34801561079657600080fd5b506107b160048036036107ac919081019061444f565b611c62565b6040516107be91906154fe565b60405180910390f35b3480156107d357600080fd5b506107ee60048036036107e99190810190614490565b611d78565b6040516107fb9190615762565b60405180910390f35b34801561081057600080fd5b5061082b600480360361082691908101906144e4565b611de4565b005b34801561083957600080fd5b50610854600480360361084f919081019061420d565b611f7e565b005b34801561086257600080fd5b5061086b611faa565b6040516108789190615762565b60405180910390f35b34801561088d57600080fd5b506108a860048036036108a3919081019061444f565b611fb4565b005b3480156108b657600080fd5b506108d160048036036108cc9190810190614a94565b61210f565b6040516108de91906155ec565b60405180910390f35b3480156108f357600080fd5b5061090e6004803603610909919081019061444f565b612142565b005b34801561091c57600080fd5b506109376004803603610932919081019061492a565b6121bc565b005b34801561094557600080fd5b50610960600480360361095b9190810190614490565b6122e1565b60405161096d9190615762565b60405180910390f35b34801561098257600080fd5b5061099d6004803603610998919081019061413c565b61238d565b6040516109aa9190615564565b60405180910390f35b3480156109bf57600080fd5b506109da60048036036109d59190810190614261565b612650565b6040516109e79190615542565b60405180910390f35b3480156109fc57600080fd5b50610a176004803603610a12919081019061444f565b6126cc565b005b348015610a2557600080fd5b50610a406004803603610a3b919081019061444f565b612742565b604051610a4d9190615542565b60405180910390f35b348015610a6257600080fd5b50610a7d6004803603610a7891908101906141e4565b6127a8565b604051610a8a91906155ec565b60405180910390f35b348015610a9f57600080fd5b50610aba6004803603610ab5919081019061492a565b6127bf565b005b348015610ac857600080fd5b50610ae36004803603610ade91908101906141a3565b61290c565b604051610af091906155ec565b60405180910390f35b348015610b0557600080fd5b50610b206004803603610b1b9190810190614804565b612acf565b604051610b2d9190615542565b60405180910390f35b348015610b4257600080fd5b50610b5d6004803603610b58919081019061431d565b612c13565b604051610b6a91906155ec565b60405180910390f35b348015610b7f57600080fd5b50610b9a6004803603610b9591908101906141e4565b612e90565b604051610ba79190615542565b60405180910390f35b348015610bbc57600080fd5b50610bd76004803603610bd291908101906146c5565b612efb565b005b348015610be557600080fd5b50610c006004803603610bfb91908101906141e4565b6130db565b604051610c0d91906155ec565b60405180910390f35b348015610c2257600080fd5b50610c3d6004803603610c3891908101906142dc565b61310e565b604051610c4a919061557f565b60405180910390f35b348015610c5f57600080fd5b50610c7a6004803603610c759190810190614804565b613121565b604051610c879190615542565b60405180910390f35b348015610c9c57600080fd5b50610cb76004803603610cb2919081019061492a565b613261565b005b348015610cc557600080fd5b50610ce06004803603610cdb9190810190614744565b6133aa565b005b348015610cee57600080fd5b50610d096004803603610d049190810190614490565b613829565b604051610d169190615762565b60405180910390f35b348015610d2b57600080fd5b50610d466004803603610d41919081019061444f565b613895565b005b348015610d5457600080fd5b50610d6f6004803603610d6a91908101906145ca565b6138d2565b005b60606000368080601f016020809104026020016040519081016040528093929190818152602001838380828437600081840152601f19601f82011690508083019250505050505050905050565b600085610dca86613c28565b84604051602001610ddd939291906152e9565b604051602081830303815290604052805190602001209050600260008281526020019081526020016000208260601b6bffffffffffffffffffffffff19169080600181540180825580915050906001820390600052602060002001600090919290919091505550505050505050565b60006001905090565b60008073ffffffffffffffffffffffffffffffffffffffff168473ffffffffffffffffffffffffffffffffffffffff161415610ec55785610e9586613c28565b84604051602001610ea8939291906152e9565b604051602081830303815290604052805190602001209050610f00565b85610ecf86613c28565b8560601b85604051602001610ee7949392919061529f565b6040516020818303038152906040528051906020012090505b60608251604051908082528060200260200182016040528015610f325781602001602082028038833980820191505090505b50905060008090505b83518161ffff161015610f55578080600101915050610f3b565b5080600260008481526020019081526020016000209080519060200190610f7d929190613d54565b5050505050505050565b610f92823383611de4565b5050565b606080610fa283611c62565b905060608151604051908082528060200260200182016040528015610fdb57816020015b6060815260200190600190039081610fc65790505b509050606060008090505b83518161ffff16101561114f5761104a866040518060400160405280600f81526020017f73657269616c69736550726f6f66730000000000000000000000000000000000815250868461ffff168151811061103d57fe5b6020026020010151612acf565b9150815160405190808252806020026020018201604052801561107c5781602001602082028038833980820191505090505b50838261ffff168151811061108d57fe5b602002602001018190525060008090505b82518161ffff161015611141576110d36110ce848461ffff16815181106110c157fe5b602002602001015161187c565b611725565b848361ffff16815181106110e357fe5b60200260200101518261ffff16815181106110fa57fe5b602002602001019073ffffffffffffffffffffffffffffffffffffffff16908173ffffffffffffffffffffffffffffffffffffffff1681525050808060010191505061109e565b508080600101915050610fe6565b50819350505050919050565b600060038260405161116d919061523e565b908152602001604051809103902060070160009054906101000a900460ff169050919050565b60008060008060008060606003886040516111ae919061523e565b908152602001604051809103902060000160009054906101000a900473ffffffffffffffffffffffffffffffffffffffff1696506003886040516111f2919061523e565b9081526020016040518091039020600201549550600388604051611216919061523e565b908152602001604051809103902060040160009054906101000a900460ff169450600388604051611247919061523e565b908152602001604051809103902060070160009054906101000a900460ff1691506501728eee956093506501728ef01c009250868686868686869650965096509650965096509650919395979092949650565b60608060046040519080825280602002602001820160405280156112cd5781602001602082028038833980820191505090505b5090506000600560006005839350829250819150809050846000815181106112f157fe5b602002602001018560018151811061130557fe5b602002602001018660028151811061131957fe5b602002602001018760038151811061132d57fe5b602002602001018473ffffffffffffffffffffffffffffffffffffffff1673ffffffffffffffffffffffffffffffffffffffff168152508473ffffffffffffffffffffffffffffffffffffffff1673ffffffffffffffffffffffffffffffffffffffff168152508473ffffffffffffffffffffffffffffffffffffffff1673ffffffffffffffffffffffffffffffffffffffff168152508473ffffffffffffffffffffffffffffffffffffffff1673ffffffffffffffffffffffffffffffffffffffff1681525050505050809150509392505050565b60008060056004819150809050915091509091565b5050565b6000606060006020905060008090508160ff1685511115611441578160ff1685510390505b600060608360ff166040519080825280601f01601f19166020018201604052801561147b5781602001600182028038833980820191505090505b5090506060836040519080825280601f01601f1916602001820160405280156114b35781602001600182028038833980820191505090505b50905060008090505b6001895103811161158e578560ff16811015611529578881815181106114de57fe5b602001015160f81c60f81b8382815181106114f557fe5b60200101907effffffffffffffffffffffffffffffffffffffffffffffffffffffffffffff1916908160001a905350611581565b88818151811061153557fe5b602001015160f81c60f81b828760ff1683038151811061155157fe5b60200101907effffffffffffffffffffffffffffffffffffffffffffffffffffffffffffff1916908160001a9053505b80806001019150506114bc565b506115988261310e565b81965096505050505050915091565b6000846115b385613c28565b846040516020016115c6939291906152e9565b6040516020818303038152906040528051906020012090506115e782612742565b60026000838152602001908152602001600020908051906020019061160d929190613d54565b505050505050565b606060008361162384613c28565b6001604051602001611637939291906152e9565b604051602081830303815290604052805190602001209050600260008281526020019081526020016000208054806020026020016040519081016040528092919081815260200182805480156116ac57602002820191906000526020600020905b815481526020019060010190808311611698575b505050505091505092915050565b806003846040516116cb919061523e565b908152602001604051809103902060080160008473ffffffffffffffffffffffffffffffffffffffff1673ffffffffffffffffffffffffffffffffffffffff16815260200190815260200160002060000181905550505050565b6000806c01000000000000000000000000600060208501015104905080915050919050565b611752613da1565b6103e8816020018181525050619c40816040018181525050619c408160600181815250506003816080019060ff16908160ff168152505060038160a0019060ff16908160ff16815250506501728eee95608160c0015160000181815250506501728ef01c008160c001516020018181525050809050919050565b6003818051602081018201805184825260208301602085012081835280955050505050506000915090508060000160009054906101000a900473ffffffffffffffffffffffffffffffffffffffff16908060010154908060020154908060030154908060040160009054906101000a900460ff16908060050160405180604001604052908160008201548152602001600182015481525050908060070160009054906101000a900460ff16905087565b60608060206040519080825280601f01601f1916602001820160405280156118b35781602001600182028038833980820191505090505b50905060005b602081101561191a578381602081106118ce57fe5b1a60f81b8282815181106118de57fe5b60200101907effffffffffffffffffffffffffffffffffffffffffffffffffffffffffffff1916908160001a90535080806001019150506118b9565b5080915050919050565b60608060046040519080825280602002602001820160405280156119575781602001602082028038833980820191505090505b50905060056000600560008393508292508191508090508460008151811061197b57fe5b602002602001018560018151811061198f57fe5b60200260200101866002815181106119a357fe5b60200260200101876003815181106119b757fe5b602002602001018473ffffffffffffffffffffffffffffffffffffffff1673ffffffffffffffffffffffffffffffffffffffff168152508473ffffffffffffffffffffffffffffffffffffffff1673ffffffffffffffffffffffffffffffffffffffff168152508473ffffffffffffffffffffffffffffffffffffffff1673ffffffffffffffffffffffffffffffffffffffff168152508473ffffffffffffffffffffffffffffffffffffffff1673ffffffffffffffffffffffffffffffffffffffff16815250505050508091505092915050565b6060806004604051908082528060200260200182016040528015611abf5781602001602082028038833980820191505090505b509050600560006005600083935082925081915080905084600081518110611ae357fe5b6020026020010185600181518110611af757fe5b6020026020010186600281518110611b0b57fe5b6020026020010187600381518110611b1f57fe5b602002602001018473ffffffffffffffffffffffffffffffffffffffff1673ffffffffffffffffffffffffffffffffffffffff168152508473ffffffffffffffffffffffffffffffffffffffff1673ffffffffffffffffffffffffffffffffffffffff168152508473ffffffffffffffffffffffffffffffffffffffff1673ffffffffffffffffffffffffffffffffffffffff168152508473ffffffffffffffffffffffffffffffffffffffff1673ffffffffffffffffffffffffffffffffffffffff1681525050505050809150509392505050565b6060611c2182604051602001611c0b9190615208565b6040516020818303038152906040526005612c13565b9050919050565b7fbef39ac07ea6b8a7a08590612f317b1db2e9821fea4739345478345d853321e781604051611c5791906155ec565b60405180910390a150565b606080611ca4836040518060400160405280601081526020017f73657269616c6973655374616b65727300000000000000000000000000000000815250611615565b905060608151604051908082528060200260200182016040528015611cd85781602001602082028038833980820191505090505b50905060008090505b82518161ffff161015611d6d57611d16611d11848361ffff1681518110611d0457fe5b602002602001015161187c565b611725565b828261ffff1681518110611d2657fe5b602002602001019073ffffffffffffffffffffffffffffffffffffffff16908173ffffffffffffffffffffffffffffffffffffffff16815250508080600101915050611ce1565b508092505050919050565b6000600383604051611d8a919061523e565b908152602001604051809103902060080160008373ffffffffffffffffffffffffffffffffffffffff1673ffffffffffffffffffffffffffffffffffffffff16815260200190815260200160002060000154905092915050565b600082905060608251604051908082528060200260200182016040528015611e1b5781602001602082028038833980820191505090505b509050600085611e5f6040518060400160405280600f81526020017f73657269616c69736550726f6f66730000000000000000000000000000000000815250613c28565b8660601b6001604051602001611e78949392919061529f565b60405160208183030381529060405280519060200120905060008090505b84518161ffff161015611ef657848161ffff1681518110611eb357fe5b602002602001015160601b6bffffffffffffffffffffffff1916838261ffff1681518110611edd57fe5b6020026020010181815250508080600101915050611e96565b50600060026000838152602001908152602001600020805490501115611f4e577fd0adafca5f88ebee186251179caad6d29ee5ad555a79bfe4d8a00e3a87988a2b83604051611f45919061533d565b60405180910390a15b81600260008381526020019081526020016000209080519060200190611f75929190613d54565b50505050505050565b80600260008481526020019081526020016000209080519060200190611fa5929190613d54565b505050565b6000610bb8905090565b806060611fc082611c62565b9050600080600090505b825181101561202c573373ffffffffffffffffffffffffffffffffffffffff16838281518110611ff657fe5b602002602001015173ffffffffffffffffffffffffffffffffffffffff16141561201f57600191505b8080600101915050611fca565b508061206d576040517f08c379a0000000000000000000000000000000000000000000000000000000008152600401612064906156c6565b60405180910390fd5b606061207885611c62565b905060006120b18251600388604051612091919061523e565b908152602001604051809103902060020154613c3990919063ffffffff16565b905060006003876040516120c5919061523e565b9081526020016040518091039020600201546003886040516120e7919061523e565b9081526020016040518091039020600301540390506121068733611418565b50505050505050565b606061213b826040516020016121259190615322565b6040516020818303038152906040526000612c13565b9050919050565b6001600382604051612154919061523e565b90815260200160405180910390206001018190555061afc860038260405161217c919061523e565b908152602001604051809103902060020181905550612bf26003826040516121a4919061523e565b90815260200160405180910390206003018190555050565b6000856121c886613c28565b85856040516020016121dd9493929190615255565b6040516020818303038152906040528051906020012090507fee5443e0769176cacb5e7cebe33b561327ef2a06863e7fa72ec9be7cc2d82b608661222087613c28565b86866040516020016122359493929190615255565b60405160208183030381529060405260405161225191906155ca565b60405180910390a17fa457a29197b7db5513e7fa40d359d53b392afa4785e7b4e899898a92798d484981604051612288919061557f565b60405180910390a17fd2fc72c97aeb0e8367f33ed670eff5bed73dab77cab530bd44311a95ae547398868686866122c08b8b8b612acf565b6040516122d195949392919061563e565b60405180910390a1505050505050565b60006003836040516122f3919061523e565b908152602001604051809103902060080160008373ffffffffffffffffffffffffffffffffffffffff1673ffffffffffffffffffffffffffffffffffffffff16815260200190815260200160002060030160008373ffffffffffffffffffffffffffffffffffffffff1673ffffffffffffffffffffffffffffffffffffffff16815260200190815260200160002054905080905092915050565b6000606061239a84611c62565b905060606123a785610f96565b905060008060008060019050600093505b85518461ffff16101561255857600091503373ffffffffffffffffffffffffffffffffffffffff16868561ffff16815181106123f057fe5b602002602001015173ffffffffffffffffffffffffffffffffffffffff161415612418578392505b60008090505b858561ffff168151811061242e57fe5b60200260200101515181101561254a573373ffffffffffffffffffffffffffffffffffffffff16868661ffff168151811061246557fe5b6020026020010151828151811061247857fe5b602002602001015173ffffffffffffffffffffffffffffffffffffffff1614156124a157600192505b60096000878761ffff16815181106124b557fe5b602002602001015183815181106124c857fe5b602002602001015173ffffffffffffffffffffffffffffffffffffffff1673ffffffffffffffffffffffffffffffffffffffff168152602001908152602001600020600081819054906101000a900461ffff168092919060010191906101000a81548161ffff021916908361ffff16021790555050808060010191505061241e565b5083806001019450506123b8565b8060ff16600960003373ffffffffffffffffffffffffffffffffffffffff1673ffffffffffffffffffffffffffffffffffffffff16815260200190815260200160002060009054906101000a900461ffff1661ffff161015801561262e57506002600960003373ffffffffffffffffffffffffffffffffffffffff1673ffffffffffffffffffffffffffffffffffffffff16815260200190815260200160002060009054906101000a900461ffff1661ffff16868661ffff168151811061261b57fe5b6020026020010151518161262b57fe5b04105b156126425760019650505050505050612649565b5050505050505b9392505050565b60606000600a60009054906101000a900473ffffffffffffffffffffffffffffffffffffffff1690507f1ff50e4650f7f1e5b26a5f5e921b803deee4a95a1b6ef46e05992b3bc1dcdb8c60405160405180910390a160405136600082376000803683855af43d806000843e81600081146126c8578184f35b8184fd5b60016003826040516126de919061523e565b908152602001604051809103902060070160006101000a81548160ff0219169083151502179055507fc2b1ad619f75c5b190b6f26a4b118a5ec58ad98a0a76cef82a67099f76c03336813360405161273792919061560e565b60405180910390a150565b606060006001905060008090505b8161ffff168161ffff161161279e576000600182016020029050600081860151905080858461ffff168151811061278357fe5b60200260200101818152505050508080600101915050612750565b5081915050919050565b6060806127b48361187c565b905080915050919050565b6000856127cb86613c28565b85856040516020016127e09493929190615255565b6040516020818303038152906040528051906020012090507fee5443e0769176cacb5e7cebe33b561327ef2a06863e7fa72ec9be7cc2d82b608661282387613c28565b86866040516020016128389493929190615255565b60405160208183030381529060405260405161285491906155ca565b60405180910390a17fa457a29197b7db5513e7fa40d359d53b392afa4785e7b4e899898a92798d48498160405161288b919061557f565b60405180910390a1816002600083815260200190815260200160002090805190602001906128ba929190613d54565b507fd2fc72c97aeb0e8367f33ed670eff5bed73dab77cab530bd44311a95ae547398868686866128eb8b8b8b612acf565b6040516128fc95949392919061563e565b60405180910390a1505050505050565b60608060208351026040519080825280601f01601f1916602001820160405280156129465781602001600182028038833980820191505090505b50905060008060009050600090505b8451811015612a1f5760008090505b6020811015612a115760008160080260020a87848151811061298257fe5b602002602001015160001c0260001b9050600060f81b817effffffffffffffffffffffffffffffffffffffffffffffffffffffffffffff191614612a0357808585815181106129cd57fe5b60200101907effffffffffffffffffffffffffffffffffffffffffffffffffffffffffffff1916908160001a9053506001840193505b508080600101915050612964565b508080600101915050612955565b6060826040519080825280601f01601f191660200182016040528015612a545781602001600182028038833980820191505090505b509050600091505b82821015612ac357838281518110612a7057fe5b602001015160f81c60f81b818381518110612a8757fe5b60200101907effffffffffffffffffffffffffffffffffffffffffffffffffffffffffffff1916908160001a9053508180600101925050612a5c565b80945050505050919050565b6060600084612add85613c28565b846001604051602001612af39493929190615255565b6040516020818303038152906040528051906020012090507fee5443e0769176cacb5e7cebe33b561327ef2a06863e7fa72ec9be7cc2d82b6085612b3686613c28565b856001604051602001612b4c9493929190615255565b604051602081830303815290604052604051612b6891906155ca565b60405180910390a17fa457a29197b7db5513e7fa40d359d53b392afa4785e7b4e899898a92798d484981604051612b9f919061557f565b60405180910390a160026000828152602001908152602001600020805480602002602001604051908101604052809291908181526020018280548015612c0457602002820191906000526020600020905b815481526020019060010190808311612bf0575b50505050509150509392505050565b6060806040518060400160405280601081526020017f3031323334353637383961626364656600000000000000000000000000000000815250905060006014905060606002820260020161ffff166040519080825280601f01601f191660200182016040528015612c935781602001600182028038833980820191505090505b5090507f300000000000000000000000000000000000000000000000000000000000000081600081518110612cc457fe5b60200101907effffffffffffffffffffffffffffffffffffffffffffffffffffffffffffff1916908160001a9053507f780000000000000000000000000000000000000000000000000000000000000081600181518110612d2157fe5b60200101907effffffffffffffffffffffffffffffffffffffffffffffffffffffffffffff1916908160001a90535060008090505b8261ffff16811015612e8357836004888381518110612d7157fe5b602001015160f81c60f81b7effffffffffffffffffffffffffffffffffffffffffffffffffffffffffffff1916901c60f81c60ff1681518110612db057fe5b602001015160f81c60f81b826002830260020181518110612dcd57fe5b60200101907effffffffffffffffffffffffffffffffffffffffffffffffffffffffffffff1916908160001a90535083600f60f81b888381518110612e0e57fe5b602001015160f81c60f81b1660f81c60ff1681518110612e2a57fe5b602001015160f81c60f81b826002830260030181518110612e4757fe5b60200101907effffffffffffffffffffffffffffffffffffffffffffffffffffffffffffff1916908160001a9053508080600101915050612d56565b5080935050505092915050565b606060026000838152602001908152602001600020805480602002602001604051908101604052809291908181526020018280548015612eef57602002820191906000526020600020905b815481526020019060010190808311612edb575b50505050509050919050565b60008190506000600385604051612f12919061523e565b908152602001604051809103902060090160008373ffffffffffffffffffffffffffffffffffffffff1673ffffffffffffffffffffffffffffffffffffffff16815260200190815260200160002060009054906101000a900461ffff1690506000809050600060608651604051908082528060200260200182016040528015612faa5781602001602082028038833980820191505090505b509050600091505b86518261ffff16101561301257868261ffff1681518110612fcf57fe5b602002602001015160601b6bffffffffffffffffffffffff1916818361ffff1681518110612ff957fe5b6020026020010181815250508180600101925050612fb2565b613055886040518060400160405280600f81526020017f73657269616c69736550726f6f6673000000000000000000000000000000000081525087600185610e55565b60018401600389604051613069919061523e565b908152602001604051809103902060090160008773ffffffffffffffffffffffffffffffffffffffff1673ffffffffffffffffffffffffffffffffffffffff16815260200190815260200160002060006101000a81548161ffff021916908361ffff1602179055505050505050505050565b6060613107826040516020016130f19190615223565b6040516020818303038152906040526000612c13565b9050919050565b6000806020830151905080915050919050565b606060008461312f85613c28565b6001604051602001613143939291906152e9565b6040516020818303038152906040528051906020012090507fee5443e0769176cacb5e7cebe33b561327ef2a06863e7fa72ec9be7cc2d82b608561318686613c28565b600160405160200161319a939291906152e9565b6040516020818303038152906040526040516131b691906155ca565b60405180910390a17fa457a29197b7db5513e7fa40d359d53b392afa4785e7b4e899898a92798d4849816040516131ed919061557f565b60405180910390a16002600082815260200190815260200160002080548060200260200160405190810160405280929190818152602001828054801561325257602002820191906000526020600020905b81548152602001906001019080831161323e575b50505050509150509392505050565b60008561326d86613c28565b84604051602001613280939291906152e9565b6040516020818303038152906040528051906020012090507fee5443e0769176cacb5e7cebe33b561327ef2a06863e7fa72ec9be7cc2d82b60866132c387613c28565b856040516020016132d6939291906152e9565b6040516020818303038152906040526040516132f291906155ca565b60405180910390a17fa457a29197b7db5513e7fa40d359d53b392afa4785e7b4e899898a92798d484981604051613329919061557f565b60405180910390a181600260008381526020019081526020016000209080519060200190613358929190613d54565b507fd2fc72c97aeb0e8367f33ed670eff5bed73dab77cab530bd44311a95ae547398868686866133898b8b8b613121565b60405161339a95949392919061563e565b60405180910390a1505050505050565b60006003836040516133bc919061523e565b908152602001604051809103902060080160003373ffffffffffffffffffffffffffffffffffffffff1673ffffffffffffffffffffffffffffffffffffffff168152602001908152602001600020600001541161344e576040517f08c379a0000000000000000000000000000000000000000000000000000000008152600401613445906156e6565b60405180910390fd5b6000600383604051613460919061523e565b908152602001604051809103902060090160003373ffffffffffffffffffffffffffffffffffffffff1673ffffffffffffffffffffffffffffffffffffffff16815260200190815260200160002060009054906101000a900461ffff1661ffff1611613501576040517f08c379a00000000000000000000000000000000000000000000000000000000081526004016134f8906156a6565b60405180910390fd5b61350d6000838361238d565b613583577ff79d39278918f1a3dc8522bfdea96d506ed15dd2cc97156b182f5c8895ab7b71336040516135409190615358565b60405180910390a16040517f08c379a000000000000000000000000000000000000000000000000000000000815260040161357a90615726565b60405180910390fd5b60008061358e611403565b915091506000816136096003876040516135a8919061523e565b908152602001604051809103902060080160003373ffffffffffffffffffffffffffffffffffffffff1673ffffffffffffffffffffffffffffffffffffffff1681526020019081526020016000206000015485613c8390919063ffffffff16565b8161361057fe5b04905061361b611faa565b81600160003373ffffffffffffffffffffffffffffffffffffffff1673ffffffffffffffffffffffffffffffffffffffff168152602001908152602001600020540111156136c857600385604051613673919061523e565b908152602001604051809103902060080160003373ffffffffffffffffffffffffffffffffffffffff1673ffffffffffffffffffffffffffffffffffffffff1681526020019081526020016000206000015490505b60006003866040516136da919061523e565b908152602001604051809103902060080160003373ffffffffffffffffffffffffffffffffffffffff1673ffffffffffffffffffffffffffffffffffffffff1681526020019081526020016000206000018190555080600160003373ffffffffffffffffffffffffffffffffffffffff1673ffffffffffffffffffffffffffffffffffffffff168152602001908152602001600020600082825401925050819055507f391dd8dd49c61a65c7ebe8745ea4c81bc4d5a6dd59d8bda3ba1f9a9114bf64eb336003876040516137ae919061523e565b908152602001604051809103902060080160003373ffffffffffffffffffffffffffffffffffffffff1673ffffffffffffffffffffffffffffffffffffffff168152602001908152602001600020600001548360405161381093929190615373565b60405180910390a16138228533611418565b5050505050565b600060038360405161383b919061523e565b908152602001604051809103902060080160008373ffffffffffffffffffffffffffffffffffffffff1673ffffffffffffffffffffffffffffffffffffffff16815260200190815260200160002060000154905092915050565b60006003826040516138a7919061523e565b908152602001604051809103902060070160006101000a81548160ff02191690831515021790555050565b60008490506000831115613a315760006003876040516138f2919061523e565b908152602001604051809103902060080160008373ffffffffffffffffffffffffffffffffffffffff1673ffffffffffffffffffffffffffffffffffffffff16815260200190815260200160002060030160008473ffffffffffffffffffffffffffffffffffffffff1673ffffffffffffffffffffffffffffffffffffffff16815260200190815260200160002054905083600388604051613994919061523e565b908152602001604051809103902060080160008473ffffffffffffffffffffffffffffffffffffffff1673ffffffffffffffffffffffffffffffffffffffff16815260200190815260200160002060030160008573ffffffffffffffffffffffffffffffffffffffff1673ffffffffffffffffffffffffffffffffffffffff16815260200190815260200160002060008282540192505081905550505b6000841115613c2057600386604051613a4a919061523e565b908152602001604051809103902060010154841015613aa1577fbdaeb13301d6416e47b70f09ade9e4ae93d6bd468d3833197ea44af2e955f0fe8187604051613a949291906153aa565b60405180910390a1613c1f565b83600160008373ffffffffffffffffffffffffffffffffffffffff1673ffffffffffffffffffffffffffffffffffffffff168152602001908152602001600020541015613b26577f5b8a56dcf3c46c1155547d5fcd97b1a751382df7f906feb9d53f5cd53271308f8187604051613b199291906153aa565b60405180910390a1613c1e565b83600160008373ffffffffffffffffffffffffffffffffffffffff1673ffffffffffffffffffffffffffffffffffffffff1681526020019081526020016000206000828254039250508190555083600387604051613b84919061523e565b908152602001604051809103902060080160008373ffffffffffffffffffffffffffffffffffffffff1673ffffffffffffffffffffffffffffffffffffffff168152602001908152602001600020600001600082825401925050819055507f9435991b430d6fe3d331f4a4e60ab537af0083a1880199a6838e4c92a2cbe4fb818786604051613c15939291906153da565b60405180910390a15b5b5b505050505050565b600081805190602001209050919050565b6000613c7b83836040518060400160405280601a81526020017f536166654d6174683a206469766973696f6e206279207a65726f000000000000815250613cf3565b905092915050565b600080831415613c965760009050613ced565b6000828402905082848281613ca757fe5b0414613ce8576040517f08c379a0000000000000000000000000000000000000000000000000000000008152600401613cdf90615706565b60405180910390fd5b809150505b92915050565b60008083118290613d3a576040517f08c379a0000000000000000000000000000000000000000000000000000000008152600401613d3191906155ec565b60405180910390fd5b506000838581613d4657fe5b049050809150509392505050565b828054828255906000526020600020908101928215613d90579160200282015b82811115613d8f578251825591602001919060010190613d74565b5b509050613d9d9190613e0a565b5090565b604051806101000160405280600073ffffffffffffffffffffffffffffffffffffffff168152602001600081526020016000815260200160008152602001600060ff168152602001600060ff168152602001613dfb613e2f565b81526020016000151581525090565b613e2c91905b80821115613e28576000816000905550600101613e10565b5090565b90565b604051806040016040528060008152602001600081525090565b600081359050613e5881615c15565b92915050565b600082601f830112613e6f57600080fd5b8135613e82613e7d826157ee565b6157c1565b91508181835260208401935060208101905083856020840282011115613ea757600080fd5b60005b83811015613ed75781613ebd8882613e49565b845260208401935060208301925050600181019050613eaa565b5050505092915050565b600082601f830112613ef257600080fd5b8135613f05613f0082615816565b6157c1565b91508181835260208401935060208101905083856020840282011115613f2a57600080fd5b60005b83811015613f5a5781613f408882613f64565b845260208401935060208301925050600181019050613f2d565b5050505092915050565b600081359050613f7381615c2c565b92915050565b600081359050613f8881615c43565b92915050565b600082601f830112613f9f57600080fd5b8135613fb2613fad8261583e565b6157c1565b91508082526020830160208301858383011115613fce57600080fd5b613fd9838284615b4a565b50505092915050565b60008083601f840112613ff457600080fd5b8235905067ffffffffffffffff81111561400d57600080fd5b60208301915083600182028301111561402557600080fd5b9250929050565b600082601f83011261403d57600080fd5b813561405061404b8261586a565b6157c1565b9150808252602083016020830185838301111561406c57600080fd5b614077838284615b4a565b50505092915050565b600082601f83011261409157600080fd5b81356140a461409f82615896565b6157c1565b915080825260208301602083018583830111156140c057600080fd5b6140cb838284615b4a565b50505092915050565b6000813590506140e381615c5a565b92915050565b6000813590506140f881615c71565b92915050565b60008135905061410d81615c88565b92915050565b60006020828403121561412557600080fd5b600061413384828501613e49565b91505092915050565b60008060006060848603121561415157600080fd5b600061415f86828701613e49565b935050602084013567ffffffffffffffff81111561417c57600080fd5b61418886828701614080565b925050604061419986828701613f64565b9150509250925092565b6000602082840312156141b557600080fd5b600082013567ffffffffffffffff8111156141cf57600080fd5b6141db84828501613ee1565b91505092915050565b6000602082840312156141f657600080fd5b600061420484828501613f64565b91505092915050565b6000806040838503121561422057600080fd5b600061422e85828601613f64565b925050602083013567ffffffffffffffff81111561424b57600080fd5b61425785828601613ee1565b9150509250929050565b6000806000806080858703121561427757600080fd5b600061428587828801613f79565b945050602085013567ffffffffffffffff8111156142a257600080fd5b6142ae87828801614080565b93505060406142bf878288016140e9565b92505060606142d0878288016140fe565b91505092959194509250565b6000602082840312156142ee57600080fd5b600082013567ffffffffffffffff81111561430857600080fd5b61431484828501613f8e565b91505092915050565b6000806040838503121561433057600080fd5b600083013567ffffffffffffffff81111561434a57600080fd5b61435685828601613f8e565b9250506020614367858286016140d4565b9150509250929050565b6000806020838503121561438457600080fd5b600083013567ffffffffffffffff81111561439e57600080fd5b6143aa85828601613fe2565b92509250509250929050565b6000806000604084860312156143cb57600080fd5b600084013567ffffffffffffffff8111156143e557600080fd5b6143f186828701613fe2565b93509350506020614404868287016140fe565b9150509250925092565b60006020828403121561442057600080fd5b600082013567ffffffffffffffff81111561443a57600080fd5b6144468482850161402c565b91505092915050565b60006020828403121561446157600080fd5b600082013567ffffffffffffffff81111561447b57600080fd5b61448784828501614080565b91505092915050565b600080604083850312156144a357600080fd5b600083013567ffffffffffffffff8111156144bd57600080fd5b6144c985828601614080565b92505060206144da85828601613e49565b9150509250929050565b6000806000606084860312156144f957600080fd5b600084013567ffffffffffffffff81111561451357600080fd5b61451f86828701614080565b935050602061453086828701613e49565b925050604084013567ffffffffffffffff81111561454d57600080fd5b61455986828701613e5e565b9150509250925092565b60008060006060848603121561457857600080fd5b600084013567ffffffffffffffff81111561459257600080fd5b61459e86828701614080565b93505060206145af86828701613e49565b92505060406145c0868287016140e9565b9150509250925092565b600080600080600060a086880312156145e257600080fd5b600086013567ffffffffffffffff8111156145fc57600080fd5b61460888828901614080565b955050602061461988828901613e49565b945050604061462a888289016140e9565b935050606061463b888289016140e9565b925050608061464c88828901613e49565b9150509295509295909350565b6000806040838503121561466c57600080fd5b600083013567ffffffffffffffff81111561468657600080fd5b61469285828601614080565b925050602083013567ffffffffffffffff8111156146af57600080fd5b6146bb85828601613e5e565b9150509250929050565b6000806000606084860312156146da57600080fd5b600084013567ffffffffffffffff8111156146f457600080fd5b61470086828701614080565b935050602084013567ffffffffffffffff81111561471d57600080fd5b61472986828701613e5e565b925050604061473a86828701613e49565b9150509250925092565b6000806040838503121561475757600080fd5b600083013567ffffffffffffffff81111561477157600080fd5b61477d85828601614080565b925050602061478e85828601613f64565b9150509250929050565b600080604083850312156147ab57600080fd5b600083013567ffffffffffffffff8111156147c557600080fd5b6147d185828601614080565b925050602083013567ffffffffffffffff8111156147ee57600080fd5b6147fa85828601614080565b9150509250929050565b60008060006060848603121561481957600080fd5b600084013567ffffffffffffffff81111561483357600080fd5b61483f86828701614080565b935050602084013567ffffffffffffffff81111561485c57600080fd5b61486886828701614080565b925050604061487986828701613e49565b9150509250925092565b600080600080600060a0868803121561489b57600080fd5b600086013567ffffffffffffffff8111156148b557600080fd5b6148c188828901614080565b955050602086013567ffffffffffffffff8111156148de57600080fd5b6148ea88828901614080565b94505060406148fb88828901613e49565b935050606061490c888289016140fe565b925050608061491d88828901613e49565b9150509295509295909350565b600080600080600060a0868803121561494257600080fd5b600086013567ffffffffffffffff81111561495c57600080fd5b61496888828901614080565b955050602086013567ffffffffffffffff81111561498557600080fd5b61499188828901614080565b94505060406149a288828901613e49565b93505060606149b3888289016140fe565b925050608086013567ffffffffffffffff8111156149d057600080fd5b6149dc88828901613ee1565b9150509295509295909350565b600080600080608085870312156149ff57600080fd5b600085013567ffffffffffffffff811115614a1957600080fd5b614a2587828801614080565b945050602085013567ffffffffffffffff811115614a4257600080fd5b614a4e87828801614080565b9350506040614a5f878288016140fe565b925050606085013567ffffffffffffffff811115614a7c57600080fd5b614a8887828801614080565b91505092959194509250565b600060208284031215614aa657600080fd5b6000614ab4848285016140e9565b91505092915050565b6000614ac98383614b28565b60208301905092915050565b6000614ae18383614bbb565b905092915050565b6000614af58383614cec565b60a08301905092915050565b6000614b0d8383614dd6565b60208301905092915050565b614b2281615b14565b82525050565b614b3181615a4f565b82525050565b614b4081615a4f565b82525050565b614b57614b5282615a4f565b615b8c565b82525050565b6000614b6882615927565b614b7281856159d3565b9350614b7d836158d2565b8060005b83811015614bae578151614b958882614abd565b9750614ba083615981565b925050600181019050614b81565b5085935050505092915050565b6000614bc68261591c565b614bd081856159c2565b9350614bdb836158c2565b8060005b83811015614c0c578151614bf38882614abd565b9750614bfe83615974565b925050600181019050614bdf565b5085935050505092915050565b6000614c2482615932565b614c2e81856159e4565b935083602082028501614c40856158e2565b8060005b85811015614c7c5784840389528151614c5d8582614ad5565b9450614c688361598e565b925060208a01995050600181019050614c44565b50829750879550505050505092915050565b6000614c998261593d565b614ca381856159f5565b9350614cae836158f2565b8060005b83811015614cdf578151614cc68882614ae9565b9750614cd18361599b565b925050600181019050614cb2565b5085935050505092915050565b614cf581615948565b614cff8184615a06565b9250614d0a82615902565b8060005b83811015614d3b578151614d228782614b01565b9650614d2d836159a8565b925050600181019050614d0e565b505050505050565b6000614d4e82615953565b614d588185615a11565b9350614d638361590c565b8060005b83811015614d94578151614d7b8882614b01565b9750614d86836159b5565b925050600181019050614d67565b5085935050505092915050565b614daa81615a61565b82525050565b614db981615a61565b82525050565b614dd0614dcb82615a6d565b615b9e565b82525050565b614ddf81615a99565b82525050565b614dee81615a99565b82525050565b614e05614e0082615a99565b615ba8565b82525050565b614e1c614e1782615aa3565b615bb2565b82525050565b6000614e2d8261595e565b614e378185615a22565b9350614e47818560208601615b59565b614e5081615bea565b840191505092915050565b6000614e6682615969565b614e708185615a33565b9350614e80818560208601615b59565b614e8981615bea565b840191505092915050565b6000614e9f82615969565b614ea98185615a44565b9350614eb9818560208601615b59565b80840191505092915050565b6000614ed2603a83615a33565b91507f53656e64657220686173206e6f74207375626d697474656420616e206174746560008301527f6e64616e63652070726f6f6620666f72207468697320706f6c6c0000000000006020830152604082019050919050565b6000614f38603483615a33565b91507f46756e6374696f6e206d6179206f6e6c792062652063616c6c6564206279206160008301527f207374616b6572206f6e207468697320706f6c6c0000000000000000000000006020830152604082019050919050565b6000614f9e602783615a33565b91507f53656e64657220686173206e6f7468696e67207374616b656420666f7220746860008301527f697320706f6c6c000000000000000000000000000000000000000000000000006020830152604082019050919050565b6000615004602183615a33565b91507f536166654d6174683a206d756c7469706c69636174696f6e206f766572666c6f60008301527f77000000000000000000000000000000000000000000000000000000000000006020830152604082019050919050565b600061506a600d83615a33565b91507f496e76616c69642070726f6f66000000000000000000000000000000000000006000830152602082019050919050565b610120820160008201516150b46000850182614b28565b5060208201516150c7602085018261519e565b5060408201516150da604085018261519e565b5060608201516150ed606085018261519e565b50608082015161510060808501826151d3565b5060a082015161511360a08501826151d3565b5060c082015161512660c0850182615140565b5060e082015161513a610100850182614da1565b50505050565b604082016000820151615156600085018261519e565b506020820151615169602085018261519e565b50505050565b604082016000820151615185600085018261519e565b506020820151615198602085018261519e565b50505050565b6151a781615afd565b82525050565b6151b681615afd565b82525050565b6151cd6151c882615afd565b615bce565b82525050565b6151dc81615b07565b82525050565b6151eb81615b07565b82525050565b6152026151fd82615b07565b615bd8565b82525050565b60006152148284614b46565b60148201915081905092915050565b600061522f8284614df4565b60208201915081905092915050565b600061524a8284614e94565b915081905092915050565b60006152618287614e94565b915061526d8286614e0b565b60048201915061527d8285614b46565b60148201915061528d82846151f1565b60018201915081905095945050505050565b60006152ab8287614e94565b91506152b78286614e0b565b6004820191506152c78285614dbf565b6014820191506152d782846151f1565b60018201915081905095945050505050565b60006152f58286614e94565b91506153018285614e0b565b60048201915061531182846151f1565b600182019150819050949350505050565b600061532e82846151bc565b60208201915081905092915050565b60006020820190506153526000830184614b37565b92915050565b600060208201905061536d6000830184614b19565b92915050565b60006060820190506153886000830186614b19565b61539560208301856151ad565b6153a260408301846151ad565b949350505050565b60006040820190506153bf6000830185614b37565b81810360208301526153d18184614e5b565b90509392505050565b60006060820190506153ef6000830186614b37565b81810360208301526154018185614e5b565b905061541060408301846151ad565b949350505050565b60006101008201905061542e600083018a614b37565b61543b60208301896151ad565b61544860408301886151ad565b61545560608301876151ad565b61546260808301866151e2565b61546f60a083018561516f565b61547c60e0830184614db0565b98975050505050505050565b600060e08201905061549d600083018a614b37565b6154aa60208301896151ad565b6154b760408301886151e2565b6154c460608301876151ad565b6154d160808301866151ad565b6154de60a0830185614db0565b81810360c08301526154f08184614c8e565b905098975050505050505050565b600060208201905081810360008301526155188184614b5d565b905092915050565b6000602082019050818103600083015261553a8184614c19565b905092915050565b6000602082019050818103600083015261555c8184614d43565b905092915050565b60006020820190506155796000830184614db0565b92915050565b60006020820190506155946000830184614de5565b92915050565b60006040820190506155af6000830185614de5565b81810360208301526155c18184614e22565b90509392505050565b600060208201905081810360008301526155e48184614e22565b905092915050565b600060208201905081810360008301526156068184614e5b565b905092915050565b600060408201905081810360008301526156288185614e5b565b90506156376020830184614b19565b9392505050565b600060a08201905081810360008301526156588188614e5b565b9050818103602083015261566c8187614e5b565b905061567b6040830186614b37565b61568860608301856151e2565b818103608083015261569a8184614d43565b90509695505050505050565b600060208201905081810360008301526156bf81614ec5565b9050919050565b600060208201905081810360008301526156df81614f2b565b9050919050565b600060208201905081810360008301526156ff81614f91565b9050919050565b6000602082019050818103600083015261571f81614ff7565b9050919050565b6000602082019050818103600083015261573f8161505d565b9050919050565b60006101208201905061575c600083018461509d565b92915050565b600060208201905061577760008301846151ad565b92915050565b600060408201905061579260008301856151ad565b61579f60208301846151ad565b9392505050565b60006020820190506157bb60008301846151e2565b92915050565b6000604051905081810181811067ffffffffffffffff821117156157e457600080fd5b8060405250919050565b600067ffffffffffffffff82111561580557600080fd5b602082029050602081019050919050565b600067ffffffffffffffff82111561582d57600080fd5b602082029050602081019050919050565b600067ffffffffffffffff82111561585557600080fd5b601f19601f8301169050602081019050919050565b600067ffffffffffffffff82111561588157600080fd5b601f19601f8301169050602081019050919050565b600067ffffffffffffffff8211156158ad57600080fd5b601f19601f8301169050602081019050919050565b6000819050602082019050919050565b6000819050602082019050919050565b6000819050602082019050919050565b6000819050602082019050919050565b6000819050919050565b6000819050602082019050919050565b600081519050919050565b600081519050919050565b600081519050919050565b600081519050919050565b600060059050919050565b600081519050919050565b600081519050919050565b600081519050919050565b6000602082019050919050565b6000602082019050919050565b6000602082019050919050565b6000602082019050919050565b6000602082019050919050565b6000602082019050919050565b600082825260208201905092915050565b600082825260208201905092915050565b600082825260208201905092915050565b600082825260208201905092915050565b600081905092915050565b600082825260208201905092915050565b600082825260208201905092915050565b600082825260208201905092915050565b600081905092915050565b6000615a5a82615add565b9050919050565b60008115159050919050565b60007fffffffffffffffffffffffffffffffffffffffff00000000000000000000000082169050919050565b6000819050919050565b60007fffffffff0000000000000000000000000000000000000000000000000000000082169050919050565b600061ffff82169050919050565b600073ffffffffffffffffffffffffffffffffffffffff82169050919050565b6000819050919050565b600060ff82169050919050565b6000615b1f82615b26565b9050919050565b6000615b3182615b38565b9050919050565b6000615b4382615add565b9050919050565b82818337600083830152505050565b60005b83811015615b77578082015181840152602081019050615b5c565b83811115615b86576000848401525b50505050565b6000615b9782615bbc565b9050919050565b6000819050919050565b6000819050919050565b6000819050919050565b6000615bc782615c08565b9050919050565b6000819050919050565b6000615be382615bfb565b9050919050565b6000601f19601f8301169050919050565b60008160f81b9050919050565b60008160601b9050919050565b615c1e81615a4f565b8114615c2957600080fd5b50565b615c3581615a99565b8114615c4057600080fd5b50565b615c4c81615aa3565b8114615c5757600080fd5b50565b615c6381615acf565b8114615c6e57600080fd5b50565b615c7a81615afd565b8114615c8557600080fd5b50565b615c9181615b07565b8114615c9c57600080fd5b5056fea365627a7a723158204eadd6ed18450907bef62096c3faecb27d2a439801ee7cb522d8809abd5aff146c6578706572696d656e74616cf564736f6c63430005100040",
  "source": "pragma solidity ^0.5.7;\npragma experimental ABIEncoderV2;\n\nimport \"./strings.sol\";\nimport \"./stringCasting.sol\";\n// import \"./BytesLib.sol\";\nimport \"./SafeMath.sol\";\n\n/* Lunchcoin validator contract - mutual agreement */\ncontract MutualAgreement {\n    // Common storage structure for ALL contacts using this storage.\n    // _, __, __ , etc are unused in this contract, but must remain to occupy their slots.\n\n    address owner;  // is set by TokenStorage.. but retain types and order.\n\n    struct TimeRange {\n      uint start;\n      uint end;\n    }\n\n    struct Stake {\n      uint rep;\n      TimeRange[] available;\n      uint availabilityExpires;\n      mapping (address => uint) venueContribution;\n    }\n\n    struct dibs {\n      address payer;\n      address recipient;\n      uint amount;\n    }\n\n\n\n\n    struct Poll {\n      address initiator;\n      uint minStake;\n      uint venueCost;\n      uint venuePot;\n      uint8 minParticipants;\n      TimeRange eventTime;\n      bool proofsWindowClosed;\n      mapping (address => Stake) staked;\n      mapping (address => uint16) ownCheckInIndex;           // 1-indexed: ownCheckInIndex[s]==0 => nothing there.\n      dibs[] dibsCalled;\n    }\n\n\n    struct PollExternal {\n      address initiator;\n      uint minStake;\n      uint venueCost;\n      uint venuePot;\n      uint8 minParticipants;\n      uint8 participants;\n      TimeRange eventTime;\n      bool proofsWindowClosed;\n      // NB external view of Poll can never correctly represent ownCheckInIndex (a mapping to a dynamic array).\n      // Need to either make it indicative, or fixed size.\n\n      // getting arrays with web3 is weird. Possibly claims ABI error?\n      // bytes32[5][] cantremember;\n      // address[] provers;\n      // dibs[] dibsCalled;\n    }\n\n    // shared across contracts\n    mapping (address => uint) rep;\n    mapping (bytes32 => bytes32[]) allTheData;\n    mapping (string => Poll) public pollData;\n    mapping (bytes32 => bool) resultsCache;\n\n    // used only in Poll\n    mapping(uint8 => address) internal __validators;\n    mapping(uint8 => string) internal __validatorNames;\n    mapping(address => uint) internal __cashBalance;\n    address __selfAddy ;\n\n\n    // unused - previously for Storage Proxy\n    //    mapping (address => bool) internal _allowedAccess;\n\n    // used only in Validators\n    mapping (address => uint16) stakerPresentIn;\n\n      // used for testing only - will be deleted.\n      address pollAddress = 0x9D26a8a5Db7dC10689692caF8d52C912958409CF;\n\n    // constants: Do not use space in storage.\n    uint8 constant vType=1;\n    string constant vDesc = \"mutual agreement\";\n\n\n    struct proofCounter {\n        bool fakeProof;\n        int8 duplicateProofs;\n        uint8 fakeProofs;\n        bool senderIsPresent;\n    }\n\n\n    using strings for *;\n    using stringcast for string;\n    using SafeMath for uint;\n\n    function () payable external {\n        _fallback();\n    }\n\n    // function() external payable {\n    //     // NB sol 0.6+ better syntax for calldata arrays : https://solidity.readthedocs.io/en/v0.6.0/types.html#array-slices\n    //     bytes memory input = msg.data;\n    //\n    //     // TODO: This is V.0 accepting a string (really a bytes32) of EXACTLY 32 bytes, eg a doodle poll without the https:// ;)\n    //     bytes32 __ownAdress;  // NB assuming 32b rather than 20b for calldata loose packing. Remember to get rid of this line when optimising!\n    //     bytes memory usefulData;\n    //     bytes32 poll32;\n    //     bytes memory __reveal;\n    //     // demo result! (we don;t need more than bool really ;)\n    //     uint256 valid = 7331;\n    //\n    //     (__ownAdress, usefulData) = (bytesSplit32(input));\n    //     (poll32, __reveal) = (bytesSplit32(usefulData));\n    //\n    //     // NB other validators will need to additionally retrieve reveal data from msg.data\n    //     bytes32[] memory stakers = crossContractCall (encodeFunctionName(\"serialiseStakers\"), bytes32ToString(poll32), valid, vType);\n    //     bytes32[] memory proofs = crossContractCall (encodeFunctionName(\"serialiseProofs\"), bytes32ToString(poll32), valid, vType);\n    //\n    // }\n\n    constructor () public {\n        // testing constructor access to storage across shared storage\n        // (one for later ;)\n        // constructed = 1;\n    }\n\n    function initialiseDemo (string memory _poll) public {\n\n      pollData[_poll].minStake = 1;\n      pollData[_poll].venueCost = 45000;\n      pollData[_poll].venuePot = 11250;\n      // pollData[_poll].staked[msg.sender].rep = 1;\n      // pollData[_poll].staked[msg.sender].venueContribution =\n      // pollData[_poll].staked[msg.sender].venueContribution[msg.sender] = 15000;\n    }\n\n    function _fallback() internal {\n        bytes memory input = msg.data;\n\n    }\n\n    function multiplier() public view returns (uint numerator, uint denominator) {\n      return (5,4);\n    }\n\n    function maxRep() public view returns (uint maxRep) {\n      return (3000);\n    }\n\n\n    event logStuff (string);\n    modifier isStaker(string memory _poll) {\n      address[] memory stakers = getStakerAddresses(_poll);\n      bool senderIsPresent;\n\n      for(uint i = 0; i < stakers.length; i++) {\n        if (stakers[i] == msg.sender) {\n          senderIsPresent = true;\n        }\n      }\n      require(senderIsPresent, \"Function may only be called by a staker on this poll\");\n      _;\n    }\n\n    function doEmit (string memory message) public {\n      emit logStuff (message);\n    }\n\n    function getPoll(string memory _poll) public view returns (\n      address initiator,\n      // uint stake,\n      // uint venueContribution,\n      uint venueCost,\n      uint8 minParticipants,\n      uint start,\n      uint end,\n      bool proofsWindowClosed,\n      // dibs[] memory dibsCalled,\n      bytes32[5][] memory ownCheckInIndex ) {\n\n      initiator = pollData[_poll].initiator;\n      venueCost = pollData[_poll].venueCost;\n      minParticipants = pollData[_poll].minParticipants;\n      proofsWindowClosed = pollData[_poll].proofsWindowClosed;\n      // start = pollData[_poll].eventTime.start;\n      // end = pollData[_poll].eventTime.end;\n      start = 1591535900000;\n      end = 1591536000000;\n      // dibsCalled = pollData[_poll].dibsCalled;\n      // stake = pollData[_poll].staked[_staker].rep;\n      // venueContribution = pollData[_poll].staked[_staker].venueContribution[_staker];\n\n      return (initiator, venueCost, minParticipants, start, end, proofsWindowClosed, ownCheckInIndex);\n    }\n\n    function getPollStruct(string memory _poll) public view returns (PollExternal memory returnPoll) {\n\n      // bytes32[5][] ownCheckInIndex;\n      // address[] provers;\n      // dibs[] dibsCalled;\n\n        returnPoll.minStake = 1000;\n        returnPoll.venueCost = 40000;\n        returnPoll.venuePot = 40000;\n        returnPoll.minParticipants = 3;\n        returnPoll.participants = 3;\n        returnPoll.eventTime.start = 1591535900000;\n        returnPoll.eventTime.end = 1591536000000;\n      return returnPoll;\n    }\n\n    function setByHash (bytes32 _hash, bytes32[] memory _data) public {\n      allTheData[_hash] = _data;\n    }\n\n    function getByHash (bytes32 _hash) public view returns (bytes32[] memory) {\n      return (allTheData[_hash]);\n    }\n\n    function get (string memory _poll, string memory _fnName) public view returns (bytes32[] memory) {\n        bytes32 hash = keccak256(abi.encodePacked(_poll, encodeFunctionName(_fnName), vType));\n        return (allTheData[hash]);\n    }\n\n    event whassahash(bytes);\n    event whassakeccack(bytes32);\n    function getProofIgnoringStaker (string memory _poll, string memory _fnName, address _staker) public returns (bytes32[] memory) {\n      bytes32 hash = keccak256(abi.encodePacked(_poll, encodeFunctionName(_fnName), vType));\n      emit whassahash(abi.encodePacked(_poll, encodeFunctionName(_fnName), vType));\n      emit whassakeccack(hash);\n      return (allTheData[hash]);\n    }\n\n    function getProofProperUsingStaker (string memory _poll, string memory _fnName, address _staker) public returns (bytes32[] memory) {\n      bytes32 hash = keccak256(abi.encodePacked(_poll, encodeFunctionName(_fnName), _staker, vType));\n      emit whassahash(abi.encodePacked(_poll, encodeFunctionName(_fnName), _staker, vType));\n      emit whassakeccack(hash);\n      return (allTheData[hash]);\n    }\n\n    function getProofEmitHashesOnlyWithStaker (string memory _poll, string memory _fnName, address _stakerOrZero, uint8 _vt, bytes32[] memory data) public {\n      bytes32 hash = keccak256(abi.encodePacked(_poll, encodeFunctionName(_fnName), _stakerOrZero, _vt));\n      emit whassahash(abi.encodePacked(_poll, encodeFunctionName(_fnName), _stakerOrZero, _vt));\n      emit whassakeccack(hash);\n\n      emit gpResult(_poll, _fnName, _stakerOrZero, _vt, getProofProperUsingStaker(_poll, _fnName, _stakerOrZero));\n    }\n\n    function getStakerAddresses (string memory _poll ) public view returns (address[] memory) {\n      bytes32[] memory rawStakers = get(_poll, \"serialiseStakers\");\n      address[] memory stakers = new address[](rawStakers.length);\n      for(uint16 i=0; i < rawStakers.length; i++) {\n          stakers[i] = bytesToAddress(bytes32ToBytes(rawStakers[i]));\n      }\n      return stakers;\n    }\n\n//NB This is returning a WRONG result, but of the right type. You've probably got indices mixed up.\n    function getproofsAsAddresses (string memory _poll ) public returns (address[][] memory) {\n      address[] memory stakers = getStakerAddresses(_poll);\n      address[][] memory proofs = new address[][](stakers.length);\n      bytes32[] memory rawProof;\n\n      for(uint16 i=0; i < stakers.length; i++) {\n        rawProof = getProofProperUsingStaker(_poll, \"serialiseProofs\", stakers[i]);\n        proofs[i] = new address[](rawProof.length);\n        for(uint16 j=0; j < rawProof.length; j++) {\n            proofs[i][j]=(bytesToAddress(bytes32ToBytes(rawProof[i])));\n        }\n      }\n      return (proofs);\n    }\n\n    event gpResult(string, string, address, uint8, bytes32[]);\n    function setCheckedInNoStaker (string memory _poll, string memory _fnName, address _stakerOrZero, uint8 _vt, bytes32[] memory data) public {\n      bytes32 hash = keccak256(abi.encodePacked(_poll, encodeFunctionName(_fnName), _vt));\n      emit whassahash(abi.encodePacked(_poll, encodeFunctionName(_fnName), _vt));\n      emit whassakeccack(hash);\n      allTheData[hash] = data;\n      emit gpResult(_poll, _fnName, _stakerOrZero, _vt, getProofIgnoringStaker(_poll, _fnName, _stakerOrZero));\n    }\n\n    function setCheckedInWithStaker (string memory _poll, string memory _fnName, address _stakerOrZero, uint8 _vt, bytes32[] memory data) public {\n      bytes32 hash = keccak256(abi.encodePacked(_poll, encodeFunctionName(_fnName), _stakerOrZero, _vt));\n      emit whassahash(abi.encodePacked(_poll, encodeFunctionName(_fnName), _stakerOrZero, _vt));\n      emit whassakeccack(hash);\n      allTheData[hash] = data;\n      emit gpResult(_poll, _fnName, _stakerOrZero, _vt, getProofProperUsingStaker(_poll, _fnName, _stakerOrZero));\n    }\n\n    function set (string memory _poll, string memory _fnName, address _stakerOrZero, uint8 _vt, bytes32[] memory _data) public {\n      bytes32 hash;\n      if (_stakerOrZero == address(0)) {\n        hash = keccak256(abi.encodePacked(_poll, encodeFunctionName(_fnName), _vt));\n      } else {\n        hash = keccak256(abi.encodePacked(_poll, encodeFunctionName(_fnName), bytes20(_stakerOrZero), _vt));\n      }\n      bytes32[] memory data = new bytes32[](_data.length);\n      for(uint16 i=0; i < _data.length; i++) {\n\n      }\n      // data=_data;\n      allTheData[hash] = data;\n    }\n\n    function addStaker (string memory _poll, string memory _fnName, address _staker, uint8 _vt, address _newMember) public {\n      bytes32 hash = keccak256(abi.encodePacked(_poll, encodeFunctionName(_fnName), _vt));\n      allTheData[hash].push (bytes32(bytes20(_newMember)));\n    }\n\n    function checkIn (string memory _poll, address[] memory _newProof, address _impersonatedStaker) public {\n      address sender = _impersonatedStaker;   //  should be msg.sender\n      uint16 idx = pollData[_poll].ownCheckInIndex[sender];\n      bool hasStaked = false;\n      uint16 i;\n\n      // if (idx==0) {\n      //   idx = uint16(getStakerAddresses(_poll ).length);\n      //   add (_poll, \"serialiseProofs\", vType, _newProof);\n      //   pollData[_poll].ownCheckInIndex[sender] = idx+1;    // would be an off-by-one but ownIndex is 1-indexed ;)\n      //   return;\n      // }\n      // proofs[idx] = bytes32(bytes20(_newProof));\n\n      // bytes32[] memory stakers = get(_poll, \"serialiseStakers\");\n      // for (i=0; i<stakers.length; i++) {\n      //   if bytes32(bytes20((stakers[i]))==sender\n      //     hasStaked = true;\n      // }\n      // if (hasStaked = false)\n      //   revert ('Staker has not staked in this poll')\n      bytes32[] memory proofB32 = new bytes32[](_newProof.length);\n      for (i=0; i<_newProof.length; i++) {\n        proofB32[i]=bytes32(bytes20(_newProof[i]));\n      }\n      set ( _poll, \"serialiseProofs\", sender, vType, proofB32);\n      pollData[_poll].ownCheckInIndex[sender] = idx+1;\n    }\n\n    event proofUpdated(address);\n    function addProof (string memory _poll, address _impersonatedStaker, address[] memory _newProof) public {\n      address sender = _impersonatedStaker;   //  should be msg.sender\n      bytes32[] memory proofB32 = new bytes32[](_newProof.length);\n      bytes32 hash = keccak256(abi.encodePacked(_poll, encodeFunctionName(\"serialiseProofs\"), bytes20(_impersonatedStaker), vType));\n      for (uint16 i=0; i<_newProof.length; i++) {\n        proofB32[i]=bytes32(bytes20(_newProof[i]));\n      }\n      if (allTheData[hash].length>0)\n        emit proofUpdated(sender);\n      allTheData[hash]=(proofB32);\n    }\n\n    function addProofSelf (string memory _poll, address[] memory _newProof) public {\n      addProof (_poll, msg.sender, _newProof);\n    }\n\n    event proofsWindowClosed (string poll, address by);\n    function closeProofsWindow (string memory _poll) public {\n      // require (isElibgible(msg.sender), \"msg.sender did not stake in this poll\");\n      // require (time.now()>.pollData[_poll].eventTime.end || AllstakersSubmittedProofs(), \"Not all stakers have submitted proofs and the event is not yet over\");\n      // require (, \"\");\n      pollData[_poll].proofsWindowClosed = true;\n      emit proofsWindowClosed (_poll, msg.sender);\n\n      // NB here assuming that poll can be closed once all stakers have submitted a proof.\n      // The alternative would allow a non-attending staker to hold up refunds (by refusing to submit 'I can't make it')\n      // but this way means that early provers cannot necessarily revise rpoofs which turn out not to fit consensus\n      // This policy may be better left to differ between validators.\n    }\n\n\n    function reopenProofsWindow (string memory _poll) public {\n      pollData[_poll].proofsWindowClosed = false;\n    }\n\n    function isProofsWindowClosed (string memory _poll) public view returns (bool ) {\n      return pollData[_poll].proofsWindowClosed;\n    }\n\n\n    function setRep (string memory _poll, address _staker, uint _rep) public {\n      pollData[_poll].staked[_staker].rep = _rep;\n    }\n\n    function getRep (string memory _poll, address _staker) public view returns (uint) {\n      return pollData[_poll].staked[_staker].rep;\n    }\n\n\n    event stakeNotAccepted(address, string);\n    event disreputableStakerIgnored(address, string);\n    event staked(address, string, uint);\n    // TODO: accept one TimeRange for all stakes.\n    // TODO: accept TimeRanges per stake (need to change up the data structures!)\n    function addStake (string memory _poll, address _impersonatedStaker, uint _rep, uint _venueContribution, address _venueContributionFor ) public {\n      address sender = _impersonatedStaker;\n      if (_venueContribution>0) {\n        uint currentVC = pollData[_poll].staked[sender].venueContribution[_venueContributionFor];\n        pollData[_poll].staked[sender].venueContribution[_venueContributionFor] += _venueContribution;\n      }\n      if (_rep>0) {\n        if (_rep<pollData[_poll].minStake) {\n          emit stakeNotAccepted(sender, _poll);              // aNt!p4ttrnn ###\n        } else\n        if (rep[sender]<_rep) {\n          emit disreputableStakerIgnored(sender, _poll);\n        } else {\n          rep[sender] -= _rep;\n          pollData[_poll].staked[sender].rep += _rep;\n          emit staked(sender, _poll, _rep);\n        }\n      }\n    }\n\n    function totalRepStaked (string memory _poll, address _staker) public view returns (uint) {\n      return pollData[_poll].staked[_staker].rep;\n    }\n\n    function totalVenueContribs (string memory _poll, address _staker) public view returns (uint total) {\n      // dibs[] memory dibsList = allDibsPaidBy(_staker);\n\n\n      // gives an out of bounds error (or munches it into VM..blah..blah)\n      // trying to access ...[address(0)]\n      // total = pollData[_poll].staked[_staker].venueContribution[_staker] + pollData[_poll].staked[_staker].venueContribution[address(0)];\n      total = pollData[_poll].staked[_staker].venueContribution[_staker];\n\n      // for(uint16 i = 0; i < dibsList.length; i++) {\n      //   total += dibsList[i].amount;\n      // }\n\n      return total;\n    }\n\n    event emptyStakeRemoved (string _poll, address _staker);\n    function removeEmptyStake (string memory _poll, address _staker) public {\n      // uint rep=pollData[_poll].staked[msg.sender].rep;\n      // uint venueContributions = totalVenueContribs (_poll, _staker);\n      // require (rep==0 && venueContributions==0, 'Staker has non empty stake or venue contribution');\n      // delete pollData[_poll].staked[msg.sender];\n      // emit emptyStakeRemoved(_poll, msg.sender);\n    }\n\n    // NB these require returning complex type.\n    // Keep the commented code, but integrate it direct into functions which need it (and eventually use new ABI encoder on it ;)\n\n    // function allDibsPaidBy(string memory _poll, address _staker) public view returns (dibs[] memory) {\n    //   uint16 size=0;\n    //   uint16 i;\n    //   for(i = 0; i < pollData[_poll].dibsCalled.length; i++) {\n    //     if (pollData[_poll].dibsCalled[i].payer == _staker)\n    //       size++;\n    //   }\n    //   dibs[size] memory dibsList = new dibs[](size);\n    //   for(uint16 i = 0; i < pollData[_poll].dibsCalled.length; i++) {\n    //     if (pollData[_poll].dibsCalled[i].payer == _staker)\n    //       dibsList.push(pollData[_poll].dibsCalled[i]);\n    //   }\n    //   return dibsList;\n    // }\n    //\n    // function allDibsPaidFor(string memory _poll, address _recipient) public view returns (dibs[] memory) {\n    //   uint16 size=0;\n    //   uint16 i;\n    //   for(i = 0; i < pollData[_poll].dibsCalled.length; i++) {\n    //     if (pollData[_poll].dibsCalled[i].recipient == _recipient)\n    //       size++;\n    //   }\n    //   dibs[size] memory dibsList = new dibs[](size);\n    //   for(i = 0; i < pollData[_poll].dibsCalled.length; i++) {\n    //     if (pollData[_poll].dibsCalled[i].recipient == _recipient)\n    //       dibsList.push(pollData[_poll].dibsCalled[i]);\n    //   }\n    //   return dibsList;\n    // }\n\n    event venuePotDisbursed (string _poll, address to, address by, int amount);\n    // Any staker can call refund of excess venue pot.\n    // Disbursement to venue payer must wait until initiator has actively set venue payer (eg to self);\n    function refundVenueStakes(string memory _poll) public isStaker(_poll) {\n      address[] memory stakers = getStakerAddresses(_poll);\n      uint equalShare = (pollData[_poll].venueCost).div(stakers.length);\n      uint spareCash = pollData[_poll].venuePot-pollData[_poll].venueCost;\n      // // proportional refunds:\n      // // allows recipients of gifted contributions to get a refund too\n      // for stakers\n      //   refund = 0\n      //   for (stakes = allDibsPaidBy(staker).concat(staker.stake[staker]).concat(staker.stake[0x0]))\n      //     refund += stake*proportion\n      //     remove stake\n      //   refund (refund)\n      //   emit\n      //\n      // // covering refunds:\n      // // gifted contributions are used only to top up recipients'\n      // for stakers\n      //   totalPaid = staker.stake[staker].amount + staker.stake[0x0].amount\n      //   if totalPaid < equalShare\n      //     for (stakes = allDibsPaidFor(staker).concat(staker.stake[staker]).concat(staker.stake[0x0]))\n      //       if amount>=shortfall\n      //         totalPaid += shortfall\n      //         shorten(stake)\n      //       else\n      //         totalPaid += amount\n      //         remove(stake) including own stake!\n      //     refund(0)\n      // for stakers\n      //   if exists(stake) (ie those who were not removed in last round)\n      //     for (stakes = allDibsPaidBy(staker).concat(staker.stake[staker]).concat(staker.stake[0x0]))\n      //       if amount>=shortfall\n      //         totalPaid += shortfall\n      //         refund += rest\n      //       else\n      //         totalPaid += amount\n      //       remove(stake)\n      //     refund (refund)\n      //     emitsolidity uint16\n      //\n\n      removeEmptyStake(_poll, msg.sender);\n    }\n\n    function setString (string memory _poll, string memory _fnName, uint8 _vt, string memory data) public {\n      bytes32 hash = keccak256(abi.encodePacked(_poll, encodeFunctionName(_fnName), _vt));\n      allTheData[hash] = stringToBytes32Array(data);\n    }\n\n\n    event repRefund (address _staker, uint _staked, uint _refunded);\n    event refundFail (address _staker);\n    function refundStake (string memory _poll, bytes32 _reveal) public {\n      require (pollData[_poll].staked[msg.sender].rep > 0, 'Sender has nothing staked for this poll');\n      require (pollData[_poll].ownCheckInIndex[msg.sender] > 0, 'Sender has not submitted an attendance proof for this poll');\n      if (!validate(address(0), _poll, _reveal)) {\n        emit refundFail(msg.sender);\n        revert ('Invalid proof');\n      }\n\n      (uint num, uint denom) = multiplier();\n      uint refund = num.mul(pollData[_poll].staked[msg.sender].rep) / denom;\n      if (rep[msg.sender] + refund > maxRep())\n        refund = pollData[_poll].staked[msg.sender].rep;\n\n      pollData[_poll].staked[msg.sender].rep = 0;\n      rep[msg.sender] += refund;\n      emit repRefund (msg.sender, pollData[_poll].staked[msg.sender].rep, refund);\n      removeEmptyStake(_poll, msg.sender);\n\n    }\n\n    event numberLoggerLikeImUsingFuckingJava (string, uint);\n    // cheapo validator - this one just counts how many people included you in their proof, with no attempt at making the proofs agree.\n    // currently counts votes in favour of each stakers, which will help, but doesn't flag which poroofs disagree\n    function validate(address _pollContract, string memory _poll, bytes32 _reveal) public returns (bool) {\n        // require (_pollContract==howeverYoullIdentifySelf, 'wrong Poll contract - something needs upgrading');\n\n        address[] memory stakers = getStakerAddresses(_poll);\n        address[][] memory proofs = getproofsAsAddresses(_poll);\n        uint16 i;\n        uint16 sendersIndex;\n        bool stakerPresent;\n\n        uint8 threshold = 1 ;   //  do not set to 0 - div0 error!\n        // emit numberLoggerLikeImUsingFuckingJava('stakers',stakers.length);\n        // emit numberLoggerLikeImUsingFuckingJava('proofs',proofs.length);\n\n        // proofCounter memory pc;\n        for(i = 0; i < stakers.length; i++) {\n            // emit logStuff(\"started loop\");\n            stakerPresent = false;\n            if (stakers[i]==msg.sender)\n              sendersIndex=i;\n            for(uint j = 0; j < proofs[i].length; j++) {\n              if (proofs[i][j] == msg.sender)\n                stakerPresent = true;\n              stakerPresentIn[proofs[i][j]]++;     // increase the present count for the address who this staker marked present\n              // if this staker claims someone is here but the majority disagree, then emit disagreement;\n            }\n            // if (!stakerPresent)\n            //   impugnProof(i);\n            //   // if I am not present, emit a disagreement;\n        }\n        // if stakerPresentIn[sendersIndex] < proofs[i].length {\n        //   bePissedOff();\n        // }\n\n        // update majorities\n        // check previous disagreements\n\n        if ((stakerPresentIn[msg.sender]>=threshold) && (proofs[i].length/ stakerPresentIn[msg.sender] < 2)) {\n          return true;\n        }\n        // add reversion logic\n\n\n\n\n        // // deal with 0 < threshold < 1\n        // if(percentageThreshold>0) {\n        //   threshold = percentageThreshold*stakers.length;\n        // }\n        // if (pc.senderIsPresent && (proofs.length-pc.fakeProofs >= threshold)) {\n        //     return true;\n        // }\n        // return false;\n\n        // if (!pc.senderIsPresent)\n        //     revert('Sender did not register attendance');\n\n        // if (!pc.senderIsPresent)\n        //     emit logStuff('Sender did not register attendance');\n        // if (proofs.length-pc.fakeProofs < threshold)\n        //     emit logStuff('Not enough attendees in consensus');\n        // if (proofs.length == pc.fakeProofs)\n        //     emit logStuff('All proofs were fake');\n        // emit numberLoggerLikeImUsingFuckingJava ('fakeProofs',pc.fakeProofs);\n        // emit numberLoggerLikeImUsingFuckingJava ('proofs.length',proofs.length);\n        // return true;\n    }\n\n    function deserialiseStakers(string calldata _poll) external pure returns (address[] memory) {\n        // return something which will make it obvious that you have accidentally delegated this context!\n        address[] memory ret = new address[](4);\n        (ret[0], ret[1], ret[2], ret[3]) = (address(5), address(0), address(5), address(0));\n        return ret;\n    }\n\n    function serialiseStakers(string calldata _poll, uint8 validationType) external pure returns (address[] memory) {\n        // return something which will make it obvious that you have accidentally delegated this context!\n        address[] memory ret = new address[](4);\n        (ret[0], ret[1], ret[2], ret[3]) = (address(5), address(0), address(5), address(0));\n        return ret;\n    }\n\n    function serialiseProofs(string calldata _poll, uint8 validationType) external pure returns (address[] memory) {\n        // return something which will make it obvious that you have accidentally delegated this context!\n        address[] memory ret = new address[](4);\n        (ret[0], ret[1], ret[2], ret[3]) = (address(0), address(5), address(0), address(5));\n        return ret;\n    }\n\n\n    function proofType() public pure returns (uint8) {\n      return vType;\n    }\n\n    function encodeFunctionName (string memory name) internal pure returns (bytes4) {\n        // TODO: cache for readability!\n        // if (\"serialiseStakers\")\n        //     return\n        // if (\"serialiseStakers\")\n        //     return\n        return bytes4(keccak256(bytes(name)));\n    }\n\n    // split a serialised string of addresses (as received from main contract).\n    // NB - only works in this validator - other validators will use multiple types within serialised string\n    function splitToAddresses(string memory _concatenated) internal pure returns (address[] memory result) {\n        strings.slice memory delim = \",\".toSlice();\n        strings.slice memory source = _concatenated.toSlice();\n        address[] memory parts = new address[](source.count(delim));\n\n        for(uint i = 0; i < parts.length; i++) {\n           parts[i] = source.split(delim).toString().toAddress();\n        }\n        return parts;\n\n    }\n\n    function bytesToAddress(bytes memory _bytes) public pure returns (address) {\n      address tempAddress;\n      assembly {\n          tempAddress := div(mload(add(add(_bytes, 0x20), 0)), 0x1000000000000000000000000)\n      }\n      return tempAddress;\n    }\n\n    function toString(address account) public pure returns(string memory) {\n        return toString(abi.encodePacked(account), 5);\n    }\n\n    function toString(uint256 value) public pure returns(string memory) {\n        return toString(abi.encodePacked(value), 0);\n    }\n\n    function toString(bytes32 value) public pure returns(string memory) {\n        return toString(abi.encodePacked(value), 0);\n    }\n\n    function toString(bytes memory data, uint16 len) public pure returns(string memory) {\n        bytes memory alphabet = \"0123456789abcdef\";\n        uint16 strLen = 20;  // It's 20. The length is just fucking 20.  uint16(data.length);\n        // Pretty simple if statement - why won't it work ?\n        // if (len>0) {\n        //     strLen = len;\n        // }\n\n\n        bytes memory str = new bytes(2 + strLen * 2);\n        str[0] = '0';\n        str[1] = 'x';\n        for (uint i = 0; i < strLen; i++) {\n            str[2+i*2] = alphabet[uint(uint8(data[i] >> 4))];\n            str[3+i*2] = alphabet[uint(uint8(data[i] & 0x0f))];\n        }\n        return string(str);\n    }\n\n\n    function bytes32ToBytes(bytes32 _bytes32) public pure returns (bytes memory){\n        // string memory str = string(_bytes32);\n        // TypeError: Explicit type conversion not allowed from \"bytes32\" to \"string storage pointer\"\n        bytes memory bytesArray = new bytes(32);\n        for (uint256 i; i < 32; i++) {\n            bytesArray[i] = _bytes32[i];\n        }\n        return bytesArray;\n    }\n\n    // function bytesToBytes32(bytes b, uint offset) private pure returns (bytes32) {\n    //     bytes32 out;\n\n    //     for (uint i = 0; i < 32; i++) {\n    //         out |= bytes32(b[offset + i] & 0xFF) >> (i * 8);\n    //     }\n    //     return out;\n    // }\n\n\n    function bytesToBytes32(bytes memory b) public pure returns (bytes32 bts) {\n        bytes32 i;\n        //NB size etc= 32b = 0x20b\n        assembly { i := mload(add(b, 0x20)) }\n        bts = i;\n    }\n\n    function bytes32ToString(bytes32 _bytes32) public pure returns (string memory ){\n        bytes memory bytesArray = bytes32ToBytes(_bytes32);\n        return string(bytesArray);\n    }\n\n    function bytes32ArrayToString (bytes32[] memory data) public pure returns (string memory ) {\n        bytes memory bytesString = new bytes(data.length * 32);\n        uint urlLength;\n        uint i=0;\n        for (i=0; i<data.length; i++) {\n            for (uint j=0; j<32; j++) {\n                byte char = byte(bytes32(uint(data[i]) * 2 ** (8 * j)));\n                if (char != 0) {\n                    bytesString[urlLength] = char;\n                    urlLength += 1;\n                }\n            }\n        }\n        bytes memory bytesStringTrimmed = new bytes(urlLength);\n        for (i=0; i<urlLength; i++) {\n            bytesStringTrimmed[i] = bytesString[i];\n        }\n        return string(bytesStringTrimmed);\n    }\n\n    function stringToBytes32Array(string memory source) public pure returns (bytes32[] memory result) {\n        // uint16 words = uint16( (bytes(source).length+31)/32 );\n        uint16 words = 1;\n        for(uint16 i=0; i<=words; i++) {\n          uint16 offset = 32*(i+1);\n          bytes32 word;\n          assembly {\n            word := mload(add(source, offset))\n          }\n          result[i] = word;\n        }\n        return result;\n    }\n\n    // TODO !!!\n    // function bytes32ToUint (bytes32 data) returns (uint) {\n    //     return 2;\n    // }\n\n    function bytesSplit32(bytes  memory data) public pure returns (bytes32, bytes memory ) {\n        uint8 splitAt = 32;                             // all (if variable split, pass in splitAt)\n        uint256 taillength = 0;\n        if (data.length > splitAt)\n            taillength = data.length-splitAt;\n        bytes32 temp;\n        // bytes32 head;                                   // 32b split\n        bytes memory head = new bytes(splitAt);         // variable length split\n        bytes memory tail = new bytes(taillength);\n        for(uint i=0;i<=data.length-1;i++){\n            if (i<splitAt)\n                head[i] = bytes(data)[i] ;\n            else\n                tail[i-splitAt] = bytes(data)[i] ;\n        }\n        return (bytesToBytes32(head), tail);\n    }\n\n    // calls fallback function of pollAddress, passing 4 byte encoded function name to remote contract to select method.\n    // NB future better: just get the ABI of the finished Poll conmtract, and use that!\n    // NB in sol 0.6 + fallback cannot return anything\n    // NB future optimisation : we are not using the functionality of string here, since string must have come from a bytes32\n    event CrossContractValidateBegin();\n    event CrossContractValidateEnd();\n    function crossContractCall (bytes4 fnNameHash, string  memory poll, uint256 valid, uint8 vt) public returns (bytes32[] memory) {\n    address pollContract = pollAddress;\n\n        emit CrossContractValidateBegin();\n        assembly {\n            let ptr := mload(0x40)\n            calldatacopy(ptr, 0, calldatasize)\n            let result := delegatecall(gas, pollContract, ptr, calldatasize, 0, 0)\n            let size := returndatasize\n            returndatacopy(ptr, 0, size)\n            switch result\n            case 0 { revert(ptr, size) }\n            default { return(ptr, size) }\n        }\n        emit CrossContractValidateEnd();\n    }\n\n}\n",
  "sourcePath": "/home/teide/randomCode/lunchcoin/contracts.v1/contracts/MutualAgreement.sol",
  "compiler": {
    "name": "solc",
    "version": "0.5.16+commit.9c3226ce.Emscripten.clang"
  },
  "schemaVersion": "3.2.0",
  "updatedAt": "2020-06-17T09:30:02.870Z",
  "networkType": "ethereum",
  "devdoc": {
    "methods": {}
  },
  "userdoc": {
    "methods": {}
  }
}