{
  "contractName": "MutualAgreement",
  "abi": [
    {
      "inputs": [],
      "payable": false,
      "stateMutability": "nonpayable",
      "type": "constructor"
    },
    {
      "anonymous": false,
      "inputs": [],
      "name": "CrossContractValidateBegin",
      "type": "event"
    },
    {
      "anonymous": false,
      "inputs": [],
      "name": "CrossContractValidateEnd",
      "type": "event"
    },
    {
      "anonymous": false,
      "inputs": [
        {
          "indexed": false,
          "internalType": "string",
          "name": "_poll",
          "type": "string"
        },
        {
          "indexed": false,
          "internalType": "address",
          "name": "_staker",
          "type": "address"
        }
      ],
      "name": "emptyStakeRemoved",
      "type": "event"
    },
    {
      "anonymous": false,
      "inputs": [
        {
          "indexed": false,
          "internalType": "string",
          "name": "",
          "type": "string"
        },
        {
          "indexed": false,
          "internalType": "string",
          "name": "",
          "type": "string"
        },
        {
          "indexed": false,
          "internalType": "address",
          "name": "",
          "type": "address"
        },
        {
          "indexed": false,
          "internalType": "uint8",
          "name": "",
          "type": "uint8"
        },
        {
          "indexed": false,
          "internalType": "bytes32[]",
          "name": "",
          "type": "bytes32[]"
        }
      ],
      "name": "gpResult",
      "type": "event"
    },
    {
      "anonymous": false,
      "inputs": [
        {
          "indexed": false,
          "internalType": "string",
          "name": "",
          "type": "string"
        }
      ],
      "name": "logStuff",
      "type": "event"
    },
    {
      "anonymous": false,
      "inputs": [
        {
          "indexed": false,
          "internalType": "string",
          "name": "",
          "type": "string"
        },
        {
          "indexed": false,
          "internalType": "uint256",
          "name": "",
          "type": "uint256"
        }
      ],
      "name": "numberLoggerLikeImUsingFuckingJava",
      "type": "event"
    },
    {
      "anonymous": false,
      "inputs": [
        {
          "indexed": false,
          "internalType": "address",
          "name": "",
          "type": "address"
        }
      ],
      "name": "proofUpdated",
      "type": "event"
    },
    {
      "anonymous": false,
      "inputs": [
        {
          "indexed": false,
          "internalType": "string",
          "name": "poll",
          "type": "string"
        },
        {
          "indexed": false,
          "internalType": "address",
          "name": "by",
          "type": "address"
        }
      ],
      "name": "proofsWindowClosed",
      "type": "event"
    },
    {
      "anonymous": false,
      "inputs": [
        {
          "indexed": false,
          "internalType": "address",
          "name": "_staker",
          "type": "address"
        }
      ],
      "name": "refundFail",
      "type": "event"
    },
    {
      "anonymous": false,
      "inputs": [
        {
          "indexed": false,
          "internalType": "address",
          "name": "_staker",
          "type": "address"
        },
        {
          "indexed": false,
          "internalType": "uint256",
          "name": "_staked",
          "type": "uint256"
        },
        {
          "indexed": false,
          "internalType": "uint256",
          "name": "_refunded",
          "type": "uint256"
        }
      ],
      "name": "repRefund",
      "type": "event"
    },
    {
      "anonymous": false,
      "inputs": [
        {
          "indexed": false,
          "internalType": "string",
          "name": "_poll",
          "type": "string"
        },
        {
          "indexed": false,
          "internalType": "address",
          "name": "to",
          "type": "address"
        },
        {
          "indexed": false,
          "internalType": "address",
          "name": "by",
          "type": "address"
        },
        {
          "indexed": false,
          "internalType": "int256",
          "name": "amount",
          "type": "int256"
        }
      ],
      "name": "venuePotDisbursed",
      "type": "event"
    },
    {
      "anonymous": false,
      "inputs": [
        {
          "indexed": false,
          "internalType": "bytes",
          "name": "",
          "type": "bytes"
        }
      ],
      "name": "whassahash",
      "type": "event"
    },
    {
      "anonymous": false,
      "inputs": [
        {
          "indexed": false,
          "internalType": "bytes32",
          "name": "",
          "type": "bytes32"
        }
      ],
      "name": "whassakeccack",
      "type": "event"
    },
    {
      "payable": true,
      "stateMutability": "payable",
      "type": "fallback"
    },
    {
      "constant": true,
      "inputs": [],
      "name": "flag",
      "outputs": [
        {
          "internalType": "int160",
          "name": "",
          "type": "int160"
        }
      ],
      "payable": false,
      "stateMutability": "view",
      "type": "function"
    },
    {
      "constant": true,
      "inputs": [
        {
          "internalType": "string",
          "name": "",
          "type": "string"
        }
      ],
      "name": "pollData",
      "outputs": [
        {
          "internalType": "address",
          "name": "initiator",
          "type": "address"
        },
        {
          "internalType": "uint256",
          "name": "minStake",
          "type": "uint256"
        },
        {
          "internalType": "uint256",
          "name": "venueCost",
          "type": "uint256"
        },
        {
          "internalType": "uint256",
          "name": "venuePot",
          "type": "uint256"
        },
        {
          "internalType": "uint8",
          "name": "minParticipants",
          "type": "uint8"
        },
        {
          "components": [
            {
              "internalType": "uint256",
              "name": "start",
              "type": "uint256"
            },
            {
              "internalType": "uint256",
              "name": "end",
              "type": "uint256"
            }
          ],
          "internalType": "struct MutualAgreement.TimeRange",
          "name": "eventTime",
          "type": "tuple"
        },
        {
          "internalType": "bool",
          "name": "proofsWindowClosed",
          "type": "bool"
        }
      ],
      "payable": false,
      "stateMutability": "view",
      "type": "function"
    },
    {
      "constant": true,
      "inputs": [],
      "name": "multiplier",
      "outputs": [
        {
          "internalType": "uint256",
          "name": "numerator",
          "type": "uint256"
        },
        {
          "internalType": "uint256",
          "name": "denominator",
          "type": "uint256"
        }
      ],
      "payable": false,
      "stateMutability": "view",
      "type": "function"
    },
    {
      "constant": true,
      "inputs": [],
      "name": "maxRep",
      "outputs": [
        {
          "internalType": "uint256",
          "name": "maxRep",
          "type": "uint256"
        }
      ],
      "payable": false,
      "stateMutability": "view",
      "type": "function"
    },
    {
      "constant": false,
      "inputs": [
        {
          "internalType": "string",
          "name": "message",
          "type": "string"
        }
      ],
      "name": "doEmit",
      "outputs": [],
      "payable": false,
      "stateMutability": "nonpayable",
      "type": "function"
    },
    {
      "constant": true,
      "inputs": [],
      "name": "getFlag",
      "outputs": [
        {
          "internalType": "int256",
          "name": "",
          "type": "int256"
        }
      ],
      "payable": false,
      "stateMutability": "view",
      "type": "function"
    },
    {
      "constant": false,
      "inputs": [
        {
          "internalType": "int160",
          "name": "_flag",
          "type": "int160"
        }
      ],
      "name": "setFlag",
      "outputs": [],
      "payable": false,
      "stateMutability": "nonpayable",
      "type": "function"
    },
    {
      "constant": true,
      "inputs": [
        {
          "internalType": "string",
          "name": "_poll",
          "type": "string"
        }
      ],
      "name": "getPoll",
      "outputs": [
        {
          "internalType": "address",
          "name": "initiator",
          "type": "address"
        },
        {
          "internalType": "uint256",
          "name": "stake",
          "type": "uint256"
        },
        {
          "internalType": "uint256",
          "name": "venueCost",
          "type": "uint256"
        },
        {
          "internalType": "uint8",
          "name": "minParticipants",
          "type": "uint8"
        },
        {
          "internalType": "uint8",
          "name": "participants",
          "type": "uint8"
        },
        {
          "internalType": "uint256",
          "name": "start",
          "type": "uint256"
        },
        {
          "internalType": "uint256",
          "name": "end",
          "type": "uint256"
        },
        {
          "internalType": "bytes32[5][]",
          "name": "ownCheckInIndex",
          "type": "bytes32[5][]"
        }
      ],
      "payable": false,
      "stateMutability": "view",
      "type": "function"
    },
    {
      "constant": true,
      "inputs": [
        {
          "internalType": "string",
          "name": "_poll",
          "type": "string"
        }
      ],
      "name": "getPollStruct",
      "outputs": [
        {
          "components": [
            {
              "internalType": "address",
              "name": "initiator",
              "type": "address"
            },
            {
              "internalType": "uint256",
              "name": "minStake",
              "type": "uint256"
            },
            {
              "internalType": "uint256",
              "name": "venueCost",
              "type": "uint256"
            },
            {
              "internalType": "uint256",
              "name": "venuePot",
              "type": "uint256"
            },
            {
              "internalType": "uint8",
              "name": "minParticipants",
              "type": "uint8"
            },
            {
              "internalType": "uint8",
              "name": "participants",
              "type": "uint8"
            },
            {
              "components": [
                {
                  "internalType": "uint256",
                  "name": "start",
                  "type": "uint256"
                },
                {
                  "internalType": "uint256",
                  "name": "end",
                  "type": "uint256"
                }
              ],
              "internalType": "struct MutualAgreement.TimeRange",
              "name": "eventTime",
              "type": "tuple"
            }
          ],
          "internalType": "struct MutualAgreement.PollExternal",
          "name": "returnPoll",
          "type": "tuple"
        }
      ],
      "payable": false,
      "stateMutability": "view",
      "type": "function"
    },
    {
      "constant": false,
      "inputs": [
        {
          "internalType": "bytes32",
          "name": "_hash",
          "type": "bytes32"
        },
        {
          "internalType": "bytes32[]",
          "name": "_data",
          "type": "bytes32[]"
        }
      ],
      "name": "setByHash",
      "outputs": [],
      "payable": false,
      "stateMutability": "nonpayable",
      "type": "function"
    },
    {
      "constant": true,
      "inputs": [
        {
          "internalType": "bytes32",
          "name": "_hash",
          "type": "bytes32"
        }
      ],
      "name": "getByHash",
      "outputs": [
        {
          "internalType": "bytes32[]",
          "name": "",
          "type": "bytes32[]"
        }
      ],
      "payable": false,
      "stateMutability": "view",
      "type": "function"
    },
    {
      "constant": true,
      "inputs": [
        {
          "internalType": "string",
          "name": "_poll",
          "type": "string"
        },
        {
          "internalType": "string",
          "name": "_fnName",
          "type": "string"
        }
      ],
      "name": "get",
      "outputs": [
        {
          "internalType": "bytes32[]",
          "name": "",
          "type": "bytes32[]"
        }
      ],
      "payable": false,
      "stateMutability": "view",
      "type": "function"
    },
    {
      "constant": false,
      "inputs": [
        {
          "internalType": "string",
          "name": "_poll",
          "type": "string"
        },
        {
          "internalType": "string",
          "name": "_fnName",
          "type": "string"
        },
        {
          "internalType": "address",
          "name": "_staker",
          "type": "address"
        }
      ],
      "name": "getProofIgnoringStaker",
      "outputs": [
        {
          "internalType": "bytes32[]",
          "name": "",
          "type": "bytes32[]"
        }
      ],
      "payable": false,
      "stateMutability": "nonpayable",
      "type": "function"
    },
    {
      "constant": false,
      "inputs": [
        {
          "internalType": "string",
          "name": "_poll",
          "type": "string"
        },
        {
          "internalType": "string",
          "name": "_fnName",
          "type": "string"
        },
        {
          "internalType": "address",
          "name": "_staker",
          "type": "address"
        }
      ],
      "name": "getProofProperUsingStaker",
      "outputs": [
        {
          "internalType": "bytes32[]",
          "name": "",
          "type": "bytes32[]"
        }
      ],
      "payable": false,
      "stateMutability": "nonpayable",
      "type": "function"
    },
    {
      "constant": false,
      "inputs": [
        {
          "internalType": "string",
          "name": "_poll",
          "type": "string"
        },
        {
          "internalType": "string",
          "name": "_fnName",
          "type": "string"
        },
        {
          "internalType": "address",
          "name": "_stakerOrZero",
          "type": "address"
        },
        {
          "internalType": "uint8",
          "name": "_vt",
          "type": "uint8"
        },
        {
          "internalType": "bytes32[]",
          "name": "data",
          "type": "bytes32[]"
        }
      ],
      "name": "getProofEmitHashesOnlyWithStaker",
      "outputs": [],
      "payable": false,
      "stateMutability": "nonpayable",
      "type": "function"
    },
    {
      "constant": true,
      "inputs": [
        {
          "internalType": "string",
          "name": "_poll",
          "type": "string"
        }
      ],
      "name": "getStakerAddresses",
      "outputs": [
        {
          "internalType": "address[]",
          "name": "",
          "type": "address[]"
        }
      ],
      "payable": false,
      "stateMutability": "view",
      "type": "function"
    },
    {
      "constant": false,
      "inputs": [
        {
          "internalType": "string",
          "name": "_poll",
          "type": "string"
        }
      ],
      "name": "getproofsAsAddresses",
      "outputs": [
        {
          "internalType": "address[][]",
          "name": "",
          "type": "address[][]"
        }
      ],
      "payable": false,
      "stateMutability": "nonpayable",
      "type": "function"
    },
    {
      "constant": false,
      "inputs": [
        {
          "internalType": "string",
          "name": "_poll",
          "type": "string"
        }
      ],
      "name": "getproofsAsAddysSafer",
      "outputs": [
        {
          "internalType": "address[][]",
          "name": "",
          "type": "address[][]"
        }
      ],
      "payable": false,
      "stateMutability": "nonpayable",
      "type": "function"
    },
    {
      "constant": false,
      "inputs": [
        {
          "internalType": "string",
          "name": "_poll",
          "type": "string"
        },
        {
          "internalType": "string",
          "name": "_fnName",
          "type": "string"
        },
        {
          "internalType": "address",
          "name": "_stakerOrZero",
          "type": "address"
        },
        {
          "internalType": "uint8",
          "name": "_vt",
          "type": "uint8"
        },
        {
          "internalType": "bytes32[]",
          "name": "data",
          "type": "bytes32[]"
        }
      ],
      "name": "setCheckedInNoStaker",
      "outputs": [],
      "payable": false,
      "stateMutability": "nonpayable",
      "type": "function"
    },
    {
      "constant": false,
      "inputs": [
        {
          "internalType": "string",
          "name": "_poll",
          "type": "string"
        },
        {
          "internalType": "string",
          "name": "_fnName",
          "type": "string"
        },
        {
          "internalType": "address",
          "name": "_stakerOrZero",
          "type": "address"
        },
        {
          "internalType": "uint8",
          "name": "_vt",
          "type": "uint8"
        },
        {
          "internalType": "bytes32[]",
          "name": "data",
          "type": "bytes32[]"
        }
      ],
      "name": "setCheckedInWithStaker",
      "outputs": [],
      "payable": false,
      "stateMutability": "nonpayable",
      "type": "function"
    },
    {
      "constant": false,
      "inputs": [
        {
          "internalType": "string",
          "name": "_poll",
          "type": "string"
        },
        {
          "internalType": "string",
          "name": "_fnName",
          "type": "string"
        },
        {
          "internalType": "address",
          "name": "_stakerOrZero",
          "type": "address"
        },
        {
          "internalType": "uint8",
          "name": "_vt",
          "type": "uint8"
        },
        {
          "internalType": "bytes32[]",
          "name": "_data",
          "type": "bytes32[]"
        }
      ],
      "name": "set",
      "outputs": [],
      "payable": false,
      "stateMutability": "nonpayable",
      "type": "function"
    },
    {
      "constant": false,
      "inputs": [
        {
          "internalType": "string",
          "name": "_poll",
          "type": "string"
        },
        {
          "internalType": "string",
          "name": "_fnName",
          "type": "string"
        },
        {
          "internalType": "address",
          "name": "_staker",
          "type": "address"
        },
        {
          "internalType": "uint8",
          "name": "_vt",
          "type": "uint8"
        },
        {
          "internalType": "address",
          "name": "_newMember",
          "type": "address"
        }
      ],
      "name": "addStaker",
      "outputs": [],
      "payable": false,
      "stateMutability": "nonpayable",
      "type": "function"
    },
    {
      "constant": false,
      "inputs": [
        {
          "internalType": "string",
          "name": "_poll",
          "type": "string"
        },
        {
          "internalType": "address[]",
          "name": "_newProof",
          "type": "address[]"
        },
        {
          "internalType": "address",
          "name": "_impersonatedStaker",
          "type": "address"
        }
      ],
      "name": "checkIn",
      "outputs": [],
      "payable": false,
      "stateMutability": "nonpayable",
      "type": "function"
    },
    {
      "constant": false,
      "inputs": [
        {
          "internalType": "string",
          "name": "_poll",
          "type": "string"
        },
        {
          "internalType": "address",
          "name": "_impersonatedStaker",
          "type": "address"
        },
        {
          "internalType": "address[]",
          "name": "_newProof",
          "type": "address[]"
        }
      ],
      "name": "addProof",
      "outputs": [],
      "payable": false,
      "stateMutability": "nonpayable",
      "type": "function"
    },
    {
      "constant": false,
      "inputs": [
        {
          "internalType": "string",
          "name": "_poll",
          "type": "string"
        },
        {
          "internalType": "address[]",
          "name": "_newProof",
          "type": "address[]"
        }
      ],
      "name": "addProofSelf",
      "outputs": [],
      "payable": false,
      "stateMutability": "nonpayable",
      "type": "function"
    },
    {
      "constant": false,
      "inputs": [
        {
          "internalType": "string",
          "name": "_poll",
          "type": "string"
        }
      ],
      "name": "closeProofsWindow",
      "outputs": [],
      "payable": false,
      "stateMutability": "nonpayable",
      "type": "function"
    },
    {
      "constant": true,
      "inputs": [
        {
          "internalType": "string",
          "name": "_poll",
          "type": "string"
        },
        {
          "internalType": "address",
          "name": "_staker",
          "type": "address"
        }
      ],
      "name": "totalRepStaked",
      "outputs": [
        {
          "internalType": "uint256",
          "name": "",
          "type": "uint256"
        }
      ],
      "payable": false,
      "stateMutability": "view",
      "type": "function"
    },
    {
      "constant": true,
      "inputs": [
        {
          "internalType": "string",
          "name": "_poll",
          "type": "string"
        },
        {
          "internalType": "address",
          "name": "_staker",
          "type": "address"
        }
      ],
      "name": "totalVenueContribs",
      "outputs": [
        {
          "internalType": "uint256",
          "name": "total",
          "type": "uint256"
        }
      ],
      "payable": false,
      "stateMutability": "view",
      "type": "function"
    },
    {
      "constant": false,
      "inputs": [
        {
          "internalType": "string",
          "name": "_poll",
          "type": "string"
        },
        {
          "internalType": "address",
          "name": "_staker",
          "type": "address"
        }
      ],
      "name": "removeEmptyStake",
      "outputs": [],
      "payable": false,
      "stateMutability": "nonpayable",
      "type": "function"
    },
    {
      "constant": false,
      "inputs": [
        {
          "internalType": "string",
          "name": "_poll",
          "type": "string"
        }
      ],
      "name": "refundVenueStakes",
      "outputs": [],
      "payable": false,
      "stateMutability": "nonpayable",
      "type": "function"
    },
    {
      "constant": false,
      "inputs": [
        {
          "internalType": "string",
          "name": "_poll",
          "type": "string"
        },
        {
          "internalType": "string",
          "name": "_fnName",
          "type": "string"
        },
        {
          "internalType": "uint8",
          "name": "_vt",
          "type": "uint8"
        },
        {
          "internalType": "string",
          "name": "data",
          "type": "string"
        }
      ],
      "name": "setString",
      "outputs": [],
      "payable": false,
      "stateMutability": "nonpayable",
      "type": "function"
    },
    {
      "constant": false,
      "inputs": [
        {
          "internalType": "string",
          "name": "_poll",
          "type": "string"
        },
        {
          "internalType": "bytes32",
          "name": "_reveal",
          "type": "bytes32"
        }
      ],
      "name": "refundStake",
      "outputs": [],
      "payable": false,
      "stateMutability": "nonpayable",
      "type": "function"
    },
    {
      "constant": false,
      "inputs": [
        {
          "internalType": "address",
          "name": "_pollContract",
          "type": "address"
        },
        {
          "internalType": "string",
          "name": "_poll",
          "type": "string"
        },
        {
          "internalType": "bytes32",
          "name": "_reveal",
          "type": "bytes32"
        }
      ],
      "name": "validate",
      "outputs": [
        {
          "internalType": "bool",
          "name": "",
          "type": "bool"
        }
      ],
      "payable": false,
      "stateMutability": "nonpayable",
      "type": "function"
    },
    {
      "constant": true,
      "inputs": [
        {
          "internalType": "string",
          "name": "_poll",
          "type": "string"
        }
      ],
      "name": "deserialiseStakers",
      "outputs": [
        {
          "internalType": "address[]",
          "name": "",
          "type": "address[]"
        }
      ],
      "payable": false,
      "stateMutability": "pure",
      "type": "function"
    },
    {
      "constant": true,
      "inputs": [
        {
          "internalType": "string",
          "name": "_poll",
          "type": "string"
        },
        {
          "internalType": "uint8",
          "name": "validationType",
          "type": "uint8"
        }
      ],
      "name": "serialiseStakers",
      "outputs": [
        {
          "internalType": "address[]",
          "name": "",
          "type": "address[]"
        }
      ],
      "payable": false,
      "stateMutability": "pure",
      "type": "function"
    },
    {
      "constant": true,
      "inputs": [
        {
          "internalType": "string",
          "name": "_poll",
          "type": "string"
        },
        {
          "internalType": "uint8",
          "name": "validationType",
          "type": "uint8"
        }
      ],
      "name": "serialiseProofs",
      "outputs": [
        {
          "internalType": "address[]",
          "name": "",
          "type": "address[]"
        }
      ],
      "payable": false,
      "stateMutability": "pure",
      "type": "function"
    },
    {
      "constant": true,
      "inputs": [],
      "name": "proofType",
      "outputs": [
        {
          "internalType": "uint8",
          "name": "",
          "type": "uint8"
        }
      ],
      "payable": false,
      "stateMutability": "pure",
      "type": "function"
    },
    {
      "constant": true,
      "inputs": [
        {
          "internalType": "bytes",
          "name": "_bytes",
          "type": "bytes"
        }
      ],
      "name": "bytesToAddress",
      "outputs": [
        {
          "internalType": "address",
          "name": "",
          "type": "address"
        }
      ],
      "payable": false,
      "stateMutability": "pure",
      "type": "function"
    },
    {
      "constant": true,
      "inputs": [
        {
          "internalType": "address",
          "name": "account",
          "type": "address"
        }
      ],
      "name": "toString",
      "outputs": [
        {
          "internalType": "string",
          "name": "",
          "type": "string"
        }
      ],
      "payable": false,
      "stateMutability": "pure",
      "type": "function"
    },
    {
      "constant": true,
      "inputs": [
        {
          "internalType": "uint256",
          "name": "value",
          "type": "uint256"
        }
      ],
      "name": "toString",
      "outputs": [
        {
          "internalType": "string",
          "name": "",
          "type": "string"
        }
      ],
      "payable": false,
      "stateMutability": "pure",
      "type": "function"
    },
    {
      "constant": true,
      "inputs": [
        {
          "internalType": "bytes",
          "name": "data",
          "type": "bytes"
        },
        {
          "internalType": "uint16",
          "name": "len",
          "type": "uint16"
        }
      ],
      "name": "toString",
      "outputs": [
        {
          "internalType": "string",
          "name": "",
          "type": "string"
        }
      ],
      "payable": false,
      "stateMutability": "pure",
      "type": "function"
    },
    {
      "constant": true,
      "inputs": [
        {
          "internalType": "bytes32",
          "name": "value",
          "type": "bytes32"
        }
      ],
      "name": "toString",
      "outputs": [
        {
          "internalType": "string",
          "name": "",
          "type": "string"
        }
      ],
      "payable": false,
      "stateMutability": "pure",
      "type": "function"
    },
    {
      "constant": true,
      "inputs": [
        {
          "internalType": "bytes32",
          "name": "_bytes32",
          "type": "bytes32"
        }
      ],
      "name": "bytes32ToBytes",
      "outputs": [
        {
          "internalType": "bytes",
          "name": "",
          "type": "bytes"
        }
      ],
      "payable": false,
      "stateMutability": "pure",
      "type": "function"
    },
    {
      "constant": true,
      "inputs": [
        {
          "internalType": "bytes",
          "name": "b",
          "type": "bytes"
        }
      ],
      "name": "bytesToBytes32",
      "outputs": [
        {
          "internalType": "bytes32",
          "name": "bts",
          "type": "bytes32"
        }
      ],
      "payable": false,
      "stateMutability": "pure",
      "type": "function"
    },
    {
      "constant": true,
      "inputs": [
        {
          "internalType": "bytes32",
          "name": "_bytes32",
          "type": "bytes32"
        }
      ],
      "name": "bytes32ToString",
      "outputs": [
        {
          "internalType": "string",
          "name": "",
          "type": "string"
        }
      ],
      "payable": false,
      "stateMutability": "pure",
      "type": "function"
    },
    {
      "constant": true,
      "inputs": [
        {
          "internalType": "bytes32[]",
          "name": "data",
          "type": "bytes32[]"
        }
      ],
      "name": "bytes32ArrayToString",
      "outputs": [
        {
          "internalType": "string",
          "name": "",
          "type": "string"
        }
      ],
      "payable": false,
      "stateMutability": "pure",
      "type": "function"
    },
    {
      "constant": true,
      "inputs": [
        {
          "internalType": "string",
          "name": "source",
          "type": "string"
        }
      ],
      "name": "stringToBytes32Array",
      "outputs": [
        {
          "internalType": "bytes32[]",
          "name": "result",
          "type": "bytes32[]"
        }
      ],
      "payable": false,
      "stateMutability": "pure",
      "type": "function"
    },
    {
      "constant": true,
      "inputs": [
        {
          "internalType": "bytes",
          "name": "data",
          "type": "bytes"
        }
      ],
      "name": "bytesSplit32",
      "outputs": [
        {
          "internalType": "bytes32",
          "name": "",
          "type": "bytes32"
        },
        {
          "internalType": "bytes",
          "name": "",
          "type": "bytes"
        }
      ],
      "payable": false,
      "stateMutability": "pure",
      "type": "function"
    },
    {
      "constant": false,
      "inputs": [
        {
          "internalType": "bytes4",
          "name": "fnNameHash",
          "type": "bytes4"
        },
        {
          "internalType": "string",
          "name": "poll",
          "type": "string"
        },
        {
          "internalType": "uint256",
          "name": "valid",
          "type": "uint256"
        },
        {
          "internalType": "uint8",
          "name": "vt",
          "type": "uint8"
        }
      ],
      "name": "crossContractCall",
      "outputs": [
        {
          "internalType": "bytes32[]",
          "name": "",
          "type": "bytes32[]"
        }
      ],
      "payable": false,
      "stateMutability": "nonpayable",
      "type": "function"
    }
  ],
  "bytecode": "0x6080604052739d26a8a5db7dc10689692caf8d52c912958409cf600b60006101000a81548173ffffffffffffffffffffffffffffffffffffffff021916908373ffffffffffffffffffffffffffffffffffffffff16021790555034801561006557600080fd5b506159bc80620000766000396000f3fe6080604052600436106102ae5760003560e01c806363039be8116101755780639cbc87a3116100dc578063bfe370d911610095578063d76db9d61161006f578063d76db9d614610c0c578063e40a42ab14610c35578063f34d2c4c14610c72578063f963393014610caf576102ae565b8063bfe370d914610b69578063cd2eddfb14610ba6578063d6a7736914610be3576102ae565b80639cbc87a314610a0f578063a053795c14610a4c578063a1bac85f14610a89578063a2dd3d4714610ac6578063a5c9168f14610b03578063b11a19e814610b2c576102ae565b80638a9392c01161012e5780638a9392c0146108c95780638e3dca0b146109065780638fee464b14610943578063916520431461096c5780639201de55146109a95780639478485e146109e6576102ae565b806363039be8146107a75780636622f2cf146107d25780636900a3ae146107fb5780637682484d146108385780637c34d10814610861578063890eba681461089e576102ae565b80633e10510b1161021957806356024939116101d2578063560249391461067557806356ca623e146106b257806358666c04146106ef5780635a31204c146107185780635d8636c0146107555780636026ad9c1461077e576102ae565b80633e10510b1461050157806342526e4e1461053e5780634665ecb41461057b5780634a0f2fd7146105b85780634c0999c7146105fb578063507ad4db14610638576102ae565b806313311a1c1161026b57806313311a1c146103df5780631b3ed7221461041c5780632333d14b1461044857806323e512101461047157806326a9cdf71461049a5780632742bea8146104d8576102ae565b806302f3e676146102b857806305af5d35146102e1578063062ffb071461030c57806309421c25146103355780630dd990c71461035e57806310a688e31461039b575b6102b6610cda565b005b3480156102c457600080fd5b506102df60048036036102da919081019061456e565b610d27565b005b3480156102ed57600080fd5b506102f6610db5565b6040516103039190615488565b60405180910390f35b34801561031857600080fd5b50610333600480360361032e9190810190614615565b610dbe565b005b34801561034157600080fd5b5061035c60048036036103579190810190614344565b610eed565b005b34801561036a57600080fd5b5061038560048036036103809190810190614230565b610efc565b60405161039291906151ac565b60405180910390f35b3480156103a757600080fd5b506103c260048036036103bd9190810190614230565b6110ab565b6040516103d6989796959493929190615105565b60405180910390f35b3480156103eb57600080fd5b5061040660048036036104019190810190614197565b6110ff565b604051610413919061518a565b60405180910390f35b34801561042857600080fd5b50610431611268565b60405161043f92919061545f565b60405180910390f35b34801561045457600080fd5b5061046f600480360361046a9190810190614129565b61127d565b005b34801561047d57600080fd5b5061049860048036036104939190810190614271565b6112c4565b005b3480156104a657600080fd5b506104c160048036036104bc9190810190614094565b611447565b6040516104cf929190615226565b60405180910390f35b3480156104e457600080fd5b506104ff60048036036104fa91908101906146d4565b6115d2565b005b34801561050d57600080fd5b5061052860048036036105239190810190614483565b611640565b60405161053591906151ce565b60405180910390f35b34801561054a57600080fd5b5061056560048036036105609190810190614094565b6116e5565b6040516105729190615028565b60405180910390f35b34801561058757600080fd5b506105a2600480360361059d9190810190614230565b61170a565b6040516105af9190615428565b60405180910390f35b3480156105c457600080fd5b506105df60048036036105da91908101906141ef565b61178c565b6040516105f29796959493929190615095565b60405180910390f35b34801561060757600080fd5b50610622600480360361061d9190810190613f9c565b61183c565b60405161062f9190615256565b60405180910390f35b34801561064457600080fd5b5061065f600480360361065a9190810190614152565b6118e4565b60405161066c919061518a565b60405180910390f35b34801561068157600080fd5b5061069c60048036036106979190810190614197565b611a4c565b6040516106a9919061518a565b60405180910390f35b3480156106be57600080fd5b506106d960048036036106d49190810190613ecb565b611bb5565b6040516106e691906152ae565b60405180910390f35b3480156106fb57600080fd5b5061071660048036036107119190810190614230565b611be8565b005b34801561072457600080fd5b5061073f600480360361073a9190810190614230565b611c22565b60405161074c919061518a565b60405180910390f35b34801561076157600080fd5b5061077c600480360361077791908101906142c5565b611d38565b005b34801561078a57600080fd5b506107a560048036036107a09190810190613fc5565b611ecf565b005b3480156107b357600080fd5b506107bc611efb565b6040516107c99190615444565b60405180910390f35b3480156107de57600080fd5b506107f960048036036107f49190810190614230565b611f05565b005b34801561080757600080fd5b50610822600480360361081d919081019061477f565b612060565b60405161082f91906152ae565b60405180910390f35b34801561084457600080fd5b5061085f600480360361085a9190810190614615565b612093565b005b34801561086d57600080fd5b5061088860048036036108839190810190614271565b6121b8565b6040516108959190615444565b60405180910390f35b3480156108aa57600080fd5b506108b3612304565b6040516108c09190615278565b60405180910390f35b3480156108d557600080fd5b506108f060048036036108eb9190810190613ef4565b612317565b6040516108fd91906151f0565b60405180910390f35b34801561091257600080fd5b5061092d60048036036109289190810190614019565b6125da565b60405161093a91906151ce565b60405180910390f35b34801561094f57600080fd5b5061096a60048036036109659190810190614230565b612656565b005b34801561097857600080fd5b50610993600480360361098e9190810190614230565b6126cc565b6040516109a091906151ce565b60405180910390f35b3480156109b557600080fd5b506109d060048036036109cb9190810190613f9c565b612732565b6040516109dd91906152ae565b60405180910390f35b3480156109f257600080fd5b50610a0d6004803603610a089190810190614615565b612749565b005b348015610a1b57600080fd5b50610a366004803603610a319190810190613f5b565b612896565b604051610a4391906152ae565b60405180910390f35b348015610a5857600080fd5b50610a736004803603610a6e91908101906144ef565b612a59565b604051610a8091906151ce565b60405180910390f35b348015610a9557600080fd5b50610ab06004803603610aab91908101906140d5565b612b9d565b604051610abd91906152ae565b60405180910390f35b348015610ad257600080fd5b50610aed6004803603610ae89190810190613f9c565b612e1a565b604051610afa91906151ce565b60405180910390f35b348015610b0f57600080fd5b50610b2a6004803603610b2591908101906143b0565b612e85565b005b348015610b3857600080fd5b50610b536004803603610b4e9190810190613f9c565b612fe9565b604051610b6091906152ae565b60405180910390f35b348015610b7557600080fd5b50610b906004803603610b8b9190810190614094565b61301c565b604051610b9d919061520b565b60405180910390f35b348015610bb257600080fd5b50610bcd6004803603610bc891908101906144ef565b61302f565b604051610bda91906151ce565b60405180910390f35b348015610bef57600080fd5b50610c0a6004803603610c059190810190614615565b61316f565b005b348015610c1857600080fd5b50610c336004803603610c2e919081019061442f565b6132b8565b005b348015610c4157600080fd5b50610c5c6004803603610c579190810190614271565b613737565b604051610c699190615444565b60405180910390f35b348015610c7e57600080fd5b50610c996004803603610c949190810190614230565b6137a3565b604051610ca691906151ac565b60405180910390f35b348015610cbb57600080fd5b50610cc4613968565b604051610cd19190615293565b60405180910390f35b60606000368080601f016020809104026020016040519081016040528093929190818152602001838380828437600081840152601f19601f82011690508083019250505050505050905050565b600085610d3386613982565b84604051602001610d4693929190614fd4565b604051602081830303815290604052805190602001209050600260008281526020019081526020016000208260601b6bffffffffffffffffffffffff19169080600181540180825580915050906001820390600052602060002001600090919290919091505550505050505050565b60006001905090565b60008073ffffffffffffffffffffffffffffffffffffffff168473ffffffffffffffffffffffffffffffffffffffff161415610e2e5785610dfe86613982565b84604051602001610e1193929190614fd4565b604051602081830303815290604052805190602001209050610e66565b85610e3886613982565b8585604051602001610e4d9493929190614f8a565b6040516020818303038152906040528051906020012090505b60608251604051908082528060200260200182016040528015610e985781602001602082028038833980820191505090505b50905060008090505b83518161ffff161015610ebb578080600101915050610ea1565b5080600260008481526020019081526020016000209080519060200190610ee3929190613aae565b5050505050505050565b610ef8823383611d38565b5050565b606080610f0883611c22565b905060608151604051908082528060200260200182016040528015610f4157816020015b6060815260200190600190039081610f2c5790505b50905060008090505b82518161ffff1610156110a0576060610fb0866040518060400160405280600f81526020017f73657269616c69736550726f6f66730000000000000000000000000000000000815250868561ffff1681518110610fa357fe5b6020026020010151612a59565b905060608151604051908082528060200260200182016040528015610fe45781602001602082028038833980820191505090505b50905060008090505b82518161ffff1610156110905761102261101d848661ffff168151811061101057fe5b602002602001015161183c565b6116e5565b858261ffff168151811061103257fe5b60200260200101518561ffff168151811061104957fe5b602002602001019073ffffffffffffffffffffffffffffffffffffffff16908173ffffffffffffffffffffffffffffffffffffffff16815250508080600101915050610fed565b5050508080600101915050610f4a565b508092505050919050565b600080600080600080600060606103e89650619c40955060039450600393506501728eee956092506501728ef01c009150878787878787878797509750975097509750975097509750919395975091939597565b60608060046040519080825280602002602001820160405280156111325781602001602082028038833980820191505090505b50905060006005600060058393508292508191508090508460008151811061115657fe5b602002602001018560018151811061116a57fe5b602002602001018660028151811061117e57fe5b602002602001018760038151811061119257fe5b602002602001018473ffffffffffffffffffffffffffffffffffffffff1673ffffffffffffffffffffffffffffffffffffffff168152508473ffffffffffffffffffffffffffffffffffffffff1673ffffffffffffffffffffffffffffffffffffffff168152508473ffffffffffffffffffffffffffffffffffffffff1673ffffffffffffffffffffffffffffffffffffffff168152508473ffffffffffffffffffffffffffffffffffffffff1673ffffffffffffffffffffffffffffffffffffffff1681525050505050809150509392505050565b60008060056004819150809050915091509091565b80600960006101000a81548173ffffffffffffffffffffffffffffffffffffffff021916908360130b73ffffffffffffffffffffffffffffffffffffffff16021790555050565b60006003836040516112d69190614f73565b908152602001604051809103902060080160003373ffffffffffffffffffffffffffffffffffffffff1673ffffffffffffffffffffffffffffffffffffffff168152602001908152602001600020600001549050600061133684846121b8565b90506000821480156113485750600081145b611387576040517f08c379a000000000000000000000000000000000000000000000000000000000815260040161137e90615388565b60405180910390fd5b6003846040516113979190614f73565b908152602001604051809103902060080160003373ffffffffffffffffffffffffffffffffffffffff1673ffffffffffffffffffffffffffffffffffffffff1681526020019081526020016000206000808201600090556001820160006113fe9190613afb565b600282016000905550507fbcdb1351c7b0043b8c36c050954a8f50bd16196d7f967f2e0c7b2a17440d597984336040516114399291906152d0565b60405180910390a150505050565b6000606060006020905060008090508160ff168551111561146c578160ff1685510390505b600060608360ff166040519080825280601f01601f1916602001820160405280156114a65781602001600182028038833980820191505090505b5090506060836040519080825280601f01601f1916602001820160405280156114de5781602001600182028038833980820191505090505b50905060008090505b600189510381116115b9578560ff168110156115545788818151811061150957fe5b602001015160f81c60f81b83828151811061152057fe5b60200101907effffffffffffffffffffffffffffffffffffffffffffffffffffffffffffff1916908160001a9053506115ac565b88818151811061156057fe5b602001015160f81c60f81b828760ff1683038151811061157c57fe5b60200101907effffffffffffffffffffffffffffffffffffffffffffffffffffffffffffff1916908160001a9053505b80806001019150506114e7565b506115c38261301c565b81965096505050505050915091565b6000846115de85613982565b846040516020016115f193929190614fd4565b604051602081830303815290604052805190602001209050611612826126cc565b600260008381526020019081526020016000209080519060200190611638929190613aae565b505050505050565b606060008361164e84613982565b600160405160200161166293929190614fd4565b604051602081830303815290604052805190602001209050600260008281526020019081526020016000208054806020026020016040519081016040528092919081815260200182805480156116d757602002820191906000526020600020905b8154815260200190600101908083116116c3575b505050505091505092915050565b6000806c01000000000000000000000000600060208501015104905080915050919050565b611712613b1f565b6103e8816020018181525050619c40816040018181525050619c408160600181815250506003816080019060ff16908160ff168152505060038160a0019060ff16908160ff16815250506501728eee95608160c0015160000181815250506501728ef01c008160c001516020018181525050809050919050565b6003818051602081018201805184825260208301602085012081835280955050505050506000915090508060000160009054906101000a900473ffffffffffffffffffffffffffffffffffffffff16908060010154908060020154908060030154908060040160009054906101000a900460ff16908060050160405180604001604052908160008201548152602001600182015481525050908060070160009054906101000a900460ff16905087565b60608060206040519080825280601f01601f1916602001820160405280156118735781602001600182028038833980820191505090505b50905060005b60208110156118da5783816020811061188e57fe5b1a60f81b82828151811061189e57fe5b60200101907effffffffffffffffffffffffffffffffffffffffffffffffffffffffffffff1916908160001a9053508080600101915050611879565b5080915050919050565b60608060046040519080825280602002602001820160405280156119175781602001602082028038833980820191505090505b50905060056000600560008393508292508191508090508460008151811061193b57fe5b602002602001018560018151811061194f57fe5b602002602001018660028151811061196357fe5b602002602001018760038151811061197757fe5b602002602001018473ffffffffffffffffffffffffffffffffffffffff1673ffffffffffffffffffffffffffffffffffffffff168152508473ffffffffffffffffffffffffffffffffffffffff1673ffffffffffffffffffffffffffffffffffffffff168152508473ffffffffffffffffffffffffffffffffffffffff1673ffffffffffffffffffffffffffffffffffffffff168152508473ffffffffffffffffffffffffffffffffffffffff1673ffffffffffffffffffffffffffffffffffffffff16815250505050508091505092915050565b6060806004604051908082528060200260200182016040528015611a7f5781602001602082028038833980820191505090505b509050600560006005600083935082925081915080905084600081518110611aa357fe5b6020026020010185600181518110611ab757fe5b6020026020010186600281518110611acb57fe5b6020026020010187600381518110611adf57fe5b602002602001018473ffffffffffffffffffffffffffffffffffffffff1673ffffffffffffffffffffffffffffffffffffffff168152508473ffffffffffffffffffffffffffffffffffffffff1673ffffffffffffffffffffffffffffffffffffffff168152508473ffffffffffffffffffffffffffffffffffffffff1673ffffffffffffffffffffffffffffffffffffffff168152508473ffffffffffffffffffffffffffffffffffffffff1673ffffffffffffffffffffffffffffffffffffffff1681525050505050809150509392505050565b6060611be182604051602001611bcb9190614f3d565b6040516020818303038152906040526005612b9d565b9050919050565b7fbef39ac07ea6b8a7a08590612f317b1db2e9821fea4739345478345d853321e781604051611c1791906152ae565b60405180910390a150565b606080611c64836040518060400160405280601081526020017f73657269616c6973655374616b65727300000000000000000000000000000000815250611640565b905060608151604051908082528060200260200182016040528015611c985781602001602082028038833980820191505090505b50905060008090505b82518161ffff161015611d2d57611cd6611cd1848361ffff1681518110611cc457fe5b602002602001015161183c565b6116e5565b828261ffff1681518110611ce657fe5b602002602001019073ffffffffffffffffffffffffffffffffffffffff16908173ffffffffffffffffffffffffffffffffffffffff16815250508080600101915050611ca1565b508092505050919050565b600082905060608251604051908082528060200260200182016040528015611d6f5781602001602082028038833980820191505090505b509050600085611db36040518060400160405280600f81526020017f73657269616c69736550726f6f66730000000000000000000000000000000000815250613982565b866001604051602001611dc99493929190614f8a565b60405160208183030381529060405280519060200120905060008090505b84518161ffff161015611e4757848161ffff1681518110611e0457fe5b602002602001015160601b6bffffffffffffffffffffffff1916838261ffff1681518110611e2e57fe5b6020026020010181815250508080600101915050611de7565b50600060026000838152602001908152602001600020805490501115611e9f577fd0adafca5f88ebee186251179caad6d29ee5ad555a79bfe4d8a00e3a87988a2b83604051611e969190615028565b60405180910390a15b81600260008381526020019081526020016000209080519060200190611ec6929190613aae565b50505050505050565b80600260008481526020019081526020016000209080519060200190611ef6929190613aae565b505050565b6000610bb8905090565b806060611f1182611c22565b9050600080600090505b8251811015611f7d573373ffffffffffffffffffffffffffffffffffffffff16838281518110611f4757fe5b602002602001015173ffffffffffffffffffffffffffffffffffffffff161415611f7057600191505b8080600101915050611f1b565b5080611fbe576040517f08c379a0000000000000000000000000000000000000000000000000000000008152600401611fb5906153a8565b60405180910390fd5b6060611fc985611c22565b905060006120028251600388604051611fe29190614f73565b90815260200160405180910390206002015461399390919063ffffffff16565b905060006003876040516120169190614f73565b9081526020016040518091039020600201546003886040516120389190614f73565b90815260200160405180910390206003015403905061205787336112c4565b50505050505050565b606061208c82604051602001612076919061500d565b6040516020818303038152906040526000612b9d565b9050919050565b60008561209f86613982565b85856040516020016120b49493929190614f8a565b6040516020818303038152906040528051906020012090507fee5443e0769176cacb5e7cebe33b561327ef2a06863e7fa72ec9be7cc2d82b60866120f787613982565b868660405160200161210c9493929190614f8a565b6040516020818303038152906040526040516121289190615256565b60405180910390a17fa457a29197b7db5513e7fa40d359d53b392afa4785e7b4e899898a92798d48498160405161215f919061520b565b60405180910390a17fd2fc72c97aeb0e8367f33ed670eff5bed73dab77cab530bd44311a95ae547398868686866121978b8b8b612a59565b6040516121a8959493929190615300565b60405180910390a1505050505050565b60006003836040516121ca9190614f73565b908152602001604051809103902060080160008373ffffffffffffffffffffffffffffffffffffffff1673ffffffffffffffffffffffffffffffffffffffff16815260200190815260200160002060030160008073ffffffffffffffffffffffffffffffffffffffff1673ffffffffffffffffffffffffffffffffffffffff168152602001908152602001600020546003846040516122699190614f73565b908152602001604051809103902060080160008473ffffffffffffffffffffffffffffffffffffffff1673ffffffffffffffffffffffffffffffffffffffff16815260200190815260200160002060030160008473ffffffffffffffffffffffffffffffffffffffff1673ffffffffffffffffffffffffffffffffffffffff1681526020019081526020016000205401905080905092915050565b600960009054906101000a900460130b81565b6000606061232484611c22565b9050606061233185610efc565b905060008060008060019050600093505b85518461ffff1610156124e257600091503373ffffffffffffffffffffffffffffffffffffffff16868561ffff168151811061237a57fe5b602002602001015173ffffffffffffffffffffffffffffffffffffffff1614156123a2578392505b60008090505b858561ffff16815181106123b857fe5b6020026020010151518110156124d4573373ffffffffffffffffffffffffffffffffffffffff16868661ffff16815181106123ef57fe5b6020026020010151828151811061240257fe5b602002602001015173ffffffffffffffffffffffffffffffffffffffff16141561242b57600192505b600a6000878761ffff168151811061243f57fe5b6020026020010151838151811061245257fe5b602002602001015173ffffffffffffffffffffffffffffffffffffffff1673ffffffffffffffffffffffffffffffffffffffff168152602001908152602001600020600081819054906101000a900461ffff168092919060010191906101000a81548161ffff021916908361ffff1602179055505080806001019150506123a8565b508380600101945050612342565b8060ff16600a60003373ffffffffffffffffffffffffffffffffffffffff1673ffffffffffffffffffffffffffffffffffffffff16815260200190815260200160002060009054906101000a900461ffff1661ffff16101580156125b857506002600a60003373ffffffffffffffffffffffffffffffffffffffff1673ffffffffffffffffffffffffffffffffffffffff16815260200190815260200160002060009054906101000a900461ffff1661ffff16868661ffff16815181106125a557fe5b602002602001015151816125b557fe5b04105b156125cc57600196505050505050506125d3565b5050505050505b9392505050565b60606000600b60009054906101000a900473ffffffffffffffffffffffffffffffffffffffff1690507f1ff50e4650f7f1e5b26a5f5e921b803deee4a95a1b6ef46e05992b3bc1dcdb8c60405160405180910390a160405136600082376000803683855af43d806000843e8160008114612652578184f35b8184fd5b60016003826040516126689190614f73565b908152602001604051809103902060070160006101000a81548160ff0219169083151502179055507fc2b1ad619f75c5b190b6f26a4b118a5ec58ad98a0a76cef82a67099f76c0333681336040516126c19291906152d0565b60405180910390a150565b606060006001905060008090505b8161ffff168161ffff1611612728576000600182016020029050600081860151905080858461ffff168151811061270d57fe5b602002602001018181525050505080806001019150506126da565b5081915050919050565b60608061273e8361183c565b905080915050919050565b60008561275586613982565b858560405160200161276a9493929190614f8a565b6040516020818303038152906040528051906020012090507fee5443e0769176cacb5e7cebe33b561327ef2a06863e7fa72ec9be7cc2d82b60866127ad87613982565b86866040516020016127c29493929190614f8a565b6040516020818303038152906040526040516127de9190615256565b60405180910390a17fa457a29197b7db5513e7fa40d359d53b392afa4785e7b4e899898a92798d484981604051612815919061520b565b60405180910390a181600260008381526020019081526020016000209080519060200190612844929190613aae565b507fd2fc72c97aeb0e8367f33ed670eff5bed73dab77cab530bd44311a95ae547398868686866128758b8b8b612a59565b604051612886959493929190615300565b60405180910390a1505050505050565b60608060208351026040519080825280601f01601f1916602001820160405280156128d05781602001600182028038833980820191505090505b50905060008060009050600090505b84518110156129a95760008090505b602081101561299b5760008160080260020a87848151811061290c57fe5b602002602001015160001c0260001b9050600060f81b817effffffffffffffffffffffffffffffffffffffffffffffffffffffffffffff19161461298d578085858151811061295757fe5b60200101907effffffffffffffffffffffffffffffffffffffffffffffffffffffffffffff1916908160001a9053506001840193505b5080806001019150506128ee565b5080806001019150506128df565b6060826040519080825280601f01601f1916602001820160405280156129de5781602001600182028038833980820191505090505b509050600091505b82821015612a4d578382815181106129fa57fe5b602001015160f81c60f81b818381518110612a1157fe5b60200101907effffffffffffffffffffffffffffffffffffffffffffffffffffffffffffff1916908160001a90535081806001019250506129e6565b80945050505050919050565b6060600084612a6785613982565b846001604051602001612a7d9493929190614f8a565b6040516020818303038152906040528051906020012090507fee5443e0769176cacb5e7cebe33b561327ef2a06863e7fa72ec9be7cc2d82b6085612ac086613982565b856001604051602001612ad69493929190614f8a565b604051602081830303815290604052604051612af29190615256565b60405180910390a17fa457a29197b7db5513e7fa40d359d53b392afa4785e7b4e899898a92798d484981604051612b29919061520b565b60405180910390a160026000828152602001908152602001600020805480602002602001604051908101604052809291908181526020018280548015612b8e57602002820191906000526020600020905b815481526020019060010190808311612b7a575b50505050509150509392505050565b6060806040518060400160405280601081526020017f3031323334353637383961626364656600000000000000000000000000000000815250905060006014905060606002820260020161ffff166040519080825280601f01601f191660200182016040528015612c1d5781602001600182028038833980820191505090505b5090507f300000000000000000000000000000000000000000000000000000000000000081600081518110612c4e57fe5b60200101907effffffffffffffffffffffffffffffffffffffffffffffffffffffffffffff1916908160001a9053507f780000000000000000000000000000000000000000000000000000000000000081600181518110612cab57fe5b60200101907effffffffffffffffffffffffffffffffffffffffffffffffffffffffffffff1916908160001a90535060008090505b8261ffff16811015612e0d57836004888381518110612cfb57fe5b602001015160f81c60f81b7effffffffffffffffffffffffffffffffffffffffffffffffffffffffffffff1916901c60f81c60ff1681518110612d3a57fe5b602001015160f81c60f81b826002830260020181518110612d5757fe5b60200101907effffffffffffffffffffffffffffffffffffffffffffffffffffffffffffff1916908160001a90535083600f60f81b888381518110612d9857fe5b602001015160f81c60f81b1660f81c60ff1681518110612db457fe5b602001015160f81c60f81b826002830260030181518110612dd157fe5b60200101907effffffffffffffffffffffffffffffffffffffffffffffffffffffffffffff1916908160001a9053508080600101915050612ce0565b5080935050505092915050565b606060026000838152602001908152602001600020805480602002602001604051908101604052809291908181526020018280548015612e7957602002820191906000526020600020905b815481526020019060010190808311612e65575b50505050509050919050565b60008190506000600385604051612e9c9190614f73565b908152602001604051809103902060090160008373ffffffffffffffffffffffffffffffffffffffff1673ffffffffffffffffffffffffffffffffffffffff16815260200190815260200160002060009054906101000a900461ffff1690506000809050600060608651604051908082528060200260200182016040528015612f345781602001602082028038833980820191505090505b509050600091505b86518261ffff161015612f9c57868261ffff1681518110612f5957fe5b602002602001015160601b6bffffffffffffffffffffffff1916818361ffff1681518110612f8357fe5b6020026020010181815250508180600101925050612f3c565b612fdf886040518060400160405280600f81526020017f73657269616c69736550726f6f6673000000000000000000000000000000000081525087600185610dbe565b5050505050505050565b606061301582604051602001612fff9190614f58565b6040516020818303038152906040526000612b9d565b9050919050565b6000806020830151905080915050919050565b606060008461303d85613982565b600160405160200161305193929190614fd4565b6040516020818303038152906040528051906020012090507fee5443e0769176cacb5e7cebe33b561327ef2a06863e7fa72ec9be7cc2d82b608561309486613982565b60016040516020016130a893929190614fd4565b6040516020818303038152906040526040516130c49190615256565b60405180910390a17fa457a29197b7db5513e7fa40d359d53b392afa4785e7b4e899898a92798d4849816040516130fb919061520b565b60405180910390a16002600082815260200190815260200160002080548060200260200160405190810160405280929190818152602001828054801561316057602002820191906000526020600020905b81548152602001906001019080831161314c575b50505050509150509392505050565b60008561317b86613982565b8460405160200161318e93929190614fd4565b6040516020818303038152906040528051906020012090507fee5443e0769176cacb5e7cebe33b561327ef2a06863e7fa72ec9be7cc2d82b60866131d187613982565b856040516020016131e493929190614fd4565b6040516020818303038152906040526040516132009190615256565b60405180910390a17fa457a29197b7db5513e7fa40d359d53b392afa4785e7b4e899898a92798d484981604051613237919061520b565b60405180910390a181600260008381526020019081526020016000209080519060200190613266929190613aae565b507fd2fc72c97aeb0e8367f33ed670eff5bed73dab77cab530bd44311a95ae547398868686866132978b8b8b61302f565b6040516132a8959493929190615300565b60405180910390a1505050505050565b60006003836040516132ca9190614f73565b908152602001604051809103902060080160003373ffffffffffffffffffffffffffffffffffffffff1673ffffffffffffffffffffffffffffffffffffffff168152602001908152602001600020600001541161335c576040517f08c379a0000000000000000000000000000000000000000000000000000000008152600401613353906153c8565b60405180910390fd5b600060038360405161336e9190614f73565b908152602001604051809103902060090160003373ffffffffffffffffffffffffffffffffffffffff1673ffffffffffffffffffffffffffffffffffffffff16815260200190815260200160002060009054906101000a900461ffff1661ffff161161340f576040517f08c379a000000000000000000000000000000000000000000000000000000000815260040161340690615368565b60405180910390fd5b61341b60008383612317565b613491577ff79d39278918f1a3dc8522bfdea96d506ed15dd2cc97156b182f5c8895ab7b713360405161344e9190615043565b60405180910390a16040517f08c379a000000000000000000000000000000000000000000000000000000000815260040161348890615408565b60405180910390fd5b60008061349c611268565b915091506000816135176003876040516134b69190614f73565b908152602001604051809103902060080160003373ffffffffffffffffffffffffffffffffffffffff1673ffffffffffffffffffffffffffffffffffffffff16815260200190815260200160002060000154856139dd90919063ffffffff16565b8161351e57fe5b049050613529611efb565b81600160003373ffffffffffffffffffffffffffffffffffffffff1673ffffffffffffffffffffffffffffffffffffffff168152602001908152602001600020540111156135d6576003856040516135819190614f73565b908152602001604051809103902060080160003373ffffffffffffffffffffffffffffffffffffffff1673ffffffffffffffffffffffffffffffffffffffff1681526020019081526020016000206000015490505b60006003866040516135e89190614f73565b908152602001604051809103902060080160003373ffffffffffffffffffffffffffffffffffffffff1673ffffffffffffffffffffffffffffffffffffffff1681526020019081526020016000206000018190555080600160003373ffffffffffffffffffffffffffffffffffffffff1673ffffffffffffffffffffffffffffffffffffffff168152602001908152602001600020600082825401925050819055507f391dd8dd49c61a65c7ebe8745ea4c81bc4d5a6dd59d8bda3ba1f9a9114bf64eb336003876040516136bc9190614f73565b908152602001604051809103902060080160003373ffffffffffffffffffffffffffffffffffffffff1673ffffffffffffffffffffffffffffffffffffffff168152602001908152602001600020600001548360405161371e9392919061505e565b60405180910390a161373085336112c4565b5050505050565b60006003836040516137499190614f73565b908152602001604051809103902060080160008373ffffffffffffffffffffffffffffffffffffffff1673ffffffffffffffffffffffffffffffffffffffff16815260200190815260200160002060000154905092915050565b6060806137af83611c22565b9050606081516040519080825280602002602001820160405280156137e857816020015b60608152602001906001900390816137d35790505b509050606060008090505b83518161ffff16101561395c57613857866040518060400160405280600f81526020017f73657269616c69736550726f6f66730000000000000000000000000000000000815250868461ffff168151811061384a57fe5b6020026020010151612a59565b915081516040519080825280602002602001820160405280156138895781602001602082028038833980820191505090505b50838261ffff168151811061389a57fe5b602002602001018190525060008090505b82518161ffff16101561394e576138e06138db848461ffff16815181106138ce57fe5b602002602001015161183c565b6116e5565b848361ffff16815181106138f057fe5b60200260200101518261ffff168151811061390757fe5b602002602001019073ffffffffffffffffffffffffffffffffffffffff16908173ffffffffffffffffffffffffffffffffffffffff168152505080806001019150506138ab565b5080806001019150506137f3565b50819350505050919050565b6000600960009054906101000a900460130b60130b905090565b600081805190602001209050919050565b60006139d583836040518060400160405280601a81526020017f536166654d6174683a206469766973696f6e206279207a65726f000000000000815250613a4d565b905092915050565b6000808314156139f05760009050613a47565b6000828402905082848281613a0157fe5b0414613a42576040517f08c379a0000000000000000000000000000000000000000000000000000000008152600401613a39906153e8565b60405180910390fd5b809150505b92915050565b60008083118290613a94576040517f08c379a0000000000000000000000000000000000000000000000000000000008152600401613a8b91906152ae565b60405180910390fd5b506000838581613aa057fe5b049050809150509392505050565b828054828255906000526020600020908101928215613aea579160200282015b82811115613ae9578251825591602001919060010190613ace565b5b509050613af79190613b7e565b5090565b5080546000825560020290600052602060002090810190613b1c9190613ba3565b50565b6040518060e00160405280600073ffffffffffffffffffffffffffffffffffffffff168152602001600081526020016000815260200160008152602001600060ff168152602001600060ff168152602001613b78613bd2565b81525090565b613ba091905b80821115613b9c576000816000905550600101613b84565b5090565b90565b613bcf91905b80821115613bcb57600080820160009055600182016000905550600201613ba9565b5090565b90565b604051806040016040528060008152602001600081525090565b600081359050613bfb816158d8565b92915050565b600082601f830112613c1257600080fd5b8135613c25613c20826154d0565b6154a3565b91508181835260208401935060208101905083856020840282011115613c4a57600080fd5b60005b83811015613c7a5781613c608882613bec565b845260208401935060208301925050600181019050613c4d565b5050505092915050565b600082601f830112613c9557600080fd5b8135613ca8613ca3826154f8565b6154a3565b91508181835260208401935060208101905083856020840282011115613ccd57600080fd5b60005b83811015613cfd5781613ce38882613d07565b845260208401935060208301925050600181019050613cd0565b5050505092915050565b600081359050613d16816158ef565b92915050565b600081359050613d2b81615906565b92915050565b600082601f830112613d4257600080fd5b8135613d55613d5082615520565b6154a3565b91508082526020830160208301858383011115613d7157600080fd5b613d7c838284615817565b50505092915050565b600081359050613d948161591d565b92915050565b60008083601f840112613dac57600080fd5b8235905067ffffffffffffffff811115613dc557600080fd5b602083019150836001820283011115613ddd57600080fd5b9250929050565b600082601f830112613df557600080fd5b8135613e08613e038261554c565b6154a3565b91508082526020830160208301858383011115613e2457600080fd5b613e2f838284615817565b50505092915050565b600082601f830112613e4957600080fd5b8135613e5c613e5782615578565b6154a3565b91508082526020830160208301858383011115613e7857600080fd5b613e83838284615817565b50505092915050565b600081359050613e9b81615934565b92915050565b600081359050613eb08161594b565b92915050565b600081359050613ec581615962565b92915050565b600060208284031215613edd57600080fd5b6000613eeb84828501613bec565b91505092915050565b600080600060608486031215613f0957600080fd5b6000613f1786828701613bec565b935050602084013567ffffffffffffffff811115613f3457600080fd5b613f4086828701613e38565b9250506040613f5186828701613d07565b9150509250925092565b600060208284031215613f6d57600080fd5b600082013567ffffffffffffffff811115613f8757600080fd5b613f9384828501613c84565b91505092915050565b600060208284031215613fae57600080fd5b6000613fbc84828501613d07565b91505092915050565b60008060408385031215613fd857600080fd5b6000613fe685828601613d07565b925050602083013567ffffffffffffffff81111561400357600080fd5b61400f85828601613c84565b9150509250929050565b6000806000806080858703121561402f57600080fd5b600061403d87828801613d1c565b945050602085013567ffffffffffffffff81111561405a57600080fd5b61406687828801613e38565b935050604061407787828801613ea1565b925050606061408887828801613eb6565b91505092959194509250565b6000602082840312156140a657600080fd5b600082013567ffffffffffffffff8111156140c057600080fd5b6140cc84828501613d31565b91505092915050565b600080604083850312156140e857600080fd5b600083013567ffffffffffffffff81111561410257600080fd5b61410e85828601613d31565b925050602061411f85828601613e8c565b9150509250929050565b60006020828403121561413b57600080fd5b600061414984828501613d85565b91505092915050565b6000806020838503121561416557600080fd5b600083013567ffffffffffffffff81111561417f57600080fd5b61418b85828601613d9a565b92509250509250929050565b6000806000604084860312156141ac57600080fd5b600084013567ffffffffffffffff8111156141c657600080fd5b6141d286828701613d9a565b935093505060206141e586828701613eb6565b9150509250925092565b60006020828403121561420157600080fd5b600082013567ffffffffffffffff81111561421b57600080fd5b61422784828501613de4565b91505092915050565b60006020828403121561424257600080fd5b600082013567ffffffffffffffff81111561425c57600080fd5b61426884828501613e38565b91505092915050565b6000806040838503121561428457600080fd5b600083013567ffffffffffffffff81111561429e57600080fd5b6142aa85828601613e38565b92505060206142bb85828601613bec565b9150509250929050565b6000806000606084860312156142da57600080fd5b600084013567ffffffffffffffff8111156142f457600080fd5b61430086828701613e38565b935050602061431186828701613bec565b925050604084013567ffffffffffffffff81111561432e57600080fd5b61433a86828701613c01565b9150509250925092565b6000806040838503121561435757600080fd5b600083013567ffffffffffffffff81111561437157600080fd5b61437d85828601613e38565b925050602083013567ffffffffffffffff81111561439a57600080fd5b6143a685828601613c01565b9150509250929050565b6000806000606084860312156143c557600080fd5b600084013567ffffffffffffffff8111156143df57600080fd5b6143eb86828701613e38565b935050602084013567ffffffffffffffff81111561440857600080fd5b61441486828701613c01565b925050604061442586828701613bec565b9150509250925092565b6000806040838503121561444257600080fd5b600083013567ffffffffffffffff81111561445c57600080fd5b61446885828601613e38565b925050602061447985828601613d07565b9150509250929050565b6000806040838503121561449657600080fd5b600083013567ffffffffffffffff8111156144b057600080fd5b6144bc85828601613e38565b925050602083013567ffffffffffffffff8111156144d957600080fd5b6144e585828601613e38565b9150509250929050565b60008060006060848603121561450457600080fd5b600084013567ffffffffffffffff81111561451e57600080fd5b61452a86828701613e38565b935050602084013567ffffffffffffffff81111561454757600080fd5b61455386828701613e38565b925050604061456486828701613bec565b9150509250925092565b600080600080600060a0868803121561458657600080fd5b600086013567ffffffffffffffff8111156145a057600080fd5b6145ac88828901613e38565b955050602086013567ffffffffffffffff8111156145c957600080fd5b6145d588828901613e38565b94505060406145e688828901613bec565b93505060606145f788828901613eb6565b925050608061460888828901613bec565b9150509295509295909350565b600080600080600060a0868803121561462d57600080fd5b600086013567ffffffffffffffff81111561464757600080fd5b61465388828901613e38565b955050602086013567ffffffffffffffff81111561467057600080fd5b61467c88828901613e38565b945050604061468d88828901613bec565b935050606061469e88828901613eb6565b925050608086013567ffffffffffffffff8111156146bb57600080fd5b6146c788828901613c84565b9150509295509295909350565b600080600080608085870312156146ea57600080fd5b600085013567ffffffffffffffff81111561470457600080fd5b61471087828801613e38565b945050602085013567ffffffffffffffff81111561472d57600080fd5b61473987828801613e38565b935050604061474a87828801613eb6565b925050606085013567ffffffffffffffff81111561476757600080fd5b61477387828801613e38565b91505092959194509250565b60006020828403121561479157600080fd5b600061479f84828501613ea1565b91505092915050565b60006147b48383614813565b60208301905092915050565b60006147cc83836148a6565b905092915050565b60006147e083836149d7565b60a08301905092915050565b60006147f88383614a9b565b60208301905092915050565b61480d816157e1565b82525050565b61481c81615731565b82525050565b61482b81615731565b82525050565b61484261483d82615731565b615859565b82525050565b600061485382615609565b61485d81856156b5565b9350614868836155b4565b8060005b8381101561489957815161488088826147a8565b975061488b83615663565b92505060018101905061486c565b5085935050505092915050565b60006148b1826155fe565b6148bb81856156a4565b93506148c6836155a4565b8060005b838110156148f75781516148de88826147a8565b97506148e983615656565b9250506001810190506148ca565b5085935050505092915050565b600061490f82615614565b61491981856156c6565b93508360208202850161492b856155c4565b8060005b85811015614967578484038952815161494885826147c0565b945061495383615670565b925060208a0199505060018101905061492f565b50829750879550505050505092915050565b60006149848261561f565b61498e81856156d7565b9350614999836155d4565b8060005b838110156149ca5781516149b188826147d4565b97506149bc8361567d565b92505060018101905061499d565b5085935050505092915050565b6149e08161562a565b6149ea81846156e8565b92506149f5826155e4565b8060005b83811015614a26578151614a0d87826147ec565b9650614a188361568a565b9250506001810190506149f9565b505050505050565b6000614a3982615635565b614a4381856156f3565b9350614a4e836155ee565b8060005b83811015614a7f578151614a6688826147ec565b9750614a7183615697565b925050600181019050614a52565b5085935050505092915050565b614a9581615743565b82525050565b614aa48161574f565b82525050565b614ab38161574f565b82525050565b614aca614ac58261574f565b61586b565b82525050565b614ae1614adc82615759565b615875565b82525050565b6000614af282615640565b614afc8185615704565b9350614b0c818560208601615826565b614b15816158ad565b840191505092915050565b614b2981615785565b82525050565b614b3881615792565b82525050565b6000614b498261564b565b614b538185615715565b9350614b63818560208601615826565b614b6c816158ad565b840191505092915050565b6000614b828261564b565b614b8c8185615726565b9350614b9c818560208601615826565b80840191505092915050565b6000614bb5603a83615715565b91507f53656e64657220686173206e6f74207375626d697474656420616e206174746560008301527f6e64616e63652070726f6f6620666f72207468697320706f6c6c0000000000006020830152604082019050919050565b6000614c1b603083615715565b91507f5374616b657220686173206e6f6e20656d707479207374616b65206f7220766560008301527f6e756520636f6e747269627574696f6e000000000000000000000000000000006020830152604082019050919050565b6000614c81603483615715565b91507f46756e6374696f6e206d6179206f6e6c792062652063616c6c6564206279206160008301527f207374616b6572206f6e207468697320706f6c6c0000000000000000000000006020830152604082019050919050565b6000614ce7602783615715565b91507f53656e64657220686173206e6f7468696e67207374616b656420666f7220746860008301527f697320706f6c6c000000000000000000000000000000000000000000000000006020830152604082019050919050565b6000614d4d602183615715565b91507f536166654d6174683a206d756c7469706c69636174696f6e206f766572666c6f60008301527f77000000000000000000000000000000000000000000000000000000000000006020830152604082019050919050565b6000614db3600d83615715565b91507f496e76616c69642070726f6f66000000000000000000000000000000000000006000830152602082019050919050565b61010082016000820151614dfd6000850182614813565b506020820151614e106020850182614ed3565b506040820151614e236040850182614ed3565b506060820151614e366060850182614ed3565b506080820151614e496080850182614f08565b5060a0820151614e5c60a0850182614f08565b5060c0820151614e6f60c0850182614e75565b50505050565b604082016000820151614e8b6000850182614ed3565b506020820151614e9e6020850182614ed3565b50505050565b604082016000820151614eba6000850182614ed3565b506020820151614ecd6020850182614ed3565b50505050565b614edc816157ca565b82525050565b614eeb816157ca565b82525050565b614f02614efd826157ca565b615891565b82525050565b614f11816157d4565b82525050565b614f20816157d4565b82525050565b614f37614f32826157d4565b61589b565b82525050565b6000614f498284614831565b60148201915081905092915050565b6000614f648284614ab9565b60208201915081905092915050565b6000614f7f8284614b77565b915081905092915050565b6000614f968287614b77565b9150614fa28286614ad0565b600482019150614fb28285614831565b601482019150614fc28284614f26565b60018201915081905095945050505050565b6000614fe08286614b77565b9150614fec8285614ad0565b600482019150614ffc8284614f26565b600182019150819050949350505050565b60006150198284614ef1565b60208201915081905092915050565b600060208201905061503d6000830184614822565b92915050565b60006020820190506150586000830184614804565b92915050565b60006060820190506150736000830186614804565b6150806020830185614ee2565b61508d6040830184614ee2565b949350505050565b6000610100820190506150ab600083018a614822565b6150b86020830189614ee2565b6150c56040830188614ee2565b6150d26060830187614ee2565b6150df6080830186614f17565b6150ec60a0830185614ea4565b6150f960e0830184614a8c565b98975050505050505050565b60006101008201905061511b600083018b614822565b615128602083018a614ee2565b6151356040830189614ee2565b6151426060830188614f17565b61514f6080830187614f17565b61515c60a0830186614ee2565b61516960c0830185614ee2565b81810360e083015261517b8184614979565b90509998505050505050505050565b600060208201905081810360008301526151a48184614848565b905092915050565b600060208201905081810360008301526151c68184614904565b905092915050565b600060208201905081810360008301526151e88184614a2e565b905092915050565b60006020820190506152056000830184614a8c565b92915050565b60006020820190506152206000830184614aaa565b92915050565b600060408201905061523b6000830185614aaa565b818103602083015261524d8184614ae7565b90509392505050565b600060208201905081810360008301526152708184614ae7565b905092915050565b600060208201905061528d6000830184614b20565b92915050565b60006020820190506152a86000830184614b2f565b92915050565b600060208201905081810360008301526152c88184614b3e565b905092915050565b600060408201905081810360008301526152ea8185614b3e565b90506152f96020830184614804565b9392505050565b600060a082019050818103600083015261531a8188614b3e565b9050818103602083015261532e8187614b3e565b905061533d6040830186614822565b61534a6060830185614f17565b818103608083015261535c8184614a2e565b90509695505050505050565b6000602082019050818103600083015261538181614ba8565b9050919050565b600060208201905081810360008301526153a181614c0e565b9050919050565b600060208201905081810360008301526153c181614c74565b9050919050565b600060208201905081810360008301526153e181614cda565b9050919050565b6000602082019050818103600083015261540181614d40565b9050919050565b6000602082019050818103600083015261542181614da6565b9050919050565b60006101008201905061543e6000830184614de6565b92915050565b60006020820190506154596000830184614ee2565b92915050565b60006040820190506154746000830185614ee2565b6154816020830184614ee2565b9392505050565b600060208201905061549d6000830184614f17565b92915050565b6000604051905081810181811067ffffffffffffffff821117156154c657600080fd5b8060405250919050565b600067ffffffffffffffff8211156154e757600080fd5b602082029050602081019050919050565b600067ffffffffffffffff82111561550f57600080fd5b602082029050602081019050919050565b600067ffffffffffffffff82111561553757600080fd5b601f19601f8301169050602081019050919050565b600067ffffffffffffffff82111561556357600080fd5b601f19601f8301169050602081019050919050565b600067ffffffffffffffff82111561558f57600080fd5b601f19601f8301169050602081019050919050565b6000819050602082019050919050565b6000819050602082019050919050565b6000819050602082019050919050565b6000819050602082019050919050565b6000819050919050565b6000819050602082019050919050565b600081519050919050565b600081519050919050565b600081519050919050565b600081519050919050565b600060059050919050565b600081519050919050565b600081519050919050565b600081519050919050565b6000602082019050919050565b6000602082019050919050565b6000602082019050919050565b6000602082019050919050565b6000602082019050919050565b6000602082019050919050565b600082825260208201905092915050565b600082825260208201905092915050565b600082825260208201905092915050565b600082825260208201905092915050565b600081905092915050565b600082825260208201905092915050565b600082825260208201905092915050565b600082825260208201905092915050565b600081905092915050565b600061573c826157aa565b9050919050565b60008115159050919050565b6000819050919050565b60007fffffffff0000000000000000000000000000000000000000000000000000000082169050919050565b60008160130b9050919050565b6000819050919050565b600061ffff82169050919050565b600073ffffffffffffffffffffffffffffffffffffffff82169050919050565b6000819050919050565b600060ff82169050919050565b60006157ec826157f3565b9050919050565b60006157fe82615805565b9050919050565b6000615810826157aa565b9050919050565b82818337600083830152505050565b60005b83811015615844578082015181840152602081019050615829565b83811115615853576000848401525b50505050565b60006158648261587f565b9050919050565b6000819050919050565b6000819050919050565b600061588a826158cb565b9050919050565b6000819050919050565b60006158a6826158be565b9050919050565b6000601f19601f8301169050919050565b60008160f81b9050919050565b60008160601b9050919050565b6158e181615731565b81146158ec57600080fd5b50565b6158f88161574f565b811461590357600080fd5b50565b61590f81615759565b811461591a57600080fd5b50565b61592681615785565b811461593157600080fd5b50565b61593d8161579c565b811461594857600080fd5b50565b615954816157ca565b811461595f57600080fd5b50565b61596b816157d4565b811461597657600080fd5b5056fea365627a7a72315820cf1bb207998d09107b357f3e814b5a45f005aa3f4b91680e5645444bb07931fa6c6578706572696d656e74616cf564736f6c63430005100040",
  "source": "pragma solidity ^0.5.7;\npragma experimental ABIEncoderV2;\n\nimport \"./strings.sol\";\nimport \"./stringCasting.sol\";\n// import \"./BytesLib.sol\";\nimport \"./SafeMath.sol\";\n\n/* Lunchcoin validator contract - mutual agreement */\ncontract MutualAgreement {\n    // Common storage structure for ALL contacts using this storage.\n    // _, __, __ , etc are unused in this contract, but must remain to occupy their slots.\n\n    address owner;  // is set by TokenStorage.. but retain types and order.\n\n    struct TimeRange {\n      uint start;\n      uint end;\n    }\n\n    struct Stake {\n      uint rep;\n      TimeRange[] available;\n      uint availabilityExpires;\n      mapping (address => uint) venueContribution;\n    }\n\n    struct dibs {\n      address payer;\n      address recipient;\n      uint amount;\n    }\n\n    struct Poll {\n      address initiator;\n      uint minStake;\n      uint venueCost;\n      uint venuePot;\n      uint8 minParticipants;\n      TimeRange eventTime;\n      bool proofsWindowClosed;\n      mapping (address => Stake) staked;\n      mapping (address => uint16) ownCheckInIndex;           // 1-indexed: ownCheckInIndex[0] = nothing there.\n      dibs[] dibsCalled;\n    }\n\n    struct PollExternal {\n      address initiator;\n      uint minStake;\n      uint venueCost;\n      uint venuePot;\n      uint8 minParticipants;\n      uint8 participants;\n      TimeRange eventTime;\n      // NB external view of Poll can never correctly represent ownCheckInIndex (a mapping to a dynamic array).\n      // Need to either make it indicative, or fixed size.\n\n      // getting arrays with web3 is weird. Possibly claims ABI error?\n      // bytes32[5][] cantremember;\n      // address[] provers;\n      // dibs[] dibsCalled;\n    }\n\n    // shared across contracts\n    mapping (address => uint) rep;\n    mapping (bytes32 => bytes32[]) allTheData;\n    mapping (string => Poll) public pollData;\n    mapping (bytes32 => bool) resultsCache;\n\n    // used only in Poll\n    mapping(uint8 => address) internal __validators;\n    mapping(uint8 => string) internal __validatorNames;\n    mapping(address => uint) internal __cashBalance;\n    address __selfAddy ;\n\n\n    int160 public flag;\n\n    // unused - previously for Storage Proxy\n    //    mapping (address => bool) internal _allowedAccess;\n\n    // used only in Validators\n    mapping (address => uint16) stakerPresentIn;\n\n      // used for testing only - will be deleted.\n      address pollAddress = 0x9D26a8a5Db7dC10689692caF8d52C912958409CF;\n\n    // constants: Do not use space in storage.\n    uint8 constant vType=1;\n    string constant vDesc = \"mutual agreement\";\n\n\n    struct proofCounter {\n        bool fakeProof;\n        int8 duplicateProofs;\n        uint8 fakeProofs;\n        bool senderIsPresent;\n    }\n\n\n    using strings for *;\n    using stringcast for string;\n    using SafeMath for uint;\n\n    function () payable external {\n        _fallback();\n    }\n\n    // function() external payable {\n    //     // NB sol 0.6+ better syntax for calldata arrays : https://solidity.readthedocs.io/en/v0.6.0/types.html#array-slices\n    //     bytes memory input = msg.data;\n    //\n    //     // TODO: This is V.0 accepting a string (really a bytes32) of EXACTLY 32 bytes, eg a doodle poll without the https:// ;)\n    //     bytes32 __ownAdress;  // NB assuming 32b rather than 20b for calldata loose packing. Remember to get rid of this line when optimising!\n    //     bytes memory usefulData;\n    //     bytes32 poll32;\n    //     bytes memory __reveal;\n    //     // demo result! (we don;t need more than bool really ;)\n    //     uint256 valid = 7331;\n    //\n    //     (__ownAdress, usefulData) = (bytesSplit32(input));\n    //     (poll32, __reveal) = (bytesSplit32(usefulData));\n    //\n    //     // NB other validators will need to additionally retrieve reveal data from msg.data\n    //     bytes32[] memory stakers = crossContractCall (encodeFunctionName(\"serialiseStakers\"), bytes32ToString(poll32), valid, vType);\n    //     bytes32[] memory proofs = crossContractCall (encodeFunctionName(\"serialiseProofs\"), bytes32ToString(poll32), valid, vType);\n    //\n    // }\n\n    constructor () public {\n        // testing constructor access to storage across shared storage\n        // (one for later ;)\n        // constructed = 1;\n    }\n\n    function _fallback() internal {\n        bytes memory input = msg.data;\n\n    }\n\n    function multiplier() public view returns (uint numerator, uint denominator) {\n      return (5,4);\n    }\n\n    function maxRep() public view returns (uint maxRep) {\n      return (3000);\n    }\n\n\n    event logStuff (string);\n    modifier isStaker(string memory _poll) {\n      address[] memory stakers = getStakerAddresses(_poll);\n      bool senderIsPresent;\n\n      for(uint i = 0; i < stakers.length; i++) {\n        if (stakers[i] == msg.sender) {\n          senderIsPresent = true;\n        }\n      }\n      require(senderIsPresent, \"Function may only be called by a staker on this poll\");\n      _;\n    }\n\n    function doEmit (string memory message) public {\n      emit logStuff (message);\n    }\n\n    function getFlag() public view returns (int) {\n      return flag;\n    }\n\n    function setFlag(int160 _flag) public {\n      flag = _flag;\n    }\n\n    function getPoll(string memory _poll) public view returns (\n        address initiator,\n        uint stake,\n        uint venueCost,\n        uint8 minParticipants,\n        uint8 participants,\n        uint start,\n        uint end,\n        bytes32[5][] memory ownCheckInIndex ) {\n\n        // initiator = new address(0x0);\n        stake = 1000;\n        venueCost = 40000;\n        minParticipants = 3;\n        participants = 3;\n        start = 1591535900000;\n        end = 1591536000000;\n\n\n      return (initiator, stake, venueCost, minParticipants, participants, start, end, ownCheckInIndex);\n    }\n\n    function getPollStruct(string memory _poll) public view returns (PollExternal memory returnPoll) {\n\n      // bytes32[5][] ownCheckInIndex;\n      // address[] provers;\n      // dibs[] dibsCalled;\n\n        returnPoll.minStake = 1000;\n        returnPoll.venueCost = 40000;\n        returnPoll.venuePot = 40000;\n        returnPoll.minParticipants = 3;\n        returnPoll.participants = 3;\n        returnPoll.eventTime.start = 1591535900000;\n        returnPoll.eventTime.end = 1591536000000;\n      return returnPoll;\n    }\n\n    function setByHash (bytes32 _hash, bytes32[] memory _data) public {\n      allTheData[_hash] = _data;\n    }\n\n    function getByHash (bytes32 _hash) public view returns (bytes32[] memory) {\n      return (allTheData[_hash]);\n    }\n\n    function get (string memory _poll, string memory _fnName) public view returns (bytes32[] memory) {\n        bytes32 hash = keccak256(abi.encodePacked(_poll, encodeFunctionName(_fnName), vType));\n        return (allTheData[hash]);\n    }\n\n    event whassahash(bytes);\n    event whassakeccack(bytes32);\n    function getProofIgnoringStaker (string memory _poll, string memory _fnName, address _staker) public returns (bytes32[] memory) {\n      bytes32 hash = keccak256(abi.encodePacked(_poll, encodeFunctionName(_fnName), vType));\n      emit whassahash(abi.encodePacked(_poll, encodeFunctionName(_fnName), vType));\n      emit whassakeccack(hash);\n      return (allTheData[hash]);\n    }\n\n    function getProofProperUsingStaker (string memory _poll, string memory _fnName, address _staker) public returns (bytes32[] memory) {\n      bytes32 hash = keccak256(abi.encodePacked(_poll, encodeFunctionName(_fnName), _staker, vType));\n      emit whassahash(abi.encodePacked(_poll, encodeFunctionName(_fnName), _staker, vType));\n      emit whassakeccack(hash);\n      return (allTheData[hash]);\n    }\n\n    function getProofEmitHashesOnlyWithStaker (string memory _poll, string memory _fnName, address _stakerOrZero, uint8 _vt, bytes32[] memory data) public {\n      bytes32 hash = keccak256(abi.encodePacked(_poll, encodeFunctionName(_fnName), _stakerOrZero, _vt));\n      emit whassahash(abi.encodePacked(_poll, encodeFunctionName(_fnName), _stakerOrZero, _vt));\n      emit whassakeccack(hash);\n\n      emit gpResult(_poll, _fnName, _stakerOrZero, _vt, getProofProperUsingStaker(_poll, _fnName, _stakerOrZero));\n    }\n\n    function getStakerAddresses (string memory _poll ) public view returns (address[] memory) {\n      bytes32[] memory rawStakers = get(_poll, \"serialiseStakers\");\n      address[] memory stakers = new address[](rawStakers.length);\n      for(uint16 i=0; i < rawStakers.length; i++) {\n          stakers[i] = bytesToAddress(bytes32ToBytes(rawStakers[i]));\n      }\n      return stakers;\n    }\n\n    function getproofsAsAddresses (string memory _poll ) public returns (address[][] memory) {\n      address[] memory stakers = getStakerAddresses(_poll);\n      address[][] memory proofs = new address[][](stakers.length);\n      for(uint16 i=0; i < stakers.length; i++) {\n        bytes32[] memory rawProof = getProofProperUsingStaker(_poll, \"serialiseProofs\", stakers[i]);\n        address[] memory proof = new address[](rawProof.length);\n        for(uint16 j=0; j < rawProof.length; j++) {\n            proofs[j][i] = bytesToAddress(bytes32ToBytes(rawProof[i]));\n        }\n      }\n      return proofs;\n    }\n\n    function getproofsAsAddysSafer (string memory _poll ) public returns (address[][] memory) {\n      address[] memory stakers = getStakerAddresses(_poll);\n      address[][] memory proofs = new address[][](stakers.length);\n      bytes32[] memory rawProof;\n\n      for(uint16 i=0; i < stakers.length; i++) {\n        rawProof = getProofProperUsingStaker(_poll, \"serialiseProofs\", stakers[i]);\n        proofs[i] = new address[](rawProof.length);\n        for(uint16 j=0; j < rawProof.length; j++) {\n            proofs[i][j]=(bytesToAddress(bytes32ToBytes(rawProof[i])));\n        }\n      }\n      return (proofs);\n    }\n\n    event gpResult(string, string, address, uint8, bytes32[]);\n    function setCheckedInNoStaker (string memory _poll, string memory _fnName, address _stakerOrZero, uint8 _vt, bytes32[] memory data) public {\n      bytes32 hash = keccak256(abi.encodePacked(_poll, encodeFunctionName(_fnName), _vt));\n      emit whassahash(abi.encodePacked(_poll, encodeFunctionName(_fnName), _vt));\n      emit whassakeccack(hash);\n      allTheData[hash] = data;\n      emit gpResult(_poll, _fnName, _stakerOrZero, _vt, getProofIgnoringStaker(_poll, _fnName, _stakerOrZero));\n    }\n\n    function setCheckedInWithStaker (string memory _poll, string memory _fnName, address _stakerOrZero, uint8 _vt, bytes32[] memory data) public {\n      bytes32 hash = keccak256(abi.encodePacked(_poll, encodeFunctionName(_fnName), _stakerOrZero, _vt));\n      emit whassahash(abi.encodePacked(_poll, encodeFunctionName(_fnName), _stakerOrZero, _vt));\n      emit whassakeccack(hash);\n      allTheData[hash] = data;\n      emit gpResult(_poll, _fnName, _stakerOrZero, _vt, getProofProperUsingStaker(_poll, _fnName, _stakerOrZero));\n    }\n\n    function set (string memory _poll, string memory _fnName, address _stakerOrZero, uint8 _vt, bytes32[] memory _data) public {\n      bytes32 hash;\n      if (_stakerOrZero == address(0)) {\n        hash = keccak256(abi.encodePacked(_poll, encodeFunctionName(_fnName), _vt));\n      } else {\n        hash = keccak256(abi.encodePacked(_poll, encodeFunctionName(_fnName), _stakerOrZero, _vt));\n      }\n      bytes32[] memory data = new bytes32[](_data.length);\n      for(uint16 i=0; i < _data.length; i++) {\n\n      }\n      // data=_data;\n      allTheData[hash] = data;\n    }\n\n    function addStaker (string memory _poll, string memory _fnName, address _staker, uint8 _vt, address _newMember) public {\n      bytes32 hash = keccak256(abi.encodePacked(_poll, encodeFunctionName(_fnName), _vt));\n      allTheData[hash].push (bytes32(bytes20(_newMember)));\n    }\n\n    function checkIn (string memory _poll, address[] memory _newProof, address _impersonatedStaker) public {\n      address sender = _impersonatedStaker;   //  should be msg.sender\n      uint16 idx = pollData[_poll].ownCheckInIndex[sender];\n      bool hasStaked = false;\n      uint16 i;\n\n      // if (idx==0) {\n      //   idx = uint16(getStakerAddresses(_poll ).length);\n      //   add (_poll, \"serialiseProofs\", vType, _newProof);\n      //   pollData[_poll].ownCheckInIndex[sender] = idx;    // would be an off-by-one but ownIndex is 1-indexed ;)\n      //   return;\n      // }\n      // proofs[idx] = bytes32(bytes20(_newProof));\n\n      // bytes32[] memory stakers = get(_poll, \"serialiseStakers\");\n      // for (i=0; i<stakers.length; i++) {\n      //   if bytes32(bytes20((stakers[i]))==sender\n      //     hasStaked = true;\n      // }\n      // if (hasStaked = false)\n      //   revert ('Staker has not staked in this poll')\n      bytes32[] memory proofB32 = new bytes32[](_newProof.length);\n      for (i=0; i<_newProof.length; i++) {\n        proofB32[i]=bytes32(bytes20(_newProof[i]));\n      }\n      set ( _poll, \"serialiseProofs\", sender, vType, proofB32);\n    }\n\n    event proofUpdated(address);\n    function addProof (string memory _poll, address _impersonatedStaker, address[] memory _newProof) public {\n      address sender = _impersonatedStaker;   //  should be msg.sender\n      bytes32[] memory proofB32 = new bytes32[](_newProof.length);\n      bytes32 hash = keccak256(abi.encodePacked(_poll, encodeFunctionName(\"serialiseProofs\"), _impersonatedStaker, vType));\n      for (uint16 i=0; i<_newProof.length; i++) {\n        proofB32[i]=bytes32(bytes20(_newProof[i]));\n      }\n      if (allTheData[hash].length>0)\n        emit proofUpdated(sender);\n      allTheData[hash]=(proofB32);\n    }\n\n    function addProofSelf (string memory _poll, address[] memory _newProof) public {\n      addProof (_poll, msg.sender, _newProof);\n    }\n\n    event proofsWindowClosed (string poll, address by);\n    function closeProofsWindow (string memory _poll) public {\n      // require (isElibgible(msg.sender), \"msg.sender did not stake in this poll\");\n      // require (time.now()>.pollData[_poll].eventTime.end || AllstakersSubmittedProofs(), \"Not all stakers have submitted proofs and the event is not yet over\");\n      // require (, \"\");\n      pollData[_poll].proofsWindowClosed = true;\n      emit proofsWindowClosed (_poll, msg.sender);\n\n      // NB here assuming that poll can be closed once all stakers have submitted a proof.\n      // The alternative would allow a non-attending staker to hold up refunds (by refusing to submit 'I can't make it')\n      // but this way means that early provers cannot necessarily revise rpoofs which turn out not to fit consensus\n      // This policy may be better left to differ between validators.\n    }\n\n    function totalRepStaked (string memory _poll, address _staker) public view returns (uint) {\n      return pollData[_poll].staked[_staker].rep;\n    }\n\n    function totalVenueContribs (string memory _poll, address _staker) public view returns (uint total) {\n      // dibs[] memory dibsList = allDibsPaidBy(_staker);\n      total = pollData[_poll].staked[_staker].venueContribution[_staker] + pollData[_poll].staked[_staker].venueContribution[address(0)];\n      // for(uint16 i = 0; i < dibsList.length; i++) {\n      //   total += dibsList[i].amount;\n      // }\n      return total;\n    }\n\n    event emptyStakeRemoved (string _poll, address _staker);\n    function removeEmptyStake (string memory _poll, address _staker) public {\n      uint rep=pollData[_poll].staked[msg.sender].rep;\n      uint venueContributions = totalVenueContribs (_poll, _staker);\n      require (rep==0 && venueContributions==0, 'Staker has non empty stake or venue contribution');\n      delete pollData[_poll].staked[msg.sender];\n      emit emptyStakeRemoved(_poll, msg.sender);\n    }\n\n    // NB these require returning complex type.\n    // Keep the commented code, but integrate it direct into functions which need it (and eventually use new ABI encoder on it ;)\n\n    // function allDibsPaidBy(string memory _poll, address _staker) public view returns (dibs[] memory) {\n    //   uint16 size=0;\n    //   uint16 i;\n    //   for(i = 0; i < pollData[_poll].dibsCalled.length; i++) {\n    //     if (pollData[_poll].dibsCalled[i].payer == _staker)\n    //       size++;\n    //   }\n    //   dibs[size] memory dibsList = new dibs[](size);\n    //   for(uint16 i = 0; i < pollData[_poll].dibsCalled.length; i++) {\n    //     if (pollData[_poll].dibsCalled[i].payer == _staker)\n    //       dibsList.push(pollData[_poll].dibsCalled[i]);\n    //   }\n    //   return dibsList;\n    // }\n    //\n    // function allDibsPaidFor(string memory _poll, address _recipient) public view returns (dibs[] memory) {\n    //   uint16 size=0;\n    //   uint16 i;\n    //   for(i = 0; i < pollData[_poll].dibsCalled.length; i++) {\n    //     if (pollData[_poll].dibsCalled[i].recipient == _recipient)\n    //       size++;\n    //   }\n    //   dibs[size] memory dibsList = new dibs[](size);\n    //   for(i = 0; i < pollData[_poll].dibsCalled.length; i++) {\n    //     if (pollData[_poll].dibsCalled[i].recipient == _recipient)\n    //       dibsList.push(pollData[_poll].dibsCalled[i]);\n    //   }\n    //   return dibsList;\n    // }\n\n    event venuePotDisbursed (string _poll, address to, address by, int amount);\n    // Any staker can call refund of excess venue pot.\n    // Disbursement to venue payer must wait until initiator has actively set venue payer (eg to self);\n    function refundVenueStakes(string memory _poll) public isStaker(_poll) {\n      address[] memory stakers = getStakerAddresses(_poll);\n      uint equalShare = (pollData[_poll].venueCost).div(stakers.length);\n      uint spareCash = pollData[_poll].venuePot-pollData[_poll].venueCost;\n      // // proportional refunds:\n      // // allows recipients of gifted contributions to get a refund too\n      // for stakers\n      //   refund = 0\n      //   for (stakes = allDibsPaidBy(staker).concat(staker.stake[staker]).concat(staker.stake[0x0]))\n      //     refund += stake*proportion\n      //     remove stake\n      //   refund (refund)\n      //   emit\n      //\n      // // covering refunds:\n      // // gifted contributions are used only to top up recipients'\n      // for stakers\n      //   totalPaid = staker.stake[staker].amount + staker.stake[0x0].amount\n      //   if totalPaid < equalShare\n      //     for (stakes = allDibsPaidFor(staker).concat(staker.stake[staker]).concat(staker.stake[0x0]))\n      //       if amount>=shortfall\n      //         totalPaid += shortfall\n      //         shorten(stake)\n      //       else\n      //         totalPaid += amount\n      //         remove(stake) including own stake!\n      //     refund(0)\n      // for stakers\n      //   if exists(stake) (ie those who were not removed in last round)\n      //     for (stakes = allDibsPaidBy(staker).concat(staker.stake[staker]).concat(staker.stake[0x0]))\n      //       if amount>=shortfall\n      //         totalPaid += shortfall\n      //         refund += rest\n      //       else\n      //         totalPaid += amount\n      //       remove(stake)\n      //     refund (refund)\n      //     emitsolidity uint16\n      //\n\n      removeEmptyStake(_poll, msg.sender);\n    }\n\n    function setString (string memory _poll, string memory _fnName, uint8 _vt, string memory data) public {\n      bytes32 hash = keccak256(abi.encodePacked(_poll, encodeFunctionName(_fnName), _vt));\n      allTheData[hash] = stringToBytes32Array(data);\n    }\n\n\n    event repRefund (address _staker, uint _staked, uint _refunded);\n    event refundFail (address _staker);\n    function refundStake (string memory _poll, bytes32 _reveal) public {\n      require (pollData[_poll].staked[msg.sender].rep > 0, 'Sender has nothing staked for this poll');\n      require (pollData[_poll].ownCheckInIndex[msg.sender] > 0, 'Sender has not submitted an attendance proof for this poll');\n      if (!validate(address(0), _poll, _reveal)) {\n        emit refundFail(msg.sender);\n        revert ('Invalid proof');\n      }\n\n      (uint num, uint denom) = multiplier();\n      uint refund = num.mul(pollData[_poll].staked[msg.sender].rep) / denom;\n      if (rep[msg.sender] + refund > maxRep())\n        refund = pollData[_poll].staked[msg.sender].rep;\n\n      pollData[_poll].staked[msg.sender].rep = 0;\n      rep[msg.sender] += refund;\n      emit repRefund (msg.sender, pollData[_poll].staked[msg.sender].rep, refund);\n      removeEmptyStake(_poll, msg.sender);\n\n    }\n\n    event numberLoggerLikeImUsingFuckingJava (string, uint);\n    // cheapo validator - this one just counts how many people included you in their proof, with no attempt at making the proofs agree.\n    // currently counts votes in favour of each stakers, which will help, but doesn't flag which poroofs disagree\n    function validate(address _pollContract, string memory _poll, bytes32 _reveal) public returns (bool) {\n        // require (_pollContract==howeverYoullIdentifySelf, 'wrong Poll contract - something needs upgrading');\n\n        address[] memory stakers = getStakerAddresses(_poll);\n        address[][] memory proofs = getproofsAsAddresses(_poll);\n        uint16 i;\n        uint16 sendersIndex;\n        bool stakerPresent;\n\n        uint8 threshold = 1 ;   //  do not set to 0 - div0 error!\n        // emit numberLoggerLikeImUsingFuckingJava('stakers',stakers.length);\n        // emit numberLoggerLikeImUsingFuckingJava('proofs',proofs.length);\n\n        // proofCounter memory pc;\n        for(i = 0; i < stakers.length; i++) {\n            // emit logStuff(\"started loop\");\n            stakerPresent = false;\n            if (stakers[i]==msg.sender)\n              sendersIndex=i;\n            for(uint j = 0; j < proofs[i].length; j++) {\n              if (proofs[i][j] == msg.sender)\n                stakerPresent = true;\n              stakerPresentIn[proofs[i][j]]++;     // increase the present count for the address who this staker marked present\n              // if this staker claims someone is here but the majority disagree, then emit disagreement;\n            }\n            // if (!stakerPresent)\n            //   impugnProof(i);\n            //   // if I am not present, emit a disagreement;\n        }\n        // if stakerPresentIn[sendersIndex] < proofs[i].length {\n        //   bePissedOff();\n        // }\n\n        // update majorities\n        // check previous disagreements\n\n        if ((stakerPresentIn[msg.sender]>=threshold) && (proofs[i].length/ stakerPresentIn[msg.sender] < 2)) {\n          return true;\n        }\n        // add reversion logic\n\n\n\n\n        // // deal with 0 < threshold < 1\n        // if(percentageThreshold>0) {\n        //   threshold = percentageThreshold*stakers.length;\n        // }\n        // if (pc.senderIsPresent && (proofs.length-pc.fakeProofs >= threshold)) {\n        //     return true;\n        // }\n        // return false;\n\n        // if (!pc.senderIsPresent)\n        //     revert('Sender did not register attendance');\n\n        // if (!pc.senderIsPresent)\n        //     emit logStuff('Sender did not register attendance');\n        // if (proofs.length-pc.fakeProofs < threshold)\n        //     emit logStuff('Not enough attendees in consensus');\n        // if (proofs.length == pc.fakeProofs)\n        //     emit logStuff('All proofs were fake');\n        // emit numberLoggerLikeImUsingFuckingJava ('fakeProofs',pc.fakeProofs);\n        // emit numberLoggerLikeImUsingFuckingJava ('proofs.length',proofs.length);\n        // return true;\n    }\n\n    function deserialiseStakers(string calldata _poll) external pure returns (address[] memory) {\n        // return something which will make it obvious that you have accidentally delegated this context!\n        address[] memory ret = new address[](4);\n        (ret[0], ret[1], ret[2], ret[3]) = (address(5), address(0), address(5), address(0));\n        return ret;\n    }\n\n    function serialiseStakers(string calldata _poll, uint8 validationType) external pure returns (address[] memory) {\n        // return something which will make it obvious that you have accidentally delegated this context!\n        address[] memory ret = new address[](4);\n        (ret[0], ret[1], ret[2], ret[3]) = (address(5), address(0), address(5), address(0));\n        return ret;\n    }\n\n    function serialiseProofs(string calldata _poll, uint8 validationType) external pure returns (address[] memory) {\n        // return something which will make it obvious that you have accidentally delegated this context!\n        address[] memory ret = new address[](4);\n        (ret[0], ret[1], ret[2], ret[3]) = (address(0), address(5), address(0), address(5));\n        return ret;\n    }\n\n\n    function proofType() public pure returns (uint8) {\n      return vType;\n    }\n\n    function encodeFunctionName (string memory name) internal pure returns (bytes4) {\n        // TODO: cache for readability!\n        // if (\"serialiseStakers\")\n        //     return\n        // if (\"serialiseStakers\")\n        //     return\n        return bytes4(keccak256(bytes(name)));\n    }\n\n    // split a serialised string of addresses (as received from main contract).\n    // NB - only works in this validator - other validators will use multiple types within serialised string\n    function splitToAddresses(string memory _concatenated) internal pure returns (address[] memory result) {\n        strings.slice memory delim = \",\".toSlice();\n        strings.slice memory source = _concatenated.toSlice();\n        address[] memory parts = new address[](source.count(delim));\n\n        for(uint i = 0; i < parts.length; i++) {\n           parts[i] = source.split(delim).toString().toAddress();\n        }\n        return parts;\n\n    }\n\n    function bytesToAddress(bytes memory _bytes) public pure returns (address) {\n      address tempAddress;\n      assembly {\n          tempAddress := div(mload(add(add(_bytes, 0x20), 0)), 0x1000000000000000000000000)\n      }\n      return tempAddress;\n    }\n\n    function toString(address account) public pure returns(string memory) {\n        return toString(abi.encodePacked(account), 5);\n    }\n\n    function toString(uint256 value) public pure returns(string memory) {\n        return toString(abi.encodePacked(value), 0);\n    }\n\n    function toString(bytes32 value) public pure returns(string memory) {\n        return toString(abi.encodePacked(value), 0);\n    }\n\n    function toString(bytes memory data, uint16 len) public pure returns(string memory) {\n        bytes memory alphabet = \"0123456789abcdef\";\n        uint16 strLen = 20;  // It's 20. The length is just fucking 20.  uint16(data.length);\n        // Pretty simple if statement - why won't it work ?\n        // if (len>0) {\n        //     strLen = len;\n        // }\n\n\n        bytes memory str = new bytes(2 + strLen * 2);\n        str[0] = '0';\n        str[1] = 'x';\n        for (uint i = 0; i < strLen; i++) {\n            str[2+i*2] = alphabet[uint(uint8(data[i] >> 4))];\n            str[3+i*2] = alphabet[uint(uint8(data[i] & 0x0f))];\n        }\n        return string(str);\n    }\n\n\n    function bytes32ToBytes(bytes32 _bytes32) public pure returns (bytes memory){\n        // string memory str = string(_bytes32);\n        // TypeError: Explicit type conversion not allowed from \"bytes32\" to \"string storage pointer\"\n        bytes memory bytesArray = new bytes(32);\n        for (uint256 i; i < 32; i++) {\n            bytesArray[i] = _bytes32[i];\n        }\n        return bytesArray;\n    }\n\n    // function bytesToBytes32(bytes b, uint offset) private pure returns (bytes32) {\n    //     bytes32 out;\n\n    //     for (uint i = 0; i < 32; i++) {\n    //         out |= bytes32(b[offset + i] & 0xFF) >> (i * 8);\n    //     }\n    //     return out;\n    // }\n\n\n    function bytesToBytes32(bytes memory b) public pure returns (bytes32 bts) {\n        bytes32 i;\n        //NB size etc= 32b = 0x20b\n        assembly { i := mload(add(b, 0x20)) }\n        bts = i;\n    }\n\n    function bytes32ToString(bytes32 _bytes32) public pure returns (string memory ){\n        bytes memory bytesArray = bytes32ToBytes(_bytes32);\n        return string(bytesArray);\n    }\n\n    function bytes32ArrayToString (bytes32[] memory data) public pure returns (string memory ) {\n        bytes memory bytesString = new bytes(data.length * 32);\n        uint urlLength;\n        uint i=0;\n        for (i=0; i<data.length; i++) {\n            for (uint j=0; j<32; j++) {\n                byte char = byte(bytes32(uint(data[i]) * 2 ** (8 * j)));\n                if (char != 0) {\n                    bytesString[urlLength] = char;\n                    urlLength += 1;\n                }\n            }\n        }\n        bytes memory bytesStringTrimmed = new bytes(urlLength);\n        for (i=0; i<urlLength; i++) {\n            bytesStringTrimmed[i] = bytesString[i];\n        }\n        return string(bytesStringTrimmed);\n    }\n\n    function stringToBytes32Array(string memory source) public pure returns (bytes32[] memory result) {\n        // uint16 words = uint16( (bytes(source).length+31)/32 );\n        uint16 words = 1;\n        for(uint16 i=0; i<=words; i++) {\n          uint16 offset = 32*(i+1);\n          bytes32 word;\n          assembly {\n            word := mload(add(source, offset))\n          }\n          result[i] = word;\n        }\n        return result;\n    }\n\n    // TODO !!!\n    // function bytes32ToUint (bytes32 data) returns (uint) {\n    //     return 2;\n    // }\n\n    function bytesSplit32(bytes  memory data) public pure returns (bytes32, bytes memory ) {\n        uint8 splitAt = 32;                             // all (if variable split, pass in splitAt)\n        uint256 taillength = 0;\n        if (data.length > splitAt)\n            taillength = data.length-splitAt;\n        bytes32 temp;\n        // bytes32 head;                                   // 32b split\n        bytes memory head = new bytes(splitAt);         // variable length split\n        bytes memory tail = new bytes(taillength);\n        for(uint i=0;i<=data.length-1;i++){\n            if (i<splitAt)\n                head[i] = bytes(data)[i] ;\n            else\n                tail[i-splitAt] = bytes(data)[i] ;\n        }\n        return (bytesToBytes32(head), tail);\n    }\n\n    // calls fallback function of pollAddress, passing 4 byte encoded function name to remote contract to select method.\n    // NB future better: just get the ABI of the finished Poll conmtract, and use that!\n    // NB in sol 0.6 + fallback cannot return anything\n    // NB future optimisation : we are not using the functionality of string here, since string must have come from a bytes32\n    event CrossContractValidateBegin();\n    event CrossContractValidateEnd();\n    function crossContractCall (bytes4 fnNameHash, string  memory poll, uint256 valid, uint8 vt) public returns (bytes32[] memory) {\n    address pollContract = pollAddress;\n\n        emit CrossContractValidateBegin();\n        assembly {\n            let ptr := mload(0x40)\n            calldatacopy(ptr, 0, calldatasize)\n            let result := delegatecall(gas, pollContract, ptr, calldatasize, 0, 0)\n            let size := returndatasize\n            returndatacopy(ptr, 0, size)\n            switch result\n            case 0 { revert(ptr, size) }\n            default { return(ptr, size) }\n        }\n        emit CrossContractValidateEnd();\n    }\n\n}\n",
  "sourcePath": "/home/teide/randomCode/lunchcoin/contracts.v1/contracts/MutualAgreement.sol",
  "compiler": {
    "name": "solc",
    "version": "0.5.16+commit.9c3226ce.Emscripten.clang"
  },
  "schemaVersion": "3.2.0",
  "updatedAt": "2020-06-15T16:13:48.758Z",
  "networkType": "ethereum",
  "devdoc": {
    "methods": {}
  },
  "userdoc": {
    "methods": {}
  }
}