{
  "contractName": "MutualAgreement",
  "abi": [
    {
      "inputs": [],
      "payable": false,
      "stateMutability": "nonpayable",
      "type": "constructor"
    },
    {
      "anonymous": false,
      "inputs": [],
      "name": "CrossContractValidateBegin",
      "type": "event"
    },
    {
      "anonymous": false,
      "inputs": [],
      "name": "CrossContractValidateEnd",
      "type": "event"
    },
    {
      "anonymous": false,
      "inputs": [
        {
          "indexed": false,
          "internalType": "string",
          "name": "",
          "type": "string"
        }
      ],
      "name": "logStuff",
      "type": "event"
    },
    {
      "anonymous": false,
      "inputs": [
        {
          "indexed": false,
          "internalType": "string",
          "name": "",
          "type": "string"
        },
        {
          "indexed": false,
          "internalType": "uint256",
          "name": "",
          "type": "uint256"
        }
      ],
      "name": "numberLoggerLikeImUsingFuckingJava",
      "type": "event"
    },
    {
      "anonymous": false,
      "inputs": [
        {
          "indexed": false,
          "internalType": "string",
          "name": "_poll",
          "type": "string"
        },
        {
          "indexed": false,
          "internalType": "address",
          "name": "to",
          "type": "address"
        },
        {
          "indexed": false,
          "internalType": "address",
          "name": "by",
          "type": "address"
        },
        {
          "indexed": false,
          "internalType": "int256",
          "name": "amount",
          "type": "int256"
        }
      ],
      "name": "venuePotDisbursed",
      "type": "event"
    },
    {
      "payable": true,
      "stateMutability": "payable",
      "type": "fallback"
    },
    {
      "constant": true,
      "inputs": [],
      "name": "flag",
      "outputs": [
        {
          "internalType": "int160",
          "name": "",
          "type": "int160"
        }
      ],
      "payable": false,
      "stateMutability": "view",
      "type": "function"
    },
    {
      "constant": true,
      "inputs": [
        {
          "internalType": "string",
          "name": "",
          "type": "string"
        }
      ],
      "name": "pollData",
      "outputs": [
        {
          "internalType": "address",
          "name": "initiator",
          "type": "address"
        },
        {
          "internalType": "uint256",
          "name": "minStake",
          "type": "uint256"
        },
        {
          "internalType": "uint256",
          "name": "venueCost",
          "type": "uint256"
        },
        {
          "internalType": "uint256",
          "name": "venuePot",
          "type": "uint256"
        },
        {
          "internalType": "uint8",
          "name": "minParticipants",
          "type": "uint8"
        },
        {
          "components": [
            {
              "internalType": "uint256",
              "name": "start",
              "type": "uint256"
            },
            {
              "internalType": "uint256",
              "name": "end",
              "type": "uint256"
            }
          ],
          "internalType": "struct MutualAgreement.TimeRange",
          "name": "eventTime",
          "type": "tuple"
        },
        {
          "internalType": "bool",
          "name": "proofsWindowClosed",
          "type": "bool"
        }
      ],
      "payable": false,
      "stateMutability": "view",
      "type": "function"
    },
    {
      "constant": false,
      "inputs": [
        {
          "internalType": "string",
          "name": "message",
          "type": "string"
        }
      ],
      "name": "doEmit",
      "outputs": [],
      "payable": false,
      "stateMutability": "nonpayable",
      "type": "function"
    },
    {
      "constant": true,
      "inputs": [],
      "name": "getFlag",
      "outputs": [
        {
          "internalType": "int256",
          "name": "",
          "type": "int256"
        }
      ],
      "payable": false,
      "stateMutability": "view",
      "type": "function"
    },
    {
      "constant": false,
      "inputs": [
        {
          "internalType": "int160",
          "name": "_flag",
          "type": "int160"
        }
      ],
      "name": "setFlag",
      "outputs": [],
      "payable": false,
      "stateMutability": "nonpayable",
      "type": "function"
    },
    {
      "constant": true,
      "inputs": [
        {
          "internalType": "string",
          "name": "_poll",
          "type": "string"
        }
      ],
      "name": "getPoll",
      "outputs": [
        {
          "internalType": "address",
          "name": "initiator",
          "type": "address"
        },
        {
          "internalType": "uint256",
          "name": "stake",
          "type": "uint256"
        },
        {
          "internalType": "uint256",
          "name": "venueCost",
          "type": "uint256"
        },
        {
          "internalType": "uint8",
          "name": "minParticipants",
          "type": "uint8"
        },
        {
          "internalType": "uint8",
          "name": "participants",
          "type": "uint8"
        },
        {
          "internalType": "uint256",
          "name": "start",
          "type": "uint256"
        },
        {
          "internalType": "uint256",
          "name": "end",
          "type": "uint256"
        },
        {
          "internalType": "bytes32[5][]",
          "name": "committedProofs",
          "type": "bytes32[5][]"
        }
      ],
      "payable": false,
      "stateMutability": "view",
      "type": "function"
    },
    {
      "constant": true,
      "inputs": [
        {
          "internalType": "string",
          "name": "_poll",
          "type": "string"
        }
      ],
      "name": "getPollStruct",
      "outputs": [
        {
          "components": [
            {
              "internalType": "address",
              "name": "initiator",
              "type": "address"
            },
            {
              "internalType": "uint256",
              "name": "minStake",
              "type": "uint256"
            },
            {
              "internalType": "uint256",
              "name": "venueCost",
              "type": "uint256"
            },
            {
              "internalType": "uint256",
              "name": "venuePot",
              "type": "uint256"
            },
            {
              "internalType": "uint8",
              "name": "minParticipants",
              "type": "uint8"
            },
            {
              "internalType": "uint8",
              "name": "participants",
              "type": "uint8"
            },
            {
              "components": [
                {
                  "internalType": "uint256",
                  "name": "start",
                  "type": "uint256"
                },
                {
                  "internalType": "uint256",
                  "name": "end",
                  "type": "uint256"
                }
              ],
              "internalType": "struct MutualAgreement.TimeRange",
              "name": "eventTime",
              "type": "tuple"
            },
            {
              "internalType": "bytes32[5][]",
              "name": "committedProofs",
              "type": "bytes32[5][]"
            },
            {
              "internalType": "address[]",
              "name": "provers",
              "type": "address[]"
            },
            {
              "components": [
                {
                  "internalType": "address",
                  "name": "payer",
                  "type": "address"
                },
                {
                  "internalType": "address",
                  "name": "recipient",
                  "type": "address"
                },
                {
                  "internalType": "uint256",
                  "name": "amount",
                  "type": "uint256"
                }
              ],
              "internalType": "struct MutualAgreement.dibs[]",
              "name": "dibsCalled",
              "type": "tuple[]"
            }
          ],
          "internalType": "struct MutualAgreement.PollExternal",
          "name": "returnPoll",
          "type": "tuple"
        }
      ],
      "payable": false,
      "stateMutability": "view",
      "type": "function"
    },
    {
      "constant": true,
      "inputs": [
        {
          "internalType": "string",
          "name": "_poll",
          "type": "string"
        },
        {
          "internalType": "string",
          "name": "_fnName",
          "type": "string"
        }
      ],
      "name": "get",
      "outputs": [
        {
          "internalType": "bytes32[]",
          "name": "",
          "type": "bytes32[]"
        }
      ],
      "payable": false,
      "stateMutability": "view",
      "type": "function"
    },
    {
      "constant": true,
      "inputs": [
        {
          "internalType": "string",
          "name": "_poll",
          "type": "string"
        }
      ],
      "name": "getStakerAddresses",
      "outputs": [
        {
          "internalType": "address[]",
          "name": "",
          "type": "address[]"
        }
      ],
      "payable": false,
      "stateMutability": "view",
      "type": "function"
    },
    {
      "constant": true,
      "inputs": [
        {
          "internalType": "string",
          "name": "_poll",
          "type": "string"
        }
      ],
      "name": "getproofsAsAddresses",
      "outputs": [
        {
          "internalType": "address[]",
          "name": "",
          "type": "address[]"
        }
      ],
      "payable": false,
      "stateMutability": "view",
      "type": "function"
    },
    {
      "constant": false,
      "inputs": [
        {
          "internalType": "string",
          "name": "_poll",
          "type": "string"
        },
        {
          "internalType": "string",
          "name": "_fnName",
          "type": "string"
        },
        {
          "internalType": "uint8",
          "name": "_vt",
          "type": "uint8"
        },
        {
          "internalType": "bytes32[]",
          "name": "data",
          "type": "bytes32[]"
        }
      ],
      "name": "setcheckedIn",
      "outputs": [],
      "payable": false,
      "stateMutability": "nonpayable",
      "type": "function"
    },
    {
      "constant": false,
      "inputs": [
        {
          "internalType": "string",
          "name": "_poll",
          "type": "string"
        },
        {
          "internalType": "string",
          "name": "_fnName",
          "type": "string"
        },
        {
          "internalType": "uint8",
          "name": "_vt",
          "type": "uint8"
        },
        {
          "internalType": "address",
          "name": "_newMember",
          "type": "address"
        }
      ],
      "name": "add",
      "outputs": [],
      "payable": false,
      "stateMutability": "nonpayable",
      "type": "function"
    },
    {
      "constant": false,
      "inputs": [
        {
          "internalType": "string",
          "name": "_poll",
          "type": "string"
        },
        {
          "internalType": "address",
          "name": "_newMember",
          "type": "address"
        }
      ],
      "name": "checkIn",
      "outputs": [],
      "payable": false,
      "stateMutability": "nonpayable",
      "type": "function"
    },
    {
      "constant": false,
      "inputs": [
        {
          "internalType": "string",
          "name": "_poll",
          "type": "string"
        },
        {
          "internalType": "address",
          "name": "_newMember",
          "type": "address"
        }
      ],
      "name": "addProof",
      "outputs": [],
      "payable": false,
      "stateMutability": "nonpayable",
      "type": "function"
    },
    {
      "constant": false,
      "inputs": [
        {
          "internalType": "string",
          "name": "_poll",
          "type": "string"
        }
      ],
      "name": "closeProofsWindow",
      "outputs": [],
      "payable": false,
      "stateMutability": "nonpayable",
      "type": "function"
    },
    {
      "constant": true,
      "inputs": [
        {
          "internalType": "string",
          "name": "_poll",
          "type": "string"
        },
        {
          "internalType": "address",
          "name": "_staker",
          "type": "address"
        }
      ],
      "name": "totalRepStaked",
      "outputs": [
        {
          "internalType": "uint256",
          "name": "",
          "type": "uint256"
        }
      ],
      "payable": false,
      "stateMutability": "view",
      "type": "function"
    },
    {
      "constant": true,
      "inputs": [
        {
          "internalType": "string",
          "name": "_poll",
          "type": "string"
        },
        {
          "internalType": "address",
          "name": "_staker",
          "type": "address"
        }
      ],
      "name": "totalVenueContribs",
      "outputs": [
        {
          "internalType": "uint256",
          "name": "total",
          "type": "uint256"
        }
      ],
      "payable": false,
      "stateMutability": "view",
      "type": "function"
    },
    {
      "constant": false,
      "inputs": [
        {
          "internalType": "string",
          "name": "_poll",
          "type": "string"
        }
      ],
      "name": "refundVenueStakes",
      "outputs": [],
      "payable": false,
      "stateMutability": "nonpayable",
      "type": "function"
    },
    {
      "constant": false,
      "inputs": [
        {
          "internalType": "string",
          "name": "_poll",
          "type": "string"
        },
        {
          "internalType": "string",
          "name": "_fnName",
          "type": "string"
        },
        {
          "internalType": "uint8",
          "name": "_vt",
          "type": "uint8"
        },
        {
          "internalType": "string",
          "name": "data",
          "type": "string"
        }
      ],
      "name": "setString",
      "outputs": [],
      "payable": false,
      "stateMutability": "nonpayable",
      "type": "function"
    },
    {
      "constant": true,
      "inputs": [
        {
          "internalType": "address",
          "name": "_pollContract",
          "type": "address"
        },
        {
          "internalType": "string",
          "name": "_poll",
          "type": "string"
        },
        {
          "internalType": "bytes32",
          "name": "_reveal",
          "type": "bytes32"
        }
      ],
      "name": "validate",
      "outputs": [
        {
          "internalType": "bool",
          "name": "",
          "type": "bool"
        }
      ],
      "payable": false,
      "stateMutability": "view",
      "type": "function"
    },
    {
      "constant": true,
      "inputs": [
        {
          "internalType": "string",
          "name": "_poll",
          "type": "string"
        }
      ],
      "name": "deserialiseStakers",
      "outputs": [
        {
          "internalType": "address[]",
          "name": "",
          "type": "address[]"
        }
      ],
      "payable": false,
      "stateMutability": "pure",
      "type": "function"
    },
    {
      "constant": true,
      "inputs": [
        {
          "internalType": "string",
          "name": "_poll",
          "type": "string"
        },
        {
          "internalType": "uint8",
          "name": "validationType",
          "type": "uint8"
        }
      ],
      "name": "serialiseStakers",
      "outputs": [
        {
          "internalType": "address[]",
          "name": "",
          "type": "address[]"
        }
      ],
      "payable": false,
      "stateMutability": "pure",
      "type": "function"
    },
    {
      "constant": true,
      "inputs": [
        {
          "internalType": "string",
          "name": "_poll",
          "type": "string"
        },
        {
          "internalType": "uint8",
          "name": "validationType",
          "type": "uint8"
        }
      ],
      "name": "serialiseProofs",
      "outputs": [
        {
          "internalType": "address[]",
          "name": "",
          "type": "address[]"
        }
      ],
      "payable": false,
      "stateMutability": "pure",
      "type": "function"
    },
    {
      "constant": true,
      "inputs": [],
      "name": "proofType",
      "outputs": [
        {
          "internalType": "uint8",
          "name": "",
          "type": "uint8"
        }
      ],
      "payable": false,
      "stateMutability": "pure",
      "type": "function"
    },
    {
      "constant": true,
      "inputs": [
        {
          "internalType": "bytes",
          "name": "_bytes",
          "type": "bytes"
        }
      ],
      "name": "bytesToAddress",
      "outputs": [
        {
          "internalType": "address",
          "name": "",
          "type": "address"
        }
      ],
      "payable": false,
      "stateMutability": "pure",
      "type": "function"
    },
    {
      "constant": true,
      "inputs": [
        {
          "internalType": "address",
          "name": "account",
          "type": "address"
        }
      ],
      "name": "toString",
      "outputs": [
        {
          "internalType": "string",
          "name": "",
          "type": "string"
        }
      ],
      "payable": false,
      "stateMutability": "pure",
      "type": "function"
    },
    {
      "constant": true,
      "inputs": [
        {
          "internalType": "uint256",
          "name": "value",
          "type": "uint256"
        }
      ],
      "name": "toString",
      "outputs": [
        {
          "internalType": "string",
          "name": "",
          "type": "string"
        }
      ],
      "payable": false,
      "stateMutability": "pure",
      "type": "function"
    },
    {
      "constant": true,
      "inputs": [
        {
          "internalType": "bytes",
          "name": "data",
          "type": "bytes"
        },
        {
          "internalType": "uint16",
          "name": "len",
          "type": "uint16"
        }
      ],
      "name": "toString",
      "outputs": [
        {
          "internalType": "string",
          "name": "",
          "type": "string"
        }
      ],
      "payable": false,
      "stateMutability": "pure",
      "type": "function"
    },
    {
      "constant": true,
      "inputs": [
        {
          "internalType": "bytes32",
          "name": "value",
          "type": "bytes32"
        }
      ],
      "name": "toString",
      "outputs": [
        {
          "internalType": "string",
          "name": "",
          "type": "string"
        }
      ],
      "payable": false,
      "stateMutability": "pure",
      "type": "function"
    },
    {
      "constant": true,
      "inputs": [
        {
          "internalType": "bytes32",
          "name": "_bytes32",
          "type": "bytes32"
        }
      ],
      "name": "bytes32ToBytes",
      "outputs": [
        {
          "internalType": "bytes",
          "name": "",
          "type": "bytes"
        }
      ],
      "payable": false,
      "stateMutability": "pure",
      "type": "function"
    },
    {
      "constant": true,
      "inputs": [
        {
          "internalType": "bytes",
          "name": "b",
          "type": "bytes"
        }
      ],
      "name": "bytesToBytes32",
      "outputs": [
        {
          "internalType": "bytes32",
          "name": "bts",
          "type": "bytes32"
        }
      ],
      "payable": false,
      "stateMutability": "pure",
      "type": "function"
    },
    {
      "constant": true,
      "inputs": [
        {
          "internalType": "bytes32",
          "name": "_bytes32",
          "type": "bytes32"
        }
      ],
      "name": "bytes32ToString",
      "outputs": [
        {
          "internalType": "string",
          "name": "",
          "type": "string"
        }
      ],
      "payable": false,
      "stateMutability": "pure",
      "type": "function"
    },
    {
      "constant": true,
      "inputs": [
        {
          "internalType": "bytes32[]",
          "name": "data",
          "type": "bytes32[]"
        }
      ],
      "name": "bytes32ArrayToString",
      "outputs": [
        {
          "internalType": "string",
          "name": "",
          "type": "string"
        }
      ],
      "payable": false,
      "stateMutability": "pure",
      "type": "function"
    },
    {
      "constant": true,
      "inputs": [
        {
          "internalType": "string",
          "name": "source",
          "type": "string"
        }
      ],
      "name": "stringToBytes32Array",
      "outputs": [
        {
          "internalType": "bytes32[]",
          "name": "result",
          "type": "bytes32[]"
        }
      ],
      "payable": false,
      "stateMutability": "pure",
      "type": "function"
    },
    {
      "constant": true,
      "inputs": [
        {
          "internalType": "bytes",
          "name": "data",
          "type": "bytes"
        }
      ],
      "name": "bytesSplit32",
      "outputs": [
        {
          "internalType": "bytes32",
          "name": "",
          "type": "bytes32"
        },
        {
          "internalType": "bytes",
          "name": "",
          "type": "bytes"
        }
      ],
      "payable": false,
      "stateMutability": "pure",
      "type": "function"
    },
    {
      "constant": false,
      "inputs": [
        {
          "internalType": "bytes4",
          "name": "fnNameHash",
          "type": "bytes4"
        },
        {
          "internalType": "string",
          "name": "poll",
          "type": "string"
        },
        {
          "internalType": "uint256",
          "name": "valid",
          "type": "uint256"
        },
        {
          "internalType": "uint8",
          "name": "vt",
          "type": "uint8"
        }
      ],
      "name": "crossContractCall",
      "outputs": [
        {
          "internalType": "bytes32[]",
          "name": "",
          "type": "bytes32[]"
        }
      ],
      "payable": false,
      "stateMutability": "nonpayable",
      "type": "function"
    }
  ],
  "bytecode": "0x6080604052739d26a8a5db7dc10689692caf8d52c912958409cf600960006101000a81548173ffffffffffffffffffffffffffffffffffffffff021916908373ffffffffffffffffffffffffffffffffffffffff16021790555034801561006557600080fd5b50613e55806100756000396000f3fe60806040526004361061020f5760003560e01c80635a31204c1161011857806391652043116100a0578063b11a19e81161006f578063b11a19e8146108c6578063bfe370d914610903578063d7bcee3014610940578063e40a42ab14610969578063f9633930146109a65761020f565b806391652043146107d25780639201de551461080f5780639cbc87a31461084c578063a1bac85f146108895761020f565b80637c34d108116100e75780637c34d108146106c7578063890eba68146107045780638a9392c01461072f5780638e3dca0b1461076c5780638fee464b146107a95761020f565b80635a31204c146105fb5780636622f2cf146106385780636900a3ae146106615780636b2019d41461069e5761020f565b8063417aa1341161019b5780634c0999c71161016a5780634c0999c7146104de578063507ad4db1461051b578063560249391461055857806356ca623e1461059557806358666c04146105d25761020f565b8063417aa134146103f857806342526e4e146104215780634665ecb41461045e5780634a0f2fd71461049b5761020f565b806313311a1c116101e257806313311a1c146102ee5780632333d14b1461032b57806326a9cdf7146103545780632742bea8146103925780633e10510b146103bb5761020f565b806305af5d35146102195780630987fc36146102445780630dd990c71461026d57806310a688e3146102aa575b6102176109d1565b005b34801561022557600080fd5b5061022e610a1e565b60405161023b9190613946565b60405180910390f35b34801561025057600080fd5b5061026b60048036036102669190810190612b41565b610a27565b005b34801561027957600080fd5b50610294600480360361028f9190810190612b00565b610a6d565b6040516102a19190613765565b60405180910390f35b3480156102b657600080fd5b506102d160048036036102cc9190810190612b00565b610b83565b6040516102e59897969594939291906136e0565b60405180910390f35b3480156102fa57600080fd5b5061031560048036036103109190810190612a67565b610bd7565b6040516103229190613765565b60405180910390f35b34801561033757600080fd5b50610352600480360361034d91908101906129f9565b610d40565b005b34801561036057600080fd5b5061037b60048036036103769190810190612964565b610d87565b6040516103899291906137df565b60405180910390f35b34801561039e57600080fd5b506103b960048036036103b49190810190612d3f565b610f12565b005b3480156103c757600080fd5b506103e260048036036103dd9190810190612b95565b610f80565b6040516103ef9190613787565b60405180910390f35b34801561040457600080fd5b5061041f600480360361041a9190810190612b41565b611025565b005b34801561042d57600080fd5b5061044860048036036104439190810190612964565b61106b565b6040516104559190613655565b60405180910390f35b34801561046a57600080fd5b5061048560048036036104809190810190612b00565b611090565b6040516104929190613909565b60405180910390f35b3480156104a757600080fd5b506104c260048036036104bd9190810190612abf565b611112565b6040516104d59796959493929190613670565b60405180910390f35b3480156104ea57600080fd5b50610505600480360361050091908101906128c0565b6111c2565b604051610512919061380f565b60405180910390f35b34801561052757600080fd5b50610542600480360361053d9190810190612a22565b61126a565b60405161054f9190613765565b60405180910390f35b34801561056457600080fd5b5061057f600480360361057a9190810190612a67565b6113d2565b60405161058c9190613765565b60405180910390f35b3480156105a157600080fd5b506105bc60048036036105b791908101906127ef565b61153b565b6040516105c99190613867565b60405180910390f35b3480156105de57600080fd5b506105f960048036036105f49190810190612b00565b61156e565b005b34801561060757600080fd5b50610622600480360361061d9190810190612b00565b6115a8565b60405161062f9190613765565b60405180910390f35b34801561064457600080fd5b5061065f600480360361065a9190810190612b00565b6116be565b005b34801561066d57600080fd5b5061068860048036036106839190810190612dea565b61180f565b6040516106959190613867565b60405180910390f35b3480156106aa57600080fd5b506106c560048036036106c09190810190612c01565b611842565b005b3480156106d357600080fd5b506106ee60048036036106e99190810190612b41565b6118cf565b6040516106fb919061392b565b60405180910390f35b34801561071057600080fd5b50610719611a1b565b6040516107269190613831565b60405180910390f35b34801561073b57600080fd5b5061075660048036036107519190810190612818565b611a2e565b60405161076391906137a9565b60405180910390f35b34801561077857600080fd5b50610793600480360361078e91908101906128e9565b611cfd565b6040516107a09190613787565b60405180910390f35b3480156107b557600080fd5b506107d060048036036107cb9190810190612b00565b611d79565b005b3480156107de57600080fd5b506107f960048036036107f49190810190612b00565b611db6565b6040516108069190613787565b60405180910390f35b34801561081b57600080fd5b50610836600480360361083191908101906128c0565b611e1c565b6040516108439190613867565b60405180910390f35b34801561085857600080fd5b50610873600480360361086e919081019061287f565b611e33565b6040516108809190613867565b60405180910390f35b34801561089557600080fd5b506108b060048036036108ab91908101906129a5565b611ff6565b6040516108bd9190613867565b60405180910390f35b3480156108d257600080fd5b506108ed60048036036108e891908101906128c0565b612273565b6040516108fa9190613867565b60405180910390f35b34801561090f57600080fd5b5061092a60048036036109259190810190612964565b6122a6565b60405161093791906137c4565b60405180910390f35b34801561094c57600080fd5b5061096760048036036109629190810190612c94565b6122b9565b005b34801561097557600080fd5b50610990600480360361098b9190810190612b41565b61231f565b60405161099d919061392b565b60405180910390f35b3480156109b257600080fd5b506109bb61238b565b6040516109c8919061384c565b60405180910390f35b60606000368080601f016020809104026020016040519081016040528093929190818152602001838380828437600081840152601f19601f82011690508083019250505050505050905050565b60006001905090565b610a69826040518060400160405280601081526020017f73657269616c6973655374616b65727300000000000000000000000000000000815250600184611842565b5050565b606080610aaf836040518060400160405280600f81526020017f73657269616c69736550726f6f66730000000000000000000000000000000000815250610f80565b905060608151604051908082528060200260200182016040528015610ae35781602001602082028038833980820191505090505b50905060008090505b82518161ffff161015610b7857610b21610b1c848361ffff1681518110610b0f57fe5b60200260200101516111c2565b61106b565b828261ffff1681518110610b3157fe5b602002602001019073ffffffffffffffffffffffffffffffffffffffff16908173ffffffffffffffffffffffffffffffffffffffff16815250508080600101915050610aec565b508092505050919050565b600080600080600080600060606103e89650619c40955060039450600393506501728eee956092506501728ef01c009150878787878787878797509750975097509750975097509750919395975091939597565b6060806004604051908082528060200260200182016040528015610c0a5781602001602082028038833980820191505090505b509050600060056000600583935082925081915080905084600081518110610c2e57fe5b6020026020010185600181518110610c4257fe5b6020026020010186600281518110610c5657fe5b6020026020010187600381518110610c6a57fe5b602002602001018473ffffffffffffffffffffffffffffffffffffffff1673ffffffffffffffffffffffffffffffffffffffff168152508473ffffffffffffffffffffffffffffffffffffffff1673ffffffffffffffffffffffffffffffffffffffff168152508473ffffffffffffffffffffffffffffffffffffffff1673ffffffffffffffffffffffffffffffffffffffff168152508473ffffffffffffffffffffffffffffffffffffffff1673ffffffffffffffffffffffffffffffffffffffff1681525050505050809150509392505050565b80600860006101000a81548173ffffffffffffffffffffffffffffffffffffffff021916908360130b73ffffffffffffffffffffffffffffffffffffffff16021790555050565b6000606060006020905060008090508160ff1685511115610dac578160ff1685510390505b600060608360ff166040519080825280601f01601f191660200182016040528015610de65781602001600182028038833980820191505090505b5090506060836040519080825280601f01601f191660200182016040528015610e1e5781602001600182028038833980820191505090505b50905060008090505b60018951038111610ef9578560ff16811015610e9457888181518110610e4957fe5b602001015160f81c60f81b838281518110610e6057fe5b60200101907effffffffffffffffffffffffffffffffffffffffffffffffffffffffffffff1916908160001a905350610eec565b888181518110610ea057fe5b602001015160f81c60f81b828760ff16830381518110610ebc57fe5b60200101907effffffffffffffffffffffffffffffffffffffffffffffffffffffffffffff1916908160001a9053505b8080600101915050610e27565b50610f03826122a6565b81965096505050505050915091565b600084610f1e856123a5565b84604051602001610f3193929190613601565b604051602081830303815290604052805190602001209050610f5282611db6565b600160008381526020019081526020016000209080519060200190610f78929190612461565b505050505050565b6060600083610f8e846123a5565b6001604051602001610fa293929190613601565b6040516020818303038152906040528051906020012090506001600082815260200190815260200160002080548060200260200160405190810160405280929190818152602001828054801561101757602002820191906000526020600020905b815481526020019060010190808311611003575b505050505091505092915050565b611067826040518060400160405280600f81526020017f73657269616c69736550726f6f66730000000000000000000000000000000000815250600184611842565b5050565b6000806c01000000000000000000000000600060208501015104905080915050919050565b6110986124ae565b6103e8816020018181525050619c40816040018181525050619c408160600181815250506003816080019060ff16908160ff168152505060038160a0019060ff16908160ff16815250506501728eee95608160c0015160000181815250506501728ef01c008160c001516020018181525050809050919050565b6002818051602081018201805184825260208301602085012081835280955050505050506000915090508060000160009054906101000a900473ffffffffffffffffffffffffffffffffffffffff16908060010154908060020154908060030154908060040160009054906101000a900460ff16908060050160405180604001604052908160008201548152602001600182015481525050908060070160009054906101000a900460ff16905087565b60608060206040519080825280601f01601f1916602001820160405280156111f95781602001600182028038833980820191505090505b50905060005b60208110156112605783816020811061121457fe5b1a60f81b82828151811061122457fe5b60200101907effffffffffffffffffffffffffffffffffffffffffffffffffffffffffffff1916908160001a90535080806001019150506111ff565b5080915050919050565b606080600460405190808252806020026020018201604052801561129d5781602001602082028038833980820191505090505b5090506005600060056000839350829250819150809050846000815181106112c157fe5b60200260200101856001815181106112d557fe5b60200260200101866002815181106112e957fe5b60200260200101876003815181106112fd57fe5b602002602001018473ffffffffffffffffffffffffffffffffffffffff1673ffffffffffffffffffffffffffffffffffffffff168152508473ffffffffffffffffffffffffffffffffffffffff1673ffffffffffffffffffffffffffffffffffffffff168152508473ffffffffffffffffffffffffffffffffffffffff1673ffffffffffffffffffffffffffffffffffffffff168152508473ffffffffffffffffffffffffffffffffffffffff1673ffffffffffffffffffffffffffffffffffffffff16815250505050508091505092915050565b60608060046040519080825280602002602001820160405280156114055781602001602082028038833980820191505090505b50905060056000600560008393508292508191508090508460008151811061142957fe5b602002602001018560018151811061143d57fe5b602002602001018660028151811061145157fe5b602002602001018760038151811061146557fe5b602002602001018473ffffffffffffffffffffffffffffffffffffffff1673ffffffffffffffffffffffffffffffffffffffff168152508473ffffffffffffffffffffffffffffffffffffffff1673ffffffffffffffffffffffffffffffffffffffff168152508473ffffffffffffffffffffffffffffffffffffffff1673ffffffffffffffffffffffffffffffffffffffff168152508473ffffffffffffffffffffffffffffffffffffffff1673ffffffffffffffffffffffffffffffffffffffff1681525050505050809150509392505050565b60606115678260405160200161155191906135b4565b6040516020818303038152906040526005611ff6565b9050919050565b7fbef39ac07ea6b8a7a08590612f317b1db2e9821fea4739345478345d853321e78160405161159d9190613867565b60405180910390a150565b6060806115ea836040518060400160405280601081526020017f73657269616c6973655374616b65727300000000000000000000000000000000815250610f80565b90506060815160405190808252806020026020018201604052801561161e5781602001602082028038833980820191505090505b50905060008090505b82518161ffff1610156116b35761165c611657848361ffff168151811061164a57fe5b60200260200101516111c2565b61106b565b828261ffff168151811061166c57fe5b602002602001019073ffffffffffffffffffffffffffffffffffffffff16908173ffffffffffffffffffffffffffffffffffffffff16815250508080600101915050611627565b508092505050919050565b8060606116ca826115a8565b9050600080600090505b8251811015611736573373ffffffffffffffffffffffffffffffffffffffff1683828151811061170057fe5b602002602001015173ffffffffffffffffffffffffffffffffffffffff16141561172957600191505b80806001019150506116d4565b5080611777576040517f08c379a000000000000000000000000000000000000000000000000000000000815260040161176e906138a9565b60405180910390fd5b6060611782856115a8565b905060006117bb825160028860405161179b91906135ea565b9081526020016040518091039020600201546123b690919063ffffffff16565b905060006002876040516117cf91906135ea565b9081526020016040518091039020600201546002886040516117f191906135ea565b90815260200160405180910390206003015403905050505050505050565b606061183b82604051602001611825919061363a565b6040516020818303038152906040526000611ff6565b9050919050565b60008461184e856123a5565b8460405160200161186193929190613601565b604051602081830303815290604052805190602001209050600160008281526020019081526020016000208260601b6bffffffffffffffffffffffff191690806001815401808255809150509060018203906000526020600020016000909192909190915055505050505050565b60006002836040516118e191906135ea565b908152602001604051809103902060080160008373ffffffffffffffffffffffffffffffffffffffff1673ffffffffffffffffffffffffffffffffffffffff16815260200190815260200160002060030160008073ffffffffffffffffffffffffffffffffffffffff1673ffffffffffffffffffffffffffffffffffffffff1681526020019081526020016000205460028460405161198091906135ea565b908152602001604051809103902060080160008473ffffffffffffffffffffffffffffffffffffffff1673ffffffffffffffffffffffffffffffffffffffff16815260200190815260200160002060030160008473ffffffffffffffffffffffffffffffffffffffff1673ffffffffffffffffffffffffffffffffffffffff1681526020019081526020016000205401905080905092915050565b600860009054906101000a900460130b81565b60006060611a3b846115a8565b90506060611a4885610a6d565b905060008060019050611a59612523565b600092505b83518361ffff161015611c0e577fffffffffffffffffffffffffffffffffffffffffffffffffffffffffffffffff816020019060000b908160000b8152505060008090505b8551811015611bd357858181518110611ab857fe5b602002602001015173ffffffffffffffffffffffffffffffffffffffff16858561ffff1681518110611ae657fe5b602002602001015173ffffffffffffffffffffffffffffffffffffffff161415611bc6573373ffffffffffffffffffffffffffffffffffffffff16858561ffff1681518110611b3157fe5b602002602001015173ffffffffffffffffffffffffffffffffffffffff161415611b675760018260600190151590811515815250505b81602001805180919060010160000b60000b815250506000868281518110611b8b57fe5b602002602001019073ffffffffffffffffffffffffffffffffffffffff16908173ffffffffffffffffffffffffffffffffffffffff16815250505b8080600101915050611aa3565b506000816020015160000b1315611c01578060200151816040018181510191509060ff16908160ff16815250505b8280600101935050611a5e565b8060600151611c52576040517f08c379a0000000000000000000000000000000000000000000000000000000008152600401611c4990613889565b60405180910390fd5b8160ff16816040015160ff168551031015611ca2576040517f08c379a0000000000000000000000000000000000000000000000000000000008152600401611c99906138c9565b60405180910390fd5b806040015160ff1684511415611ced576040517f08c379a0000000000000000000000000000000000000000000000000000000008152600401611ce4906138e9565b60405180910390fd5b6001955050505050509392505050565b60606000600960009054906101000a900473ffffffffffffffffffffffffffffffffffffffff1690507f1ff50e4650f7f1e5b26a5f5e921b803deee4a95a1b6ef46e05992b3bc1dcdb8c60405160405180910390a160405136600082376000803683855af43d806000843e8160008114611d75578184f35b8184fd5b6001600282604051611d8b91906135ea565b908152602001604051809103902060070160006101000a81548160ff02191690831515021790555050565b606060006001905060008090505b8161ffff168161ffff1611611e12576000600182016020029050600081860151905080858461ffff1681518110611df757fe5b60200260200101818152505050508080600101915050611dc4565b5081915050919050565b606080611e28836111c2565b905080915050919050565b60608060208351026040519080825280601f01601f191660200182016040528015611e6d5781602001600182028038833980820191505090505b50905060008060009050600090505b8451811015611f465760008090505b6020811015611f385760008160080260020a878481518110611ea957fe5b602002602001015160001c0260001b9050600060f81b817effffffffffffffffffffffffffffffffffffffffffffffffffffffffffffff191614611f2a5780858581518110611ef457fe5b60200101907effffffffffffffffffffffffffffffffffffffffffffffffffffffffffffff1916908160001a9053506001840193505b508080600101915050611e8b565b508080600101915050611e7c565b6060826040519080825280601f01601f191660200182016040528015611f7b5781602001600182028038833980820191505090505b509050600091505b82821015611fea57838281518110611f9757fe5b602001015160f81c60f81b818381518110611fae57fe5b60200101907effffffffffffffffffffffffffffffffffffffffffffffffffffffffffffff1916908160001a9053508180600101925050611f83565b80945050505050919050565b6060806040518060400160405280601081526020017f3031323334353637383961626364656600000000000000000000000000000000815250905060006014905060606002820260020161ffff166040519080825280601f01601f1916602001820160405280156120765781602001600182028038833980820191505090505b5090507f3000000000000000000000000000000000000000000000000000000000000000816000815181106120a757fe5b60200101907effffffffffffffffffffffffffffffffffffffffffffffffffffffffffffff1916908160001a9053507f78000000000000000000000000000000000000000000000000000000000000008160018151811061210457fe5b60200101907effffffffffffffffffffffffffffffffffffffffffffffffffffffffffffff1916908160001a90535060008090505b8261ffff168110156122665783600488838151811061215457fe5b602001015160f81c60f81b7effffffffffffffffffffffffffffffffffffffffffffffffffffffffffffff1916901c60f81c60ff168151811061219357fe5b602001015160f81c60f81b8260028302600201815181106121b057fe5b60200101907effffffffffffffffffffffffffffffffffffffffffffffffffffffffffffff1916908160001a90535083600f60f81b8883815181106121f157fe5b602001015160f81c60f81b1660f81c60ff168151811061220d57fe5b602001015160f81c60f81b82600283026003018151811061222a57fe5b60200101907effffffffffffffffffffffffffffffffffffffffffffffffffffffffffffff1916908160001a9053508080600101915050612139565b5080935050505092915050565b606061229f8260405160200161228991906135cf565b6040516020818303038152906040526000611ff6565b9050919050565b6000806020830151905080915050919050565b6000846122c5856123a5565b846040516020016122d893929190613601565b60405160208183030381529060405280519060200120905081600160008381526020019081526020016000209080519060200190612317929190612461565b505050505050565b600060028360405161233191906135ea565b908152602001604051809103902060080160008373ffffffffffffffffffffffffffffffffffffffff1673ffffffffffffffffffffffffffffffffffffffff16815260200190815260200160002060000154905092915050565b6000600860009054906101000a900460130b60130b905090565b600081805190602001209050919050565b60006123f883836040518060400160405280601a81526020017f536166654d6174683a206469766973696f6e206279207a65726f000000000000815250612400565b905092915050565b60008083118290612447576040517f08c379a000000000000000000000000000000000000000000000000000000000815260040161243e9190613867565b60405180910390fd5b50600083858161245357fe5b049050809150509392505050565b82805482825590600052602060002090810192821561249d579160200282015b8281111561249c578251825591602001919060010190612481565b5b5090506124aa9190612554565b5090565b604051806101400160405280600073ffffffffffffffffffffffffffffffffffffffff168152602001600081526020016000815260200160008152602001600060ff168152602001600060ff168152602001612508612579565b81526020016060815260200160608152602001606081525090565b60405180608001604052806000151581526020016000800b8152602001600060ff1681526020016000151581525090565b61257691905b8082111561257257600081600090555060010161255a565b5090565b90565b604051806040016040528060008152602001600081525090565b6000813590506125a281613d71565b92915050565b600082601f8301126125b957600080fd5b81356125cc6125c78261398e565b613961565b915081818352602084019350602081019050838560208402820111156125f157600080fd5b60005b838110156126215781612607888261262b565b8452602084019350602083019250506001810190506125f4565b5050505092915050565b60008135905061263a81613d88565b92915050565b60008135905061264f81613d9f565b92915050565b600082601f83011261266657600080fd5b8135612679612674826139b6565b613961565b9150808252602083016020830185838301111561269557600080fd5b6126a0838284613cb0565b50505092915050565b6000813590506126b881613db6565b92915050565b60008083601f8401126126d057600080fd5b8235905067ffffffffffffffff8111156126e957600080fd5b60208301915083600182028301111561270157600080fd5b9250929050565b600082601f83011261271957600080fd5b813561272c612727826139e2565b613961565b9150808252602083016020830185838301111561274857600080fd5b612753838284613cb0565b50505092915050565b600082601f83011261276d57600080fd5b813561278061277b82613a0e565b613961565b9150808252602083016020830185838301111561279c57600080fd5b6127a7838284613cb0565b50505092915050565b6000813590506127bf81613dcd565b92915050565b6000813590506127d481613de4565b92915050565b6000813590506127e981613dfb565b92915050565b60006020828403121561280157600080fd5b600061280f84828501612593565b91505092915050565b60008060006060848603121561282d57600080fd5b600061283b86828701612593565b935050602084013567ffffffffffffffff81111561285857600080fd5b6128648682870161275c565b92505060406128758682870161262b565b9150509250925092565b60006020828403121561289157600080fd5b600082013567ffffffffffffffff8111156128ab57600080fd5b6128b7848285016125a8565b91505092915050565b6000602082840312156128d257600080fd5b60006128e08482850161262b565b91505092915050565b600080600080608085870312156128ff57600080fd5b600061290d87828801612640565b945050602085013567ffffffffffffffff81111561292a57600080fd5b6129368782880161275c565b9350506040612947878288016127c5565b9250506060612958878288016127da565b91505092959194509250565b60006020828403121561297657600080fd5b600082013567ffffffffffffffff81111561299057600080fd5b61299c84828501612655565b91505092915050565b600080604083850312156129b857600080fd5b600083013567ffffffffffffffff8111156129d257600080fd5b6129de85828601612655565b92505060206129ef858286016127b0565b9150509250929050565b600060208284031215612a0b57600080fd5b6000612a19848285016126a9565b91505092915050565b60008060208385031215612a3557600080fd5b600083013567ffffffffffffffff811115612a4f57600080fd5b612a5b858286016126be565b92509250509250929050565b600080600060408486031215612a7c57600080fd5b600084013567ffffffffffffffff811115612a9657600080fd5b612aa2868287016126be565b93509350506020612ab5868287016127da565b9150509250925092565b600060208284031215612ad157600080fd5b600082013567ffffffffffffffff811115612aeb57600080fd5b612af784828501612708565b91505092915050565b600060208284031215612b1257600080fd5b600082013567ffffffffffffffff811115612b2c57600080fd5b612b388482850161275c565b91505092915050565b60008060408385031215612b5457600080fd5b600083013567ffffffffffffffff811115612b6e57600080fd5b612b7a8582860161275c565b9250506020612b8b85828601612593565b9150509250929050565b60008060408385031215612ba857600080fd5b600083013567ffffffffffffffff811115612bc257600080fd5b612bce8582860161275c565b925050602083013567ffffffffffffffff811115612beb57600080fd5b612bf78582860161275c565b9150509250929050565b60008060008060808587031215612c1757600080fd5b600085013567ffffffffffffffff811115612c3157600080fd5b612c3d8782880161275c565b945050602085013567ffffffffffffffff811115612c5a57600080fd5b612c668782880161275c565b9350506040612c77878288016127da565b9250506060612c8887828801612593565b91505092959194509250565b60008060008060808587031215612caa57600080fd5b600085013567ffffffffffffffff811115612cc457600080fd5b612cd08782880161275c565b945050602085013567ffffffffffffffff811115612ced57600080fd5b612cf98782880161275c565b9350506040612d0a878288016127da565b925050606085013567ffffffffffffffff811115612d2757600080fd5b612d33878288016125a8565b91505092959194509250565b60008060008060808587031215612d5557600080fd5b600085013567ffffffffffffffff811115612d6f57600080fd5b612d7b8782880161275c565b945050602085013567ffffffffffffffff811115612d9857600080fd5b612da48782880161275c565b9350506040612db5878288016127da565b925050606085013567ffffffffffffffff811115612dd257600080fd5b612dde8782880161275c565b91505092959194509250565b600060208284031215612dfc57600080fd5b6000612e0a848285016127c5565b91505092915050565b6000612e1f8383612e73565b60208301905092915050565b6000612e378383613020565b60a08301905092915050565b6000612e4f8383613142565b60208301905092915050565b6000612e678383613508565b60608301905092915050565b612e7c81613c00565b82525050565b612e8b81613c00565b82525050565b612ea2612e9d82613c00565b613cf2565b82525050565b6000612eb382613aaf565b612ebd8185613b73565b9350612ec883613a4a565b8060005b83811015612ef9578151612ee08882612e13565b9750612eeb83613b14565b925050600181019050612ecc565b5085935050505092915050565b6000612f1182613aa4565b612f1b8185613b62565b9350612f2683613a3a565b8060005b83811015612f57578151612f3e8882612e13565b9750612f4983613b07565b925050600181019050612f2a565b5085935050505092915050565b6000612f6f82613ac5565b612f798185613b95565b9350612f8483613a6a565b8060005b83811015612fb5578151612f9c8882612e2b565b9750612fa783613b2e565b925050600181019050612f88565b5085935050505092915050565b6000612fcd82613aba565b612fd78185613b84565b9350612fe283613a5a565b8060005b83811015613013578151612ffa8882612e2b565b975061300583613b21565b925050600181019050612fe6565b5085935050505092915050565b61302981613ad0565b6130338184613ba6565b925061303e82613a7a565b8060005b8381101561306f5781516130568782612e43565b965061306183613b3b565b925050600181019050613042565b505050505050565b600061308282613adb565b61308c8185613bb1565b935061309783613a84565b8060005b838110156130c85781516130af8882612e43565b97506130ba83613b48565b92505060018101905061309b565b5085935050505092915050565b60006130e082613ae6565b6130ea8185613bc2565b93506130f583613a94565b8060005b8381101561312657815161310d8882612e5b565b975061311883613b55565b9250506001810190506130f9565b5085935050505092915050565b61313c81613c12565b82525050565b61314b81613c1e565b82525050565b61315a81613c1e565b82525050565b61317161316c82613c1e565b613d04565b82525050565b61318861318382613c28565b613d0e565b82525050565b600061319982613af1565b6131a38185613bd3565b93506131b3818560208601613cbf565b6131bc81613d46565b840191505092915050565b6131d081613c54565b82525050565b6131df81613c61565b82525050565b60006131f082613afc565b6131fa8185613be4565b935061320a818560208601613cbf565b61321381613d46565b840191505092915050565b600061322982613afc565b6132338185613bf5565b9350613243818560208601613cbf565b80840191505092915050565b600061325c602283613be4565b91507f53656e64657220646964206e6f7420726567697374657220617474656e64616e60008301527f63650000000000000000000000000000000000000000000000000000000000006020830152604082019050919050565b60006132c2603483613be4565b91507f46756e6374696f6e206d6179206f6e6c792062652063616c6c6564206279206160008301527f207374616b6572206f6e207468697320706f6c6c0000000000000000000000006020830152604082019050919050565b6000613328602183613be4565b91507f4e6f7420656e6f75676820617474656e6465657320696e20636f6e73656e737560008301527f73000000000000000000000000000000000000000000000000000000000000006020830152604082019050919050565b600061338e601483613be4565b91507f416c6c2070726f6f667320776572652066616b650000000000000000000000006000830152602082019050919050565b6000610160830160008301516133da6000860182612e73565b5060208301516133ed602086018261354a565b506040830151613400604086018261354a565b506060830151613413606086018261354a565b506080830151613426608086018261357f565b5060a083015161343960a086018261357f565b5060c083015161344c60c08601826134aa565b5060e08301518482036101008601526134658282612fc2565b9150506101008301518482036101208601526134818282612f06565b91505061012083015184820361014086015261349d82826130d5565b9150508091505092915050565b6040820160008201516134c0600085018261354a565b5060208201516134d3602085018261354a565b50505050565b6040820160008201516134ef600085018261354a565b506020820151613502602085018261354a565b50505050565b60608201600082015161351e6000850182612e73565b5060208201516135316020850182612e73565b506040820151613544604085018261354a565b50505050565b61355381613c99565b82525050565b61356281613c99565b82525050565b61357961357482613c99565b613d2a565b82525050565b61358881613ca3565b82525050565b61359781613ca3565b82525050565b6135ae6135a982613ca3565b613d34565b82525050565b60006135c08284612e91565b60148201915081905092915050565b60006135db8284613160565b60208201915081905092915050565b60006135f6828461321e565b915081905092915050565b600061360d828661321e565b91506136198285613177565b600482019150613629828461359d565b600182019150819050949350505050565b60006136468284613568565b60208201915081905092915050565b600060208201905061366a6000830184612e82565b92915050565b600061010082019050613686600083018a612e82565b6136936020830189613559565b6136a06040830188613559565b6136ad6060830187613559565b6136ba608083018661358e565b6136c760a08301856134d9565b6136d460e0830184613133565b98975050505050505050565b6000610100820190506136f6600083018b612e82565b613703602083018a613559565b6137106040830189613559565b61371d606083018861358e565b61372a608083018761358e565b61373760a0830186613559565b61374460c0830185613559565b81810360e08301526137568184612f64565b90509998505050505050505050565b6000602082019050818103600083015261377f8184612ea8565b905092915050565b600060208201905081810360008301526137a18184613077565b905092915050565b60006020820190506137be6000830184613133565b92915050565b60006020820190506137d96000830184613151565b92915050565b60006040820190506137f46000830185613151565b8181036020830152613806818461318e565b90509392505050565b60006020820190508181036000830152613829818461318e565b905092915050565b600060208201905061384660008301846131c7565b92915050565b600060208201905061386160008301846131d6565b92915050565b6000602082019050818103600083015261388181846131e5565b905092915050565b600060208201905081810360008301526138a28161324f565b9050919050565b600060208201905081810360008301526138c2816132b5565b9050919050565b600060208201905081810360008301526138e28161331b565b9050919050565b6000602082019050818103600083015261390281613381565b9050919050565b6000602082019050818103600083015261392381846133c1565b905092915050565b60006020820190506139406000830184613559565b92915050565b600060208201905061395b600083018461358e565b92915050565b6000604051905081810181811067ffffffffffffffff8211171561398457600080fd5b8060405250919050565b600067ffffffffffffffff8211156139a557600080fd5b602082029050602081019050919050565b600067ffffffffffffffff8211156139cd57600080fd5b601f19601f8301169050602081019050919050565b600067ffffffffffffffff8211156139f957600080fd5b601f19601f8301169050602081019050919050565b600067ffffffffffffffff821115613a2557600080fd5b601f19601f8301169050602081019050919050565b6000819050602082019050919050565b6000819050602082019050919050565b6000819050602082019050919050565b6000819050602082019050919050565b6000819050919050565b6000819050602082019050919050565b6000819050602082019050919050565b600081519050919050565b600081519050919050565b600081519050919050565b600081519050919050565b600060059050919050565b600081519050919050565b600081519050919050565b600081519050919050565b600081519050919050565b6000602082019050919050565b6000602082019050919050565b6000602082019050919050565b6000602082019050919050565b6000602082019050919050565b6000602082019050919050565b6000602082019050919050565b600082825260208201905092915050565b600082825260208201905092915050565b600082825260208201905092915050565b600082825260208201905092915050565b600081905092915050565b600082825260208201905092915050565b600082825260208201905092915050565b600082825260208201905092915050565b600082825260208201905092915050565b600081905092915050565b6000613c0b82613c79565b9050919050565b60008115159050919050565b6000819050919050565b60007fffffffff0000000000000000000000000000000000000000000000000000000082169050919050565b60008160130b9050919050565b6000819050919050565b600061ffff82169050919050565b600073ffffffffffffffffffffffffffffffffffffffff82169050919050565b6000819050919050565b600060ff82169050919050565b82818337600083830152505050565b60005b83811015613cdd578082015181840152602081019050613cc2565b83811115613cec576000848401525b50505050565b6000613cfd82613d18565b9050919050565b6000819050919050565b6000819050919050565b6000613d2382613d64565b9050919050565b6000819050919050565b6000613d3f82613d57565b9050919050565b6000601f19601f8301169050919050565b60008160f81b9050919050565b60008160601b9050919050565b613d7a81613c00565b8114613d8557600080fd5b50565b613d9181613c1e565b8114613d9c57600080fd5b50565b613da881613c28565b8114613db357600080fd5b50565b613dbf81613c54565b8114613dca57600080fd5b50565b613dd681613c6b565b8114613de157600080fd5b50565b613ded81613c99565b8114613df857600080fd5b50565b613e0481613ca3565b8114613e0f57600080fd5b5056fea365627a7a723158208b8f0864ef954104024004a9f2c3d8fd1635c581998f3617af3aadd68bbed6306c6578706572696d656e74616cf564736f6c63430005100040",
  "source": "pragma solidity ^0.5.7;\npragma experimental ABIEncoderV2;\n\nimport \"./strings.sol\";\nimport \"./stringCasting.sol\";\n// import \"./BytesLib.sol\";\nimport \"./SafeMath.sol\";\n\n/* empty contract - the real one is depolyed at an address which will be passed as param to validate */\n\n// contract PollReference {\n//     function serialiseStakers(string calldata _poll, uint8 validationType) external returns (address[] memory) {\n//         // return something which will make it obvious that you have accidentally delegated this context!\n//         address[] memory ret = new address[](3);\n//         (ret[0], ret[1], ret[2]) = (address(9), address(9), address(9));\n//         return ret;\n//\n//     }\n//\n//     function serialiseProofs(string calldata _poll, uint8 validationType) external returns (address[] memory) {\n//         // return something which will make it obvious that you have accidentally delegated this context!\n//         address[] memory ret = new address[](4);\n//         (ret[0], ret[1], ret[2], ret[3]) = (address(6), address(6), address(6), address(6));\n//         return ret;\n//     }\n// }\n\n\n/* Lunchcoin validator contract - mutual agreement */\ncontract MutualAgreement {\n    // Common storage structure for ALL contacts using this storage.\n    // _, __, __ , etc are unused in this contract, but must remain to occupy their slots.\n\n    address owner;  // is set by TokenStorage.. but retain types and order.\n\n    struct TimeRange {\n      uint start;\n      uint end;\n    }\n\n    struct Stake {\n      uint rep;\n      TimeRange[] available;\n      uint availabilityExpires;\n      mapping (address => uint) venueContribution;\n    }\n\n    struct dibs {\n      address payer;\n      address recipient;\n      uint amount;\n    }\n\n    struct Poll {\n      address initiator;\n      uint minStake;\n      uint venueCost;\n      uint venuePot;\n      uint8 minParticipants;\n      TimeRange eventTime;\n      bool proofsWindowClosed;\n      mapping (address => Stake) staked;\n      mapping (address => bytes32[]) committedProofs;\n      dibs[] dibsCalled;\n    }\n\n    struct PollExternal {\n      address initiator;\n      uint minStake;\n      uint venueCost;\n      uint venuePot;\n      uint8 minParticipants;\n      uint8 participants;\n      TimeRange eventTime;\n      // NB external view of Poll can never correctly represent committedProofs (a mapping to a dynamic array).\n      // Need to either make it indicative, or fixed size.\n\n      // getting arrays with web3 is weird. Possibly claims ABI error?\n      bytes32[5][] committedProofs;\n      address[] provers;\n      dibs[] dibsCalled;\n    }\n\n    // shared across contracts\n    mapping (bytes32 => bytes32[]) allTheData;\n    mapping (string => Poll) public pollData;\n    mapping (bytes32 => bool) resultsCache;\n\n    // used only in Poll\n    mapping(uint8 => address) internal __validators;\n    mapping(uint8 => string) internal __validatorNames;\n    mapping(address => uint) internal __cashBalance;\n    address __selfAddy ;\n\n\n    int160 public flag;\n\n    // unused - previously for Storage Proxy\n    //    mapping (address => bool) internal _allowedAccess;\n\n    // used only in Validators\n\n      // used for testing only - will be deleted.\n      address pollAddress = 0x9D26a8a5Db7dC10689692caF8d52C912958409CF;\n\n    // constants: Do not use space in storage.\n    uint8 constant vType=1;\n    string constant vDesc = \"mutual agreement\";\n\n\n    struct proofCounter {\n        bool fakeProof;\n        int8 duplicateProofs;\n        uint8 fakeProofs;\n        bool senderIsPresent;\n    }\n\n\n    using strings for *;\n    using stringcast for string;\n    using SafeMath for uint;\n\n    function () payable external {\n        _fallback();\n    }\n\n    // function() external payable {\n    //     // NB sol 0.6+ better syntax for calldata arrays : https://solidity.readthedocs.io/en/v0.6.0/types.html#array-slices\n    //     bytes memory input = msg.data;\n    //\n    //     // TODO: This is V.0 accepting a string (really a bytes32) of EXACTLY 32 bytes, eg a doodle poll without the https:// ;)\n    //     bytes32 __ownAdress;  // NB assuming 32b rather than 20b for calldata loose packing. Remember to get rid of this line when optimising!\n    //     bytes memory usefulData;\n    //     bytes32 poll32;\n    //     bytes memory __reveal;\n    //     // demo result! (we don;t need more than bool really ;)\n    //     uint256 valid = 7331;\n    //\n    //     (__ownAdress, usefulData) = (bytesSplit32(input));\n    //     (poll32, __reveal) = (bytesSplit32(usefulData));\n    //\n    //     // NB other validators will need to additionally retrieve reveal data from msg.data\n    //     bytes32[] memory stakers = crossContractCall (encodeFunctionName(\"serialiseStakers\"), bytes32ToString(poll32), valid, vType);\n    //     bytes32[] memory proofs = crossContractCall (encodeFunctionName(\"serialiseProofs\"), bytes32ToString(poll32), valid, vType);\n    //\n    // }\n\n    constructor () public {\n        // testing constructor access to storage across shared storage\n        // (one for later ;)\n        // constructed = 1;\n    }\n\n    function _fallback() internal {\n        bytes memory input = msg.data;\n\n\n    }\n\n    event logStuff (string);\n\n    modifier isStaker(string memory _poll) {\n      address[] memory stakers = getStakerAddresses(_poll);\n      bool senderIsPresent;\n\n      for(uint i = 0; i < stakers.length; i++) {\n        if (stakers[i] == msg.sender) {\n          senderIsPresent = true;\n        }\n      }\n      require(senderIsPresent, \"Function may only be called by a staker on this poll\");\n      _;\n    }\n\n    function doEmit (string memory message) public {\n      emit logStuff (message);\n    }\n\n    function getFlag() public view returns (int) {\n      return flag;\n    }\n\n    function setFlag(int160 _flag) public {\n      flag = _flag;\n    }\n\n    function getPoll(string memory _poll) public view returns (\n        address initiator,\n        uint stake,\n        uint venueCost,\n        uint8 minParticipants,\n        uint8 participants,\n        uint start,\n        uint end,\n        bytes32[5][] memory committedProofs ) {\n\n        // initiator = new address(0x0);\n        stake = 1000;\n        venueCost = 40000;\n        minParticipants = 3;\n        participants = 3;\n        start = 1591535900000;\n        end = 1591536000000;\n\n\n      return (initiator, stake, venueCost, minParticipants, participants, start, end, committedProofs);\n    }\n\n    function getPollStruct(string memory _poll) public view returns (PollExternal memory returnPoll) {\n\n      // bytes32[5][] committedProofs;\n      // address[] provers;\n      // dibs[] dibsCalled;\n\n        returnPoll.minStake = 1000;\n        returnPoll.venueCost = 40000;\n        returnPoll.venuePot = 40000;\n        returnPoll.minParticipants = 3;\n        returnPoll.participants = 3;\n        returnPoll.eventTime.start = 1591535900000;\n        returnPoll.eventTime.end = 1591536000000;\n      return returnPoll;\n    }\n\n    function get (string memory _poll, string memory _fnName) public view returns (bytes32[] memory) {\n        bytes32 hash = keccak256(abi.encodePacked(_poll, encodeFunctionName(_fnName), vType));\n        return (allTheData[hash]);\n    }\n\n    function getStakerAddresses (string memory _poll ) public view returns (address[] memory) {\n      bytes32[] memory rawStakers = get(_poll, \"serialiseStakers\");\n      address[] memory stakers = new address[](rawStakers.length);\n      for(uint16 i=0; i < rawStakers.length; i++) {\n          stakers[i] = bytesToAddress(bytes32ToBytes(rawStakers[i]));\n      }\n      return stakers;\n    }\n\n    function getproofsAsAddresses (string memory _poll ) public view returns (address[] memory) {\n      bytes32[] memory rawProofs = get(_poll, \"serialiseProofs\");\n      address[] memory proofs = new address[](rawProofs.length);\n      for(uint16 i=0; i < rawProofs.length; i++) {\n          proofs[i] = bytesToAddress(bytes32ToBytes(rawProofs[i]));\n      }\n      return proofs;\n    }\n\n    function setcheckedIn (string memory _poll, string memory _fnName, uint8 _vt, bytes32[] memory data) public {\n      bytes32 hash = keccak256(abi.encodePacked(_poll, encodeFunctionName(_fnName), _vt));\n      allTheData[hash] = data;\n    }\n\n    function add (string memory _poll, string memory _fnName, uint8 _vt, address _newMember) public {\n      bytes32 hash = keccak256(abi.encodePacked(_poll, encodeFunctionName(_fnName), _vt));\n      allTheData[hash].push (bytes32(bytes20(_newMember)));\n    }\n\n    function checkIn (string memory _poll, address _newMember) public {\n      add (_poll, \"serialiseStakers\", vType, _newMember);\n    }\n\n    function addProof (string memory _poll, address _newMember) public {\n      add (_poll, \"serialiseProofs\", vType, _newMember);\n    }\n\n    function closeProofsWindow (string memory _poll) public {\n      // require (isElibgible(msg.sender), \"msg.sender did not stake in this poll\");\n      // require (time.now()>.pollData[_poll].eventTime.end || AllstakersSubmittedProofs(), \"Not all stakers have submitted proofs and the event is not yet over\");\n      // require (, \"\");\n      pollData[_poll].proofsWindowClosed = true;\n\n      // NB here assuming that poll can be closed once all stakers have submitted a proof.\n      // The alternative would allow a non-attending staker to hold up refunds (by refusing to submit 'I can't make it')\n      // but this way means that early provers cannot necessarily revise rpoofs which turn out not to fit consensus\n      // This policy may be better left to differ between validators.\n    }\n\n    function totalRepStaked (string memory _poll, address _staker) public view returns (uint) {\n      return pollData[_poll].staked[_staker].rep;\n    }\n\n    function totalVenueContribs (string memory _poll, address _staker) public view returns (uint total) {\n      // dibs[] memory dibsList = allDibsPaidBy(_staker);\n      total = pollData[_poll].staked[_staker].venueContribution[_staker] + pollData[_poll].staked[_staker].venueContribution[address(0)];\n      // for(uint16 i = 0; i < dibsList.length; i++) {\n      //   total += dibsList[i].amount;\n      // }\n      return total;\n    }\n\n    // NB these require returning complex type.\n    // Keep the commented code, but integrate it direct into functions which need it (and eventually use new ABI encoder on it ;)\n\n    // function allDibsPaidBy(string memory _poll, address _staker) public view returns (dibs[] memory) {\n    //   uint16 size=0;\n    //   uint16 i;\n    //   for(i = 0; i < pollData[_poll].dibsCalled.length; i++) {\n    //     if (pollData[_poll].dibsCalled[i].payer == _staker)\n    //       size++;\n    //   }\n    //   dibs[size] memory dibsList = new dibs[](size);\n    //   for(uint16 i = 0; i < pollData[_poll].dibsCalled.length; i++) {\n    //     if (pollData[_poll].dibsCalled[i].payer == _staker)\n    //       dibsList.push(pollData[_poll].dibsCalled[i]);\n    //   }\n    //   return dibsList;\n    // }\n    //\n    // function allDibsPaidFor(string memory _poll, address _recipient) public view returns (dibs[] memory) {\n    //   uint16 size=0;\n    //   uint16 i;\n    //   for(i = 0; i < pollData[_poll].dibsCalled.length; i++) {\n    //     if (pollData[_poll].dibsCalled[i].recipient == _recipient)\n    //       size++;\n    //   }\n    //   dibs[size] memory dibsList = new dibs[](size);\n    //   for(i = 0; i < pollData[_poll].dibsCalled.length; i++) {\n    //     if (pollData[_poll].dibsCalled[i].recipient == _recipient)\n    //       dibsList.push(pollData[_poll].dibsCalled[i]);\n    //   }\n    //   return dibsList;\n    // }\n\n    event venuePotDisbursed (string _poll, address to, address by, int amount);\n    // Any staker can call refund of excess venue pot.\n    // Disbursement to venue payer must wait until initiator has actively set venue payer (eg to self);\n    function refundVenueStakes(string memory _poll) public isStaker(_poll) {\n      address[] memory stakers = getStakerAddresses(_poll);\n      uint equalShare = (pollData[_poll].venueCost).div(stakers.length);\n      uint spareCash = pollData[_poll].venuePot-pollData[_poll].venueCost;\n      // // proportional refunds:\n      // // allows recipients of gifted contributions to get a refund too\n      // for stakers\n      //   refund = 0\n      //   for (stakes = allDibsPaidBy(staker).concat(staker.stake[staker]).concat(staker.stake[0x0]))\n      //     refund += stake*proportion\n      //     remove stake\n      //   refund (refund)\n      //   emit\n      //\n      // // covering refunds:\n      // // gifted contributions are used only to top up recipients'\n      // for stakers\n      //   totalPaid = staker.stake[staker].amount + staker.stake[0x0].amount\n      //   if totalPaid < equalShare\n      //     for (stakes = allDibsPaidFor(staker).concat(staker.stake[staker]).concat(staker.stake[0x0]))\n      //       if amount>=shortfall\n      //         totalPaid += shortfall\n      //         shorten(stake)\n      //       else\n      //         totalPaid += amount\n      //         remove(stake) including own stake!\n      //     refund(0)\n      // for stakers\n      //   if exists(stake) (ie those who were not removed in last round)\n      //     for (stakes = allDibsPaidBy(staker).concat(staker.stake[staker]).concat(staker.stake[0x0]))\n      //       if amount>=shortfall\n      //         totalPaid += shortfall\n      //         refund += rest\n      //       else\n      //         totalPaid += amount\n      //       remove(stake)\n      //     refund (refund)\n      //     emit\n      //\n\n\n    }\n\n    function setString (string memory _poll, string memory _fnName, uint8 _vt, string memory data) public {\n      bytes32 hash = keccak256(abi.encodePacked(_poll, encodeFunctionName(_fnName), _vt));\n      // emit RetrievedDataCache(\"Poll context:\", notes, allTheData[hash]);\n      allTheData[hash] = stringToBytes32Array(data);\n    }\n\n    event numberLoggerLikeImUsingFuckingJava (string, uint);\n    /* simplest possible validator - checks that a majority of poll.stakers(), including sender, are contained in poll.serialiseProofs() */\n    function validate(address _pollContract, string memory _poll, bytes32 _reveal) public view returns (bool) {\n        // require (_pollContract==howeverYoullIdentifySelf, 'wrong Poll contract - something needs upgrading');\n\n        address[] memory stakers = getStakerAddresses(_poll);\n        address[] memory proofs = getproofsAsAddresses(_poll);\n        uint16 i;\n\n        // for(i = 0; i < rawStakers.length; i++) {\n        //     stakers[i] = bytesToAddress(bytes32ToBytes(rawStakers[i]));\n        // }\n        // for(i = 0; i < rawProofs.length; i++) {\n        //     proofs[i] = bytesToAddress(bytes32ToBytes(rawProofs[i]));\n        // }\n        uint8 threshold = 1 ;\n        // emit numberLoggerLikeImUsingFuckingJava('stakers',stakers.length);\n        // emit numberLoggerLikeImUsingFuckingJava('proofs',proofs.length);\n\n        proofCounter memory pc;\n        // emit logStuff(\"am alive\");\n        for(i = 0; i < proofs.length; i++) {\n            // emit logStuff(\"started loop\");\n            pc.duplicateProofs = -1;\n            for(uint j = 0; j < stakers.length; j++) {\n                // emit whatThe (\"Huh?\",i,j,proofs[i], stakers[j], msg.sender);\n                if (proofs[i] == stakers[j]) {\n                    // emit cool (i,j);\n                    // Only set senderIsPresent = true the first time that proofs[i] == stakers[j] == msg.sender\n                    // if (proofs[i] == msg.sender) {\n                    if (proofs[i] == msg.sender) {\n                      pc.senderIsPresent = true;\n                      // emit logStuff(\"found sender\");\n                      // flag = int160(1000*i+j);\n                    }\n                    // set duplicateProofs hopefully to 0, and remove staker from the array\n                    pc.duplicateProofs++;\n                    stakers[j] = address(0);\n                    // emit logStuff(\"loop\");\n                }\n            }\n            if (pc.duplicateProofs>0) { pc.fakeProofs += uint8(pc.duplicateProofs); }\n        }\n\n        // // deal with 0 < threshold < 1\n        // if(percentageThreshold>0) {\n        //   threshold = percentageThreshold*stakers.length;\n        // }\n        // if (pc.senderIsPresent && (proofs.length-pc.fakeProofs >= threshold)) {\n        //     return true;\n        // }\n        // return false;\n\n        if (!pc.senderIsPresent)\n            revert('Sender did not register attendance');\n        if (proofs.length-pc.fakeProofs < threshold)\n            revert('Not enough attendees in consensus');\n        if (proofs.length == pc.fakeProofs)\n            revert('All proofs were fake');\n\n        // if (!pc.senderIsPresent)\n        //     emit logStuff('Sender did not register attendance');\n        // if (proofs.length-pc.fakeProofs < threshold)\n        //     emit logStuff('Not enough attendees in consensus');\n        // if (proofs.length == pc.fakeProofs)\n        //     emit logStuff('All proofs were fake');\n        // emit numberLoggerLikeImUsingFuckingJava ('fakeProofs',pc.fakeProofs);\n        // emit numberLoggerLikeImUsingFuckingJava ('proofs.length',proofs.length);\n        return true;\n    }\n\n    function deserialiseStakers(string calldata _poll) external pure returns (address[] memory) {\n        // return something which will make it obvious that you have accidentally delegated this context!\n        address[] memory ret = new address[](4);\n        (ret[0], ret[1], ret[2], ret[3]) = (address(5), address(0), address(5), address(0));\n        return ret;\n    }\n\n    function serialiseStakers(string calldata _poll, uint8 validationType) external pure returns (address[] memory) {\n        // return something which will make it obvious that you have accidentally delegated this context!\n        address[] memory ret = new address[](4);\n        (ret[0], ret[1], ret[2], ret[3]) = (address(5), address(0), address(5), address(0));\n        return ret;\n    }\n\n    function serialiseProofs(string calldata _poll, uint8 validationType) external pure returns (address[] memory) {\n        // return something which will make it obvious that you have accidentally delegated this context!\n        address[] memory ret = new address[](4);\n        (ret[0], ret[1], ret[2], ret[3]) = (address(0), address(5), address(0), address(5));\n        return ret;\n    }\n\n\n    function proofType() public pure returns (uint8) {\n      return vType;\n    }\n\n    function encodeFunctionName (string memory name) internal pure returns (bytes4) {\n        // TODO: cache for readability!\n        // if (\"serialiseStakers\")\n        //     return\n        // if (\"serialiseStakers\")\n        //     return\n        return bytes4(keccak256(bytes(name)));\n    }\n\n    // split a serialised string of addresses (as received from main contract).\n    // NB - only works in this validator - other validators will use multiple types within serialised string\n    function splitToAddresses(string memory _concatenated) internal pure returns (address[] memory result) {\n        strings.slice memory delim = \",\".toSlice();\n        strings.slice memory source = _concatenated.toSlice();\n        address[] memory parts = new address[](source.count(delim));\n\n        for(uint i = 0; i < parts.length; i++) {\n           parts[i] = source.split(delim).toString().toAddress();\n        }\n        return parts;\n\n    }\n\n    function bytesToAddress(bytes memory _bytes) public pure returns (address) {\n      address tempAddress;\n      assembly {\n          tempAddress := div(mload(add(add(_bytes, 0x20), 0)), 0x1000000000000000000000000)\n      }\n      return tempAddress;\n    }\n\n    function toString(address account) public pure returns(string memory) {\n        return toString(abi.encodePacked(account), 5);\n    }\n\n    function toString(uint256 value) public pure returns(string memory) {\n        return toString(abi.encodePacked(value), 0);\n    }\n\n    function toString(bytes32 value) public pure returns(string memory) {\n        return toString(abi.encodePacked(value), 0);\n    }\n\n    function toString(bytes memory data, uint16 len) public pure returns(string memory) {\n        bytes memory alphabet = \"0123456789abcdef\";\n        uint16 strLen = 20;  // It's 20. The length is just fucking 20.  uint16(data.length);\n        // Pretty simple if statement - why won't it work ?\n        // if (len>0) {\n        //     strLen = len;\n        // }\n\n\n        bytes memory str = new bytes(2 + strLen * 2);\n        str[0] = '0';\n        str[1] = 'x';\n        for (uint i = 0; i < strLen; i++) {\n            str[2+i*2] = alphabet[uint(uint8(data[i] >> 4))];\n            str[3+i*2] = alphabet[uint(uint8(data[i] & 0x0f))];\n        }\n        return string(str);\n    }\n\n\n    function bytes32ToBytes(bytes32 _bytes32) public pure returns (bytes memory){\n        // string memory str = string(_bytes32);\n        // TypeError: Explicit type conversion not allowed from \"bytes32\" to \"string storage pointer\"\n        bytes memory bytesArray = new bytes(32);\n        for (uint256 i; i < 32; i++) {\n            bytesArray[i] = _bytes32[i];\n        }\n        return bytesArray;\n    }\n\n    // function bytesToBytes32(bytes b, uint offset) private pure returns (bytes32) {\n    //     bytes32 out;\n\n    //     for (uint i = 0; i < 32; i++) {\n    //         out |= bytes32(b[offset + i] & 0xFF) >> (i * 8);\n    //     }\n    //     return out;\n    // }\n\n\n    function bytesToBytes32(bytes memory b) public pure returns (bytes32 bts) {\n        bytes32 i;\n        //NB size etc= 32b = 0x20b\n        assembly { i := mload(add(b, 0x20)) }\n        bts = i;\n    }\n\n    function bytes32ToString(bytes32 _bytes32) public pure returns (string memory ){\n        bytes memory bytesArray = bytes32ToBytes(_bytes32);\n        return string(bytesArray);\n    }\n\n    function bytes32ArrayToString (bytes32[] memory data) public pure returns (string memory ) {\n        bytes memory bytesString = new bytes(data.length * 32);\n        uint urlLength;\n        uint i=0;\n        for (i=0; i<data.length; i++) {\n            for (uint j=0; j<32; j++) {\n                byte char = byte(bytes32(uint(data[i]) * 2 ** (8 * j)));\n                if (char != 0) {\n                    bytesString[urlLength] = char;\n                    urlLength += 1;\n                }\n            }\n        }\n        bytes memory bytesStringTrimmed = new bytes(urlLength);\n        for (i=0; i<urlLength; i++) {\n            bytesStringTrimmed[i] = bytesString[i];\n        }\n        return string(bytesStringTrimmed);\n    }\n\n    function stringToBytes32Array(string memory source) public pure returns (bytes32[] memory result) {\n        // uint16 words = uint16( (bytes(source).length+31)/32 );\n        uint16 words = 1;\n        for(uint16 i=0; i<=words; i++) {\n          uint16 offset = 32*(i+1);\n          bytes32 word;\n          assembly {\n            word := mload(add(source, offset))\n          }\n          result[i] = word;\n        }\n        return result;\n    }\n\n    // TODO !!!\n    // function bytes32ToUint (bytes32 data) returns (uint) {\n    //     return 2;\n    // }\n\n    function bytesSplit32(bytes  memory data) public pure returns (bytes32, bytes memory ) {\n        uint8 splitAt = 32;                             // all (if variable split, pass in splitAt)\n        uint256 taillength = 0;\n        if (data.length > splitAt)\n            taillength = data.length-splitAt;\n        bytes32 temp;\n        // bytes32 head;                                   // 32b split\n        bytes memory head = new bytes(splitAt);         // variable length split\n        bytes memory tail = new bytes(taillength);\n        for(uint i=0;i<=data.length-1;i++){\n            if (i<splitAt)\n                head[i] = bytes(data)[i] ;\n            else\n                tail[i-splitAt] = bytes(data)[i] ;\n        }\n        return (bytesToBytes32(head), tail);\n    }\n\n    // calls fallback function of pollAddress, passing 4 byte encoded function name to remote contract to select method.\n    // NB future better: just get the ABI of the finished Poll conmtract, and use that!\n    // NB in sol 0.6 + fallback cannot return anything\n    // NB future optimisation : we are not using the functionality of string here, since string must have come from a bytes32\n    event CrossContractValidateBegin();\n    event CrossContractValidateEnd();\n    function crossContractCall (bytes4 fnNameHash, string  memory poll, uint256 valid, uint8 vt) public returns (bytes32[] memory) {\n    address pollContract = pollAddress;\n\n        emit CrossContractValidateBegin();\n        assembly {\n            let ptr := mload(0x40)\n            calldatacopy(ptr, 0, calldatasize)\n            let result := delegatecall(gas, pollContract, ptr, calldatasize, 0, 0)\n            let size := returndatasize\n            returndatacopy(ptr, 0, size)\n            switch result\n            case 0 { revert(ptr, size) }\n            default { return(ptr, size) }\n        }\n        emit CrossContractValidateEnd();\n    }\n\n}\n",
  "sourcePath": "/home/teide/randomCode/lunchcoin/contracts.v1/contracts/MutualAgreement.sol",
  "compiler": {
    "name": "solc",
    "version": "0.5.16+commit.9c3226ce.Emscripten.clang"
  },
  "schemaVersion": "3.2.0",
  "updatedAt": "2020-06-10T19:25:49.795Z",
  "networkType": "ethereum",
  "devdoc": {
    "methods": {}
  },
  "userdoc": {
    "methods": {}
  }
}