{
  "contractName": "MutualAgreement",
  "abi": [
    {
      "inputs": [],
      "payable": false,
      "stateMutability": "nonpayable",
      "type": "constructor"
    },
    {
      "anonymous": false,
      "inputs": [],
      "name": "CrossContractValidateBegin",
      "type": "event"
    },
    {
      "anonymous": false,
      "inputs": [],
      "name": "CrossContractValidateEnd",
      "type": "event"
    },
    {
      "anonymous": false,
      "inputs": [
        {
          "indexed": false,
          "internalType": "string",
          "name": "_poll",
          "type": "string"
        },
        {
          "indexed": false,
          "internalType": "address",
          "name": "_staker",
          "type": "address"
        }
      ],
      "name": "emptyStakeRemoved",
      "type": "event"
    },
    {
      "anonymous": false,
      "inputs": [
        {
          "indexed": false,
          "internalType": "string",
          "name": "",
          "type": "string"
        },
        {
          "indexed": false,
          "internalType": "string",
          "name": "",
          "type": "string"
        },
        {
          "indexed": false,
          "internalType": "address",
          "name": "",
          "type": "address"
        },
        {
          "indexed": false,
          "internalType": "uint8",
          "name": "",
          "type": "uint8"
        },
        {
          "indexed": false,
          "internalType": "bytes32[]",
          "name": "",
          "type": "bytes32[]"
        }
      ],
      "name": "gpResult",
      "type": "event"
    },
    {
      "anonymous": false,
      "inputs": [
        {
          "indexed": false,
          "internalType": "string",
          "name": "",
          "type": "string"
        }
      ],
      "name": "logStuff",
      "type": "event"
    },
    {
      "anonymous": false,
      "inputs": [
        {
          "indexed": false,
          "internalType": "string",
          "name": "",
          "type": "string"
        },
        {
          "indexed": false,
          "internalType": "uint256",
          "name": "",
          "type": "uint256"
        }
      ],
      "name": "numberLoggerLikeImUsingFuckingJava",
      "type": "event"
    },
    {
      "anonymous": false,
      "inputs": [
        {
          "indexed": false,
          "internalType": "address",
          "name": "",
          "type": "address"
        }
      ],
      "name": "proofUpdated",
      "type": "event"
    },
    {
      "anonymous": false,
      "inputs": [
        {
          "indexed": false,
          "internalType": "string",
          "name": "poll",
          "type": "string"
        },
        {
          "indexed": false,
          "internalType": "address",
          "name": "by",
          "type": "address"
        }
      ],
      "name": "proofsWindowClosed",
      "type": "event"
    },
    {
      "anonymous": false,
      "inputs": [
        {
          "indexed": false,
          "internalType": "address",
          "name": "_staker",
          "type": "address"
        }
      ],
      "name": "refundFail",
      "type": "event"
    },
    {
      "anonymous": false,
      "inputs": [
        {
          "indexed": false,
          "internalType": "address",
          "name": "_staker",
          "type": "address"
        },
        {
          "indexed": false,
          "internalType": "uint256",
          "name": "_staked",
          "type": "uint256"
        },
        {
          "indexed": false,
          "internalType": "uint256",
          "name": "_refunded",
          "type": "uint256"
        }
      ],
      "name": "repRefund",
      "type": "event"
    },
    {
      "anonymous": false,
      "inputs": [
        {
          "indexed": false,
          "internalType": "string",
          "name": "_poll",
          "type": "string"
        },
        {
          "indexed": false,
          "internalType": "address",
          "name": "to",
          "type": "address"
        },
        {
          "indexed": false,
          "internalType": "address",
          "name": "by",
          "type": "address"
        },
        {
          "indexed": false,
          "internalType": "int256",
          "name": "amount",
          "type": "int256"
        }
      ],
      "name": "venuePotDisbursed",
      "type": "event"
    },
    {
      "anonymous": false,
      "inputs": [
        {
          "indexed": false,
          "internalType": "bytes",
          "name": "",
          "type": "bytes"
        }
      ],
      "name": "whassahash",
      "type": "event"
    },
    {
      "anonymous": false,
      "inputs": [
        {
          "indexed": false,
          "internalType": "bytes32",
          "name": "",
          "type": "bytes32"
        }
      ],
      "name": "whassakeccack",
      "type": "event"
    },
    {
      "payable": true,
      "stateMutability": "payable",
      "type": "fallback"
    },
    {
      "constant": true,
      "inputs": [],
      "name": "flag",
      "outputs": [
        {
          "internalType": "int160",
          "name": "",
          "type": "int160"
        }
      ],
      "payable": false,
      "stateMutability": "view",
      "type": "function"
    },
    {
      "constant": true,
      "inputs": [
        {
          "internalType": "string",
          "name": "",
          "type": "string"
        }
      ],
      "name": "pollData",
      "outputs": [
        {
          "internalType": "address",
          "name": "initiator",
          "type": "address"
        },
        {
          "internalType": "uint256",
          "name": "minStake",
          "type": "uint256"
        },
        {
          "internalType": "uint256",
          "name": "venueCost",
          "type": "uint256"
        },
        {
          "internalType": "uint256",
          "name": "venuePot",
          "type": "uint256"
        },
        {
          "internalType": "uint8",
          "name": "minParticipants",
          "type": "uint8"
        },
        {
          "components": [
            {
              "internalType": "uint256",
              "name": "start",
              "type": "uint256"
            },
            {
              "internalType": "uint256",
              "name": "end",
              "type": "uint256"
            }
          ],
          "internalType": "struct MutualAgreement.TimeRange",
          "name": "eventTime",
          "type": "tuple"
        },
        {
          "internalType": "bool",
          "name": "proofsWindowClosed",
          "type": "bool"
        }
      ],
      "payable": false,
      "stateMutability": "view",
      "type": "function"
    },
    {
      "constant": true,
      "inputs": [],
      "name": "multiplier",
      "outputs": [
        {
          "internalType": "uint256",
          "name": "numerator",
          "type": "uint256"
        },
        {
          "internalType": "uint256",
          "name": "denominator",
          "type": "uint256"
        }
      ],
      "payable": false,
      "stateMutability": "view",
      "type": "function"
    },
    {
      "constant": true,
      "inputs": [],
      "name": "maxRep",
      "outputs": [
        {
          "internalType": "uint256",
          "name": "maxRep",
          "type": "uint256"
        }
      ],
      "payable": false,
      "stateMutability": "view",
      "type": "function"
    },
    {
      "constant": false,
      "inputs": [
        {
          "internalType": "string",
          "name": "message",
          "type": "string"
        }
      ],
      "name": "doEmit",
      "outputs": [],
      "payable": false,
      "stateMutability": "nonpayable",
      "type": "function"
    },
    {
      "constant": true,
      "inputs": [],
      "name": "getFlag",
      "outputs": [
        {
          "internalType": "int256",
          "name": "",
          "type": "int256"
        }
      ],
      "payable": false,
      "stateMutability": "view",
      "type": "function"
    },
    {
      "constant": false,
      "inputs": [
        {
          "internalType": "int160",
          "name": "_flag",
          "type": "int160"
        }
      ],
      "name": "setFlag",
      "outputs": [],
      "payable": false,
      "stateMutability": "nonpayable",
      "type": "function"
    },
    {
      "constant": true,
      "inputs": [
        {
          "internalType": "string",
          "name": "_poll",
          "type": "string"
        }
      ],
      "name": "getPoll",
      "outputs": [
        {
          "internalType": "address",
          "name": "initiator",
          "type": "address"
        },
        {
          "internalType": "uint256",
          "name": "stake",
          "type": "uint256"
        },
        {
          "internalType": "uint256",
          "name": "venueCost",
          "type": "uint256"
        },
        {
          "internalType": "uint8",
          "name": "minParticipants",
          "type": "uint8"
        },
        {
          "internalType": "uint8",
          "name": "participants",
          "type": "uint8"
        },
        {
          "internalType": "uint256",
          "name": "start",
          "type": "uint256"
        },
        {
          "internalType": "uint256",
          "name": "end",
          "type": "uint256"
        },
        {
          "internalType": "bytes32[5][]",
          "name": "ownCheckInIndex",
          "type": "bytes32[5][]"
        }
      ],
      "payable": false,
      "stateMutability": "view",
      "type": "function"
    },
    {
      "constant": true,
      "inputs": [
        {
          "internalType": "string",
          "name": "_poll",
          "type": "string"
        }
      ],
      "name": "getPollStruct",
      "outputs": [
        {
          "components": [
            {
              "internalType": "address",
              "name": "initiator",
              "type": "address"
            },
            {
              "internalType": "uint256",
              "name": "minStake",
              "type": "uint256"
            },
            {
              "internalType": "uint256",
              "name": "venueCost",
              "type": "uint256"
            },
            {
              "internalType": "uint256",
              "name": "venuePot",
              "type": "uint256"
            },
            {
              "internalType": "uint8",
              "name": "minParticipants",
              "type": "uint8"
            },
            {
              "internalType": "uint8",
              "name": "participants",
              "type": "uint8"
            },
            {
              "components": [
                {
                  "internalType": "uint256",
                  "name": "start",
                  "type": "uint256"
                },
                {
                  "internalType": "uint256",
                  "name": "end",
                  "type": "uint256"
                }
              ],
              "internalType": "struct MutualAgreement.TimeRange",
              "name": "eventTime",
              "type": "tuple"
            }
          ],
          "internalType": "struct MutualAgreement.PollExternal",
          "name": "returnPoll",
          "type": "tuple"
        }
      ],
      "payable": false,
      "stateMutability": "view",
      "type": "function"
    },
    {
      "constant": true,
      "inputs": [
        {
          "internalType": "string",
          "name": "_poll",
          "type": "string"
        },
        {
          "internalType": "string",
          "name": "_fnName",
          "type": "string"
        }
      ],
      "name": "get",
      "outputs": [
        {
          "internalType": "bytes32[]",
          "name": "",
          "type": "bytes32[]"
        }
      ],
      "payable": false,
      "stateMutability": "view",
      "type": "function"
    },
    {
      "constant": false,
      "inputs": [
        {
          "internalType": "string",
          "name": "_poll",
          "type": "string"
        },
        {
          "internalType": "string",
          "name": "_fnName",
          "type": "string"
        },
        {
          "internalType": "address",
          "name": "_staker",
          "type": "address"
        }
      ],
      "name": "getProof",
      "outputs": [
        {
          "internalType": "bytes32[]",
          "name": "",
          "type": "bytes32[]"
        }
      ],
      "payable": false,
      "stateMutability": "nonpayable",
      "type": "function"
    },
    {
      "constant": true,
      "inputs": [
        {
          "internalType": "string",
          "name": "_poll",
          "type": "string"
        }
      ],
      "name": "getStakerAddresses",
      "outputs": [
        {
          "internalType": "address[]",
          "name": "",
          "type": "address[]"
        }
      ],
      "payable": false,
      "stateMutability": "view",
      "type": "function"
    },
    {
      "constant": false,
      "inputs": [
        {
          "internalType": "string",
          "name": "_poll",
          "type": "string"
        }
      ],
      "name": "getproofsAsAddresses",
      "outputs": [
        {
          "internalType": "address[][]",
          "name": "",
          "type": "address[][]"
        }
      ],
      "payable": false,
      "stateMutability": "nonpayable",
      "type": "function"
    },
    {
      "constant": false,
      "inputs": [
        {
          "internalType": "string",
          "name": "_poll",
          "type": "string"
        },
        {
          "internalType": "string",
          "name": "_fnName",
          "type": "string"
        },
        {
          "internalType": "address",
          "name": "_stakerOrZero",
          "type": "address"
        },
        {
          "internalType": "uint8",
          "name": "_vt",
          "type": "uint8"
        },
        {
          "internalType": "bytes32[]",
          "name": "data",
          "type": "bytes32[]"
        }
      ],
      "name": "setChickedIn",
      "outputs": [],
      "payable": false,
      "stateMutability": "nonpayable",
      "type": "function"
    },
    {
      "constant": false,
      "inputs": [
        {
          "internalType": "string",
          "name": "_poll",
          "type": "string"
        },
        {
          "internalType": "string",
          "name": "_fnName",
          "type": "string"
        },
        {
          "internalType": "address",
          "name": "_stakerOrZero",
          "type": "address"
        },
        {
          "internalType": "uint8",
          "name": "_vt",
          "type": "uint8"
        },
        {
          "internalType": "bytes32[]",
          "name": "_data",
          "type": "bytes32[]"
        }
      ],
      "name": "set",
      "outputs": [],
      "payable": false,
      "stateMutability": "nonpayable",
      "type": "function"
    },
    {
      "constant": false,
      "inputs": [
        {
          "internalType": "string",
          "name": "_poll",
          "type": "string"
        },
        {
          "internalType": "string",
          "name": "_fnName",
          "type": "string"
        },
        {
          "internalType": "address",
          "name": "_staker",
          "type": "address"
        },
        {
          "internalType": "uint8",
          "name": "_vt",
          "type": "uint8"
        },
        {
          "internalType": "address",
          "name": "_newMember",
          "type": "address"
        }
      ],
      "name": "addStaker",
      "outputs": [],
      "payable": false,
      "stateMutability": "nonpayable",
      "type": "function"
    },
    {
      "constant": false,
      "inputs": [
        {
          "internalType": "string",
          "name": "_poll",
          "type": "string"
        },
        {
          "internalType": "address[]",
          "name": "_newProof",
          "type": "address[]"
        },
        {
          "internalType": "address",
          "name": "_impersonatedStaker",
          "type": "address"
        }
      ],
      "name": "checkIn",
      "outputs": [],
      "payable": false,
      "stateMutability": "nonpayable",
      "type": "function"
    },
    {
      "constant": false,
      "inputs": [
        {
          "internalType": "string",
          "name": "_poll",
          "type": "string"
        },
        {
          "internalType": "address",
          "name": "_impersonatedStaker",
          "type": "address"
        },
        {
          "internalType": "address[]",
          "name": "_newProof",
          "type": "address[]"
        }
      ],
      "name": "addProof",
      "outputs": [],
      "payable": false,
      "stateMutability": "nonpayable",
      "type": "function"
    },
    {
      "constant": false,
      "inputs": [
        {
          "internalType": "string",
          "name": "_poll",
          "type": "string"
        },
        {
          "internalType": "address[]",
          "name": "_newProof",
          "type": "address[]"
        }
      ],
      "name": "addProofSelf",
      "outputs": [],
      "payable": false,
      "stateMutability": "nonpayable",
      "type": "function"
    },
    {
      "constant": false,
      "inputs": [
        {
          "internalType": "string",
          "name": "_poll",
          "type": "string"
        }
      ],
      "name": "closeProofsWindow",
      "outputs": [],
      "payable": false,
      "stateMutability": "nonpayable",
      "type": "function"
    },
    {
      "constant": true,
      "inputs": [
        {
          "internalType": "string",
          "name": "_poll",
          "type": "string"
        },
        {
          "internalType": "address",
          "name": "_staker",
          "type": "address"
        }
      ],
      "name": "totalRepStaked",
      "outputs": [
        {
          "internalType": "uint256",
          "name": "",
          "type": "uint256"
        }
      ],
      "payable": false,
      "stateMutability": "view",
      "type": "function"
    },
    {
      "constant": true,
      "inputs": [
        {
          "internalType": "string",
          "name": "_poll",
          "type": "string"
        },
        {
          "internalType": "address",
          "name": "_staker",
          "type": "address"
        }
      ],
      "name": "totalVenueContribs",
      "outputs": [
        {
          "internalType": "uint256",
          "name": "total",
          "type": "uint256"
        }
      ],
      "payable": false,
      "stateMutability": "view",
      "type": "function"
    },
    {
      "constant": false,
      "inputs": [
        {
          "internalType": "string",
          "name": "_poll",
          "type": "string"
        },
        {
          "internalType": "address",
          "name": "_staker",
          "type": "address"
        }
      ],
      "name": "removeEmptyStake",
      "outputs": [],
      "payable": false,
      "stateMutability": "nonpayable",
      "type": "function"
    },
    {
      "constant": false,
      "inputs": [
        {
          "internalType": "string",
          "name": "_poll",
          "type": "string"
        }
      ],
      "name": "refundVenueStakes",
      "outputs": [],
      "payable": false,
      "stateMutability": "nonpayable",
      "type": "function"
    },
    {
      "constant": false,
      "inputs": [
        {
          "internalType": "string",
          "name": "_poll",
          "type": "string"
        },
        {
          "internalType": "string",
          "name": "_fnName",
          "type": "string"
        },
        {
          "internalType": "uint8",
          "name": "_vt",
          "type": "uint8"
        },
        {
          "internalType": "string",
          "name": "data",
          "type": "string"
        }
      ],
      "name": "setString",
      "outputs": [],
      "payable": false,
      "stateMutability": "nonpayable",
      "type": "function"
    },
    {
      "constant": false,
      "inputs": [
        {
          "internalType": "string",
          "name": "_poll",
          "type": "string"
        },
        {
          "internalType": "bytes32",
          "name": "_reveal",
          "type": "bytes32"
        }
      ],
      "name": "refundStake",
      "outputs": [],
      "payable": false,
      "stateMutability": "nonpayable",
      "type": "function"
    },
    {
      "constant": false,
      "inputs": [
        {
          "internalType": "address",
          "name": "_pollContract",
          "type": "address"
        },
        {
          "internalType": "string",
          "name": "_poll",
          "type": "string"
        },
        {
          "internalType": "bytes32",
          "name": "_reveal",
          "type": "bytes32"
        }
      ],
      "name": "validate",
      "outputs": [
        {
          "internalType": "bool",
          "name": "",
          "type": "bool"
        }
      ],
      "payable": false,
      "stateMutability": "nonpayable",
      "type": "function"
    },
    {
      "constant": true,
      "inputs": [
        {
          "internalType": "string",
          "name": "_poll",
          "type": "string"
        }
      ],
      "name": "deserialiseStakers",
      "outputs": [
        {
          "internalType": "address[]",
          "name": "",
          "type": "address[]"
        }
      ],
      "payable": false,
      "stateMutability": "pure",
      "type": "function"
    },
    {
      "constant": true,
      "inputs": [
        {
          "internalType": "string",
          "name": "_poll",
          "type": "string"
        },
        {
          "internalType": "uint8",
          "name": "validationType",
          "type": "uint8"
        }
      ],
      "name": "serialiseStakers",
      "outputs": [
        {
          "internalType": "address[]",
          "name": "",
          "type": "address[]"
        }
      ],
      "payable": false,
      "stateMutability": "pure",
      "type": "function"
    },
    {
      "constant": true,
      "inputs": [
        {
          "internalType": "string",
          "name": "_poll",
          "type": "string"
        },
        {
          "internalType": "uint8",
          "name": "validationType",
          "type": "uint8"
        }
      ],
      "name": "serialiseProofs",
      "outputs": [
        {
          "internalType": "address[]",
          "name": "",
          "type": "address[]"
        }
      ],
      "payable": false,
      "stateMutability": "pure",
      "type": "function"
    },
    {
      "constant": true,
      "inputs": [],
      "name": "proofType",
      "outputs": [
        {
          "internalType": "uint8",
          "name": "",
          "type": "uint8"
        }
      ],
      "payable": false,
      "stateMutability": "pure",
      "type": "function"
    },
    {
      "constant": true,
      "inputs": [
        {
          "internalType": "bytes",
          "name": "_bytes",
          "type": "bytes"
        }
      ],
      "name": "bytesToAddress",
      "outputs": [
        {
          "internalType": "address",
          "name": "",
          "type": "address"
        }
      ],
      "payable": false,
      "stateMutability": "pure",
      "type": "function"
    },
    {
      "constant": true,
      "inputs": [
        {
          "internalType": "address",
          "name": "account",
          "type": "address"
        }
      ],
      "name": "toString",
      "outputs": [
        {
          "internalType": "string",
          "name": "",
          "type": "string"
        }
      ],
      "payable": false,
      "stateMutability": "pure",
      "type": "function"
    },
    {
      "constant": true,
      "inputs": [
        {
          "internalType": "uint256",
          "name": "value",
          "type": "uint256"
        }
      ],
      "name": "toString",
      "outputs": [
        {
          "internalType": "string",
          "name": "",
          "type": "string"
        }
      ],
      "payable": false,
      "stateMutability": "pure",
      "type": "function"
    },
    {
      "constant": true,
      "inputs": [
        {
          "internalType": "bytes",
          "name": "data",
          "type": "bytes"
        },
        {
          "internalType": "uint16",
          "name": "len",
          "type": "uint16"
        }
      ],
      "name": "toString",
      "outputs": [
        {
          "internalType": "string",
          "name": "",
          "type": "string"
        }
      ],
      "payable": false,
      "stateMutability": "pure",
      "type": "function"
    },
    {
      "constant": true,
      "inputs": [
        {
          "internalType": "bytes32",
          "name": "value",
          "type": "bytes32"
        }
      ],
      "name": "toString",
      "outputs": [
        {
          "internalType": "string",
          "name": "",
          "type": "string"
        }
      ],
      "payable": false,
      "stateMutability": "pure",
      "type": "function"
    },
    {
      "constant": true,
      "inputs": [
        {
          "internalType": "bytes32",
          "name": "_bytes32",
          "type": "bytes32"
        }
      ],
      "name": "bytes32ToBytes",
      "outputs": [
        {
          "internalType": "bytes",
          "name": "",
          "type": "bytes"
        }
      ],
      "payable": false,
      "stateMutability": "pure",
      "type": "function"
    },
    {
      "constant": true,
      "inputs": [
        {
          "internalType": "bytes",
          "name": "b",
          "type": "bytes"
        }
      ],
      "name": "bytesToBytes32",
      "outputs": [
        {
          "internalType": "bytes32",
          "name": "bts",
          "type": "bytes32"
        }
      ],
      "payable": false,
      "stateMutability": "pure",
      "type": "function"
    },
    {
      "constant": true,
      "inputs": [
        {
          "internalType": "bytes32",
          "name": "_bytes32",
          "type": "bytes32"
        }
      ],
      "name": "bytes32ToString",
      "outputs": [
        {
          "internalType": "string",
          "name": "",
          "type": "string"
        }
      ],
      "payable": false,
      "stateMutability": "pure",
      "type": "function"
    },
    {
      "constant": true,
      "inputs": [
        {
          "internalType": "bytes32[]",
          "name": "data",
          "type": "bytes32[]"
        }
      ],
      "name": "bytes32ArrayToString",
      "outputs": [
        {
          "internalType": "string",
          "name": "",
          "type": "string"
        }
      ],
      "payable": false,
      "stateMutability": "pure",
      "type": "function"
    },
    {
      "constant": true,
      "inputs": [
        {
          "internalType": "string",
          "name": "source",
          "type": "string"
        }
      ],
      "name": "stringToBytes32Array",
      "outputs": [
        {
          "internalType": "bytes32[]",
          "name": "result",
          "type": "bytes32[]"
        }
      ],
      "payable": false,
      "stateMutability": "pure",
      "type": "function"
    },
    {
      "constant": true,
      "inputs": [
        {
          "internalType": "bytes",
          "name": "data",
          "type": "bytes"
        }
      ],
      "name": "bytesSplit32",
      "outputs": [
        {
          "internalType": "bytes32",
          "name": "",
          "type": "bytes32"
        },
        {
          "internalType": "bytes",
          "name": "",
          "type": "bytes"
        }
      ],
      "payable": false,
      "stateMutability": "pure",
      "type": "function"
    },
    {
      "constant": false,
      "inputs": [
        {
          "internalType": "bytes4",
          "name": "fnNameHash",
          "type": "bytes4"
        },
        {
          "internalType": "string",
          "name": "poll",
          "type": "string"
        },
        {
          "internalType": "uint256",
          "name": "valid",
          "type": "uint256"
        },
        {
          "internalType": "uint8",
          "name": "vt",
          "type": "uint8"
        }
      ],
      "name": "crossContractCall",
      "outputs": [
        {
          "internalType": "bytes32[]",
          "name": "",
          "type": "bytes32[]"
        }
      ],
      "payable": false,
      "stateMutability": "nonpayable",
      "type": "function"
    }
  ],
  "bytecode": "0x6080604052739d26a8a5db7dc10689692caf8d52c912958409cf600b60006101000a81548173ffffffffffffffffffffffffffffffffffffffff021916908373ffffffffffffffffffffffffffffffffffffffff16021790555034801561006557600080fd5b50615121806100756000396000f3fe60806040526004361061025c5760003560e01c806358666c04116101445780638fee464b116100b6578063a5c9168f1161007a578063a5c9168f14610a22578063b11a19e814610a4b578063bfe370d914610a88578063d76db9d614610ac5578063e40a42ab14610aee578063f963393014610b2b5761025c565b80638fee464b14610905578063916520431461092e5780639201de551461096b5780639cbc87a3146109a8578063a1bac85f146109e55761025c565b80636622f2cf116101085780636622f2cf146107bd5780636900a3ae146107e65780637c34d10814610823578063890eba68146108605780638a9392c01461088b5780638e3dca0b146108c85761025c565b806358666c04146106c65780635a31204c146106ef5780635d8636c01461072c57806363039be814610755578063631cd034146107805761025c565b806326a9cdf7116101dd5780634a0f2fd7116101a15780634a0f2fd7146105665780634c0999c7146105a9578063507ad4db146105e657806352e5897714610623578063560249391461064c57806356ca623e146106895761025c565b806326a9cdf7146104485780632742bea8146104865780633e10510b146104af57806342526e4e146104ec5780634665ecb4146105295761025c565b806310a688e31161022457806310a688e31461034957806313311a1c1461038d5780631b3ed722146103ca5780632333d14b146103f657806323e512101461041f5761025c565b806302f3e6761461026657806305af5d351461028f578063062ffb07146102ba57806309421c25146102e35780630dd990c71461030c575b610264610b56565b005b34801561027257600080fd5b5061028d60048036036102889190810190613d3b565b610ba3565b005b34801561029b57600080fd5b506102a4610c31565b6040516102b19190614bed565b60405180910390f35b3480156102c657600080fd5b506102e160048036036102dc9190810190613de2565b610c3a565b005b3480156102ef57600080fd5b5061030a60048036036103059190810190613b11565b610d69565b005b34801561031857600080fd5b50610333600480360361032e91908101906139fd565b610d78565b6040516103409190614979565b60405180910390f35b34801561035557600080fd5b50610370600480360361036b91908101906139fd565b610f27565b6040516103849897969594939291906148d2565b60405180910390f35b34801561039957600080fd5b506103b460048036036103af9190810190613964565b610f7b565b6040516103c19190614957565b60405180910390f35b3480156103d657600080fd5b506103df6110e4565b6040516103ed929190614bc4565b60405180910390f35b34801561040257600080fd5b5061041d600480360361041891908101906138f6565b6110f9565b005b34801561042b57600080fd5b5061044660048036036104419190810190613a3e565b611140565b005b34801561045457600080fd5b5061046f600480360361046a9190810190613861565b6112c3565b60405161047d9291906149f3565b60405180910390f35b34801561049257600080fd5b506104ad60048036036104a89190810190613ea1565b61144e565b005b3480156104bb57600080fd5b506104d660048036036104d19190810190613c50565b6114bc565b6040516104e3919061499b565b60405180910390f35b3480156104f857600080fd5b50610513600480360361050e9190810190613861565b611561565b60405161052091906147f5565b60405180910390f35b34801561053557600080fd5b50610550600480360361054b91908101906139fd565b611586565b60405161055d9190614b8d565b60405180910390f35b34801561057257600080fd5b5061058d600480360361058891908101906139bc565b611608565b6040516105a09796959493929190614862565b60405180910390f35b3480156105b557600080fd5b506105d060048036036105cb91908101906137bd565b6116b8565b6040516105dd9190614a23565b60405180910390f35b3480156105f257600080fd5b5061060d6004803603610608919081019061391f565b611760565b60405161061a9190614957565b60405180910390f35b34801561062f57600080fd5b5061064a60048036036106459190810190613de2565b6118c8565b005b34801561065857600080fd5b50610673600480360361066e9190810190613964565b6119c8565b6040516106809190614957565b60405180910390f35b34801561069557600080fd5b506106b060048036036106ab91908101906136ec565b611b31565b6040516106bd9190614a7b565b60405180910390f35b3480156106d257600080fd5b506106ed60048036036106e891908101906139fd565b611b64565b005b3480156106fb57600080fd5b50610716600480360361071191908101906139fd565b611b9e565b6040516107239190614957565b60405180910390f35b34801561073857600080fd5b50610753600480360361074e9190810190613a92565b611cb4565b005b34801561076157600080fd5b5061076a611e4b565b6040516107779190614ba9565b60405180910390f35b34801561078c57600080fd5b506107a760048036036107a29190810190613cbc565b611e55565b6040516107b4919061499b565b60405180910390f35b3480156107c957600080fd5b506107e460048036036107df91908101906139fd565b611f95565b005b3480156107f257600080fd5b5061080d60048036036108089190810190613f4c565b6120f0565b60405161081a9190614a7b565b60405180910390f35b34801561082f57600080fd5b5061084a60048036036108459190810190613a3e565b612123565b6040516108579190614ba9565b60405180910390f35b34801561086c57600080fd5b5061087561226f565b6040516108829190614a45565b60405180910390f35b34801561089757600080fd5b506108b260048036036108ad9190810190613715565b612282565b6040516108bf91906149bd565b60405180910390f35b3480156108d457600080fd5b506108ef60048036036108ea91908101906137e6565b612545565b6040516108fc919061499b565b60405180910390f35b34801561091157600080fd5b5061092c600480360361092791908101906139fd565b6125c1565b005b34801561093a57600080fd5b50610955600480360361095091908101906139fd565b612637565b604051610962919061499b565b60405180910390f35b34801561097757600080fd5b50610992600480360361098d91908101906137bd565b61269d565b60405161099f9190614a7b565b60405180910390f35b3480156109b457600080fd5b506109cf60048036036109ca919081019061377c565b6126b4565b6040516109dc9190614a7b565b60405180910390f35b3480156109f157600080fd5b50610a0c6004803603610a0791908101906138a2565b612877565b604051610a199190614a7b565b60405180910390f35b348015610a2e57600080fd5b50610a496004803603610a449190810190613b7d565b612af4565b005b348015610a5757600080fd5b50610a726004803603610a6d91908101906137bd565b612c58565b604051610a7f9190614a7b565b60405180910390f35b348015610a9457600080fd5b50610aaf6004803603610aaa9190810190613861565b612c8b565b604051610abc91906149d8565b60405180910390f35b348015610ad157600080fd5b50610aec6004803603610ae79190810190613bfc565b612c9e565b005b348015610afa57600080fd5b50610b156004803603610b109190810190613a3e565b61311d565b604051610b229190614ba9565b60405180910390f35b348015610b3757600080fd5b50610b40613189565b604051610b4d9190614a60565b60405180910390f35b60606000368080601f016020809104026020016040519081016040528093929190818152602001838380828437600081840152601f19601f82011690508083019250505050505050905050565b600085610baf866131a3565b84604051602001610bc2939291906147a1565b604051602081830303815290604052805190602001209050600260008281526020019081526020016000208260601b6bffffffffffffffffffffffff19169080600181540180825580915050906001820390600052602060002001600090919290919091505550505050505050565b60006001905090565b60008073ffffffffffffffffffffffffffffffffffffffff168473ffffffffffffffffffffffffffffffffffffffff161415610caa5785610c7a866131a3565b84604051602001610c8d939291906147a1565b604051602081830303815290604052805190602001209050610ce2565b85610cb4866131a3565b8585604051602001610cc99493929190614757565b6040516020818303038152906040528051906020012090505b60608251604051908082528060200260200182016040528015610d145781602001602082028038833980820191505090505b50905060008090505b83518161ffff161015610d37578080600101915050610d1d565b5080600260008481526020019081526020016000209080519060200190610d5f9291906132cf565b5050505050505050565b610d74823383611cb4565b5050565b606080610d8483611b9e565b905060608151604051908082528060200260200182016040528015610dbd57816020015b6060815260200190600190039081610da85790505b50905060008090505b82518161ffff161015610f1c576060610e2c866040518060400160405280600f81526020017f73657269616c69736550726f6f66730000000000000000000000000000000000815250868561ffff1681518110610e1f57fe5b6020026020010151611e55565b905060608151604051908082528060200260200182016040528015610e605781602001602082028038833980820191505090505b50905060008090505b82518161ffff161015610f0c57610e9e610e99848661ffff1681518110610e8c57fe5b60200260200101516116b8565b611561565b858561ffff1681518110610eae57fe5b60200260200101518261ffff1681518110610ec557fe5b602002602001019073ffffffffffffffffffffffffffffffffffffffff16908173ffffffffffffffffffffffffffffffffffffffff16815250508080600101915050610e69565b5050508080600101915050610dc6565b508092505050919050565b600080600080600080600060606103e89650619c40955060039450600393506501728eee956092506501728ef01c009150878787878787878797509750975097509750975097509750919395975091939597565b6060806004604051908082528060200260200182016040528015610fae5781602001602082028038833980820191505090505b509050600060056000600583935082925081915080905084600081518110610fd257fe5b6020026020010185600181518110610fe657fe5b6020026020010186600281518110610ffa57fe5b602002602001018760038151811061100e57fe5b602002602001018473ffffffffffffffffffffffffffffffffffffffff1673ffffffffffffffffffffffffffffffffffffffff168152508473ffffffffffffffffffffffffffffffffffffffff1673ffffffffffffffffffffffffffffffffffffffff168152508473ffffffffffffffffffffffffffffffffffffffff1673ffffffffffffffffffffffffffffffffffffffff168152508473ffffffffffffffffffffffffffffffffffffffff1673ffffffffffffffffffffffffffffffffffffffff1681525050505050809150509392505050565b60008060056004819150809050915091509091565b80600960006101000a81548173ffffffffffffffffffffffffffffffffffffffff021916908360130b73ffffffffffffffffffffffffffffffffffffffff16021790555050565b60006003836040516111529190614740565b908152602001604051809103902060080160003373ffffffffffffffffffffffffffffffffffffffff1673ffffffffffffffffffffffffffffffffffffffff16815260200190815260200160002060000154905060006111b28484612123565b90506000821480156111c45750600081145b611203576040517f08c379a00000000000000000000000000000000000000000000000000000000081526004016111fa90614aed565b60405180910390fd5b6003846040516112139190614740565b908152602001604051809103902060080160003373ffffffffffffffffffffffffffffffffffffffff1673ffffffffffffffffffffffffffffffffffffffff16815260200190815260200160002060008082016000905560018201600061127a919061331c565b600282016000905550507fbcdb1351c7b0043b8c36c050954a8f50bd16196d7f967f2e0c7b2a17440d597984336040516112b5929190614a9d565b60405180910390a150505050565b6000606060006020905060008090508160ff16855111156112e8578160ff1685510390505b600060608360ff166040519080825280601f01601f1916602001820160405280156113225781602001600182028038833980820191505090505b5090506060836040519080825280601f01601f19166020018201604052801561135a5781602001600182028038833980820191505090505b50905060008090505b60018951038111611435578560ff168110156113d05788818151811061138557fe5b602001015160f81c60f81b83828151811061139c57fe5b60200101907effffffffffffffffffffffffffffffffffffffffffffffffffffffffffffff1916908160001a905350611428565b8881815181106113dc57fe5b602001015160f81c60f81b828760ff168303815181106113f857fe5b60200101907effffffffffffffffffffffffffffffffffffffffffffffffffffffffffffff1916908160001a9053505b8080600101915050611363565b5061143f82612c8b565b81965096505050505050915091565b60008461145a856131a3565b8460405160200161146d939291906147a1565b60405160208183030381529060405280519060200120905061148e82612637565b6002600083815260200190815260200160002090805190602001906114b49291906132cf565b505050505050565b60606000836114ca846131a3565b60016040516020016114de939291906147a1565b6040516020818303038152906040528051906020012090506002600082815260200190815260200160002080548060200260200160405190810160405280929190818152602001828054801561155357602002820191906000526020600020905b81548152602001906001019080831161153f575b505050505091505092915050565b6000806c01000000000000000000000000600060208501015104905080915050919050565b61158e613340565b6103e8816020018181525050619c40816040018181525050619c408160600181815250506003816080019060ff16908160ff168152505060038160a0019060ff16908160ff16815250506501728eee95608160c0015160000181815250506501728ef01c008160c001516020018181525050809050919050565b6003818051602081018201805184825260208301602085012081835280955050505050506000915090508060000160009054906101000a900473ffffffffffffffffffffffffffffffffffffffff16908060010154908060020154908060030154908060040160009054906101000a900460ff16908060050160405180604001604052908160008201548152602001600182015481525050908060070160009054906101000a900460ff16905087565b60608060206040519080825280601f01601f1916602001820160405280156116ef5781602001600182028038833980820191505090505b50905060005b60208110156117565783816020811061170a57fe5b1a60f81b82828151811061171a57fe5b60200101907effffffffffffffffffffffffffffffffffffffffffffffffffffffffffffff1916908160001a90535080806001019150506116f5565b5080915050919050565b60608060046040519080825280602002602001820160405280156117935781602001602082028038833980820191505090505b5090506005600060056000839350829250819150809050846000815181106117b757fe5b60200260200101856001815181106117cb57fe5b60200260200101866002815181106117df57fe5b60200260200101876003815181106117f357fe5b602002602001018473ffffffffffffffffffffffffffffffffffffffff1673ffffffffffffffffffffffffffffffffffffffff168152508473ffffffffffffffffffffffffffffffffffffffff1673ffffffffffffffffffffffffffffffffffffffff168152508473ffffffffffffffffffffffffffffffffffffffff1673ffffffffffffffffffffffffffffffffffffffff168152508473ffffffffffffffffffffffffffffffffffffffff1673ffffffffffffffffffffffffffffffffffffffff16815250505050508091505092915050565b6000856118d4866131a3565b846040516020016118e7939291906147a1565b6040516020818303038152906040528051906020012090507fee5443e0769176cacb5e7cebe33b561327ef2a06863e7fa72ec9be7cc2d82b608661192a876131a3565b8560405160200161193d939291906147a1565b6040516020818303038152906040526040516119599190614a23565b60405180910390a17fa457a29197b7db5513e7fa40d359d53b392afa4785e7b4e899898a92798d48498160405161199091906149d8565b60405180910390a1816002600083815260200190815260200160002090805190602001906119bf9291906132cf565b50505050505050565b60608060046040519080825280602002602001820160405280156119fb5781602001602082028038833980820191505090505b509050600560006005600083935082925081915080905084600081518110611a1f57fe5b6020026020010185600181518110611a3357fe5b6020026020010186600281518110611a4757fe5b6020026020010187600381518110611a5b57fe5b602002602001018473ffffffffffffffffffffffffffffffffffffffff1673ffffffffffffffffffffffffffffffffffffffff168152508473ffffffffffffffffffffffffffffffffffffffff1673ffffffffffffffffffffffffffffffffffffffff168152508473ffffffffffffffffffffffffffffffffffffffff1673ffffffffffffffffffffffffffffffffffffffff168152508473ffffffffffffffffffffffffffffffffffffffff1673ffffffffffffffffffffffffffffffffffffffff1681525050505050809150509392505050565b6060611b5d82604051602001611b47919061470a565b6040516020818303038152906040526005612877565b9050919050565b7fbef39ac07ea6b8a7a08590612f317b1db2e9821fea4739345478345d853321e781604051611b939190614a7b565b60405180910390a150565b606080611be0836040518060400160405280601081526020017f73657269616c6973655374616b657273000000000000000000000000000000008152506114bc565b905060608151604051908082528060200260200182016040528015611c145781602001602082028038833980820191505090505b50905060008090505b82518161ffff161015611ca957611c52611c4d848361ffff1681518110611c4057fe5b60200260200101516116b8565b611561565b828261ffff1681518110611c6257fe5b602002602001019073ffffffffffffffffffffffffffffffffffffffff16908173ffffffffffffffffffffffffffffffffffffffff16815250508080600101915050611c1d565b508092505050919050565b600082905060608251604051908082528060200260200182016040528015611ceb5781602001602082028038833980820191505090505b509050600085611d2f6040518060400160405280600f81526020017f73657269616c69736550726f6f667300000000000000000000000000000000008152506131a3565b866001604051602001611d459493929190614757565b60405160208183030381529060405280519060200120905060008090505b84518161ffff161015611dc357848161ffff1681518110611d8057fe5b602002602001015160601b6bffffffffffffffffffffffff1916838261ffff1681518110611daa57fe5b6020026020010181815250508080600101915050611d63565b50600060026000838152602001908152602001600020805490501115611e1b577fd0adafca5f88ebee186251179caad6d29ee5ad555a79bfe4d8a00e3a87988a2b83604051611e1291906147f5565b60405180910390a15b81600260008381526020019081526020016000209080519060200190611e429291906132cf565b50505050505050565b6000610bb8905090565b6060600084611e63856131a3565b6001604051602001611e77939291906147a1565b6040516020818303038152906040528051906020012090507fee5443e0769176cacb5e7cebe33b561327ef2a06863e7fa72ec9be7cc2d82b6085611eba866131a3565b6001604051602001611ece939291906147a1565b604051602081830303815290604052604051611eea9190614a23565b60405180910390a17fa457a29197b7db5513e7fa40d359d53b392afa4785e7b4e899898a92798d484981604051611f2191906149d8565b60405180910390a160026000828152602001908152602001600020805480602002602001604051908101604052809291908181526020018280548015611f8657602002820191906000526020600020905b815481526020019060010190808311611f72575b50505050509150509392505050565b806060611fa182611b9e565b9050600080600090505b825181101561200d573373ffffffffffffffffffffffffffffffffffffffff16838281518110611fd757fe5b602002602001015173ffffffffffffffffffffffffffffffffffffffff16141561200057600191505b8080600101915050611fab565b508061204e576040517f08c379a000000000000000000000000000000000000000000000000000000000815260040161204590614b0d565b60405180910390fd5b606061205985611b9e565b9050600061209282516003886040516120729190614740565b9081526020016040518091039020600201546131b490919063ffffffff16565b905060006003876040516120a69190614740565b9081526020016040518091039020600201546003886040516120c89190614740565b9081526020016040518091039020600301540390506120e78733611140565b50505050505050565b606061211c8260405160200161210691906147da565b6040516020818303038152906040526000612877565b9050919050565b60006003836040516121359190614740565b908152602001604051809103902060080160008373ffffffffffffffffffffffffffffffffffffffff1673ffffffffffffffffffffffffffffffffffffffff16815260200190815260200160002060030160008073ffffffffffffffffffffffffffffffffffffffff1673ffffffffffffffffffffffffffffffffffffffff168152602001908152602001600020546003846040516121d49190614740565b908152602001604051809103902060080160008473ffffffffffffffffffffffffffffffffffffffff1673ffffffffffffffffffffffffffffffffffffffff16815260200190815260200160002060030160008473ffffffffffffffffffffffffffffffffffffffff1673ffffffffffffffffffffffffffffffffffffffff1681526020019081526020016000205401905080905092915050565b600960009054906101000a900460130b81565b6000606061228f84611b9e565b9050606061229c85610d78565b905060008060008060019050600093505b85518461ffff16101561244d57600091503373ffffffffffffffffffffffffffffffffffffffff16868561ffff16815181106122e557fe5b602002602001015173ffffffffffffffffffffffffffffffffffffffff16141561230d578392505b60008090505b858561ffff168151811061232357fe5b60200260200101515181101561243f573373ffffffffffffffffffffffffffffffffffffffff16868661ffff168151811061235a57fe5b6020026020010151828151811061236d57fe5b602002602001015173ffffffffffffffffffffffffffffffffffffffff16141561239657600192505b600a6000878761ffff16815181106123aa57fe5b602002602001015183815181106123bd57fe5b602002602001015173ffffffffffffffffffffffffffffffffffffffff1673ffffffffffffffffffffffffffffffffffffffff168152602001908152602001600020600081819054906101000a900461ffff168092919060010191906101000a81548161ffff021916908361ffff160217905550508080600101915050612313565b5083806001019450506122ad565b8060ff16600a60003373ffffffffffffffffffffffffffffffffffffffff1673ffffffffffffffffffffffffffffffffffffffff16815260200190815260200160002060009054906101000a900461ffff1661ffff161015801561252357506002600a60003373ffffffffffffffffffffffffffffffffffffffff1673ffffffffffffffffffffffffffffffffffffffff16815260200190815260200160002060009054906101000a900461ffff1661ffff16868661ffff168151811061251057fe5b6020026020010151518161252057fe5b04105b15612537576001965050505050505061253e565b5050505050505b9392505050565b60606000600b60009054906101000a900473ffffffffffffffffffffffffffffffffffffffff1690507f1ff50e4650f7f1e5b26a5f5e921b803deee4a95a1b6ef46e05992b3bc1dcdb8c60405160405180910390a160405136600082376000803683855af43d806000843e81600081146125bd578184f35b8184fd5b60016003826040516125d39190614740565b908152602001604051809103902060070160006101000a81548160ff0219169083151502179055507fc2b1ad619f75c5b190b6f26a4b118a5ec58ad98a0a76cef82a67099f76c03336813360405161262c929190614a9d565b60405180910390a150565b606060006001905060008090505b8161ffff168161ffff1611612693576000600182016020029050600081860151905080858461ffff168151811061267857fe5b60200260200101818152505050508080600101915050612645565b5081915050919050565b6060806126a9836116b8565b905080915050919050565b60608060208351026040519080825280601f01601f1916602001820160405280156126ee5781602001600182028038833980820191505090505b50905060008060009050600090505b84518110156127c75760008090505b60208110156127b95760008160080260020a87848151811061272a57fe5b602002602001015160001c0260001b9050600060f81b817effffffffffffffffffffffffffffffffffffffffffffffffffffffffffffff1916146127ab578085858151811061277557fe5b60200101907effffffffffffffffffffffffffffffffffffffffffffffffffffffffffffff1916908160001a9053506001840193505b50808060010191505061270c565b5080806001019150506126fd565b6060826040519080825280601f01601f1916602001820160405280156127fc5781602001600182028038833980820191505090505b509050600091505b8282101561286b5783828151811061281857fe5b602001015160f81c60f81b81838151811061282f57fe5b60200101907effffffffffffffffffffffffffffffffffffffffffffffffffffffffffffff1916908160001a9053508180600101925050612804565b80945050505050919050565b6060806040518060400160405280601081526020017f3031323334353637383961626364656600000000000000000000000000000000815250905060006014905060606002820260020161ffff166040519080825280601f01601f1916602001820160405280156128f75781602001600182028038833980820191505090505b5090507f30000000000000000000000000000000000000000000000000000000000000008160008151811061292857fe5b60200101907effffffffffffffffffffffffffffffffffffffffffffffffffffffffffffff1916908160001a9053507f78000000000000000000000000000000000000000000000000000000000000008160018151811061298557fe5b60200101907effffffffffffffffffffffffffffffffffffffffffffffffffffffffffffff1916908160001a90535060008090505b8261ffff16811015612ae7578360048883815181106129d557fe5b602001015160f81c60f81b7effffffffffffffffffffffffffffffffffffffffffffffffffffffffffffff1916901c60f81c60ff1681518110612a1457fe5b602001015160f81c60f81b826002830260020181518110612a3157fe5b60200101907effffffffffffffffffffffffffffffffffffffffffffffffffffffffffffff1916908160001a90535083600f60f81b888381518110612a7257fe5b602001015160f81c60f81b1660f81c60ff1681518110612a8e57fe5b602001015160f81c60f81b826002830260030181518110612aab57fe5b60200101907effffffffffffffffffffffffffffffffffffffffffffffffffffffffffffff1916908160001a90535080806001019150506129ba565b5080935050505092915050565b60008190506000600385604051612b0b9190614740565b908152602001604051809103902060090160008373ffffffffffffffffffffffffffffffffffffffff1673ffffffffffffffffffffffffffffffffffffffff16815260200190815260200160002060009054906101000a900461ffff1690506000809050600060608651604051908082528060200260200182016040528015612ba35781602001602082028038833980820191505090505b509050600091505b86518261ffff161015612c0b57868261ffff1681518110612bc857fe5b602002602001015160601b6bffffffffffffffffffffffff1916818361ffff1681518110612bf257fe5b6020026020010181815250508180600101925050612bab565b612c4e886040518060400160405280600f81526020017f73657269616c69736550726f6f6673000000000000000000000000000000000081525087600185610c3a565b5050505050505050565b6060612c8482604051602001612c6e9190614725565b6040516020818303038152906040526000612877565b9050919050565b6000806020830151905080915050919050565b6000600383604051612cb09190614740565b908152602001604051809103902060080160003373ffffffffffffffffffffffffffffffffffffffff1673ffffffffffffffffffffffffffffffffffffffff1681526020019081526020016000206000015411612d42576040517f08c379a0000000000000000000000000000000000000000000000000000000008152600401612d3990614b2d565b60405180910390fd5b6000600383604051612d549190614740565b908152602001604051809103902060090160003373ffffffffffffffffffffffffffffffffffffffff1673ffffffffffffffffffffffffffffffffffffffff16815260200190815260200160002060009054906101000a900461ffff1661ffff1611612df5576040517f08c379a0000000000000000000000000000000000000000000000000000000008152600401612dec90614acd565b60405180910390fd5b612e0160008383612282565b612e77577ff79d39278918f1a3dc8522bfdea96d506ed15dd2cc97156b182f5c8895ab7b7133604051612e349190614810565b60405180910390a16040517f08c379a0000000000000000000000000000000000000000000000000000000008152600401612e6e90614b6d565b60405180910390fd5b600080612e826110e4565b91509150600081612efd600387604051612e9c9190614740565b908152602001604051809103902060080160003373ffffffffffffffffffffffffffffffffffffffff1673ffffffffffffffffffffffffffffffffffffffff16815260200190815260200160002060000154856131fe90919063ffffffff16565b81612f0457fe5b049050612f0f611e4b565b81600160003373ffffffffffffffffffffffffffffffffffffffff1673ffffffffffffffffffffffffffffffffffffffff16815260200190815260200160002054011115612fbc57600385604051612f679190614740565b908152602001604051809103902060080160003373ffffffffffffffffffffffffffffffffffffffff1673ffffffffffffffffffffffffffffffffffffffff1681526020019081526020016000206000015490505b6000600386604051612fce9190614740565b908152602001604051809103902060080160003373ffffffffffffffffffffffffffffffffffffffff1673ffffffffffffffffffffffffffffffffffffffff1681526020019081526020016000206000018190555080600160003373ffffffffffffffffffffffffffffffffffffffff1673ffffffffffffffffffffffffffffffffffffffff168152602001908152602001600020600082825401925050819055507f391dd8dd49c61a65c7ebe8745ea4c81bc4d5a6dd59d8bda3ba1f9a9114bf64eb336003876040516130a29190614740565b908152602001604051809103902060080160003373ffffffffffffffffffffffffffffffffffffffff1673ffffffffffffffffffffffffffffffffffffffff16815260200190815260200160002060000154836040516131049392919061482b565b60405180910390a16131168533611140565b5050505050565b600060038360405161312f9190614740565b908152602001604051809103902060080160008373ffffffffffffffffffffffffffffffffffffffff1673ffffffffffffffffffffffffffffffffffffffff16815260200190815260200160002060000154905092915050565b6000600960009054906101000a900460130b60130b905090565b600081805190602001209050919050565b60006131f683836040518060400160405280601a81526020017f536166654d6174683a206469766973696f6e206279207a65726f00000000000081525061326e565b905092915050565b6000808314156132115760009050613268565b600082840290508284828161322257fe5b0414613263576040517f08c379a000000000000000000000000000000000000000000000000000000000815260040161325a90614b4d565b60405180910390fd5b809150505b92915050565b600080831182906132b5576040517f08c379a00000000000000000000000000000000000000000000000000000000081526004016132ac9190614a7b565b60405180910390fd5b5060008385816132c157fe5b049050809150509392505050565b82805482825590600052602060002090810192821561330b579160200282015b8281111561330a5782518255916020019190600101906132ef565b5b509050613318919061339f565b5090565b508054600082556002029060005260206000209081019061333d91906133c4565b50565b6040518060e00160405280600073ffffffffffffffffffffffffffffffffffffffff168152602001600081526020016000815260200160008152602001600060ff168152602001600060ff1681526020016133996133f3565b81525090565b6133c191905b808211156133bd5760008160009055506001016133a5565b5090565b90565b6133f091905b808211156133ec576000808201600090556001820160009055506002016133ca565b5090565b90565b604051806040016040528060008152602001600081525090565b60008135905061341c8161503d565b92915050565b600082601f83011261343357600080fd5b813561344661344182614c35565b614c08565b9150818183526020840193506020810190508385602084028201111561346b57600080fd5b60005b8381101561349b5781613481888261340d565b84526020840193506020830192505060018101905061346e565b5050505092915050565b600082601f8301126134b657600080fd5b81356134c96134c482614c5d565b614c08565b915081818352602084019350602081019050838560208402820111156134ee57600080fd5b60005b8381101561351e57816135048882613528565b8452602084019350602083019250506001810190506134f1565b5050505092915050565b60008135905061353781615054565b92915050565b60008135905061354c8161506b565b92915050565b600082601f83011261356357600080fd5b813561357661357182614c85565b614c08565b9150808252602083016020830185838301111561359257600080fd5b61359d838284614f7c565b50505092915050565b6000813590506135b581615082565b92915050565b60008083601f8401126135cd57600080fd5b8235905067ffffffffffffffff8111156135e657600080fd5b6020830191508360018202830111156135fe57600080fd5b9250929050565b600082601f83011261361657600080fd5b813561362961362482614cb1565b614c08565b9150808252602083016020830185838301111561364557600080fd5b613650838284614f7c565b50505092915050565b600082601f83011261366a57600080fd5b813561367d61367882614cdd565b614c08565b9150808252602083016020830185838301111561369957600080fd5b6136a4838284614f7c565b50505092915050565b6000813590506136bc81615099565b92915050565b6000813590506136d1816150b0565b92915050565b6000813590506136e6816150c7565b92915050565b6000602082840312156136fe57600080fd5b600061370c8482850161340d565b91505092915050565b60008060006060848603121561372a57600080fd5b60006137388682870161340d565b935050602084013567ffffffffffffffff81111561375557600080fd5b61376186828701613659565b925050604061377286828701613528565b9150509250925092565b60006020828403121561378e57600080fd5b600082013567ffffffffffffffff8111156137a857600080fd5b6137b4848285016134a5565b91505092915050565b6000602082840312156137cf57600080fd5b60006137dd84828501613528565b91505092915050565b600080600080608085870312156137fc57600080fd5b600061380a8782880161353d565b945050602085013567ffffffffffffffff81111561382757600080fd5b61383387828801613659565b9350506040613844878288016136c2565b9250506060613855878288016136d7565b91505092959194509250565b60006020828403121561387357600080fd5b600082013567ffffffffffffffff81111561388d57600080fd5b61389984828501613552565b91505092915050565b600080604083850312156138b557600080fd5b600083013567ffffffffffffffff8111156138cf57600080fd5b6138db85828601613552565b92505060206138ec858286016136ad565b9150509250929050565b60006020828403121561390857600080fd5b6000613916848285016135a6565b91505092915050565b6000806020838503121561393257600080fd5b600083013567ffffffffffffffff81111561394c57600080fd5b613958858286016135bb565b92509250509250929050565b60008060006040848603121561397957600080fd5b600084013567ffffffffffffffff81111561399357600080fd5b61399f868287016135bb565b935093505060206139b2868287016136d7565b9150509250925092565b6000602082840312156139ce57600080fd5b600082013567ffffffffffffffff8111156139e857600080fd5b6139f484828501613605565b91505092915050565b600060208284031215613a0f57600080fd5b600082013567ffffffffffffffff811115613a2957600080fd5b613a3584828501613659565b91505092915050565b60008060408385031215613a5157600080fd5b600083013567ffffffffffffffff811115613a6b57600080fd5b613a7785828601613659565b9250506020613a888582860161340d565b9150509250929050565b600080600060608486031215613aa757600080fd5b600084013567ffffffffffffffff811115613ac157600080fd5b613acd86828701613659565b9350506020613ade8682870161340d565b925050604084013567ffffffffffffffff811115613afb57600080fd5b613b0786828701613422565b9150509250925092565b60008060408385031215613b2457600080fd5b600083013567ffffffffffffffff811115613b3e57600080fd5b613b4a85828601613659565b925050602083013567ffffffffffffffff811115613b6757600080fd5b613b7385828601613422565b9150509250929050565b600080600060608486031215613b9257600080fd5b600084013567ffffffffffffffff811115613bac57600080fd5b613bb886828701613659565b935050602084013567ffffffffffffffff811115613bd557600080fd5b613be186828701613422565b9250506040613bf28682870161340d565b9150509250925092565b60008060408385031215613c0f57600080fd5b600083013567ffffffffffffffff811115613c2957600080fd5b613c3585828601613659565b9250506020613c4685828601613528565b9150509250929050565b60008060408385031215613c6357600080fd5b600083013567ffffffffffffffff811115613c7d57600080fd5b613c8985828601613659565b925050602083013567ffffffffffffffff811115613ca657600080fd5b613cb285828601613659565b9150509250929050565b600080600060608486031215613cd157600080fd5b600084013567ffffffffffffffff811115613ceb57600080fd5b613cf786828701613659565b935050602084013567ffffffffffffffff811115613d1457600080fd5b613d2086828701613659565b9250506040613d318682870161340d565b9150509250925092565b600080600080600060a08688031215613d5357600080fd5b600086013567ffffffffffffffff811115613d6d57600080fd5b613d7988828901613659565b955050602086013567ffffffffffffffff811115613d9657600080fd5b613da288828901613659565b9450506040613db38882890161340d565b9350506060613dc4888289016136d7565b9250506080613dd58882890161340d565b9150509295509295909350565b600080600080600060a08688031215613dfa57600080fd5b600086013567ffffffffffffffff811115613e1457600080fd5b613e2088828901613659565b955050602086013567ffffffffffffffff811115613e3d57600080fd5b613e4988828901613659565b9450506040613e5a8882890161340d565b9350506060613e6b888289016136d7565b925050608086013567ffffffffffffffff811115613e8857600080fd5b613e94888289016134a5565b9150509295509295909350565b60008060008060808587031215613eb757600080fd5b600085013567ffffffffffffffff811115613ed157600080fd5b613edd87828801613659565b945050602085013567ffffffffffffffff811115613efa57600080fd5b613f0687828801613659565b9350506040613f17878288016136d7565b925050606085013567ffffffffffffffff811115613f3457600080fd5b613f4087828801613659565b91505092959194509250565b600060208284031215613f5e57600080fd5b6000613f6c848285016136c2565b91505092915050565b6000613f818383613fe0565b60208301905092915050565b6000613f998383614073565b905092915050565b6000613fad83836141a4565b60a08301905092915050565b6000613fc58383614268565b60208301905092915050565b613fda81614f46565b82525050565b613fe981614e96565b82525050565b613ff881614e96565b82525050565b61400f61400a82614e96565b614fbe565b82525050565b600061402082614d6e565b61402a8185614e1a565b935061403583614d19565b8060005b8381101561406657815161404d8882613f75565b975061405883614dc8565b925050600181019050614039565b5085935050505092915050565b600061407e82614d63565b6140888185614e09565b935061409383614d09565b8060005b838110156140c45781516140ab8882613f75565b97506140b683614dbb565b925050600181019050614097565b5085935050505092915050565b60006140dc82614d79565b6140e68185614e2b565b9350836020820285016140f885614d29565b8060005b8581101561413457848403895281516141158582613f8d565b945061412083614dd5565b925060208a019950506001810190506140fc565b50829750879550505050505092915050565b600061415182614d84565b61415b8185614e3c565b935061416683614d39565b8060005b8381101561419757815161417e8882613fa1565b975061418983614de2565b92505060018101905061416a565b5085935050505092915050565b6141ad81614d8f565b6141b78184614e4d565b92506141c282614d49565b8060005b838110156141f35781516141da8782613fb9565b96506141e583614def565b9250506001810190506141c6565b505050505050565b600061420682614d9a565b6142108185614e58565b935061421b83614d53565b8060005b8381101561424c5781516142338882613fb9565b975061423e83614dfc565b92505060018101905061421f565b5085935050505092915050565b61426281614ea8565b82525050565b61427181614eb4565b82525050565b61428081614eb4565b82525050565b61429761429282614eb4565b614fd0565b82525050565b6142ae6142a982614ebe565b614fda565b82525050565b60006142bf82614da5565b6142c98185614e69565b93506142d9818560208601614f8b565b6142e281615012565b840191505092915050565b6142f681614eea565b82525050565b61430581614ef7565b82525050565b600061431682614db0565b6143208185614e7a565b9350614330818560208601614f8b565b61433981615012565b840191505092915050565b600061434f82614db0565b6143598185614e8b565b9350614369818560208601614f8b565b80840191505092915050565b6000614382603a83614e7a565b91507f53656e64657220686173206e6f74207375626d697474656420616e206174746560008301527f6e64616e63652070726f6f6620666f72207468697320706f6c6c0000000000006020830152604082019050919050565b60006143e8603083614e7a565b91507f5374616b657220686173206e6f6e20656d707479207374616b65206f7220766560008301527f6e756520636f6e747269627574696f6e000000000000000000000000000000006020830152604082019050919050565b600061444e603483614e7a565b91507f46756e6374696f6e206d6179206f6e6c792062652063616c6c6564206279206160008301527f207374616b6572206f6e207468697320706f6c6c0000000000000000000000006020830152604082019050919050565b60006144b4602783614e7a565b91507f53656e64657220686173206e6f7468696e67207374616b656420666f7220746860008301527f697320706f6c6c000000000000000000000000000000000000000000000000006020830152604082019050919050565b600061451a602183614e7a565b91507f536166654d6174683a206d756c7469706c69636174696f6e206f766572666c6f60008301527f77000000000000000000000000000000000000000000000000000000000000006020830152604082019050919050565b6000614580600d83614e7a565b91507f496e76616c69642070726f6f66000000000000000000000000000000000000006000830152602082019050919050565b610100820160008201516145ca6000850182613fe0565b5060208201516145dd60208501826146a0565b5060408201516145f060408501826146a0565b50606082015161460360608501826146a0565b50608082015161461660808501826146d5565b5060a082015161462960a08501826146d5565b5060c082015161463c60c0850182614642565b50505050565b60408201600082015161465860008501826146a0565b50602082015161466b60208501826146a0565b50505050565b60408201600082015161468760008501826146a0565b50602082015161469a60208501826146a0565b50505050565b6146a981614f2f565b82525050565b6146b881614f2f565b82525050565b6146cf6146ca82614f2f565b614ff6565b82525050565b6146de81614f39565b82525050565b6146ed81614f39565b82525050565b6147046146ff82614f39565b615000565b82525050565b60006147168284613ffe565b60148201915081905092915050565b60006147318284614286565b60208201915081905092915050565b600061474c8284614344565b915081905092915050565b60006147638287614344565b915061476f828661429d565b60048201915061477f8285613ffe565b60148201915061478f82846146f3565b60018201915081905095945050505050565b60006147ad8286614344565b91506147b9828561429d565b6004820191506147c982846146f3565b600182019150819050949350505050565b60006147e682846146be565b60208201915081905092915050565b600060208201905061480a6000830184613fef565b92915050565b60006020820190506148256000830184613fd1565b92915050565b60006060820190506148406000830186613fd1565b61484d60208301856146af565b61485a60408301846146af565b949350505050565b600061010082019050614878600083018a613fef565b61488560208301896146af565b61489260408301886146af565b61489f60608301876146af565b6148ac60808301866146e4565b6148b960a0830185614671565b6148c660e0830184614259565b98975050505050505050565b6000610100820190506148e8600083018b613fef565b6148f5602083018a6146af565b61490260408301896146af565b61490f60608301886146e4565b61491c60808301876146e4565b61492960a08301866146af565b61493660c08301856146af565b81810360e08301526149488184614146565b90509998505050505050505050565b600060208201905081810360008301526149718184614015565b905092915050565b6000602082019050818103600083015261499381846140d1565b905092915050565b600060208201905081810360008301526149b581846141fb565b905092915050565b60006020820190506149d26000830184614259565b92915050565b60006020820190506149ed6000830184614277565b92915050565b6000604082019050614a086000830185614277565b8181036020830152614a1a81846142b4565b90509392505050565b60006020820190508181036000830152614a3d81846142b4565b905092915050565b6000602082019050614a5a60008301846142ed565b92915050565b6000602082019050614a7560008301846142fc565b92915050565b60006020820190508181036000830152614a95818461430b565b905092915050565b60006040820190508181036000830152614ab7818561430b565b9050614ac66020830184613fd1565b9392505050565b60006020820190508181036000830152614ae681614375565b9050919050565b60006020820190508181036000830152614b06816143db565b9050919050565b60006020820190508181036000830152614b2681614441565b9050919050565b60006020820190508181036000830152614b46816144a7565b9050919050565b60006020820190508181036000830152614b668161450d565b9050919050565b60006020820190508181036000830152614b8681614573565b9050919050565b600061010082019050614ba360008301846145b3565b92915050565b6000602082019050614bbe60008301846146af565b92915050565b6000604082019050614bd960008301856146af565b614be660208301846146af565b9392505050565b6000602082019050614c0260008301846146e4565b92915050565b6000604051905081810181811067ffffffffffffffff82111715614c2b57600080fd5b8060405250919050565b600067ffffffffffffffff821115614c4c57600080fd5b602082029050602081019050919050565b600067ffffffffffffffff821115614c7457600080fd5b602082029050602081019050919050565b600067ffffffffffffffff821115614c9c57600080fd5b601f19601f8301169050602081019050919050565b600067ffffffffffffffff821115614cc857600080fd5b601f19601f8301169050602081019050919050565b600067ffffffffffffffff821115614cf457600080fd5b601f19601f8301169050602081019050919050565b6000819050602082019050919050565b6000819050602082019050919050565b6000819050602082019050919050565b6000819050602082019050919050565b6000819050919050565b6000819050602082019050919050565b600081519050919050565b600081519050919050565b600081519050919050565b600081519050919050565b600060059050919050565b600081519050919050565b600081519050919050565b600081519050919050565b6000602082019050919050565b6000602082019050919050565b6000602082019050919050565b6000602082019050919050565b6000602082019050919050565b6000602082019050919050565b600082825260208201905092915050565b600082825260208201905092915050565b600082825260208201905092915050565b600082825260208201905092915050565b600081905092915050565b600082825260208201905092915050565b600082825260208201905092915050565b600082825260208201905092915050565b600081905092915050565b6000614ea182614f0f565b9050919050565b60008115159050919050565b6000819050919050565b60007fffffffff0000000000000000000000000000000000000000000000000000000082169050919050565b60008160130b9050919050565b6000819050919050565b600061ffff82169050919050565b600073ffffffffffffffffffffffffffffffffffffffff82169050919050565b6000819050919050565b600060ff82169050919050565b6000614f5182614f58565b9050919050565b6000614f6382614f6a565b9050919050565b6000614f7582614f0f565b9050919050565b82818337600083830152505050565b60005b83811015614fa9578082015181840152602081019050614f8e565b83811115614fb8576000848401525b50505050565b6000614fc982614fe4565b9050919050565b6000819050919050565b6000819050919050565b6000614fef82615030565b9050919050565b6000819050919050565b600061500b82615023565b9050919050565b6000601f19601f8301169050919050565b60008160f81b9050919050565b60008160601b9050919050565b61504681614e96565b811461505157600080fd5b50565b61505d81614eb4565b811461506857600080fd5b50565b61507481614ebe565b811461507f57600080fd5b50565b61508b81614eea565b811461509657600080fd5b50565b6150a281614f01565b81146150ad57600080fd5b50565b6150b981614f2f565b81146150c457600080fd5b50565b6150d081614f39565b81146150db57600080fd5b5056fea365627a7a723158205a2ee4c25f3238b37ce95fb763264a15717933a6c2fbe552addb04ada43d79086c6578706572696d656e74616cf564736f6c63430005100040",
  "source": "pragma solidity ^0.5.7;\npragma experimental ABIEncoderV2;\n\nimport \"./strings.sol\";\nimport \"./stringCasting.sol\";\n// import \"./BytesLib.sol\";\nimport \"./SafeMath.sol\";\n\n/* Lunchcoin validator contract - mutual agreement */\ncontract MutualAgreement {\n    // Common storage structure for ALL contacts using this storage.\n    // _, __, __ , etc are unused in this contract, but must remain to occupy their slots.\n\n    address owner;  // is set by TokenStorage.. but retain types and order.\n\n    struct TimeRange {\n      uint start;\n      uint end;\n    }\n\n    struct Stake {\n      uint rep;\n      TimeRange[] available;\n      uint availabilityExpires;\n      mapping (address => uint) venueContribution;\n    }\n\n    struct dibs {\n      address payer;\n      address recipient;\n      uint amount;\n    }\n\n    struct Poll {\n      address initiator;\n      uint minStake;\n      uint venueCost;\n      uint venuePot;\n      uint8 minParticipants;\n      TimeRange eventTime;\n      bool proofsWindowClosed;\n      mapping (address => Stake) staked;\n      mapping (address => uint16) ownCheckInIndex;           // 1-indexed: ownCheckInIndex[0] = nothing there.\n      dibs[] dibsCalled;\n    }\n\n    struct PollExternal {\n      address initiator;\n      uint minStake;\n      uint venueCost;\n      uint venuePot;\n      uint8 minParticipants;\n      uint8 participants;\n      TimeRange eventTime;\n      // NB external view of Poll can never correctly represent ownCheckInIndex (a mapping to a dynamic array).\n      // Need to either make it indicative, or fixed size.\n\n      // getting arrays with web3 is weird. Possibly claims ABI error?\n      // bytes32[5][] cantremember;\n      // address[] provers;\n      // dibs[] dibsCalled;\n    }\n\n    // shared across contracts\n    mapping (address => uint) rep;\n    mapping (bytes32 => bytes32[]) allTheData;\n    mapping (string => Poll) public pollData;\n    mapping (bytes32 => bool) resultsCache;\n\n    // used only in Poll\n    mapping(uint8 => address) internal __validators;\n    mapping(uint8 => string) internal __validatorNames;\n    mapping(address => uint) internal __cashBalance;\n    address __selfAddy ;\n\n\n    int160 public flag;\n\n    // unused - previously for Storage Proxy\n    //    mapping (address => bool) internal _allowedAccess;\n\n    // used only in Validators\n    mapping (address => uint16) stakerPresentIn;\n\n      // used for testing only - will be deleted.\n      address pollAddress = 0x9D26a8a5Db7dC10689692caF8d52C912958409CF;\n\n    // constants: Do not use space in storage.\n    uint8 constant vType=1;\n    string constant vDesc = \"mutual agreement\";\n\n\n    struct proofCounter {\n        bool fakeProof;\n        int8 duplicateProofs;\n        uint8 fakeProofs;\n        bool senderIsPresent;\n    }\n\n\n    using strings for *;\n    using stringcast for string;\n    using SafeMath for uint;\n\n    function () payable external {\n        _fallback();\n    }\n\n    // function() external payable {\n    //     // NB sol 0.6+ better syntax for calldata arrays : https://solidity.readthedocs.io/en/v0.6.0/types.html#array-slices\n    //     bytes memory input = msg.data;\n    //\n    //     // TODO: This is V.0 accepting a string (really a bytes32) of EXACTLY 32 bytes, eg a doodle poll without the https:// ;)\n    //     bytes32 __ownAdress;  // NB assuming 32b rather than 20b for calldata loose packing. Remember to get rid of this line when optimising!\n    //     bytes memory usefulData;\n    //     bytes32 poll32;\n    //     bytes memory __reveal;\n    //     // demo result! (we don;t need more than bool really ;)\n    //     uint256 valid = 7331;\n    //\n    //     (__ownAdress, usefulData) = (bytesSplit32(input));\n    //     (poll32, __reveal) = (bytesSplit32(usefulData));\n    //\n    //     // NB other validators will need to additionally retrieve reveal data from msg.data\n    //     bytes32[] memory stakers = crossContractCall (encodeFunctionName(\"serialiseStakers\"), bytes32ToString(poll32), valid, vType);\n    //     bytes32[] memory proofs = crossContractCall (encodeFunctionName(\"serialiseProofs\"), bytes32ToString(poll32), valid, vType);\n    //\n    // }\n\n    constructor () public {\n        // testing constructor access to storage across shared storage\n        // (one for later ;)\n        // constructed = 1;\n    }\n\n    function _fallback() internal {\n        bytes memory input = msg.data;\n\n    }\n\n    function multiplier() public view returns (uint numerator, uint denominator) {\n      return (5,4);\n    }\n\n    function maxRep() public view returns (uint maxRep) {\n      return (3000);\n    }\n\n\n    event logStuff (string);\n    modifier isStaker(string memory _poll) {\n      address[] memory stakers = getStakerAddresses(_poll);\n      bool senderIsPresent;\n\n      for(uint i = 0; i < stakers.length; i++) {\n        if (stakers[i] == msg.sender) {\n          senderIsPresent = true;\n        }\n      }\n      require(senderIsPresent, \"Function may only be called by a staker on this poll\");\n      _;\n    }\n\n    function doEmit (string memory message) public {\n      emit logStuff (message);\n    }\n\n    function getFlag() public view returns (int) {\n      return flag;\n    }\n\n    function setFlag(int160 _flag) public {\n      flag = _flag;\n    }\n\n    function getPoll(string memory _poll) public view returns (\n        address initiator,\n        uint stake,\n        uint venueCost,\n        uint8 minParticipants,\n        uint8 participants,\n        uint start,\n        uint end,\n        bytes32[5][] memory ownCheckInIndex ) {\n\n        // initiator = new address(0x0);\n        stake = 1000;\n        venueCost = 40000;\n        minParticipants = 3;\n        participants = 3;\n        start = 1591535900000;\n        end = 1591536000000;\n\n\n      return (initiator, stake, venueCost, minParticipants, participants, start, end, ownCheckInIndex);\n    }\n\n    function getPollStruct(string memory _poll) public view returns (PollExternal memory returnPoll) {\n\n      // bytes32[5][] ownCheckInIndex;\n      // address[] provers;\n      // dibs[] dibsCalled;\n\n        returnPoll.minStake = 1000;\n        returnPoll.venueCost = 40000;\n        returnPoll.venuePot = 40000;\n        returnPoll.minParticipants = 3;\n        returnPoll.participants = 3;\n        returnPoll.eventTime.start = 1591535900000;\n        returnPoll.eventTime.end = 1591536000000;\n      return returnPoll;\n    }\n\n    function get (string memory _poll, string memory _fnName) public view returns (bytes32[] memory) {\n        bytes32 hash = keccak256(abi.encodePacked(_poll, encodeFunctionName(_fnName), vType));\n        return (allTheData[hash]);\n    }\n\n    event whassahash(bytes);\n    event whassakeccack(bytes32);\n    function getProof (string memory _poll, string memory _fnName, address _staker) public returns (bytes32[] memory) {\n      bytes32 hash = keccak256(abi.encodePacked(_poll, encodeFunctionName(_fnName), vType));\n      emit whassahash(abi.encodePacked(_poll, encodeFunctionName(_fnName), vType));\n      emit whassakeccack(hash);\n      return (allTheData[hash]);\n    }\n    //  bytes32 hash = keccak256(abi.encodePacked(_poll, encodeFunctionName(_fnName), _stakerOrZero, _vt));\n\n    function getStakerAddresses (string memory _poll ) public view returns (address[] memory) {\n      bytes32[] memory rawStakers = get(_poll, \"serialiseStakers\");\n      address[] memory stakers = new address[](rawStakers.length);\n      for(uint16 i=0; i < rawStakers.length; i++) {\n          stakers[i] = bytesToAddress(bytes32ToBytes(rawStakers[i]));\n      }\n      return stakers;\n    }\n\n    function getproofsAsAddresses (string memory _poll ) public returns (address[][] memory) {\n      address[] memory stakers = getStakerAddresses(_poll);\n      address[][] memory proofs = new address[][](stakers.length);\n      for(uint16 i=0; i < stakers.length; i++) {\n        bytes32[] memory rawProof = getProof(_poll, \"serialiseProofs\", stakers[i]);\n        address[] memory proof = new address[](rawProof.length);\n        for(uint16 j=0; j < rawProof.length; j++) {\n            proofs[i][j] = bytesToAddress(bytes32ToBytes(rawProof[i]));\n        }\n      }\n      return proofs;\n    }\n\n    event gpResult(string, string, address, uint8, bytes32[]);\n    function setChickedIn (string memory _poll, string memory _fnName, address _stakerOrZero, uint8 _vt, bytes32[] memory data) public {\n      bytes32 hash = keccak256(abi.encodePacked(_poll, encodeFunctionName(_fnName), _vt));\n      emit whassahash(abi.encodePacked(_poll, encodeFunctionName(_fnName), _vt));\n      emit whassakeccack(hash);\n      allTheData[hash] = data;\n    }\n\n    function set (string memory _poll, string memory _fnName, address _stakerOrZero, uint8 _vt, bytes32[] memory _data) public {\n      bytes32 hash;\n      if (_stakerOrZero == address(0)) {\n        hash = keccak256(abi.encodePacked(_poll, encodeFunctionName(_fnName), _vt));\n      } else {\n        hash = keccak256(abi.encodePacked(_poll, encodeFunctionName(_fnName), _stakerOrZero, _vt));\n      }\n      bytes32[] memory data = new bytes32[](_data.length);\n      for(uint16 i=0; i < _data.length; i++) {\n\n      }\n      // data=_data;\n      allTheData[hash] = data;\n    }\n\n    function addStaker (string memory _poll, string memory _fnName, address _staker, uint8 _vt, address _newMember) public {\n      bytes32 hash = keccak256(abi.encodePacked(_poll, encodeFunctionName(_fnName), _vt));\n      allTheData[hash].push (bytes32(bytes20(_newMember)));\n    }\n\n    function checkIn (string memory _poll, address[] memory _newProof, address _impersonatedStaker) public {\n      address sender = _impersonatedStaker;   //  should be msg.sender\n      uint16 idx = pollData[_poll].ownCheckInIndex[sender];\n      bool hasStaked = false;\n      uint16 i;\n\n      // if (idx==0) {\n      //   idx = uint16(getStakerAddresses(_poll ).length);\n      //   add (_poll, \"serialiseProofs\", vType, _newProof);\n      //   pollData[_poll].ownCheckInIndex[sender] = idx;    // would be an off-by-one but ownIndex is 1-indexed ;)\n      //   return;\n      // }\n      // proofs[idx] = bytes32(bytes20(_newProof));\n\n      // bytes32[] memory stakers = get(_poll, \"serialiseStakers\");\n      // for (i=0; i<stakers.length; i++) {\n      //   if bytes32(bytes20((stakers[i]))==sender\n      //     hasStaked = true;\n      // }\n      // if (hasStaked = false)\n      //   revert ('Staker has not staked in this poll')\n      bytes32[] memory proofB32 = new bytes32[](_newProof.length);\n      for (i=0; i<_newProof.length; i++) {\n        proofB32[i]=bytes32(bytes20(_newProof[i]));\n      }\n      set ( _poll, \"serialiseProofs\", sender, vType, proofB32);\n    }\n\n    event proofUpdated(address);\n    function addProof (string memory _poll, address _impersonatedStaker, address[] memory _newProof) public {\n      address sender = _impersonatedStaker;   //  should be msg.sender\n      bytes32[] memory proofB32 = new bytes32[](_newProof.length);\n      bytes32 hash = keccak256(abi.encodePacked(_poll, encodeFunctionName(\"serialiseProofs\"), _impersonatedStaker, vType));\n      for (uint16 i=0; i<_newProof.length; i++) {\n        proofB32[i]=bytes32(bytes20(_newProof[i]));\n      }\n      if (allTheData[hash].length>0)\n        emit proofUpdated(sender);\n      allTheData[hash]=(proofB32);\n    }\n\n    function addProofSelf (string memory _poll, address[] memory _newProof) public {\n      addProof (_poll, msg.sender, _newProof);\n    }\n\n    event proofsWindowClosed (string poll, address by);\n    function closeProofsWindow (string memory _poll) public {\n      // require (isElibgible(msg.sender), \"msg.sender did not stake in this poll\");\n      // require (time.now()>.pollData[_poll].eventTime.end || AllstakersSubmittedProofs(), \"Not all stakers have submitted proofs and the event is not yet over\");\n      // require (, \"\");\n      pollData[_poll].proofsWindowClosed = true;\n      emit proofsWindowClosed (_poll, msg.sender);\n\n      // NB here assuming that poll can be closed once all stakers have submitted a proof.\n      // The alternative would allow a non-attending staker to hold up refunds (by refusing to submit 'I can't make it')\n      // but this way means that early provers cannot necessarily revise rpoofs which turn out not to fit consensus\n      // This policy may be better left to differ between validators.\n    }\n\n    function totalRepStaked (string memory _poll, address _staker) public view returns (uint) {\n      return pollData[_poll].staked[_staker].rep;\n    }\n\n    function totalVenueContribs (string memory _poll, address _staker) public view returns (uint total) {\n      // dibs[] memory dibsList = allDibsPaidBy(_staker);\n      total = pollData[_poll].staked[_staker].venueContribution[_staker] + pollData[_poll].staked[_staker].venueContribution[address(0)];\n      // for(uint16 i = 0; i < dibsList.length; i++) {\n      //   total += dibsList[i].amount;\n      // }\n      return total;\n    }\n\n    event emptyStakeRemoved (string _poll, address _staker);\n    function removeEmptyStake (string memory _poll, address _staker) public {\n      uint rep=pollData[_poll].staked[msg.sender].rep;\n      uint venueContributions = totalVenueContribs (_poll, _staker);\n      require (rep==0 && venueContributions==0, 'Staker has non empty stake or venue contribution');\n      delete pollData[_poll].staked[msg.sender];\n      emit emptyStakeRemoved(_poll, msg.sender);\n    }\n\n    // NB these require returning complex type.\n    // Keep the commented code, but integrate it direct into functions which need it (and eventually use new ABI encoder on it ;)\n\n    // function allDibsPaidBy(string memory _poll, address _staker) public view returns (dibs[] memory) {\n    //   uint16 size=0;\n    //   uint16 i;\n    //   for(i = 0; i < pollData[_poll].dibsCalled.length; i++) {\n    //     if (pollData[_poll].dibsCalled[i].payer == _staker)\n    //       size++;\n    //   }\n    //   dibs[size] memory dibsList = new dibs[](size);\n    //   for(uint16 i = 0; i < pollData[_poll].dibsCalled.length; i++) {\n    //     if (pollData[_poll].dibsCalled[i].payer == _staker)\n    //       dibsList.push(pollData[_poll].dibsCalled[i]);\n    //   }\n    //   return dibsList;\n    // }\n    //\n    // function allDibsPaidFor(string memory _poll, address _recipient) public view returns (dibs[] memory) {\n    //   uint16 size=0;\n    //   uint16 i;\n    //   for(i = 0; i < pollData[_poll].dibsCalled.length; i++) {\n    //     if (pollData[_poll].dibsCalled[i].recipient == _recipient)\n    //       size++;\n    //   }\n    //   dibs[size] memory dibsList = new dibs[](size);\n    //   for(i = 0; i < pollData[_poll].dibsCalled.length; i++) {\n    //     if (pollData[_poll].dibsCalled[i].recipient == _recipient)\n    //       dibsList.push(pollData[_poll].dibsCalled[i]);\n    //   }\n    //   return dibsList;\n    // }\n\n    event venuePotDisbursed (string _poll, address to, address by, int amount);\n    // Any staker can call refund of excess venue pot.\n    // Disbursement to venue payer must wait until initiator has actively set venue payer (eg to self);\n    function refundVenueStakes(string memory _poll) public isStaker(_poll) {\n      address[] memory stakers = getStakerAddresses(_poll);\n      uint equalShare = (pollData[_poll].venueCost).div(stakers.length);\n      uint spareCash = pollData[_poll].venuePot-pollData[_poll].venueCost;\n      // // proportional refunds:\n      // // allows recipients of gifted contributions to get a refund too\n      // for stakers\n      //   refund = 0\n      //   for (stakes = allDibsPaidBy(staker).concat(staker.stake[staker]).concat(staker.stake[0x0]))\n      //     refund += stake*proportion\n      //     remove stake\n      //   refund (refund)\n      //   emit\n      //\n      // // covering refunds:\n      // // gifted contributions are used only to top up recipients'\n      // for stakers\n      //   totalPaid = staker.stake[staker].amount + staker.stake[0x0].amount\n      //   if totalPaid < equalShare\n      //     for (stakes = allDibsPaidFor(staker).concat(staker.stake[staker]).concat(staker.stake[0x0]))\n      //       if amount>=shortfall\n      //         totalPaid += shortfall\n      //         shorten(stake)\n      //       else\n      //         totalPaid += amount\n      //         remove(stake) including own stake!\n      //     refund(0)\n      // for stakers\n      //   if exists(stake) (ie those who were not removed in last round)\n      //     for (stakes = allDibsPaidBy(staker).concat(staker.stake[staker]).concat(staker.stake[0x0]))\n      //       if amount>=shortfall\n      //         totalPaid += shortfall\n      //         refund += rest\n      //       else\n      //         totalPaid += amount\n      //       remove(stake)\n      //     refund (refund)\n      //     emitsolidity uint16\n      //\n\n      removeEmptyStake(_poll, msg.sender);\n    }\n\n    function setString (string memory _poll, string memory _fnName, uint8 _vt, string memory data) public {\n      bytes32 hash = keccak256(abi.encodePacked(_poll, encodeFunctionName(_fnName), _vt));\n      allTheData[hash] = stringToBytes32Array(data);\n    }\n\n\n    event repRefund (address _staker, uint _staked, uint _refunded);\n    event refundFail (address _staker);\n    function refundStake (string memory _poll, bytes32 _reveal) public {\n      require (pollData[_poll].staked[msg.sender].rep > 0, 'Sender has nothing staked for this poll');\n      require (pollData[_poll].ownCheckInIndex[msg.sender] > 0, 'Sender has not submitted an attendance proof for this poll');\n      if (!validate(address(0), _poll, _reveal)) {\n        emit refundFail(msg.sender);\n        revert ('Invalid proof');\n      }\n\n      (uint num, uint denom) = multiplier();\n      uint refund = num.mul(pollData[_poll].staked[msg.sender].rep) / denom;\n      if (rep[msg.sender] + refund > maxRep())\n        refund = pollData[_poll].staked[msg.sender].rep;\n\n      pollData[_poll].staked[msg.sender].rep = 0;\n      rep[msg.sender] += refund;\n      emit repRefund (msg.sender, pollData[_poll].staked[msg.sender].rep, refund);\n      removeEmptyStake(_poll, msg.sender);\n\n    }\n\n    event numberLoggerLikeImUsingFuckingJava (string, uint);\n    // cheapo validator - this one just counts how many people included you in their proof, with no attempt at making the proofs agree.\n    // currently counts votes in favour of each stakers, which will help, but doesn't flag which poroofs disagree\n    function validate(address _pollContract, string memory _poll, bytes32 _reveal) public returns (bool) {\n        // require (_pollContract==howeverYoullIdentifySelf, 'wrong Poll contract - something needs upgrading');\n\n        address[] memory stakers = getStakerAddresses(_poll);\n        address[][] memory proofs = getproofsAsAddresses(_poll);\n        uint16 i;\n        uint16 sendersIndex;\n        bool stakerPresent;\n\n        uint8 threshold = 1 ;   //  do not set to 0 - div0 error!\n        // emit numberLoggerLikeImUsingFuckingJava('stakers',stakers.length);\n        // emit numberLoggerLikeImUsingFuckingJava('proofs',proofs.length);\n\n        // proofCounter memory pc;\n        for(i = 0; i < stakers.length; i++) {\n            // emit logStuff(\"started loop\");\n            stakerPresent = false;\n            if (stakers[i]==msg.sender)\n              sendersIndex=i;\n            for(uint j = 0; j < proofs[i].length; j++) {\n              if (proofs[i][j] == msg.sender)\n                stakerPresent = true;\n              stakerPresentIn[proofs[i][j]]++;     // increase the present count for the address who this staker marked present\n              // if this staker claims someone is here but the majority disagree, then emit disagreement;\n            }\n            // if (!stakerPresent)\n            //   impugnProof(i);\n            //   // if I am not present, emit a disagreement;\n        }\n        // if stakerPresentIn[sendersIndex] < proofs[i].length {\n        //   bePissedOff();\n        // }\n\n        // update majorities\n        // check previous disagreements\n\n        if ((stakerPresentIn[msg.sender]>=threshold) && (proofs[i].length/ stakerPresentIn[msg.sender] < 2)) {\n          return true;\n        }\n        // add reversion logic\n\n\n\n\n        // // deal with 0 < threshold < 1\n        // if(percentageThreshold>0) {\n        //   threshold = percentageThreshold*stakers.length;\n        // }\n        // if (pc.senderIsPresent && (proofs.length-pc.fakeProofs >= threshold)) {\n        //     return true;\n        // }\n        // return false;\n\n        // if (!pc.senderIsPresent)\n        //     revert('Sender did not register attendance');\n\n        // if (!pc.senderIsPresent)\n        //     emit logStuff('Sender did not register attendance');\n        // if (proofs.length-pc.fakeProofs < threshold)\n        //     emit logStuff('Not enough attendees in consensus');\n        // if (proofs.length == pc.fakeProofs)\n        //     emit logStuff('All proofs were fake');\n        // emit numberLoggerLikeImUsingFuckingJava ('fakeProofs',pc.fakeProofs);\n        // emit numberLoggerLikeImUsingFuckingJava ('proofs.length',proofs.length);\n        // return true;\n    }\n\n    function deserialiseStakers(string calldata _poll) external pure returns (address[] memory) {\n        // return something which will make it obvious that you have accidentally delegated this context!\n        address[] memory ret = new address[](4);\n        (ret[0], ret[1], ret[2], ret[3]) = (address(5), address(0), address(5), address(0));\n        return ret;\n    }\n\n    function serialiseStakers(string calldata _poll, uint8 validationType) external pure returns (address[] memory) {\n        // return something which will make it obvious that you have accidentally delegated this context!\n        address[] memory ret = new address[](4);\n        (ret[0], ret[1], ret[2], ret[3]) = (address(5), address(0), address(5), address(0));\n        return ret;\n    }\n\n    function serialiseProofs(string calldata _poll, uint8 validationType) external pure returns (address[] memory) {\n        // return something which will make it obvious that you have accidentally delegated this context!\n        address[] memory ret = new address[](4);\n        (ret[0], ret[1], ret[2], ret[3]) = (address(0), address(5), address(0), address(5));\n        return ret;\n    }\n\n\n    function proofType() public pure returns (uint8) {\n      return vType;\n    }\n\n    function encodeFunctionName (string memory name) internal pure returns (bytes4) {\n        // TODO: cache for readability!\n        // if (\"serialiseStakers\")\n        //     return\n        // if (\"serialiseStakers\")\n        //     return\n        return bytes4(keccak256(bytes(name)));\n    }\n\n    // split a serialised string of addresses (as received from main contract).\n    // NB - only works in this validator - other validators will use multiple types within serialised string\n    function splitToAddresses(string memory _concatenated) internal pure returns (address[] memory result) {\n        strings.slice memory delim = \",\".toSlice();\n        strings.slice memory source = _concatenated.toSlice();\n        address[] memory parts = new address[](source.count(delim));\n\n        for(uint i = 0; i < parts.length; i++) {\n           parts[i] = source.split(delim).toString().toAddress();\n        }\n        return parts;\n\n    }\n\n    function bytesToAddress(bytes memory _bytes) public pure returns (address) {\n      address tempAddress;\n      assembly {\n          tempAddress := div(mload(add(add(_bytes, 0x20), 0)), 0x1000000000000000000000000)\n      }\n      return tempAddress;\n    }\n\n    function toString(address account) public pure returns(string memory) {\n        return toString(abi.encodePacked(account), 5);\n    }\n\n    function toString(uint256 value) public pure returns(string memory) {\n        return toString(abi.encodePacked(value), 0);\n    }\n\n    function toString(bytes32 value) public pure returns(string memory) {\n        return toString(abi.encodePacked(value), 0);\n    }\n\n    function toString(bytes memory data, uint16 len) public pure returns(string memory) {\n        bytes memory alphabet = \"0123456789abcdef\";\n        uint16 strLen = 20;  // It's 20. The length is just fucking 20.  uint16(data.length);\n        // Pretty simple if statement - why won't it work ?\n        // if (len>0) {\n        //     strLen = len;\n        // }\n\n\n        bytes memory str = new bytes(2 + strLen * 2);\n        str[0] = '0';\n        str[1] = 'x';\n        for (uint i = 0; i < strLen; i++) {\n            str[2+i*2] = alphabet[uint(uint8(data[i] >> 4))];\n            str[3+i*2] = alphabet[uint(uint8(data[i] & 0x0f))];\n        }\n        return string(str);\n    }\n\n\n    function bytes32ToBytes(bytes32 _bytes32) public pure returns (bytes memory){\n        // string memory str = string(_bytes32);\n        // TypeError: Explicit type conversion not allowed from \"bytes32\" to \"string storage pointer\"\n        bytes memory bytesArray = new bytes(32);\n        for (uint256 i; i < 32; i++) {\n            bytesArray[i] = _bytes32[i];\n        }\n        return bytesArray;\n    }\n\n    // function bytesToBytes32(bytes b, uint offset) private pure returns (bytes32) {\n    //     bytes32 out;\n\n    //     for (uint i = 0; i < 32; i++) {\n    //         out |= bytes32(b[offset + i] & 0xFF) >> (i * 8);\n    //     }\n    //     return out;\n    // }\n\n\n    function bytesToBytes32(bytes memory b) public pure returns (bytes32 bts) {\n        bytes32 i;\n        //NB size etc= 32b = 0x20b\n        assembly { i := mload(add(b, 0x20)) }\n        bts = i;\n    }\n\n    function bytes32ToString(bytes32 _bytes32) public pure returns (string memory ){\n        bytes memory bytesArray = bytes32ToBytes(_bytes32);\n        return string(bytesArray);\n    }\n\n    function bytes32ArrayToString (bytes32[] memory data) public pure returns (string memory ) {\n        bytes memory bytesString = new bytes(data.length * 32);\n        uint urlLength;\n        uint i=0;\n        for (i=0; i<data.length; i++) {\n            for (uint j=0; j<32; j++) {\n                byte char = byte(bytes32(uint(data[i]) * 2 ** (8 * j)));\n                if (char != 0) {\n                    bytesString[urlLength] = char;\n                    urlLength += 1;\n                }\n            }\n        }\n        bytes memory bytesStringTrimmed = new bytes(urlLength);\n        for (i=0; i<urlLength; i++) {\n            bytesStringTrimmed[i] = bytesString[i];\n        }\n        return string(bytesStringTrimmed);\n    }\n\n    function stringToBytes32Array(string memory source) public pure returns (bytes32[] memory result) {\n        // uint16 words = uint16( (bytes(source).length+31)/32 );\n        uint16 words = 1;\n        for(uint16 i=0; i<=words; i++) {\n          uint16 offset = 32*(i+1);\n          bytes32 word;\n          assembly {\n            word := mload(add(source, offset))\n          }\n          result[i] = word;\n        }\n        return result;\n    }\n\n    // TODO !!!\n    // function bytes32ToUint (bytes32 data) returns (uint) {\n    //     return 2;\n    // }\n\n    function bytesSplit32(bytes  memory data) public pure returns (bytes32, bytes memory ) {\n        uint8 splitAt = 32;                             // all (if variable split, pass in splitAt)\n        uint256 taillength = 0;\n        if (data.length > splitAt)\n            taillength = data.length-splitAt;\n        bytes32 temp;\n        // bytes32 head;                                   // 32b split\n        bytes memory head = new bytes(splitAt);         // variable length split\n        bytes memory tail = new bytes(taillength);\n        for(uint i=0;i<=data.length-1;i++){\n            if (i<splitAt)\n                head[i] = bytes(data)[i] ;\n            else\n                tail[i-splitAt] = bytes(data)[i] ;\n        }\n        return (bytesToBytes32(head), tail);\n    }\n\n    // calls fallback function of pollAddress, passing 4 byte encoded function name to remote contract to select method.\n    // NB future better: just get the ABI of the finished Poll conmtract, and use that!\n    // NB in sol 0.6 + fallback cannot return anything\n    // NB future optimisation : we are not using the functionality of string here, since string must have come from a bytes32\n    event CrossContractValidateBegin();\n    event CrossContractValidateEnd();\n    function crossContractCall (bytes4 fnNameHash, string  memory poll, uint256 valid, uint8 vt) public returns (bytes32[] memory) {\n    address pollContract = pollAddress;\n\n        emit CrossContractValidateBegin();\n        assembly {\n            let ptr := mload(0x40)\n            calldatacopy(ptr, 0, calldatasize)\n            let result := delegatecall(gas, pollContract, ptr, calldatasize, 0, 0)\n            let size := returndatasize\n            returndatacopy(ptr, 0, size)\n            switch result\n            case 0 { revert(ptr, size) }\n            default { return(ptr, size) }\n        }\n        emit CrossContractValidateEnd();\n    }\n\n}\n",
  "sourcePath": "/home/teide/randomCode/lunchcoin/contracts.v1/contracts/MutualAgreement.sol",
  "compiler": {
    "name": "solc",
    "version": "0.5.16+commit.9c3226ce.Emscripten.clang"
  },
  "schemaVersion": "3.2.0",
  "updatedAt": "2020-06-15T13:17:01.939Z",
  "networkType": "ethereum",
  "devdoc": {
    "methods": {}
  },
  "userdoc": {
    "methods": {}
  }
}