{
  "contractName": "MutualAgreement",
  "abi": [
    {
      "inputs": [],
      "payable": false,
      "stateMutability": "nonpayable",
      "type": "constructor"
    },
    {
      "anonymous": false,
      "inputs": [],
      "name": "CrossContractValidateBegin",
      "type": "event"
    },
    {
      "anonymous": false,
      "inputs": [],
      "name": "CrossContractValidateEnd",
      "type": "event"
    },
    {
      "anonymous": false,
      "inputs": [
        {
          "indexed": false,
          "internalType": "address",
          "name": "",
          "type": "address"
        },
        {
          "indexed": false,
          "internalType": "string",
          "name": "",
          "type": "string"
        }
      ],
      "name": "disreputableStakerIgnored",
      "type": "event"
    },
    {
      "anonymous": false,
      "inputs": [
        {
          "indexed": false,
          "internalType": "string",
          "name": "_poll",
          "type": "string"
        },
        {
          "indexed": false,
          "internalType": "address",
          "name": "_staker",
          "type": "address"
        }
      ],
      "name": "emptyStakeRemoved",
      "type": "event"
    },
    {
      "anonymous": false,
      "inputs": [
        {
          "indexed": false,
          "internalType": "string",
          "name": "",
          "type": "string"
        },
        {
          "indexed": false,
          "internalType": "string",
          "name": "",
          "type": "string"
        },
        {
          "indexed": false,
          "internalType": "address",
          "name": "",
          "type": "address"
        },
        {
          "indexed": false,
          "internalType": "uint8",
          "name": "",
          "type": "uint8"
        },
        {
          "indexed": false,
          "internalType": "bytes32[]",
          "name": "",
          "type": "bytes32[]"
        }
      ],
      "name": "gpResult",
      "type": "event"
    },
    {
      "anonymous": false,
      "inputs": [
        {
          "indexed": false,
          "internalType": "string",
          "name": "",
          "type": "string"
        }
      ],
      "name": "logStuff",
      "type": "event"
    },
    {
      "anonymous": false,
      "inputs": [
        {
          "indexed": false,
          "internalType": "string",
          "name": "",
          "type": "string"
        },
        {
          "indexed": false,
          "internalType": "uint256",
          "name": "",
          "type": "uint256"
        }
      ],
      "name": "numberLoggerLikeImUsingFuckingJava",
      "type": "event"
    },
    {
      "anonymous": false,
      "inputs": [
        {
          "indexed": false,
          "internalType": "address",
          "name": "",
          "type": "address"
        }
      ],
      "name": "proofUpdated",
      "type": "event"
    },
    {
      "anonymous": false,
      "inputs": [
        {
          "indexed": false,
          "internalType": "string",
          "name": "poll",
          "type": "string"
        },
        {
          "indexed": false,
          "internalType": "address",
          "name": "by",
          "type": "address"
        }
      ],
      "name": "proofsWindowClosed",
      "type": "event"
    },
    {
      "anonymous": false,
      "inputs": [
        {
          "indexed": false,
          "internalType": "address",
          "name": "_staker",
          "type": "address"
        }
      ],
      "name": "refundFail",
      "type": "event"
    },
    {
      "anonymous": false,
      "inputs": [
        {
          "indexed": false,
          "internalType": "address",
          "name": "staker",
          "type": "address"
        },
        {
          "indexed": false,
          "internalType": "uint256",
          "name": "staked",
          "type": "uint256"
        },
        {
          "indexed": false,
          "internalType": "uint256",
          "name": "refunded",
          "type": "uint256"
        }
      ],
      "name": "repRefund",
      "type": "event"
    },
    {
      "anonymous": false,
      "inputs": [
        {
          "indexed": false,
          "internalType": "address",
          "name": "",
          "type": "address"
        },
        {
          "indexed": false,
          "internalType": "string",
          "name": "",
          "type": "string"
        }
      ],
      "name": "stakeNotAccepted",
      "type": "event"
    },
    {
      "anonymous": false,
      "inputs": [
        {
          "indexed": false,
          "internalType": "address",
          "name": "",
          "type": "address"
        },
        {
          "indexed": false,
          "internalType": "string",
          "name": "",
          "type": "string"
        },
        {
          "indexed": false,
          "internalType": "uint256",
          "name": "",
          "type": "uint256"
        }
      ],
      "name": "staked",
      "type": "event"
    },
    {
      "anonymous": false,
      "inputs": [
        {
          "indexed": false,
          "internalType": "string",
          "name": "_poll",
          "type": "string"
        },
        {
          "indexed": false,
          "internalType": "address",
          "name": "to",
          "type": "address"
        },
        {
          "indexed": false,
          "internalType": "address",
          "name": "by",
          "type": "address"
        },
        {
          "indexed": false,
          "internalType": "int256",
          "name": "amount",
          "type": "int256"
        }
      ],
      "name": "venuePotDisbursed",
      "type": "event"
    },
    {
      "anonymous": false,
      "inputs": [
        {
          "indexed": false,
          "internalType": "bytes",
          "name": "",
          "type": "bytes"
        }
      ],
      "name": "whassahash",
      "type": "event"
    },
    {
      "anonymous": false,
      "inputs": [
        {
          "indexed": false,
          "internalType": "bytes32",
          "name": "",
          "type": "bytes32"
        }
      ],
      "name": "whassakeccack",
      "type": "event"
    },
    {
      "payable": true,
      "stateMutability": "payable",
      "type": "fallback"
    },
    {
      "constant": true,
      "inputs": [
        {
          "internalType": "string",
          "name": "",
          "type": "string"
        }
      ],
      "name": "pollData",
      "outputs": [
        {
          "internalType": "address",
          "name": "initiator",
          "type": "address"
        },
        {
          "internalType": "uint256",
          "name": "minStake",
          "type": "uint256"
        },
        {
          "internalType": "uint256",
          "name": "venueCost",
          "type": "uint256"
        },
        {
          "internalType": "uint256",
          "name": "venuePot",
          "type": "uint256"
        },
        {
          "internalType": "address",
          "name": "venuePayer",
          "type": "address"
        },
        {
          "internalType": "uint8",
          "name": "minParticipants",
          "type": "uint8"
        },
        {
          "components": [
            {
              "internalType": "uint256",
              "name": "start",
              "type": "uint256"
            },
            {
              "internalType": "uint256",
              "name": "end",
              "type": "uint256"
            }
          ],
          "internalType": "struct MutualAgreement.TimeRange",
          "name": "eventTime",
          "type": "tuple"
        },
        {
          "internalType": "bool",
          "name": "proofsWindowClosed",
          "type": "bool"
        }
      ],
      "payable": false,
      "stateMutability": "view",
      "type": "function"
    },
    {
      "constant": false,
      "inputs": [
        {
          "internalType": "string",
          "name": "_poll",
          "type": "string"
        }
      ],
      "name": "initialiseDemo",
      "outputs": [],
      "payable": false,
      "stateMutability": "nonpayable",
      "type": "function"
    },
    {
      "constant": true,
      "inputs": [],
      "name": "multiplier",
      "outputs": [
        {
          "internalType": "uint256",
          "name": "numerator",
          "type": "uint256"
        },
        {
          "internalType": "uint256",
          "name": "denominator",
          "type": "uint256"
        }
      ],
      "payable": false,
      "stateMutability": "view",
      "type": "function"
    },
    {
      "constant": true,
      "inputs": [],
      "name": "maxRep",
      "outputs": [
        {
          "internalType": "uint256",
          "name": "maxRep",
          "type": "uint256"
        }
      ],
      "payable": false,
      "stateMutability": "view",
      "type": "function"
    },
    {
      "constant": false,
      "inputs": [
        {
          "internalType": "string",
          "name": "message",
          "type": "string"
        }
      ],
      "name": "doEmit",
      "outputs": [],
      "payable": false,
      "stateMutability": "nonpayable",
      "type": "function"
    },
    {
      "constant": true,
      "inputs": [
        {
          "internalType": "string",
          "name": "_poll",
          "type": "string"
        }
      ],
      "name": "getPoll",
      "outputs": [
        {
          "internalType": "address",
          "name": "initiator",
          "type": "address"
        },
        {
          "internalType": "uint256",
          "name": "venueCost",
          "type": "uint256"
        },
        {
          "internalType": "uint256",
          "name": "venuePot",
          "type": "uint256"
        },
        {
          "internalType": "uint8",
          "name": "minParticipants",
          "type": "uint8"
        },
        {
          "internalType": "uint256",
          "name": "start",
          "type": "uint256"
        },
        {
          "internalType": "uint256",
          "name": "end",
          "type": "uint256"
        },
        {
          "internalType": "bool",
          "name": "proofsWindowClosed",
          "type": "bool"
        },
        {
          "internalType": "bytes32[5][]",
          "name": "ownCheckInIndex",
          "type": "bytes32[5][]"
        }
      ],
      "payable": false,
      "stateMutability": "view",
      "type": "function"
    },
    {
      "constant": true,
      "inputs": [
        {
          "internalType": "string",
          "name": "_poll",
          "type": "string"
        }
      ],
      "name": "getPollStruct",
      "outputs": [
        {
          "components": [
            {
              "internalType": "address",
              "name": "initiator",
              "type": "address"
            },
            {
              "internalType": "uint256",
              "name": "minStake",
              "type": "uint256"
            },
            {
              "internalType": "uint256",
              "name": "venueCost",
              "type": "uint256"
            },
            {
              "internalType": "uint256",
              "name": "venuePot",
              "type": "uint256"
            },
            {
              "internalType": "address",
              "name": "venuePayer",
              "type": "address"
            },
            {
              "internalType": "uint8",
              "name": "minParticipants",
              "type": "uint8"
            },
            {
              "internalType": "uint8",
              "name": "participants",
              "type": "uint8"
            },
            {
              "components": [
                {
                  "internalType": "uint256",
                  "name": "start",
                  "type": "uint256"
                },
                {
                  "internalType": "uint256",
                  "name": "end",
                  "type": "uint256"
                }
              ],
              "internalType": "struct MutualAgreement.TimeRange",
              "name": "eventTime",
              "type": "tuple"
            },
            {
              "internalType": "bool",
              "name": "proofsWindowClosed",
              "type": "bool"
            }
          ],
          "internalType": "struct MutualAgreement.PollExternal",
          "name": "returnPoll",
          "type": "tuple"
        }
      ],
      "payable": false,
      "stateMutability": "view",
      "type": "function"
    },
    {
      "constant": false,
      "inputs": [
        {
          "internalType": "bytes32",
          "name": "_hash",
          "type": "bytes32"
        },
        {
          "internalType": "bytes32[]",
          "name": "_data",
          "type": "bytes32[]"
        }
      ],
      "name": "setByHash",
      "outputs": [],
      "payable": false,
      "stateMutability": "nonpayable",
      "type": "function"
    },
    {
      "constant": true,
      "inputs": [
        {
          "internalType": "bytes32",
          "name": "_hash",
          "type": "bytes32"
        }
      ],
      "name": "getByHash",
      "outputs": [
        {
          "internalType": "bytes32[]",
          "name": "",
          "type": "bytes32[]"
        }
      ],
      "payable": false,
      "stateMutability": "view",
      "type": "function"
    },
    {
      "constant": true,
      "inputs": [
        {
          "internalType": "string",
          "name": "_poll",
          "type": "string"
        },
        {
          "internalType": "string",
          "name": "_mapName",
          "type": "string"
        }
      ],
      "name": "get",
      "outputs": [
        {
          "internalType": "bytes32[]",
          "name": "",
          "type": "bytes32[]"
        }
      ],
      "payable": false,
      "stateMutability": "view",
      "type": "function"
    },
    {
      "constant": false,
      "inputs": [
        {
          "internalType": "string",
          "name": "_poll",
          "type": "string"
        },
        {
          "internalType": "address",
          "name": "_staker",
          "type": "address"
        }
      ],
      "name": "getStakersProof",
      "outputs": [
        {
          "internalType": "bytes32[]",
          "name": "",
          "type": "bytes32[]"
        }
      ],
      "payable": false,
      "stateMutability": "nonpayable",
      "type": "function"
    },
    {
      "constant": false,
      "inputs": [
        {
          "internalType": "string",
          "name": "_poll",
          "type": "string"
        },
        {
          "internalType": "string",
          "name": "_mapName",
          "type": "string"
        },
        {
          "internalType": "address",
          "name": "_stakerOrZero",
          "type": "address"
        },
        {
          "internalType": "uint8",
          "name": "_vt",
          "type": "uint8"
        },
        {
          "internalType": "bytes32[]",
          "name": "data",
          "type": "bytes32[]"
        }
      ],
      "name": "getProofEmitHashesOnlyWithStaker",
      "outputs": [],
      "payable": false,
      "stateMutability": "nonpayable",
      "type": "function"
    },
    {
      "constant": false,
      "inputs": [
        {
          "internalType": "string",
          "name": "_poll",
          "type": "string"
        },
        {
          "internalType": "address",
          "name": "_staker",
          "type": "address"
        },
        {
          "internalType": "uint8",
          "name": "_vt",
          "type": "uint8"
        }
      ],
      "name": "addStaker",
      "outputs": [],
      "payable": false,
      "stateMutability": "nonpayable",
      "type": "function"
    },
    {
      "constant": true,
      "inputs": [
        {
          "internalType": "string",
          "name": "_poll",
          "type": "string"
        }
      ],
      "name": "getStakerAddresses",
      "outputs": [
        {
          "internalType": "address[]",
          "name": "",
          "type": "address[]"
        }
      ],
      "payable": false,
      "stateMutability": "view",
      "type": "function"
    },
    {
      "constant": false,
      "inputs": [
        {
          "internalType": "string",
          "name": "_poll",
          "type": "string"
        }
      ],
      "name": "getproofsAsAddresses",
      "outputs": [
        {
          "internalType": "address[][]",
          "name": "",
          "type": "address[][]"
        }
      ],
      "payable": false,
      "stateMutability": "nonpayable",
      "type": "function"
    },
    {
      "constant": false,
      "inputs": [
        {
          "internalType": "string",
          "name": "_poll",
          "type": "string"
        },
        {
          "internalType": "string",
          "name": "_mapName",
          "type": "string"
        },
        {
          "internalType": "address",
          "name": "_stakerOrZero",
          "type": "address"
        },
        {
          "internalType": "uint8",
          "name": "_vt",
          "type": "uint8"
        },
        {
          "internalType": "bytes32[]",
          "name": "_data",
          "type": "bytes32[]"
        }
      ],
      "name": "set",
      "outputs": [],
      "payable": false,
      "stateMutability": "nonpayable",
      "type": "function"
    },
    {
      "constant": false,
      "inputs": [
        {
          "internalType": "string",
          "name": "_poll",
          "type": "string"
        },
        {
          "internalType": "string",
          "name": "_mapName",
          "type": "string"
        },
        {
          "internalType": "address",
          "name": "_impersonatedStaker",
          "type": "address"
        },
        {
          "internalType": "uint8",
          "name": "_vt",
          "type": "uint8"
        },
        {
          "internalType": "bytes32[]",
          "name": "data",
          "type": "bytes32[]"
        }
      ],
      "name": "setCheckedInWithStaker",
      "outputs": [],
      "payable": false,
      "stateMutability": "nonpayable",
      "type": "function"
    },
    {
      "constant": false,
      "inputs": [
        {
          "internalType": "string",
          "name": "_poll",
          "type": "string"
        },
        {
          "internalType": "address",
          "name": "_impersonatedStaker",
          "type": "address"
        },
        {
          "internalType": "address[]",
          "name": "_newProof",
          "type": "address[]"
        }
      ],
      "name": "checkIn",
      "outputs": [],
      "payable": false,
      "stateMutability": "nonpayable",
      "type": "function"
    },
    {
      "constant": false,
      "inputs": [
        {
          "internalType": "string",
          "name": "_poll",
          "type": "string"
        },
        {
          "internalType": "address",
          "name": "_impersonatedStaker",
          "type": "address"
        },
        {
          "internalType": "address[]",
          "name": "_newProof",
          "type": "address[]"
        }
      ],
      "name": "addProof",
      "outputs": [],
      "payable": false,
      "stateMutability": "nonpayable",
      "type": "function"
    },
    {
      "constant": false,
      "inputs": [
        {
          "internalType": "string",
          "name": "_poll",
          "type": "string"
        },
        {
          "internalType": "address[]",
          "name": "_newProof",
          "type": "address[]"
        }
      ],
      "name": "addProofSelf",
      "outputs": [],
      "payable": false,
      "stateMutability": "nonpayable",
      "type": "function"
    },
    {
      "constant": false,
      "inputs": [
        {
          "internalType": "string",
          "name": "_poll",
          "type": "string"
        }
      ],
      "name": "closeProofsWindow",
      "outputs": [],
      "payable": false,
      "stateMutability": "nonpayable",
      "type": "function"
    },
    {
      "constant": false,
      "inputs": [
        {
          "internalType": "string",
          "name": "_poll",
          "type": "string"
        }
      ],
      "name": "reopenProofsWindow",
      "outputs": [],
      "payable": false,
      "stateMutability": "nonpayable",
      "type": "function"
    },
    {
      "constant": true,
      "inputs": [
        {
          "internalType": "string",
          "name": "_poll",
          "type": "string"
        }
      ],
      "name": "isProofsWindowClosed",
      "outputs": [
        {
          "internalType": "bool",
          "name": "",
          "type": "bool"
        }
      ],
      "payable": false,
      "stateMutability": "view",
      "type": "function"
    },
    {
      "constant": false,
      "inputs": [
        {
          "internalType": "string",
          "name": "_poll",
          "type": "string"
        },
        {
          "internalType": "address",
          "name": "_staker",
          "type": "address"
        },
        {
          "internalType": "uint256",
          "name": "_rep",
          "type": "uint256"
        }
      ],
      "name": "setRep",
      "outputs": [],
      "payable": false,
      "stateMutability": "nonpayable",
      "type": "function"
    },
    {
      "constant": true,
      "inputs": [
        {
          "internalType": "address",
          "name": "_staker",
          "type": "address"
        }
      ],
      "name": "getRep",
      "outputs": [
        {
          "internalType": "uint256",
          "name": "",
          "type": "uint256"
        }
      ],
      "payable": false,
      "stateMutability": "view",
      "type": "function"
    },
    {
      "constant": false,
      "inputs": [
        {
          "internalType": "string",
          "name": "_poll",
          "type": "string"
        },
        {
          "internalType": "address",
          "name": "_impersonatedStaker",
          "type": "address"
        },
        {
          "internalType": "uint256",
          "name": "_rep",
          "type": "uint256"
        },
        {
          "internalType": "uint256",
          "name": "_venueContribution",
          "type": "uint256"
        },
        {
          "internalType": "address",
          "name": "_venueContributionFor",
          "type": "address"
        }
      ],
      "name": "addStake",
      "outputs": [],
      "payable": false,
      "stateMutability": "nonpayable",
      "type": "function"
    },
    {
      "constant": true,
      "inputs": [
        {
          "internalType": "string",
          "name": "_poll",
          "type": "string"
        },
        {
          "internalType": "address",
          "name": "_staker",
          "type": "address"
        }
      ],
      "name": "totalRepStaked",
      "outputs": [
        {
          "internalType": "uint256",
          "name": "",
          "type": "uint256"
        }
      ],
      "payable": false,
      "stateMutability": "view",
      "type": "function"
    },
    {
      "constant": true,
      "inputs": [
        {
          "internalType": "string",
          "name": "_poll",
          "type": "string"
        },
        {
          "internalType": "address",
          "name": "_staker",
          "type": "address"
        }
      ],
      "name": "totalVenueContribs",
      "outputs": [
        {
          "internalType": "uint256",
          "name": "total",
          "type": "uint256"
        }
      ],
      "payable": false,
      "stateMutability": "view",
      "type": "function"
    },
    {
      "constant": false,
      "inputs": [
        {
          "internalType": "string",
          "name": "_poll",
          "type": "string"
        },
        {
          "internalType": "address",
          "name": "_staker",
          "type": "address"
        }
      ],
      "name": "removeEmptyStake",
      "outputs": [],
      "payable": false,
      "stateMutability": "nonpayable",
      "type": "function"
    },
    {
      "constant": false,
      "inputs": [
        {
          "internalType": "string",
          "name": "_poll",
          "type": "string"
        }
      ],
      "name": "refundVenueStakes",
      "outputs": [],
      "payable": false,
      "stateMutability": "nonpayable",
      "type": "function"
    },
    {
      "constant": false,
      "inputs": [
        {
          "internalType": "string",
          "name": "_poll",
          "type": "string"
        },
        {
          "internalType": "string",
          "name": "_mapName",
          "type": "string"
        },
        {
          "internalType": "uint8",
          "name": "_vt",
          "type": "uint8"
        },
        {
          "internalType": "string",
          "name": "data",
          "type": "string"
        }
      ],
      "name": "setString",
      "outputs": [],
      "payable": false,
      "stateMutability": "nonpayable",
      "type": "function"
    },
    {
      "constant": false,
      "inputs": [
        {
          "internalType": "string",
          "name": "_poll",
          "type": "string"
        },
        {
          "internalType": "bytes32",
          "name": "_reveal",
          "type": "bytes32"
        }
      ],
      "name": "refundStake",
      "outputs": [],
      "payable": false,
      "stateMutability": "nonpayable",
      "type": "function"
    },
    {
      "constant": false,
      "inputs": [
        {
          "internalType": "string",
          "name": "_poll",
          "type": "string"
        },
        {
          "internalType": "address",
          "name": "_to",
          "type": "address"
        },
        {
          "internalType": "address",
          "name": "_by",
          "type": "address"
        },
        {
          "internalType": "int256",
          "name": "_amount",
          "type": "int256"
        },
        {
          "internalType": "uint8",
          "name": "_repeat",
          "type": "uint8"
        }
      ],
      "name": "emitVenueStakeRefunded",
      "outputs": [],
      "payable": false,
      "stateMutability": "nonpayable",
      "type": "function"
    },
    {
      "constant": false,
      "inputs": [
        {
          "internalType": "string",
          "name": "_poll",
          "type": "string"
        },
        {
          "internalType": "address",
          "name": "_to",
          "type": "address"
        },
        {
          "internalType": "address",
          "name": "_by",
          "type": "address"
        },
        {
          "internalType": "int256",
          "name": "_amount",
          "type": "int256"
        }
      ],
      "name": "emitVenuePotRefunded",
      "outputs": [],
      "payable": false,
      "stateMutability": "nonpayable",
      "type": "function"
    },
    {
      "constant": false,
      "inputs": [
        {
          "internalType": "address",
          "name": "_staker",
          "type": "address"
        },
        {
          "internalType": "uint256",
          "name": "_staked",
          "type": "uint256"
        },
        {
          "internalType": "uint256",
          "name": "_refunded",
          "type": "uint256"
        }
      ],
      "name": "emitrepRefunded",
      "outputs": [],
      "payable": false,
      "stateMutability": "nonpayable",
      "type": "function"
    },
    {
      "constant": false,
      "inputs": [
        {
          "internalType": "address",
          "name": "_staker",
          "type": "address"
        }
      ],
      "name": "emitrefundFail",
      "outputs": [],
      "payable": false,
      "stateMutability": "nonpayable",
      "type": "function"
    },
    {
      "constant": false,
      "inputs": [
        {
          "internalType": "address",
          "name": "_pollContract",
          "type": "address"
        },
        {
          "internalType": "string",
          "name": "_poll",
          "type": "string"
        },
        {
          "internalType": "bytes32",
          "name": "_reveal",
          "type": "bytes32"
        }
      ],
      "name": "validate",
      "outputs": [
        {
          "internalType": "bool",
          "name": "",
          "type": "bool"
        }
      ],
      "payable": false,
      "stateMutability": "nonpayable",
      "type": "function"
    },
    {
      "constant": true,
      "inputs": [],
      "name": "proofType",
      "outputs": [
        {
          "internalType": "uint8",
          "name": "",
          "type": "uint8"
        }
      ],
      "payable": false,
      "stateMutability": "pure",
      "type": "function"
    },
    {
      "constant": true,
      "inputs": [
        {
          "internalType": "bytes",
          "name": "_bytes",
          "type": "bytes"
        }
      ],
      "name": "bytesToAddress",
      "outputs": [
        {
          "internalType": "address",
          "name": "",
          "type": "address"
        }
      ],
      "payable": false,
      "stateMutability": "pure",
      "type": "function"
    },
    {
      "constant": true,
      "inputs": [
        {
          "internalType": "address",
          "name": "account",
          "type": "address"
        }
      ],
      "name": "toString",
      "outputs": [
        {
          "internalType": "string",
          "name": "",
          "type": "string"
        }
      ],
      "payable": false,
      "stateMutability": "pure",
      "type": "function"
    },
    {
      "constant": true,
      "inputs": [
        {
          "internalType": "uint256",
          "name": "value",
          "type": "uint256"
        }
      ],
      "name": "toString",
      "outputs": [
        {
          "internalType": "string",
          "name": "",
          "type": "string"
        }
      ],
      "payable": false,
      "stateMutability": "pure",
      "type": "function"
    },
    {
      "constant": true,
      "inputs": [
        {
          "internalType": "bytes",
          "name": "data",
          "type": "bytes"
        },
        {
          "internalType": "uint16",
          "name": "len",
          "type": "uint16"
        }
      ],
      "name": "toString",
      "outputs": [
        {
          "internalType": "string",
          "name": "",
          "type": "string"
        }
      ],
      "payable": false,
      "stateMutability": "pure",
      "type": "function"
    },
    {
      "constant": true,
      "inputs": [
        {
          "internalType": "bytes32",
          "name": "value",
          "type": "bytes32"
        }
      ],
      "name": "toString",
      "outputs": [
        {
          "internalType": "string",
          "name": "",
          "type": "string"
        }
      ],
      "payable": false,
      "stateMutability": "pure",
      "type": "function"
    },
    {
      "constant": true,
      "inputs": [
        {
          "internalType": "bytes32",
          "name": "_bytes32",
          "type": "bytes32"
        }
      ],
      "name": "bytes32ToBytes",
      "outputs": [
        {
          "internalType": "bytes",
          "name": "",
          "type": "bytes"
        }
      ],
      "payable": false,
      "stateMutability": "pure",
      "type": "function"
    },
    {
      "constant": true,
      "inputs": [
        {
          "internalType": "bytes",
          "name": "b",
          "type": "bytes"
        }
      ],
      "name": "bytesToBytes32",
      "outputs": [
        {
          "internalType": "bytes32",
          "name": "bts",
          "type": "bytes32"
        }
      ],
      "payable": false,
      "stateMutability": "pure",
      "type": "function"
    },
    {
      "constant": true,
      "inputs": [
        {
          "internalType": "bytes32",
          "name": "_bytes32",
          "type": "bytes32"
        }
      ],
      "name": "bytes32ToString",
      "outputs": [
        {
          "internalType": "string",
          "name": "",
          "type": "string"
        }
      ],
      "payable": false,
      "stateMutability": "pure",
      "type": "function"
    },
    {
      "constant": true,
      "inputs": [
        {
          "internalType": "bytes32[]",
          "name": "data",
          "type": "bytes32[]"
        }
      ],
      "name": "bytes32ArrayToString",
      "outputs": [
        {
          "internalType": "string",
          "name": "",
          "type": "string"
        }
      ],
      "payable": false,
      "stateMutability": "pure",
      "type": "function"
    },
    {
      "constant": true,
      "inputs": [
        {
          "internalType": "string",
          "name": "source",
          "type": "string"
        }
      ],
      "name": "stringToBytes32Array",
      "outputs": [
        {
          "internalType": "bytes32[]",
          "name": "result",
          "type": "bytes32[]"
        }
      ],
      "payable": false,
      "stateMutability": "pure",
      "type": "function"
    },
    {
      "constant": true,
      "inputs": [
        {
          "internalType": "bytes",
          "name": "data",
          "type": "bytes"
        }
      ],
      "name": "bytesSplit32",
      "outputs": [
        {
          "internalType": "bytes32",
          "name": "",
          "type": "bytes32"
        },
        {
          "internalType": "bytes",
          "name": "",
          "type": "bytes"
        }
      ],
      "payable": false,
      "stateMutability": "pure",
      "type": "function"
    },
    {
      "constant": false,
      "inputs": [
        {
          "internalType": "bytes4",
          "name": "fnNameHash",
          "type": "bytes4"
        },
        {
          "internalType": "string",
          "name": "poll",
          "type": "string"
        },
        {
          "internalType": "uint256",
          "name": "valid",
          "type": "uint256"
        },
        {
          "internalType": "uint8",
          "name": "vt",
          "type": "uint8"
        }
      ],
      "name": "crossContractCall",
      "outputs": [
        {
          "internalType": "bytes32[]",
          "name": "",
          "type": "bytes32[]"
        }
      ],
      "payable": false,
      "stateMutability": "nonpayable",
      "type": "function"
    }
  ],
  "bytecode": "0x6080604052739d26a8a5db7dc10689692caf8d52c912958409cf600a60006101000a81548173ffffffffffffffffffffffffffffffffffffffff021916908373ffffffffffffffffffffffffffffffffffffffff16021790555034801561006557600080fd5b5061560380620000766000396000f3fe6080604052600436106102c95760003560e01c80636a2ebc3f11610175578063a1bac85f116100dc578063d76db9d611610095578063e4d78bd31161006f578063e4d78bd314610c3b578063e68043df14610c64578063ed3d320514610c8d578063f4602b2e14610cb6576102c9565b8063d76db9d614610bac578063dc0f7df314610bd5578063e40a42ab14610bfe576102c9565b8063a1bac85f14610a66578063a2dd3d4714610aa3578063b11a19e814610ae0578063bf49657a14610b1d578063bf6cd60114610b46578063bfe370d914610b6f576102c9565b80638e3dca0b1161012e5780638e3dca0b146109205780638fee464b1461095d57806391652043146109865780639201de55146109c35780639478485e14610a005780639cbc87a314610a29576102c9565b80636a2ebc3f146107da5780637514d750146108175780637682484d146108405780637c34d10814610869578063898fa03b146108a65780638a9392c0146108e3576102c9565b8063405a6adb1161023457806358666c04116101ed5780636026ad9c116101c75780636026ad9c1461072057806363039be8146107495780636622f2cf146107745780636900a3ae1461079d576102c9565b806358666c04146106915780635a31204c146106ba5780635d8636c0146106f7576102c9565b8063405a6adb1461053057806342526e4e146105595780634665ecb4146105965780634a0f2fd7146105d35780634c0999c71461061757806356ca623e14610654576102c9565b80631b0e36f7116102865780631b0e36f71461040e5780631b3ed7221461043757806323e512101461046357806326a9cdf71461048c5780632742bea8146104ca5780633e10510b146104f3576102c9565b806305af5d35146102d3578063062ffb07146102fe57806309421c25146103275780630dd990c7146103505780630f58bb421461038d57806310a688e3146103ca575b6102d1610cdf565b005b3480156102df57600080fd5b506102e8610d2c565b6040516102f591906150a6565b60405180910390f35b34801561030a57600080fd5b5061032560048036036103209190810190614272565b610d35565b005b34801561033357600080fd5b5061034e60048036036103499190810190614146565b610ea9565b005b34801561035c57600080fd5b5061037760048036036103729190810190613dcb565b610eb8565b6040516103849190614e14565b60405180910390f35b34801561039957600080fd5b506103b460048036036103af9190810190613dcb565b611047565b6040516103c19190614e58565b60405180910390f35b3480156103d657600080fd5b506103f160048036036103ec9190810190613dcb565b61107f565b604051610405989796959493929190614d6d565b60405180910390f35b34801561041a57600080fd5b5061043560048036036104309190810190613edb565b6111af565b005b34801561044357600080fd5b5061044c6112af565b60405161045a92919061507d565b60405180910390f35b34801561046f57600080fd5b5061048a60048036036104859190810190613e0c565b6112c4565b005b34801561049857600080fd5b506104b360048036036104ae9190810190613cf5565b6112c8565b6040516104c1929190614e8e565b60405180910390f35b3480156104d657600080fd5b506104f160048036036104ec9190810190614331565b611453565b005b3480156104ff57600080fd5b5061051a60048036036105159190810190614206565b6114c1565b6040516105279190614e36565b60405180910390f35b34801561053c57600080fd5b5061055760048036036105529190810190613fe9565b611566565b005b34801561056557600080fd5b50610580600480360361057b9190810190613cf5565b6115af565b60405161058d9190614bdc565b60405180910390f35b3480156105a257600080fd5b506105bd60048036036105b89190810190613dcb565b6115d4565b6040516105ca9190615046565b60405180910390f35b3480156105df57600080fd5b506105fa60048036036105f59190810190613d8a565b611656565b60405161060e989796959493929190614cee565b60405180910390f35b34801561062357600080fd5b5061063e60048036036106399190810190613bfd565b61172c565b60405161064b9190614ebe565b60405180910390f35b34801561066057600080fd5b5061067b60048036036106769190810190613add565b6117d4565b6040516106889190614ee0565b60405180910390f35b34801561069d57600080fd5b506106b860048036036106b39190810190613dcb565b611807565b005b3480156106c657600080fd5b506106e160048036036106dc9190810190613dcb565b611841565b6040516106ee9190614df2565b60405180910390f35b34801561070357600080fd5b5061071e60048036036107199190810190613f6a565b611957565b005b34801561072c57600080fd5b5061074760048036036107429190810190613c26565b611af1565b005b34801561075557600080fd5b5061075e611b1d565b60405161076b9190615062565b60405180910390f35b34801561078057600080fd5b5061079b60048036036107969190810190613dcb565b611b27565b005b3480156107a957600080fd5b506107c460048036036107bf91908101906143dc565b611c82565b6040516107d19190614ee0565b60405180910390f35b3480156107e657600080fd5b5061080160048036036107fc9190810190613add565b611cb5565b60405161080e9190615062565b60405180910390f35b34801561082357600080fd5b5061083e60048036036108399190810190613dcb565b611cfe565b005b34801561084c57600080fd5b5061086760048036036108629190810190614272565b611d78565b005b34801561087557600080fd5b50610890600480360361088b9190810190613e0c565b611e9c565b60405161089d9190615062565b60405180910390f35b3480156108b257600080fd5b506108cd60048036036108c89190810190613e0c565b611f48565b6040516108da9190614e36565b60405180910390f35b3480156108ef57600080fd5b5061090a60048036036109059190810190613b06565b6120f5565b6040516109179190614e58565b60405180910390f35b34801561092c57600080fd5b5061094760048036036109429190810190613c7a565b612398565b6040516109549190614e36565b60405180910390f35b34801561096957600080fd5b50610984600480360361097f9190810190613dcb565b612414565b005b34801561099257600080fd5b506109ad60048036036109a89190810190613dcb565b61248a565b6040516109ba9190614e36565b60405180910390f35b3480156109cf57600080fd5b506109ea60048036036109e59190810190613bfd565b6124f0565b6040516109f79190614ee0565b60405180910390f35b348015610a0c57600080fd5b50610a276004803603610a229190810190614272565b612507565b005b348015610a3557600080fd5b50610a506004803603610a4b9190810190613bbc565b612653565b604051610a5d9190614ee0565b60405180910390f35b348015610a7257600080fd5b50610a8d6004803603610a889190810190613d36565b612816565b604051610a9a9190614ee0565b60405180910390f35b348015610aaf57600080fd5b50610aca6004803603610ac59190810190613bfd565b612a93565b604051610ad79190614e36565b60405180910390f35b348015610aec57600080fd5b50610b076004803603610b029190810190613bfd565b612afe565b604051610b149190614ee0565b60405180910390f35b348015610b2957600080fd5b50610b446004803603610b3f9190810190613b6d565b612b31565b005b348015610b5257600080fd5b50610b6d6004803603610b689190810190613f6a565b612b71565b005b348015610b7b57600080fd5b50610b966004803603610b919190810190613cf5565b612d51565b604051610ba39190614e73565b60405180910390f35b348015610bb857600080fd5b50610bd36004803603610bce91908101906141b2565b612d64565b005b348015610be157600080fd5b50610bfc6004803603610bf79190810190613add565b61308c565b005b348015610c0a57600080fd5b50610c256004803603610c209190810190613e0c565b6130c6565b604051610c329190615062565b60405180910390f35b348015610c4757600080fd5b50610c626004803603610c5d9190810190613e60565b613132565b005b348015610c7057600080fd5b50610c8b6004803603610c869190810190613dcb565b6131b6565b005b348015610c9957600080fd5b50610cb46004803603610caf91908101906140df565b6131f3565b005b348015610cc257600080fd5b50610cdd6004803603610cd89190810190614050565b6132b4565b005b60606000368080601f016020809104026020016040519081016040528093929190818152602001838380828437600081840152601f19601f82011690508083019250505050505050905050565b60006001905090565b60008073ffffffffffffffffffffffffffffffffffffffff168473ffffffffffffffffffffffffffffffffffffffff161415610da55785610d758661360a565b84604051602001610d8893929190614b88565b604051602081830303815290604052805190602001209050610de0565b85610daf8661360a565b8560601b85604051602001610dc79493929190614b3e565b6040516020818303038152906040528051906020012090505b8151604051908082528060200260200182016040528015610e105781602001602082028038833980820191505090505b50600260008381526020019081526020016000209080519060200190610e37929190613736565b5060008090505b82518161ffff161015610ea057828161ffff1681518110610e5b57fe5b6020026020010151600260008481526020019081526020016000208261ffff1681548110610e8557fe5b90600052602060002001819055508080600101915050610e3e565b50505050505050565b610eb4823383611957565b5050565b606080610ec483611841565b905060608151604051908082528060200260200182016040528015610efd57816020015b6060815260200190600190039081610ee85790505b509050606060008090505b83518161ffff16101561103b57610f3686858361ffff1681518110610f2957fe5b6020026020010151611f48565b91508151604051908082528060200260200182016040528015610f685781602001602082028038833980820191505090505b50838261ffff1681518110610f7957fe5b602002602001018190525060008090505b82518161ffff16101561102d57610fbf610fba848361ffff1681518110610fad57fe5b602002602001015161172c565b6115af565b848361ffff1681518110610fcf57fe5b60200260200101518261ffff1681518110610fe657fe5b602002602001019073ffffffffffffffffffffffffffffffffffffffff16908173ffffffffffffffffffffffffffffffffffffffff16815250508080600101915050610f8a565b508080600101915050610f08565b50819350505050919050565b60006003826040516110599190614add565b908152602001604051809103902060070160009054906101000a900460ff169050919050565b6000806000806000806000606060038960405161109c9190614add565b908152602001604051809103902060000160009054906101000a900473ffffffffffffffffffffffffffffffffffffffff1697506003896040516110e09190614add565b90815260200160405180910390206002015496506003896040516111049190614add565b90815260200160405180910390206003015495506003896040516111289190614add565b908152602001604051809103902060040160149054906101000a900460ff1694506003896040516111599190614add565b908152602001604051809103902060070160009054906101000a900460ff1691506501728eee956093506501728ef01c009250878787878787878797509750975097509750975097509750919395975091939597565b60008090505b60008260ff161180156111cd57508160ff168160ff16105b1561121c577fabe4a2ce0c1bcef7547df71d8f5c8e02cc6e7306cd3f15c20241ca0c37e47c58868686866040516112079493929190614f32565b60405180910390a180806001019150506111b5565b5060058160ff1614156112a8577fabe4a2ce0c1bcef7547df71d8f5c8e02cc6e7306cd3f15c20241ca0c37e47c588560038760405161125b9190614add565b908152602001604051809103902060040160009054906101000a900473ffffffffffffffffffffffffffffffffffffffff16858560405161129f9493929190614f32565b60405180910390a15b5050505050565b60008060056004819150809050915091509091565b5050565b6000606060006020905060008090508160ff16855111156112ed578160ff1685510390505b600060608360ff166040519080825280601f01601f1916602001820160405280156113275781602001600182028038833980820191505090505b5090506060836040519080825280601f01601f19166020018201604052801561135f5781602001600182028038833980820191505090505b50905060008090505b6001895103811161143a578560ff168110156113d55788818151811061138a57fe5b602001015160f81c60f81b8382815181106113a157fe5b60200101907effffffffffffffffffffffffffffffffffffffffffffffffffffffffffffff1916908160001a90535061142d565b8881815181106113e157fe5b602001015160f81c60f81b828760ff168303815181106113fd57fe5b60200101907effffffffffffffffffffffffffffffffffffffffffffffffffffffffffffff1916908160001a9053505b8080600101915050611368565b5061144482612d51565b81965096505050505050915091565b60008461145f8561360a565b8460405160200161147293929190614b88565b6040516020818303038152906040528051906020012090506114938261248a565b6002600083815260200190815260200160002090805190602001906114b9929190613736565b505050505050565b60606000836114cf8461360a565b60016040516020016114e393929190614b88565b6040516020818303038152906040528051906020012090506002600082815260200190815260200160002080548060200260200160405190810160405280929190818152602001828054801561155857602002820191906000526020600020905b815481526020019060010190808311611544575b505050505091505092915050565b80600160008473ffffffffffffffffffffffffffffffffffffffff1673ffffffffffffffffffffffffffffffffffffffff16815260200190815260200160002081905550505050565b6000806c01000000000000000000000000600060208501015104905080915050919050565b6115dc613783565b6103e8816020018181525050619c40816040018181525050619c4081606001818152505060038160a0019060ff16908160ff168152505060038160c0019060ff16908160ff16815250506501728eee95608160e0015160000181815250506501728ef01c008160e001516020018181525050809050919050565b6003818051602081018201805184825260208301602085012081835280955050505050506000915090508060000160009054906101000a900473ffffffffffffffffffffffffffffffffffffffff16908060010154908060020154908060030154908060040160009054906101000a900473ffffffffffffffffffffffffffffffffffffffff16908060040160149054906101000a900460ff16908060050160405180604001604052908160008201548152602001600182015481525050908060070160009054906101000a900460ff16905088565b60608060206040519080825280601f01601f1916602001820160405280156117635781602001600182028038833980820191505090505b50905060005b60208110156117ca5783816020811061177e57fe5b1a60f81b82828151811061178e57fe5b60200101907effffffffffffffffffffffffffffffffffffffffffffffffffffffffffffff1916908160001a9053508080600101915050611769565b5080915050919050565b6060611800826040516020016117ea9190614aa7565b6040516020818303038152906040526005612816565b9050919050565b7fbef39ac07ea6b8a7a08590612f317b1db2e9821fea4739345478345d853321e7816040516118369190614ee0565b60405180910390a150565b606080611883836040518060400160405280600681526020017f7374616b657200000000000000000000000000000000000000000000000000008152506114c1565b9050606081516040519080825280602002602001820160405280156118b75781602001602082028038833980820191505090505b50905060008090505b82518161ffff16101561194c576118f56118f0848361ffff16815181106118e357fe5b602002602001015161172c565b6115af565b828261ffff168151811061190557fe5b602002602001019073ffffffffffffffffffffffffffffffffffffffff16908173ffffffffffffffffffffffffffffffffffffffff168152505080806001019150506118c0565b508092505050919050565b60008290506060825160405190808252806020026020018201604052801561198e5781602001602082028038833980820191505090505b5090506000856119d26040518060400160405280600581526020017f70726f6f6600000000000000000000000000000000000000000000000000000081525061360a565b8660601b60016040516020016119eb9493929190614b3e565b60405160208183030381529060405280519060200120905060008090505b84518161ffff161015611a6957848161ffff1681518110611a2657fe5b602002602001015160601b6bffffffffffffffffffffffff1916838261ffff1681518110611a5057fe5b6020026020010181815250508080600101915050611a09565b50600060026000838152602001908152602001600020805490501115611ac1577fd0adafca5f88ebee186251179caad6d29ee5ad555a79bfe4d8a00e3a87988a2b83604051611ab89190614bdc565b60405180910390a15b81600260008381526020019081526020016000209080519060200190611ae8929190613736565b50505050505050565b80600260008481526020019081526020016000209080519060200190611b18929190613736565b505050565b6000610bb8905090565b806060611b3382611841565b9050600080600090505b8251811015611b9f573373ffffffffffffffffffffffffffffffffffffffff16838281518110611b6957fe5b602002602001015173ffffffffffffffffffffffffffffffffffffffff161415611b9257600191505b8080600101915050611b3d565b5080611be0576040517f08c379a0000000000000000000000000000000000000000000000000000000008152600401611bd790614fe6565b60405180910390fd5b6060611beb85611841565b90506000611c248251600388604051611c049190614add565b90815260200160405180910390206002015461361b90919063ffffffff16565b90506000600387604051611c389190614add565b908152602001604051809103902060020154600388604051611c5a9190614add565b908152602001604051809103902060030154039050611c7987336112c4565b50505050505050565b6060611cae82604051602001611c989190614bc1565b6040516020818303038152906040526000612816565b9050919050565b6000600160008373ffffffffffffffffffffffffffffffffffffffff1673ffffffffffffffffffffffffffffffffffffffff168152602001908152602001600020549050919050565b6001600382604051611d109190614add565b90815260200160405180910390206001018190555061afc8600382604051611d389190614add565b908152602001604051809103902060020181905550612bf2600382604051611d609190614add565b90815260200160405180910390206003018190555050565b600085611d848661360a565b8585604051602001611d999493929190614af4565b6040516020818303038152906040528051906020012090507fee5443e0769176cacb5e7cebe33b561327ef2a06863e7fa72ec9be7cc2d82b6086611ddc8761360a565b8686604051602001611df19493929190614af4565b604051602081830303815290604052604051611e0d9190614ebe565b60405180910390a17fa457a29197b7db5513e7fa40d359d53b392afa4785e7b4e899898a92798d484981604051611e449190614e73565b60405180910390a17fd2fc72c97aeb0e8367f33ed670eff5bed73dab77cab530bd44311a95ae54739886868686611e7b8b8a611f48565b604051611e8c959493929190614f7e565b60405180910390a1505050505050565b6000600383604051611eae9190614add565b908152602001604051809103902060080160008373ffffffffffffffffffffffffffffffffffffffff1673ffffffffffffffffffffffffffffffffffffffff16815260200190815260200160002060030160008373ffffffffffffffffffffffffffffffffffffffff1673ffffffffffffffffffffffffffffffffffffffff16815260200190815260200160002054905080905092915050565b6060600083611f8b6040518060400160405280600581526020017f70726f6f6600000000000000000000000000000000000000000000000000000081525061360a565b846001604051602001611fa19493929190614af4565b6040516020818303038152906040528051906020012090507fee5443e0769176cacb5e7cebe33b561327ef2a06863e7fa72ec9be7cc2d82b60846120196040518060400160405280600581526020017f70726f6f6600000000000000000000000000000000000000000000000000000081525061360a565b85600160405160200161202f9493929190614af4565b60405160208183030381529060405260405161204b9190614ebe565b60405180910390a17fa457a29197b7db5513e7fa40d359d53b392afa4785e7b4e899898a92798d4849816040516120829190614e73565b60405180910390a1600260008281526020019081526020016000208054806020026020016040519081016040528092919081815260200182805480156120e757602002820191906000526020600020905b8154815260200190600101908083116120d3575b505050505091505092915050565b600060019050612391565b85518461ffff1610156122a057600091503373ffffffffffffffffffffffffffffffffffffffff16868561ffff168151811061213857fe5b602002602001015173ffffffffffffffffffffffffffffffffffffffff161415612160578392505b60008090505b858561ffff168151811061217657fe5b602002602001015151811015612292573373ffffffffffffffffffffffffffffffffffffffff16868661ffff16815181106121ad57fe5b602002602001015182815181106121c057fe5b602002602001015173ffffffffffffffffffffffffffffffffffffffff1614156121e957600192505b60096000878761ffff16815181106121fd57fe5b6020026020010151838151811061221057fe5b602002602001015173ffffffffffffffffffffffffffffffffffffffff1673ffffffffffffffffffffffffffffffffffffffff168152602001908152602001600020600081819054906101000a900461ffff168092919060010191906101000a81548161ffff021916908361ffff160217905550508080600101915050612166565b508380600101945050612100565b8060ff16600960003373ffffffffffffffffffffffffffffffffffffffff1673ffffffffffffffffffffffffffffffffffffffff16815260200190815260200160002060009054906101000a900461ffff1661ffff161015801561237657506002600960003373ffffffffffffffffffffffffffffffffffffffff1673ffffffffffffffffffffffffffffffffffffffff16815260200190815260200160002060009054906101000a900461ffff1661ffff16868661ffff168151811061236357fe5b6020026020010151518161237357fe5b04105b1561238a5760019650505050505050612391565b5050505050505b9392505050565b60606000600a60009054906101000a900473ffffffffffffffffffffffffffffffffffffffff1690507f1ff50e4650f7f1e5b26a5f5e921b803deee4a95a1b6ef46e05992b3bc1dcdb8c60405160405180910390a160405136600082376000803683855af43d806000843e8160008114612410578184f35b8184fd5b60016003826040516124269190614add565b908152602001604051809103902060070160006101000a81548160ff0219169083151502179055507fc2b1ad619f75c5b190b6f26a4b118a5ec58ad98a0a76cef82a67099f76c03336813360405161247f929190614f02565b60405180910390a150565b606060006001905060008090505b8161ffff168161ffff16116124e6576000600182016020029050600081860151905080858461ffff16815181106124cb57fe5b60200260200101818152505050508080600101915050612498565b5081915050919050565b6060806124fc8361172c565b905080915050919050565b6000856125138661360a565b85856040516020016125289493929190614af4565b6040516020818303038152906040528051906020012090507fee5443e0769176cacb5e7cebe33b561327ef2a06863e7fa72ec9be7cc2d82b608661256b8761360a565b86866040516020016125809493929190614af4565b60405160208183030381529060405260405161259c9190614ebe565b60405180910390a17fa457a29197b7db5513e7fa40d359d53b392afa4785e7b4e899898a92798d4849816040516125d39190614e73565b60405180910390a181600260008381526020019081526020016000209080519060200190612602929190613736565b507fd2fc72c97aeb0e8367f33ed670eff5bed73dab77cab530bd44311a95ae547398868686866126328b8a611f48565b604051612643959493929190614f7e565b60405180910390a1505050505050565b60608060208351026040519080825280601f01601f19166020018201604052801561268d5781602001600182028038833980820191505090505b50905060008060009050600090505b84518110156127665760008090505b60208110156127585760008160080260020a8784815181106126c957fe5b602002602001015160001c0260001b9050600060f81b817effffffffffffffffffffffffffffffffffffffffffffffffffffffffffffff19161461274a578085858151811061271457fe5b60200101907effffffffffffffffffffffffffffffffffffffffffffffffffffffffffffff1916908160001a9053506001840193505b5080806001019150506126ab565b50808060010191505061269c565b6060826040519080825280601f01601f19166020018201604052801561279b5781602001600182028038833980820191505090505b509050600091505b8282101561280a578382815181106127b757fe5b602001015160f81c60f81b8183815181106127ce57fe5b60200101907effffffffffffffffffffffffffffffffffffffffffffffffffffffffffffff1916908160001a90535081806001019250506127a3565b80945050505050919050565b6060806040518060400160405280601081526020017f3031323334353637383961626364656600000000000000000000000000000000815250905060006014905060606002820260020161ffff166040519080825280601f01601f1916602001820160405280156128965781602001600182028038833980820191505090505b5090507f3000000000000000000000000000000000000000000000000000000000000000816000815181106128c757fe5b60200101907effffffffffffffffffffffffffffffffffffffffffffffffffffffffffffff1916908160001a9053507f78000000000000000000000000000000000000000000000000000000000000008160018151811061292457fe5b60200101907effffffffffffffffffffffffffffffffffffffffffffffffffffffffffffff1916908160001a90535060008090505b8261ffff16811015612a865783600488838151811061297457fe5b602001015160f81c60f81b7effffffffffffffffffffffffffffffffffffffffffffffffffffffffffffff1916901c60f81c60ff16815181106129b357fe5b602001015160f81c60f81b8260028302600201815181106129d057fe5b60200101907effffffffffffffffffffffffffffffffffffffffffffffffffffffffffffff1916908160001a90535083600f60f81b888381518110612a1157fe5b602001015160f81c60f81b1660f81c60ff1681518110612a2d57fe5b602001015160f81c60f81b826002830260030181518110612a4a57fe5b60200101907effffffffffffffffffffffffffffffffffffffffffffffffffffffffffffff1916908160001a9053508080600101915050612959565b5080935050505092915050565b606060026000838152602001908152602001600020805480602002602001604051908101604052809291908181526020018280548015612af257602002820191906000526020600020905b815481526020019060010190808311612ade575b50505050509050919050565b6060612b2a82604051602001612b149190614ac2565b6040516020818303038152906040526000612816565b9050919050565b7f391dd8dd49c61a65c7ebe8745ea4c81bc4d5a6dd59d8bda3ba1f9a9114bf64eb838383604051612b6493929190614cb7565b60405180910390a1505050565b60008290506000600385604051612b889190614add565b908152602001604051809103902060090160008373ffffffffffffffffffffffffffffffffffffffff1673ffffffffffffffffffffffffffffffffffffffff16815260200190815260200160002060009054906101000a900461ffff1690506000809050600060608551604051908082528060200260200182016040528015612c205781602001602082028038833980820191505090505b509050600091505b85518261ffff161015612c8857858261ffff1681518110612c4557fe5b602002602001015160601b6bffffffffffffffffffffffff1916818361ffff1681518110612c6f57fe5b6020026020010181815250508180600101925050612c28565b612ccb886040518060400160405280600581526020017f70726f6f6600000000000000000000000000000000000000000000000000000081525087600185610d35565b60018401600389604051612cdf9190614add565b908152602001604051809103902060090160008773ffffffffffffffffffffffffffffffffffffffff1673ffffffffffffffffffffffffffffffffffffffff16815260200190815260200160002060006101000a81548161ffff021916908361ffff1602179055505050505050505050565b6000806020830151905080915050919050565b612d70600083836120f5565b612de6577ff79d39278918f1a3dc8522bfdea96d506ed15dd2cc97156b182f5c8895ab7b7133604051612da39190614bf7565b60405180910390a16040517f08c379a0000000000000000000000000000000000000000000000000000000008152600401612ddd90615026565b60405180910390fd5b600080612df16112af565b91509150600081612e6c600387604051612e0b9190614add565b908152602001604051809103902060080160003373ffffffffffffffffffffffffffffffffffffffff1673ffffffffffffffffffffffffffffffffffffffff168152602001908152602001600020600001548561366590919063ffffffff16565b81612e7357fe5b049050612e7e611b1d565b81600160003373ffffffffffffffffffffffffffffffffffffffff1673ffffffffffffffffffffffffffffffffffffffff16815260200190815260200160002054011115612f2b57600385604051612ed69190614add565b908152602001604051809103902060080160003373ffffffffffffffffffffffffffffffffffffffff1673ffffffffffffffffffffffffffffffffffffffff1681526020019081526020016000206000015490505b6000600386604051612f3d9190614add565b908152602001604051809103902060080160003373ffffffffffffffffffffffffffffffffffffffff1673ffffffffffffffffffffffffffffffffffffffff1681526020019081526020016000206000018190555080600160003373ffffffffffffffffffffffffffffffffffffffff1673ffffffffffffffffffffffffffffffffffffffff168152602001908152602001600020600082825401925050819055507f391dd8dd49c61a65c7ebe8745ea4c81bc4d5a6dd59d8bda3ba1f9a9114bf64eb336003876040516130119190614add565b908152602001604051809103902060080160003373ffffffffffffffffffffffffffffffffffffffff1673ffffffffffffffffffffffffffffffffffffffff168152602001908152602001600020600001548360405161307393929190614c12565b60405180910390a161308585336112c4565b5050505050565b7ff79d39278918f1a3dc8522bfdea96d506ed15dd2cc97156b182f5c8895ab7b71816040516130bb9190614bdc565b60405180910390a150565b60006003836040516130d89190614add565b908152602001604051809103902060080160008373ffffffffffffffffffffffffffffffffffffffff1673ffffffffffffffffffffffffffffffffffffffff16815260200190815260200160002060000154905092915050565b7fabe4a2ce0c1bcef7547df71d8f5c8e02cc6e7306cd3f15c20241ca0c37e47c58846003866040516131649190614add565b908152602001604051809103902060040160009054906101000a900473ffffffffffffffffffffffffffffffffffffffff1684846040516131a89493929190614f32565b60405180910390a150505050565b60006003826040516131c89190614add565b908152602001604051809103902060070160006101000a81548160ff02191690831515021790555050565b6000836132346040518060400160405280600681526020017f7374616b6572000000000000000000000000000000000000000000000000000081525061360a565b8360405160200161324793929190614b88565b604051602081830303815290604052805190602001209050600260008281526020019081526020016000208360601b6bffffffffffffffffffffffff1916908060018154018082558091505090600182039060005260206000200160009091929091909150555050505050565b600084905060008311156134135760006003876040516132d49190614add565b908152602001604051809103902060080160008373ffffffffffffffffffffffffffffffffffffffff1673ffffffffffffffffffffffffffffffffffffffff16815260200190815260200160002060030160008473ffffffffffffffffffffffffffffffffffffffff1673ffffffffffffffffffffffffffffffffffffffff168152602001908152602001600020549050836003886040516133769190614add565b908152602001604051809103902060080160008473ffffffffffffffffffffffffffffffffffffffff1673ffffffffffffffffffffffffffffffffffffffff16815260200190815260200160002060030160008573ffffffffffffffffffffffffffffffffffffffff1673ffffffffffffffffffffffffffffffffffffffff16815260200190815260200160002060008282540192505081905550505b60008411156136025760038660405161342c9190614add565b908152602001604051809103902060010154841015613483577fbdaeb13301d6416e47b70f09ade9e4ae93d6bd468d3833197ea44af2e955f0fe8187604051613476929190614c49565b60405180910390a1613601565b83600160008373ffffffffffffffffffffffffffffffffffffffff1673ffffffffffffffffffffffffffffffffffffffff168152602001908152602001600020541015613508577f5b8a56dcf3c46c1155547d5fcd97b1a751382df7f906feb9d53f5cd53271308f81876040516134fb929190614c49565b60405180910390a1613600565b83600160008373ffffffffffffffffffffffffffffffffffffffff1673ffffffffffffffffffffffffffffffffffffffff16815260200190815260200160002060008282540392505081905550836003876040516135669190614add565b908152602001604051809103902060080160008373ffffffffffffffffffffffffffffffffffffffff1673ffffffffffffffffffffffffffffffffffffffff168152602001908152602001600020600001600082825401925050819055507f9435991b430d6fe3d331f4a4e60ab537af0083a1880199a6838e4c92a2cbe4fb8187866040516135f793929190614c79565b60405180910390a15b5b5b505050505050565b600081805190602001209050919050565b600061365d83836040518060400160405280601a81526020017f536166654d6174683a206469766973696f6e206279207a65726f0000000000008152506136d5565b905092915050565b60008083141561367857600090506136cf565b600082840290508284828161368957fe5b04146136ca576040517f08c379a00000000000000000000000000000000000000000000000000000000081526004016136c190615006565b60405180910390fd5b809150505b92915050565b6000808311829061371c576040517f08c379a00000000000000000000000000000000000000000000000000000000081526004016137139190614ee0565b60405180910390fd5b50600083858161372857fe5b049050809150509392505050565b828054828255906000526020600020908101928215613772579160200282015b82811115613771578251825591602001919060010190613756565b5b50905061377f9190613809565b5090565b604051806101200160405280600073ffffffffffffffffffffffffffffffffffffffff168152602001600081526020016000815260200160008152602001600073ffffffffffffffffffffffffffffffffffffffff168152602001600060ff168152602001600060ff1681526020016137fa61382e565b81526020016000151581525090565b61382b91905b8082111561382757600081600090555060010161380f565b5090565b90565b604051806040016040528060008152602001600081525090565b6000813590506138578161551f565b92915050565b600082601f83011261386e57600080fd5b813561388161387c826150ee565b6150c1565b915081818352602084019350602081019050838560208402820111156138a657600080fd5b60005b838110156138d657816138bc8882613848565b8452602084019350602083019250506001810190506138a9565b5050505092915050565b600082601f8301126138f157600080fd5b81356139046138ff82615116565b6150c1565b9150818183526020840193506020810190508385602084028201111561392957600080fd5b60005b83811015613959578161393f8882613963565b84526020840193506020830192505060018101905061392c565b5050505092915050565b60008135905061397281615536565b92915050565b6000813590506139878161554d565b92915050565b600082601f83011261399e57600080fd5b81356139b16139ac8261513e565b6150c1565b915080825260208301602083018583830111156139cd57600080fd5b6139d8838284615454565b50505092915050565b6000813590506139f081615564565b92915050565b600082601f830112613a0757600080fd5b8135613a1a613a158261516a565b6150c1565b91508082526020830160208301858383011115613a3657600080fd5b613a41838284615454565b50505092915050565b600082601f830112613a5b57600080fd5b8135613a6e613a6982615196565b6150c1565b91508082526020830160208301858383011115613a8a57600080fd5b613a95838284615454565b50505092915050565b600081359050613aad8161557b565b92915050565b600081359050613ac281615592565b92915050565b600081359050613ad7816155a9565b92915050565b600060208284031215613aef57600080fd5b6000613afd84828501613848565b91505092915050565b600080600060608486031215613b1b57600080fd5b6000613b2986828701613848565b935050602084013567ffffffffffffffff811115613b4657600080fd5b613b5286828701613a4a565b9250506040613b6386828701613963565b9150509250925092565b600080600060608486031215613b8257600080fd5b6000613b9086828701613848565b9350506020613ba186828701613ab3565b9250506040613bb286828701613ab3565b9150509250925092565b600060208284031215613bce57600080fd5b600082013567ffffffffffffffff811115613be857600080fd5b613bf4848285016138e0565b91505092915050565b600060208284031215613c0f57600080fd5b6000613c1d84828501613963565b91505092915050565b60008060408385031215613c3957600080fd5b6000613c4785828601613963565b925050602083013567ffffffffffffffff811115613c6457600080fd5b613c70858286016138e0565b9150509250929050565b60008060008060808587031215613c9057600080fd5b6000613c9e87828801613978565b945050602085013567ffffffffffffffff811115613cbb57600080fd5b613cc787828801613a4a565b9350506040613cd887828801613ab3565b9250506060613ce987828801613ac8565b91505092959194509250565b600060208284031215613d0757600080fd5b600082013567ffffffffffffffff811115613d2157600080fd5b613d2d8482850161398d565b91505092915050565b60008060408385031215613d4957600080fd5b600083013567ffffffffffffffff811115613d6357600080fd5b613d6f8582860161398d565b9250506020613d8085828601613a9e565b9150509250929050565b600060208284031215613d9c57600080fd5b600082013567ffffffffffffffff811115613db657600080fd5b613dc2848285016139f6565b91505092915050565b600060208284031215613ddd57600080fd5b600082013567ffffffffffffffff811115613df757600080fd5b613e0384828501613a4a565b91505092915050565b60008060408385031215613e1f57600080fd5b600083013567ffffffffffffffff811115613e3957600080fd5b613e4585828601613a4a565b9250506020613e5685828601613848565b9150509250929050565b60008060008060808587031215613e7657600080fd5b600085013567ffffffffffffffff811115613e9057600080fd5b613e9c87828801613a4a565b9450506020613ead87828801613848565b9350506040613ebe87828801613848565b9250506060613ecf878288016139e1565b91505092959194509250565b600080600080600060a08688031215613ef357600080fd5b600086013567ffffffffffffffff811115613f0d57600080fd5b613f1988828901613a4a565b9550506020613f2a88828901613848565b9450506040613f3b88828901613848565b9350506060613f4c888289016139e1565b9250506080613f5d88828901613ac8565b9150509295509295909350565b600080600060608486031215613f7f57600080fd5b600084013567ffffffffffffffff811115613f9957600080fd5b613fa586828701613a4a565b9350506020613fb686828701613848565b925050604084013567ffffffffffffffff811115613fd357600080fd5b613fdf8682870161385d565b9150509250925092565b600080600060608486031215613ffe57600080fd5b600084013567ffffffffffffffff81111561401857600080fd5b61402486828701613a4a565b935050602061403586828701613848565b925050604061404686828701613ab3565b9150509250925092565b600080600080600060a0868803121561406857600080fd5b600086013567ffffffffffffffff81111561408257600080fd5b61408e88828901613a4a565b955050602061409f88828901613848565b94505060406140b088828901613ab3565b93505060606140c188828901613ab3565b92505060806140d288828901613848565b9150509295509295909350565b6000806000606084860312156140f457600080fd5b600084013567ffffffffffffffff81111561410e57600080fd5b61411a86828701613a4a565b935050602061412b86828701613848565b925050604061413c86828701613ac8565b9150509250925092565b6000806040838503121561415957600080fd5b600083013567ffffffffffffffff81111561417357600080fd5b61417f85828601613a4a565b925050602083013567ffffffffffffffff81111561419c57600080fd5b6141a88582860161385d565b9150509250929050565b600080604083850312156141c557600080fd5b600083013567ffffffffffffffff8111156141df57600080fd5b6141eb85828601613a4a565b92505060206141fc85828601613963565b9150509250929050565b6000806040838503121561421957600080fd5b600083013567ffffffffffffffff81111561423357600080fd5b61423f85828601613a4a565b925050602083013567ffffffffffffffff81111561425c57600080fd5b61426885828601613a4a565b9150509250929050565b600080600080600060a0868803121561428a57600080fd5b600086013567ffffffffffffffff8111156142a457600080fd5b6142b088828901613a4a565b955050602086013567ffffffffffffffff8111156142cd57600080fd5b6142d988828901613a4a565b94505060406142ea88828901613848565b93505060606142fb88828901613ac8565b925050608086013567ffffffffffffffff81111561431857600080fd5b614324888289016138e0565b9150509295509295909350565b6000806000806080858703121561434757600080fd5b600085013567ffffffffffffffff81111561436157600080fd5b61436d87828801613a4a565b945050602085013567ffffffffffffffff81111561438a57600080fd5b61439687828801613a4a565b93505060406143a787828801613ac8565b925050606085013567ffffffffffffffff8111156143c457600080fd5b6143d087828801613a4a565b91505092959194509250565b6000602082840312156143ee57600080fd5b60006143fc84828501613ab3565b91505092915050565b60006144118383614470565b60208301905092915050565b60006144298383614503565b905092915050565b600061443d8383614634565b60a08301905092915050565b6000614455838361471e565b60208301905092915050565b61446a8161541e565b82525050565b6144798161534f565b82525050565b6144888161534f565b82525050565b61449f61449a8261534f565b615496565b82525050565b60006144b082615227565b6144ba81856152d3565b93506144c5836151d2565b8060005b838110156144f65781516144dd8882614405565b97506144e883615281565b9250506001810190506144c9565b5085935050505092915050565b600061450e8261521c565b61451881856152c2565b9350614523836151c2565b8060005b8381101561455457815161453b8882614405565b975061454683615274565b925050600181019050614527565b5085935050505092915050565b600061456c82615232565b61457681856152e4565b935083602082028501614588856151e2565b8060005b858110156145c457848403895281516145a5858261441d565b94506145b08361528e565b925060208a0199505060018101905061458c565b50829750879550505050505092915050565b60006145e18261523d565b6145eb81856152f5565b93506145f6836151f2565b8060005b8381101561462757815161460e8882614431565b97506146198361529b565b9250506001810190506145fa565b5085935050505092915050565b61463d81615248565b6146478184615306565b925061465282615202565b8060005b8381101561468357815161466a8782614449565b9650614675836152a8565b925050600181019050614656565b505050505050565b600061469682615253565b6146a08185615311565b93506146ab8361520c565b8060005b838110156146dc5781516146c38882614449565b97506146ce836152b5565b9250506001810190506146af565b5085935050505092915050565b6146f281615361565b82525050565b61470181615361565b82525050565b6147186147138261536d565b6154a8565b82525050565b61472781615399565b82525050565b61473681615399565b82525050565b61474d61474882615399565b6154b2565b82525050565b61476461475f826153a3565b6154bc565b82525050565b60006147758261525e565b61477f8185615322565b935061478f818560208601615463565b614798816154f4565b840191505092915050565b6147ac816153cf565b82525050565b60006147bd82615269565b6147c78185615333565b93506147d7818560208601615463565b6147e0816154f4565b840191505092915050565b60006147f682615269565b6148008185615344565b9350614810818560208601615463565b80840191505092915050565b6000614829603483615333565b91507f46756e6374696f6e206d6179206f6e6c792062652063616c6c6564206279206160008301527f207374616b6572206f6e207468697320706f6c6c0000000000000000000000006020830152604082019050919050565b600061488f602183615333565b91507f536166654d6174683a206d756c7469706c69636174696f6e206f766572666c6f60008301527f77000000000000000000000000000000000000000000000000000000000000006020830152604082019050919050565b60006148f5600d83615333565b91507f496e76616c69642070726f6f66000000000000000000000000000000000000006000830152602082019050919050565b6101408201600082015161493f6000850182614470565b5060208201516149526020850182614a3d565b5060408201516149656040850182614a3d565b5060608201516149786060850182614a3d565b50608082015161498b6080850182614470565b5060a082015161499e60a0850182614a72565b5060c08201516149b160c0850182614a72565b5060e08201516149c460e08501826149df565b506101008201516149d96101208501826146e9565b50505050565b6040820160008201516149f56000850182614a3d565b506020820151614a086020850182614a3d565b50505050565b604082016000820151614a246000850182614a3d565b506020820151614a376020850182614a3d565b50505050565b614a4681615407565b82525050565b614a5581615407565b82525050565b614a6c614a6782615407565b6154d8565b82525050565b614a7b81615411565b82525050565b614a8a81615411565b82525050565b614aa1614a9c82615411565b6154e2565b82525050565b6000614ab3828461448e565b60148201915081905092915050565b6000614ace828461473c565b60208201915081905092915050565b6000614ae982846147eb565b915081905092915050565b6000614b0082876147eb565b9150614b0c8286614753565b600482019150614b1c828561448e565b601482019150614b2c8284614a90565b60018201915081905095945050505050565b6000614b4a82876147eb565b9150614b568286614753565b600482019150614b668285614707565b601482019150614b768284614a90565b60018201915081905095945050505050565b6000614b9482866147eb565b9150614ba08285614753565b600482019150614bb08284614a90565b600182019150819050949350505050565b6000614bcd8284614a5b565b60208201915081905092915050565b6000602082019050614bf1600083018461447f565b92915050565b6000602082019050614c0c6000830184614461565b92915050565b6000606082019050614c276000830186614461565b614c346020830185614a4c565b614c416040830184614a4c565b949350505050565b6000604082019050614c5e600083018561447f565b8181036020830152614c7081846147b2565b90509392505050565b6000606082019050614c8e600083018661447f565b8181036020830152614ca081856147b2565b9050614caf6040830184614a4c565b949350505050565b6000606082019050614ccc600083018661447f565b614cd96020830185614a4c565b614ce66040830184614a4c565b949350505050565b600061012082019050614d04600083018b61447f565b614d11602083018a614a4c565b614d1e6040830189614a4c565b614d2b6060830188614a4c565b614d38608083018761447f565b614d4560a0830186614a81565b614d5260c0830185614a0e565b614d606101008301846146f8565b9998505050505050505050565b600061010082019050614d83600083018b61447f565b614d90602083018a614a4c565b614d9d6040830189614a4c565b614daa6060830188614a81565b614db76080830187614a4c565b614dc460a0830186614a4c565b614dd160c08301856146f8565b81810360e0830152614de381846145d6565b90509998505050505050505050565b60006020820190508181036000830152614e0c81846144a5565b905092915050565b60006020820190508181036000830152614e2e8184614561565b905092915050565b60006020820190508181036000830152614e50818461468b565b905092915050565b6000602082019050614e6d60008301846146f8565b92915050565b6000602082019050614e88600083018461472d565b92915050565b6000604082019050614ea3600083018561472d565b8181036020830152614eb5818461476a565b90509392505050565b60006020820190508181036000830152614ed8818461476a565b905092915050565b60006020820190508181036000830152614efa81846147b2565b905092915050565b60006040820190508181036000830152614f1c81856147b2565b9050614f2b6020830184614461565b9392505050565b60006080820190508181036000830152614f4c81876147b2565b9050614f5b602083018661447f565b614f68604083018561447f565b614f7560608301846147a3565b95945050505050565b600060a0820190508181036000830152614f9881886147b2565b90508181036020830152614fac81876147b2565b9050614fbb604083018661447f565b614fc86060830185614a81565b8181036080830152614fda818461468b565b90509695505050505050565b60006020820190508181036000830152614fff8161481c565b9050919050565b6000602082019050818103600083015261501f81614882565b9050919050565b6000602082019050818103600083015261503f816148e8565b9050919050565b60006101408201905061505c6000830184614928565b92915050565b60006020820190506150776000830184614a4c565b92915050565b60006040820190506150926000830185614a4c565b61509f6020830184614a4c565b9392505050565b60006020820190506150bb6000830184614a81565b92915050565b6000604051905081810181811067ffffffffffffffff821117156150e457600080fd5b8060405250919050565b600067ffffffffffffffff82111561510557600080fd5b602082029050602081019050919050565b600067ffffffffffffffff82111561512d57600080fd5b602082029050602081019050919050565b600067ffffffffffffffff82111561515557600080fd5b601f19601f8301169050602081019050919050565b600067ffffffffffffffff82111561518157600080fd5b601f19601f8301169050602081019050919050565b600067ffffffffffffffff8211156151ad57600080fd5b601f19601f8301169050602081019050919050565b6000819050602082019050919050565b6000819050602082019050919050565b6000819050602082019050919050565b6000819050602082019050919050565b6000819050919050565b6000819050602082019050919050565b600081519050919050565b600081519050919050565b600081519050919050565b600081519050919050565b600060059050919050565b600081519050919050565b600081519050919050565b600081519050919050565b6000602082019050919050565b6000602082019050919050565b6000602082019050919050565b6000602082019050919050565b6000602082019050919050565b6000602082019050919050565b600082825260208201905092915050565b600082825260208201905092915050565b600082825260208201905092915050565b600082825260208201905092915050565b600081905092915050565b600082825260208201905092915050565b600082825260208201905092915050565b600082825260208201905092915050565b600081905092915050565b600061535a826153e7565b9050919050565b60008115159050919050565b60007fffffffffffffffffffffffffffffffffffffffff00000000000000000000000082169050919050565b6000819050919050565b60007fffffffff0000000000000000000000000000000000000000000000000000000082169050919050565b6000819050919050565b600061ffff82169050919050565b600073ffffffffffffffffffffffffffffffffffffffff82169050919050565b6000819050919050565b600060ff82169050919050565b600061542982615430565b9050919050565b600061543b82615442565b9050919050565b600061544d826153e7565b9050919050565b82818337600083830152505050565b60005b83811015615481578082015181840152602081019050615466565b83811115615490576000848401525b50505050565b60006154a1826154c6565b9050919050565b6000819050919050565b6000819050919050565b6000819050919050565b60006154d182615512565b9050919050565b6000819050919050565b60006154ed82615505565b9050919050565b6000601f19601f8301169050919050565b60008160f81b9050919050565b60008160601b9050919050565b6155288161534f565b811461553357600080fd5b50565b61553f81615399565b811461554a57600080fd5b50565b615556816153a3565b811461556157600080fd5b50565b61556d816153cf565b811461557857600080fd5b50565b615584816153d9565b811461558f57600080fd5b50565b61559b81615407565b81146155a657600080fd5b50565b6155b281615411565b81146155bd57600080fd5b5056fea365627a7a7231582048a773153f6dec93ab545ea0a154587cdd8d4c29598714628997af9034fcc1586c6578706572696d656e74616cf564736f6c63430005100040",
  "source": "pragma solidity ^0.5.7;\npragma experimental ABIEncoderV2;\n\nimport \"./strings.sol\";\nimport \"./stringCasting.sol\";\n// import \"./BytesLib.sol\";\nimport \"./SafeMath.sol\";\n\n/* Lunchcoin validator contract - mutual agreement */\ncontract MutualAgreement {\n    // Common storage structure for ALL contacts using this storage.\n    // _, __, __ , etc are unused in this contract, but must remain to occupy their slots.\n\n    address owner;  // is set by TokenStorage.. but retain types and order.\n\n    struct TimeRange {\n      uint start;\n      uint end;\n    }\n\n    struct Stake {\n      uint rep;\n      TimeRange[] available;\n      uint availabilityExpires;\n      mapping (address => uint) venueContribution;\n    }\n\n    struct Dibs {\n      address payer;\n      address recipient;\n      uint amount;\n    }\n\n\n\n\n    struct Poll {\n      address initiator;\n      uint minStake;\n      uint venueCost;\n      uint venuePot;\n      address venuePayer;\n      uint8 minParticipants;\n      TimeRange eventTime;\n      bool proofsWindowClosed;\n      mapping (address => Stake) staked;\n      mapping (address => uint16) ownCheckInIndex;           // 1-indexed: ownCheckInIndex[s]==0 => nothing there.\n      Dibs[] dibsCalled;\n    }\n\n\n    struct PollExternal {\n      address initiator;\n      uint minStake;\n      uint venueCost;\n      uint venuePot;\n      address venuePayer;\n      uint8 minParticipants;\n      uint8 participants;\n      TimeRange eventTime;\n      bool proofsWindowClosed;\n      // NB external view of Poll can never correctly represent ownCheckInIndex (a mapping to a dynamic array).\n      // Need to either make it indicative, or fixed size.\n\n      // getting arrays with web3 is weird. Possibly claims ABI error?\n      // bytes32[5][] cantremember;\n      // address[] provers;\n      // dibs[] dibsCalled;\n    }\n\n    // shared across contracts\n    mapping (address => uint) rep;\n    mapping (bytes32 => bytes32[]) allTheData;\n    mapping (string => Poll) public pollData;\n    mapping (bytes32 => bool) resultsCache;\n\n    // used only in Poll\n    mapping(uint8 => address) internal __validators;\n    mapping(uint8 => string) internal __validatorNames;\n    mapping(address => uint) internal __cashBalance;\n    address __selfAddy ;\n\n\n    // unused - previously for Storage Proxy\n    //    mapping (address => bool) internal _allowedAccess;\n\n    // used only in Validators\n    mapping (address => uint16) stakerPresentIn;\n\n      // used for testing only - will be deleted.\n      address pollAddress = 0x9D26a8a5Db7dC10689692caF8d52C912958409CF;\n\n    // constants: Do not use space in storage.\n    uint8 constant vType=1;\n    string constant vDesc = \"mutual agreement\";\n\n\n    struct proofCounter {\n        bool fakeProof;\n        int8 duplicateProofs;\n        uint8 fakeProofs;\n        bool senderIsPresent;\n    }\n\n\n    using strings for *;\n    using stringcast for string;\n    using SafeMath for uint;\n\n    function () payable external {\n        _fallback();\n    }\n\n    // function() external payable {\n    //     // NB sol 0.6+ better syntax for calldata arrays : https://solidity.readthedocs.io/en/v0.6.0/types.html#array-slices\n    //     bytes memory input = msg.data;\n    //\n    //     // TODO: This is V.0 accepting a string (really a bytes32) of EXACTLY 32 bytes, eg a doodle poll without the https:// ;)\n    //     bytes32 __ownAdress;  // NB assuming 32b rather than 20b for calldata loose packing. Remember to get rid of this line when optimising!\n    //     bytes memory usefulData;\n    //     bytes32 poll32;\n    //     bytes memory __reveal;\n    //     // demo result! (we don;t need more than bool really ;)\n    //     uint256 valid = 7331;\n    //\n    //     (__ownAdress, usefulData) = (bytesSplit32(input));\n    //     (poll32, __reveal) = (bytesSplit32(usefulData));\n    //\n    //     // NB other validators will need to additionally retrieve reveal data from msg.data\n    //     bytes32[] memory stakers = crossContractCall (encodeFunctionName(\"staker\"), bytes32ToString(poll32), valid, vType);\n    //     bytes32[] memory proofs = crossContractCall (encodeFunctionName(\"proof\"), bytes32ToString(poll32), valid, vType);\n    //\n    // }\n\n    constructor () public {\n        // testing constructor access to storage across shared storage\n        // (one for later ;)\n        // constructed = 1;\n    }\n\n    function initialiseDemo (string memory _poll) public {\n\n      pollData[_poll].minStake = 1;\n      pollData[_poll].venueCost = 45000;\n      pollData[_poll].venuePot = 11250;\n      // pollData[_poll].staked[msg.sender].rep = 1;\n      // pollData[_poll].staked[msg.sender].venueContribution =\n      // pollData[_poll].staked[msg.sender].venueContribution[msg.sender] = 15000;\n    }\n\n    function _fallback() internal {\n        bytes memory input = msg.data;\n\n    }\n\n    function multiplier() public view returns (uint numerator, uint denominator) {\n      return (5,4);\n    }\n\n    function maxRep() public view returns (uint maxRep) {\n      return (3000);\n    }\n\n\n    event logStuff (string);\n    modifier isStaker(string memory _poll) {\n      address[] memory stakers = getStakerAddresses(_poll);\n      bool senderIsPresent;\n\n      for(uint i = 0; i < stakers.length; i++) {\n        if (stakers[i] == msg.sender) {\n          senderIsPresent = true;\n        }\n      }\n      require(senderIsPresent, \"Function may only be called by a staker on this poll\");\n      _;\n    }\n\n    function doEmit (string memory message) public {\n      emit logStuff (message);\n    }\n\n    function getPoll(string memory _poll) public view returns (\n      address initiator,\n      // uint stake,\n      // uint venueContribution,\n      uint venueCost,\n      uint venuePot,\n      uint8 minParticipants,\n      uint start,\n      uint end,\n      bool proofsWindowClosed,\n      // dibs[] memory dibsCalled,\n      bytes32[5][] memory ownCheckInIndex ) {\n\n      initiator = pollData[_poll].initiator;\n      venueCost = pollData[_poll].venueCost;\n      venuePot = pollData[_poll].venuePot;\n      minParticipants = pollData[_poll].minParticipants;\n      proofsWindowClosed = pollData[_poll].proofsWindowClosed;\n      // start = pollData[_poll].eventTime.start;\n      // end = pollData[_poll].eventTime.end;\n      start = 1591535900000;\n      end = 1591536000000;\n      // dibsCalled = pollData[_poll].dibsCalled;\n      // stake = pollData[_poll].staked[_staker].rep;\n      // venueContribution = pollData[_poll].staked[_staker].venueContribution[_staker];\n\n      return (initiator, venueCost, venuePot, minParticipants, start, end, proofsWindowClosed, ownCheckInIndex);\n    }\n\n    function getPollStruct(string memory _poll) public view returns (PollExternal memory returnPoll) {\n\n      // bytes32[5][] ownCheckInIndex;\n      // address[] provers;\n      // dibs[] dibsCalled;\n\n        returnPoll.minStake = 1000;\n        returnPoll.venueCost = 40000;\n        returnPoll.venuePot = 40000;\n        returnPoll.minParticipants = 3;\n        returnPoll.participants = 3;\n        returnPoll.eventTime.start = 1591535900000;\n        returnPoll.eventTime.end = 1591536000000;\n      return returnPoll;\n    }\n\n    function setByHash (bytes32 _hash, bytes32[] memory _data) public {\n      allTheData[_hash] = _data;\n    }\n\n    function getByHash (bytes32 _hash) public view returns (bytes32[] memory) {\n      return (allTheData[_hash]);\n    }\n\n    function get (string memory _poll, string memory _mapName) public view returns (bytes32[] memory) {\n        bytes32 hash = keccak256(abi.encodePacked(_poll, encodeFunctionName(_mapName), vType));\n        return (allTheData[hash]);\n    }\n\n    event whassahash(bytes);\n    event whassakeccack(bytes32);\n    function getStakersProof (string memory _poll, address _staker) public returns (bytes32[] memory) {\n      bytes32 hash = keccak256(abi.encodePacked(_poll, encodeFunctionName(\"proof\"), _staker, vType));\n      emit whassahash(abi.encodePacked(_poll, encodeFunctionName(\"proof\"), _staker, vType));\n      emit whassakeccack(hash);\n      return (allTheData[hash]);\n    }\n\n    function getProofEmitHashesOnlyWithStaker (string memory _poll, string memory _mapName, address _stakerOrZero, uint8 _vt, bytes32[] memory data) public {\n      bytes32 hash = keccak256(abi.encodePacked(_poll, encodeFunctionName(_mapName), _stakerOrZero, _vt));\n      emit whassahash(abi.encodePacked(_poll, encodeFunctionName(_mapName), _stakerOrZero, _vt));\n      emit whassakeccack(hash);\n\n      emit gpResult(_poll, _mapName, _stakerOrZero, _vt, getStakersProof(_poll, _stakerOrZero));\n    }\n\n\n    function addStaker (string memory _poll, address _staker, uint8 _vt) public {\n      bytes32 hash = keccak256(abi.encodePacked(_poll, encodeFunctionName(\"staker\"), _vt));\n      allTheData[hash].push (bytes32(bytes20(_staker)));\n    }\n\n    function getStakerAddresses (string memory _poll ) public view returns (address[] memory) {\n      bytes32[] memory rawStakers = get(_poll, \"staker\");\n      address[] memory stakers = new address[](rawStakers.length);\n      for(uint16 i=0; i < rawStakers.length; i++) {\n          stakers[i] = bytesToAddress(bytes32ToBytes(rawStakers[i]));\n      }\n      return stakers;\n    }\n\n//NB This is returning a WRONG result, but of the right type. You've probably got indices mixed up.\n    function getproofsAsAddresses (string memory _poll ) public returns (address[][] memory) {\n      address[] memory stakers = getStakerAddresses(_poll);\n      address[][] memory proofs = new address[][](stakers.length);\n      bytes32[] memory rawProof;\n\n      for(uint16 i=0; i < stakers.length; i++) {\n        rawProof = getStakersProof(_poll, stakers[i]);\n        proofs[i] = new address[](rawProof.length);\n        for(uint16 j=0; j < rawProof.length; j++) {\n            proofs[i][j]=(bytesToAddress(bytes32ToBytes(rawProof[j])));\n        }\n      }\n      return (proofs);\n    }\n\n    function set (string memory _poll, string memory _mapName, address _stakerOrZero, uint8 _vt, bytes32[] memory _data) public {\n      bytes32 hash;\n      if (_stakerOrZero == address(0)) {\n        hash = keccak256(abi.encodePacked(_poll, encodeFunctionName(_mapName), _vt));\n      } else {\n        hash = keccak256(abi.encodePacked(_poll, encodeFunctionName(_mapName), bytes20(_stakerOrZero), _vt));\n      }\n      allTheData[hash] = new bytes32[](_data.length);\n      // bytes32[] memory data = new bytes32[](_data.length);\n      for(uint16 i=0; i < _data.length; i++) {\n        allTheData[hash][i] = _data[i];\n      }\n      // allTheData[hash] = data;\n\n      // tried a number of ways and it is always reverting (when called via checkIn)\n\n    }\n\n    event gpResult(string, string, address, uint8, bytes32[]);\n    function setCheckedInWithStaker (string memory _poll, string memory _mapName, address _impersonatedStaker, uint8 _vt, bytes32[] memory data) public {\n      bytes32 hash = keccak256(abi.encodePacked(_poll, encodeFunctionName(_mapName), _impersonatedStaker, _vt));\n      emit whassahash(abi.encodePacked(_poll, encodeFunctionName(_mapName), _impersonatedStaker, _vt));\n      emit whassakeccack(hash);\n      allTheData[hash] = data;\n      emit gpResult(_poll, _mapName, _impersonatedStaker, _vt, getStakersProof(_poll, _impersonatedStaker));\n    }\n\n\n    function checkIn (string memory _poll, address _impersonatedStaker, address[] memory _newProof) public {\n      address sender = _impersonatedStaker;   //  should be msg.sender\n      uint16 idx = pollData[_poll].ownCheckInIndex[sender];\n      bool hasStaked = false;\n      uint16 i;\n\n      // if (idx==0) {\n      //   idx = uint16(getStakerAddresses(_poll ).length);\n      //   add (_poll, \"proof\", vType, _newProof);\n      //   pollData[_poll].ownCheckInIndex[sender] = idx+1;    // would be an off-by-one but ownIndex is 1-indexed ;)\n      //   return;\n      // }\n      // proofs[idx] = bytes32(bytes20(_newProof));\n\n      // bytes32[] memory stakers = get(_poll, \"staker\");\n      // for (i=0; i<stakers.length; i++) {\n      //   if bytes32(bytes20((stakers[i]))==sender\n      //     hasStaked = true;\n      // }\n      // if (hasStaked = false)\n      //   revert ('Staker has not staked in this poll')\n      bytes32[] memory proofB32 = new bytes32[](_newProof.length);\n      for (i=0; i<_newProof.length; i++) {\n        proofB32[i]=bytes32(bytes20(_newProof[i]));\n      }\n      set ( _poll, \"proof\", sender, vType, proofB32);\n      pollData[_poll].ownCheckInIndex[sender] = idx+1;\n    }\n\n    event proofUpdated(address);\n    function addProof (string memory _poll, address _impersonatedStaker, address[] memory _newProof) public {\n      address sender = _impersonatedStaker;   //  should be msg.sender\n      bytes32[] memory proofB32 = new bytes32[](_newProof.length);\n      bytes32 hash = keccak256(abi.encodePacked(_poll, encodeFunctionName(\"proof\"), bytes20(_impersonatedStaker), vType));\n      for (uint16 i=0; i<_newProof.length; i++) {\n        proofB32[i]=bytes32(bytes20(_newProof[i]));\n      }\n      if (allTheData[hash].length>0)\n        emit proofUpdated(sender);\n      allTheData[hash]=(proofB32);\n    }\n\n    function addProofSelf (string memory _poll, address[] memory _newProof) public {\n      addProof (_poll, msg.sender, _newProof);\n    }\n\n    event proofsWindowClosed (string poll, address by);\n    function closeProofsWindow (string memory _poll) public {\n      // require (isElibgible(msg.sender), \"msg.sender did not stake in this poll\");\n      // require (time.now()>.pollData[_poll].eventTime.end || AllstakersSubmittedProofs(), \"Not all stakers have submitted proofs and the event is not yet over\");\n      // require (, \"\");\n      pollData[_poll].proofsWindowClosed = true;\n      emit proofsWindowClosed (_poll, msg.sender);\n\n      // NB here assuming that poll can be closed once all stakers have submitted a proof.\n      // The alternative would allow a non-attending staker to hold up refunds (by refusing to submit 'I can't make it')\n      // but this way means that early provers cannot necessarily revise rpoofs which turn out not to fit consensus\n      // This policy may be better left to differ between validators.\n    }\n\n\n    function reopenProofsWindow (string memory _poll) public {\n      pollData[_poll].proofsWindowClosed = false;\n    }\n\n    function isProofsWindowClosed (string memory _poll) public view returns (bool ) {\n      return pollData[_poll].proofsWindowClosed;\n    }\n\n\n    function setRep (string memory _poll, address _staker, uint _rep) public {\n      rep[_staker] = _rep;\n    }\n\n    function getRep (address _staker) public view returns (uint) {\n      return rep[_staker];\n    }\n\n\n    event stakeNotAccepted(address, string);\n    event disreputableStakerIgnored(address, string);\n    event staked(address, string, uint);\n    // TODO: accept one TimeRange for all stakes.\n    // TODO: accept TimeRanges per stake (need to change up the data structures!)\n    function addStake (string memory _poll, address _impersonatedStaker, uint _rep, uint _venueContribution, address _venueContributionFor ) public {\n      address sender = _impersonatedStaker;\n      if (_venueContribution>0) {\n        uint currentVC = pollData[_poll].staked[sender].venueContribution[_venueContributionFor];\n        pollData[_poll].staked[sender].venueContribution[_venueContributionFor] += _venueContribution;\n      }\n      if (_rep>0) {\n        if (_rep<pollData[_poll].minStake) {\n          emit stakeNotAccepted(sender, _poll);              // aNt!p4ttrnn ###\n        } else\n        if (rep[sender]<_rep) {\n          emit disreputableStakerIgnored(sender, _poll);\n        } else {\n          rep[sender] -= _rep;\n          pollData[_poll].staked[sender].rep += _rep;\n          emit staked(sender, _poll, _rep);\n        }\n      }\n    }\n\n    function totalRepStaked (string memory _poll, address _staker) public view returns (uint) {\n      return pollData[_poll].staked[_staker].rep;\n    }\n\n    function totalVenueContribs (string memory _poll, address _staker) public view returns (uint total) {\n      // dibs[] memory dibsList = allDibsPaidBy(_staker);\n\n\n      // gives an out of bounds error (or munches it into VM..blah..blah)\n      // trying to access ...[address(0)]\n      // total = pollData[_poll].staked[_staker].venueContribution[_staker] + pollData[_poll].staked[_staker].venueContribution[address(0)];\n      total = pollData[_poll].staked[_staker].venueContribution[_staker];\n\n      // for(uint16 i = 0; i < dibsList.length; i++) {\n      //   total += dibsList[i].amount;\n      // }\n\n      return total;\n    }\n\n    event emptyStakeRemoved (string _poll, address _staker);\n    function removeEmptyStake (string memory _poll, address _staker) public {\n      // uint rep=pollData[_poll].staked[msg.sender].rep;\n      // uint venueContributions = totalVenueContribs (_poll, _staker);\n      // require (rep==0 && venueContributions==0, 'Staker has non empty stake or venue contribution');\n      // delete pollData[_poll].staked[msg.sender];\n      // emit emptyStakeRemoved(_poll, msg.sender);\n    }\n\n    // NB these require returning complex type.\n    // Keep the commented code, but integrate it direct into functions which need it (and eventually use new ABI encoder on it ;)\n\n    // function allDibsPaidBy(string memory _poll, address _staker) public view returns (dibs[] memory) {\n    //   uint16 size=0;\n    //   uint16 i;\n    //   for(i = 0; i < pollData[_poll].dibsCalled.length; i++) {\n    //     if (pollData[_poll].dibsCalled[i].payer == _staker)\n    //       size++;\n    //   }\n    //   dibs[size] memory dibsList = new dibs[](size);\n    //   for(uint16 i = 0; i < pollData[_poll].dibsCalled.length; i++) {\n    //     if (pollData[_poll].dibsCalled[i].payer == _staker)\n    //       dibsList.push(pollData[_poll].dibsCalled[i]);\n    //   }\n    //   return dibsList;\n    // }\n    //\n    // function allDibsPaidFor(string memory _poll, address _recipient) public view returns (dibs[] memory) {\n    //   uint16 size=0;\n    //   uint16 i;\n    //   for(i = 0; i < pollData[_poll].dibsCalled.length; i++) {\n    //     if (pollData[_poll].dibsCalled[i].recipient == _recipient)\n    //       size++;\n    //   }\n    //   dibs[size] memory dibsList = new dibs[](size);\n    //   for(i = 0; i < pollData[_poll].dibsCalled.length; i++) {\n    //     if (pollData[_poll].dibsCalled[i].recipient == _recipient)\n    //       dibsList.push(pollData[_poll].dibsCalled[i]);\n    //   }\n    //   return dibsList;\n    // }\n\n    event venuePotDisbursed (string _poll, address to, address by, int amount);\n    // Any staker can call refund of excess venue pot.\n    // Disbursement to venue payer must wait until initiator has actively set venue payer (eg to self);\n    function refundVenueStakes(string memory _poll) public isStaker(_poll) {\n      address[] memory stakers = getStakerAddresses(_poll);\n      uint equalShare = (pollData[_poll].venueCost).div(stakers.length);\n      uint spareCash = pollData[_poll].venuePot-pollData[_poll].venueCost;\n      // // proportional refunds:\n      // // allows recipients of gifted contributions to get a refund too\n      // for stakers\n      //   refund = 0\n      //   for (stakes = allDibsPaidBy(staker).concat(staker.stake[staker]).concat(staker.stake[0x0]))\n      //     refund += stake*proportion\n      //     remove stake\n      //   refund (refund)\n      //   emit\n      //\n      // // covering refunds:\n      // // gifted contributions are used only to top up recipients'\n      // for stakers\n      //   totalPaid = staker.stake[staker].amount + staker.stake[0x0].amount\n      //   if totalPaid < equalSharerefundVen\n      //     for (stakes = allDibsPaidFor(staker).concat(staker.stake[staker]).concat(staker.stake[0x0]))\n      //       if amount>=shortfall\n      //         totalPaid += shortfall\n      //         shorten(stake)\n      //       else\n      //         totalPaid += amount\n      //         remove(stake) including own stake!\n      //     refund(0)\n      // for stakers\n      //   if exists(stake) (ie those who were not removed in last round)\n      //     for (stakes = allDibsPaidBy(staker).concat(staker.stake[staker]).concat(staker.stake[0x0]))\n      //       if amount>=shortfall\n      //         totalPaid += shortfall\n      //         refund += rest\n      //       else\n      //         totalPaid += amount\n      //       remove(stake)\n      //     refund (refund)\n      //     emitsolidity uint16\n      //\n\n      removeEmptyStake(_poll, msg.sender);\n    }\n\n    function setString (string memory _poll, string memory _mapName, uint8 _vt, string memory data) public {\n      bytes32 hash = keccak256(abi.encodePacked(_poll, encodeFunctionName(_mapName), _vt));\n      allTheData[hash] = stringToBytes32Array(data);\n    }\n\n\n    event repRefund (address staker, uint staked, uint refunded);\n    event refundFail (address _staker);\n    function refundStake (string memory _poll, bytes32 _reveal) public {\n      // Uncomment them - this is for testing by, amount!\n      // require (pollData[_poll].staked[msg.sender].rep > 0, 'Sender has nothing staked for this poll');\n      // require (pollData[_poll].ownCheckInIndex[msg.sender] > 0, 'Sender has not submitted an attendance proof for this poll');\n      if (!validate(address(0), _poll, _reveal)) {\n        emit refundFail(msg.sender);\n        revert ('Invalid proof');\n      }\n\n      (uint num, uint denom) = multiplier();\n      uint refund = num.mul(pollData[_poll].staked[msg.sender].rep) / denom;\n      if (rep[msg.sender] + refund > maxRep())\n        refund = pollData[_poll].staked[msg.sender].rep;\n\n      pollData[_poll].staked[msg.sender].rep = 0;\n      rep[msg.sender] += refund;\n      emit repRefund (msg.sender, pollData[_poll].staked[msg.sender].rep, refund);\n      removeEmptyStake(_poll, msg.sender);\n\n    }\n\n\n    function emitVenueStakeRefunded (string memory _poll, address _to, address _by, int _amount, uint8 _repeat) public  {\n      for (uint8 i=0; _repeat>0 && i<_repeat; i++) {\n        emit venuePotDisbursed (_poll, _to, _by, _amount);\n      }\n      if (_repeat==5)\n        emit venuePotDisbursed (_poll, pollData[_poll].venuePayer, _by, _amount);\n    }\n\n    function emitVenuePotRefunded (string memory _poll, address _to, address _by, int _amount) public {\n      emit venuePotDisbursed (_poll, pollData[_poll].venuePayer, _by, _amount);\n    }\n\n    function emitrepRefunded (address _staker, uint _staked, uint _refunded) public {\n      emit repRefund (_staker, _staked, _refunded);\n    }\n\n    function emitrefundFail (address _staker) public {\n      emit refundFail (_staker);\n    }\n\n\n\n    event numberLoggerLikeImUsingFuckingJava (string, uint);\n    // cheapo validator - this one just counts how many people included you in their proof, with no attempt at making the proofs agree.\n    // currently counts votes in favour of each stakers, which will help, but doesn't flag which poroofs disagree\n    function validate(address _pollContract, string memory _poll, bytes32 _reveal) public returns (bool) {\n        // require (_pollContract==howeverYoullIdentifySelf, 'wrong Poll contract - something needs upgrading');\nreturn true;\n        address[] memory stakers = getStakerAddresses(_poll);\n        address[][] memory proofs = getproofsAsAddresses(_poll);\n        uint16 i;\n        uint16 sendersIndex;\n        bool stakerPresent;\n\n        uint8 threshold = 1 ;   //  do not set to 0 - div0 error!\n        // emit numberLoggerLikeImUsingFuckingJava('stakers',stakers.length);\n        // emit numberLoggerLikeImUsingFuckingJava('proofs',proofs.length);\n\n        // proofCounter memory pc;\n        for(i = 0; i < stakers.length; i++) {\n            // emit logStuff(\"started loop\");\n            stakerPresent = false;\n            if (stakers[i]==msg.sender)\n              sendersIndex=i;\n            for(uint j = 0; j < proofs[i].length; j++) {\n              if (proofs[i][j] == msg.sender)\n                stakerPresent = true;\n              stakerPresentIn[proofs[i][j]]++;     // increase the present count for the address who this staker marked present\n              // if this staker claims someone is here but the majority disagree, then emit disagreement;\n            }\n            // if (!stakerPresent)\n            //   impugnProof(i);\n            //   // if I am not present, emit a disagreement;\n        }\n        // if stakerPresentIn[sendersIndex] < proofs[i].length {\n        //   bePissedOff();\n        // }\n\n        // update majorities\n        // check previous disagreements\n\n        if ((stakerPresentIn[msg.sender]>=threshold) && (proofs[i].length/ stakerPresentIn[msg.sender] < 2)) {\n          return true;\n        }\n        // add reversion logic\n\n\n\n\n        // // deal with 0 < threshold < 1\n        // if(percentageThreshold>0) {\n        //   threshold = percentageThreshold*stakers.length;\n        // }\n        // if (pc.senderIsPresent && (proofs.length-pc.fakeProofs >= threshold)) {\n        //     return true;\n        // }\n        // return false;\n\n        // if (!pc.senderIsPresent)\n        //     revert('Sender did not register attendance');\n\n        // if (!pc.senderIsPresent)\n        //     emit logStuff('Sender did not register attendance');\n        // if (proofs.length-pc.fakeProofs < threshold)\n        //     emit logStuff('Not enough attendees in consensus');\n        // if (proofs.length == pc.fakeProofs)\n        //     emit logStuff('All proofs were fake');\n        // emit numberLoggerLikeImUsingFuckingJava ('fakeProofs',pc.fakeProofs);\n        // emit numberLoggerLikeImUsingFuckingJava ('proofs.length',proofs.length);\n        // return true;\n    }\n\n    function proofType() public pure returns (uint8) {\n      return vType;\n    }\n\n    function encodeFunctionName (string memory name) internal pure returns (bytes4) {\n        // TODO: cache for readability!\n        // if (\"staker\")\n        //     return\n        // if (\"proof\")\n        //     return\n        return bytes4(keccak256(bytes(name)));\n    }\n\n    // split a serialised string of addresses (as received from main contract).\n    // NB - only works in this validator - other validators will use multiple types within serialised string\n    function splitToAddresses(string memory _concatenated) internal pure returns (address[] memory result) {\n        strings.slice memory delim = \",\".toSlice();\n        strings.slice memory source = _concatenated.toSlice();\n        address[] memory parts = new address[](source.count(delim));\n\n        for(uint i = 0; i < parts.length; i++) {\n           parts[i] = source.split(delim).toString().toAddress();\n        }\n        return parts;\n\n    }\n\n    function bytesToAddress(bytes memory _bytes) public pure returns (address) {\n      address tempAddress;\n      assembly {\n          tempAddress := div(mload(add(add(_bytes, 0x20), 0)), 0x1000000000000000000000000)\n      }\n      return tempAddress;\n    }\n\n    function toString(address account) public pure returns(string memory) {\n        return toString(abi.encodePacked(account), 5);\n    }\n\n    function toString(uint256 value) public pure returns(string memory) {\n        return toString(abi.encodePacked(value), 0);\n    }\n\n    function toString(bytes32 value) public pure returns(string memory) {\n        return toString(abi.encodePacked(value), 0);\n    }\n\n    function toString(bytes memory data, uint16 len) public pure returns(string memory) {\n        bytes memory alphabet = \"0123456789abcdef\";\n        uint16 strLen = 20;  // It's 20. The length is just fucking 20.  uint16(data.length);\n        // Pretty simple if statement - why won't it work ?\n        // if (len>0) {\n        //     strLen = len;\n        // }\n\n\n        bytes memory str = new bytes(2 + strLen * 2);\n        str[0] = '0';\n        str[1] = 'x';\n        for (uint i = 0; i < strLen; i++) {\n            str[2+i*2] = alphabet[uint(uint8(data[i] >> 4))];\n            str[3+i*2] = alphabet[uint(uint8(data[i] & 0x0f))];\n        }\n        return string(str);\n    }\n\n\n    function bytes32ToBytes(bytes32 _bytes32) public pure returns (bytes memory){\n        // string memory str = string(_bytes32);\n        // TypeError: Explicit type conversion not allowed from \"bytes32\" to \"string storage pointer\"\n        bytes memory bytesArray = new bytes(32);\n        for (uint256 i; i < 32; i++) {\n            bytesArray[i] = _bytes32[i];\n        }\n        return bytesArray;\n    }\n\n    // function bytesToBytes32(bytes b, uint offset) private pure returns (bytes32) {\n    //     bytes32 out;\n\n    //     for (uint i = 0; i < 32; i++) {\n    //         out |= bytes32(b[offset + i] & 0xFF) >> (i * 8);\n    //     }\n    //     return out;\n    // }\n\n\n    function bytesToBytes32(bytes memory b) public pure returns (bytes32 bts) {\n        bytes32 i;\n        //NB size etc= 32b = 0x20b\n        assembly { i := mload(add(b, 0x20)) }\n        bts = i;\n    }\n\n    function bytes32ToString(bytes32 _bytes32) public pure returns (string memory ){\n        bytes memory bytesArray = bytes32ToBytes(_bytes32);\n        return string(bytesArray);\n    }\n\n    function bytes32ArrayToString (bytes32[] memory data) public pure returns (string memory ) {\n        bytes memory bytesString = new bytes(data.length * 32);\n        uint urlLength;\n        uint i=0;\n        for (i=0; i<data.length; i++) {\n            for (uint j=0; j<32; j++) {\n                byte char = byte(bytes32(uint(data[i]) * 2 ** (8 * j)));\n                if (char != 0) {\n                    bytesString[urlLength] = char;\n                    urlLength += 1;\n                }\n            }\n        }\n        bytes memory bytesStringTrimmed = new bytes(urlLength);\n        for (i=0; i<urlLength; i++) {\n            bytesStringTrimmed[i] = bytesString[i];\n        }\n        return string(bytesStringTrimmed);\n    }\n\n    function stringToBytes32Array(string memory source) public pure returns (bytes32[] memory result) {\n        // uint16 words = uint16( (bytes(source).length+31)/32 );\n        uint16 words = 1;\n        for(uint16 i=0; i<=words; i++) {\n          uint16 offset = 32*(i+1);\n          bytes32 word;\n          assembly {\n            word := mload(add(source, offset))\n          }\n          result[i] = word;\n        }\n        return result;\n    }\n\n    // TODO !!!\n    // function bytes32ToUint (bytes32 data) returns (uint) {\n    //     return 2;\n    // }\n\n    function bytesSplit32(bytes  memory data) public pure returns (bytes32, bytes memory ) {\n        uint8 splitAt = 32;                             // all (if variable split, pass in splitAt)\n        uint256 taillength = 0;\n        if (data.length > splitAt)\n            taillength = data.length-splitAt;\n        bytes32 temp;\n        // bytes32 head;                                   // 32b split\n        bytes memory head = new bytes(splitAt);         // variable length split\n        bytes memory tail = new bytes(taillength);\n        for(uint i=0;i<=data.length-1;i++){\n            if (i<splitAt)\n                head[i] = bytes(data)[i] ;\n            else\n                tail[i-splitAt] = bytes(data)[i] ;\n        }\n        return (bytesToBytes32(head), tail);\n    }\n\n    // calls fallback function of pollAddress, passing 4 byte encoded function name to remote contract to select method.\n    // NB future better: just get the ABI of the finished Poll conmtract, and use that!\n    // NB in sol 0.6 + fallback cannot return anything\n    // NB future optimisation : we are not using the functionality of string here, since string must have come from a bytes32\n    event CrossContractValidateBegin();\n    event CrossContractValidateEnd();\n    function crossContractCall (bytes4 fnNameHash, string  memory poll, uint256 valid, uint8 vt) public returns (bytes32[] memory) {\n    address pollContract = pollAddress;\n\n        emit CrossContractValidateBegin();\n        assembly {\n            let ptr := mload(0x40)\n            calldatacopy(ptr, 0, calldatasize)\n            let result := delegatecall(gas, pollContract, ptr, calldatasize, 0, 0)\n            let size := returndatasize\n            returndatacopy(ptr, 0, size)\n            switch result\n            case 0 { revert(ptr, size) }\n            default { return(ptr, size) }\n        }\n        emit CrossContractValidateEnd();\n    }\n\n}\n",
  "sourcePath": "/home/teide/randomCode/lunchcoin/contracts.v1/contracts/MutualAgreement.sol",
  "compiler": {
    "name": "solc",
    "version": "0.5.16+commit.9c3226ce.Emscripten.clang"
  },
  "schemaVersion": "3.2.0",
  "updatedAt": "2020-06-25T16:06:52.946Z",
  "networkType": "ethereum",
  "devdoc": {
    "methods": {}
  },
  "userdoc": {
    "methods": {}
  }
}