{
  "contractName": "MutualAgreement",
  "abi": [
    {
      "inputs": [],
      "payable": false,
      "stateMutability": "nonpayable",
      "type": "constructor"
    },
    {
      "anonymous": false,
      "inputs": [],
      "name": "CrossContractValidateBegin",
      "type": "event"
    },
    {
      "anonymous": false,
      "inputs": [],
      "name": "CrossContractValidateEnd",
      "type": "event"
    },
    {
      "anonymous": false,
      "inputs": [
        {
          "indexed": false,
          "internalType": "address",
          "name": "",
          "type": "address"
        },
        {
          "indexed": false,
          "internalType": "string",
          "name": "",
          "type": "string"
        }
      ],
      "name": "disreputableStakerIgnored",
      "type": "event"
    },
    {
      "anonymous": false,
      "inputs": [
        {
          "indexed": false,
          "internalType": "string",
          "name": "_poll",
          "type": "string"
        },
        {
          "indexed": false,
          "internalType": "address",
          "name": "_staker",
          "type": "address"
        }
      ],
      "name": "emptyStakeRemoved",
      "type": "event"
    },
    {
      "anonymous": false,
      "inputs": [
        {
          "indexed": false,
          "internalType": "string",
          "name": "",
          "type": "string"
        },
        {
          "indexed": false,
          "internalType": "string",
          "name": "",
          "type": "string"
        },
        {
          "indexed": false,
          "internalType": "address",
          "name": "",
          "type": "address"
        },
        {
          "indexed": false,
          "internalType": "uint8",
          "name": "",
          "type": "uint8"
        },
        {
          "indexed": false,
          "internalType": "bytes32[]",
          "name": "",
          "type": "bytes32[]"
        }
      ],
      "name": "gpResult",
      "type": "event"
    },
    {
      "anonymous": false,
      "inputs": [
        {
          "indexed": false,
          "internalType": "string",
          "name": "",
          "type": "string"
        }
      ],
      "name": "logStuff",
      "type": "event"
    },
    {
      "anonymous": false,
      "inputs": [
        {
          "indexed": false,
          "internalType": "string",
          "name": "",
          "type": "string"
        },
        {
          "indexed": false,
          "internalType": "uint256",
          "name": "",
          "type": "uint256"
        }
      ],
      "name": "numberLoggerLikeImUsingFuckingJava",
      "type": "event"
    },
    {
      "anonymous": false,
      "inputs": [
        {
          "indexed": false,
          "internalType": "address",
          "name": "",
          "type": "address"
        }
      ],
      "name": "proofUpdated",
      "type": "event"
    },
    {
      "anonymous": false,
      "inputs": [
        {
          "indexed": false,
          "internalType": "string",
          "name": "poll",
          "type": "string"
        },
        {
          "indexed": false,
          "internalType": "address",
          "name": "by",
          "type": "address"
        }
      ],
      "name": "proofsWindowClosed",
      "type": "event"
    },
    {
      "anonymous": false,
      "inputs": [
        {
          "indexed": false,
          "internalType": "address",
          "name": "_staker",
          "type": "address"
        }
      ],
      "name": "refundFail",
      "type": "event"
    },
    {
      "anonymous": false,
      "inputs": [
        {
          "indexed": false,
          "internalType": "address",
          "name": "staker",
          "type": "address"
        },
        {
          "indexed": false,
          "internalType": "uint256",
          "name": "staked",
          "type": "uint256"
        },
        {
          "indexed": false,
          "internalType": "uint256",
          "name": "refunded",
          "type": "uint256"
        }
      ],
      "name": "repRefund",
      "type": "event"
    },
    {
      "anonymous": false,
      "inputs": [
        {
          "indexed": false,
          "internalType": "address",
          "name": "",
          "type": "address"
        },
        {
          "indexed": false,
          "internalType": "string",
          "name": "",
          "type": "string"
        }
      ],
      "name": "stakeNotAccepted",
      "type": "event"
    },
    {
      "anonymous": false,
      "inputs": [
        {
          "indexed": false,
          "internalType": "address",
          "name": "",
          "type": "address"
        },
        {
          "indexed": false,
          "internalType": "string",
          "name": "",
          "type": "string"
        },
        {
          "indexed": false,
          "internalType": "uint256",
          "name": "",
          "type": "uint256"
        }
      ],
      "name": "staked",
      "type": "event"
    },
    {
      "anonymous": false,
      "inputs": [
        {
          "indexed": false,
          "internalType": "string",
          "name": "_poll",
          "type": "string"
        },
        {
          "indexed": false,
          "internalType": "address",
          "name": "to",
          "type": "address"
        },
        {
          "indexed": false,
          "internalType": "address",
          "name": "by",
          "type": "address"
        },
        {
          "indexed": false,
          "internalType": "uint256",
          "name": "amount",
          "type": "uint256"
        }
      ],
      "name": "venuePotDisbursed",
      "type": "event"
    },
    {
      "anonymous": false,
      "inputs": [
        {
          "indexed": false,
          "internalType": "bytes",
          "name": "",
          "type": "bytes"
        }
      ],
      "name": "whassahash",
      "type": "event"
    },
    {
      "anonymous": false,
      "inputs": [
        {
          "indexed": false,
          "internalType": "bytes32",
          "name": "",
          "type": "bytes32"
        }
      ],
      "name": "whassakeccack",
      "type": "event"
    },
    {
      "payable": true,
      "stateMutability": "payable",
      "type": "fallback"
    },
    {
      "constant": true,
      "inputs": [
        {
          "internalType": "string",
          "name": "",
          "type": "string"
        }
      ],
      "name": "pollData",
      "outputs": [
        {
          "internalType": "address",
          "name": "initiator",
          "type": "address"
        },
        {
          "internalType": "uint256",
          "name": "minStake",
          "type": "uint256"
        },
        {
          "internalType": "int256",
          "name": "venueCost",
          "type": "int256"
        },
        {
          "internalType": "uint256",
          "name": "venuePot",
          "type": "uint256"
        },
        {
          "internalType": "address",
          "name": "venuePayer",
          "type": "address"
        },
        {
          "internalType": "uint8",
          "name": "minParticipants",
          "type": "uint8"
        },
        {
          "components": [
            {
              "internalType": "uint256",
              "name": "start",
              "type": "uint256"
            },
            {
              "internalType": "uint256",
              "name": "end",
              "type": "uint256"
            }
          ],
          "internalType": "struct MutualAgreement.TimeRange",
          "name": "eventTime",
          "type": "tuple"
        },
        {
          "internalType": "bool",
          "name": "proofsWindowClosed",
          "type": "bool"
        }
      ],
      "payable": false,
      "stateMutability": "view",
      "type": "function"
    },
    {
      "constant": false,
      "inputs": [
        {
          "internalType": "string",
          "name": "_poll",
          "type": "string"
        }
      ],
      "name": "initialiseDemo",
      "outputs": [],
      "payable": false,
      "stateMutability": "nonpayable",
      "type": "function"
    },
    {
      "constant": true,
      "inputs": [],
      "name": "multiplier",
      "outputs": [
        {
          "internalType": "uint256",
          "name": "numerator",
          "type": "uint256"
        },
        {
          "internalType": "uint256",
          "name": "denominator",
          "type": "uint256"
        }
      ],
      "payable": false,
      "stateMutability": "view",
      "type": "function"
    },
    {
      "constant": true,
      "inputs": [],
      "name": "maxRep",
      "outputs": [
        {
          "internalType": "uint256",
          "name": "maxRep",
          "type": "uint256"
        }
      ],
      "payable": false,
      "stateMutability": "view",
      "type": "function"
    },
    {
      "constant": false,
      "inputs": [
        {
          "internalType": "string",
          "name": "message",
          "type": "string"
        }
      ],
      "name": "doEmit",
      "outputs": [],
      "payable": false,
      "stateMutability": "nonpayable",
      "type": "function"
    },
    {
      "constant": true,
      "inputs": [
        {
          "internalType": "string",
          "name": "_poll",
          "type": "string"
        }
      ],
      "name": "getPoll",
      "outputs": [
        {
          "internalType": "address",
          "name": "initiator",
          "type": "address"
        },
        {
          "internalType": "int256",
          "name": "venueCost",
          "type": "int256"
        },
        {
          "internalType": "uint256",
          "name": "venuePot",
          "type": "uint256"
        },
        {
          "internalType": "uint8",
          "name": "minParticipants",
          "type": "uint8"
        },
        {
          "internalType": "uint256",
          "name": "start",
          "type": "uint256"
        },
        {
          "internalType": "uint256",
          "name": "end",
          "type": "uint256"
        },
        {
          "internalType": "bool",
          "name": "proofsWindowClosed",
          "type": "bool"
        },
        {
          "internalType": "bytes32[5][]",
          "name": "ownCheckInIndex",
          "type": "bytes32[5][]"
        }
      ],
      "payable": false,
      "stateMutability": "view",
      "type": "function"
    },
    {
      "constant": true,
      "inputs": [
        {
          "internalType": "string",
          "name": "_poll",
          "type": "string"
        }
      ],
      "name": "getPollStruct",
      "outputs": [
        {
          "components": [
            {
              "internalType": "address",
              "name": "initiator",
              "type": "address"
            },
            {
              "internalType": "uint256",
              "name": "minStake",
              "type": "uint256"
            },
            {
              "internalType": "int256",
              "name": "venueCost",
              "type": "int256"
            },
            {
              "internalType": "uint256",
              "name": "venuePot",
              "type": "uint256"
            },
            {
              "internalType": "address",
              "name": "venuePayer",
              "type": "address"
            },
            {
              "internalType": "uint8",
              "name": "minParticipants",
              "type": "uint8"
            },
            {
              "internalType": "uint8",
              "name": "participants",
              "type": "uint8"
            },
            {
              "components": [
                {
                  "internalType": "uint256",
                  "name": "start",
                  "type": "uint256"
                },
                {
                  "internalType": "uint256",
                  "name": "end",
                  "type": "uint256"
                }
              ],
              "internalType": "struct MutualAgreement.TimeRange",
              "name": "eventTime",
              "type": "tuple"
            },
            {
              "internalType": "bool",
              "name": "proofsWindowClosed",
              "type": "bool"
            }
          ],
          "internalType": "struct MutualAgreement.PollExternal",
          "name": "returnPoll",
          "type": "tuple"
        }
      ],
      "payable": false,
      "stateMutability": "view",
      "type": "function"
    },
    {
      "constant": false,
      "inputs": [
        {
          "internalType": "bytes32",
          "name": "_hash",
          "type": "bytes32"
        },
        {
          "internalType": "bytes32[]",
          "name": "_data",
          "type": "bytes32[]"
        }
      ],
      "name": "setByHash",
      "outputs": [],
      "payable": false,
      "stateMutability": "nonpayable",
      "type": "function"
    },
    {
      "constant": true,
      "inputs": [
        {
          "internalType": "bytes32",
          "name": "_hash",
          "type": "bytes32"
        }
      ],
      "name": "getByHash",
      "outputs": [
        {
          "internalType": "bytes32[]",
          "name": "",
          "type": "bytes32[]"
        }
      ],
      "payable": false,
      "stateMutability": "view",
      "type": "function"
    },
    {
      "constant": true,
      "inputs": [
        {
          "internalType": "string",
          "name": "_poll",
          "type": "string"
        },
        {
          "internalType": "string",
          "name": "_mapName",
          "type": "string"
        }
      ],
      "name": "get",
      "outputs": [
        {
          "internalType": "bytes32[]",
          "name": "",
          "type": "bytes32[]"
        }
      ],
      "payable": false,
      "stateMutability": "view",
      "type": "function"
    },
    {
      "constant": false,
      "inputs": [
        {
          "internalType": "string",
          "name": "_poll",
          "type": "string"
        },
        {
          "internalType": "address",
          "name": "_staker",
          "type": "address"
        }
      ],
      "name": "getStakersProof",
      "outputs": [
        {
          "internalType": "bytes32[]",
          "name": "",
          "type": "bytes32[]"
        }
      ],
      "payable": false,
      "stateMutability": "nonpayable",
      "type": "function"
    },
    {
      "constant": false,
      "inputs": [
        {
          "internalType": "string",
          "name": "_poll",
          "type": "string"
        },
        {
          "internalType": "string",
          "name": "_mapName",
          "type": "string"
        },
        {
          "internalType": "address",
          "name": "_stakerOrZero",
          "type": "address"
        },
        {
          "internalType": "uint8",
          "name": "_vt",
          "type": "uint8"
        },
        {
          "internalType": "bytes32[]",
          "name": "data",
          "type": "bytes32[]"
        }
      ],
      "name": "getProofEmitHashesOnlyWithStaker",
      "outputs": [],
      "payable": false,
      "stateMutability": "nonpayable",
      "type": "function"
    },
    {
      "constant": false,
      "inputs": [
        {
          "internalType": "string",
          "name": "_poll",
          "type": "string"
        },
        {
          "internalType": "address",
          "name": "_staker",
          "type": "address"
        },
        {
          "internalType": "uint8",
          "name": "_vt",
          "type": "uint8"
        }
      ],
      "name": "addStaker",
      "outputs": [],
      "payable": false,
      "stateMutability": "nonpayable",
      "type": "function"
    },
    {
      "constant": true,
      "inputs": [
        {
          "internalType": "string",
          "name": "_poll",
          "type": "string"
        }
      ],
      "name": "getStakerAddresses",
      "outputs": [
        {
          "internalType": "address[]",
          "name": "",
          "type": "address[]"
        }
      ],
      "payable": false,
      "stateMutability": "view",
      "type": "function"
    },
    {
      "constant": false,
      "inputs": [
        {
          "internalType": "string",
          "name": "_poll",
          "type": "string"
        }
      ],
      "name": "getproofsAsAddresses",
      "outputs": [
        {
          "internalType": "address[][]",
          "name": "",
          "type": "address[][]"
        }
      ],
      "payable": false,
      "stateMutability": "nonpayable",
      "type": "function"
    },
    {
      "constant": false,
      "inputs": [
        {
          "internalType": "string",
          "name": "_poll",
          "type": "string"
        },
        {
          "internalType": "string",
          "name": "_mapName",
          "type": "string"
        },
        {
          "internalType": "address",
          "name": "_stakerOrZero",
          "type": "address"
        },
        {
          "internalType": "uint8",
          "name": "_vt",
          "type": "uint8"
        },
        {
          "internalType": "bytes32[]",
          "name": "_data",
          "type": "bytes32[]"
        }
      ],
      "name": "set",
      "outputs": [],
      "payable": false,
      "stateMutability": "nonpayable",
      "type": "function"
    },
    {
      "constant": false,
      "inputs": [
        {
          "internalType": "string",
          "name": "_poll",
          "type": "string"
        },
        {
          "internalType": "string",
          "name": "_mapName",
          "type": "string"
        },
        {
          "internalType": "address",
          "name": "_impersonatedStaker",
          "type": "address"
        },
        {
          "internalType": "uint8",
          "name": "_vt",
          "type": "uint8"
        },
        {
          "internalType": "bytes32[]",
          "name": "data",
          "type": "bytes32[]"
        }
      ],
      "name": "setCheckedInWithStaker",
      "outputs": [],
      "payable": false,
      "stateMutability": "nonpayable",
      "type": "function"
    },
    {
      "constant": false,
      "inputs": [
        {
          "internalType": "string",
          "name": "_poll",
          "type": "string"
        },
        {
          "internalType": "address",
          "name": "_impersonatedStaker",
          "type": "address"
        },
        {
          "internalType": "address[]",
          "name": "_newProof",
          "type": "address[]"
        }
      ],
      "name": "checkIn",
      "outputs": [],
      "payable": false,
      "stateMutability": "nonpayable",
      "type": "function"
    },
    {
      "constant": false,
      "inputs": [
        {
          "internalType": "string",
          "name": "_poll",
          "type": "string"
        },
        {
          "internalType": "address",
          "name": "_impersonatedStaker",
          "type": "address"
        },
        {
          "internalType": "address[]",
          "name": "_newProof",
          "type": "address[]"
        }
      ],
      "name": "addProof",
      "outputs": [],
      "payable": false,
      "stateMutability": "nonpayable",
      "type": "function"
    },
    {
      "constant": false,
      "inputs": [
        {
          "internalType": "string",
          "name": "_poll",
          "type": "string"
        },
        {
          "internalType": "address[]",
          "name": "_newProof",
          "type": "address[]"
        }
      ],
      "name": "addProofSelf",
      "outputs": [],
      "payable": false,
      "stateMutability": "nonpayable",
      "type": "function"
    },
    {
      "constant": false,
      "inputs": [
        {
          "internalType": "string",
          "name": "_poll",
          "type": "string"
        }
      ],
      "name": "closeProofsWindow",
      "outputs": [],
      "payable": false,
      "stateMutability": "nonpayable",
      "type": "function"
    },
    {
      "constant": false,
      "inputs": [
        {
          "internalType": "string",
          "name": "_poll",
          "type": "string"
        }
      ],
      "name": "reopenProofsWindow",
      "outputs": [],
      "payable": false,
      "stateMutability": "nonpayable",
      "type": "function"
    },
    {
      "constant": true,
      "inputs": [
        {
          "internalType": "string",
          "name": "_poll",
          "type": "string"
        }
      ],
      "name": "isProofsWindowClosed",
      "outputs": [
        {
          "internalType": "bool",
          "name": "",
          "type": "bool"
        }
      ],
      "payable": false,
      "stateMutability": "view",
      "type": "function"
    },
    {
      "constant": false,
      "inputs": [
        {
          "internalType": "string",
          "name": "_poll",
          "type": "string"
        },
        {
          "internalType": "address",
          "name": "_staker",
          "type": "address"
        },
        {
          "internalType": "uint256",
          "name": "_rep",
          "type": "uint256"
        }
      ],
      "name": "setRep",
      "outputs": [],
      "payable": false,
      "stateMutability": "nonpayable",
      "type": "function"
    },
    {
      "constant": true,
      "inputs": [
        {
          "internalType": "address",
          "name": "_staker",
          "type": "address"
        }
      ],
      "name": "getRep",
      "outputs": [
        {
          "internalType": "uint256",
          "name": "",
          "type": "uint256"
        }
      ],
      "payable": false,
      "stateMutability": "view",
      "type": "function"
    },
    {
      "constant": false,
      "inputs": [
        {
          "internalType": "string",
          "name": "_poll",
          "type": "string"
        },
        {
          "internalType": "address",
          "name": "_impersonatedStaker",
          "type": "address"
        },
        {
          "internalType": "uint256",
          "name": "_rep",
          "type": "uint256"
        },
        {
          "internalType": "uint256",
          "name": "_venueContribution",
          "type": "uint256"
        },
        {
          "internalType": "address",
          "name": "_venueContributionFor",
          "type": "address"
        }
      ],
      "name": "addStake",
      "outputs": [],
      "payable": false,
      "stateMutability": "nonpayable",
      "type": "function"
    },
    {
      "constant": true,
      "inputs": [
        {
          "internalType": "string",
          "name": "_poll",
          "type": "string"
        },
        {
          "internalType": "address",
          "name": "_staker",
          "type": "address"
        }
      ],
      "name": "totalRepStaked",
      "outputs": [
        {
          "internalType": "uint256",
          "name": "",
          "type": "uint256"
        }
      ],
      "payable": false,
      "stateMutability": "view",
      "type": "function"
    },
    {
      "constant": true,
      "inputs": [
        {
          "internalType": "string",
          "name": "_poll",
          "type": "string"
        },
        {
          "internalType": "address",
          "name": "_staker",
          "type": "address"
        }
      ],
      "name": "totalVenueContribs",
      "outputs": [
        {
          "internalType": "uint256",
          "name": "total",
          "type": "uint256"
        }
      ],
      "payable": false,
      "stateMutability": "view",
      "type": "function"
    },
    {
      "constant": false,
      "inputs": [
        {
          "internalType": "string",
          "name": "_poll",
          "type": "string"
        },
        {
          "internalType": "address",
          "name": "_staker",
          "type": "address"
        }
      ],
      "name": "removeEmptyStake",
      "outputs": [],
      "payable": false,
      "stateMutability": "nonpayable",
      "type": "function"
    },
    {
      "constant": false,
      "inputs": [
        {
          "internalType": "string",
          "name": "_poll",
          "type": "string"
        }
      ],
      "name": "refundVenueStakes",
      "outputs": [],
      "payable": false,
      "stateMutability": "nonpayable",
      "type": "function"
    },
    {
      "constant": false,
      "inputs": [
        {
          "internalType": "string",
          "name": "_poll",
          "type": "string"
        },
        {
          "internalType": "string",
          "name": "_mapName",
          "type": "string"
        },
        {
          "internalType": "uint8",
          "name": "_vt",
          "type": "uint8"
        },
        {
          "internalType": "string",
          "name": "data",
          "type": "string"
        }
      ],
      "name": "setString",
      "outputs": [],
      "payable": false,
      "stateMutability": "nonpayable",
      "type": "function"
    },
    {
      "constant": false,
      "inputs": [
        {
          "internalType": "string",
          "name": "_poll",
          "type": "string"
        },
        {
          "internalType": "bytes32",
          "name": "_reveal",
          "type": "bytes32"
        }
      ],
      "name": "refundStake",
      "outputs": [],
      "payable": false,
      "stateMutability": "nonpayable",
      "type": "function"
    },
    {
      "constant": false,
      "inputs": [
        {
          "internalType": "string",
          "name": "_poll",
          "type": "string"
        },
        {
          "internalType": "address",
          "name": "_to",
          "type": "address"
        },
        {
          "internalType": "address",
          "name": "_by",
          "type": "address"
        },
        {
          "internalType": "uint256",
          "name": "_amount",
          "type": "uint256"
        },
        {
          "internalType": "uint8",
          "name": "_repeat",
          "type": "uint8"
        }
      ],
      "name": "emitVenueStakeRefunded",
      "outputs": [],
      "payable": false,
      "stateMutability": "nonpayable",
      "type": "function"
    },
    {
      "constant": false,
      "inputs": [
        {
          "internalType": "string",
          "name": "_poll",
          "type": "string"
        },
        {
          "internalType": "address",
          "name": "_to",
          "type": "address"
        },
        {
          "internalType": "address",
          "name": "_by",
          "type": "address"
        },
        {
          "internalType": "uint256",
          "name": "_amount",
          "type": "uint256"
        }
      ],
      "name": "emitVenuePotRefunded",
      "outputs": [],
      "payable": false,
      "stateMutability": "nonpayable",
      "type": "function"
    },
    {
      "constant": false,
      "inputs": [
        {
          "internalType": "address",
          "name": "_staker",
          "type": "address"
        },
        {
          "internalType": "uint256",
          "name": "_staked",
          "type": "uint256"
        },
        {
          "internalType": "uint256",
          "name": "_refunded",
          "type": "uint256"
        }
      ],
      "name": "emitrepRefunded",
      "outputs": [],
      "payable": false,
      "stateMutability": "nonpayable",
      "type": "function"
    },
    {
      "constant": false,
      "inputs": [
        {
          "internalType": "address",
          "name": "_staker",
          "type": "address"
        }
      ],
      "name": "emitrefundFail",
      "outputs": [],
      "payable": false,
      "stateMutability": "nonpayable",
      "type": "function"
    },
    {
      "constant": false,
      "inputs": [
        {
          "internalType": "address",
          "name": "_pollContract",
          "type": "address"
        },
        {
          "internalType": "string",
          "name": "_poll",
          "type": "string"
        },
        {
          "internalType": "bytes32",
          "name": "_reveal",
          "type": "bytes32"
        }
      ],
      "name": "validate",
      "outputs": [
        {
          "internalType": "bool",
          "name": "",
          "type": "bool"
        }
      ],
      "payable": false,
      "stateMutability": "nonpayable",
      "type": "function"
    },
    {
      "constant": true,
      "inputs": [],
      "name": "proofType",
      "outputs": [
        {
          "internalType": "uint8",
          "name": "",
          "type": "uint8"
        }
      ],
      "payable": false,
      "stateMutability": "pure",
      "type": "function"
    },
    {
      "constant": true,
      "inputs": [
        {
          "internalType": "bytes",
          "name": "_bytes",
          "type": "bytes"
        }
      ],
      "name": "bytesToAddress",
      "outputs": [
        {
          "internalType": "address",
          "name": "",
          "type": "address"
        }
      ],
      "payable": false,
      "stateMutability": "pure",
      "type": "function"
    },
    {
      "constant": true,
      "inputs": [
        {
          "internalType": "address",
          "name": "account",
          "type": "address"
        }
      ],
      "name": "toString",
      "outputs": [
        {
          "internalType": "string",
          "name": "",
          "type": "string"
        }
      ],
      "payable": false,
      "stateMutability": "pure",
      "type": "function"
    },
    {
      "constant": true,
      "inputs": [
        {
          "internalType": "uint256",
          "name": "value",
          "type": "uint256"
        }
      ],
      "name": "toString",
      "outputs": [
        {
          "internalType": "string",
          "name": "",
          "type": "string"
        }
      ],
      "payable": false,
      "stateMutability": "pure",
      "type": "function"
    },
    {
      "constant": true,
      "inputs": [
        {
          "internalType": "bytes",
          "name": "data",
          "type": "bytes"
        },
        {
          "internalType": "uint16",
          "name": "len",
          "type": "uint16"
        }
      ],
      "name": "toString",
      "outputs": [
        {
          "internalType": "string",
          "name": "",
          "type": "string"
        }
      ],
      "payable": false,
      "stateMutability": "pure",
      "type": "function"
    },
    {
      "constant": true,
      "inputs": [
        {
          "internalType": "bytes32",
          "name": "value",
          "type": "bytes32"
        }
      ],
      "name": "toString",
      "outputs": [
        {
          "internalType": "string",
          "name": "",
          "type": "string"
        }
      ],
      "payable": false,
      "stateMutability": "pure",
      "type": "function"
    },
    {
      "constant": true,
      "inputs": [
        {
          "internalType": "bytes32",
          "name": "_bytes32",
          "type": "bytes32"
        }
      ],
      "name": "bytes32ToBytes",
      "outputs": [
        {
          "internalType": "bytes",
          "name": "",
          "type": "bytes"
        }
      ],
      "payable": false,
      "stateMutability": "pure",
      "type": "function"
    },
    {
      "constant": true,
      "inputs": [
        {
          "internalType": "bytes",
          "name": "b",
          "type": "bytes"
        }
      ],
      "name": "bytesToBytes32",
      "outputs": [
        {
          "internalType": "bytes32",
          "name": "bts",
          "type": "bytes32"
        }
      ],
      "payable": false,
      "stateMutability": "pure",
      "type": "function"
    },
    {
      "constant": true,
      "inputs": [
        {
          "internalType": "bytes32",
          "name": "_bytes32",
          "type": "bytes32"
        }
      ],
      "name": "bytes32ToString",
      "outputs": [
        {
          "internalType": "string",
          "name": "",
          "type": "string"
        }
      ],
      "payable": false,
      "stateMutability": "pure",
      "type": "function"
    },
    {
      "constant": true,
      "inputs": [
        {
          "internalType": "bytes32[]",
          "name": "data",
          "type": "bytes32[]"
        }
      ],
      "name": "bytes32ArrayToString",
      "outputs": [
        {
          "internalType": "string",
          "name": "",
          "type": "string"
        }
      ],
      "payable": false,
      "stateMutability": "pure",
      "type": "function"
    },
    {
      "constant": true,
      "inputs": [
        {
          "internalType": "string",
          "name": "source",
          "type": "string"
        }
      ],
      "name": "stringToBytes32Array",
      "outputs": [
        {
          "internalType": "bytes32[]",
          "name": "result",
          "type": "bytes32[]"
        }
      ],
      "payable": false,
      "stateMutability": "pure",
      "type": "function"
    },
    {
      "constant": true,
      "inputs": [
        {
          "internalType": "bytes",
          "name": "data",
          "type": "bytes"
        }
      ],
      "name": "bytesSplit32",
      "outputs": [
        {
          "internalType": "bytes32",
          "name": "",
          "type": "bytes32"
        },
        {
          "internalType": "bytes",
          "name": "",
          "type": "bytes"
        }
      ],
      "payable": false,
      "stateMutability": "pure",
      "type": "function"
    },
    {
      "constant": false,
      "inputs": [
        {
          "internalType": "bytes4",
          "name": "fnNameHash",
          "type": "bytes4"
        },
        {
          "internalType": "string",
          "name": "poll",
          "type": "string"
        },
        {
          "internalType": "uint256",
          "name": "valid",
          "type": "uint256"
        },
        {
          "internalType": "uint8",
          "name": "vt",
          "type": "uint8"
        }
      ],
      "name": "crossContractCall",
      "outputs": [
        {
          "internalType": "bytes32[]",
          "name": "",
          "type": "bytes32[]"
        }
      ],
      "payable": false,
      "stateMutability": "nonpayable",
      "type": "function"
    }
  ],
  "bytecode": "0x6080604052739d26a8a5db7dc10689692caf8d52c912958409cf600a60006101000a81548173ffffffffffffffffffffffffffffffffffffffff021916908373ffffffffffffffffffffffffffffffffffffffff16021790555034801561006557600080fd5b50615ce080620000766000396000f3fe6080604052600436106102c95760003560e01c80637514d75011610175578063a1bac85f116100dc578063c591bb1411610095578063e40a42ab1161006f578063e40a42ab14610c27578063e68043df14610c64578063ed3d320514610c8d578063f4602b2e14610cb6576102c9565b8063c591bb1414610bac578063d76db9d614610bd5578063dc0f7df314610bfe576102c9565b8063a1bac85f14610a66578063a2dd3d4714610aa3578063b11a19e814610ae0578063bf49657a14610b1d578063bf6cd60114610b46578063bfe370d914610b6f576102c9565b80638e3dca0b1161012e5780638e3dca0b146109205780638fee464b1461095d57806391652043146109865780639201de55146109c35780639478485e14610a005780639cbc87a314610a29576102c9565b80637514d750146107ee5780637682484d146108175780637c34d10814610840578063833b3d0e1461087d578063898fa03b146108a65780638a9392c0146108e3576102c9565b806342526e4e116102345780635a31204c116101ed57806363039be8116101c757806363039be8146107205780636622f2cf1461074b5780636900a3ae146107745780636a2ebc3f146107b1576102c9565b80635a31204c146106915780635d8636c0146106ce5780636026ad9c146106f7576102c9565b806342526e4e146105305780634665ecb41461056d5780634a0f2fd7146105aa5780634c0999c7146105ee57806356ca623e1461062b57806358666c0414610668576102c9565b80631b3ed722116102865780631b3ed7221461040e57806323e512101461043a57806326a9cdf7146104635780632742bea8146104a15780633e10510b146104ca578063405a6adb14610507576102c9565b806305af5d35146102d3578063062ffb07146102fe57806309421c25146103275780630dd990c7146103505780630f58bb421461038d57806310a688e3146103ca575b6102d1610cdf565b005b3480156102df57600080fd5b506102e8610d2c565b6040516102f59190615788565b60405180910390f35b34801561030a57600080fd5b50610325600480360361032091908101906148ea565b610d35565b005b34801561033357600080fd5b5061034e600480360361034991908101906147be565b610ea9565b005b34801561035c57600080fd5b5061037760048036036103729190810190614443565b610eb8565b60405161038491906154aa565b60405180910390f35b34801561039957600080fd5b506103b460048036036103af9190810190614443565b611047565b6040516103c191906154ee565b60405180910390f35b3480156103d657600080fd5b506103f160048036036103ec9190810190614443565b61107f565b6040516104059897969594939291906152df565b60405180910390f35b34801561041a57600080fd5b506104236111af565b60405161043192919061575f565b60405180910390f35b34801561044657600080fd5b50610461600480360361045c9190810190614484565b6111c4565b005b34801561046f57600080fd5b5061048a6004803603610485919081019061436d565b6111c8565b604051610498929190615524565b60405180910390f35b3480156104ad57600080fd5b506104c860048036036104c391908101906149a9565b611353565b005b3480156104d657600080fd5b506104f160048036036104ec919081019061487e565b6113c1565b6040516104fe91906154cc565b60405180910390f35b34801561051357600080fd5b5061052e60048036036105299190810190614661565b611466565b005b34801561053c57600080fd5b506105576004803603610552919081019061436d565b6114af565b6040516105649190615272565b60405180910390f35b34801561057957600080fd5b50610594600480360361058f9190810190614443565b6114d4565b6040516105a19190615728565b60405180910390f35b3480156105b657600080fd5b506105d160048036036105cc9190810190614402565b611556565b6040516105e59897969594939291906153d2565b60405180910390f35b3480156105fa57600080fd5b5061061560048036036106109190810190614275565b61162c565b6040516106229190615554565b60405180910390f35b34801561063757600080fd5b50610652600480360361064d9190810190614155565b6116d4565b60405161065f9190615576565b60405180910390f35b34801561067457600080fd5b5061068f600480360361068a9190810190614443565b611707565b005b34801561069d57600080fd5b506106b860048036036106b39190810190614443565b611741565b6040516106c59190615488565b60405180910390f35b3480156106da57600080fd5b506106f560048036036106f091908101906145e2565b611857565b005b34801561070357600080fd5b5061071e6004803603610719919081019061429e565b6119f1565b005b34801561072c57600080fd5b50610735611a1d565b6040516107429190615744565b60405180910390f35b34801561075757600080fd5b50610772600480360361076d9190810190614443565b611a27565b005b34801561078057600080fd5b5061079b60048036036107969190810190614a54565b612278565b6040516107a89190615576565b60405180910390f35b3480156107bd57600080fd5b506107d860048036036107d39190810190614155565b6122ab565b6040516107e59190615744565b60405180910390f35b3480156107fa57600080fd5b5061081560048036036108109190810190614443565b6122f4565b005b34801561082357600080fd5b5061083e600480360361083991908101906148ea565b61236f565b005b34801561084c57600080fd5b5061086760048036036108629190810190614484565b612493565b6040516108749190615744565b60405180910390f35b34801561088957600080fd5b506108a4600480360361089f91908101906144d8565b61253f565b005b3480156108b257600080fd5b506108cd60048036036108c89190810190614484565b6125c3565b6040516108da91906154cc565b60405180910390f35b3480156108ef57600080fd5b5061090a6004803603610905919081019061417e565b612770565b60405161091791906154ee565b60405180910390f35b34801561092c57600080fd5b50610947600480360361094291908101906142f2565b612a13565b60405161095491906154cc565b60405180910390f35b34801561096957600080fd5b50610984600480360361097f9190810190614443565b612a8f565b005b34801561099257600080fd5b506109ad60048036036109a89190810190614443565b612b05565b6040516109ba91906154cc565b60405180910390f35b3480156109cf57600080fd5b506109ea60048036036109e59190810190614275565b612b6b565b6040516109f79190615576565b60405180910390f35b348015610a0c57600080fd5b50610a276004803603610a2291908101906148ea565b612b82565b005b348015610a3557600080fd5b50610a506004803603610a4b9190810190614234565b612cce565b604051610a5d9190615576565b60405180910390f35b348015610a7257600080fd5b50610a8d6004803603610a8891908101906143ae565b612e91565b604051610a9a9190615576565b60405180910390f35b348015610aaf57600080fd5b50610aca6004803603610ac59190810190614275565b61310e565b604051610ad791906154cc565b60405180910390f35b348015610aec57600080fd5b50610b076004803603610b029190810190614275565b613179565b604051610b149190615576565b60405180910390f35b348015610b2957600080fd5b50610b446004803603610b3f91908101906141e5565b6131ac565b005b348015610b5257600080fd5b50610b6d6004803603610b6891908101906145e2565b6131ec565b005b348015610b7b57600080fd5b50610b966004803603610b91919081019061436d565b6133cc565b604051610ba39190615509565b60405180910390f35b348015610bb857600080fd5b50610bd36004803603610bce9190810190614553565b6133df565b005b348015610be157600080fd5b50610bfc6004803603610bf7919081019061482a565b6134df565b005b348015610c0a57600080fd5b50610c256004803603610c209190810190614155565b61381a565b005b348015610c3357600080fd5b50610c4e6004803603610c499190810190614484565b613854565b604051610c5b9190615744565b60405180910390f35b348015610c7057600080fd5b50610c8b6004803603610c869190810190614443565b6138c0565b005b348015610c9957600080fd5b50610cb46004803603610caf9190810190614757565b6138fd565b005b348015610cc257600080fd5b50610cdd6004803603610cd891908101906146c8565b6139be565b005b60606000368080601f016020809104026020016040519081016040528093929190818152602001838380828437600081840152601f19601f82011690508083019250505050505050905050565b60006001905090565b60008073ffffffffffffffffffffffffffffffffffffffff168473ffffffffffffffffffffffffffffffffffffffff161415610da55785610d7586613d14565b84604051602001610d889392919061521e565b604051602081830303815290604052805190602001209050610de0565b85610daf86613d14565b8560601b85604051602001610dc794939291906151d4565b6040516020818303038152906040528051906020012090505b8151604051908082528060200260200182016040528015610e105781602001602082028038833980820191505090505b50600260008381526020019081526020016000209080519060200190610e37929190613da1565b5060008090505b82518161ffff161015610ea057828161ffff1681518110610e5b57fe5b6020026020010151600260008481526020019081526020016000208261ffff1681548110610e8557fe5b90600052602060002001819055508080600101915050610e3e565b50505050505050565b610eb4823383611857565b5050565b606080610ec483611741565b905060608151604051908082528060200260200182016040528015610efd57816020015b6060815260200190600190039081610ee85790505b509050606060008090505b83518161ffff16101561103b57610f3686858361ffff1681518110610f2957fe5b60200260200101516125c3565b91508151604051908082528060200260200182016040528015610f685781602001602082028038833980820191505090505b50838261ffff1681518110610f7957fe5b602002602001018190525060008090505b82518161ffff16101561102d57610fbf610fba848361ffff1681518110610fad57fe5b602002602001015161162c565b6114af565b848361ffff1681518110610fcf57fe5b60200260200101518261ffff1681518110610fe657fe5b602002602001019073ffffffffffffffffffffffffffffffffffffffff16908173ffffffffffffffffffffffffffffffffffffffff16815250508080600101915050610f8a565b508080600101915050610f08565b50819350505050919050565b60006003826040516110599190615173565b908152602001604051809103902060070160009054906101000a900460ff169050919050565b6000806000806000806000606060038960405161109c9190615173565b908152602001604051809103902060000160009054906101000a900473ffffffffffffffffffffffffffffffffffffffff1697506003896040516110e09190615173565b90815260200160405180910390206002015496506003896040516111049190615173565b90815260200160405180910390206003015495506003896040516111289190615173565b908152602001604051809103902060040160149054906101000a900460ff1694506003896040516111599190615173565b908152602001604051809103902060070160009054906101000a900460ff1691506501728eee956093506501728ef01c009250878787878787878797509750975097509750975097509750919395975091939597565b60008060056004819150809050915091509091565b5050565b6000606060006020905060008090508160ff16855111156111ed578160ff1685510390505b600060608360ff166040519080825280601f01601f1916602001820160405280156112275781602001600182028038833980820191505090505b5090506060836040519080825280601f01601f19166020018201604052801561125f5781602001600182028038833980820191505090505b50905060008090505b6001895103811161133a578560ff168110156112d55788818151811061128a57fe5b602001015160f81c60f81b8382815181106112a157fe5b60200101907effffffffffffffffffffffffffffffffffffffffffffffffffffffffffffff1916908160001a90535061132d565b8881815181106112e157fe5b602001015160f81c60f81b828760ff168303815181106112fd57fe5b60200101907effffffffffffffffffffffffffffffffffffffffffffffffffffffffffffff1916908160001a9053505b8080600101915050611268565b50611344826133cc565b81965096505050505050915091565b60008461135f85613d14565b846040516020016113729392919061521e565b60405160208183030381529060405280519060200120905061139382612b05565b6002600083815260200190815260200160002090805190602001906113b9929190613da1565b505050505050565b60606000836113cf84613d14565b60016040516020016113e39392919061521e565b6040516020818303038152906040528051906020012090506002600082815260200190815260200160002080548060200260200160405190810160405280929190818152602001828054801561145857602002820191906000526020600020905b815481526020019060010190808311611444575b505050505091505092915050565b80600160008473ffffffffffffffffffffffffffffffffffffffff1673ffffffffffffffffffffffffffffffffffffffff16815260200190815260200160002081905550505050565b6000806c01000000000000000000000000600060208501015104905080915050919050565b6114dc613dee565b6103e8816020018181525050619c40816040018181525050619c4081606001818152505060038160a0019060ff16908160ff168152505060038160c0019060ff16908160ff16815250506501728eee95608160e0015160000181815250506501728ef01c008160e001516020018181525050809050919050565b6003818051602081018201805184825260208301602085012081835280955050505050506000915090508060000160009054906101000a900473ffffffffffffffffffffffffffffffffffffffff16908060010154908060020154908060030154908060040160009054906101000a900473ffffffffffffffffffffffffffffffffffffffff16908060040160149054906101000a900460ff16908060050160405180604001604052908160008201548152602001600182015481525050908060070160009054906101000a900460ff16905088565b60608060206040519080825280601f01601f1916602001820160405280156116635781602001600182028038833980820191505090505b50905060005b60208110156116ca5783816020811061167e57fe5b1a60f81b82828151811061168e57fe5b60200101907effffffffffffffffffffffffffffffffffffffffffffffffffffffffffffff1916908160001a9053508080600101915050611669565b5080915050919050565b6060611700826040516020016116ea919061513d565b6040516020818303038152906040526005612e91565b9050919050565b7fbef39ac07ea6b8a7a08590612f317b1db2e9821fea4739345478345d853321e7816040516117369190615576565b60405180910390a150565b606080611783836040518060400160405280600681526020017f7374616b657200000000000000000000000000000000000000000000000000008152506113c1565b9050606081516040519080825280602002602001820160405280156117b75781602001602082028038833980820191505090505b50905060008090505b82518161ffff16101561184c576117f56117f0848361ffff16815181106117e357fe5b602002602001015161162c565b6114af565b828261ffff168151811061180557fe5b602002602001019073ffffffffffffffffffffffffffffffffffffffff16908173ffffffffffffffffffffffffffffffffffffffff168152505080806001019150506117c0565b508092505050919050565b60008290506060825160405190808252806020026020018201604052801561188e5781602001602082028038833980820191505090505b5090506000856118d26040518060400160405280600581526020017f70726f6f66000000000000000000000000000000000000000000000000000000815250613d14565b8660601b60016040516020016118eb94939291906151d4565b60405160208183030381529060405280519060200120905060008090505b84518161ffff16101561196957848161ffff168151811061192657fe5b602002602001015160601b6bffffffffffffffffffffffff1916838261ffff168151811061195057fe5b6020026020010181815250508080600101915050611909565b506000600260008381526020019081526020016000208054905011156119c1577fd0adafca5f88ebee186251179caad6d29ee5ad555a79bfe4d8a00e3a87988a2b836040516119b89190615272565b60405180910390a15b816002600083815260200190815260200160002090805190602001906119e8929190613da1565b50505050505050565b80600260008481526020019081526020016000209080519060200190611a18929190613da1565b505050565b6000610bb8905090565b806060611a3382611741565b9050600080600090505b8251811015611a9f573373ffffffffffffffffffffffffffffffffffffffff16838281518110611a6957fe5b602002602001015173ffffffffffffffffffffffffffffffffffffffff161415611a9257600191505b8080600101915050611a3d565b5080611ae0576040517f08c379a0000000000000000000000000000000000000000000000000000000008152600401611ad7906156c8565b60405180910390fd5b6060611aeb85611741565b905060008151600387604051611b019190615173565b90815260200160405180910390206002015481611b1a57fe5b0590506000600387604051611b2f9190615173565b908152602001604051809103902060030154905060006104d29050600080905060008090506000841415611b6857505050505050612272565b600060038b604051611b7a9190615173565b9081526020016040518091039020600201541280611bd9575060038a604051611ba39190615173565b90815260200160405180910390206003015460038b604051611bc59190615173565b908152602001604051809103902060020154105b15611c265760038a604051611bee9190615173565b90815260200160405180910390206002015460038b604051611c109190615173565b9081526020016040518091039020600301540392505b600091505b85518261ffff161015612152576000809050611c45613e74565b60606002604051908082528060200260200182016040528015611c775781602001602082028038833980820191505090505b50905060606002604051908082528060200260200182016040528015611cac5781602001602082028038833980820191505090505b509050600082600081518110611cbe57fe5b602002602001019073ffffffffffffffffffffffffffffffffffffffff16908173ffffffffffffffffffffffffffffffffffffffff16815250503382600181518110611d0657fe5b602002602001019073ffffffffffffffffffffffffffffffffffffffff16908173ffffffffffffffffffffffffffffffffffffffff1681525050600094505b81518561ffff1610156120b75760038e604051611d629190615173565b908152602001604051809103902060080160008b8861ffff1681518110611d8557fe5b602002602001015173ffffffffffffffffffffffffffffffffffffffff1673ffffffffffffffffffffffffffffffffffffffff1681526020019081526020016000206003016000838761ffff1681518110611ddc57fe5b602002602001015173ffffffffffffffffffffffffffffffffffffffff1673ffffffffffffffffffffffffffffffffffffffff16815260200190815260200160002054818661ffff1681518110611e2f57fe5b602002602001018181525050600083600060038110611e4a57fe5b60200201818152505086818661ffff1681518110611e6457fe5b60200260200101510283600160038110611e7a57fe5b6020020181815250506000881115611ec2578783600160038110611e9a57fe5b602002015181611ea657fe5b0483600260038110611eb457fe5b602002018181525050611edd565b620d903883600260038110611ed357fe5b6020020181815250505b600060038f604051611eef9190615173565b908152602001604051809103902060080160008c8961ffff1681518110611f1257fe5b602002602001015173ffffffffffffffffffffffffffffffffffffffff1673ffffffffffffffffffffffffffffffffffffffff1681526020019081526020016000206003016000848861ffff1681518110611f6957fe5b602002602001015173ffffffffffffffffffffffffffffffffffffffff1673ffffffffffffffffffffffffffffffffffffffff168152602001908152602001600020819055508360038f604051611fc09190615173565b908152602001604051809103902060080160008073ffffffffffffffffffffffffffffffffffffffff1673ffffffffffffffffffffffffffffffffffffffff16815260200190815260200160002060030160008073ffffffffffffffffffffffffffffffffffffffff1673ffffffffffffffffffffffffffffffffffffffff168152602001908152602001600020819055508360038f6040516120639190615173565b908152602001604051809103902060030154106120aa578360038f60405161208b9190615173565b9081526020016040518091039020600301600082825403925050819055505b8480600101955050611d45565b60008561ffff161115612141576120e58a8761ffff16815181106120d757fe5b602002602001015185613d25565b15612140577f5ee9688c98e0f205ec05ae1bb4703913ce6aaffae0ed525d1e5e2303750811e78e8b8861ffff168151811061211c57fe5b602002602001015133600060405161213794939291906155c8565b60405180910390a15b5b505050508180600101925050611c2b565b600060038b6040516121649190615173565b908152602001604051809103902060080160008073ffffffffffffffffffffffffffffffffffffffff1673ffffffffffffffffffffffffffffffffffffffff16815260200190815260200160002060030160008073ffffffffffffffffffffffffffffffffffffffff1673ffffffffffffffffffffffffffffffffffffffff16815260200190815260200160002081905550600060038b6040516122089190615173565b908152602001604051809103902060080160003373ffffffffffffffffffffffffffffffffffffffff1673ffffffffffffffffffffffffffffffffffffffff16815260200190815260200160002060000154141561226b5761226a8a336111c4565b5b5050505050505b50505050565b60606122a48260405160200161228e9190615257565b6040516020818303038152906040526000612e91565b9050919050565b6000600160008373ffffffffffffffffffffffffffffffffffffffff1673ffffffffffffffffffffffffffffffffffffffff168152602001908152602001600020549050919050565b60016003826040516123069190615173565b9081526020016040518091039020600101819055506130d460038260405161232e9190615173565b9081526020016040518091039020600201819055506201b7746003826040516123579190615173565b90815260200160405180910390206003018190555050565b60008561237b86613d14565b8585604051602001612390949392919061518a565b6040516020818303038152906040528051906020012090507fee5443e0769176cacb5e7cebe33b561327ef2a06863e7fa72ec9be7cc2d82b60866123d387613d14565b86866040516020016123e8949392919061518a565b6040516020818303038152906040526040516124049190615554565b60405180910390a17fa457a29197b7db5513e7fa40d359d53b392afa4785e7b4e899898a92798d48498160405161243b9190615509565b60405180910390a17fd2fc72c97aeb0e8367f33ed670eff5bed73dab77cab530bd44311a95ae547398868686866124728b8a6125c3565b604051612483959493929190615660565b60405180910390a1505050505050565b60006003836040516124a59190615173565b908152602001604051809103902060080160008373ffffffffffffffffffffffffffffffffffffffff1673ffffffffffffffffffffffffffffffffffffffff16815260200190815260200160002060030160008373ffffffffffffffffffffffffffffffffffffffff1673ffffffffffffffffffffffffffffffffffffffff16815260200190815260200160002054905080905092915050565b7f5ee9688c98e0f205ec05ae1bb4703913ce6aaffae0ed525d1e5e2303750811e7846003866040516125719190615173565b908152602001604051809103902060040160009054906101000a900473ffffffffffffffffffffffffffffffffffffffff1684846040516125b59493929190615614565b60405180910390a150505050565b60606000836126066040518060400160405280600581526020017f70726f6f66000000000000000000000000000000000000000000000000000000815250613d14565b84600160405160200161261c949392919061518a565b6040516020818303038152906040528051906020012090507fee5443e0769176cacb5e7cebe33b561327ef2a06863e7fa72ec9be7cc2d82b60846126946040518060400160405280600581526020017f70726f6f66000000000000000000000000000000000000000000000000000000815250613d14565b8560016040516020016126aa949392919061518a565b6040516020818303038152906040526040516126c69190615554565b60405180910390a17fa457a29197b7db5513e7fa40d359d53b392afa4785e7b4e899898a92798d4849816040516126fd9190615509565b60405180910390a16002600082815260200190815260200160002080548060200260200160405190810160405280929190818152602001828054801561276257602002820191906000526020600020905b81548152602001906001019080831161274e575b505050505091505092915050565b600060019050612a0c565b85518461ffff16101561291b57600091503373ffffffffffffffffffffffffffffffffffffffff16868561ffff16815181106127b357fe5b602002602001015173ffffffffffffffffffffffffffffffffffffffff1614156127db578392505b60008090505b858561ffff16815181106127f157fe5b60200260200101515181101561290d573373ffffffffffffffffffffffffffffffffffffffff16868661ffff168151811061282857fe5b6020026020010151828151811061283b57fe5b602002602001015173ffffffffffffffffffffffffffffffffffffffff16141561286457600192505b60096000878761ffff168151811061287857fe5b6020026020010151838151811061288b57fe5b602002602001015173ffffffffffffffffffffffffffffffffffffffff1673ffffffffffffffffffffffffffffffffffffffff168152602001908152602001600020600081819054906101000a900461ffff168092919060010191906101000a81548161ffff021916908361ffff1602179055505080806001019150506127e1565b50838060010194505061277b565b8060ff16600960003373ffffffffffffffffffffffffffffffffffffffff1673ffffffffffffffffffffffffffffffffffffffff16815260200190815260200160002060009054906101000a900461ffff1661ffff16101580156129f157506002600960003373ffffffffffffffffffffffffffffffffffffffff1673ffffffffffffffffffffffffffffffffffffffff16815260200190815260200160002060009054906101000a900461ffff1661ffff16868661ffff16815181106129de57fe5b602002602001015151816129ee57fe5b04105b15612a055760019650505050505050612a0c565b5050505050505b9392505050565b60606000600a60009054906101000a900473ffffffffffffffffffffffffffffffffffffffff1690507f1ff50e4650f7f1e5b26a5f5e921b803deee4a95a1b6ef46e05992b3bc1dcdb8c60405160405180910390a160405136600082376000803683855af43d806000843e8160008114612a8b578184f35b8184fd5b6001600382604051612aa19190615173565b908152602001604051809103902060070160006101000a81548160ff0219169083151502179055507fc2b1ad619f75c5b190b6f26a4b118a5ec58ad98a0a76cef82a67099f76c033368133604051612afa929190615598565b60405180910390a150565b606060006001905060008090505b8161ffff168161ffff1611612b61576000600182016020029050600081860151905080858461ffff1681518110612b4657fe5b60200260200101818152505050508080600101915050612b13565b5081915050919050565b606080612b778361162c565b905080915050919050565b600085612b8e86613d14565b8585604051602001612ba3949392919061518a565b6040516020818303038152906040528051906020012090507fee5443e0769176cacb5e7cebe33b561327ef2a06863e7fa72ec9be7cc2d82b6086612be687613d14565b8686604051602001612bfb949392919061518a565b604051602081830303815290604052604051612c179190615554565b60405180910390a17fa457a29197b7db5513e7fa40d359d53b392afa4785e7b4e899898a92798d484981604051612c4e9190615509565b60405180910390a181600260008381526020019081526020016000209080519060200190612c7d929190613da1565b507fd2fc72c97aeb0e8367f33ed670eff5bed73dab77cab530bd44311a95ae54739886868686612cad8b8a6125c3565b604051612cbe959493929190615660565b60405180910390a1505050505050565b60608060208351026040519080825280601f01601f191660200182016040528015612d085781602001600182028038833980820191505090505b50905060008060009050600090505b8451811015612de15760008090505b6020811015612dd35760008160080260020a878481518110612d4457fe5b602002602001015160001c0260001b9050600060f81b817effffffffffffffffffffffffffffffffffffffffffffffffffffffffffffff191614612dc55780858581518110612d8f57fe5b60200101907effffffffffffffffffffffffffffffffffffffffffffffffffffffffffffff1916908160001a9053506001840193505b508080600101915050612d26565b508080600101915050612d17565b6060826040519080825280601f01601f191660200182016040528015612e165781602001600182028038833980820191505090505b509050600091505b82821015612e8557838281518110612e3257fe5b602001015160f81c60f81b818381518110612e4957fe5b60200101907effffffffffffffffffffffffffffffffffffffffffffffffffffffffffffff1916908160001a9053508180600101925050612e1e565b80945050505050919050565b6060806040518060400160405280601081526020017f3031323334353637383961626364656600000000000000000000000000000000815250905060006014905060606002820260020161ffff166040519080825280601f01601f191660200182016040528015612f115781602001600182028038833980820191505090505b5090507f300000000000000000000000000000000000000000000000000000000000000081600081518110612f4257fe5b60200101907effffffffffffffffffffffffffffffffffffffffffffffffffffffffffffff1916908160001a9053507f780000000000000000000000000000000000000000000000000000000000000081600181518110612f9f57fe5b60200101907effffffffffffffffffffffffffffffffffffffffffffffffffffffffffffff1916908160001a90535060008090505b8261ffff1681101561310157836004888381518110612fef57fe5b602001015160f81c60f81b7effffffffffffffffffffffffffffffffffffffffffffffffffffffffffffff1916901c60f81c60ff168151811061302e57fe5b602001015160f81c60f81b82600283026002018151811061304b57fe5b60200101907effffffffffffffffffffffffffffffffffffffffffffffffffffffffffffff1916908160001a90535083600f60f81b88838151811061308c57fe5b602001015160f81c60f81b1660f81c60ff16815181106130a857fe5b602001015160f81c60f81b8260028302600301815181106130c557fe5b60200101907effffffffffffffffffffffffffffffffffffffffffffffffffffffffffffff1916908160001a9053508080600101915050612fd4565b5080935050505092915050565b60606002600083815260200190815260200160002080548060200260200160405190810160405280929190818152602001828054801561316d57602002820191906000526020600020905b815481526020019060010190808311613159575b50505050509050919050565b60606131a58260405160200161318f9190615158565b6040516020818303038152906040526000612e91565b9050919050565b7f391dd8dd49c61a65c7ebe8745ea4c81bc4d5a6dd59d8bda3ba1f9a9114bf64eb8383836040516131df93929190615451565b60405180910390a1505050565b600082905060006003856040516132039190615173565b908152602001604051809103902060090160008373ffffffffffffffffffffffffffffffffffffffff1673ffffffffffffffffffffffffffffffffffffffff16815260200190815260200160002060009054906101000a900461ffff169050600080905060006060855160405190808252806020026020018201604052801561329b5781602001602082028038833980820191505090505b509050600091505b85518261ffff16101561330357858261ffff16815181106132c057fe5b602002602001015160601b6bffffffffffffffffffffffff1916818361ffff16815181106132ea57fe5b60200260200101818152505081806001019250506132a3565b613346886040518060400160405280600581526020017f70726f6f6600000000000000000000000000000000000000000000000000000081525087600185610d35565b6001840160038960405161335a9190615173565b908152602001604051809103902060090160008773ffffffffffffffffffffffffffffffffffffffff1673ffffffffffffffffffffffffffffffffffffffff16815260200190815260200160002060006101000a81548161ffff021916908361ffff1602179055505050505050505050565b6000806020830151905080915050919050565b60008090505b60008260ff161180156133fd57508160ff168160ff16105b1561344c577f5ee9688c98e0f205ec05ae1bb4703913ce6aaffae0ed525d1e5e2303750811e7868686866040516134379493929190615614565b60405180910390a180806001019150506133e5565b5060058160ff1614156134d8577f5ee9688c98e0f205ec05ae1bb4703913ce6aaffae0ed525d1e5e2303750811e78560038760405161348b9190615173565b908152602001604051809103902060040160009054906101000a900473ffffffffffffffffffffffffffffffffffffffff1685856040516134cf9493929190615614565b60405180910390a15b5050505050565b6134eb60008383612770565b613561577ff79d39278918f1a3dc8522bfdea96d506ed15dd2cc97156b182f5c8895ab7b713360405161351e919061528d565b60405180910390a16040517f08c379a000000000000000000000000000000000000000000000000000000000815260040161355890615708565b60405180910390fd5b60008061356c6111af565b915091506000816135e76003876040516135869190615173565b908152602001604051809103902060080160003373ffffffffffffffffffffffffffffffffffffffff1673ffffffffffffffffffffffffffffffffffffffff1681526020019081526020016000206000015485613d3190919063ffffffff16565b816135ee57fe5b0490506135f9611a1d565b81600160003373ffffffffffffffffffffffffffffffffffffffff1673ffffffffffffffffffffffffffffffffffffffff168152602001908152602001600020540111156136a6576003856040516136519190615173565b908152602001604051809103902060080160003373ffffffffffffffffffffffffffffffffffffffff1673ffffffffffffffffffffffffffffffffffffffff1681526020019081526020016000206000015490505b60006003866040516136b89190615173565b908152602001604051809103902060080160003373ffffffffffffffffffffffffffffffffffffffff1673ffffffffffffffffffffffffffffffffffffffff1681526020019081526020016000206000018190555080600160003373ffffffffffffffffffffffffffffffffffffffff1673ffffffffffffffffffffffffffffffffffffffff168152602001908152602001600020600082825401925050819055507f391dd8dd49c61a65c7ebe8745ea4c81bc4d5a6dd59d8bda3ba1f9a9114bf64eb3360038760405161378c9190615173565b908152602001604051809103902060080160003373ffffffffffffffffffffffffffffffffffffffff1673ffffffffffffffffffffffffffffffffffffffff16815260200190815260200160002060000154836040516137ee939291906152a8565b60405180910390a160006138028633612493565b14156138135761381285336111c4565b5b5050505050565b7ff79d39278918f1a3dc8522bfdea96d506ed15dd2cc97156b182f5c8895ab7b71816040516138499190615272565b60405180910390a150565b60006003836040516138669190615173565b908152602001604051809103902060080160008373ffffffffffffffffffffffffffffffffffffffff1673ffffffffffffffffffffffffffffffffffffffff16815260200190815260200160002060000154905092915050565b60006003826040516138d29190615173565b908152602001604051809103902060070160006101000a81548160ff02191690831515021790555050565b60008361393e6040518060400160405280600681526020017f7374616b65720000000000000000000000000000000000000000000000000000815250613d14565b836040516020016139519392919061521e565b604051602081830303815290604052805190602001209050600260008281526020019081526020016000208360601b6bffffffffffffffffffffffff1916908060018154018082558091505090600182039060005260206000200160009091929091909150555050505050565b60008490506000831115613b1d5760006003876040516139de9190615173565b908152602001604051809103902060080160008373ffffffffffffffffffffffffffffffffffffffff1673ffffffffffffffffffffffffffffffffffffffff16815260200190815260200160002060030160008473ffffffffffffffffffffffffffffffffffffffff1673ffffffffffffffffffffffffffffffffffffffff16815260200190815260200160002054905083600388604051613a809190615173565b908152602001604051809103902060080160008473ffffffffffffffffffffffffffffffffffffffff1673ffffffffffffffffffffffffffffffffffffffff16815260200190815260200160002060030160008573ffffffffffffffffffffffffffffffffffffffff1673ffffffffffffffffffffffffffffffffffffffff16815260200190815260200160002060008282540192505081905550505b6000841115613d0c57600386604051613b369190615173565b908152602001604051809103902060010154841015613b8d577fbdaeb13301d6416e47b70f09ade9e4ae93d6bd468d3833197ea44af2e955f0fe8187604051613b80929190615364565b60405180910390a1613d0b565b83600160008373ffffffffffffffffffffffffffffffffffffffff1673ffffffffffffffffffffffffffffffffffffffff168152602001908152602001600020541015613c12577f5b8a56dcf3c46c1155547d5fcd97b1a751382df7f906feb9d53f5cd53271308f8187604051613c05929190615364565b60405180910390a1613d0a565b83600160008373ffffffffffffffffffffffffffffffffffffffff1673ffffffffffffffffffffffffffffffffffffffff1681526020019081526020016000206000828254039250508190555083600387604051613c709190615173565b908152602001604051809103902060080160008373ffffffffffffffffffffffffffffffffffffffff1673ffffffffffffffffffffffffffffffffffffffff168152602001908152602001600020600001600082825401925050819055507f9435991b430d6fe3d331f4a4e60ab537af0083a1880199a6838e4c92a2cbe4fb818786604051613d0193929190615394565b60405180910390a15b5b5b505050505050565b600081805190602001209050919050565b60006001905092915050565b600080831415613d445760009050613d9b565b6000828402905082848281613d5557fe5b0414613d96576040517f08c379a0000000000000000000000000000000000000000000000000000000008152600401613d8d906156e8565b60405180910390fd5b809150505b92915050565b828054828255906000526020600020908101928215613ddd579160200282015b82811115613ddc578251825591602001919060010190613dc1565b5b509050613dea9190613e96565b5090565b604051806101200160405280600073ffffffffffffffffffffffffffffffffffffffff168152602001600081526020016000815260200160008152602001600073ffffffffffffffffffffffffffffffffffffffff168152602001600060ff168152602001600060ff168152602001613e65613ebb565b81526020016000151581525090565b6040518060600160405280600390602082028038833980820191505090505090565b613eb891905b80821115613eb4576000816000905550600101613e9c565b5090565b90565b604051806040016040528060008152602001600081525090565b600081359050613ee481615c13565b92915050565b600082601f830112613efb57600080fd5b8135613f0e613f09826157d0565b6157a3565b91508181835260208401935060208101905083856020840282011115613f3357600080fd5b60005b83811015613f635781613f498882613ed5565b845260208401935060208301925050600181019050613f36565b5050505092915050565b600082601f830112613f7e57600080fd5b8135613f91613f8c826157f8565b6157a3565b91508181835260208401935060208101905083856020840282011115613fb657600080fd5b60005b83811015613fe65781613fcc8882613ff0565b845260208401935060208301925050600181019050613fb9565b5050505092915050565b600081359050613fff81615c2a565b92915050565b60008135905061401481615c41565b92915050565b600082601f83011261402b57600080fd5b813561403e61403982615820565b6157a3565b9150808252602083016020830185838301111561405a57600080fd5b614065838284615b48565b50505092915050565b600082601f83011261407f57600080fd5b813561409261408d8261584c565b6157a3565b915080825260208301602083018583830111156140ae57600080fd5b6140b9838284615b48565b50505092915050565b600082601f8301126140d357600080fd5b81356140e66140e182615878565b6157a3565b9150808252602083016020830185838301111561410257600080fd5b61410d838284615b48565b50505092915050565b60008135905061412581615c58565b92915050565b60008135905061413a81615c6f565b92915050565b60008135905061414f81615c86565b92915050565b60006020828403121561416757600080fd5b600061417584828501613ed5565b91505092915050565b60008060006060848603121561419357600080fd5b60006141a186828701613ed5565b935050602084013567ffffffffffffffff8111156141be57600080fd5b6141ca868287016140c2565b92505060406141db86828701613ff0565b9150509250925092565b6000806000606084860312156141fa57600080fd5b600061420886828701613ed5565b93505060206142198682870161412b565b925050604061422a8682870161412b565b9150509250925092565b60006020828403121561424657600080fd5b600082013567ffffffffffffffff81111561426057600080fd5b61426c84828501613f6d565b91505092915050565b60006020828403121561428757600080fd5b600061429584828501613ff0565b91505092915050565b600080604083850312156142b157600080fd5b60006142bf85828601613ff0565b925050602083013567ffffffffffffffff8111156142dc57600080fd5b6142e885828601613f6d565b9150509250929050565b6000806000806080858703121561430857600080fd5b600061431687828801614005565b945050602085013567ffffffffffffffff81111561433357600080fd5b61433f878288016140c2565b93505060406143508782880161412b565b925050606061436187828801614140565b91505092959194509250565b60006020828403121561437f57600080fd5b600082013567ffffffffffffffff81111561439957600080fd5b6143a58482850161401a565b91505092915050565b600080604083850312156143c157600080fd5b600083013567ffffffffffffffff8111156143db57600080fd5b6143e78582860161401a565b92505060206143f885828601614116565b9150509250929050565b60006020828403121561441457600080fd5b600082013567ffffffffffffffff81111561442e57600080fd5b61443a8482850161406e565b91505092915050565b60006020828403121561445557600080fd5b600082013567ffffffffffffffff81111561446f57600080fd5b61447b848285016140c2565b91505092915050565b6000806040838503121561449757600080fd5b600083013567ffffffffffffffff8111156144b157600080fd5b6144bd858286016140c2565b92505060206144ce85828601613ed5565b9150509250929050565b600080600080608085870312156144ee57600080fd5b600085013567ffffffffffffffff81111561450857600080fd5b614514878288016140c2565b945050602061452587828801613ed5565b935050604061453687828801613ed5565b92505060606145478782880161412b565b91505092959194509250565b600080600080600060a0868803121561456b57600080fd5b600086013567ffffffffffffffff81111561458557600080fd5b614591888289016140c2565b95505060206145a288828901613ed5565b94505060406145b388828901613ed5565b93505060606145c48882890161412b565b92505060806145d588828901614140565b9150509295509295909350565b6000806000606084860312156145f757600080fd5b600084013567ffffffffffffffff81111561461157600080fd5b61461d868287016140c2565b935050602061462e86828701613ed5565b925050604084013567ffffffffffffffff81111561464b57600080fd5b61465786828701613eea565b9150509250925092565b60008060006060848603121561467657600080fd5b600084013567ffffffffffffffff81111561469057600080fd5b61469c868287016140c2565b93505060206146ad86828701613ed5565b92505060406146be8682870161412b565b9150509250925092565b600080600080600060a086880312156146e057600080fd5b600086013567ffffffffffffffff8111156146fa57600080fd5b614706888289016140c2565b955050602061471788828901613ed5565b94505060406147288882890161412b565b93505060606147398882890161412b565b925050608061474a88828901613ed5565b9150509295509295909350565b60008060006060848603121561476c57600080fd5b600084013567ffffffffffffffff81111561478657600080fd5b614792868287016140c2565b93505060206147a386828701613ed5565b92505060406147b486828701614140565b9150509250925092565b600080604083850312156147d157600080fd5b600083013567ffffffffffffffff8111156147eb57600080fd5b6147f7858286016140c2565b925050602083013567ffffffffffffffff81111561481457600080fd5b61482085828601613eea565b9150509250929050565b6000806040838503121561483d57600080fd5b600083013567ffffffffffffffff81111561485757600080fd5b614863858286016140c2565b925050602061487485828601613ff0565b9150509250929050565b6000806040838503121561489157600080fd5b600083013567ffffffffffffffff8111156148ab57600080fd5b6148b7858286016140c2565b925050602083013567ffffffffffffffff8111156148d457600080fd5b6148e0858286016140c2565b9150509250929050565b600080600080600060a0868803121561490257600080fd5b600086013567ffffffffffffffff81111561491c57600080fd5b614928888289016140c2565b955050602086013567ffffffffffffffff81111561494557600080fd5b614951888289016140c2565b945050604061496288828901613ed5565b935050606061497388828901614140565b925050608086013567ffffffffffffffff81111561499057600080fd5b61499c88828901613f6d565b9150509295509295909350565b600080600080608085870312156149bf57600080fd5b600085013567ffffffffffffffff8111156149d957600080fd5b6149e5878288016140c2565b945050602085013567ffffffffffffffff811115614a0257600080fd5b614a0e878288016140c2565b9350506040614a1f87828801614140565b925050606085013567ffffffffffffffff811115614a3c57600080fd5b614a48878288016140c2565b91505092959194509250565b600060208284031215614a6657600080fd5b6000614a748482850161412b565b91505092915050565b6000614a898383614ae8565b60208301905092915050565b6000614aa18383614b7b565b905092915050565b6000614ab58383614cac565b60a08301905092915050565b6000614acd8383614d96565b60208301905092915050565b614ae281615b00565b82525050565b614af181615a31565b82525050565b614b0081615a31565b82525050565b614b17614b1282615a31565b615b8a565b82525050565b6000614b2882615909565b614b3281856159b5565b9350614b3d836158b4565b8060005b83811015614b6e578151614b558882614a7d565b9750614b6083615963565b925050600181019050614b41565b5085935050505092915050565b6000614b86826158fe565b614b9081856159a4565b9350614b9b836158a4565b8060005b83811015614bcc578151614bb38882614a7d565b9750614bbe83615956565b925050600181019050614b9f565b5085935050505092915050565b6000614be482615914565b614bee81856159c6565b935083602082028501614c00856158c4565b8060005b85811015614c3c5784840389528151614c1d8582614a95565b9450614c2883615970565b925060208a01995050600181019050614c04565b50829750879550505050505092915050565b6000614c598261591f565b614c6381856159d7565b9350614c6e836158d4565b8060005b83811015614c9f578151614c868882614aa9565b9750614c918361597d565b925050600181019050614c72565b5085935050505092915050565b614cb58161592a565b614cbf81846159e8565b9250614cca826158e4565b8060005b83811015614cfb578151614ce28782614ac1565b9650614ced8361598a565b925050600181019050614cce565b505050505050565b6000614d0e82615935565b614d1881856159f3565b9350614d23836158ee565b8060005b83811015614d54578151614d3b8882614ac1565b9750614d4683615997565b925050600181019050614d27565b5085935050505092915050565b614d6a81615a43565b82525050565b614d7981615a43565b82525050565b614d90614d8b82615a4f565b615b9c565b82525050565b614d9f81615a7b565b82525050565b614dae81615a7b565b82525050565b614dc5614dc082615a7b565b615ba6565b82525050565b614ddc614dd782615a85565b615bb0565b82525050565b6000614ded82615940565b614df78185615a04565b9350614e07818560208601615b57565b614e1081615be8565b840191505092915050565b614e2481615ab1565b82525050565b614e3381615ab1565b82525050565b614e4281615b12565b82525050565b6000614e538261594b565b614e5d8185615a15565b9350614e6d818560208601615b57565b614e7681615be8565b840191505092915050565b6000614e8c8261594b565b614e968185615a26565b9350614ea6818560208601615b57565b80840191505092915050565b6000614ebf603483615a15565b91507f46756e6374696f6e206d6179206f6e6c792062652063616c6c6564206279206160008301527f207374616b6572206f6e207468697320706f6c6c0000000000000000000000006020830152604082019050919050565b6000614f25602183615a15565b91507f536166654d6174683a206d756c7469706c69636174696f6e206f766572666c6f60008301527f77000000000000000000000000000000000000000000000000000000000000006020830152604082019050919050565b6000614f8b600d83615a15565b91507f496e76616c69642070726f6f66000000000000000000000000000000000000006000830152602082019050919050565b61014082016000820151614fd56000850182614ae8565b506020820151614fe860208501826150d3565b506040820151614ffb6040850182614e1b565b50606082015161500e60608501826150d3565b5060808201516150216080850182614ae8565b5060a082015161503460a0850182615108565b5060c082015161504760c0850182615108565b5060e082015161505a60e0850182615075565b5061010082015161506f610120850182614d61565b50505050565b60408201600082015161508b60008501826150d3565b50602082015161509e60208501826150d3565b50505050565b6040820160008201516150ba60008501826150d3565b5060208201516150cd60208501826150d3565b50505050565b6150dc81615ae9565b82525050565b6150eb81615ae9565b82525050565b6151026150fd82615ae9565b615bcc565b82525050565b61511181615af3565b82525050565b61512081615af3565b82525050565b61513761513282615af3565b615bd6565b82525050565b60006151498284614b06565b60148201915081905092915050565b60006151648284614db4565b60208201915081905092915050565b600061517f8284614e81565b915081905092915050565b60006151968287614e81565b91506151a28286614dcb565b6004820191506151b28285614b06565b6014820191506151c28284615126565b60018201915081905095945050505050565b60006151e08287614e81565b91506151ec8286614dcb565b6004820191506151fc8285614d7f565b60148201915061520c8284615126565b60018201915081905095945050505050565b600061522a8286614e81565b91506152368285614dcb565b6004820191506152468284615126565b600182019150819050949350505050565b600061526382846150f1565b60208201915081905092915050565b60006020820190506152876000830184614af7565b92915050565b60006020820190506152a26000830184614ad9565b92915050565b60006060820190506152bd6000830186614ad9565b6152ca60208301856150e2565b6152d760408301846150e2565b949350505050565b6000610100820190506152f5600083018b614af7565b615302602083018a614e2a565b61530f60408301896150e2565b61531c6060830188615117565b61532960808301876150e2565b61533660a08301866150e2565b61534360c0830185614d70565b81810360e08301526153558184614c4e565b90509998505050505050505050565b60006040820190506153796000830185614af7565b818103602083015261538b8184614e48565b90509392505050565b60006060820190506153a96000830186614af7565b81810360208301526153bb8185614e48565b90506153ca60408301846150e2565b949350505050565b6000610120820190506153e8600083018b614af7565b6153f5602083018a6150e2565b6154026040830189614e2a565b61540f60608301886150e2565b61541c6080830187614af7565b61542960a0830186615117565b61543660c08301856150a4565b615444610100830184614d70565b9998505050505050505050565b60006060820190506154666000830186614af7565b61547360208301856150e2565b61548060408301846150e2565b949350505050565b600060208201905081810360008301526154a28184614b1d565b905092915050565b600060208201905081810360008301526154c48184614bd9565b905092915050565b600060208201905081810360008301526154e68184614d03565b905092915050565b60006020820190506155036000830184614d70565b92915050565b600060208201905061551e6000830184614da5565b92915050565b60006040820190506155396000830185614da5565b818103602083015261554b8184614de2565b90509392505050565b6000602082019050818103600083015261556e8184614de2565b905092915050565b600060208201905081810360008301526155908184614e48565b905092915050565b600060408201905081810360008301526155b28185614e48565b90506155c16020830184614ad9565b9392505050565b600060808201905081810360008301526155e28187614e48565b90506155f16020830186614af7565b6155fe6040830185614ad9565b61560b6060830184614e39565b95945050505050565b6000608082019050818103600083015261562e8187614e48565b905061563d6020830186614af7565b61564a6040830185614af7565b61565760608301846150e2565b95945050505050565b600060a082019050818103600083015261567a8188614e48565b9050818103602083015261568e8187614e48565b905061569d6040830186614af7565b6156aa6060830185615117565b81810360808301526156bc8184614d03565b90509695505050505050565b600060208201905081810360008301526156e181614eb2565b9050919050565b6000602082019050818103600083015261570181614f18565b9050919050565b6000602082019050818103600083015261572181614f7e565b9050919050565b60006101408201905061573e6000830184614fbe565b92915050565b600060208201905061575960008301846150e2565b92915050565b600060408201905061577460008301856150e2565b61578160208301846150e2565b9392505050565b600060208201905061579d6000830184615117565b92915050565b6000604051905081810181811067ffffffffffffffff821117156157c657600080fd5b8060405250919050565b600067ffffffffffffffff8211156157e757600080fd5b602082029050602081019050919050565b600067ffffffffffffffff82111561580f57600080fd5b602082029050602081019050919050565b600067ffffffffffffffff82111561583757600080fd5b601f19601f8301169050602081019050919050565b600067ffffffffffffffff82111561586357600080fd5b601f19601f8301169050602081019050919050565b600067ffffffffffffffff82111561588f57600080fd5b601f19601f8301169050602081019050919050565b6000819050602082019050919050565b6000819050602082019050919050565b6000819050602082019050919050565b6000819050602082019050919050565b6000819050919050565b6000819050602082019050919050565b600081519050919050565b600081519050919050565b600081519050919050565b600081519050919050565b600060059050919050565b600081519050919050565b600081519050919050565b600081519050919050565b6000602082019050919050565b6000602082019050919050565b6000602082019050919050565b6000602082019050919050565b6000602082019050919050565b6000602082019050919050565b600082825260208201905092915050565b600082825260208201905092915050565b600082825260208201905092915050565b600082825260208201905092915050565b600081905092915050565b600082825260208201905092915050565b600082825260208201905092915050565b600082825260208201905092915050565b600081905092915050565b6000615a3c82615ac9565b9050919050565b60008115159050919050565b60007fffffffffffffffffffffffffffffffffffffffff00000000000000000000000082169050919050565b6000819050919050565b60007fffffffff0000000000000000000000000000000000000000000000000000000082169050919050565b6000819050919050565b600061ffff82169050919050565b600073ffffffffffffffffffffffffffffffffffffffff82169050919050565b6000819050919050565b600060ff82169050919050565b6000615b0b82615b24565b9050919050565b6000615b1d82615ae9565b9050919050565b6000615b2f82615b36565b9050919050565b6000615b4182615ac9565b9050919050565b82818337600083830152505050565b60005b83811015615b75578082015181840152602081019050615b5a565b83811115615b84576000848401525b50505050565b6000615b9582615bba565b9050919050565b6000819050919050565b6000819050919050565b6000819050919050565b6000615bc582615c06565b9050919050565b6000819050919050565b6000615be182615bf9565b9050919050565b6000601f19601f8301169050919050565b60008160f81b9050919050565b60008160601b9050919050565b615c1c81615a31565b8114615c2757600080fd5b50565b615c3381615a7b565b8114615c3e57600080fd5b50565b615c4a81615a85565b8114615c5557600080fd5b50565b615c6181615abb565b8114615c6c57600080fd5b50565b615c7881615ae9565b8114615c8357600080fd5b50565b615c8f81615af3565b8114615c9a57600080fd5b5056fea365627a7a72315820a95fa929ca32a85875e53e2f06965bf44a7c065519edda10708a5e8d863c873b6c6578706572696d656e74616cf564736f6c63430005100040",
  "source": "pragma solidity ^0.5.7;\npragma experimental ABIEncoderV2;\n\nimport \"./strings.sol\";\nimport \"./stringCasting.sol\";\n// import \"./BytesLib.sol\";\nimport \"./SafeMath.sol\";\n\n/* Lunchcoin validator contract - mutual agreement */\ncontract MutualAgreement {\n    // Common storage structure for ALL contacts using this storage.\n    // _, __, __ , etc are unused in this contract, but must remain to occupy their slots.\n\n    address owner;  // is set by TokenStorage.. but retain types and order.\n\n    struct TimeRange {\n      uint start;\n      uint end;\n    }\n\n    struct Stake {\n      uint rep;\n      TimeRange[] available;\n      uint availabilityExpires;\n      mapping (address => uint) venueContribution;\n    }\n\n    struct Dibs {\n      address payer;\n      address recipient;\n      uint amount;\n    }\n\n\n\n\n    struct Poll {\n      address initiator;\n      uint minStake;\n      int venueCost;\n      uint venuePot;\n      address venuePayer;\n      uint8 minParticipants;\n      TimeRange eventTime;\n      bool proofsWindowClosed;\n      mapping (address => Stake) staked;\n      mapping (address => uint16) ownCheckInIndex;           // 1-indexed: ownCheckInIndex[s]==0 => nothing there.\n      Dibs[] dibsCalled;\n    }\n\n\n    struct PollExternal {\n      address initiator;\n      uint minStake;\n      int venueCost;\n      uint venuePot;\n      address venuePayer;\n      uint8 minParticipants;\n      uint8 participants;\n      TimeRange eventTime;\n      bool proofsWindowClosed;\n      // NB external view of Poll can never correctly represent ownCheckInIndex (a mapping to a dynamic array).\n      // Need to either make it indicative, or fixed size.\n\n      // getting arrays with web3 is weird. Possibly claims ABI error?\n      // bytes32[5][] cantremember;\n      // address[] provers;\n      // dibs[] dibsCalled;\n    }\n\n    // shared across contracts\n    mapping (address => uint) rep;\n    mapping (bytes32 => bytes32[]) allTheData;\n    mapping (string => Poll) public pollData;\n    mapping (bytes32 => bool) resultsCache;\n\n    // used only in Poll\n    mapping(uint8 => address) internal __validators;\n    mapping(uint8 => string) internal __validatorNames;\n    mapping(address => uint) internal __cashBalance;\n    address __selfAddy ;\n\n\n    // unused - previously for Storage Proxy\n    //    mapping (address => bool) internal _allowedAccess;\n\n    // used only in Validators\n    mapping (address => uint16) stakerPresentIn;\n\n      // used for testing only - will be deleted.\n      address pollAddress = 0x9D26a8a5Db7dC10689692caF8d52C912958409CF;\n\n    // constants: Do not use space in storage.\n    uint8 constant vType=1;\n    string constant vDesc = \"mutual agreement\";\n\n\n    struct proofCounter {\n        bool fakeProof;\n        int8 duplicateProofs;\n        uint8 fakeProofs;\n        bool senderIsPresent;\n    }\n\n\n    using strings for *;\n    using stringcast for string;\n    using SafeMath for int;\n    using SafeMath for uint;\n\n    function () payable external {\n        _fallback();\n    }\n\n    // function() external payable {\n    //     // NB sol 0.6+ better syntax for calldata arrays : https://solidity.readthedocs.io/en/v0.6.0/types.html#array-slices\n    //     bytes memory input = msg.data;\n    //\n    //     // TODO: This is V.0 accepting a string (really a bytes32) of EXACTLY 32 bytes, eg a doodle poll without the https:// ;)\n    //     bytes32 __ownAdress;  // NB assuming 32b rather than 20b for calldata loose packing. Remember to get rid of this line when optimising!\n    //     bytes memory usefulData;\n    //     bytes32 poll32;\n    //     bytes memory __reveal;\n    //     // demo result! (we don;t need more than bool really ;)\n    //     uint256 valid = 7331;\n    //\n    //     (__ownAdress, usefulData) = (bytesSplit32(input));\n    //     (poll32, __reveal) = (bytesSplit32(usefulData));\n    //\n    //     // NB other validators will need to additionally retrieve reveal data from msg.data\n    //     bytes32[] memory stakers = crossContractCall (encodeFunctionName(\"staker\"), bytes32ToString(poll32), valid, vType);\n    //     bytes32[] memory proofs = crossContractCall (encodeFunctionName(\"proof\"), bytes32ToString(poll32), valid, vType);\n    //\n    // }\n\n    constructor () public {\n        // testing constructor access to storage across shared storage\n        // (one for later ;)\n        // constructed = 1;\n    }\n\n    function initialiseDemo (string memory _poll) public {\n\n      pollData[_poll].minStake = 1;\n      pollData[_poll].venueCost = 12500;\n      pollData[_poll].venuePot = 112500;\n      // pollData[_poll].staked[msg.sender].rep = 1;\n      // pollData[_poll].staked[msg.sender].venueContribution =\n      // pollData[_poll].staked[msg.sender].venueContribution[msg.sender] = 15000;\n    }\n\n    function _fallback() internal {\n        bytes memory input = msg.data;\n\n    }\n\n    function multiplier() public view returns (uint numerator, uint denominator) {\n      return (5,4);\n    }\n\n    function maxRep() public view returns (uint maxRep) {\n      return (3000);\n    }\n\n\n    event logStuff (string);\n    modifier isStaker(string memory _poll) {\n      address[] memory stakers = getStakerAddresses(_poll);\n      bool senderIsPresent;\n\n      for(uint i = 0; i < stakers.length; i++) {\n        if (stakers[i] == msg.sender) {\n          senderIsPresent = true;\n        }\n      }\n      require(senderIsPresent, \"Function may only be called by a staker on this poll\");\n      _;\n    }\n\n    function doEmit (string memory message) public {\n      emit logStuff (message);\n    }\n\n    function getPoll(string memory _poll) public view returns (\n      address initiator,\n      // uint stake,\n      // uint venueContribution,\n      int venueCost,\n      uint venuePot,\n      uint8 minParticipants,\n      uint start,\n      uint end,\n      bool proofsWindowClosed,\n      // dibs[] memory dibsCalled,\n      bytes32[5][] memory ownCheckInIndex ) {\n\n      initiator = pollData[_poll].initiator;\n      venueCost = pollData[_poll].venueCost;\n      venuePot = pollData[_poll].venuePot;\n      minParticipants = pollData[_poll].minParticipants;\n      proofsWindowClosed = pollData[_poll].proofsWindowClosed;\n      // start = pollData[_poll].eventTime.start;\n      // end = pollData[_poll].eventTime.end;\n      start = 1591535900000;\n      end = 1591536000000;\n      // dibsCalled = pollData[_poll].dibsCalled;\n      // stake = pollData[_poll].staked[_staker].rep;\n      // venueContribution = pollData[_poll].staked[_staker].venueContribution[_staker];\n\n      return (initiator, venueCost, venuePot, minParticipants, start, end, proofsWindowClosed, ownCheckInIndex);\n    }\n\n    function getPollStruct(string memory _poll) public view returns (PollExternal memory returnPoll) {\n\n      // bytes32[5][] ownCheckInIndex;\n      // address[] provers;\n      // dibs[] dibsCalled;\n\n        returnPoll.minStake = 1000;\n        returnPoll.venueCost = 40000;\n        returnPoll.venuePot = 40000;\n        returnPoll.minParticipants = 3;\n        returnPoll.participants = 3;\n        returnPoll.eventTime.start = 1591535900000;\n        returnPoll.eventTime.end = 1591536000000;\n      return returnPoll;\n    }\n\n    function setByHash (bytes32 _hash, bytes32[] memory _data) public {\n      allTheData[_hash] = _data;\n    }\n\n    function getByHash (bytes32 _hash) public view returns (bytes32[] memory) {\n      return (allTheData[_hash]);\n    }\n\n    function get (string memory _poll, string memory _mapName) public view returns (bytes32[] memory) {\n        bytes32 hash = keccak256(abi.encodePacked(_poll, encodeFunctionName(_mapName), vType));\n        return (allTheData[hash]);\n    }\n\n    event whassahash(bytes);\n    event whassakeccack(bytes32);\n    function getStakersProof (string memory _poll, address _staker) public returns (bytes32[] memory) {\n      bytes32 hash = keccak256(abi.encodePacked(_poll, encodeFunctionName(\"proof\"), _staker, vType));\n      emit whassahash(abi.encodePacked(_poll, encodeFunctionName(\"proof\"), _staker, vType));\n      emit whassakeccack(hash);\n      return (allTheData[hash]);\n    }\n\n    function getProofEmitHashesOnlyWithStaker (string memory _poll, string memory _mapName, address _stakerOrZero, uint8 _vt, bytes32[] memory data) public {\n      bytes32 hash = keccak256(abi.encodePacked(_poll, encodeFunctionName(_mapName), _stakerOrZero, _vt));\n      emit whassahash(abi.encodePacked(_poll, encodeFunctionName(_mapName), _stakerOrZero, _vt));\n      emit whassakeccack(hash);\n\n      emit gpResult(_poll, _mapName, _stakerOrZero, _vt, getStakersProof(_poll, _stakerOrZero));\n    }\n\n\n    function addStaker (string memory _poll, address _staker, uint8 _vt) public {\n      bytes32 hash = keccak256(abi.encodePacked(_poll, encodeFunctionName(\"staker\"), _vt));\n      allTheData[hash].push (bytes32(bytes20(_staker)));\n    }\n\n    function getStakerAddresses (string memory _poll ) public view returns (address[] memory) {\n      bytes32[] memory rawStakers = get(_poll, \"staker\");\n      address[] memory stakers = new address[](rawStakers.length);\n      for(uint16 i=0; i < rawStakers.length; i++) {\n          stakers[i] = bytesToAddress(bytes32ToBytes(rawStakers[i]));\n      }\n      return stakers;\n    }\n\n//NB This is returning a WRONG result, but of the right type. You've probably got indices mixed up.\n    function getproofsAsAddresses (string memory _poll ) public returns (address[][] memory) {\n      address[] memory stakers = getStakerAddresses(_poll);\n      address[][] memory proofs = new address[][](stakers.length);\n      bytes32[] memory rawProof;\n\n      for(uint16 i=0; i < stakers.length; i++) {\n        rawProof = getStakersProof(_poll, stakers[i]);\n        proofs[i] = new address[](rawProof.length);\n        for(uint16 j=0; j < rawProof.length; j++) {\n            proofs[i][j]=(bytesToAddress(bytes32ToBytes(rawProof[j])));\n        }\n      }\n      return (proofs);\n    }\n\n    function set (string memory _poll, string memory _mapName, address _stakerOrZero, uint8 _vt, bytes32[] memory _data) public {\n      bytes32 hash;\n      if (_stakerOrZero == address(0)) {\n        hash = keccak256(abi.encodePacked(_poll, encodeFunctionName(_mapName), _vt));\n      } else {\n        hash = keccak256(abi.encodePacked(_poll, encodeFunctionName(_mapName), bytes20(_stakerOrZero), _vt));\n      }\n      allTheData[hash] = new bytes32[](_data.length);\n      // bytes32[] memory data = new bytes32[](_data.length);\n      for(uint16 i=0; i < _data.length; i++) {\n        allTheData[hash][i] = _data[i];\n      }\n      // allTheData[hash] = data;\n\n      // tried a number of ways and it is always reverting (when called via checkIn)\n\n    }\n\n    event gpResult(string, string, address, uint8, bytes32[]);\n    function setCheckedInWithStaker (string memory _poll, string memory _mapName, address _impersonatedStaker, uint8 _vt, bytes32[] memory data) public {\n      bytes32 hash = keccak256(abi.encodePacked(_poll, encodeFunctionName(_mapName), _impersonatedStaker, _vt));\n      emit whassahash(abi.encodePacked(_poll, encodeFunctionName(_mapName), _impersonatedStaker, _vt));\n      emit whassakeccack(hash);\n      allTheData[hash] = data;\n      emit gpResult(_poll, _mapName, _impersonatedStaker, _vt, getStakersProof(_poll, _impersonatedStaker));\n    }\n\n\n    function checkIn (string memory _poll, address _impersonatedStaker, address[] memory _newProof) public {\n      address sender = _impersonatedStaker;   //  should be msg.sender\n      uint16 idx = pollData[_poll].ownCheckInIndex[sender];\n      bool hasStaked = false;\n      uint16 i;\n\n      // if (idx==0) {\n      //   idx = uint16(getStakerAddresses(_poll ).length);\n      //   add (_poll, \"proof\", vType, _newProof);\n      //   pollData[_poll].ownCheckInIndex[sender] = idx+1;    // would be an off-by-one but ownIndex is 1-indexed ;)\n      //   return;\n      // }\n      // proofs[idx] = bytes32(bytes20(_newProof));\n\n      // bytes32[] memory stakers = get(_poll, \"staker\");\n      // for (i=0; i<stakers.length; i++) {\n      //   if bytes32(bytes20((stakers[i]))==sender\n      //     hasStaked = true;\n      // }\n      // if (hasStaked = false)\n      //   revert ('Staker has not staked in this poll')\n      bytes32[] memory proofB32 = new bytes32[](_newProof.length);\n      for (i=0; i<_newProof.length; i++) {\n        proofB32[i]=bytes32(bytes20(_newProof[i]));\n      }\n      set ( _poll, \"proof\", sender, vType, proofB32);\n      pollData[_poll].ownCheckInIndex[sender] = idx+1;\n    }\n\n    event proofUpdated(address);\n    function addProof (string memory _poll, address _impersonatedStaker, address[] memory _newProof) public {\n      address sender = _impersonatedStaker;   //  should be msg.sender\n      bytes32[] memory proofB32 = new bytes32[](_newProof.length);\n      bytes32 hash = keccak256(abi.encodePacked(_poll, encodeFunctionName(\"proof\"), bytes20(_impersonatedStaker), vType));\n      for (uint16 i=0; i<_newProof.length; i++) {\n        proofB32[i]=bytes32(bytes20(_newProof[i]));\n      }\n      if (allTheData[hash].length>0)\n        emit proofUpdated(sender);\n      allTheData[hash]=(proofB32);\n    }\n\n    function addProofSelf (string memory _poll, address[] memory _newProof) public {\n      addProof (_poll, msg.sender, _newProof);\n    }\n\n    event proofsWindowClosed (string poll, address by);\n    function closeProofsWindow (string memory _poll) public {\n      // require (isElibgible(msg.sender), \"msg.sender did not stake in this poll\");\n      // require (time.now()>.pollData[_poll].eventTime.end || AllstakersSubmittedProofs(), \"Not all stakers have submitted proofs and the event is not yet over\");\n      // require (, \"\");\n      pollData[_poll].proofsWindowClosed = true;\n      emit proofsWindowClosed (_poll, msg.sender);\n\n      // NB here assuming that poll can be closed once all stakers have submitted a proof.\n      // The alternative would allow a non-attending staker to hold up refunds (by refusing to submit 'I can't make it')\n      // but this way means that early provers cannot necessarily revise rpoofs which turn out not to fit consensus\n      // This policy may be better left to differ between validators.\n    }\n\n\n    function reopenProofsWindow (string memory _poll) public {\n      pollData[_poll].proofsWindowClosed = false;\n    }\n\n    function isProofsWindowClosed (string memory _poll) public view returns (bool ) {\n      return pollData[_poll].proofsWindowClosed;\n    }\n\n\n    function setRep (string memory _poll, address _staker, uint _rep) public {\n      rep[_staker] = _rep;\n    }\n\n    function getRep (address _staker) public view returns (uint) {\n      return rep[_staker];\n    }\n\n\n    event stakeNotAccepted(address, string);\n    event disreputableStakerIgnored(address, string);\n    event staked(address, string, uint);\n    // TODO: accept one TimeRange for all stakes.\n    // TODO: accept TimeRanges per stake (need to change up the data structures!)\n    function addStake (string memory _poll, address _impersonatedStaker, uint _rep, uint _venueContribution, address _venueContributionFor ) public {\n      address sender = _impersonatedStaker;\n      if (_venueContribution>0) {\n        uint currentVC = pollData[_poll].staked[sender].venueContribution[_venueContributionFor];\n        pollData[_poll].staked[sender].venueContribution[_venueContributionFor] += _venueContribution;\n      }\n      if (_rep>0) {\n        if (_rep<pollData[_poll].minStake) {\n          emit stakeNotAccepted(sender, _poll);              // aNt!p4ttrnn ###\n        } else\n        if (rep[sender]<_rep) {\n          emit disreputableStakerIgnored(sender, _poll);\n        } else {\n          rep[sender] -= _rep;\n          pollData[_poll].staked[sender].rep += _rep;\n          emit staked(sender, _poll, _rep);\n        }\n      }\n    }\n\n    function totalRepStaked (string memory _poll, address _staker) public view returns (uint) {\n      return pollData[_poll].staked[_staker].rep;\n    }\n\n    function totalVenueContribs (string memory _poll, address _staker) public view returns (uint total) {\n      // dibs[] memory dibsList = allDibsPaidBy(_staker);\n\n\n      // gives an out of bounds error (or munches it into VM..blah..blah)\n      // trying to access ...[address(0)]\n      // total = pollData[_poll].staked[_staker].venueContribution[_staker] + pollData[_poll].staked[_staker].venueContribution[address(0)];\n      total = pollData[_poll].staked[_staker].venueContribution[_staker];\n\n      // for(uint16 i = 0; i < dibsList.length; i++) {\n      //   total += dibsList[i].amount;\n      // }\n\n      return total;\n    }\n\n    // NB refundVenueStake and refundStake BOTH call this, so one will revert.\n    // TODO: Add checks into those functions\n    event emptyStakeRemoved (string _poll, address _staker);\n    function removeEmptyStake (string memory _poll, address _staker) public {\n      // uint rep=pollData[_poll].staked[msg.sender].rep;\n      // uint venueContributions = totalVenueContribs (_poll, _staker);\n      // require (rep==0 && venueContributions==0, 'Staker has non empty stake or venue contribution');\n      // delete pollData[_poll].staked[msg.sender];\n      // emit emptyStakeRemoved(_poll, msg.sender);\n    }\n\n    // NB these require returning complex type.\n    // Keep the commented code, but integrate it direct into functions which need it (and eventually use new ABI encoder on it ;)\n\n    // function allDibsPaidBy(string memory _poll, address _staker) public view returns (dibs[] memory) {\n    //   uint16 size=0;\n    //   uint16 i;\n    //   for(i = 0; i < pollData[_poll].dibsCalled.length; i++) {\n    //     if (pollData[_poll].dibsCalled[i].payer == _staker)\n    //       size++;\n    //   }\n    //   dibs[size] memory dibsList = new dibs[](size);\n    //   for(uint16 i = 0; i < pollData[_poll].dibsCalled.length; i++) {\n    //     if (pollData[_poll].dibsCalled[i].payer == _staker)\n    //       dibsList.push(pollData[_poll].dibsCalled[i]);\n    //   }\n    //   return dibsList;\n    // }\n    //\n    // function allDibsPaidFor(string memory _poll, address _recipient) public view returns (dibs[] memory) {\n    //   uint16 size=0;\n    //   uint16 i;\n    //   for(i = 0; i < pollData[_poll].dibsCalled.length; i++) {\n    //     if (pollData[_poll].dibsCalled[i].recipient == _recipient)\n    //       size++;\n    //   }\n    //   dibs[size] memory dibsList = new dibs[](size);\n    //   for(i = 0; i < pollData[_poll].dibsCalled.length; i++) {\n    //     if (pollData[_poll].dibsCalled[i].recipient == _recipient)\n    //       dibsList.push(pollData[_poll].dibsCalled[i]);\n    //   }\n    //   return dibsList;\n    // }\n\n\n    function doRefund (address to, uint amount) private returns (bool){\n      // do moneyyyzz\n      return true;\n    }\n\n\n    // NB proportional refunds are not vulnerable to gas exhaustion but covering refunds may be.\n    // Hence populating the 0x0 staker's stake with the refunded stakes, to maintain the size of stakes compared to venuePot.\n    event venuePotDisbursed (string _poll, address to, address by, uint amount);\n    // Any staker can call refund of excess venue pot.\n    // Disbursement to venue payer must wait until initiator has actively set venue payer (eg to self);\n    function refundVenueStakes(string memory _poll) public isStaker(_poll) {\n      address[] memory stakers = getStakerAddresses(_poll);\n      int equalShare = (pollData[_poll].venueCost) / int(stakers.length);\n      uint pot = pollData[_poll].venuePot;\n      uint spareCash =1234;\n      uint16 i =0;\n      uint16 j =0;\n\n      if (pot==0)\n        return;\n      // This would be so much simpler if you could compare whethere a possibly negative number is smaller than a positive one.\n      // and would be safer, not having a 2's complement risk. Fucking rectangulists.\n      if ((pollData[_poll].venueCost<0) || uint(pollData[_poll].venueCost) < pollData[_poll].venuePot)\n        spareCash = uint( int(pollData[_poll].venuePot) - pollData[_poll].venueCost );\n\n      // // proportional refunds:\n      // // allows recipients of gifted contributions to get a refund too\n      for (i=0; i<stakers.length; i++) {\n        uint refund = 0;\n        uint[3] memory fuckSolidity;\n        address[] memory recipients = new address[](2);\n        int[] memory amounts = new int[](2);\n        //   for (stakes = allDibsPaidBy(staker).concat(staker.stake[staker]).concat(staker.stake[0x0]))\n        recipients[0] = address(0);\n        recipients[1] = msg.sender;\n        // what if this loop runs out of gas? Will the totals that everything is based on still be a good starting point?\n        for (j=0; j<recipients.length; j++) {\n          amounts[j] = int( pollData[_poll].staked[stakers[i]].venueContribution[recipients[j]] );\n          fuckSolidity[0] = 0;\n          fuckSolidity[1] = uint(amounts[j]) * spareCash;\n          if (pot>0)\n            fuckSolidity[2] = fuckSolidity[1]/pot;\n          else\n            fuckSolidity[2] = 888888;\n\n          // refund += fuckSolidity[2];  // += n failing when n nonzero\n          // refund = refund + fuckSolidity[2];  // r = r + n failing when n nonzero\n\n          // refund += (  uint(amounts[j]) / pot );\n          // refund += ( spareCash.mul(uint(amounts[j])) / pot );  // fails\n          // refund += ( spareCash * (uint(amounts[j])) / pot );  // failing intermittently (maybe forgot to initialise?)\n          pollData[_poll].staked[stakers[i]].venueContribution[recipients[j]] = 0;\n          // maintain a tally of refunded stakes in case of gas exhaustion.\n          pollData[_poll].staked[address(0)].venueContribution[address(0)] = refund;\n          if (pollData[_poll].venuePot >= refund)\n            pollData[_poll].venuePot -= refund;\n          // else\n          //   revert ('Someone emptied the pot!!');\n        }\n        // if (refund>0 || uint160(bytes20(recipients[j]))>0) {  //likely fail\n        // if (refund>0 || j>0) {\n        // Temporarily catch the zero refunds which should be more\n        // if (uint160(bytes20(recipients[j]))>0) {  // failing!\n        if (j>0) {\n          if (doRefund(stakers[i], refund))\n            emit venuePotDisbursed (_poll, stakers[i], msg.sender, 0);  // cannot get it to issue nonzero last param. Previously failed on literal zero but now works :/\n          // else {\n          //   emit venuePotDisbursed ('doRefund FAILED', stakers[i], msg.sender, fuckSolidity[2]);\n          // }\n        }\n      }\n      pollData[_poll].staked[address(0)].venueContribution[address(0)] = 0;\n\n      //\n      // // covering refunds:\n      // // gifted contributions are used only to top up recipients'\n      // for (i=0; i<stakers.length; i++) {\n      //   int refund = 0;\n      //   int totalPaid = 0;\n      //   address[] memory recipients = new address[](2);\n      //   int[] memory amounts = new int[](2);\n      //   //   for (stakes = allDibsPaidBy(staker).concat(staker.stake[staker]).concat(staker.stake[0x0]))\n      //   recipients[0] = address(0);\n      //   recipients[1] = msg.sender;\n      //   for (j=0; j<recipients.length; j++) {\n      //     amounts[j] = int( pollData[_poll].staked[stakers[i]].venueContribution[recipients[j]] );\n      //     totalPaid += amounts[j];\n      //   }\n      //   if (totalPaid > int(equalShare))\n      //     for (j=0; j<recipients.length; j++) {\n      //       // too tired for this!!\n      //     }\n      // }\n\n\n\n      //     for (stakes = allDibsPaidFor(staker).concat(staker.stake[staker]).concat(staker.stake[0x0]))\n      //       if amount>=shortfall\n      //         totalPaid += shortfall\n      //         shorten(stake)\n      //       else\n      //         totalPaid += amount\n      //         remove(stake) including own stake!\n      //     refund(0)\n      // for stakers\n      //   if exists(stake) (ie those who were not removed in last round)\n      //     for (stakes = allDibsPaidBy(staker).concat(staker.stake[staker]).concat(staker.stake[0x0]))\n      //       if amount>=shortfall\n      //         totalPaid += shortfall\n      //         refund += rest\n      //       else\n      //         totalPaid += amount\n      //       remove(stake)\n      //     refund (refund)\n      //     emitsolidity uint16\n      //\n\n      if (pollData[_poll].staked[msg.sender].rep == 0)\n        removeEmptyStake(_poll, msg.sender);\n    }\n\n    function setString (string memory _poll, string memory _mapName, uint8 _vt, string memory data) public {\n      bytes32 hash = keccak256(abi.encodePacked(_poll, encodeFunctionName(_mapName), _vt));\n      allTheData[hash] = stringToBytes32Array(data);\n    }\n\n\n    event repRefund (address staker, uint staked, uint refunded);\n    event refundFail (address _staker);\n    function refundStake (string memory _poll, bytes32 _reveal) public {\n      // Uncomment them - this is for testing by, amount!\n      // require (pollData[_poll].staked[msg.sender].rep > 0, 'Sender has nothing staked for this poll');\n      // require (pollData[_poll].ownCheckInIndex[msg.sender] > 0, 'Sender has not submitted an attendance proof for this poll');\n      if (!validate(address(0), _poll, _reveal)) {\n        emit refundFail(msg.sender);\n        revert ('Invalid proof');\n      }\n\n      (uint num, uint denom) = multiplier();\n      uint refund = num.mul(pollData[_poll].staked[msg.sender].rep) / denom;\n      if (rep[msg.sender] + refund > maxRep())\n        refund = pollData[_poll].staked[msg.sender].rep;\n\n      pollData[_poll].staked[msg.sender].rep = 0;\n      rep[msg.sender] += refund;\n      emit repRefund (msg.sender, pollData[_poll].staked[msg.sender].rep, refund);\n      if (totalVenueContribs(_poll, msg.sender) == 0)\n        removeEmptyStake(_poll, msg.sender);\n    }\n\n\n    function emitVenueStakeRefunded (string memory _poll, address _to, address _by, uint _amount, uint8 _repeat) public  {\n      for (uint8 i=0; _repeat>0 && i<_repeat; i++) {\n        emit venuePotDisbursed (_poll, _to, _by, _amount);\n      }\n      if (_repeat==5)\n        emit venuePotDisbursed (_poll, pollData[_poll].venuePayer, _by, _amount);\n    }\n\n    function emitVenuePotRefunded (string memory _poll, address _to, address _by, uint _amount) public {\n      emit venuePotDisbursed (_poll, pollData[_poll].venuePayer, _by, _amount);\n    }\n\n    function emitrepRefunded (address _staker, uint _staked, uint _refunded) public {\n      emit repRefund (_staker, _staked, _refunded);\n    }\n\n    function emitrefundFail (address _staker) public {\n      emit refundFail (_staker);\n    }\n\n\n\n    event numberLoggerLikeImUsingFuckingJava (string, uint);\n    // cheapo validator - this one just counts how many people included you in their proof, with no attempt at making the proofs agree.\n    // currently counts votes in favour of each stakers, which will help, but doesn't flag which poroofs disagree\n    function validate(address _pollContract, string memory _poll, bytes32 _reveal) public returns (bool) {\n        // require (_pollContract==howeverYoullIdentifySelf, 'wrong Poll contract - something needs upgrading');\nreturn true;\n        address[] memory stakers = getStakerAddresses(_poll);\n        address[][] memory proofs = getproofsAsAddresses(_poll);\n        uint16 i;\n        uint16 sendersIndex;\n        bool stakerPresent;\n\n        uint8 threshold = 1 ;   //  do not set to 0 - div0 error!\n        // emit numberLoggerLikeImUsingFuckingJava('stakers',stakers.length);\n        // emit numberLoggerLikeImUsingFuckingJava('proofs',proofs.length);\n\n        // proofCounter memory pc;\n        for(i = 0; i < stakers.length; i++) {\n            // emit logStuff(\"started loop\");\n            stakerPresent = false;\n            if (stakers[i]==msg.sender)\n              sendersIndex=i;\n            for(uint j = 0; j < proofs[i].length; j++) {\n              if (proofs[i][j] == msg.sender)\n                stakerPresent = true;\n              stakerPresentIn[proofs[i][j]]++;     // increase the present count for the address who this staker marked present\n              // if this staker claims someone is here but the majority disagree, then emit disagreement;\n            }\n            // if (!stakerPresent)\n            //   impugnProof(i);\n            //   // if I am not present, emit a disagreement;\n        }\n        // if stakerPresentIn[sendersIndex] < proofs[i].length {\n        //   bePissedOff();\n        // }\n\n        // update majorities\n        // check previous disagreements\n\n        if ((stakerPresentIn[msg.sender]>=threshold) && (proofs[i].length/ stakerPresentIn[msg.sender] < 2)) {\n          return true;\n        }\n        // add reversion logic\n\n\n\n\n        // // deal with 0 < threshold < 1\n        // if(percentageThreshold>0) {\n        //   threshold = percentageThreshold*stakers.length;\n        // }\n        // if (pc.senderIsPresent && (proofs.length-pc.fakeProofs >= threshold)) {\n        //     return true;\n        // }\n        // return false;\n\n        // if (!pc.senderIsPresent)\n        //     revert('Sender did not register attendance');\n\n        // if (!pc.senderIsPresent)\n        //     emit logStuff('Sender did not register attendance');\n        // if (proofs.length-pc.fakeProofs < threshold)\n        //     emit logStuff('Not enough attendees in consensus');\n        // if (proofs.length == pc.fakeProofs)\n        //     emit logStuff('All proofs were fake');\n        // emit numberLoggerLikeImUsingFuckingJava ('fakeProofs',pc.fakeProofs);\n        // emit numberLoggerLikeImUsingFuckingJava ('proofs.length',proofs.length);\n        // return true;\n    }\n\n    function proofType() public pure returns (uint8) {\n      return vType;\n    }\n\n    function encodeFunctionName (string memory name) internal pure returns (bytes4) {\n        // TODO: cache for readability!\n        // if (\"staker\")\n        //     return\n        // if (\"proof\")\n        //     return\n        return bytes4(keccak256(bytes(name)));\n    }\n\n    // split a serialised string of addresses (as received from main contract).\n    // NB - only works in this validator - other validators will use multiple types within serialised string\n    function splitToAddresses(string memory _concatenated) internal pure returns (address[] memory result) {\n        strings.slice memory delim = \",\".toSlice();\n        strings.slice memory source = _concatenated.toSlice();\n        address[] memory parts = new address[](source.count(delim));\n\n        for(uint i = 0; i < parts.length; i++) {\n           parts[i] = source.split(delim).toString().toAddress();\n        }\n        return parts;\n\n    }\n\n    function bytesToAddress(bytes memory _bytes) public pure returns (address) {\n      address tempAddress;\n      assembly {\n          tempAddress := div(mload(add(add(_bytes, 0x20), 0)), 0x1000000000000000000000000)\n      }\n      return tempAddress;\n    }\n\n    function toString(address account) public pure returns(string memory) {\n        return toString(abi.encodePacked(account), 5);\n    }\n\n    function toString(uint256 value) public pure returns(string memory) {\n        return toString(abi.encodePacked(value), 0);\n    }\n\n    function toString(bytes32 value) public pure returns(string memory) {\n        return toString(abi.encodePacked(value), 0);\n    }\n\n    function toString(bytes memory data, uint16 len) public pure returns(string memory) {\n        bytes memory alphabet = \"0123456789abcdef\";\n        uint16 strLen = 20;  // It's 20. The length is just fucking 20.  uint16(data.length);\n        // Pretty simple if statement - why won't it work ?\n        // if (len>0) {\n        //     strLen = len;\n        // }\n\n\n        bytes memory str = new bytes(2 + strLen * 2);\n        str[0] = '0';\n        str[1] = 'x';\n        for (uint i = 0; i < strLen; i++) {\n            str[2+i*2] = alphabet[uint(uint8(data[i] >> 4))];\n            str[3+i*2] = alphabet[uint(uint8(data[i] & 0x0f))];\n        }\n        return string(str);\n    }\n\n\n    function bytes32ToBytes(bytes32 _bytes32) public pure returns (bytes memory){\n        // string memory str = string(_bytes32);\n        // TypeError: Explicit type conversion not allowed from \"bytes32\" to \"string storage pointer\"\n        bytes memory bytesArray = new bytes(32);\n        for (uint256 i; i < 32; i++) {\n            bytesArray[i] = _bytes32[i];\n        }\n        return bytesArray;\n    }\n\n    // function bytesToBytes32(bytes b, uint offset) private pure returns (bytes32) {\n    //     bytes32 out;\n\n    //     for (uint i = 0; i < 32; i++) {\n    //         out |= bytes32(b[offset + i] & 0xFF) >> (i * 8);\n    //     }\n    //     return out;\n    // }\n\n\n    function bytesToBytes32(bytes memory b) public pure returns (bytes32 bts) {\n        bytes32 i;\n        //NB size etc= 32b = 0x20b\n        assembly { i := mload(add(b, 0x20)) }\n        bts = i;\n    }\n\n    function bytes32ToString(bytes32 _bytes32) public pure returns (string memory ){\n        bytes memory bytesArray = bytes32ToBytes(_bytes32);\n        return string(bytesArray);\n    }\n\n    function bytes32ArrayToString (bytes32[] memory data) public pure returns (string memory ) {\n        bytes memory bytesString = new bytes(data.length * 32);\n        uint urlLength;\n        uint i=0;\n        for (i=0; i<data.length; i++) {\n            for (uint j=0; j<32; j++) {\n                byte char = byte(bytes32(uint(data[i]) * 2 ** (8 * j)));\n                if (char != 0) {\n                    bytesString[urlLength] = char;\n                    urlLength += 1;\n                }\n            }\n        }\n        bytes memory bytesStringTrimmed = new bytes(urlLength);\n        for (i=0; i<urlLength; i++) {\n            bytesStringTrimmed[i] = bytesString[i];\n        }\n        return string(bytesStringTrimmed);\n    }\n\n    function stringToBytes32Array(string memory source) public pure returns (bytes32[] memory result) {\n        // uint16 words = uint16( (bytes(source).length+31)/32 );\n        uint16 words = 1;\n        for(uint16 i=0; i<=words; i++) {\n          uint16 offset = 32*(i+1);\n          bytes32 word;\n          assembly {\n            word := mload(add(source, offset))\n          }\n          result[i] = word;\n        }\n        return result;\n    }\n\n    // TODO !!!\n    // function bytes32ToUint (bytes32 data) returns (uint) {\n    //     return 2;\n    // }\n\n    function bytesSplit32(bytes  memory data) public pure returns (bytes32, bytes memory ) {\n        uint8 splitAt = 32;                             // all (if variable split, pass in splitAt)\n        uint256 taillength = 0;\n        if (data.length > splitAt)\n            taillength = data.length-splitAt;\n        bytes32 temp;\n        // bytes32 head;                                   // 32b split\n        bytes memory head = new bytes(splitAt);         // variable length split\n        bytes memory tail = new bytes(taillength);\n        for(uint i=0;i<=data.length-1;i++){\n            if (i<splitAt)\n                head[i] = bytes(data)[i] ;\n            else\n                tail[i-splitAt] = bytes(data)[i] ;\n        }\n        return (bytesToBytes32(head), tail);\n    }\n\n    // calls fallback function of pollAddress, passing 4 byte encoded function name to remote contract to select method.\n    // NB future better: just get the ABI of the finished Poll conmtract, and use that!\n    // NB in sol 0.6 + fallback cannot return anything\n    // NB future optimisation : we are not using the functionality of string here, since string must have come from a bytes32\n    event CrossContractValidateBegin();\n    event CrossContractValidateEnd();\n    function crossContractCall (bytes4 fnNameHash, string  memory poll, uint256 valid, uint8 vt) public returns (bytes32[] memory) {\n    address pollContract = pollAddress;\n\n        emit CrossContractValidateBegin();\n        assembly {\n            let ptr := mload(0x40)\n            calldatacopy(ptr, 0, calldatasize)\n            let result := delegatecall(gas, pollContract, ptr, calldatasize, 0, 0)\n            let size := returndatasize\n            returndatacopy(ptr, 0, size)\n            switch result\n            case 0 { revert(ptr, size) }\n            default { return(ptr, size) }\n        }\n        emit CrossContractValidateEnd();\n    }\n\n}\n",
  "sourcePath": "/home/teide/randomCode/lunchcoin/contracts.v1/contracts/MutualAgreement.sol",
  "compiler": {
    "name": "solc",
    "version": "0.5.16+commit.9c3226ce.Emscripten.clang"
  },
  "schemaVersion": "3.2.0",
  "updatedAt": "2020-06-27T21:22:32.809Z",
  "networkType": "ethereum",
  "devdoc": {
    "methods": {}
  },
  "userdoc": {
    "methods": {}
  }
}