{
  "contractName": "MutualAgreement",
  "abi": [
    {
      "inputs": [],
      "payable": false,
      "stateMutability": "nonpayable",
      "type": "constructor",
      "signature": "constructor"
    },
    {
      "anonymous": false,
      "inputs": [],
      "name": "CrossContractValidateBegin",
      "type": "event",
      "signature": "0x1ff50e4650f7f1e5b26a5f5e921b803deee4a95a1b6ef46e05992b3bc1dcdb8c"
    },
    {
      "anonymous": false,
      "inputs": [],
      "name": "CrossContractValidateEnd",
      "type": "event",
      "signature": "0x8d3a809bf7de78d4f05cff7e28d114c50c5b6b828274326dec15c0119a574f81"
    },
    {
      "anonymous": false,
      "inputs": [
        {
          "indexed": false,
          "internalType": "address",
          "name": "",
          "type": "address"
        },
        {
          "indexed": false,
          "internalType": "string",
          "name": "",
          "type": "string"
        }
      ],
      "name": "disreputableStakerIgnored",
      "type": "event",
      "signature": "0x5b8a56dcf3c46c1155547d5fcd97b1a751382df7f906feb9d53f5cd53271308f"
    },
    {
      "anonymous": false,
      "inputs": [
        {
          "indexed": false,
          "internalType": "string",
          "name": "_poll",
          "type": "string"
        },
        {
          "indexed": false,
          "internalType": "address",
          "name": "_staker",
          "type": "address"
        }
      ],
      "name": "emptyStakeRemoved",
      "type": "event",
      "signature": "0xbcdb1351c7b0043b8c36c050954a8f50bd16196d7f967f2e0c7b2a17440d5979"
    },
    {
      "anonymous": false,
      "inputs": [
        {
          "indexed": false,
          "internalType": "string",
          "name": "",
          "type": "string"
        },
        {
          "indexed": false,
          "internalType": "string",
          "name": "",
          "type": "string"
        },
        {
          "indexed": false,
          "internalType": "address",
          "name": "",
          "type": "address"
        },
        {
          "indexed": false,
          "internalType": "uint8",
          "name": "",
          "type": "uint8"
        },
        {
          "indexed": false,
          "internalType": "bytes32[]",
          "name": "",
          "type": "bytes32[]"
        }
      ],
      "name": "gpResult",
      "type": "event",
      "signature": "0xd2fc72c97aeb0e8367f33ed670eff5bed73dab77cab530bd44311a95ae547398"
    },
    {
      "anonymous": false,
      "inputs": [
        {
          "indexed": false,
          "internalType": "string",
          "name": "",
          "type": "string"
        }
      ],
      "name": "logStuff",
      "type": "event",
      "signature": "0xbef39ac07ea6b8a7a08590612f317b1db2e9821fea4739345478345d853321e7"
    },
    {
      "anonymous": false,
      "inputs": [
        {
          "indexed": false,
          "internalType": "string",
          "name": "",
          "type": "string"
        }
      ],
      "name": "newPollCreated",
      "type": "event",
      "signature": "0xac34e99d8501f1cacded4cd798d4f7bf0b6b8f73b0995c9129c476b096c67ca7"
    },
    {
      "anonymous": false,
      "inputs": [
        {
          "indexed": false,
          "internalType": "string",
          "name": "",
          "type": "string"
        },
        {
          "indexed": false,
          "internalType": "uint256",
          "name": "",
          "type": "uint256"
        }
      ],
      "name": "numberLoggerLikeImUsingFuckingJava",
      "type": "event",
      "signature": "0xfed296e202df9b481ea0f4586ce8acea759915ccb7cc65f185c4249a87d1091c"
    },
    {
      "anonymous": false,
      "inputs": [
        {
          "indexed": false,
          "internalType": "address",
          "name": "",
          "type": "address"
        }
      ],
      "name": "proofUpdated",
      "type": "event",
      "signature": "0xd0adafca5f88ebee186251179caad6d29ee5ad555a79bfe4d8a00e3a87988a2b"
    },
    {
      "anonymous": false,
      "inputs": [
        {
          "indexed": false,
          "internalType": "string",
          "name": "poll",
          "type": "string"
        },
        {
          "indexed": false,
          "internalType": "address",
          "name": "by",
          "type": "address"
        }
      ],
      "name": "proofsWindowClosed",
      "type": "event",
      "signature": "0xc2b1ad619f75c5b190b6f26a4b118a5ec58ad98a0a76cef82a67099f76c03336"
    },
    {
      "anonymous": false,
      "inputs": [
        {
          "indexed": false,
          "internalType": "address",
          "name": "_staker",
          "type": "address"
        }
      ],
      "name": "refundFail",
      "type": "event",
      "signature": "0xf79d39278918f1a3dc8522bfdea96d506ed15dd2cc97156b182f5c8895ab7b71"
    },
    {
      "anonymous": false,
      "inputs": [
        {
          "indexed": false,
          "internalType": "address",
          "name": "staker",
          "type": "address"
        },
        {
          "indexed": false,
          "internalType": "uint256",
          "name": "staked",
          "type": "uint256"
        },
        {
          "indexed": false,
          "internalType": "uint256",
          "name": "refunded",
          "type": "uint256"
        }
      ],
      "name": "repRefund",
      "type": "event",
      "signature": "0x391dd8dd49c61a65c7ebe8745ea4c81bc4d5a6dd59d8bda3ba1f9a9114bf64eb"
    },
    {
      "anonymous": false,
      "inputs": [
        {
          "indexed": false,
          "internalType": "address",
          "name": "",
          "type": "address"
        },
        {
          "indexed": false,
          "internalType": "string",
          "name": "",
          "type": "string"
        }
      ],
      "name": "stakeNotAccepted",
      "type": "event",
      "signature": "0xbdaeb13301d6416e47b70f09ade9e4ae93d6bd468d3833197ea44af2e955f0fe"
    },
    {
      "anonymous": false,
      "inputs": [
        {
          "indexed": false,
          "internalType": "address",
          "name": "",
          "type": "address"
        },
        {
          "indexed": false,
          "internalType": "string",
          "name": "",
          "type": "string"
        },
        {
          "indexed": false,
          "internalType": "uint256",
          "name": "",
          "type": "uint256"
        }
      ],
      "name": "staked",
      "type": "event",
      "signature": "0x9435991b430d6fe3d331f4a4e60ab537af0083a1880199a6838e4c92a2cbe4fb"
    },
    {
      "anonymous": false,
      "inputs": [
        {
          "indexed": false,
          "internalType": "address",
          "name": "",
          "type": "address"
        },
        {
          "indexed": false,
          "internalType": "string",
          "name": "",
          "type": "string"
        },
        {
          "indexed": false,
          "internalType": "uint256",
          "name": "",
          "type": "uint256"
        }
      ],
      "name": "venueContribution",
      "type": "event",
      "signature": "0x60cba9d7e7796e530759300c0cb724b71d5cfc9fb2097cf0287735bbc84e89d4"
    },
    {
      "anonymous": false,
      "inputs": [
        {
          "indexed": false,
          "internalType": "string",
          "name": "_poll",
          "type": "string"
        },
        {
          "indexed": false,
          "internalType": "address",
          "name": "to",
          "type": "address"
        },
        {
          "indexed": false,
          "internalType": "address",
          "name": "by",
          "type": "address"
        },
        {
          "indexed": false,
          "internalType": "uint256",
          "name": "amount",
          "type": "uint256"
        }
      ],
      "name": "venuePotDisbursed",
      "type": "event",
      "signature": "0x5ee9688c98e0f205ec05ae1bb4703913ce6aaffae0ed525d1e5e2303750811e7"
    },
    {
      "anonymous": false,
      "inputs": [
        {
          "indexed": false,
          "internalType": "bytes",
          "name": "",
          "type": "bytes"
        }
      ],
      "name": "whassahash",
      "type": "event",
      "signature": "0xee5443e0769176cacb5e7cebe33b561327ef2a06863e7fa72ec9be7cc2d82b60"
    },
    {
      "anonymous": false,
      "inputs": [
        {
          "indexed": false,
          "internalType": "bytes32",
          "name": "",
          "type": "bytes32"
        }
      ],
      "name": "whassakeccack",
      "type": "event",
      "signature": "0xa457a29197b7db5513e7fa40d359d53b392afa4785e7b4e899898a92798d4849"
    },
    {
      "payable": true,
      "stateMutability": "payable",
      "type": "fallback"
    },
    {
      "constant": true,
      "inputs": [
        {
          "internalType": "string",
          "name": "",
          "type": "string"
        }
      ],
      "name": "pollData",
      "outputs": [
        {
          "internalType": "address",
          "name": "initiator",
          "type": "address"
        },
        {
          "internalType": "uint256",
          "name": "minStake",
          "type": "uint256"
        },
        {
          "internalType": "int256",
          "name": "venueCost",
          "type": "int256"
        },
        {
          "internalType": "uint256",
          "name": "venuePot",
          "type": "uint256"
        },
        {
          "internalType": "address",
          "name": "venuePayer",
          "type": "address"
        },
        {
          "internalType": "uint8",
          "name": "minParticipants",
          "type": "uint8"
        },
        {
          "components": [
            {
              "internalType": "uint256",
              "name": "start",
              "type": "uint256"
            },
            {
              "internalType": "uint256",
              "name": "end",
              "type": "uint256"
            }
          ],
          "internalType": "struct MutualAgreement.TimeRange",
          "name": "eventTime",
          "type": "tuple"
        },
        {
          "internalType": "bool",
          "name": "proofsWindowClosed",
          "type": "bool"
        }
      ],
      "payable": false,
      "stateMutability": "view",
      "type": "function",
      "signature": "0x4a0f2fd7"
    },
    {
      "constant": false,
      "inputs": [],
      "name": "getValuesWhichtheFuckenConstructorShouldHaveSet",
      "outputs": [
        {
          "internalType": "uint256",
          "name": "",
          "type": "uint256"
        },
        {
          "internalType": "uint256",
          "name": "",
          "type": "uint256"
        }
      ],
      "payable": false,
      "stateMutability": "nonpayable",
      "type": "function",
      "signature": "0xba5868ba"
    },
    {
      "constant": false,
      "inputs": [
        {
          "internalType": "string",
          "name": "_poll",
          "type": "string"
        }
      ],
      "name": "initialiseDemo",
      "outputs": [],
      "payable": false,
      "stateMutability": "nonpayable",
      "type": "function",
      "signature": "0x7514d750"
    },
    {
      "constant": true,
      "inputs": [],
      "name": "multiplier",
      "outputs": [
        {
          "internalType": "uint256",
          "name": "numerator",
          "type": "uint256"
        },
        {
          "internalType": "uint256",
          "name": "denominator",
          "type": "uint256"
        }
      ],
      "payable": false,
      "stateMutability": "view",
      "type": "function",
      "signature": "0x1b3ed722"
    },
    {
      "constant": true,
      "inputs": [],
      "name": "maxRep",
      "outputs": [
        {
          "internalType": "uint256",
          "name": "maxRep",
          "type": "uint256"
        }
      ],
      "payable": false,
      "stateMutability": "view",
      "type": "function",
      "signature": "0x63039be8"
    },
    {
      "constant": false,
      "inputs": [
        {
          "internalType": "string",
          "name": "message",
          "type": "string"
        }
      ],
      "name": "doEmit",
      "outputs": [],
      "payable": false,
      "stateMutability": "nonpayable",
      "type": "function",
      "signature": "0x58666c04"
    },
    {
      "constant": true,
      "inputs": [
        {
          "internalType": "string",
          "name": "_poll",
          "type": "string"
        }
      ],
      "name": "isPoll",
      "outputs": [
        {
          "internalType": "bool",
          "name": "",
          "type": "bool"
        }
      ],
      "payable": false,
      "stateMutability": "view",
      "type": "function",
      "signature": "0x67bc5638"
    },
    {
      "constant": true,
      "inputs": [
        {
          "internalType": "string",
          "name": "_poll",
          "type": "string"
        }
      ],
      "name": "getPoll",
      "outputs": [
        {
          "internalType": "address",
          "name": "initiator",
          "type": "address"
        },
        {
          "internalType": "uint256",
          "name": "minStake",
          "type": "uint256"
        },
        {
          "internalType": "int256",
          "name": "venueCost",
          "type": "int256"
        },
        {
          "internalType": "uint256",
          "name": "venuePot",
          "type": "uint256"
        },
        {
          "internalType": "uint8",
          "name": "minParticipants",
          "type": "uint8"
        },
        {
          "internalType": "uint256",
          "name": "start",
          "type": "uint256"
        },
        {
          "internalType": "uint256",
          "name": "end",
          "type": "uint256"
        },
        {
          "internalType": "bool",
          "name": "proofsWindowClosed",
          "type": "bool"
        },
        {
          "internalType": "bytes32[5][]",
          "name": "ownCheckInIndex",
          "type": "bytes32[5][]"
        }
      ],
      "payable": false,
      "stateMutability": "view",
      "type": "function",
      "signature": "0x10a688e3"
    },
    {
      "constant": true,
      "inputs": [
        {
          "internalType": "string",
          "name": "_poll",
          "type": "string"
        }
      ],
      "name": "getPollStruct",
      "outputs": [
        {
          "components": [
            {
              "internalType": "address",
              "name": "initiator",
              "type": "address"
            },
            {
              "internalType": "uint256",
              "name": "minStake",
              "type": "uint256"
            },
            {
              "internalType": "int256",
              "name": "venueCost",
              "type": "int256"
            },
            {
              "internalType": "uint256",
              "name": "venuePot",
              "type": "uint256"
            },
            {
              "internalType": "address",
              "name": "venuePayer",
              "type": "address"
            },
            {
              "internalType": "uint8",
              "name": "minParticipants",
              "type": "uint8"
            },
            {
              "internalType": "uint8",
              "name": "participants",
              "type": "uint8"
            },
            {
              "components": [
                {
                  "internalType": "uint256",
                  "name": "start",
                  "type": "uint256"
                },
                {
                  "internalType": "uint256",
                  "name": "end",
                  "type": "uint256"
                }
              ],
              "internalType": "struct MutualAgreement.TimeRange",
              "name": "eventTime",
              "type": "tuple"
            },
            {
              "internalType": "bool",
              "name": "proofsWindowClosed",
              "type": "bool"
            }
          ],
          "internalType": "struct MutualAgreement.PollExternal",
          "name": "returnPoll",
          "type": "tuple"
        }
      ],
      "payable": false,
      "stateMutability": "view",
      "type": "function",
      "signature": "0x4665ecb4"
    },
    {
      "constant": false,
      "inputs": [
        {
          "internalType": "bytes32",
          "name": "_hash",
          "type": "bytes32"
        },
        {
          "internalType": "bytes32[]",
          "name": "_data",
          "type": "bytes32[]"
        }
      ],
      "name": "setByHash",
      "outputs": [],
      "payable": false,
      "stateMutability": "nonpayable",
      "type": "function",
      "signature": "0x6026ad9c"
    },
    {
      "constant": true,
      "inputs": [
        {
          "internalType": "bytes32",
          "name": "_hash",
          "type": "bytes32"
        }
      ],
      "name": "getByHash",
      "outputs": [
        {
          "internalType": "bytes32[]",
          "name": "",
          "type": "bytes32[]"
        }
      ],
      "payable": false,
      "stateMutability": "view",
      "type": "function",
      "signature": "0xa2dd3d47"
    },
    {
      "constant": true,
      "inputs": [
        {
          "internalType": "string",
          "name": "_poll",
          "type": "string"
        },
        {
          "internalType": "string",
          "name": "_mapName",
          "type": "string"
        }
      ],
      "name": "get",
      "outputs": [
        {
          "internalType": "bytes32[]",
          "name": "",
          "type": "bytes32[]"
        }
      ],
      "payable": false,
      "stateMutability": "view",
      "type": "function",
      "signature": "0x3e10510b"
    },
    {
      "constant": false,
      "inputs": [
        {
          "internalType": "string",
          "name": "_poll",
          "type": "string"
        },
        {
          "internalType": "string",
          "name": "_mapName",
          "type": "string"
        },
        {
          "internalType": "address",
          "name": "_stakerOrZero",
          "type": "address"
        },
        {
          "internalType": "uint8",
          "name": "_vt",
          "type": "uint8"
        },
        {
          "internalType": "bytes32[]",
          "name": "_data",
          "type": "bytes32[]"
        }
      ],
      "name": "set",
      "outputs": [],
      "payable": false,
      "stateMutability": "nonpayable",
      "type": "function",
      "signature": "0x062ffb07"
    },
    {
      "constant": false,
      "inputs": [
        {
          "internalType": "string",
          "name": "_poll",
          "type": "string"
        },
        {
          "internalType": "string",
          "name": "_mapName",
          "type": "string"
        },
        {
          "internalType": "uint8",
          "name": "_vt",
          "type": "uint8"
        },
        {
          "internalType": "string",
          "name": "data",
          "type": "string"
        }
      ],
      "name": "setString",
      "outputs": [],
      "payable": false,
      "stateMutability": "nonpayable",
      "type": "function",
      "signature": "0x2742bea8"
    },
    {
      "constant": false,
      "inputs": [
        {
          "internalType": "string",
          "name": "_poll",
          "type": "string"
        },
        {
          "internalType": "int256",
          "name": "_cost",
          "type": "int256"
        }
      ],
      "name": "setVenueCost",
      "outputs": [],
      "payable": false,
      "stateMutability": "nonpayable",
      "type": "function",
      "signature": "0x88a80f23"
    },
    {
      "constant": false,
      "inputs": [
        {
          "internalType": "string",
          "name": "_poll",
          "type": "string"
        },
        {
          "internalType": "address",
          "name": "_staker",
          "type": "address"
        },
        {
          "internalType": "uint256",
          "name": "_rep",
          "type": "uint256"
        }
      ],
      "name": "setRep",
      "outputs": [],
      "payable": false,
      "stateMutability": "nonpayable",
      "type": "function",
      "signature": "0x405a6adb"
    },
    {
      "constant": true,
      "inputs": [
        {
          "internalType": "address",
          "name": "_staker",
          "type": "address"
        }
      ],
      "name": "getRep",
      "outputs": [
        {
          "internalType": "uint256",
          "name": "",
          "type": "uint256"
        }
      ],
      "payable": false,
      "stateMutability": "view",
      "type": "function",
      "signature": "0x6a2ebc3f"
    },
    {
      "constant": false,
      "inputs": [
        {
          "internalType": "address",
          "name": "recipient",
          "type": "address"
        }
      ],
      "name": "mineRep",
      "outputs": [
        {
          "internalType": "uint256",
          "name": "newRep",
          "type": "uint256"
        }
      ],
      "payable": false,
      "stateMutability": "nonpayable",
      "type": "function",
      "signature": "0xc4a3496e"
    },
    {
      "constant": false,
      "inputs": [
        {
          "internalType": "uint256",
          "name": "amount",
          "type": "uint256"
        }
      ],
      "name": "emptySofa",
      "outputs": [],
      "payable": false,
      "stateMutability": "nonpayable",
      "type": "function",
      "signature": "0x0ed5fdc5"
    },
    {
      "constant": false,
      "inputs": [
        {
          "internalType": "string",
          "name": "poll",
          "type": "string"
        },
        {
          "internalType": "address",
          "name": "initiator",
          "type": "address"
        },
        {
          "internalType": "uint256",
          "name": "minStake",
          "type": "uint256"
        },
        {
          "internalType": "int256",
          "name": "venueCost",
          "type": "int256"
        },
        {
          "internalType": "address",
          "name": "venuePayer",
          "type": "address"
        },
        {
          "internalType": "uint8",
          "name": "participants",
          "type": "uint8"
        }
      ],
      "name": "createPoll",
      "outputs": [],
      "payable": false,
      "stateMutability": "nonpayable",
      "type": "function",
      "signature": "0x235ff72b"
    },
    {
      "constant": false,
      "inputs": [
        {
          "internalType": "string",
          "name": "_poll",
          "type": "string"
        },
        {
          "internalType": "address",
          "name": "_staker",
          "type": "address"
        }
      ],
      "name": "getStakersProof",
      "outputs": [
        {
          "internalType": "bytes32[]",
          "name": "",
          "type": "bytes32[]"
        }
      ],
      "payable": false,
      "stateMutability": "nonpayable",
      "type": "function",
      "signature": "0x898fa03b"
    },
    {
      "constant": false,
      "inputs": [
        {
          "internalType": "string",
          "name": "_poll",
          "type": "string"
        },
        {
          "internalType": "string",
          "name": "_mapName",
          "type": "string"
        },
        {
          "internalType": "address",
          "name": "_stakerOrZero",
          "type": "address"
        },
        {
          "internalType": "uint8",
          "name": "_vt",
          "type": "uint8"
        },
        {
          "internalType": "bytes32[]",
          "name": "data",
          "type": "bytes32[]"
        }
      ],
      "name": "getProofEmitHashesOnlyWithStaker",
      "outputs": [],
      "payable": false,
      "stateMutability": "nonpayable",
      "type": "function",
      "signature": "0x7682484d"
    },
    {
      "constant": false,
      "inputs": [
        {
          "internalType": "string",
          "name": "_poll",
          "type": "string"
        },
        {
          "internalType": "address",
          "name": "_staker",
          "type": "address"
        },
        {
          "internalType": "uint8",
          "name": "_vt",
          "type": "uint8"
        }
      ],
      "name": "addStaker",
      "outputs": [],
      "payable": false,
      "stateMutability": "nonpayable",
      "type": "function",
      "signature": "0xed3d3205"
    },
    {
      "constant": true,
      "inputs": [
        {
          "internalType": "string",
          "name": "_poll",
          "type": "string"
        }
      ],
      "name": "getStakerAddresses",
      "outputs": [
        {
          "internalType": "address[]",
          "name": "",
          "type": "address[]"
        }
      ],
      "payable": false,
      "stateMutability": "view",
      "type": "function",
      "signature": "0x5a31204c"
    },
    {
      "constant": false,
      "inputs": [
        {
          "internalType": "string",
          "name": "_poll",
          "type": "string"
        }
      ],
      "name": "getproofsAsAddresses",
      "outputs": [
        {
          "internalType": "address[][]",
          "name": "",
          "type": "address[][]"
        }
      ],
      "payable": false,
      "stateMutability": "nonpayable",
      "type": "function",
      "signature": "0x0dd990c7"
    },
    {
      "constant": false,
      "inputs": [
        {
          "internalType": "string",
          "name": "_poll",
          "type": "string"
        },
        {
          "internalType": "string",
          "name": "_mapName",
          "type": "string"
        },
        {
          "internalType": "address",
          "name": "_impersonatedStaker",
          "type": "address"
        },
        {
          "internalType": "uint8",
          "name": "_vt",
          "type": "uint8"
        },
        {
          "internalType": "bytes32[]",
          "name": "data",
          "type": "bytes32[]"
        }
      ],
      "name": "setCheckedInWithStaker",
      "outputs": [],
      "payable": false,
      "stateMutability": "nonpayable",
      "type": "function",
      "signature": "0x9478485e"
    },
    {
      "constant": false,
      "inputs": [
        {
          "internalType": "string",
          "name": "_poll",
          "type": "string"
        },
        {
          "internalType": "address",
          "name": "_impersonatedStaker",
          "type": "address"
        },
        {
          "internalType": "address[]",
          "name": "_newProof",
          "type": "address[]"
        }
      ],
      "name": "checkIn",
      "outputs": [],
      "payable": false,
      "stateMutability": "nonpayable",
      "type": "function",
      "signature": "0xbf6cd601"
    },
    {
      "constant": false,
      "inputs": [
        {
          "internalType": "string",
          "name": "_poll",
          "type": "string"
        },
        {
          "internalType": "address",
          "name": "_impersonatedStaker",
          "type": "address"
        },
        {
          "internalType": "address[]",
          "name": "_newProof",
          "type": "address[]"
        }
      ],
      "name": "addProof",
      "outputs": [],
      "payable": false,
      "stateMutability": "nonpayable",
      "type": "function",
      "signature": "0x5d8636c0"
    },
    {
      "constant": false,
      "inputs": [
        {
          "internalType": "string",
          "name": "_poll",
          "type": "string"
        },
        {
          "internalType": "address[]",
          "name": "_newProof",
          "type": "address[]"
        }
      ],
      "name": "addProofSelf",
      "outputs": [],
      "payable": false,
      "stateMutability": "nonpayable",
      "type": "function",
      "signature": "0x09421c25"
    },
    {
      "constant": false,
      "inputs": [
        {
          "internalType": "string",
          "name": "_poll",
          "type": "string"
        }
      ],
      "name": "closeProofsWindow",
      "outputs": [],
      "payable": false,
      "stateMutability": "nonpayable",
      "type": "function",
      "signature": "0x8fee464b"
    },
    {
      "constant": false,
      "inputs": [
        {
          "internalType": "string",
          "name": "_poll",
          "type": "string"
        }
      ],
      "name": "reopenProofsWindow",
      "outputs": [],
      "payable": false,
      "stateMutability": "nonpayable",
      "type": "function",
      "signature": "0xe68043df"
    },
    {
      "constant": true,
      "inputs": [
        {
          "internalType": "string",
          "name": "_poll",
          "type": "string"
        }
      ],
      "name": "isProofsWindowClosed",
      "outputs": [
        {
          "internalType": "bool",
          "name": "",
          "type": "bool"
        }
      ],
      "payable": false,
      "stateMutability": "view",
      "type": "function",
      "signature": "0x0f58bb42"
    },
    {
      "constant": false,
      "inputs": [
        {
          "internalType": "string",
          "name": "poll",
          "type": "string"
        },
        {
          "internalType": "uint256",
          "name": "repStake",
          "type": "uint256"
        },
        {
          "internalType": "address",
          "name": "beneficiary",
          "type": "address"
        }
      ],
      "name": "addStake",
      "outputs": [],
      "payable": true,
      "stateMutability": "payable",
      "type": "function",
      "signature": "0x0170a815"
    },
    {
      "constant": false,
      "inputs": [
        {
          "internalType": "string",
          "name": "_poll",
          "type": "string"
        },
        {
          "internalType": "address",
          "name": "_impersonatedStaker",
          "type": "address"
        },
        {
          "internalType": "uint256",
          "name": "_rep",
          "type": "uint256"
        },
        {
          "internalType": "uint256",
          "name": "_venueContribution",
          "type": "uint256"
        },
        {
          "internalType": "address",
          "name": "_beneficiary",
          "type": "address"
        }
      ],
      "name": "addFakeStake",
      "outputs": [],
      "payable": false,
      "stateMutability": "nonpayable",
      "type": "function",
      "signature": "0xae7990d6"
    },
    {
      "constant": true,
      "inputs": [
        {
          "internalType": "string",
          "name": "_poll",
          "type": "string"
        },
        {
          "internalType": "address",
          "name": "_staker",
          "type": "address"
        }
      ],
      "name": "totalRepStaked",
      "outputs": [
        {
          "internalType": "uint256",
          "name": "",
          "type": "uint256"
        }
      ],
      "payable": false,
      "stateMutability": "view",
      "type": "function",
      "signature": "0xe40a42ab"
    },
    {
      "constant": true,
      "inputs": [
        {
          "internalType": "string",
          "name": "_poll",
          "type": "string"
        },
        {
          "internalType": "address",
          "name": "_staker",
          "type": "address"
        }
      ],
      "name": "totalVenueContribs",
      "outputs": [
        {
          "internalType": "uint256",
          "name": "total",
          "type": "uint256"
        }
      ],
      "payable": false,
      "stateMutability": "view",
      "type": "function",
      "signature": "0x7c34d108"
    },
    {
      "constant": false,
      "inputs": [
        {
          "internalType": "string",
          "name": "_poll",
          "type": "string"
        },
        {
          "internalType": "address",
          "name": "_staker",
          "type": "address"
        }
      ],
      "name": "removeEmptyStake",
      "outputs": [],
      "payable": false,
      "stateMutability": "nonpayable",
      "type": "function",
      "signature": "0x23e51210"
    },
    {
      "constant": false,
      "inputs": [
        {
          "internalType": "string",
          "name": "_poll",
          "type": "string"
        }
      ],
      "name": "refundVenueStakes",
      "outputs": [],
      "payable": false,
      "stateMutability": "nonpayable",
      "type": "function",
      "signature": "0x6622f2cf"
    },
    {
      "constant": false,
      "inputs": [
        {
          "internalType": "string",
          "name": "_poll",
          "type": "string"
        },
        {
          "internalType": "bytes32",
          "name": "_reveal",
          "type": "bytes32"
        }
      ],
      "name": "refundStake",
      "outputs": [],
      "payable": false,
      "stateMutability": "nonpayable",
      "type": "function",
      "signature": "0xd76db9d6"
    },
    {
      "constant": false,
      "inputs": [
        {
          "internalType": "string",
          "name": "_poll",
          "type": "string"
        },
        {
          "internalType": "address",
          "name": "_to",
          "type": "address"
        },
        {
          "internalType": "address",
          "name": "_by",
          "type": "address"
        },
        {
          "internalType": "uint256",
          "name": "_amount",
          "type": "uint256"
        },
        {
          "internalType": "uint8",
          "name": "_repeat",
          "type": "uint8"
        }
      ],
      "name": "emitVenueStakeRefunded",
      "outputs": [],
      "payable": false,
      "stateMutability": "nonpayable",
      "type": "function",
      "signature": "0xc591bb14"
    },
    {
      "constant": false,
      "inputs": [
        {
          "internalType": "string",
          "name": "_poll",
          "type": "string"
        },
        {
          "internalType": "address",
          "name": "_to",
          "type": "address"
        },
        {
          "internalType": "address",
          "name": "_by",
          "type": "address"
        },
        {
          "internalType": "uint256",
          "name": "_amount",
          "type": "uint256"
        }
      ],
      "name": "emitVenuePotRefunded",
      "outputs": [],
      "payable": false,
      "stateMutability": "nonpayable",
      "type": "function",
      "signature": "0x833b3d0e"
    },
    {
      "constant": false,
      "inputs": [
        {
          "internalType": "address",
          "name": "_staker",
          "type": "address"
        },
        {
          "internalType": "uint256",
          "name": "_staked",
          "type": "uint256"
        },
        {
          "internalType": "uint256",
          "name": "_refunded",
          "type": "uint256"
        }
      ],
      "name": "emitrepRefunded",
      "outputs": [],
      "payable": false,
      "stateMutability": "nonpayable",
      "type": "function",
      "signature": "0xbf49657a"
    },
    {
      "constant": false,
      "inputs": [
        {
          "internalType": "address",
          "name": "_staker",
          "type": "address"
        }
      ],
      "name": "emitrefundFail",
      "outputs": [],
      "payable": false,
      "stateMutability": "nonpayable",
      "type": "function",
      "signature": "0xdc0f7df3"
    },
    {
      "constant": false,
      "inputs": [
        {
          "internalType": "address",
          "name": "_pollContract",
          "type": "address"
        },
        {
          "internalType": "string",
          "name": "_poll",
          "type": "string"
        },
        {
          "internalType": "bytes32",
          "name": "_reveal",
          "type": "bytes32"
        }
      ],
      "name": "validate",
      "outputs": [
        {
          "internalType": "bool",
          "name": "",
          "type": "bool"
        }
      ],
      "payable": false,
      "stateMutability": "nonpayable",
      "type": "function",
      "signature": "0x8a9392c0"
    },
    {
      "constant": true,
      "inputs": [],
      "name": "proofType",
      "outputs": [
        {
          "internalType": "uint8",
          "name": "",
          "type": "uint8"
        }
      ],
      "payable": false,
      "stateMutability": "pure",
      "type": "function",
      "signature": "0x05af5d35"
    },
    {
      "constant": true,
      "inputs": [
        {
          "internalType": "bytes",
          "name": "_bytes",
          "type": "bytes"
        }
      ],
      "name": "bytesToAddress",
      "outputs": [
        {
          "internalType": "address",
          "name": "",
          "type": "address"
        }
      ],
      "payable": false,
      "stateMutability": "pure",
      "type": "function",
      "signature": "0x42526e4e"
    },
    {
      "constant": true,
      "inputs": [
        {
          "internalType": "address",
          "name": "account",
          "type": "address"
        }
      ],
      "name": "toString",
      "outputs": [
        {
          "internalType": "string",
          "name": "",
          "type": "string"
        }
      ],
      "payable": false,
      "stateMutability": "pure",
      "type": "function",
      "signature": "0x56ca623e"
    },
    {
      "constant": true,
      "inputs": [
        {
          "internalType": "uint256",
          "name": "value",
          "type": "uint256"
        }
      ],
      "name": "toString",
      "outputs": [
        {
          "internalType": "string",
          "name": "",
          "type": "string"
        }
      ],
      "payable": false,
      "stateMutability": "pure",
      "type": "function",
      "signature": "0x6900a3ae"
    },
    {
      "constant": true,
      "inputs": [
        {
          "internalType": "bytes",
          "name": "data",
          "type": "bytes"
        },
        {
          "internalType": "uint16",
          "name": "len",
          "type": "uint16"
        }
      ],
      "name": "toString",
      "outputs": [
        {
          "internalType": "string",
          "name": "",
          "type": "string"
        }
      ],
      "payable": false,
      "stateMutability": "pure",
      "type": "function",
      "signature": "0xa1bac85f"
    },
    {
      "constant": true,
      "inputs": [
        {
          "internalType": "bytes32",
          "name": "value",
          "type": "bytes32"
        }
      ],
      "name": "toString",
      "outputs": [
        {
          "internalType": "string",
          "name": "",
          "type": "string"
        }
      ],
      "payable": false,
      "stateMutability": "pure",
      "type": "function",
      "signature": "0xb11a19e8"
    },
    {
      "constant": true,
      "inputs": [
        {
          "internalType": "bytes32",
          "name": "_bytes32",
          "type": "bytes32"
        }
      ],
      "name": "bytes32ToBytes",
      "outputs": [
        {
          "internalType": "bytes",
          "name": "",
          "type": "bytes"
        }
      ],
      "payable": false,
      "stateMutability": "pure",
      "type": "function",
      "signature": "0x4c0999c7"
    },
    {
      "constant": true,
      "inputs": [
        {
          "internalType": "bytes",
          "name": "b",
          "type": "bytes"
        }
      ],
      "name": "bytesToBytes32",
      "outputs": [
        {
          "internalType": "bytes32",
          "name": "bts",
          "type": "bytes32"
        }
      ],
      "payable": false,
      "stateMutability": "pure",
      "type": "function",
      "signature": "0xbfe370d9"
    },
    {
      "constant": true,
      "inputs": [
        {
          "internalType": "bytes32",
          "name": "_bytes32",
          "type": "bytes32"
        }
      ],
      "name": "bytes32ToString",
      "outputs": [
        {
          "internalType": "string",
          "name": "",
          "type": "string"
        }
      ],
      "payable": false,
      "stateMutability": "pure",
      "type": "function",
      "signature": "0x9201de55"
    },
    {
      "constant": true,
      "inputs": [
        {
          "internalType": "bytes32[]",
          "name": "data",
          "type": "bytes32[]"
        }
      ],
      "name": "bytes32ArrayToString",
      "outputs": [
        {
          "internalType": "string",
          "name": "",
          "type": "string"
        }
      ],
      "payable": false,
      "stateMutability": "pure",
      "type": "function",
      "signature": "0x9cbc87a3"
    },
    {
      "constant": true,
      "inputs": [
        {
          "internalType": "string",
          "name": "source",
          "type": "string"
        }
      ],
      "name": "stringToBytes32Array",
      "outputs": [
        {
          "internalType": "bytes32[]",
          "name": "result",
          "type": "bytes32[]"
        }
      ],
      "payable": false,
      "stateMutability": "pure",
      "type": "function",
      "signature": "0x91652043"
    },
    {
      "constant": true,
      "inputs": [
        {
          "internalType": "bytes",
          "name": "data",
          "type": "bytes"
        }
      ],
      "name": "bytesSplit32",
      "outputs": [
        {
          "internalType": "bytes32",
          "name": "",
          "type": "bytes32"
        },
        {
          "internalType": "bytes",
          "name": "",
          "type": "bytes"
        }
      ],
      "payable": false,
      "stateMutability": "pure",
      "type": "function",
      "signature": "0x26a9cdf7"
    },
    {
      "constant": false,
      "inputs": [
        {
          "internalType": "bytes4",
          "name": "fnNameHash",
          "type": "bytes4"
        },
        {
          "internalType": "string",
          "name": "poll",
          "type": "string"
        },
        {
          "internalType": "uint256",
          "name": "valid",
          "type": "uint256"
        },
        {
          "internalType": "uint8",
          "name": "vt",
          "type": "uint8"
        }
      ],
      "name": "crossContractCall",
      "outputs": [
        {
          "internalType": "bytes32[]",
          "name": "",
          "type": "bytes32[]"
        }
      ],
      "payable": false,
      "stateMutability": "nonpayable",
      "type": "function",
      "signature": "0x8e3dca0b"
    }
  ],
  "bytecode": "0x60806040526107d0600b556105dc600c55600e805460a060020a60ff0219600160a060020a0319909116739d26a8a5db7dc10689692caf8d52c912958409cf1716905534801561004e57600080fd5b50614f9f8061005e6000396000f3fe608060405260043610610393576000357c0100000000000000000000000000000000000000000000000000000000900480636a2ebc3f116101ee578063a1bac85f1161011f578063bfe370d9116100bd578063dc0f7df31161008c578063dc0f7df314610aa7578063e40a42ab14610ac7578063e68043df14610ae7578063ed3d320514610b0757610393565b8063bfe370d914610a27578063c4a3496e14610a47578063c591bb1414610a67578063d76db9d614610a8757610393565b8063b11a19e8116100f9578063b11a19e814610792578063ba5868ba146109d2578063bf49657a146109e7578063bf6cd60114610a0757610393565b8063a1bac85f14610972578063a2dd3d4714610992578063ae7990d6146109b257610393565b80638a9392c01161018c578063916520431161016657806391652043146108f25780639201de55146109125780639478485e146109325780639cbc87a31461095257610393565b80638a9392c0146108925780638e3dca0b146108b25780638fee464b146108d257610393565b80637c34d108116101c85780637c34d10814610812578063833b3d0e1461083257806388a80f2314610852578063898fa03b1461087257610393565b80636a2ebc3f146107b25780637514d750146107d25780637682484d146107f257610393565b8063405a6adb116102c85780635a31204c1161026657806363039be81161024057806363039be8146107305780636622f2cf1461075257806367bc5638146107725780636900a3ae1461079257610393565b80635a31204c146106c35780635d8636c0146106f05780636026ad9c1461071057610393565b80634a0f2fd7116102a25780634a0f2fd7146106225780634c0999c71461065657806356ca623e1461068357806358666c04146106a357610393565b8063405a6adb146105a857806342526e4e146105c85780634665ecb4146105f557610393565b806310a688e31161033557806323e512101161030f57806323e512101461050d57806326a9cdf71461052d5780632742bea81461055b5780633e10510b1461057b57610393565b806310a688e3146104955780631b3ed722146104ca578063235ff72b146104ed57610393565b806309421c251161037157806309421c25146103fb5780630dd990c71461041b5780630ed5fdc5146104485780630f58bb421461046857610393565b80630170a8151461039d57806305af5d35146103b0578063062ffb07146103db575b61039b610b27565b005b61039b6103ab366004614260565b610b64565b3480156103bc57600080fd5b506103c5610deb565b6040516103d29190614d83565b60405180910390f35b3480156103e757600080fd5b5061039b6103f6366004614115565b610df1565b34801561040757600080fd5b5061039b610416366004614010565b610f39565b34801561042757600080fd5b5061043b610436366004613c23565b610f48565b6040516103d29190614b97565b34801561045457600080fd5b5061039b610463366004613b3a565b61109b565b34801561047457600080fd5b50610488610483366004613c23565b6110de565b6040516103d29190614bb9565b3480156104a157600080fd5b506104b56104b0366004613c23565b61110d565b6040516103d299989796959493929190614aec565b3480156104d657600080fd5b506104df61126a565b6040516103d2929190614d68565b3480156104f957600080fd5b5061039b610508366004613e99565b611272565b34801561051957600080fd5b5061039b610528366004613c9f565b610f44565b34801561053957600080fd5b5061054d610548366004613c23565b611477565b6040516103d2929190614bd5565b34801561056757600080fd5b5061039b6105763660046141c4565b6115bf565b34801561058757600080fd5b5061059b6105963660046140b6565b61162a565b6040516103d29190614ba8565b3480156105b457600080fd5b5061039b6105c3366004613e50565b6116c2565b3480156105d457600080fd5b506105e86105e3366004613c23565b6116df565b6040516103d291906149e1565b34801561060157600080fd5b50610615610610366004613c23565b6116f6565b6040516103d29190614d59565b34801561062e57600080fd5b5061064261063d366004613c23565b611746565b6040516103d2989796959493929190614a74565b34801561066257600080fd5b50610676610671366004613b3a565b6117d2565b6040516103d29190614be3565b34801561068f57600080fd5b5061067661069e366004613a48565b611847565b3480156106af57600080fd5b5061039b6106be366004613c23565b611873565b3480156106cf57600080fd5b506106e36106de366004613c23565b6118ad565b6040516103d29190614b86565b3480156106fc57600080fd5b5061039b61070b366004613dde565b61197f565b34801561071c57600080fd5b5061039b61072b366004613b58565b611b09565b34801561073c57600080fd5b50610745611b28565b6040516103d29190614bc7565b34801561075e57600080fd5b5061039b61076d366004613c23565b611b2e565b34801561077e57600080fd5b5061048861078d366004613c23565b61217c565b34801561079e57600080fd5b506106766107ad366004613b3a565b61231c565b3480156107be57600080fd5b506107456107cd366004613a48565b612348565b3480156107de57600080fd5b5061039b6107ed366004613c23565b612363565b3480156107fe57600080fd5b5061039b61080d366004614115565b6123b4565b34801561081e57600080fd5b5061074561082d366004613c9f565b61242d565b34801561083e57600080fd5b5061039b61084d366004613ce6565b61247b565b34801561085e57600080fd5b5061039b61086d36600461406f565b6124e8565b34801561087e57600080fd5b5061059b61088d366004613c9f565b6125a2565b34801561089e57600080fd5b506104886108ad366004613a6e565b6125fb565b3480156108be57600080fd5b5061059b6108cd366004613baa565b612826565b3480156108de57600080fd5b5061039b6108ed366004613c23565b612884565b3480156108fe57600080fd5b5061059b61090d366004613c23565b6128e9565b34801561091e57600080fd5b5061067661092d366004613b3a565b61293a565b34801561093e57600080fd5b5061039b61094d366004614115565b612946565b34801561095e57600080fd5b5061067661096d366004613b05565b612a67565b34801561097e57600080fd5b5061067661098d366004613c58565b612bcf565b34801561099e57600080fd5b5061059b6109ad366004613b3a565b612dcb565b3480156109be57600080fd5b5061039b6109cd366004613f37565b612e2d565b3480156109de57600080fd5b506104df613069565b3480156109f357600080fd5b5061039b610a02366004613ad3565b613073565b348015610a1357600080fd5b5061039b610a22366004613dde565b6130b3565b348015610a3357600080fd5b50610745610a42366004613c23565b61324a565b348015610a5357600080fd5b50610745610a62366004613a48565b613251565b348015610a7357600080fd5b5061039b610a82366004613d52565b6132e2565b348015610a9357600080fd5b5061039b610aa236600461406f565b613347565b348015610ab357600080fd5b5061039b610ac2366004613a48565b6135d9565b348015610ad357600080fd5b50610745610ae2366004613c9f565b613608565b348015610af357600080fd5b5061039b610b02366004613c23565b61365a565b348015610b1357600080fd5b5061039b610b22366004613fb6565b613692565b60606000368080601f0160208091040260200160405190810160405280939291908181526020018383808284376000920191909152505050505050565b600054600160a060020a0316331415610dc257333415610c72576000600385604051610b909190614936565b908152604080519182900360209081018320600160a060020a0380871660009081526008909201835283822090881682526003908101909252919091205492503491610bdd908890614936565b9081526040805160209281900383018120600160a060020a0387811660009081526008909201855283822090891682526003908101909452919091208054939093019092553491610c2f908890614936565b9081526040519081900360200181206003018054909201909155600080516020614f3d83398151915290610c6890849088903490614a45565b60405180910390a1505b8215610dbc57600384604051610c889190614936565b908152602001604051809103902060010154831015610cdf577fbdaeb13301d6416e47b70f09ade9e4ae93d6bd468d3833197ea44af2e955f0fe8185604051610cd2929190614a25565b60405180910390a1610dbc565b600160a060020a038116600090815260016020526040902054831115610d30577f5b8a56dcf3c46c1155547d5fcd97b1a751382df7f906feb9d53f5cd53271308f8185604051610cd2929190614a25565b600160a060020a0381166000908152600160205260409081902080548590039055518390600390610d62908790614936565b908152604080519182900360209081018320600160a060020a03861660009081526008909101909152208054909201909155600080516020614f3d83398151915290610db390839087908790614a45565b60405180910390a15b50610de6565b60405160e560020a62461bcd028152600401610ddd90614cf9565b60405180910390fd5b505050565b60015b90565b6000600160a060020a038416610e3b5785610e0b86613744565b84604051602001610e1e939291906149ae565b604051602081830303815290604052805190602001209050610e82565b85610e4586613744565b856c010000000000000000000000000285604051602001610e699493929190614986565b6040516020818303038152906040528051906020012090505b8151604051908082528060200260200182016040528015610ead578160200160208202803883390190505b5060008281526002602090815260409091208251610ed193919291909101906137ea565b5060005b82518161ffff161015610f3057828161ffff1681518110610ef257fe5b6020026020010151600260008481526020019081526020016000208261ffff1681548110610f1c57fe5b600091825260209091200155600101610ed5565b50505050505050565b610f4482338361197f565b5050565b606080610f54836118ad565b905060608151604051908082528060200260200182016040528015610f8d57816020015b6060815260200190600190039081610f785790505b509050606060005b83518161ffff16101561108f57610fc386858361ffff1681518110610fb657fe5b60200260200101516125a2565b91508151604051908082528060200260200182016040528015610ff0578160200160208202803883390190505b50838261ffff168151811061100157fe5b602090810291909101015260005b82518161ffff1610156110865761103f6105e3848361ffff168151811061103257fe5b60200260200101516117d2565b848361ffff168151811061104f57fe5b60200260200101518261ffff168151811061106657fe5b600160a060020a039092166020928302919091019091015260010161100f565b50600101610f95565b5090925050505b919050565b600054600160a060020a0316331415610dc257604051339082156108fc029083906000818181858888f19350505050158015610f44573d6000803e3d6000fd5b50565b60006003826040516110f09190614936565b9081526040519081900360200190206007015460ff169050919050565b600080600080600080600080606060038a60405161112b9190614936565b90815260405190819003602001812054600160a060020a03169950600390611154908c90614936565b908152602001604051809103902060010154975060038a6040516111789190614936565b908152602001604051809103902060020154965060038a60405161119c9190614936565b908152602001604051809103902060030154955060038a6040516111c09190614936565b9081526040519081900360200181206004015460ff740100000000000000000000000000000000000000009091041695506003906111ff908c90614936565b9081526040519081900360200181206007015460ff169250600390611225908c90614936565b908152604051908190036020018120600501549450600390611248908c90614936565b9081526040519081900360200190206006015492509193959799909294969850565b600560049091565b61127b8661217c565b1561129b5760405160e560020a62461bcd028152600401610ddd90614d39565b600084116112be5760405160e560020a62461bcd028152600401610ddd90614cd9565b600160a060020a03851661131e57336003876040516112dd9190614936565b9081526040519081900360200190208054600160a060020a039290921673ffffffffffffffffffffffffffffffffffffffff1990921691909117905561136c565b8460038760405161132f9190614936565b9081526040519081900360200190208054600160a060020a039290921673ffffffffffffffffffffffffffffffffffffffff199092169190911790555b8360038760405161137d9190614936565b908152602001604051809103902060010181905550826003876040516113a39190614936565b908152602001604051809103902060020181905550816003876040516113c99190614936565b908152602001604051809103902060040160006101000a815481600160a060020a030219169083600160a060020a031602179055508060038760405161140f9190614936565b908152602001604051809103902060040160146101000a81548160ff021916908360ff1602179055507fac34e99d8501f1cacded4cd798d4f7bf0b6b8f73b0995c9129c476b096c67ca7866040516114679190614be3565b60405180910390a1505050505050565b80516000906060906020908390821015611495578160ff1685510390505b600060608360ff166040519080825280601f01601f1916602001820160405280156114c7576020820181803883390190505b5090506060836040519080825280601f01601f1916602001820160405280156114f7576020820181803883390190505b50905060005b600189510381116115a8578560ff168110156115595788818151811061151f57fe5b602001015160f860020a900460f860020a0283828151811061153d57fe5b6020010190600160f860020a031916908160001a9053506115a0565b88818151811061156557fe5b602001015160f860020a900460f860020a02828760ff1683038151811061158857fe5b6020010190600160f860020a031916908160001a9053505b6001016114fd565b506115b28261324a565b9650945050505050915091565b6000846115cb85613744565b846040516020016115de939291906149ae565b6040516020818303038152906040528051906020012090506115ff826128e9565b6000828152600260209081526040909120825161162293919291909101906137ea565b505050505050565b606060008361163884613744565b600160405160200161164c939291906149ae565b60408051601f19818403018152828252805160209182012060008181526002835283902080548084028601840190945283855290945091908301828280156116b357602002820191906000526020600020905b81548152602001906001019080831161169f575b50505050509150505b92915050565b600160a060020a0390911660009081526001602052604090205550565b602001516c01000000000000000000000000900490565b6116fe613835565b6103e8602080830191909152619c40604083018190526060830152600360a0830181905260c083015260e0820180516501728eee95609052516501728ef01c00910152919050565b80516020818301810180516003808352938301948301949094209390528254600184015460028501549385015460048601546040805180820190915260058801548152600688015495810195909552600790960154600160a060020a0393841696929594919383169274010000000000000000000000000000000000000000900460ff90811692911688565b60408051602080825281830190925260609182919060208201818038833901905050905060005b60208110156118405783816020811061180e57fe5b1a60f860020a0282828151811061182157fe5b6020010190600160f860020a031916908160001a9053506001016117f9565b5092915050565b60606116bc8260405160200161185d919061490c565b6040516020818303038152906040526005612bcf565b7fbef39ac07ea6b8a7a08590612f317b1db2e9821fea4739345478345d853321e7816040516118a29190614be3565b60405180910390a150565b6060806118ef836040518060400160405280600681526020017f7374616b6572000000000000000000000000000000000000000000000000000081525061162a565b90506060815160405190808252806020026020018201604052801561191e578160200160208202803883390190505b50905060005b82518161ffff161015611977576119476105e3848361ffff168151811061103257fe5b828261ffff168151811061195757fe5b600160a060020a0390921660209283029190910190910152600101611924565b509392505050565b6000829050606082516040519080825280602002602001820160405280156119b1578160200160208202803883390190505b5090506000856119f56040518060400160405280600581526020017f70726f6f66000000000000000000000000000000000000000000000000000000815250613744565b866c01000000000000000000000000026001604051602001611a1a9493929190614986565b60408051601f198184030181529190528051602090910120905060005b84518161ffff161015611a9d57848161ffff1681518110611a5457fe5b60200260200101516c01000000000000000000000000026bffffffffffffffffffffffff1916838261ffff1681518110611a8a57fe5b6020908102919091010152600101611a37565b5060008181526002602052604090205415611aea577fd0adafca5f88ebee186251179caad6d29ee5ad555a79bfe4d8a00e3a87988a2b83604051611ae191906149e1565b60405180910390a15b60008181526002602090815260409091208351610f30928501906137ea565b60008281526002602090815260409091208251610de6928401906137ea565b610bb890565b806060611b3a826118ad565b90506000805b8251811015611b835733600160a060020a0316838281518110611b5f57fe5b6020026020010151600160a060020a03161415611b7b57600191505b600101611b40565b5080611ba45760405160e560020a62461bcd028152600401610ddd90614ce9565b6060611baf856118ad565b905060008151600387604051611bc59190614936565b90815260200160405180910390206002015481611bde57fe5b0590506000600387604051611bf39190614936565b9081526040519081900360200190206003015490506104d260008083611c1e57505050505050612176565b600060038b604051611c309190614936565b9081526020016040518091039020600201541280611c8f575060038a604051611c599190614936565b90815260200160405180910390206003015460038b604051611c7b9190614936565b908152602001604051809103902060020154105b15611cdc5760038a604051611ca49190614936565b90815260200160405180910390206002015460038b604051611cc69190614936565b9081526020016040518091039020600301540392505b600091505b85518261ffff1610156120f157604080516002808252606080830184526000939092919060208301908038833950506040805160028082526060808301845294955090925090602083019080388339019050509050600082600081518110611d4557fe5b6020026020010190600160a060020a03169081600160a060020a031681525050888561ffff1681518110611d7557fe5b602002602001015182600181518110611d8a57fe5b6020026020010190600160a060020a03169081600160a060020a031681525050600093505b81518461ffff16101561202c5760038d604051611dcc9190614936565b908152602001604051809103902060080160008a8761ffff1681518110611def57fe5b6020026020010151600160a060020a0316600160a060020a031681526020019081526020016000206003016000838661ffff1681518110611e2c57fe5b6020026020010151600160a060020a0316600160a060020a0316815260200190815260200160002054818561ffff1681518110611e6557fe5b60200260200101818152505086818561ffff1681518110611e8257fe5b6020026020010151870281611e9357fe5b0483019250600060038e604051611eaa9190614936565b908152602001604051809103902060080160008b8861ffff1681518110611ecd57fe5b6020026020010151600160a060020a0316600160a060020a031681526020019081526020016000206003016000848761ffff1681518110611f0a57fe5b6020026020010151600160a060020a0316600160a060020a03168152602001908152602001600020819055508260038e604051611f479190614936565b9081526020016040518091039020600801600080600160a060020a0316600160a060020a03168152602001908152602001600020600301600080600160a060020a0316600160a060020a03168152602001908152602001600020600082825401925050819055508260038e604051611fbf9190614936565b90815260200160405180910390206003015410612006578260038e604051611fe79190614936565b9081526040519081900360200190206003018054919091039055612021565b60405160e560020a62461bcd028152600401610ddd90614d49565b600190930192611daf565b6000831180612063575033600160a060020a0316898661ffff168151811061205057fe5b6020026020010151600160a060020a0316145b156120e357612089898661ffff168151811061207b57fe5b60200260200101518461374f565b156120e3577f5ee9688c98e0f205ec05ae1bb4703913ce6aaffae0ed525d1e5e2303750811e78d8a8761ffff16815181106120c057fe5b602002602001015133866040516120da9493929190614c14565b60405180910390a15b505060019092019150611ce1565b600060038b6040516121039190614936565b9081526040805191829003602090810183206000808052600890910182528281206003908101909252919091209290925561213f908c90614936565b9081526040805160209281900383019020336000908152600890910190925290205461216f5761216f8a33610f44565b5050505050505b50505050565b600080600160a060020a03166003836040516121989190614936565b90815260405190819003602001902054600160a060020a03161415806121df575060006003836040516121cb9190614936565b908152602001604051809103902060010154115b8061220b575060006003836040516121f79190614936565b908152602001604051809103902060020154135b80612237575060006003836040516122239190614936565b908152602001604051809103902060030154115b806122805750600060038360405161224f9190614936565b9081526040519081900360200190206004015460ff7401000000000000000000000000000000000000000090910416115b806122ad57506003826040516122969190614936565b9081526040519081900360200190206007015460ff165b806122da575060006003836040516122c59190614936565b90815260405190819003602001902060050154115b80612307575060006003836040516122f29190614936565b90815260405190819003602001902060060154115b1561231457506001611096565b506000919050565b60606116bc826040516020016123329190614921565b6040516020818303038152906040526000612bcf565b600160a060020a031660009081526001602052604090205490565b6103e86003826040516123769190614936565b9081526020016040518091039020600101819055506130d460038260405161239e9190614936565b9081526040519081900360200190206002015550565b6000856123c086613744565b85856040516020016123d59493929190614942565b6040516020818303038152906040528051906020012090507fd2fc72c97aeb0e8367f33ed670eff5bed73dab77cab530bd44311a95ae5473988686868661241c8b8a6125a2565b604051611467959493929190614c7b565b600060038360405161243f9190614936565b9081526040805160209281900383019020600160a060020a03949094166000908152600890940182528084206003019091529091205492915050565b7f5ee9688c98e0f205ec05ae1bb4703913ce6aaffae0ed525d1e5e2303750811e7846003866040516124ad9190614936565b908152604051908190036020018120600401546124da9291600160a060020a039091169086908690614c4e565b60405180910390a150505050565b8133600160a060020a03166003826040516125039190614936565b90815260405190819003602001902054600160a060020a0316148061255957506000600160a060020a031660038260405161253e9190614936565b90815260405190819003602001902054600160a060020a0316145b15612587578160038460405161256f9190614936565b90815260405190819003602001902060020155610de6565b60405160e560020a62461bcd028152600401610ddd90614d29565b60606000836125e56040518060400160405280600581526020017f70726f6f66000000000000000000000000000000000000000000000000000000815250613744565b84600160405160200161164c9493929190614942565b60006060612608846118ad565b9050606061261585610f48565b905060608251604051908082528060200260200182016040528015612644578160200160208202803883390190505b5090506000808060015b86518461ffff16101561269e5733600160a060020a0316878561ffff168151811061267557fe5b6020026020010151600160a060020a03161415612693578360010192505b60019093019261264e565b60008361ffff16116126ac57fe5b600093505b86518461ffff1610156127ae5760009150815b868561ffff16815181106126d457fe5b6020026020010151518110156127a25733600160a060020a0316878661ffff16815181106126fe57fe5b6020026020010151828151811061271157fe5b6020026020010151600160a060020a0316141561272d57600192505b33600160a060020a0316878661ffff168151811061274757fe5b6020026020010151828151811061275a57fe5b6020026020010151600160a060020a0316141561279a57856001850361ffff168151811061278457fe5b60209081029190910101805160010161ffff1690525b6001016126c4565b506001909301926126b1565b8061ffff16856001850361ffff16815181106127c657fe5b602002602001015161ffff1610612813578551600101856001850361ffff16815181106127ef57fe5b602002602001015160020261ffff161061281357600197505050505050505061281f565b60009750505050505050505b9392505050565b600e54604051606091600160a060020a0316907f1ff50e4650f7f1e5b26a5f5e921b803deee4a95a1b6ef46e05992b3bc1dcdb8c90600090a160405136600082376000803683855af43d806000843e818015612880578184f35b8184fd5b60016003826040516128969190614936565b908152604051908190036020018120600701805492151560ff19909316929092179091557fc2b1ad619f75c5b190b6f26a4b118a5ec58ad98a0a76cef82a67099f76c03336906118a29083903390614bf4565b6060600160005b8161ffff168161ffff161161293357602060018201028481015184518190869061ffff861690811061291e57fe5b602090810291909101015250506001016128f0565b5050919050565b60608061281f836117d2565b60008561295286613744565b85856040516020016129679493929190614942565b6040516020818303038152906040528051906020012090507fee5443e0769176cacb5e7cebe33b561327ef2a06863e7fa72ec9be7cc2d82b60866129aa87613744565b86866040516020016129bf9493929190614942565b60408051601f19818403018152908290526129d991614be3565b60405180910390a17fa457a29197b7db5513e7fa40d359d53b392afa4785e7b4e899898a92798d484981604051612a109190614bc7565b60405180910390a160008181526002602090815260409091208351612a37928501906137ea565b507fd2fc72c97aeb0e8367f33ed670eff5bed73dab77cab530bd44311a95ae5473988686868661241c8b8a6125a2565b60608082516020026040519080825280601f01601f191660200182016040528015612a99576020820181803883390190505b5090506000805b8451811015612b3d5760005b6020811015612b345760008160080260020a878481518110612aca57fe5b60209081029190910101510290507fff00000000000000000000000000000000000000000000000000000000000000811615612b2b5780858581518110612b0d57fe5b6020010190600160f860020a031916908160001a9053506001840193505b50600101612aac565b50600101612aa0565b6060826040519080825280601f01601f191660200182016040528015612b6a576020820181803883390190505b509050600091505b82821015612bc657838281518110612b8657fe5b602001015160f860020a900460f860020a02818381518110612ba457fe5b6020010190600160f860020a031916908160001a905350600190910190612b72565b95945050505050565b604080518082018252601081527f303132333435363738396162636465660000000000000000000000000000000060208201528151602a808252606082810190945260149184916020820181803883390190505090507f300000000000000000000000000000000000000000000000000000000000000081600081518110612c5357fe5b6020010190600160f860020a031916908160001a9053507f780000000000000000000000000000000000000000000000000000000000000081600181518110612c9857fe5b6020010190600160f860020a031916908160001a90535060005b8261ffff16811015612dc157836004888381518110612ccd57fe5b602001015160f860020a900460f860020a02600160f860020a031916908060020a820491505060f860020a900460ff1681518110612d0757fe5b602001015160f860020a900460f860020a02828260020260020181518110612d2b57fe5b6020010190600160f860020a031916908160001a90535083878281518110612d4f57fe5b602001015160f860020a900460f860020a02600f60f860020a021660f860020a900460ff1681518110612d7e57fe5b602001015160f860020a900460f860020a02828260020260030181518110612da257fe5b6020010190600160f860020a031916908160001a905350600101612cb2565b5095945050505050565b600081815260026020908152604091829020805483518184028101840190945280845260609392830182828015612e2157602002820191906000526020600020905b815481526020019060010190808311612e0d575b50505050509050919050565b838215612f28576000600387604051612e469190614936565b908152604080519182900360209081018320600160a060020a0380871660009081526008909201835283822090881682526003908101909252919091205492508591612e93908a90614936565b9081526040805160209281900383018120600160a060020a0387811660009081526008909201855283822090891682526003908101909452919091208054939093019092558591612ee5908a90614936565b9081526040519081900360200181206003018054909201909155600080516020614f3d83398151915290612f1e9084908a908890614a45565b60405180910390a1505b831561162257600386604051612f3e9190614936565b908152602001604051809103902060010154841015612f95577fbdaeb13301d6416e47b70f09ade9e4ae93d6bd468d3833197ea44af2e955f0fe8187604051612f88929190614a25565b60405180910390a1611622565b600160a060020a038116600090815260016020526040902054841115612fe6577f5b8a56dcf3c46c1155547d5fcd97b1a751382df7f906feb9d53f5cd53271308f8187604051612f88929190614a25565b600160a060020a0381166000908152600160205260409081902080548690039055518490600390613018908990614936565b908152604080519182900360209081018320600160a060020a03861660009081526008909101909152208054909201909155600080516020614f3d8339815191529061146790839089908890614a45565b600b54600c549091565b7f391dd8dd49c61a65c7ebe8745ea4c81bc4d5a6dd59d8bda3ba1f9a9114bf64eb8383836040516130a693929190614b78565b60405180910390a1505050565b600082905060006003856040516130ca9190614936565b9081526040805160209281900383018120600160a060020a038616600090815260099091018452828120548751808452808602840190950190935261ffff909216935090918291606091801561312a578160200160208202803883390190505b509050600091505b85518261ffff16101561319b57858261ffff168151811061314f57fe5b60200260200101516c01000000000000000000000000026bffffffffffffffffffffffff1916818361ffff168151811061318557fe5b6020908102919091010152600190910190613132565b6131de886040518060400160405280600581526020017f70726f6f6600000000000000000000000000000000000000000000000000000081525087600185610df1565b836001016003896040516131f29190614936565b9081526020016040518091039020600901600087600160a060020a0316600160a060020a0316815260200190815260200160002060006101000a81548161ffff021916908361ffff1602179055505050505050505050565b6020015190565b600160a060020a03811660009081526008602052604081205460ff161561327b5750600c546132a3565b50600160a060020a0381166000908152600860205260409020805460ff19166001179055600b545b600160a060020a038216600090815260016020526040902054811061231457600160a060020a0382166000908152600160205260409020819055611096565b60005b60008260ff161180156132fd57508160ff168160ff16105b15611622577f5ee9688c98e0f205ec05ae1bb4703913ce6aaffae0ed525d1e5e2303750811e7868686866040516133379493929190614c4e565b60405180910390a16001016132e5565b816060613353826118ad565b90506000805b825181101561339c5733600160a060020a031683828151811061337857fe5b6020026020010151600160a060020a0316141561339457600191505b600101613359565b50806133bd5760405160e560020a62461bcd028152600401610ddd90614ce9565b60006003866040516133cf9190614936565b90815260408051602092819003830190203360009081526008909101909252902054116134115760405160e560020a62461bcd028152600401610ddd90614d09565b60008061341c61126a565b9150915061342b3388886125fb565b61346d577ff79d39278918f1a3dc8522bfdea96d506ed15dd2cc97156b182f5c8895ab7b713360405161345e91906149ef565b60405180910390a150506135d2565b6000816134ac60038a6040516134839190614936565b9081526040805160209281900383019020336000908152600890910190925290205485906137ad565b816134b357fe5b0490506134be611b28565b336000908152600160205260409020548201111561350b576003886040516134e69190614936565b9081526040805160209281900383019020336000908152600890910190925290205490505b600060038960405161351d9190614936565b90815260408051918290036020908101832033600081815260089092018352838220959095556001909152208054840190557f391dd8dd49c61a65c7ebe8745ea4c81bc4d5a6dd59d8bda3ba1f9a9114bf64eb9190600390613580908c90614936565b908152604080519182900360209081018320336000908152600890910190915220546135ae929185906149fd565b60405180910390a16135c0883361242d565b6135ce576135ce8833610f44565b5050505b5050505050565b7ff79d39278918f1a3dc8522bfdea96d506ed15dd2cc97156b182f5c8895ab7b71816040516118a291906149e1565b600060038360405161361a9190614936565b9081526020016040518091039020600801600083600160a060020a0316600160a060020a0316815260200190815260200160002060000154905092915050565b600060038260405161366c9190614936565b908152604051908190036020019020600701805491151560ff1990921691909117905550565b6000836136d36040518060400160405280600681526020017f7374616b65720000000000000000000000000000000000000000000000000000815250613744565b836040516020016136e6939291906149ae565b60408051808303601f19018152918152815160209283012060009081526002835290812080546001810182559082529190206c01000000000000000000000000949094026bffffffffffffffffffffffff1916930192909255505050565b805160209091012090565b600e5460009074010000000000000000000000000000000000000000900460ff16156137a457604051339083156108fc029084906000818181858888f193505050501580156137a2573d6000803e3d6000fd5b505b50600192915050565b6000826137bc575060006116bc565b828202828482816137c957fe5b041461281f5760405160e560020a62461bcd028152600401610ddd90614d19565b828054828255906000526020600020908101928215613825579160200282015b8281111561382557825182559160200191906001019061380a565b5061383192915061389f565b5090565b6040518061012001604052806000600160a060020a031681526020016000815260200160008152602001600081526020016000600160a060020a03168152602001600060ff168152602001600060ff1681526020016138926138b9565b8152600060209091015290565b610dee91905b8082111561383157600081556001016138a5565b604051806040016040528060008152602001600081525090565b80356116bc81614f04565b600082601f8301126138ef57600080fd5b81356139026138fd82614db8565b614d91565b9150818183526020840193506020810190508385602084028201111561392757600080fd5b60005b83811015613953578161393d88826138d3565b845250602092830192919091019060010161392a565b5050505092915050565b600082601f83011261396e57600080fd5b813561397c6138fd82614db8565b915081818352602084019350602081019050838560208402820111156139a157600080fd5b60005b8381101561395357816139b788826139cd565b84525060209283019291909101906001016139a4565b80356116bc81614f18565b80356116bc81614f21565b600082601f8301126139f457600080fd5b8135613a026138fd82614dd9565b91508082526020830160208301858383011115613a1e57600080fd5b613a29838284614e8b565b50505092915050565b80356116bc81614f2a565b80356116bc81614f33565b600060208284031215613a5a57600080fd5b6000613a6684846138d3565b949350505050565b600080600060608486031215613a8357600080fd5b6000613a8f86866138d3565b935050602084013567ffffffffffffffff811115613aac57600080fd5b613ab8868287016139e3565b9250506040613ac9868287016139cd565b9150509250925092565b600080600060608486031215613ae857600080fd5b6000613af486866138d3565b9350506020613ab8868287016139cd565b600060208284031215613b1757600080fd5b813567ffffffffffffffff811115613b2e57600080fd5b613a668482850161395d565b600060208284031215613b4c57600080fd5b6000613a6684846139cd565b60008060408385031215613b6b57600080fd5b6000613b7785856139cd565b925050602083013567ffffffffffffffff811115613b9457600080fd5b613ba08582860161395d565b9150509250929050565b60008060008060808587031215613bc057600080fd5b6000613bcc87876139d8565b945050602085013567ffffffffffffffff811115613be957600080fd5b613bf5878288016139e3565b9350506040613c06878288016139cd565b9250506060613c1787828801613a3d565b91505092959194509250565b600060208284031215613c3557600080fd5b813567ffffffffffffffff811115613c4c57600080fd5b613a66848285016139e3565b60008060408385031215613c6b57600080fd5b823567ffffffffffffffff811115613c8257600080fd5b613c8e858286016139e3565b9250506020613ba085828601613a32565b60008060408385031215613cb257600080fd5b823567ffffffffffffffff811115613cc957600080fd5b613cd5858286016139e3565b9250506020613ba0858286016138d3565b60008060008060808587031215613cfc57600080fd5b843567ffffffffffffffff811115613d1357600080fd5b613d1f878288016139e3565b9450506020613d30878288016138d3565b9350506040613d41878288016138d3565b9250506060613c17878288016139cd565b600080600080600060a08688031215613d6a57600080fd5b853567ffffffffffffffff811115613d8157600080fd5b613d8d888289016139e3565b9550506020613d9e888289016138d3565b9450506040613daf888289016138d3565b9350506060613dc0888289016139cd565b9250506080613dd188828901613a3d565b9150509295509295909350565b600080600060608486031215613df357600080fd5b833567ffffffffffffffff811115613e0a57600080fd5b613e16868287016139e3565b9350506020613e27868287016138d3565b925050604084013567ffffffffffffffff811115613e4457600080fd5b613ac9868287016138de565b600080600060608486031215613e6557600080fd5b833567ffffffffffffffff811115613e7c57600080fd5b613e88868287016139e3565b9350506020613ab8868287016138d3565b60008060008060008060c08789031215613eb257600080fd5b863567ffffffffffffffff811115613ec957600080fd5b613ed589828a016139e3565b9650506020613ee689828a016138d3565b9550506040613ef789828a016139cd565b9450506060613f0889828a016139cd565b9350506080613f1989828a016138d3565b92505060a0613f2a89828a01613a3d565b9150509295509295509295565b600080600080600060a08688031215613f4f57600080fd5b853567ffffffffffffffff811115613f6657600080fd5b613f72888289016139e3565b9550506020613f83888289016138d3565b9450506040613f94888289016139cd565b9350506060613fa5888289016139cd565b9250506080613dd1888289016138d3565b600080600060608486031215613fcb57600080fd5b833567ffffffffffffffff811115613fe257600080fd5b613fee868287016139e3565b9350506020613fff868287016138d3565b9250506040613ac986828701613a3d565b6000806040838503121561402357600080fd5b823567ffffffffffffffff81111561403a57600080fd5b614046858286016139e3565b925050602083013567ffffffffffffffff81111561406357600080fd5b613ba0858286016138de565b6000806040838503121561408257600080fd5b823567ffffffffffffffff81111561409957600080fd5b6140a5858286016139e3565b9250506020613ba0858286016139cd565b600080604083850312156140c957600080fd5b823567ffffffffffffffff8111156140e057600080fd5b6140ec858286016139e3565b925050602083013567ffffffffffffffff81111561410957600080fd5b613ba0858286016139e3565b600080600080600060a0868803121561412d57600080fd5b853567ffffffffffffffff81111561414457600080fd5b614150888289016139e3565b955050602086013567ffffffffffffffff81111561416d57600080fd5b614179888289016139e3565b945050604061418a888289016138d3565b935050606061419b88828901613a3d565b925050608086013567ffffffffffffffff8111156141b857600080fd5b613dd18882890161395d565b600080600080608085870312156141da57600080fd5b843567ffffffffffffffff8111156141f157600080fd5b6141fd878288016139e3565b945050602085013567ffffffffffffffff81111561421a57600080fd5b614226878288016139e3565b935050604061423787828801613a3d565b925050606085013567ffffffffffffffff81111561425457600080fd5b613c17878288016139e3565b60008060006060848603121561427557600080fd5b833567ffffffffffffffff81111561428c57600080fd5b614298868287016139e3565b93505060206142a9868287016139cd565b9250506040613ac9868287016138d3565b60006142c68383614309565b505060200190565b600061281f838361437c565b60006142e68383614486565b505060a00190565b60006142c6838361453a565b61430381614e7a565b82525050565b61430381614e1a565b61430361431e82614e1a565b614ec3565b600061432e82614e07565b6143388185614e11565b935061434383614e01565b8060005b8381101561437157815161435b88826142ba565b975061436683614e01565b925050600101614347565b509495945050505050565b600061438782614e07565b6143918185614e11565b935061439c83614e01565b8060005b838110156143715781516143b488826142ba565b97506143bf83614e01565b9250506001016143a0565b60006143d582614e07565b6143df8185614e11565b9350836020820285016143f185614e01565b8060005b8581101561442b578484038952815161440e85826142ce565b945061441983614e01565b60209a909a01999250506001016143f5565b5091979650505050505050565b600061444382614e07565b61444d8185614e11565b935061445883614e01565b8060005b8381101561437157815161447088826142da565b975061447b83614e01565b92505060010161445c565b61448f81614e0b565b6144998184611096565b92506144a482610dee565b8060005b838110156116225781516144bc87826142ee565b96506144c783614e01565b9250506001016144a8565b60006144dd82614e07565b6144e78185614e11565b93506144f283614e01565b8060005b8381101561437157815161450a88826142ee565b975061451583614e01565b9250506001016144f6565b61430381614e25565b61430361453582614e2a565b610dee565b61430381610dee565b61430361453582610dee565b61430361453582614e3c565b600061456682614e07565b6145708185614e11565b9350614580818560208601614e97565b61458981614edf565b9093019392505050565b600061459e82614e07565b6145a88185611096565b93506145b8818560208601614e97565b9290920192915050565b60006145cf601483614e11565b7f6d696e5374616b65206d75737420626520736574000000000000000000000000815260200192915050565b6000614608603483614e11565b7f46756e6374696f6e206d6179206f6e6c792062652063616c6c6564206279206181527f207374616b6572206f6e207468697320706f6c6c000000000000000000000000602082015260400192915050565b6000614667600283614e11565b7f3a50000000000000000000000000000000000000000000000000000000000000815260200192915050565b60006146a0602783614e11565b7f53656e64657220686173206e6f7468696e67207374616b656420666f7220746881527f697320706f6c6c00000000000000000000000000000000000000000000000000602082015260400192915050565b60006146ff602183614e11565b7f536166654d6174683a206d756c7469706c69636174696f6e206f766572666c6f81527f7700000000000000000000000000000000000000000000000000000000000000602082015260400192915050565b600061475e603283614e11565b7f56656e756520636f7374206d6179206f6e6c792062652073657420627920696e81527f697461746f72206f662074686520706f6c6c0000000000000000000000000000602082015260400192915050565b60006147bd601483614e11565b7f506f6c6c2065786973747320616c72656164792e000000000000000000000000815260200192915050565b60006147f6601983614e11565b7f536f6d656f6e6520656d70746965642074686520706f74212100000000000000815260200192915050565b80516101408301906148348482614309565b506020820151614847602085018261453a565b50604082015161485a604085018261453a565b50606082015161486d606085018261453a565b5060808201516148806080850182614309565b5060a082015161489360a08501826148f2565b5060c08201516148a660c08501826148f2565b5060e08201516148b960e08501826148ce565b50610100820151612176610120850182614520565b805160408301906148df848261453a565b506020820151612176602085018261453a565b61430381614e74565b61430361490782614e74565b614ed4565b60006149188284614312565b50601401919050565b600061492d8284614543565b50602001919050565b600061281f8284614593565b600061494e8287614593565b915061495a828661454f565b60048201915061496a8285614312565b60148201915061497a82846148fb565b50600101949350505050565b60006149928287614593565b915061499e828661454f565b60048201915061496a8285614529565b60006149ba8286614593565b91506149c6828561454f565b6004820191506149d682846148fb565b506001019392505050565b602081016116bc8284614309565b602081016116bc82846142fa565b60608101614a0b82866142fa565b614a18602083018561453a565b613a66604083018461453a565b60408101614a338285614309565b8181036020830152613a66818461455b565b60608101614a538286614309565b8181036020830152614a65818561455b565b9050613a66604083018461453a565b6101208101614a83828b614309565b614a90602083018a61453a565b614a9d604083018961453a565b614aaa606083018861453a565b614ab76080830187614309565b614ac460a08301866148f2565b614ad160c08301856148ce565b614adf610100830184614520565b9998505050505050505050565b6101208101614afb828c614309565b614b08602083018b61453a565b614b15604083018a61453a565b614b22606083018961453a565b614b2f60808301886148f2565b614b3c60a083018761453a565b614b4960c083018661453a565b614b5660e0830185614520565b818103610100830152614b698184614438565b9b9a5050505050505050505050565b60608101614a0b8286614309565b6020808252810161281f8184614323565b6020808252810161281f81846143ca565b6020808252810161281f81846144d2565b602081016116bc8284614520565b602081016116bc828461453a565b60408101614a33828561453a565b6020808252810161281f818461455b565b60408082528101614c05818561455b565b905061281f60208301846142fa565b60808082528101614c25818761455b565b9050614c346020830186614309565b614c4160408301856142fa565b612bc6606083018461453a565b60808082528101614c5f818761455b565b9050614c6e6020830186614309565b614c416040830185614309565b60a08082528101614c8c818861455b565b90508181036020830152614ca0818761455b565b9050614caf6040830186614309565b614cbc60608301856148f2565b8181036080830152614cce81846144d2565b979650505050505050565b602080825281016116bc816145c2565b602080825281016116bc816145fb565b602080825281016116bc8161465a565b602080825281016116bc81614693565b602080825281016116bc816146f2565b602080825281016116bc81614751565b602080825281016116bc816147b0565b602080825281016116bc816147e9565b61014081016116bc8284614822565b60408101614d76828561453a565b61281f602083018461453a565b602081016116bc82846148f2565b60405181810167ffffffffffffffff81118282101715614db057600080fd5b604052919050565b600067ffffffffffffffff821115614dcf57600080fd5b5060209081020190565b600067ffffffffffffffff821115614df057600080fd5b506020601f91909101601f19160190565b60200190565b5190565b50600590565b90815260200190565b60006116bc82614e68565b151590565b6bffffffffffffffffffffffff191690565b7fffffffff000000000000000000000000000000000000000000000000000000001690565b61ffff1690565b600160a060020a031690565b60ff1690565b60006116bc8260006116bc82614e1a565b82818337506000910152565b60005b83811015614eb2578181015183820152602001614e9a565b838111156121765750506000910152565b60006116bc8260006116bc82614ef2565b60006116bc82614ee9565b601f01601f191690565b60f860020a0290565b6c010000000000000000000000000290565b614f0d81614e1a565b81146110db57600080fd5b614f0d81610dee565b614f0d81614e3c565b614f0d81614e61565b614f0d81614e7456fe9435991b430d6fe3d331f4a4e60ab537af0083a1880199a6838e4c92a2cbe4fba365627a7a72315820f9db0b10cd3eeeeb5a843626bbde0137c3f8271eec5da1bd7b6b9510916011996c6578706572696d656e74616cf564736f6c63430005110040",
  "source": "pragma solidity ^0.5.7;\npragma experimental ABIEncoderV2;\n\nimport \"./strings.sol\";\nimport \"./stringCasting.sol\";\n// import \"./BytesLib.sol\";\nimport \"./SafeMath.sol\";\n\n/* Lunchcoin validator contract - mutual agreement */\ncontract MutualAgreement {\n    // Common storage structure for ALL contacts using this storage.\n    // _, __, __ , etc are unused in this contract, but must remain to occupy their slots.\n\n    address owner;  // is set by TokenStorage.. but retain types and order.\n\n    struct TimeRange {\n      uint start;\n      uint end;\n    }\n\n    struct Stake {\n      uint rep;\n      TimeRange[] available;\n      uint availabilityExpires;\n      mapping (address => uint) venueContribution;\n    }\n\n    struct Dibs {\n      address payer;\n      address recipient;\n      uint amount;\n    }\n\n    struct Poll {\n      address initiator;\n      uint minStake;\n      int venueCost;\n      uint venuePot;\n      address venuePayer;\n      uint8 minParticipants;\n      TimeRange eventTime;\n      bool proofsWindowClosed;\n      mapping (address => Stake) staked;\n      mapping (address => uint16) ownCheckInIndex;           // 1-indexed: ownCheckInIndex[s]==0 => nothing there.\n      Dibs[] dibsCalled;\n    }\n\n\n    struct PollExternal {\n      address initiator;\n      uint minStake;\n      int venueCost;\n      uint venuePot;\n      address venuePayer;\n      uint8 minParticipants;\n      uint8 participants;\n      TimeRange eventTime;\n      bool proofsWindowClosed;\n      // NB external view of Poll can never correctly represent ownCheckInIndex (a mapping to a dynamic array).\n      // Need to either make it indicative, or fixed size.\n\n      // getting arrays with web3 is weird. Possibly claims ABI error?\n      // bytes32[5][] cantremember;\n      // address[] provers;\n      // dibs[] dibsCalled;\n    }\n\n    // shared across contracts\n    mapping (address => uint) rep;\n    mapping (bytes32 => bytes32[]) allTheData;\n    mapping (string => Poll) public pollData;\n    mapping (bytes32 => bool) resultsCache;\n\n    // used only in Poll\n    mapping(uint8 => address) internal __validators;\n    mapping(uint8 => string) internal __validatorNames;\n    mapping(address => uint) internal __cashBalance;\n    mapping(address => bool) internal stakerKnown;      // will move to Poll\n    mapping(address => bool) internal isCurrentMiner;      // will move to Poll\n    address[] knownMiners;\n    uint initialRep = 2000;      // will move to Poll\n    uint topupRep = 1500;        // will move to Poll\n    address __selfAddy ;\n\n\n    // unused - previously for Storage Proxy\n    //    mapping (address => bool) internal _allowedAccess;\n\n    // used only in Validators\n\n      // used for testing only - will be deleted.\n      address pollAddress = 0x9D26a8a5Db7dC10689692caF8d52C912958409CF;\n\n    // constants: Do not use space in storage.\n    uint8 constant vType=1;\n    string constant vDesc = \"mutual agreement\";\n    bool usingRealMoney = false;\n\n    struct proofCounter {\n        bool fakeProof;\n        int8 duplicateProofs;\n        uint8 fakeProofs;\n        bool senderIsPresent;\n    }\n\n\n    using strings for *;\n    using stringcast for string;\n    using SafeMath for int;\n    using SafeMath for uint;\n\n    function () payable external {\n        _fallback();\n    }\n\n    // function() external payable {\n    //     // NB sol 0.6+ better syntax for calldata arrays : https://solidity.readthedocs.io/en/v0.6.0/types.html#array-slices\n    //     bytes memory input = msg.data;\n    //\n    //     // TODO: This is V.0 accepting a string (really a bytes32) of EXACTLY 32 bytes, eg a doodle poll without the https:// ;)\n    //     bytes32 __ownAdress;  // NB assuming 32b rather than 20b for calldata loose packing. Remember to get rid of this line when optimising!\n    //     bytes memory usefulData;\n    //     bytes32 poll32;\n    //     bytes memory __reveal;\n    //     // demo result! (we don;t need more th     // will move to Pollan bool really ;)\n    //     uint256 valid = 7331;\n    //\n    //     (__ownAdress, usefulData) = (bytesSplit32(input));\n    //     (poll32, __reveal) = (bytesSplit32(usefulData));\n    //\n    //     // NB other validators will need to additionally retrieve reveal data from msg.data\n    //     bytes32[] memory stakers = crossContractCall (encodeFunctionName(\"staker\"), bytes32ToString(poll32), valid, vType);\n    //     bytes32[] memory proofs = crossContractCall (encodeFunctionName(\"proof\"), bytes32ToString(poll32), valid, vType);\n    //\n    // }\n\n    constructor () public {\n      uint initialRep = 2000;      // will move to Poll\n      uint topupRep = 1500;       // will move to Poll\n    }\n\nfunction getValuesWhichtheFuckenConstructorShouldHaveSet () public returns (uint, uint) {\n  return (initialRep, topupRep);\n}\n\n    function initialiseDemo (string memory _poll) public {\n\n      pollData[_poll].minStake = 1000;\n      pollData[_poll].venueCost = 12500;\n      // pollData[_poll].staked[msg.sender].rep = 1;\n      // pollData[_poll].staked[msg.sender].venueContribution =\n      // pollData[_poll].staked[msg.sender].venueContribution[msg.sender] = 15000;\n    }\n\n    function _fallback() internal {\n        bytes memory input = msg.data;\n\n    }\n\n    function multiplier() public view returns (uint numerator, uint denominator) {\n      return (5,4);\n    }\n\n    function maxRep() public view returns (uint maxRep) {\n      return (3000);\n    }\n\n    modifier onlyOwner() {\n      if (owner==msg.sender)\n        _;\n      else\n        revert (':P');\n    }\n\n    modifier isMiner() {\n      if (isCurrentMiner[msg.sender])\n        _;\n      else\n        revert ('Not authorised to mine rep');\n    }\n\n\n    modifier isInitiator(string memory _poll) {\n      if (pollData[_poll].initiator == msg.sender || pollData[_poll].initiator == address(0))\n        _;\n      else\n        revert ('Venue cost may only be set by initator of the poll');\n    }\n\n    event logStuff (string);\n    modifier isStaker(string memory _poll) {\n      address[] memory stakers = getStakerAddresses(_poll);\n      bool senderIsPresent;\n\n      for(uint i = 0; i < stakers.length; i++) {\n        if (stakers[i] == msg.sender) {\n          senderIsPresent = true;\n        }\n      }\n      require(senderIsPresent, \"Function may only be called by a staker on this poll\");\n      _;\n    }\n\n    function doEmit (string memory message) public {\n      emit logStuff (message);\n    }\n\n    function isPoll(string memory _poll) public view returns (bool) {\n      if (\n        pollData[_poll].initiator!=address(0)\n        || pollData[_poll].minStake >0\n        || pollData[_poll].venueCost >0\n        || pollData[_poll].venuePot >0\n        || pollData[_poll].minParticipants >0\n        || pollData[_poll].proofsWindowClosed\n        || pollData[_poll].eventTime.start >0\n        || pollData[_poll].eventTime.end > 0\n      ) return true;\n      return false;\n    }\n\n    function getPoll(string memory _poll) public view returns (\n      address initiator,\n      uint minStake,\n      // uint venueContribution,\n      int venueCost,\n      uint venuePot,\n      uint8 minParticipants,\n      uint start,\n      uint end,\n      bool proofsWindowClosed,\n      // dibs[] memory dibsCalled,\n      bytes32[5][] memory ownCheckInIndex ) {\n\n      initiator = pollData[_poll].initiator;\n      minStake = pollData[_poll].minStake;\n      venueCost = pollData[_poll].venueCost;\n      venuePot = pollData[_poll].venuePot;\n      minParticipants = pollData[_poll].minParticipants;\n      proofsWindowClosed = pollData[_poll].proofsWindowClosed;\n      start = pollData[_poll].eventTime.start;\n      end = pollData[_poll].eventTime.end;\n      // start = 1591535900000;\n      // end = 1591536000000;\n      // dibsCalled = pollData[_poll].dibsCalled;\n      // stake = pollData[_poll].staked[_staker].rep;\n      // venueContribution = pollData[_poll].staked[_staker].venueContribution[_staker];\n\n      return (initiator, minStake, venueCost, venuePot, minParticipants, start, end, proofsWindowClosed, ownCheckInIndex);\n    }\n\n    function getPollStruct(string memory _poll) public view returns (PollExternal memory returnPoll) {\n\n      // bytes32[5][] ownCheckInIndex;\n      // address[] provers;\n      // dibs[] dibsCalled;\n\n        returnPoll.minStake = 1000;\n        returnPoll.venueCost = 40000;\n        returnPoll.venuePot = 40000;\n        returnPoll.minParticipants = 3;\n        returnPoll.participants = 3;\n        returnPoll.eventTime.start = 1591535900000;\n        returnPoll.eventTime.end = 1591536000000;\n      return returnPoll;\n    }\n\n    function setByHash (bytes32 _hash, bytes32[] memory _data) public {\n      allTheData[_hash] = _data;\n    }\n\n    function getByHash (bytes32 _hash) public view returns (bytes32[] memory) {\n      return (allTheData[_hash]);\n    }\n\n    function get (string memory _poll, string memory _mapName) public view returns (bytes32[] memory) {\n        bytes32 hash = keccak256(abi.encodePacked(_poll, encodeFunctionName(_mapName), vType));\n        return (allTheData[hash]);\n    }\n\n    function set (string memory _poll, string memory _mapName, address _stakerOrZero, uint8 _vt, bytes32[] memory _data) public {\n      bytes32 hash;\n      if (_stakerOrZero == address(0)) {\n        hash = keccak256(abi.encodePacked(_poll, encodeFunctionName(_mapName), _vt));\n      } else {\n        hash = keccak256(abi.encodePacked(_poll, encodeFunctionName(_mapName), bytes20(_stakerOrZero), _vt));\n      }\n      allTheData[hash] = new bytes32[](_data.length);\n      // bytes32[] memory data = new bytes32[](_data.length);\n      for(uint16 i=0; i < _data.length; i++) {\n        allTheData[hash][i] = _data[i];\n      }\n      // allTheData[hash] = data;\n\n      // tried a number of ways and it is always reverting (when called via checkIn)\n    }\n\n    function setString (string memory _poll, string memory _mapName, uint8 _vt, string memory data) public {\n      bytes32 hash = keccak256(abi.encodePacked(_poll, encodeFunctionName(_mapName), _vt));\n      allTheData[hash] = stringToBytes32Array(data);\n    }\n\n\n    // NB vulnerable until proper poll facoty in place, since isInitiator allows any caller if poll.iniator == 0x0\n    function setVenueCost (string memory _poll, int _cost) public isInitiator(_poll) {\n      pollData[_poll].venueCost = _cost;\n    }\n\n\n    function setRep (string memory _poll, address _staker, uint _rep) public {\n      rep[_staker] = _rep;\n    }\n\n    function getRep (address _staker) public view returns (uint) {\n      return rep[_staker];\n    }\n\n    function mineRep(address recipient) public returns (uint newRep) {\n      if (stakerKnown[recipient])\n        newRep = topupRep;\n      else {\n        stakerKnown[recipient] = true;\n        newRep = initialRep;\n      }\n      if (newRep >= rep[recipient]) {\n        rep[recipient] = newRep;\n        return (newRep);\n      }\n      return (0);\n    }\n\n    function emptySofa (uint amount) onlyOwner public {\n      // <= Byzantium\n      msg.sender.transfer(amount);\n      // >= Istanbul\n      // msg.sender.call.value(amount)(\"\");\n    }\n\n    event newPollCreated(string);\n    function createPoll(string memory poll, address initiator, uint minStake, int venueCost, address venuePayer, uint8 participants) public {\n      require (!isPoll(poll), 'Poll exists already.');\n      require (minStake>0, 'minStake must be set');\n      if (initiator == address(0))\n        pollData[poll].initiator = msg.sender;\n      else\n        pollData[poll].initiator = initiator;\n      pollData[poll].minStake = minStake;\n      pollData[poll].venueCost = venueCost;\n      pollData[poll].venuePayer = venuePayer;\n      pollData[poll].minParticipants = participants;\n\n      emit newPollCreated(poll);\n    }\n\n\n\n    event whassahash(bytes);\n    event whassakeccack(bytes32);\n    function getStakersProof (string memory _poll, address _staker) public returns (bytes32[] memory) {\n      bytes32 hash = keccak256(abi.encodePacked(_poll, encodeFunctionName(\"proof\"), _staker, vType));\n      return (allTheData[hash]);\n    }\n\n    function getProofEmitHashesOnlyWithStaker (string memory _poll, string memory _mapName, address _stakerOrZero, uint8 _vt, bytes32[] memory data) public {\n      bytes32 hash = keccak256(abi.encodePacked(_poll, encodeFunctionName(_mapName), _stakerOrZero, _vt));\n      emit gpResult(_poll, _mapName, _stakerOrZero, _vt, getStakersProof(_poll, _stakerOrZero));\n    }\n\n\n    function addStaker (string memory _poll, address _staker, uint8 _vt) public {\n      bytes32 hash = keccak256(abi.encodePacked(_poll, encodeFunctionName(\"staker\"), _vt));\n      allTheData[hash].push (bytes32(bytes20(_staker)));\n    }\n\n    function getStakerAddresses (string memory _poll ) public view returns (address[] memory) {\n      bytes32[] memory rawStakers = get(_poll, \"staker\");\n      address[] memory stakers = new address[](rawStakers.length);\n      for(uint16 i=0; i < rawStakers.length; i++) {\n          stakers[i] = bytesToAddress(bytes32ToBytes(rawStakers[i]));\n      }\n      return stakers;\n    }\n\n    function getproofsAsAddresses (string memory _poll ) public returns (address[][] memory) {\n      address[] memory stakers = getStakerAddresses(_poll);\n      address[][] memory proofs = new address[][](stakers.length);\n      bytes32[] memory rawProof;\n\n      for(uint16 i=0; i < stakers.length; i++) {\n        rawProof = getStakersProof(_poll, stakers[i]);\n        proofs[i] = new address[](rawProof.length);\n        for(uint16 j=0; j < rawProof.length; j++) {\n            proofs[i][j]=(bytesToAddress(bytes32ToBytes(rawProof[j])));\n        }\n      }\n      return (proofs);\n    }\n\n    event gpResult(string, string, address, uint8, bytes32[]);\n    function setCheckedInWithStaker (string memory _poll, string memory _mapName, address _impersonatedStaker, uint8 _vt, bytes32[] memory data) public {\n      bytes32 hash = keccak256(abi.encodePacked(_poll, encodeFunctionName(_mapName), _impersonatedStaker, _vt));\n      emit whassahash(abi.encodePacked(_poll, encodeFunctionName(_mapName), _impersonatedStaker, _vt));\n      emit whassakeccack(hash);\n      allTheData[hash] = data;\n      emit gpResult(_poll, _mapName, _impersonatedStaker, _vt, getStakersProof(_poll, _impersonatedStaker));\n    }\n\n    function checkIn (string memory _poll, address _impersonatedStaker, address[] memory _newProof) public {\n      address sender = _impersonatedStaker;   //  should be msg.sender\n      uint16 idx = pollData[_poll].ownCheckInIndex[sender];\n      bool hasStaked = false;\n      uint16 i;\n\n      // if (idx==0) {\n      //   idx = uint16(getStakerAddresses(_poll ).length);\n      //   add (_poll, \"proof\", vType, _newProof);\n      //   pollData[_poll].ownCheckInIndex[sender] = idx+1;    // would be an off-by-one but ownIndex is 1-indexed ;)\n      //   return;\n      // }\n      // proofs[idx] = bytes32(bytes20(_newProof));\n\n      // bytes32[] memory stakers = get(_poll, \"staker\");\n      // for (i=0; i<stakers.length; i++) {\n      //   if bytes32(bytes20((stakers[i]))==sender\n      //     hasStaked = true;\n      // }\n      // if (hasStaked = false)\n      //   revert ('Staker has not staked in this poll')\n      bytes32[] memory proofB32 = new bytes32[](_newProof.length);\n      for (i=0; i<_newProof.length; i++) {\n        proofB32[i]=bytes32(bytes20(_newProof[i]));\n      }\n      set ( _poll, \"proof\", sender, vType, proofB32);\n      pollData[_poll].ownCheckInIndex[sender] = idx+1;\n    }\n\n    event proofUpdated(address);\n    function addProof (string memory _poll, address _impersonatedStaker, address[] memory _newProof) public {\n      address sender = _impersonatedStaker;   //  should be msg.sender\n      bytes32[] memory proofB32 = new bytes32[](_newProof.length);\n      bytes32 hash = keccak256(abi.encodePacked(_poll, encodeFunctionName(\"proof\"), bytes20(_impersonatedStaker), vType));\n      for (uint16 i=0; i<_newProof.length; i++) {\n        proofB32[i]=bytes32(bytes20(_newProof[i]));\n      }\n      if (allTheData[hash].length>0)\n        emit proofUpdated(sender);\n      allTheData[hash]=(proofB32);\n    }\n\n    function addProofSelf (string memory _poll, address[] memory _newProof) public {\n      addProof (_poll, msg.sender, _newProof);\n    }\n\n\n    event proofsWindowClosed (string poll, address by);\n    function closeProofsWindow (string memory _poll) public {\n      // require (isElibgible(msg.sender), \"msg.sender did not stake in this poll\");\n      // require (time.now()>.pollData[_poll].eventTime.end || AllstakersSubmittedProofs(), \"Not all stakers have submitted proofs and the event is not yet over\");\n      // require (, \"\");\n      pollData[_poll].proofsWindowClosed = true;\n      emit proofsWindowClosed (_poll, msg.sender);\n\n      // NB here assuming that poll can be closed once all stakers have submitted a proof.\n      // The alternative would allow a non-attending staker to hold up refunds (by refusing to submit 'I can't make it')\n      // but this way means that early provers cannot necessarily revise rpoofs which turn out not to fit consensus\n      // This policy may be better left to differ between validators.\n    }\n\n    function reopenProofsWindow (string memory _poll) public {\n      pollData[_poll].proofsWindowClosed = false;\n    }\n\n    function isProofsWindowClosed (string memory _poll) public view returns (bool ) {\n      return pollData[_poll].proofsWindowClosed;\n    }\n\n\n    event stakeNotAccepted(address, string);\n    event disreputableStakerIgnored(address, string);\n    event staked(address, string, uint);\n    event venueContribution(address, string, uint);\n    // TODO: accept one TimeRange for all stakes.\n    // TODO: accept TimeRanges per stake (need to change up the data structures!)\n    function addStake (string memory poll, uint repStake, address beneficiary) onlyOwner payable public {\n      address sender = msg.sender;\n      if (msg.value>0) {\n        uint currentVC = pollData[poll].staked[sender].venueContribution[beneficiary];\n        pollData[poll].staked[sender].venueContribution[beneficiary] += msg.value;\n        pollData[poll].venuePot += msg.value;\n        emit staked(sender, poll, msg.value);\n      }\n      if (repStake>0) {\n        if (repStake<pollData[poll].minStake) {\n          emit stakeNotAccepted(sender, poll);              // aNt!p4ttrnn ###\n        } else\n        if (rep[sender]<repStake) {\n          emit disreputableStakerIgnored(sender, poll);\n        } else {\n          rep[sender] -= repStake;\n          pollData[poll].staked[sender].rep += repStake;\n          emit staked(sender, poll, repStake);\n        }\n      }\n    }\n\n    function addFakeStake (string memory _poll, address _impersonatedStaker, uint _rep, uint _venueContribution, address _beneficiary ) public {\n      address sender = _impersonatedStaker;\n      if (_venueContribution>0) {\n        uint currentVC = pollData[_poll].staked[sender].venueContribution[_beneficiary];\n        pollData[_poll].staked[sender].venueContribution[_beneficiary] += _venueContribution;\n        pollData[_poll].venuePot += _venueContribution;\n        emit staked(sender, _poll, _venueContribution);\n      }\n      if (_rep>0) {\n        if (_rep<pollData[_poll].minStake) {\n          emit stakeNotAccepted(sender, _poll);              // aNt!p4ttrnn ###\n        } else\n        if (rep[sender]<_rep) {\n          emit disreputableStakerIgnored(sender, _poll);\n        } else {\n          rep[sender] -= _rep;\n          pollData[_poll].staked[sender].rep += _rep;\n          emit staked(sender, _poll, _rep);\n        }\n      }\n    }\n\n    function totalRepStaked (string memory _poll, address _staker) public view returns (uint) {\n      return pollData[_poll].staked[_staker].rep;\n    }\n\n    function totalVenueContribs (string memory _poll, address _staker) public view returns (uint total) {\n      // dibs[] memory dibsList = allDibsPaidBy(_staker);\n\n\n      // gives an out of bounds error (or munches it into VM..blah..blah)\n      // trying to access ...[address(0)]\n      // total = pollData[_poll].staked[_staker].venueContribution[_staker] + pollData[_poll].staked[_staker].venueContribution[address(0)];\n      total = pollData[_poll].staked[_staker].venueContribution[_staker];\n\n      // for(uint16 i = 0; i < dibsList.length; i++) {\n      //   total += dibsList[i].amount;\n      // }\n\n      return total;\n    }\n\n    // NB refundVenueStake and refundStake BOTH call this, so one will revert.\n    // TODO: Add checks into those functions\n    event emptyStakeRemoved (string _poll, address _staker);\n    function removeEmptyStake (string memory _poll, address _staker) public {\n      // uint rep=pollData[_poll].staked[msg.sender].rep;\n      // uint venueContributions = totalVenueContribs (_poll, _staker);\n      // require (rep==0 && venueContributions==0, 'Staker has non empty stake or venue contribution');\n      // delete pollData[_poll].staked[msg.sender];\n      // emit emptyStakeRemoved(_poll, msg.sender);\n    }\n\n    // NB these require returning complex type.\n    // Keep the commented code, but integrate it direct into functions which need it (and eventually use new ABI encoder on it ;)\n\n    // function allDibsPaidBy(string memory _poll, address _staker) public view returns (dibs[] memory) {\n    //   uint16 size=0;\n    //   uint16 i;\n    //   for(i = 0; i < pollData[_poll].dibsCalled.length; i++) {\n    //     if (pollData[_poll].dibsCalled[i].payer == _staker)\n    //       size++;\n    //   }\n    //   dibs[size] memory dibsList = new dibs[](size);\n    //   for(uint16 i = 0; i < pollData[_poll].dibsCalled.length; i++) {\n    //     if (pollData[_poll].dibsCalled[i].payer == _staker)\n    //       dibsList.push(pollData[_poll].dibsCalled[i]);\n    //   }\n    //   return dibsList;\n    // }\n    //\n    // function allDibsPaidFor(string memory _poll, address _recipient) public view returns (dibs[] memory) {\n    //   uint16 size=0;\n    //   uint16 i;\n    //   for(i = 0; i < pollData[_poll].dibsCalled.length; i++) {\n    //     if (pollData[_poll].dibsCalled[i].recipient == _recipient)\n    //       size++;\n    //   }\n    //   dibs[size] memory dibsList = new dibs[](size);\n    //   for(i = 0; i < pollData[_poll].dibsCalled.length; i++) {\n    //     if (pollData[_poll].dibsCalled[i].recipient == _recipient)\n    //       dibsList.push(pollData[_poll].dibsCalled[i]);\n    //   }\n    //   return dibsList;\n    // }\n\n\n    function doRefund (address to, uint amount) private returns (bool){\n      if (usingRealMoney)\n        // <= Byzantium\n        msg.sender.transfer(amount);\n        // >= Istanbul\n        // msg.sender.call.value(amount)(\"\");\n      return true;\n    }\n\n    // NB proportional refunds are not vulnerable to gas exhaustion but covering refunds may be.\n    // Hence populating the 0x0 staker's stake with the refunded stakes, to maintain the size of stakes compared to venuePot.\n    event venuePotDisbursed (string _poll, address to, address by, uint amount);\n    // Any staker can call refund of excess venue pot.\n    // Disbursement to venue payer must wait until initiator has actively set venue payer (eg to self);\n    function refundVenueStakes(string memory _poll) public isStaker(_poll) {\n      address[] memory stakers = getStakerAddresses(_poll);\n      int equalShare = (pollData[_poll].venueCost) / int(stakers.length);\n      uint pot = pollData[_poll].venuePot;\n      uint spareCash =1234;\n      uint16 i =0;\n      uint16 j =0;\n\n      if (pot==0)\n        return;\n      // This would be so much simpler if you could compare whether a possibly negative number is smaller than a positive one.\n      // and would be safer, not having a 2's complement risk. Fucking rectangulists.\n      if ((pollData[_poll].venueCost<0) || uint(pollData[_poll].venueCost) < pollData[_poll].venuePot)\n        spareCash = uint( int(pollData[_poll].venuePot) - pollData[_poll].venueCost );\n\n      // // proportional refunds:\n      // // allows recipients of gifted contributions to get a refund too\n      for (i=0; i<stakers.length; i++) {\n        uint refund = 0;\n        address[] memory recipients = new address[](2);\n        int[] memory amounts = new int[](2);\n        //   for (stakes = allDibsPaidBy(staker).concat(staker.stake[staker]).concat(staker.stake[0x0]))\n        recipients[0] = address(0);\n        recipients[1] = stakers[i];\n        // what if this loop runs out of gas? Will the totals that everything is based on still be a good starting point?\n        for (j=0; j<recipients.length; j++) {\n          amounts[j] = int( pollData[_poll].staked[stakers[i]].venueContribution[recipients[j]] );\n          refund += ( spareCash * (uint(amounts[j])) / pot );\n          pollData[_poll].staked[stakers[i]].venueContribution[recipients[j]] = 0;\n          // maintain a tally of refunded stakes in case of gas exhaustion.\n          pollData[_poll].staked[address(0)].venueContribution[address(0)] += refund;\n          if (pollData[_poll].venuePot >= refund)\n            pollData[_poll].venuePot -= refund;\n          else\n            revert ('Someone emptied the pot!!');\n        }\n        if (refund>0 || stakers[i] == msg.sender)\n          if (doRefund(stakers[i], refund))\n            emit venuePotDisbursed (_poll, stakers[i], msg.sender, refund);\n\n      }\n      pollData[_poll].staked[address(0)].venueContribution[address(0)] = 0;\n\n      //\n      // // covering refunds:\n      // // gifted contributions are used only to top up recipients'\n      // for (i=0; i<stakers.length; i++) {\n      //   int refund = 0;\n      //   int totalPaid = 0;\n      //   address[] memory recipients = new address[](2);\n      //   int[] memory amounts = new int[](2);\n      //   //   for (stakes = allDibsPaidBy(staker).concat(staker.stake[staker]).concat(staker.stake[0x0]))\n      //   recipients[0] = address(0);\n      //   recipients[1] = stakers[i];\n      //   for (j=0; j<recipients.length; j++) {\n      //     amounts[j] = int( pollData[_poll].staked[stakers[i]].venueContribution[recipients[j]] );\n      //     totalPaid += amounts[j];\n      //   }\n      //   if (totalPaid > int(equalShare))\n      //     for (j=0; j<recipients.length; j++) {\n      //       // too tired for this!!\n      //     }\n      // }\n\n\n\n      //     for (stakes = allDibsPaidFor(staker).concat(staker.stake[staker]).concat(staker.stake[0x0]))\n      //       if amount>=shortfall\n      //         totalPaid += shortfall\n      //         shorten(stake)\n      //       else\n      //         totalPaid += amount\n      //         remove(stake) including own stake!\n      //     refund(0)\n      // for stakers\n      //   if exists(stake) (ie those who were not removed in last round)\n      //     for (stakes = allDibsPaidBy(staker).concat(staker.stake[staker]).concat(staker.stake[0x0]))\n      //       if amount>=shortfall\n      //         totalPaid += shortfall\n      //         refund += rest\n      //       else\n      //         totalPaid += amount\n      //       remove(stake)\n      //     refund (refund)\n      //     emitsolidity uint16\n      //\n\n      if (pollData[_poll].staked[msg.sender].rep == 0)\n        removeEmptyStake(_poll, msg.sender);\n    }\n\n\n    event repRefund (address staker, uint staked, uint refunded);\n    event refundFail (address _staker);\n    function refundStake (string memory _poll, bytes32 _reveal) public isStaker(_poll) {\n      require (pollData[_poll].staked[msg.sender].rep > 0, 'Sender has nothing staked for this poll');\n      // Will ownCheckInIndex be a thing?\n      // require (pollData[_poll].ownCheckInIndex[msg.sender] > 0, 'Sender has not submitted an attendance proof for this poll');\n      (uint num, uint denom) = multiplier();\n\n      if (!validate(msg.sender, _poll, _reveal)) {\n        emit refundFail(msg.sender);\n        // // no point trying to both emit and revert!\n        // revert ('Not enough stakers included you in their check-ins. Your reputation is lost :(');\n        return;\n      }\n\n      uint refund = num.mul(pollData[_poll].staked[msg.sender].rep) / denom;\n      if (rep[msg.sender] + refund > maxRep())\n        refund = pollData[_poll].staked[msg.sender].rep;\n\n      pollData[_poll].staked[msg.sender].rep = 0;\n      rep[msg.sender] += refund;\n      emit repRefund (msg.sender, pollData[_poll].staked[msg.sender].rep, refund);\n      if (totalVenueContribs(_poll, msg.sender) == 0)\n        removeEmptyStake(_poll, msg.sender);\n    }\n\n\n    function emitVenueStakeRefunded (string memory _poll, address _to, address _by, uint _amount, uint8 _repeat) public  {\n      for (uint8 i=0; _repeat>0 && i<_repeat; i++) {\n        emit venuePotDisbursed (_poll, _to, _by, _amount);\n      }\n    }\n\n    function emitVenuePotRefunded (string memory _poll, address _to, address _by, uint _amount) public {\n      emit venuePotDisbursed (_poll, pollData[_poll].venuePayer, _by, _amount);\n    }\n\n    function emitrepRefunded (address _staker, uint _staked, uint _refunded) public {\n      emit repRefund (_staker, _staked, _refunded);\n    }\n\n    function emitrefundFail (address _staker) public {\n      emit refundFail (_staker);\n    }\n\n    function isInList (address[] memory list, address target) private returns (bool) {\n      for(uint j = 0; j < list.length; j++) {\n        if (list[j] == target)\n          return (true);\n      }\n      return (false);\n    }\n\n\n    event numberLoggerLikeImUsingFuckingJava (string, uint);\n    // cheapo validator - this one just counts how many people included you in their proof, with no attempt at making the proofs agree.\n    // currently counts votes in favour of each stakers, which will help, but doesn't flag which poroofs disagree\n    function validate(address _pollContract, string memory _poll, bytes32 _reveal) public returns (bool) {\n        // require (_pollContract==howeverYoullIdentifySelf, 'wrong Poll contract - something needs upgrading');\n\n        address[] memory stakers = getStakerAddresses(_poll);\n        address[][] memory proofs = getproofsAsAddresses(_poll);\n        uint16[] memory stakerPresentCount = new uint16[](stakers.length);\n        uint16 i;\n        uint16 sendersIndex;   // 1 indexed, 0=> not reached\n        bool stakerPresent;\n\n        uint16 threshold = 1;   //  do not set to 0 - div0 error!\n        // emit numberLoggerLikeImUsingFuckingJava('stakers',stakers.length);\n        // emit numberLoggerLikeImUsingFuckingJava('proofs',proofs.length);\n\n\n        // deal with percentage thresholds (threshold == 10000+p where p= [percentage])\n        if(threshold>10000 && threshold<=10100) {\n          threshold = threshold-10000;\n          threshold = (threshold*uint16(stakers.length))/100;\n        }\n\n\n        for(i = 0; i < stakers.length; i++) {\n            if (stakers[i]==msg.sender)\n              sendersIndex=i+1;\n        }\n        // sendersIndex will not be 0, since validate is private and should be called only be refundStake, which has isStaker modifier\n        assert (sendersIndex>0);\n\n        for(i = 0; i < stakers.length; i++) {\n            // emit logStuff(\"started loop\");\n            stakerPresent = false;\n            for(uint j = 0; j < proofs[i].length; j++) {\n              if (proofs[i][j] == msg.sender)\n                stakerPresent = true;\n\n              // increase the present count for the address who this staker marked present\n              // if this staker claims someone is here but the majority disagree, then emit disagreement;\n              if (proofs[i][j] == msg.sender)\n                stakerPresentCount[sendersIndex-1]++;\n              else {\n              //   // NB inefficient repeated loop - needs optimising before rolling out\n              //   stakerPresentCount[stakerIndexOf((proofs[i][j])]++;\n              }\n\n            }\n            // // if I am not present in this proof, but I have passed my own proof, where I am checked in, emit a disagreement;\n            // if (!stakerPresent && sendersIndex>0 && isInList([sendersIndex-1], msg.sender))\n            //   impugnProof(i);\n        }\n        // // if this staker claims someone is here but the majority disagree, then emit disagreement;\n\n        // update majorities\n        // check previous disagreements\n\n        if (stakerPresentCount[sendersIndex-1]>=threshold)\n          if (stakerPresentCount[sendersIndex-1] *2 >= proofs.length+1 )\n          return true;\n        return false;\n    }\n\n\n    function proofType() public pure returns (uint8) {\n      return vType;\n    }\n\n    function encodeFunctionName (string memory name) internal pure returns (bytes4) {\n        // TODO: cache for readability!\n        // if (\"staker\")\n        //     return\n        // if (\"proof\")\n        //     return\n        return bytes4(keccak256(bytes(name)));\n    }\n\n    // split a serialised string of addresses (as received from main contract).\n    // NB - only works in this validator - other validators will use multiple types within serialised string\n    function splitToAddresses(string memory _concatenated) internal pure returns (address[] memory result) {\n        strings.slice memory delim = \",\".toSlice();\n        strings.slice memory source = _concatenated.toSlice();\n        address[] memory parts = new address[](source.count(delim));\n\n        for(uint i = 0; i < parts.length; i++) {\n           parts[i] = source.split(delim).toString().toAddress();\n        }\n        return parts;\n\n    }\n\n    function bytesToAddress(bytes memory _bytes) public pure returns (address) {\n      address tempAddress;\n      assembly {\n          tempAddress := div(mload(add(add(_bytes, 0x20), 0)), 0x1000000000000000000000000)\n      }\n      return tempAddress;\n    }\n\n    function toString(address account) public pure returns(string memory) {\n        return toString(abi.encodePacked(account), 5);\n    }\n\n    function toString(uint256 value) public pure returns(string memory) {\n        return toString(abi.encodePacked(value), 0);\n    }\n\n    function toString(bytes32 value) public pure returns(string memory) {\n        return toString(abi.encodePacked(value), 0);\n    }\n\n    function toString(bytes memory data, uint16 len) public pure returns(string memory) {\n        bytes memory alphabet = \"0123456789abcdef\";\n        uint16 strLen = 20;  // It's 20. The length is just fucking 20.  uint16(data.length);\n        // Pretty simple if statement - why won't it work ?\n        // if (len>0) {\n        //     strLen = len;\n        // }\n\n\n        bytes memory str = new bytes(2 + strLen * 2);\n        str[0] = '0';\n        str[1] = 'x';\n        for (uint i = 0; i < strLen; i++) {\n            str[2+i*2] = alphabet[uint(uint8(data[i] >> 4))];\n            str[3+i*2] = alphabet[uint(uint8(data[i] & 0x0f))];\n        }\n        return string(str);\n    }\n\n\n    function bytes32ToBytes(bytes32 _bytes32) public pure returns (bytes memory){\n        // string memory str = string(_bytes32);\n        // TypeError: Explicit type conversion not allowed from \"bytes32\" to \"string storage pointer\"\n        bytes memory bytesArray = new bytes(32);\n        for (uint256 i; i < 32; i++) {\n            bytesArray[i] = _bytes32[i];\n        }\n        return bytesArray;\n    }\n\n    // function bytesToBytes32(bytes b, uint offset) private pure returns (bytes32) {\n    //     bytes32 out;\n\n    //     for (uint i = 0; i < 32; i++) {\n    //         out |= bytes32(b[offset + i] & 0xFF) >> (i * 8);\n    //     }\n    //     return out;\n    // }\n\n\n    function bytesToBytes32(bytes memory b) public pure returns (bytes32 bts) {\n        bytes32 i;\n        //NB size etc= 32b = 0x20b\n        assembly { i := mload(add(b, 0x20)) }\n        bts = i;\n    }\n\n    function bytes32ToString(bytes32 _bytes32) public pure returns (string memory ){\n        bytes memory bytesArray = bytes32ToBytes(_bytes32);\n        return string(bytesArray);\n    }\n\n    function bytes32ArrayToString (bytes32[] memory data) public pure returns (string memory ) {\n        bytes memory bytesString = new bytes(data.length * 32);\n        uint urlLength;\n        uint i=0;\n        for (i=0; i<data.length; i++) {\n            for (uint j=0; j<32; j++) {\n                byte char = byte(bytes32(uint(data[i]) * 2 ** (8 * j)));\n                if (char != 0) {\n                    bytesString[urlLength] = char;\n                    urlLength += 1;\n                }\n            }\n        }\n        bytes memory bytesStringTrimmed = new bytes(urlLength);\n        for (i=0; i<urlLength; i++) {\n            bytesStringTrimmed[i] = bytesString[i];\n        }\n        return string(bytesStringTrimmed);\n    }\n\n    function stringToBytes32Array(string memory source) public pure returns (bytes32[] memory result) {\n        // uint16 words = uint16( (bytes(source).length+31)/32 );\n        uint16 words = 1;\n        for(uint16 i=0; i<=words; i++) {\n          uint16 offset = 32*(i+1);\n          bytes32 word;\n          assembly {\n            word := mload(add(source, offset))\n          }\n          result[i] = word;\n        }\n        return result;\n    }\n\n    // TODO !!!\n    // function bytes32ToUint (bytes32 data) returns (uint) {\n    //     return 2;\n    // }\n\n    function bytesSplit32(bytes  memory data) public pure returns (bytes32, bytes memory ) {\n        uint8 splitAt = 32;                             // all (if variable split, pass in splitAt)\n        uint256 taillength = 0;\n        if (data.length > splitAt)\n            taillength = data.length-splitAt;\n        bytes32 temp;\n        // bytes32 head;                                   // 32b split\n        bytes memory head = new bytes(splitAt);         // variable length split\n        bytes memory tail = new bytes(taillength);\n        for(uint i=0;i<=data.length-1;i++){\n            if (i<splitAt)\n                head[i] = bytes(data)[i] ;\n            else\n                tail[i-splitAt] = bytes(data)[i] ;\n        }\n        return (bytesToBytes32(head), tail);\n    }\n\n    // calls fallback function of pollAddress, passing 4 byte encoded function name to remote contract to select method.\n    // NB future better: just get the ABI of the finished Poll conmtract, and use that!\n    // NB in sol 0.6 + fallback cannot return anything\n    // NB future optimisation : we are not using the functionality of string here, since string must have come from a bytes32\n    event CrossContractValidateBegin();\n    event CrossContractValidateEnd();\n    function crossContractCall (bytes4 fnNameHash, string  memory poll, uint256 valid, uint8 vt) public returns (bytes32[] memory) {\n    address pollContract = pollAddress;\n\n        emit CrossContractValidateBegin();\n        assembly {\n            let ptr := mload(0x40)\n            calldatacopy(ptr, 0, calldatasize)\n            let result := delegatecall(gas, pollContract, ptr, calldatasize, 0, 0)\n            let size := returndatasize\n            returndatacopy(ptr, 0, size)\n            switch result\n            case 0 { revert(ptr, size) }\n            default { return(ptr, size) }\n        }\n        emit CrossContractValidateEnd();\n    }\n\n}\n",
  "sourcePath": "/home/teide/randomCode/lunchcoin/contracts.v1/contracts/MutualAgreement.sol",
  "compiler": {
    "name": "solc",
    "version": "0.5.17+commit.d19bba13.Emscripten.clang"
  },
  "schemaVersion": "3.0.2",
  "updatedAt": "2020-07-06T17:21:37.898Z",
  "devdoc": {
    "methods": {}
  },
  "userdoc": {
    "methods": {}
  }
}