{
  "contractName": "MutualAgreement",
  "abi": [
    {
      "inputs": [],
      "payable": false,
      "stateMutability": "nonpayable",
      "type": "constructor",
      "signature": "constructor"
    },
    {
      "anonymous": false,
      "inputs": [],
      "name": "CrossContractValidateBegin",
      "type": "event",
      "signature": "0x1ff50e4650f7f1e5b26a5f5e921b803deee4a95a1b6ef46e05992b3bc1dcdb8c"
    },
    {
      "anonymous": false,
      "inputs": [],
      "name": "CrossContractValidateEnd",
      "type": "event",
      "signature": "0x8d3a809bf7de78d4f05cff7e28d114c50c5b6b828274326dec15c0119a574f81"
    },
    {
      "anonymous": false,
      "inputs": [
        {
          "indexed": false,
          "internalType": "address",
          "name": "",
          "type": "address"
        },
        {
          "indexed": false,
          "internalType": "string",
          "name": "",
          "type": "string"
        }
      ],
      "name": "disreputableStakerIgnored",
      "type": "event",
      "signature": "0x5b8a56dcf3c46c1155547d5fcd97b1a751382df7f906feb9d53f5cd53271308f"
    },
    {
      "anonymous": false,
      "inputs": [
        {
          "indexed": false,
          "internalType": "string",
          "name": "_poll",
          "type": "string"
        },
        {
          "indexed": false,
          "internalType": "address",
          "name": "_staker",
          "type": "address"
        }
      ],
      "name": "emptyStakeRemoved",
      "type": "event",
      "signature": "0xbcdb1351c7b0043b8c36c050954a8f50bd16196d7f967f2e0c7b2a17440d5979"
    },
    {
      "anonymous": false,
      "inputs": [
        {
          "indexed": false,
          "internalType": "string",
          "name": "",
          "type": "string"
        },
        {
          "indexed": false,
          "internalType": "string",
          "name": "",
          "type": "string"
        },
        {
          "indexed": false,
          "internalType": "address",
          "name": "",
          "type": "address"
        },
        {
          "indexed": false,
          "internalType": "uint8",
          "name": "",
          "type": "uint8"
        },
        {
          "indexed": false,
          "internalType": "bytes32[]",
          "name": "",
          "type": "bytes32[]"
        }
      ],
      "name": "gpResult",
      "type": "event",
      "signature": "0xd2fc72c97aeb0e8367f33ed670eff5bed73dab77cab530bd44311a95ae547398"
    },
    {
      "anonymous": false,
      "inputs": [
        {
          "indexed": false,
          "internalType": "string",
          "name": "",
          "type": "string"
        }
      ],
      "name": "logStuff",
      "type": "event",
      "signature": "0xbef39ac07ea6b8a7a08590612f317b1db2e9821fea4739345478345d853321e7"
    },
    {
      "anonymous": false,
      "inputs": [
        {
          "indexed": false,
          "internalType": "string",
          "name": "",
          "type": "string"
        },
        {
          "indexed": false,
          "internalType": "uint256",
          "name": "",
          "type": "uint256"
        }
      ],
      "name": "numberLoggerLikeImUsingFuckingJava",
      "type": "event",
      "signature": "0xfed296e202df9b481ea0f4586ce8acea759915ccb7cc65f185c4249a87d1091c"
    },
    {
      "anonymous": false,
      "inputs": [
        {
          "indexed": false,
          "internalType": "address",
          "name": "",
          "type": "address"
        }
      ],
      "name": "proofUpdated",
      "type": "event",
      "signature": "0xd0adafca5f88ebee186251179caad6d29ee5ad555a79bfe4d8a00e3a87988a2b"
    },
    {
      "anonymous": false,
      "inputs": [
        {
          "indexed": false,
          "internalType": "string",
          "name": "poll",
          "type": "string"
        },
        {
          "indexed": false,
          "internalType": "address",
          "name": "by",
          "type": "address"
        }
      ],
      "name": "proofsWindowClosed",
      "type": "event",
      "signature": "0xc2b1ad619f75c5b190b6f26a4b118a5ec58ad98a0a76cef82a67099f76c03336"
    },
    {
      "anonymous": false,
      "inputs": [
        {
          "indexed": false,
          "internalType": "address",
          "name": "_staker",
          "type": "address"
        }
      ],
      "name": "refundFail",
      "type": "event",
      "signature": "0xf79d39278918f1a3dc8522bfdea96d506ed15dd2cc97156b182f5c8895ab7b71"
    },
    {
      "anonymous": false,
      "inputs": [
        {
          "indexed": false,
          "internalType": "address",
          "name": "staker",
          "type": "address"
        },
        {
          "indexed": false,
          "internalType": "uint256",
          "name": "staked",
          "type": "uint256"
        },
        {
          "indexed": false,
          "internalType": "uint256",
          "name": "refunded",
          "type": "uint256"
        }
      ],
      "name": "repRefund",
      "type": "event",
      "signature": "0x391dd8dd49c61a65c7ebe8745ea4c81bc4d5a6dd59d8bda3ba1f9a9114bf64eb"
    },
    {
      "anonymous": false,
      "inputs": [
        {
          "indexed": false,
          "internalType": "address",
          "name": "",
          "type": "address"
        },
        {
          "indexed": false,
          "internalType": "string",
          "name": "",
          "type": "string"
        }
      ],
      "name": "stakeNotAccepted",
      "type": "event",
      "signature": "0xbdaeb13301d6416e47b70f09ade9e4ae93d6bd468d3833197ea44af2e955f0fe"
    },
    {
      "anonymous": false,
      "inputs": [
        {
          "indexed": false,
          "internalType": "address",
          "name": "",
          "type": "address"
        },
        {
          "indexed": false,
          "internalType": "string",
          "name": "",
          "type": "string"
        },
        {
          "indexed": false,
          "internalType": "uint256",
          "name": "",
          "type": "uint256"
        }
      ],
      "name": "staked",
      "type": "event",
      "signature": "0x9435991b430d6fe3d331f4a4e60ab537af0083a1880199a6838e4c92a2cbe4fb"
    },
    {
      "anonymous": false,
      "inputs": [
        {
          "indexed": false,
          "internalType": "string",
          "name": "_poll",
          "type": "string"
        },
        {
          "indexed": false,
          "internalType": "address",
          "name": "to",
          "type": "address"
        },
        {
          "indexed": false,
          "internalType": "address",
          "name": "by",
          "type": "address"
        },
        {
          "indexed": false,
          "internalType": "uint256",
          "name": "amount",
          "type": "uint256"
        }
      ],
      "name": "venuePotDisbursed",
      "type": "event",
      "signature": "0x5ee9688c98e0f205ec05ae1bb4703913ce6aaffae0ed525d1e5e2303750811e7"
    },
    {
      "anonymous": false,
      "inputs": [
        {
          "indexed": false,
          "internalType": "bytes",
          "name": "",
          "type": "bytes"
        }
      ],
      "name": "whassahash",
      "type": "event",
      "signature": "0xee5443e0769176cacb5e7cebe33b561327ef2a06863e7fa72ec9be7cc2d82b60"
    },
    {
      "anonymous": false,
      "inputs": [
        {
          "indexed": false,
          "internalType": "bytes32",
          "name": "",
          "type": "bytes32"
        }
      ],
      "name": "whassakeccack",
      "type": "event",
      "signature": "0xa457a29197b7db5513e7fa40d359d53b392afa4785e7b4e899898a92798d4849"
    },
    {
      "payable": true,
      "stateMutability": "payable",
      "type": "fallback"
    },
    {
      "constant": true,
      "inputs": [
        {
          "internalType": "string",
          "name": "",
          "type": "string"
        }
      ],
      "name": "pollData",
      "outputs": [
        {
          "internalType": "address",
          "name": "initiator",
          "type": "address"
        },
        {
          "internalType": "uint256",
          "name": "minStake",
          "type": "uint256"
        },
        {
          "internalType": "int256",
          "name": "venueCost",
          "type": "int256"
        },
        {
          "internalType": "uint256",
          "name": "venuePot",
          "type": "uint256"
        },
        {
          "internalType": "address",
          "name": "venuePayer",
          "type": "address"
        },
        {
          "internalType": "uint8",
          "name": "minParticipants",
          "type": "uint8"
        },
        {
          "components": [
            {
              "internalType": "uint256",
              "name": "start",
              "type": "uint256"
            },
            {
              "internalType": "uint256",
              "name": "end",
              "type": "uint256"
            }
          ],
          "internalType": "struct MutualAgreement.TimeRange",
          "name": "eventTime",
          "type": "tuple"
        },
        {
          "internalType": "bool",
          "name": "proofsWindowClosed",
          "type": "bool"
        }
      ],
      "payable": false,
      "stateMutability": "view",
      "type": "function",
      "signature": "0x4a0f2fd7"
    },
    {
      "constant": false,
      "inputs": [],
      "name": "getValuesWhichtheFuckenConstructorShouldHaveSet",
      "outputs": [
        {
          "internalType": "uint256",
          "name": "",
          "type": "uint256"
        },
        {
          "internalType": "uint256",
          "name": "",
          "type": "uint256"
        }
      ],
      "payable": false,
      "stateMutability": "nonpayable",
      "type": "function",
      "signature": "0xba5868ba"
    },
    {
      "constant": false,
      "inputs": [
        {
          "internalType": "string",
          "name": "_poll",
          "type": "string"
        }
      ],
      "name": "initialiseDemo",
      "outputs": [],
      "payable": false,
      "stateMutability": "nonpayable",
      "type": "function",
      "signature": "0x7514d750"
    },
    {
      "constant": true,
      "inputs": [],
      "name": "multiplier",
      "outputs": [
        {
          "internalType": "uint256",
          "name": "numerator",
          "type": "uint256"
        },
        {
          "internalType": "uint256",
          "name": "denominator",
          "type": "uint256"
        }
      ],
      "payable": false,
      "stateMutability": "view",
      "type": "function",
      "signature": "0x1b3ed722"
    },
    {
      "constant": true,
      "inputs": [],
      "name": "maxRep",
      "outputs": [
        {
          "internalType": "uint256",
          "name": "maxRep",
          "type": "uint256"
        }
      ],
      "payable": false,
      "stateMutability": "view",
      "type": "function",
      "signature": "0x63039be8"
    },
    {
      "constant": false,
      "inputs": [
        {
          "internalType": "string",
          "name": "message",
          "type": "string"
        }
      ],
      "name": "doEmit",
      "outputs": [],
      "payable": false,
      "stateMutability": "nonpayable",
      "type": "function",
      "signature": "0x58666c04"
    },
    {
      "constant": true,
      "inputs": [
        {
          "internalType": "string",
          "name": "_poll",
          "type": "string"
        }
      ],
      "name": "getPoll",
      "outputs": [
        {
          "internalType": "address",
          "name": "initiator",
          "type": "address"
        },
        {
          "internalType": "int256",
          "name": "venueCost",
          "type": "int256"
        },
        {
          "internalType": "uint256",
          "name": "venuePot",
          "type": "uint256"
        },
        {
          "internalType": "uint8",
          "name": "minParticipants",
          "type": "uint8"
        },
        {
          "internalType": "uint256",
          "name": "start",
          "type": "uint256"
        },
        {
          "internalType": "uint256",
          "name": "end",
          "type": "uint256"
        },
        {
          "internalType": "bool",
          "name": "proofsWindowClosed",
          "type": "bool"
        },
        {
          "internalType": "bytes32[5][]",
          "name": "ownCheckInIndex",
          "type": "bytes32[5][]"
        }
      ],
      "payable": false,
      "stateMutability": "view",
      "type": "function",
      "signature": "0x10a688e3"
    },
    {
      "constant": true,
      "inputs": [
        {
          "internalType": "string",
          "name": "_poll",
          "type": "string"
        }
      ],
      "name": "getPollStruct",
      "outputs": [
        {
          "components": [
            {
              "internalType": "address",
              "name": "initiator",
              "type": "address"
            },
            {
              "internalType": "uint256",
              "name": "minStake",
              "type": "uint256"
            },
            {
              "internalType": "int256",
              "name": "venueCost",
              "type": "int256"
            },
            {
              "internalType": "uint256",
              "name": "venuePot",
              "type": "uint256"
            },
            {
              "internalType": "address",
              "name": "venuePayer",
              "type": "address"
            },
            {
              "internalType": "uint8",
              "name": "minParticipants",
              "type": "uint8"
            },
            {
              "internalType": "uint8",
              "name": "participants",
              "type": "uint8"
            },
            {
              "components": [
                {
                  "internalType": "uint256",
                  "name": "start",
                  "type": "uint256"
                },
                {
                  "internalType": "uint256",
                  "name": "end",
                  "type": "uint256"
                }
              ],
              "internalType": "struct MutualAgreement.TimeRange",
              "name": "eventTime",
              "type": "tuple"
            },
            {
              "internalType": "bool",
              "name": "proofsWindowClosed",
              "type": "bool"
            }
          ],
          "internalType": "struct MutualAgreement.PollExternal",
          "name": "returnPoll",
          "type": "tuple"
        }
      ],
      "payable": false,
      "stateMutability": "view",
      "type": "function",
      "signature": "0x4665ecb4"
    },
    {
      "constant": false,
      "inputs": [
        {
          "internalType": "bytes32",
          "name": "_hash",
          "type": "bytes32"
        },
        {
          "internalType": "bytes32[]",
          "name": "_data",
          "type": "bytes32[]"
        }
      ],
      "name": "setByHash",
      "outputs": [],
      "payable": false,
      "stateMutability": "nonpayable",
      "type": "function",
      "signature": "0x6026ad9c"
    },
    {
      "constant": true,
      "inputs": [
        {
          "internalType": "bytes32",
          "name": "_hash",
          "type": "bytes32"
        }
      ],
      "name": "getByHash",
      "outputs": [
        {
          "internalType": "bytes32[]",
          "name": "",
          "type": "bytes32[]"
        }
      ],
      "payable": false,
      "stateMutability": "view",
      "type": "function",
      "signature": "0xa2dd3d47"
    },
    {
      "constant": true,
      "inputs": [
        {
          "internalType": "string",
          "name": "_poll",
          "type": "string"
        },
        {
          "internalType": "string",
          "name": "_mapName",
          "type": "string"
        }
      ],
      "name": "get",
      "outputs": [
        {
          "internalType": "bytes32[]",
          "name": "",
          "type": "bytes32[]"
        }
      ],
      "payable": false,
      "stateMutability": "view",
      "type": "function",
      "signature": "0x3e10510b"
    },
    {
      "constant": false,
      "inputs": [
        {
          "internalType": "string",
          "name": "_poll",
          "type": "string"
        },
        {
          "internalType": "string",
          "name": "_mapName",
          "type": "string"
        },
        {
          "internalType": "address",
          "name": "_stakerOrZero",
          "type": "address"
        },
        {
          "internalType": "uint8",
          "name": "_vt",
          "type": "uint8"
        },
        {
          "internalType": "bytes32[]",
          "name": "_data",
          "type": "bytes32[]"
        }
      ],
      "name": "set",
      "outputs": [],
      "payable": false,
      "stateMutability": "nonpayable",
      "type": "function",
      "signature": "0x062ffb07"
    },
    {
      "constant": false,
      "inputs": [
        {
          "internalType": "string",
          "name": "_poll",
          "type": "string"
        },
        {
          "internalType": "string",
          "name": "_mapName",
          "type": "string"
        },
        {
          "internalType": "uint8",
          "name": "_vt",
          "type": "uint8"
        },
        {
          "internalType": "string",
          "name": "data",
          "type": "string"
        }
      ],
      "name": "setString",
      "outputs": [],
      "payable": false,
      "stateMutability": "nonpayable",
      "type": "function",
      "signature": "0x2742bea8"
    },
    {
      "constant": false,
      "inputs": [
        {
          "internalType": "string",
          "name": "_poll",
          "type": "string"
        },
        {
          "internalType": "int256",
          "name": "_cost",
          "type": "int256"
        }
      ],
      "name": "setVenueCost",
      "outputs": [],
      "payable": false,
      "stateMutability": "nonpayable",
      "type": "function",
      "signature": "0x88a80f23"
    },
    {
      "constant": false,
      "inputs": [
        {
          "internalType": "string",
          "name": "_poll",
          "type": "string"
        },
        {
          "internalType": "address",
          "name": "_staker",
          "type": "address"
        },
        {
          "internalType": "uint256",
          "name": "_rep",
          "type": "uint256"
        }
      ],
      "name": "setRep",
      "outputs": [],
      "payable": false,
      "stateMutability": "nonpayable",
      "type": "function",
      "signature": "0x405a6adb"
    },
    {
      "constant": true,
      "inputs": [
        {
          "internalType": "address",
          "name": "_staker",
          "type": "address"
        }
      ],
      "name": "getRep",
      "outputs": [
        {
          "internalType": "uint256",
          "name": "",
          "type": "uint256"
        }
      ],
      "payable": false,
      "stateMutability": "view",
      "type": "function",
      "signature": "0x6a2ebc3f"
    },
    {
      "constant": false,
      "inputs": [
        {
          "internalType": "address",
          "name": "recipient",
          "type": "address"
        }
      ],
      "name": "mineRep",
      "outputs": [
        {
          "internalType": "uint256",
          "name": "newRep",
          "type": "uint256"
        }
      ],
      "payable": false,
      "stateMutability": "nonpayable",
      "type": "function",
      "signature": "0xc4a3496e"
    },
    {
      "constant": false,
      "inputs": [
        {
          "internalType": "string",
          "name": "_poll",
          "type": "string"
        },
        {
          "internalType": "address",
          "name": "_staker",
          "type": "address"
        }
      ],
      "name": "getStakersProof",
      "outputs": [
        {
          "internalType": "bytes32[]",
          "name": "",
          "type": "bytes32[]"
        }
      ],
      "payable": false,
      "stateMutability": "nonpayable",
      "type": "function",
      "signature": "0x898fa03b"
    },
    {
      "constant": false,
      "inputs": [
        {
          "internalType": "string",
          "name": "_poll",
          "type": "string"
        },
        {
          "internalType": "string",
          "name": "_mapName",
          "type": "string"
        },
        {
          "internalType": "address",
          "name": "_stakerOrZero",
          "type": "address"
        },
        {
          "internalType": "uint8",
          "name": "_vt",
          "type": "uint8"
        },
        {
          "internalType": "bytes32[]",
          "name": "data",
          "type": "bytes32[]"
        }
      ],
      "name": "getProofEmitHashesOnlyWithStaker",
      "outputs": [],
      "payable": false,
      "stateMutability": "nonpayable",
      "type": "function",
      "signature": "0x7682484d"
    },
    {
      "constant": false,
      "inputs": [
        {
          "internalType": "string",
          "name": "_poll",
          "type": "string"
        },
        {
          "internalType": "address",
          "name": "_staker",
          "type": "address"
        },
        {
          "internalType": "uint8",
          "name": "_vt",
          "type": "uint8"
        }
      ],
      "name": "addStaker",
      "outputs": [],
      "payable": false,
      "stateMutability": "nonpayable",
      "type": "function",
      "signature": "0xed3d3205"
    },
    {
      "constant": true,
      "inputs": [
        {
          "internalType": "string",
          "name": "_poll",
          "type": "string"
        }
      ],
      "name": "getStakerAddresses",
      "outputs": [
        {
          "internalType": "address[]",
          "name": "",
          "type": "address[]"
        }
      ],
      "payable": false,
      "stateMutability": "view",
      "type": "function",
      "signature": "0x5a31204c"
    },
    {
      "constant": false,
      "inputs": [
        {
          "internalType": "string",
          "name": "_poll",
          "type": "string"
        }
      ],
      "name": "getproofsAsAddresses",
      "outputs": [
        {
          "internalType": "address[][]",
          "name": "",
          "type": "address[][]"
        }
      ],
      "payable": false,
      "stateMutability": "nonpayable",
      "type": "function",
      "signature": "0x0dd990c7"
    },
    {
      "constant": false,
      "inputs": [
        {
          "internalType": "string",
          "name": "_poll",
          "type": "string"
        },
        {
          "internalType": "string",
          "name": "_mapName",
          "type": "string"
        },
        {
          "internalType": "address",
          "name": "_impersonatedStaker",
          "type": "address"
        },
        {
          "internalType": "uint8",
          "name": "_vt",
          "type": "uint8"
        },
        {
          "internalType": "bytes32[]",
          "name": "data",
          "type": "bytes32[]"
        }
      ],
      "name": "setCheckedInWithStaker",
      "outputs": [],
      "payable": false,
      "stateMutability": "nonpayable",
      "type": "function",
      "signature": "0x9478485e"
    },
    {
      "constant": false,
      "inputs": [
        {
          "internalType": "string",
          "name": "_poll",
          "type": "string"
        },
        {
          "internalType": "address",
          "name": "_impersonatedStaker",
          "type": "address"
        },
        {
          "internalType": "address[]",
          "name": "_newProof",
          "type": "address[]"
        }
      ],
      "name": "checkIn",
      "outputs": [],
      "payable": false,
      "stateMutability": "nonpayable",
      "type": "function",
      "signature": "0xbf6cd601"
    },
    {
      "constant": false,
      "inputs": [
        {
          "internalType": "string",
          "name": "_poll",
          "type": "string"
        },
        {
          "internalType": "address",
          "name": "_impersonatedStaker",
          "type": "address"
        },
        {
          "internalType": "address[]",
          "name": "_newProof",
          "type": "address[]"
        }
      ],
      "name": "addProof",
      "outputs": [],
      "payable": false,
      "stateMutability": "nonpayable",
      "type": "function",
      "signature": "0x5d8636c0"
    },
    {
      "constant": false,
      "inputs": [
        {
          "internalType": "string",
          "name": "_poll",
          "type": "string"
        },
        {
          "internalType": "address[]",
          "name": "_newProof",
          "type": "address[]"
        }
      ],
      "name": "addProofSelf",
      "outputs": [],
      "payable": false,
      "stateMutability": "nonpayable",
      "type": "function",
      "signature": "0x09421c25"
    },
    {
      "constant": false,
      "inputs": [
        {
          "internalType": "string",
          "name": "_poll",
          "type": "string"
        }
      ],
      "name": "closeProofsWindow",
      "outputs": [],
      "payable": false,
      "stateMutability": "nonpayable",
      "type": "function",
      "signature": "0x8fee464b"
    },
    {
      "constant": false,
      "inputs": [
        {
          "internalType": "string",
          "name": "_poll",
          "type": "string"
        }
      ],
      "name": "reopenProofsWindow",
      "outputs": [],
      "payable": false,
      "stateMutability": "nonpayable",
      "type": "function",
      "signature": "0xe68043df"
    },
    {
      "constant": true,
      "inputs": [
        {
          "internalType": "string",
          "name": "_poll",
          "type": "string"
        }
      ],
      "name": "isProofsWindowClosed",
      "outputs": [
        {
          "internalType": "bool",
          "name": "",
          "type": "bool"
        }
      ],
      "payable": false,
      "stateMutability": "view",
      "type": "function",
      "signature": "0x0f58bb42"
    },
    {
      "constant": false,
      "inputs": [
        {
          "internalType": "string",
          "name": "_poll",
          "type": "string"
        },
        {
          "internalType": "address",
          "name": "_impersonatedStaker",
          "type": "address"
        },
        {
          "internalType": "uint256",
          "name": "_rep",
          "type": "uint256"
        },
        {
          "internalType": "uint256",
          "name": "_venueContribution",
          "type": "uint256"
        },
        {
          "internalType": "address",
          "name": "_venueContributionFor",
          "type": "address"
        }
      ],
      "name": "addStake",
      "outputs": [],
      "payable": false,
      "stateMutability": "nonpayable",
      "type": "function",
      "signature": "0xf4602b2e"
    },
    {
      "constant": true,
      "inputs": [
        {
          "internalType": "string",
          "name": "_poll",
          "type": "string"
        },
        {
          "internalType": "address",
          "name": "_staker",
          "type": "address"
        }
      ],
      "name": "totalRepStaked",
      "outputs": [
        {
          "internalType": "uint256",
          "name": "",
          "type": "uint256"
        }
      ],
      "payable": false,
      "stateMutability": "view",
      "type": "function",
      "signature": "0xe40a42ab"
    },
    {
      "constant": true,
      "inputs": [
        {
          "internalType": "string",
          "name": "_poll",
          "type": "string"
        },
        {
          "internalType": "address",
          "name": "_staker",
          "type": "address"
        }
      ],
      "name": "totalVenueContribs",
      "outputs": [
        {
          "internalType": "uint256",
          "name": "total",
          "type": "uint256"
        }
      ],
      "payable": false,
      "stateMutability": "view",
      "type": "function",
      "signature": "0x7c34d108"
    },
    {
      "constant": false,
      "inputs": [
        {
          "internalType": "string",
          "name": "_poll",
          "type": "string"
        },
        {
          "internalType": "address",
          "name": "_staker",
          "type": "address"
        }
      ],
      "name": "removeEmptyStake",
      "outputs": [],
      "payable": false,
      "stateMutability": "nonpayable",
      "type": "function",
      "signature": "0x23e51210"
    },
    {
      "constant": false,
      "inputs": [
        {
          "internalType": "string",
          "name": "_poll",
          "type": "string"
        }
      ],
      "name": "refundVenueStakes",
      "outputs": [],
      "payable": false,
      "stateMutability": "nonpayable",
      "type": "function",
      "signature": "0x6622f2cf"
    },
    {
      "constant": false,
      "inputs": [
        {
          "internalType": "string",
          "name": "_poll",
          "type": "string"
        },
        {
          "internalType": "bytes32",
          "name": "_reveal",
          "type": "bytes32"
        }
      ],
      "name": "refundStake",
      "outputs": [],
      "payable": false,
      "stateMutability": "nonpayable",
      "type": "function",
      "signature": "0xd76db9d6"
    },
    {
      "constant": false,
      "inputs": [
        {
          "internalType": "string",
          "name": "_poll",
          "type": "string"
        },
        {
          "internalType": "address",
          "name": "_to",
          "type": "address"
        },
        {
          "internalType": "address",
          "name": "_by",
          "type": "address"
        },
        {
          "internalType": "uint256",
          "name": "_amount",
          "type": "uint256"
        },
        {
          "internalType": "uint8",
          "name": "_repeat",
          "type": "uint8"
        }
      ],
      "name": "emitVenueStakeRefunded",
      "outputs": [],
      "payable": false,
      "stateMutability": "nonpayable",
      "type": "function",
      "signature": "0xc591bb14"
    },
    {
      "constant": false,
      "inputs": [
        {
          "internalType": "string",
          "name": "_poll",
          "type": "string"
        },
        {
          "internalType": "address",
          "name": "_to",
          "type": "address"
        },
        {
          "internalType": "address",
          "name": "_by",
          "type": "address"
        },
        {
          "internalType": "uint256",
          "name": "_amount",
          "type": "uint256"
        }
      ],
      "name": "emitVenuePotRefunded",
      "outputs": [],
      "payable": false,
      "stateMutability": "nonpayable",
      "type": "function",
      "signature": "0x833b3d0e"
    },
    {
      "constant": false,
      "inputs": [
        {
          "internalType": "address",
          "name": "_staker",
          "type": "address"
        },
        {
          "internalType": "uint256",
          "name": "_staked",
          "type": "uint256"
        },
        {
          "internalType": "uint256",
          "name": "_refunded",
          "type": "uint256"
        }
      ],
      "name": "emitrepRefunded",
      "outputs": [],
      "payable": false,
      "stateMutability": "nonpayable",
      "type": "function",
      "signature": "0xbf49657a"
    },
    {
      "constant": false,
      "inputs": [
        {
          "internalType": "address",
          "name": "_staker",
          "type": "address"
        }
      ],
      "name": "emitrefundFail",
      "outputs": [],
      "payable": false,
      "stateMutability": "nonpayable",
      "type": "function",
      "signature": "0xdc0f7df3"
    },
    {
      "constant": false,
      "inputs": [
        {
          "internalType": "address",
          "name": "_pollContract",
          "type": "address"
        },
        {
          "internalType": "string",
          "name": "_poll",
          "type": "string"
        },
        {
          "internalType": "bytes32",
          "name": "_reveal",
          "type": "bytes32"
        }
      ],
      "name": "validate",
      "outputs": [
        {
          "internalType": "bool",
          "name": "",
          "type": "bool"
        }
      ],
      "payable": false,
      "stateMutability": "nonpayable",
      "type": "function",
      "signature": "0x8a9392c0"
    },
    {
      "constant": true,
      "inputs": [],
      "name": "proofType",
      "outputs": [
        {
          "internalType": "uint8",
          "name": "",
          "type": "uint8"
        }
      ],
      "payable": false,
      "stateMutability": "pure",
      "type": "function",
      "signature": "0x05af5d35"
    },
    {
      "constant": true,
      "inputs": [
        {
          "internalType": "bytes",
          "name": "_bytes",
          "type": "bytes"
        }
      ],
      "name": "bytesToAddress",
      "outputs": [
        {
          "internalType": "address",
          "name": "",
          "type": "address"
        }
      ],
      "payable": false,
      "stateMutability": "pure",
      "type": "function",
      "signature": "0x42526e4e"
    },
    {
      "constant": true,
      "inputs": [
        {
          "internalType": "address",
          "name": "account",
          "type": "address"
        }
      ],
      "name": "toString",
      "outputs": [
        {
          "internalType": "string",
          "name": "",
          "type": "string"
        }
      ],
      "payable": false,
      "stateMutability": "pure",
      "type": "function",
      "signature": "0x56ca623e"
    },
    {
      "constant": true,
      "inputs": [
        {
          "internalType": "uint256",
          "name": "value",
          "type": "uint256"
        }
      ],
      "name": "toString",
      "outputs": [
        {
          "internalType": "string",
          "name": "",
          "type": "string"
        }
      ],
      "payable": false,
      "stateMutability": "pure",
      "type": "function",
      "signature": "0x6900a3ae"
    },
    {
      "constant": true,
      "inputs": [
        {
          "internalType": "bytes",
          "name": "data",
          "type": "bytes"
        },
        {
          "internalType": "uint16",
          "name": "len",
          "type": "uint16"
        }
      ],
      "name": "toString",
      "outputs": [
        {
          "internalType": "string",
          "name": "",
          "type": "string"
        }
      ],
      "payable": false,
      "stateMutability": "pure",
      "type": "function",
      "signature": "0xa1bac85f"
    },
    {
      "constant": true,
      "inputs": [
        {
          "internalType": "bytes32",
          "name": "value",
          "type": "bytes32"
        }
      ],
      "name": "toString",
      "outputs": [
        {
          "internalType": "string",
          "name": "",
          "type": "string"
        }
      ],
      "payable": false,
      "stateMutability": "pure",
      "type": "function",
      "signature": "0xb11a19e8"
    },
    {
      "constant": true,
      "inputs": [
        {
          "internalType": "bytes32",
          "name": "_bytes32",
          "type": "bytes32"
        }
      ],
      "name": "bytes32ToBytes",
      "outputs": [
        {
          "internalType": "bytes",
          "name": "",
          "type": "bytes"
        }
      ],
      "payable": false,
      "stateMutability": "pure",
      "type": "function",
      "signature": "0x4c0999c7"
    },
    {
      "constant": true,
      "inputs": [
        {
          "internalType": "bytes",
          "name": "b",
          "type": "bytes"
        }
      ],
      "name": "bytesToBytes32",
      "outputs": [
        {
          "internalType": "bytes32",
          "name": "bts",
          "type": "bytes32"
        }
      ],
      "payable": false,
      "stateMutability": "pure",
      "type": "function",
      "signature": "0xbfe370d9"
    },
    {
      "constant": true,
      "inputs": [
        {
          "internalType": "bytes32",
          "name": "_bytes32",
          "type": "bytes32"
        }
      ],
      "name": "bytes32ToString",
      "outputs": [
        {
          "internalType": "string",
          "name": "",
          "type": "string"
        }
      ],
      "payable": false,
      "stateMutability": "pure",
      "type": "function",
      "signature": "0x9201de55"
    },
    {
      "constant": true,
      "inputs": [
        {
          "internalType": "bytes32[]",
          "name": "data",
          "type": "bytes32[]"
        }
      ],
      "name": "bytes32ArrayToString",
      "outputs": [
        {
          "internalType": "string",
          "name": "",
          "type": "string"
        }
      ],
      "payable": false,
      "stateMutability": "pure",
      "type": "function",
      "signature": "0x9cbc87a3"
    },
    {
      "constant": true,
      "inputs": [
        {
          "internalType": "string",
          "name": "source",
          "type": "string"
        }
      ],
      "name": "stringToBytes32Array",
      "outputs": [
        {
          "internalType": "bytes32[]",
          "name": "result",
          "type": "bytes32[]"
        }
      ],
      "payable": false,
      "stateMutability": "pure",
      "type": "function",
      "signature": "0x91652043"
    },
    {
      "constant": true,
      "inputs": [
        {
          "internalType": "bytes",
          "name": "data",
          "type": "bytes"
        }
      ],
      "name": "bytesSplit32",
      "outputs": [
        {
          "internalType": "bytes32",
          "name": "",
          "type": "bytes32"
        },
        {
          "internalType": "bytes",
          "name": "",
          "type": "bytes"
        }
      ],
      "payable": false,
      "stateMutability": "pure",
      "type": "function",
      "signature": "0x26a9cdf7"
    },
    {
      "constant": false,
      "inputs": [
        {
          "internalType": "bytes4",
          "name": "fnNameHash",
          "type": "bytes4"
        },
        {
          "internalType": "string",
          "name": "poll",
          "type": "string"
        },
        {
          "internalType": "uint256",
          "name": "valid",
          "type": "uint256"
        },
        {
          "internalType": "uint8",
          "name": "vt",
          "type": "uint8"
        }
      ],
      "name": "crossContractCall",
      "outputs": [
        {
          "internalType": "bytes32[]",
          "name": "",
          "type": "bytes32[]"
        }
      ],
      "payable": false,
      "stateMutability": "nonpayable",
      "type": "function",
      "signature": "0x8e3dca0b"
    }
  ],
  "bytecode": "0x60806040526107d0600b556105dc600c55600f8054600160a060020a031916739d26a8a5db7dc10689692caf8d52c912958409cf17905534801561004257600080fd5b506145c8806100526000396000f3fe608060405260043610610337576000357c0100000000000000000000000000000000000000000000000000000000900480637682484d116101c8578063a2dd3d4711610114578063c591bb14116100b2578063e40a42ab1161008c578063e40a42ab146109d7578063e68043df146109f7578063ed3d320514610a17578063f4602b2e14610a3757610337565b8063c591bb1414610977578063d76db9d614610997578063dc0f7df3146109b757610337565b8063bf49657a116100ee578063bf49657a146108f7578063bf6cd60114610917578063bfe370d914610937578063c4a3496e1461095757610337565b8063a2dd3d47146108c2578063b11a19e8146106c2578063ba5868ba146108e257610337565b80638e3dca0b116101815780639201de551161015b5780639201de55146108425780639478485e146108625780639cbc87a314610882578063a1bac85f146108a257610337565b80638e3dca0b146107e25780638fee464b14610802578063916520431461082257610337565b80637682484d146107225780637c34d10814610742578063833b3d0e1461076257806388a80f2314610782578063898fa03b146107a25780638a9392c0146107c257610337565b80634665ecb4116102875780635d8636c0116102405780636622f2cf1161021a5780636622f2cf146106a25780636900a3ae146106c25780636a2ebc3f146106e25780637514d7501461070257610337565b80635d8636c0146106405780636026ad9c1461066057806363039be81461068057610337565b80634665ecb4146105455780634a0f2fd7146105725780634c0999c7146105a657806356ca623e146105d357806358666c04146105f35780635a31204c1461061357610337565b80631b3ed722116102f45780632742bea8116102ce5780632742bea8146104ab5780633e10510b146104cb578063405a6adb146104f857806342526e4e1461051857610337565b80631b3ed7221461043a57806323e512101461045d57806326a9cdf71461047d57610337565b806305af5d3514610341578063062ffb071461036c57806309421c251461038c5780630dd990c7146103ac5780630f58bb42146103d957806310a688e314610406575b61033f610a57565b005b34801561034d57600080fd5b50610356610a94565b6040516103639190614392565b60405180910390f35b34801561037857600080fd5b5061033f6103873660046138d7565b610a9a565b34801561039857600080fd5b5061033f6103a73660046137d2565b610bd9565b3480156103b857600080fd5b506103cc6103c7366004613483565b610be8565b60405161036391906141e6565b3480156103e557600080fd5b506103f96103f4366004613483565b610d3b565b6040516103639190614208565b34801561041257600080fd5b50610426610421366004613483565b610d6a565b604051610363989796959493929190614083565b34801561044657600080fd5b5061044f610e6c565b604051610363929190614377565b34801561046957600080fd5b5061033f6104783660046134ff565b610be4565b34801561048957600080fd5b5061049d610498366004613483565b610e74565b604051610363929190614224565b3480156104b757600080fd5b5061033f6104c6366004613986565b610fbc565b3480156104d757600080fd5b506104eb6104e6366004613878565b611027565b60405161036391906141f7565b34801561050457600080fd5b5061033f6105133660046136b0565b6110bf565b34801561052457600080fd5b50610538610533366004613483565b6110dc565b604051610363919061403f565b34801561055157600080fd5b50610565610560366004613483565b6110ea565b6040516103639190614368565b34801561057e57600080fd5b5061059261058d366004613483565b61113a565b60405161036398979695949392919061414f565b3480156105b257600080fd5b506105c66105c136600461339a565b6111c6565b6040516103639190614232565b3480156105df57600080fd5b506105c66105ee3660046132a8565b61123b565b3480156105ff57600080fd5b5061033f61060e366004613483565b611267565b34801561061f57600080fd5b5061063361062e366004613483565b6112a1565b60405161036391906141d5565b34801561064c57600080fd5b5061033f61065b36600461363e565b611373565b34801561066c57600080fd5b5061033f61067b3660046133b8565b6114d9565b34801561068c57600080fd5b506106956114fd565b6040516103639190614216565b3480156106ae57600080fd5b5061033f6106bd366004613483565b611503565b3480156106ce57600080fd5b506105c66106dd36600461339a565b611b2e565b3480156106ee57600080fd5b506106956106fd3660046132a8565b611b5a565b34801561070e57600080fd5b5061033f61071d366004613483565b611b75565b34801561072e57600080fd5b5061033f61073d3660046138d7565b611bc6565b34801561074e57600080fd5b5061069561075d3660046134ff565b611ce8565b34801561076e57600080fd5b5061033f61077d366004613546565b611d36565b34801561078e57600080fd5b5061033f61079d366004613831565b611d91565b3480156107ae57600080fd5b506104eb6107bd3660046134ff565b611e4b565b3480156107ce57600080fd5b506103f96107dd3660046132ce565b611fc7565b3480156107ee57600080fd5b506104eb6107fd36600461340a565b612176565b34801561080e57600080fd5b5061033f61081d366004613483565b6121d4565b34801561082e57600080fd5b506104eb61083d366004613483565b612239565b34801561084e57600080fd5b506105c661085d36600461339a565b61228a565b34801561086e57600080fd5b5061033f61087d3660046138d7565b612296565b34801561088e57600080fd5b506105c661089d366004613365565b6123b7565b3480156108ae57600080fd5b506105c66108bd3660046134b8565b61251f565b3480156108ce57600080fd5b506104eb6108dd36600461339a565b61271b565b3480156108ee57600080fd5b5061044f61277d565b34801561090357600080fd5b5061033f610912366004613333565b612787565b34801561092357600080fd5b5061033f61093236600461363e565b6127c7565b34801561094357600080fd5b50610695610952366004613483565b612943565b34801561096357600080fd5b506106956109723660046132a8565b61294a565b34801561098357600080fd5b5061033f6109923660046135b2565b6129e3565b3480156109a357600080fd5b5061033f6109b2366004613831565b612aa0565b3480156109c357600080fd5b5061033f6109d23660046132a8565b612c72565b3480156109e357600080fd5b506106956109f23660046134ff565b612ca1565b348015610a0357600080fd5b5061033f610a12366004613483565b612cf3565b348015610a2357600080fd5b5061033f610a32366004613778565b612d2b565b348015610a4357600080fd5b5061033f610a523660046136f9565b612dd4565b60606000368080601f0160208091040260200160405190810160405280939291908181526020018383808284376000920191909152505050505050565b60015b90565b6000600160a060020a038416610ae45785610ab486612ffa565b84604051602001610ac79392919061400c565b604051602081830303815290604052805190602001209050610b22565b85610aee86612ffa565b85606060020a0285604051602001610b099493929190613fe4565b6040516020818303038152906040528051906020012090505b8151604051908082528060200260200182016040528015610b4d578160200160208202803883390190505b5060008281526002602090815260409091208251610b71939192919091019061304a565b5060005b82518161ffff161015610bd057828161ffff1681518110610b9257fe5b6020026020010151600260008481526020019081526020016000208261ffff1681548110610bbc57fe5b600091825260209091200155600101610b75565b50505050505050565b610be4823383611373565b5050565b606080610bf4836112a1565b905060608151604051908082528060200260200182016040528015610c2d57816020015b6060815260200190600190039081610c185790505b509050606060005b83518161ffff161015610d2f57610c6386858361ffff1681518110610c5657fe5b6020026020010151611e4b565b91508151604051908082528060200260200182016040528015610c90578160200160208202803883390190505b50838261ffff1681518110610ca157fe5b602090810291909101015260005b82518161ffff161015610d2657610cdf610533848361ffff1681518110610cd257fe5b60200260200101516111c6565b848361ffff1681518110610cef57fe5b60200260200101518261ffff1681518110610d0657fe5b600160a060020a0390921660209283029190910190910152600101610caf565b50600101610c35565b5090925050505b919050565b6000600382604051610d4d9190613f94565b9081526040519081900360200190206007015460ff169050919050565b60008060008060008060006060600389604051610d879190613f94565b90815260405190819003602001812054600160a060020a03169850600390610db0908b90613f94565b9081526020016040518091039020600201549650600389604051610dd49190613f94565b9081526020016040518091039020600301549550600389604051610df89190613f94565b9081526040519081900360200181206004015460ff74010000000000000000000000000000000000000000909104169550600390610e37908b90613f94565b908152604051908190036020019020600701546501728eee956094506501728ef01c00935060ff169150919395975091939597565b600560049091565b80516000906060906020908390821015610e92578160ff1685510390505b600060608360ff166040519080825280601f01601f191660200182016040528015610ec4576020820181803883390190505b5090506060836040519080825280601f01601f191660200182016040528015610ef4576020820181803883390190505b50905060005b60018951038111610fa5578560ff16811015610f5657888181518110610f1c57fe5b602001015160f860020a900460f860020a02838281518110610f3a57fe5b6020010190600160f860020a031916908160001a905350610f9d565b888181518110610f6257fe5b602001015160f860020a900460f860020a02828760ff16830381518110610f8557fe5b6020010190600160f860020a031916908160001a9053505b600101610efa565b50610faf82612943565b9650945050505050915091565b600084610fc885612ffa565b84604051602001610fdb9392919061400c565b604051602081830303815290604052805190602001209050610ffc82612239565b6000828152600260209081526040909120825161101f939192919091019061304a565b505050505050565b606060008361103584612ffa565b60016040516020016110499392919061400c565b60408051601f19818403018152828252805160209182012060008181526002835283902080548084028601840190945283855290945091908301828280156110b057602002820191906000526020600020905b81548152602001906001019080831161109c575b50505050509150505b92915050565b600160a060020a0390911660009081526001602052604090205550565b60200151606060020a900490565b6110f2613095565b6103e8602080830191909152619c40604083018190526060830152600360a0830181905260c083015260e0820180516501728eee95609052516501728ef01c00910152919050565b80516020818301810180516003808352938301948301949094209390528254600184015460028501549385015460048601546040805180820190915260058801548152600688015495810195909552600790960154600160a060020a0393841696929594919383169274010000000000000000000000000000000000000000900460ff90811692911688565b60408051602080825281830190925260609182919060208201818038833901905050905060005b60208110156112345783816020811061120257fe5b1a60f860020a0282828151811061121557fe5b6020010190600160f860020a031916908160001a9053506001016111ed565b5092915050565b60606110b9826040516020016112519190613f6a565b604051602081830303815290604052600561251f565b7fbef39ac07ea6b8a7a08590612f317b1db2e9821fea4739345478345d853321e7816040516112969190614232565b60405180910390a150565b6060806112e3836040518060400160405280600681526020017f7374616b65720000000000000000000000000000000000000000000000000000815250611027565b905060608151604051908082528060200260200182016040528015611312578160200160208202803883390190505b50905060005b82518161ffff16101561136b5761133b610533848361ffff1681518110610cd257fe5b828261ffff168151811061134b57fe5b600160a060020a0390921660209283029190910190910152600101611318565b509392505050565b6000829050606082516040519080825280602002602001820160405280156113a5578160200160208202803883390190505b5090506000856113d7604051806040016040528060058152602001600080516020614546833981519152815250612ffa565b86606060020a0260016040516020016113f39493929190613fe4565b60408051601f198184030181529190528051602090910120905060005b84518161ffff16101561146d57848161ffff168151811061142d57fe5b6020026020010151606060020a026bffffffffffffffffffffffff1916838261ffff168151811061145a57fe5b6020908102919091010152600101611410565b50600081815260026020526040902054156114ba577fd0adafca5f88ebee186251179caad6d29ee5ad555a79bfe4d8a00e3a87988a2b836040516114b1919061403f565b60405180910390a15b60008181526002602090815260409091208351610bd09285019061304a565b600082815260026020908152604090912082516114f89284019061304a565b505050565b610bb890565b80606061150f826112a1565b90506000805b82518110156115585733600160a060020a031683828151811061153457fe5b6020026020010151600160a060020a0316141561155057600191505b600101611515565b50806115825760405160e560020a62461bcd02815260040161157990614328565b60405180910390fd5b606061158d856112a1565b9050600081516003876040516115a39190613f94565b908152602001604051809103902060020154816115bc57fe5b05905060006003876040516115d19190613f94565b9081526040519081900360200190206003015490506104d2600080836115fc57505050505050611b28565b600060038b60405161160e9190613f94565b908152602001604051809103902060020154128061166d575060038a6040516116379190613f94565b90815260200160405180910390206003015460038b6040516116599190613f94565b908152602001604051809103902060020154105b156116ba5760038a6040516116829190613f94565b90815260200160405180910390206002015460038b6040516116a49190613f94565b9081526020016040518091039020600301540392505b600091505b85518261ffff161015611aa35760408051600280825260608083018452600093909291906020830190803883395050604080516002808252606080830184529495509092509060208301908038833901905050905060008260008151811061172357fe5b6020026020010190600160a060020a03169081600160a060020a031681525050888561ffff168151811061175357fe5b60200260200101518260018151811061176857fe5b6020026020010190600160a060020a03169081600160a060020a031681525050600093505b81518461ffff1610156119eb5760038d6040516117aa9190613f94565b908152602001604051809103902060080160008a8761ffff16815181106117cd57fe5b6020026020010151600160a060020a0316600160a060020a031681526020019081526020016000206003016000838661ffff168151811061180a57fe5b6020026020010151600160a060020a0316600160a060020a0316815260200190815260200160002054818561ffff168151811061184357fe5b60200260200101818152505086818561ffff168151811061186057fe5b602002602001015187028161187157fe5b0483019250600060038e6040516118889190613f94565b908152602001604051809103902060080160008b8861ffff16815181106118ab57fe5b6020026020010151600160a060020a0316600160a060020a031681526020019081526020016000206003016000848761ffff16815181106118e857fe5b6020026020010151600160a060020a0316600160a060020a03168152602001908152602001600020819055508260038e6040516119259190613f94565b9081526020016040518091039020600801600080600160a060020a0316600160a060020a03168152602001908152602001600020600301600080600160a060020a0316600160a060020a03168152602001908152602001600020600082825401925050819055508260038e60405161199d9190613f94565b908152602001604051809103902060030154106119e0578260038e6040516119c59190613f94565b90815260405190819003602001902060030180549190910390555b60019093019261178d565b6000831180611a2757506000828561ffff1681518110611a0757fe5b6020026020010151606060020a02606060020a9004600160a060020a0316115b15611a9557611a4d898661ffff1681518110611a3f57fe5b602002602001015184613005565b15611a95576000805160206145668339815191528d8a8761ffff1681518110611a7257fe5b60200260200101513386604051611a8c9493929190614263565b60405180910390a15b5050600190920191506116bf565b600060038b604051611ab59190613f94565b90815260408051918290036020908101832060008080526008909101825282812060039081019092529190912092909255611af1908c90613f94565b90815260408051602092819003830190203360009081526008909101909252902054611b2157611b218a33610be4565b5050505050505b50505050565b60606110b982604051602001611b449190613f7f565b604051602081830303815290604052600061251f565b600160a060020a031660009081526001602052604090205490565b6103e8600382604051611b889190613f94565b9081526020016040518091039020600101819055506130d4600382604051611bb09190613f94565b9081526040519081900360200190206002015550565b600085611bd286612ffa565b8585604051602001611be79493929190613fa0565b6040516020818303038152906040528051906020012090507fee5443e0769176cacb5e7cebe33b561327ef2a06863e7fa72ec9be7cc2d82b6086611c2a87612ffa565b8686604051602001611c3f9493929190613fa0565b60408051601f1981840301815290829052611c5991614232565b60405180910390a17fa457a29197b7db5513e7fa40d359d53b392afa4785e7b4e899898a92798d484981604051611c909190614216565b60405180910390a17fd2fc72c97aeb0e8367f33ed670eff5bed73dab77cab530bd44311a95ae54739886868686611cc78b8a611e4b565b604051611cd89594939291906142ca565b60405180910390a1505050505050565b6000600383604051611cfa9190613f94565b9081526040805160209281900383019020600160a060020a03949094166000908152600890940182528084206003019091529091205492915050565b60008051602061456683398151915284600386604051611d569190613f94565b90815260405190819003602001812060040154611d839291600160a060020a03909116908690869061429d565b60405180910390a150505050565b8133600160a060020a0316600382604051611dac9190613f94565b90815260405190819003602001902054600160a060020a03161480611e0257506000600160a060020a0316600382604051611de79190613f94565b90815260405190819003602001902054600160a060020a0316145b15611e305781600384604051611e189190613f94565b908152604051908190036020019020600201556114f8565b60405160e560020a62461bcd02815260040161157990614348565b6060600083611e7c604051806040016040528060058152602001600080516020614546833981519152815250612ffa565b846001604051602001611e929493929190613fa0565b6040516020818303038152906040528051906020012090507fee5443e0769176cacb5e7cebe33b561327ef2a06863e7fa72ec9be7cc2d82b6084611ef8604051806040016040528060058152602001600080516020614546833981519152815250612ffa565b856001604051602001611f0e9493929190613fa0565b60408051601f1981840301815290829052611f2891614232565b60405180910390a17fa457a29197b7db5513e7fa40d359d53b392afa4785e7b4e899898a92798d484981604051611f5f9190614216565b60405180910390a1600081815260026020908152604091829020805483518184028101840190945280845290918301828280156110b0576020028201919060005260206000209081548152602001906001019080831161109c57505050505091505092915050565b600161216f565b85518461ffff1610156120f5576000915033600160a060020a0316868561ffff1681518110611ff957fe5b6020026020010151600160a060020a03161415612014578392505b60005b858561ffff168151811061202757fe5b6020026020010151518110156120e95733600160a060020a0316868661ffff168151811061205157fe5b6020026020010151828151811061206457fe5b6020026020010151600160a060020a0316141561208057600192505b600e6000878761ffff168151811061209457fe5b602002602001015183815181106120a757fe5b602090810291909101810151600160a060020a03168252810191909152604001600020805461ffff198116600161ffff92831681019092161790915501612017565b50600190930192611fce565b336000908152600e602052604090205460ff821661ffff909116108015906121545750336000908152600e6020526040902054855160029161ffff908116918891881690811061214157fe5b6020026020010151518161215157fe5b04105b15612168576001965050505050505061216f565b5050505050505b9392505050565b600f54604051606091600160a060020a0316907f1ff50e4650f7f1e5b26a5f5e921b803deee4a95a1b6ef46e05992b3bc1dcdb8c90600090a160405136600082376000803683855af43d806000843e8180156121d0578184f35b8184fd5b60016003826040516121e69190613f94565b908152604051908190036020018120600701805492151560ff19909316929092179091557fc2b1ad619f75c5b190b6f26a4b118a5ec58ad98a0a76cef82a67099f76c03336906112969083903390614243565b6060600160005b8161ffff168161ffff161161228357602060018201028481015184518190869061ffff861690811061226e57fe5b60209081029190910101525050600101612240565b5050919050565b60608061216f836111c6565b6000856122a286612ffa565b85856040516020016122b79493929190613fa0565b6040516020818303038152906040528051906020012090507fee5443e0769176cacb5e7cebe33b561327ef2a06863e7fa72ec9be7cc2d82b60866122fa87612ffa565b868660405160200161230f9493929190613fa0565b60408051601f198184030181529082905261232991614232565b60405180910390a17fa457a29197b7db5513e7fa40d359d53b392afa4785e7b4e899898a92798d4849816040516123609190614216565b60405180910390a1600081815260026020908152604090912083516123879285019061304a565b507fd2fc72c97aeb0e8367f33ed670eff5bed73dab77cab530bd44311a95ae54739886868686611cc78b8a611e4b565b60608082516020026040519080825280601f01601f1916602001820160405280156123e9576020820181803883390190505b5090506000805b845181101561248d5760005b60208110156124845760008160080260020a87848151811061241a57fe5b60209081029190910101510290507fff0000000000000000000000000000000000000000000000000000000000000081161561247b578085858151811061245d57fe5b6020010190600160f860020a031916908160001a9053506001840193505b506001016123fc565b506001016123f0565b6060826040519080825280601f01601f1916602001820160405280156124ba576020820181803883390190505b509050600091505b82821015612516578382815181106124d657fe5b602001015160f860020a900460f860020a028183815181106124f457fe5b6020010190600160f860020a031916908160001a9053506001909101906124c2565b95945050505050565b604080518082018252601081527f303132333435363738396162636465660000000000000000000000000000000060208201528151602a808252606082810190945260149184916020820181803883390190505090507f3000000000000000000000000000000000000000000000000000000000000000816000815181106125a357fe5b6020010190600160f860020a031916908160001a9053507f7800000000000000000000000000000000000000000000000000000000000000816001815181106125e857fe5b6020010190600160f860020a031916908160001a90535060005b8261ffff168110156127115783600488838151811061261d57fe5b602001015160f860020a900460f860020a02600160f860020a031916908060020a820491505060f860020a900460ff168151811061265757fe5b602001015160f860020a900460f860020a0282826002026002018151811061267b57fe5b6020010190600160f860020a031916908160001a9053508387828151811061269f57fe5b602001015160f860020a900460f860020a02600f60f860020a021660f860020a900460ff16815181106126ce57fe5b602001015160f860020a900460f860020a028282600202600301815181106126f257fe5b6020010190600160f860020a031916908160001a905350600101612602565b5095945050505050565b60008181526002602090815260409182902080548351818402810184019094528084526060939283018282801561277157602002820191906000526020600020905b81548152602001906001019080831161275d575b50505050509050919050565b600b54600c549091565b7f391dd8dd49c61a65c7ebe8745ea4c81bc4d5a6dd59d8bda3ba1f9a9114bf64eb8383836040516127ba939291906141c7565b60405180910390a1505050565b600082905060006003856040516127de9190613f94565b9081526040805160209281900383018120600160a060020a038616600090815260099091018452828120548751808452808602840190950190935261ffff909216935090918291606091801561283e578160200160208202803883390190505b509050600091505b85518261ffff1610156128a657858261ffff168151811061286357fe5b6020026020010151606060020a026bffffffffffffffffffffffff1916818361ffff168151811061289057fe5b6020908102919091010152600190910190612846565b6128d78860405180604001604052806005815260200160008051602061454683398151915281525087600185610a9a565b836001016003896040516128eb9190613f94565b9081526020016040518091039020600901600087600160a060020a0316600160a060020a0316815260200190815260200160002060006101000a81548161ffff021916908361ffff1602179055505050505050505050565b6020015190565b600160a060020a03811660009081526008602052604081205460ff16156129745750600c5461299c565b50600160a060020a0381166000908152600860205260409020805460ff19166001179055600b545b600160a060020a03821660009081526001602052604090205481106129db57600160a060020a0382166000908152600160205260409020819055610d36565b506000919050565b60005b60008260ff161180156129fe57508160ff168160ff16105b15612a365760008051602061456683398151915286868686604051612a26949392919061429d565b60405180910390a16001016129e6565b508060ff1660051415612a995760008051602061456683398151915285600387604051612a639190613f94565b90815260405190819003602001812060040154612a909291600160a060020a03909116908790879061429d565b60405180910390a15b5050505050565b612aac60008383611fc7565b612b02577ff79d39278918f1a3dc8522bfdea96d506ed15dd2cc97156b182f5c8895ab7b7133604051612adf919061404d565b60405180910390a160405160e560020a62461bcd02815260040161157990614358565b600080612b0d610e6c565b91509150600081612b50600387604051612b279190613f94565b90815260408051602092819003830190203360009081526008909101909252902054859061300d565b81612b5757fe5b049050612b626114fd565b3360009081526001602052604090205482011115612baf57600385604051612b8a9190613f94565b9081526040805160209281900383019020336000908152600890910190925290205490505b6000600386604051612bc19190613f94565b90815260408051918290036020908101832033600081815260089092018352838220959095556001909152208054840190557f391dd8dd49c61a65c7ebe8745ea4c81bc4d5a6dd59d8bda3ba1f9a9114bf64eb9190600390612c24908990613f94565b90815260408051918290036020908101832033600090815260089091019091522054612c529291859061405b565b60405180910390a1612c648533611ce8565b612a9957612a998533610be4565b7ff79d39278918f1a3dc8522bfdea96d506ed15dd2cc97156b182f5c8895ab7b7181604051611296919061403f565b6000600383604051612cb39190613f94565b9081526020016040518091039020600801600083600160a060020a0316600160a060020a0316815260200190815260200160002060000154905092915050565b6000600382604051612d059190613f94565b908152604051908190036020019020600701805491151560ff1990921691909117905550565b600083612d6c6040518060400160405280600681526020017f7374616b65720000000000000000000000000000000000000000000000000000815250612ffa565b83604051602001612d7f9392919061400c565b60408051808303601f1901815291815281516020928301206000908152600283529081208054600181018255908252919020606060020a949094026bffffffffffffffffffffffff1916930192909255505050565b838215612ea7576000600387604051612ded9190613f94565b908152604080519182900360209081018320600160a060020a0380871660009081526008909201835283822090881682526003908101909252919091205492508591612e3a908a90613f94565b9081526040805160209281900383018120600160a060020a0387811660009081526008909201855283822090891682526003908101909452919091208054939093019092558591612e8c908a90613f94565b90815260405190819003602001902060030180549091019055505b831561101f57600386604051612ebd9190613f94565b908152602001604051809103902060010154841015612f14577fbdaeb13301d6416e47b70f09ade9e4ae93d6bd468d3833197ea44af2e955f0fe8187604051612f07929190614100565b60405180910390a161101f565b600160a060020a038116600090815260016020526040902054841115612f65577f5b8a56dcf3c46c1155547d5fcd97b1a751382df7f906feb9d53f5cd53271308f8187604051612f07929190614100565b600160a060020a0381166000908152600160205260409081902080548690039055518490600390612f97908990613f94565b908152604080519182900360209081018320600160a060020a038616600090815260089091019091522080549092019091557f9435991b430d6fe3d331f4a4e60ab537af0083a1880199a6838e4c92a2cbe4fb90611cd890839089908890614120565b805160209091012090565b600192915050565b60008261301c575060006110b9565b8282028284828161302957fe5b041461216f5760405160e560020a62461bcd02815260040161157990614338565b828054828255906000526020600020908101928215613085579160200282015b8281111561308557825182559160200191906001019061306a565b506130919291506130ff565b5090565b6040518061012001604052806000600160a060020a031681526020016000815260200160008152602001600081526020016000600160a060020a03168152602001600060ff168152602001600060ff1681526020016130f2613119565b8152600060209091015290565b610a9791905b808211156130915760008155600101613105565b604051806040016040528060008152602001600081525090565b80356110b98161450a565b600082601f83011261314f57600080fd5b813561316261315d826143c7565b6143a0565b9150818183526020840193506020810190508385602084028201111561318757600080fd5b60005b838110156131b3578161319d8882613133565b845250602092830192919091019060010161318a565b5050505092915050565b600082601f8301126131ce57600080fd5b81356131dc61315d826143c7565b9150818183526020840193506020810190508385602084028201111561320157600080fd5b60005b838110156131b35781613217888261322d565b8452506020928301929190910190600101613204565b80356110b981614521565b80356110b98161452a565b600082601f83011261325457600080fd5b813561326261315d826143e8565b9150808252602083016020830185838301111561327e57600080fd5b61328983828461449a565b50505092915050565b80356110b981614533565b80356110b98161453c565b6000602082840312156132ba57600080fd5b60006132c68484613133565b949350505050565b6000806000606084860312156132e357600080fd5b60006132ef8686613133565b935050602084013567ffffffffffffffff81111561330c57600080fd5b61331886828701613243565b92505060406133298682870161322d565b9150509250925092565b60008060006060848603121561334857600080fd5b60006133548686613133565b93505060206133188682870161322d565b60006020828403121561337757600080fd5b813567ffffffffffffffff81111561338e57600080fd5b6132c6848285016131bd565b6000602082840312156133ac57600080fd5b60006132c6848461322d565b600080604083850312156133cb57600080fd5b60006133d7858561322d565b925050602083013567ffffffffffffffff8111156133f457600080fd5b613400858286016131bd565b9150509250929050565b6000806000806080858703121561342057600080fd5b600061342c8787613238565b945050602085013567ffffffffffffffff81111561344957600080fd5b61345587828801613243565b93505060406134668782880161322d565b92505060606134778782880161329d565b91505092959194509250565b60006020828403121561349557600080fd5b813567ffffffffffffffff8111156134ac57600080fd5b6132c684828501613243565b600080604083850312156134cb57600080fd5b823567ffffffffffffffff8111156134e257600080fd5b6134ee85828601613243565b925050602061340085828601613292565b6000806040838503121561351257600080fd5b823567ffffffffffffffff81111561352957600080fd5b61353585828601613243565b925050602061340085828601613133565b6000806000806080858703121561355c57600080fd5b843567ffffffffffffffff81111561357357600080fd5b61357f87828801613243565b945050602061359087828801613133565b93505060406135a187828801613133565b92505060606134778782880161322d565b600080600080600060a086880312156135ca57600080fd5b853567ffffffffffffffff8111156135e157600080fd5b6135ed88828901613243565b95505060206135fe88828901613133565b945050604061360f88828901613133565b93505060606136208882890161322d565b92505060806136318882890161329d565b9150509295509295909350565b60008060006060848603121561365357600080fd5b833567ffffffffffffffff81111561366a57600080fd5b61367686828701613243565b935050602061368786828701613133565b925050604084013567ffffffffffffffff8111156136a457600080fd5b6133298682870161313e565b6000806000606084860312156136c557600080fd5b833567ffffffffffffffff8111156136dc57600080fd5b6136e886828701613243565b935050602061331886828701613133565b600080600080600060a0868803121561371157600080fd5b853567ffffffffffffffff81111561372857600080fd5b61373488828901613243565b955050602061374588828901613133565b94505060406137568882890161322d565b93505060606137678882890161322d565b925050608061363188828901613133565b60008060006060848603121561378d57600080fd5b833567ffffffffffffffff8111156137a457600080fd5b6137b086828701613243565b93505060206137c186828701613133565b92505060406133298682870161329d565b600080604083850312156137e557600080fd5b823567ffffffffffffffff8111156137fc57600080fd5b61380885828601613243565b925050602083013567ffffffffffffffff81111561382557600080fd5b6134008582860161313e565b6000806040838503121561384457600080fd5b823567ffffffffffffffff81111561385b57600080fd5b61386785828601613243565b92505060206134008582860161322d565b6000806040838503121561388b57600080fd5b823567ffffffffffffffff8111156138a257600080fd5b6138ae85828601613243565b925050602083013567ffffffffffffffff8111156138cb57600080fd5b61340085828601613243565b600080600080600060a086880312156138ef57600080fd5b853567ffffffffffffffff81111561390657600080fd5b61391288828901613243565b955050602086013567ffffffffffffffff81111561392f57600080fd5b61393b88828901613243565b945050604061394c88828901613133565b935050606061395d8882890161329d565b925050608086013567ffffffffffffffff81111561397a57600080fd5b613631888289016131bd565b6000806000806080858703121561399c57600080fd5b843567ffffffffffffffff8111156139b357600080fd5b6139bf87828801613243565b945050602085013567ffffffffffffffff8111156139dc57600080fd5b6139e887828801613243565b93505060406139f98782880161329d565b925050606085013567ffffffffffffffff811115613a1657600080fd5b61347787828801613243565b6000613a2e8383613a71565b505060200190565b600061216f8383613ae4565b6000613a4e8383613bee565b505060a00190565b6000613a2e8383613ca2565b613a6b81614489565b82525050565b613a6b81614429565b613a6b613a8682614429565b6144d2565b6000613a9682614416565b613aa08185614420565b9350613aab83614410565b8060005b83811015613ad9578151613ac38882613a22565b9750613ace83614410565b925050600101613aaf565b509495945050505050565b6000613aef82614416565b613af98185614420565b9350613b0483614410565b8060005b83811015613ad9578151613b1c8882613a22565b9750613b2783614410565b925050600101613b08565b6000613b3d82614416565b613b478185614420565b935083602082028501613b5985614410565b8060005b85811015613b935784840389528151613b768582613a36565b9450613b8183614410565b60209a909a0199925050600101613b5d565b5091979650505050505050565b6000613bab82614416565b613bb58185614420565b9350613bc083614410565b8060005b83811015613ad9578151613bd88882613a42565b9750613be383614410565b925050600101613bc4565b613bf78161441a565b613c018184610d36565b9250613c0c82610a97565b8060005b8381101561101f578151613c248782613a56565b9650613c2f83614410565b925050600101613c10565b6000613c4582614416565b613c4f8185614420565b9350613c5a83614410565b8060005b83811015613ad9578151613c728882613a56565b9750613c7d83614410565b925050600101613c5e565b613a6b81614434565b613a6b613c9d82614439565b610a97565b613a6b81610a97565b613a6b613c9d82610a97565b613a6b613c9d8261444b565b6000613cce82614416565b613cd88185614420565b9350613ce88185602086016144a6565b613cf1816144ee565b9093019392505050565b6000613d0682614416565b613d108185610d36565b9350613d208185602086016144a6565b9290920192915050565b6000613d37603483614420565b7f46756e6374696f6e206d6179206f6e6c792062652063616c6c6564206279206181527f207374616b6572206f6e207468697320706f6c6c000000000000000000000000602082015260400192915050565b6000613d96602183614420565b7f536166654d6174683a206d756c7469706c69636174696f6e206f766572666c6f81527f7700000000000000000000000000000000000000000000000000000000000000602082015260400192915050565b6000613df5603283614420565b7f56656e756520636f7374206d6179206f6e6c792062652073657420627920696e81527f697461746f72206f662074686520706f6c6c0000000000000000000000000000602082015260400192915050565b6000613e54600d83614420565b7f496e76616c69642070726f6f6600000000000000000000000000000000000000815260200192915050565b8051610140830190613e928482613a71565b506020820151613ea56020850182613ca2565b506040820151613eb86040850182613ca2565b506060820151613ecb6060850182613ca2565b506080820151613ede6080850182613a71565b5060a0820151613ef160a0850182613f50565b5060c0820151613f0460c0850182613f50565b5060e0820151613f1760e0850182613f2c565b50610100820151611b28610120850182613c88565b80516040830190613f3d8482613ca2565b506020820151611b286020850182613ca2565b613a6b81614483565b613a6b613f6582614483565b6144e3565b6000613f768284613a7a565b50601401919050565b6000613f8b8284613cab565b50602001919050565b600061216f8284613cfb565b6000613fac8287613cfb565b9150613fb88286613cb7565b600482019150613fc88285613a7a565b601482019150613fd88284613f59565b50600101949350505050565b6000613ff08287613cfb565b9150613ffc8286613cb7565b600482019150613fc88285613c91565b60006140188286613cfb565b91506140248285613cb7565b6004820191506140348284613f59565b506001019392505050565b602081016110b98284613a71565b602081016110b98284613a62565b606081016140698286613a62565b6140766020830185613ca2565b6132c66040830184613ca2565b6101008101614092828b613a71565b61409f602083018a613ca2565b6140ac6040830189613ca2565b6140b96060830188613f50565b6140c66080830187613ca2565b6140d360a0830186613ca2565b6140e060c0830185613c88565b81810360e08301526140f28184613ba0565b9a9950505050505050505050565b6040810161410e8285613a71565b81810360208301526132c68184613cc3565b6060810161412e8286613a71565b81810360208301526141408185613cc3565b90506132c66040830184613ca2565b610120810161415e828b613a71565b61416b602083018a613ca2565b6141786040830189613ca2565b6141856060830188613ca2565b6141926080830187613a71565b61419f60a0830186613f50565b6141ac60c0830185613f2c565b6141ba610100830184613c88565b9998505050505050505050565b606081016140698286613a71565b6020808252810161216f8184613a8b565b6020808252810161216f8184613b32565b6020808252810161216f8184613c3a565b602081016110b98284613c88565b602081016110b98284613ca2565b6040810161410e8285613ca2565b6020808252810161216f8184613cc3565b604080825281016142548185613cc3565b905061216f6020830184613a62565b608080825281016142748187613cc3565b90506142836020830186613a71565b6142906040830185613a62565b6125166060830184613ca2565b608080825281016142ae8187613cc3565b90506142bd6020830186613a71565b6142906040830185613a71565b60a080825281016142db8188613cc3565b905081810360208301526142ef8187613cc3565b90506142fe6040830186613a71565b61430b6060830185613f50565b818103608083015261431d8184613c3a565b979650505050505050565b602080825281016110b981613d2a565b602080825281016110b981613d89565b602080825281016110b981613de8565b602080825281016110b981613e47565b61014081016110b98284613e80565b604081016143858285613ca2565b61216f6020830184613ca2565b602081016110b98284613f50565b60405181810167ffffffffffffffff811182821017156143bf57600080fd5b604052919050565b600067ffffffffffffffff8211156143de57600080fd5b5060209081020190565b600067ffffffffffffffff8211156143ff57600080fd5b506020601f91909101601f19160190565b60200190565b5190565b50600590565b90815260200190565b60006110b982614477565b151590565b6bffffffffffffffffffffffff191690565b7fffffffff000000000000000000000000000000000000000000000000000000001690565b61ffff1690565b600160a060020a031690565b60ff1690565b60006110b98260006110b982614429565b82818337506000910152565b60005b838110156144c15781810151838201526020016144a9565b83811115611b285750506000910152565b60006110b98260006110b982614501565b60006110b9826144f8565b601f01601f191690565b60f860020a0290565b606060020a0290565b61451381614429565b811461451e57600080fd5b50565b61451381610a97565b6145138161444b565b61451381614470565b6145138161448356fe70726f6f660000000000000000000000000000000000000000000000000000005ee9688c98e0f205ec05ae1bb4703913ce6aaffae0ed525d1e5e2303750811e7a365627a7a7231582027a54909eadce26b7bf953aa08bcb7d70ddc4c626bc00a007b35a73de03990ad6c6578706572696d656e74616cf564736f6c63430005110040",
  "source": "pragma solidity ^0.5.7;\npragma experimental ABIEncoderV2;\n\nimport \"./strings.sol\";\nimport \"./stringCasting.sol\";\n// import \"./BytesLib.sol\";\nimport \"./SafeMath.sol\";\n\n/* Lunchcoin validator contract - mutual agreement */\ncontract MutualAgreement {\n    // Common storage structure for ALL contacts using this storage.\n    // _, __, __ , etc are unused in this contract, but must remain to occupy their slots.\n\n    address owner;  // is set by TokenStorage.. but retain types and order.\n\n    struct TimeRange {\n      uint start;\n      uint end;\n    }\n\n    struct Stake {\n      uint rep;\n      TimeRange[] available;\n      uint availabilityExpires;\n      mapping (address => uint) venueContribution;\n    }\n\n    struct Dibs {\n      address payer;\n      address recipient;\n      uint amount;\n    }\n\n    struct Poll {\n      address initiator;\n      uint minStake;\n      int venueCost;\n      uint venuePot;\n      address venuePayer;\n      uint8 minParticipants;\n      TimeRange eventTime;\n      bool proofsWindowClosed;\n      mapping (address => Stake) staked;\n      mapping (address => uint16) ownCheckInIndex;           // 1-indexed: ownCheckInIndex[s]==0 => nothing there.\n      Dibs[] dibsCalled;\n    }\n\n\n    struct PollExternal {\n      address initiator;\n      uint minStake;\n      int venueCost;\n      uint venuePot;\n      address venuePayer;\n      uint8 minParticipants;\n      uint8 participants;\n      TimeRange eventTime;\n      bool proofsWindowClosed;\n      // NB external view of Poll can never correctly represent ownCheckInIndex (a mapping to a dynamic array).\n      // Need to either make it indicative, or fixed size.\n\n      // getting arrays with web3 is weird. Possibly claims ABI error?\n      // bytes32[5][] cantremember;\n      // address[] provers;\n      // dibs[] dibsCalled;\n    }\n\n    // shared across contracts\n    mapping (address => uint) rep;\n    mapping (bytes32 => bytes32[]) allTheData;\n    mapping (string => Poll) public pollData;\n    mapping (bytes32 => bool) resultsCache;\n\n    // used only in Poll\n    mapping(uint8 => address) internal __validators;\n    mapping(uint8 => string) internal __validatorNames;\n    mapping(address => uint) internal __cashBalance;\n    mapping(address => bool) internal stakerKnown;      // will move to Poll\n    mapping(address => bool) internal isCurrentMiner;      // will move to Poll\n    address[] knownMiners;\n    uint initialRep = 2000;      // will move to Poll\n    uint topupRep = 1500;        // will move to Poll\n    address __selfAddy ;\n\n\n    // unused - previously for Storage Proxy\n    //    mapping (address => bool) internal _allowedAccess;\n\n    // used only in Validators\n    mapping (address => uint16) stakerPresentIn;\n\n      // used for testing only - will be deleted.\n      address pollAddress = 0x9D26a8a5Db7dC10689692caF8d52C912958409CF;\n\n    // constants: Do not use space in storage.\n    uint8 constant vType=1;\n    string constant vDesc = \"mutual agreement\";\n\n\n    struct proofCounter {\n        bool fakeProof;\n        int8 duplicateProofs;\n        uint8 fakeProofs;\n        bool senderIsPresent;\n    }\n\n\n    using strings for *;\n    using stringcast for string;\n    using SafeMath for int;\n    using SafeMath for uint;\n\n    function () payable external {\n        _fallback();\n    }\n\n    // function() external payable {\n    //     // NB sol 0.6+ better syntax for calldata arrays : https://solidity.readthedocs.io/en/v0.6.0/types.html#array-slices\n    //     bytes memory input = msg.data;\n    //\n    //     // TODO: This is V.0 accepting a string (really a bytes32) of EXACTLY 32 bytes, eg a doodle poll without the https:// ;)\n    //     bytes32 __ownAdress;  // NB assuming 32b rather than 20b for calldata loose packing. Remember to get rid of this line when optimising!\n    //     bytes memory usefulData;\n    //     bytes32 poll32;\n    //     bytes memory __reveal;\n    //     // demo result! (we don;t need more th     // will move to Pollan bool really ;)\n    //     uint256 valid = 7331;\n    //\n    //     (__ownAdress, usefulData) = (bytesSplit32(input));\n    //     (poll32, __reveal) = (bytesSplit32(usefulData));\n    //\n    //     // NB other validators will need to additionally retrieve reveal data from msg.data\n    //     bytes32[] memory stakers = crossContractCall (encodeFunctionName(\"staker\"), bytes32ToString(poll32), valid, vType);\n    //     bytes32[] memory proofs = crossContractCall (encodeFunctionName(\"proof\"), bytes32ToString(poll32), valid, vType);\n    //\n    // }\n\n    constructor () public {\n      uint initialRep = 2000;      // will move to Poll\n      uint topupRep = 1500;       // will move to Poll\n    }\n\nfunction getValuesWhichtheFuckenConstructorShouldHaveSet () public returns (uint, uint) {\n  return (initialRep, topupRep);\n}\n\n    function initialiseDemo (string memory _poll) public {\n\n      pollData[_poll].minStake = 1000;\n      pollData[_poll].venueCost = 12500;\n      // pollData[_poll].staked[msg.sender].rep = 1;\n      // pollData[_poll].staked[msg.sender].venueContribution =\n      // pollData[_poll].staked[msg.sender].venueContribution[msg.sender] = 15000;\n    }\n\n    function _fallback() internal {\n        bytes memory input = msg.data;\n\n    }\n\n    function multiplier() public view returns (uint numerator, uint denominator) {\n      return (5,4);\n    }\n\n    function maxRep() public view returns (uint maxRep) {\n      return (3000);\n    }\n\n    modifier isMiner() {\n      if (isCurrentMiner[msg.sender])\n        _;\n      else\n        revert ('Not authorised to mine rep');\n    }\n\n\n    modifier isInitiator(string memory _poll) {\n      if (pollData[_poll].initiator == msg.sender || pollData[_poll].initiator == address(0))\n        _;\n      else\n        revert ('Venue cost may only be set by initator of the poll');\n    }\n\n    event logStuff (string);\n    modifier isStaker(string memory _poll) {\n      address[] memory stakers = getStakerAddresses(_poll);\n      bool senderIsPresent;\n\n      for(uint i = 0; i < stakers.length; i++) {\n        if (stakers[i] == msg.sender) {\n          senderIsPresent = true;\n        }\n      }\n      require(senderIsPresent, \"Function may only be called by a staker on this poll\");\n      _;\n    }\n\n    function doEmit (string memory message) public {\n      emit logStuff (message);\n    }\n\n    function getPoll(string memory _poll) public view returns (\n      address initiator,\n      // uint stake,\n      // uint venueContribution,\n      int venueCost,\n      uint venuePot,\n      uint8 minParticipants,\n      uint start,\n      uint end,\n      bool proofsWindowClosed,\n      // dibs[] memory dibsCalled,\n      bytes32[5][] memory ownCheckInIndex ) {\n\n      initiator = pollData[_poll].initiator;\n      venueCost = pollData[_poll].venueCost;\n      venuePot = pollData[_poll].venuePot;\n      minParticipants = pollData[_poll].minParticipants;\n      proofsWindowClosed = pollData[_poll].proofsWindowClosed;\n      // start = pollData[_poll].eventTime.start;\n      // end = pollData[_poll].eventTime.end;\n      start = 1591535900000;\n      end = 1591536000000;\n      // dibsCalled = pollData[_poll].dibsCalled;\n      // stake = pollData[_poll].staked[_staker].rep;\n      // venueContribution = pollData[_poll].staked[_staker].venueContribution[_staker];\n\n      return (initiator, venueCost, venuePot, minParticipants, start, end, proofsWindowClosed, ownCheckInIndex);\n    }\n\n    function getPollStruct(string memory _poll) public view returns (PollExternal memory returnPoll) {\n\n      // bytes32[5][] ownCheckInIndex;\n      // address[] provers;\n      // dibs[] dibsCalled;\n\n        returnPoll.minStake = 1000;\n        returnPoll.venueCost = 40000;\n        returnPoll.venuePot = 40000;\n        returnPoll.minParticipants = 3;\n        returnPoll.participants = 3;\n        returnPoll.eventTime.start = 1591535900000;\n        returnPoll.eventTime.end = 1591536000000;\n      return returnPoll;\n    }\n\n    function setByHash (bytes32 _hash, bytes32[] memory _data) public {\n      allTheData[_hash] = _data;\n    }\n\n    function getByHash (bytes32 _hash) public view returns (bytes32[] memory) {\n      return (allTheData[_hash]);\n    }\n\n    function get (string memory _poll, string memory _mapName) public view returns (bytes32[] memory) {\n        bytes32 hash = keccak256(abi.encodePacked(_poll, encodeFunctionName(_mapName), vType));\n        return (allTheData[hash]);\n    }\n\n    function set (string memory _poll, string memory _mapName, address _stakerOrZero, uint8 _vt, bytes32[] memory _data) public {\n      bytes32 hash;\n      if (_stakerOrZero == address(0)) {\n        hash = keccak256(abi.encodePacked(_poll, encodeFunctionName(_mapName), _vt));\n      } else {\n        hash = keccak256(abi.encodePacked(_poll, encodeFunctionName(_mapName), bytes20(_stakerOrZero), _vt));\n      }\n      allTheData[hash] = new bytes32[](_data.length);\n      // bytes32[] memory data = new bytes32[](_data.length);\n      for(uint16 i=0; i < _data.length; i++) {\n        allTheData[hash][i] = _data[i];\n      }\n      // allTheData[hash] = data;\n\n      // tried a number of ways and it is always reverting (when called via checkIn)\n    }\n\n    function setString (string memory _poll, string memory _mapName, uint8 _vt, string memory data) public {\n      bytes32 hash = keccak256(abi.encodePacked(_poll, encodeFunctionName(_mapName), _vt));\n      allTheData[hash] = stringToBytes32Array(data);\n    }\n\n\n    // NB vulnerable until proper poll facoty in place, since isInitiator allows any caller if poll.iniator == 0x0\n    function setVenueCost (string memory _poll, int _cost) public isInitiator(_poll) {\n      pollData[_poll].venueCost = _cost;\n    }\n\n\n    function setRep (string memory _poll, address _staker, uint _rep) public {\n      rep[_staker] = _rep;\n    }\n\n    function getRep (address _staker) public view returns (uint) {\n      return rep[_staker];\n    }\n\n    function mineRep(address recipient) public returns (uint newRep) {\n      if (stakerKnown[recipient])\n        newRep = topupRep;\n      else {\n        stakerKnown[recipient] = true;\n        newRep = initialRep;\n      }\n      if (newRep >= rep[recipient]) {\n        rep[recipient] = newRep;\n        return (newRep);\n      }\n      return (0);\n    }\n\n\n    event whassahash(bytes);\n    event whassakeccack(bytes32);\n    function getStakersProof (string memory _poll, address _staker) public returns (bytes32[] memory) {\n      bytes32 hash = keccak256(abi.encodePacked(_poll, encodeFunctionName(\"proof\"), _staker, vType));\n      emit whassahash(abi.encodePacked(_poll, encodeFunctionName(\"proof\"), _staker, vType));\n      emit whassakeccack(hash);\n      return (allTheData[hash]);\n    }\n\n    function getProofEmitHashesOnlyWithStaker (string memory _poll, string memory _mapName, address _stakerOrZero, uint8 _vt, bytes32[] memory data) public {\n      bytes32 hash = keccak256(abi.encodePacked(_poll, encodeFunctionName(_mapName), _stakerOrZero, _vt));\n      emit whassahash(abi.encodePacked(_poll, encodeFunctionName(_mapName), _stakerOrZero, _vt));\n      emit whassakeccack(hash);\n\n      emit gpResult(_poll, _mapName, _stakerOrZero, _vt, getStakersProof(_poll, _stakerOrZero));\n    }\n\n\n    function addStaker (string memory _poll, address _staker, uint8 _vt) public {\n      bytes32 hash = keccak256(abi.encodePacked(_poll, encodeFunctionName(\"staker\"), _vt));\n      allTheData[hash].push (bytes32(bytes20(_staker)));\n    }\n\n    function getStakerAddresses (string memory _poll ) public view returns (address[] memory) {\n      bytes32[] memory rawStakers = get(_poll, \"staker\");\n      address[] memory stakers = new address[](rawStakers.length);\n      for(uint16 i=0; i < rawStakers.length; i++) {\n          stakers[i] = bytesToAddress(bytes32ToBytes(rawStakers[i]));\n      }\n      return stakers;\n    }\n\n\n//NB This is returning a WRONG result, but of the right type. You've probably got indices mixed up.\n    function getproofsAsAddresses (string memory _poll ) public returns (address[][] memory) {\n      address[] memory stakers = getStakerAddresses(_poll);\n      address[][] memory proofs = new address[][](stakers.length);\n      bytes32[] memory rawProof;\n\n      for(uint16 i=0; i < stakers.length; i++) {\n        rawProof = getStakersProof(_poll, stakers[i]);\n        proofs[i] = new address[](rawProof.length);\n        for(uint16 j=0; j < rawProof.length; j++) {\n            proofs[i][j]=(bytesToAddress(bytes32ToBytes(rawProof[j])));\n        }\n      }\n      return (proofs);\n    }\n\n    event gpResult(string, string, address, uint8, bytes32[]);\n    function setCheckedInWithStaker (string memory _poll, string memory _mapName, address _impersonatedStaker, uint8 _vt, bytes32[] memory data) public {\n      bytes32 hash = keccak256(abi.encodePacked(_poll, encodeFunctionName(_mapName), _impersonatedStaker, _vt));\n      emit whassahash(abi.encodePacked(_poll, encodeFunctionName(_mapName), _impersonatedStaker, _vt));\n      emit whassakeccack(hash);\n      allTheData[hash] = data;\n      emit gpResult(_poll, _mapName, _impersonatedStaker, _vt, getStakersProof(_poll, _impersonatedStaker));\n    }\n\n    function checkIn (string memory _poll, address _impersonatedStaker, address[] memory _newProof) public {\n      address sender = _impersonatedStaker;   //  should be msg.sender\n      uint16 idx = pollData[_poll].ownCheckInIndex[sender];\n      bool hasStaked = false;\n      uint16 i;\n\n      // if (idx==0) {\n      //   idx = uint16(getStakerAddresses(_poll ).length);\n      //   add (_poll, \"proof\", vType, _newProof);\n      //   pollData[_poll].ownCheckInIndex[sender] = idx+1;    // would be an off-by-one but ownIndex is 1-indexed ;)\n      //   return;\n      // }\n      // proofs[idx] = bytes32(bytes20(_newProof));\n\n      // bytes32[] memory stakers = get(_poll, \"staker\");\n      // for (i=0; i<stakers.length; i++) {\n      //   if bytes32(bytes20((stakers[i]))==sender\n      //     hasStaked = true;\n      // }\n      // if (hasStaked = false)\n      //   revert ('Staker has not staked in this poll')\n      bytes32[] memory proofB32 = new bytes32[](_newProof.length);\n      for (i=0; i<_newProof.length; i++) {\n        proofB32[i]=bytes32(bytes20(_newProof[i]));\n      }\n      set ( _poll, \"proof\", sender, vType, proofB32);\n      pollData[_poll].ownCheckInIndex[sender] = idx+1;\n    }\n\n    event proofUpdated(address);\n    function addProof (string memory _poll, address _impersonatedStaker, address[] memory _newProof) public {\n      address sender = _impersonatedStaker;   //  should be msg.sender\n      bytes32[] memory proofB32 = new bytes32[](_newProof.length);\n      bytes32 hash = keccak256(abi.encodePacked(_poll, encodeFunctionName(\"proof\"), bytes20(_impersonatedStaker), vType));\n      for (uint16 i=0; i<_newProof.length; i++) {\n        proofB32[i]=bytes32(bytes20(_newProof[i]));\n      }\n      if (allTheData[hash].length>0)\n        emit proofUpdated(sender);\n      allTheData[hash]=(proofB32);\n    }\n\n    function addProofSelf (string memory _poll, address[] memory _newProof) public {\n      addProof (_poll, msg.sender, _newProof);\n    }\n\n\n    event proofsWindowClosed (string poll, address by);\n    function closeProofsWindow (string memory _poll) public {\n      // require (isElibgible(msg.sender), \"msg.sender did not stake in this poll\");\n      // require (time.now()>.pollData[_poll].eventTime.end || AllstakersSubmittedProofs(), \"Not all stakers have submitted proofs and the event is not yet over\");\n      // require (, \"\");\n      pollData[_poll].proofsWindowClosed = true;\n      emit proofsWindowClosed (_poll, msg.sender);\n\n      // NB here assuming that poll can be closed once all stakers have submitted a proof.\n      // The alternative would allow a non-attending staker to hold up refunds (by refusing to submit 'I can't make it')\n      // but this way means that early provers cannot necessarily revise rpoofs which turn out not to fit consensus\n      // This policy may be better left to differ between validators.\n    }\n\n    function reopenProofsWindow (string memory _poll) public {\n      pollData[_poll].proofsWindowClosed = false;\n    }\n\n    function isProofsWindowClosed (string memory _poll) public view returns (bool ) {\n      return pollData[_poll].proofsWindowClosed;\n    }\n\n\n    event stakeNotAccepted(address, string);\n    event disreputableStakerIgnored(address, string);\n    event staked(address, string, uint);\n    // TODO: accept one TimeRange for all stakes.\n    // TODO: accept TimeRanges per stake (need to change up the data structures!)\n    function addStake (string memory _poll, address _impersonatedStaker, uint _rep, uint _venueContribution, address _venueContributionFor ) public {\n      address sender = _impersonatedStaker;\n      if (_venueContribution>0) {\n        uint currentVC = pollData[_poll].staked[sender].venueContribution[_venueContributionFor];\n        pollData[_poll].staked[sender].venueContribution[_venueContributionFor] += _venueContribution;\n        pollData[_poll].venuePot += _venueContribution;\n      }\n      if (_rep>0) {\n        if (_rep<pollData[_poll].minStake) {\n          emit stakeNotAccepted(sender, _poll);              // aNt!p4ttrnn ###\n        } else\n        if (rep[sender]<_rep) {\n          emit disreputableStakerIgnored(sender, _poll);\n        } else {\n          rep[sender] -= _rep;\n          pollData[_poll].staked[sender].rep += _rep;\n          emit staked(sender, _poll, _rep);\n        }\n      }\n    }\n\n    function totalRepStaked (string memory _poll, address _staker) public view returns (uint) {\n      return pollData[_poll].staked[_staker].rep;\n    }\n\n    function totalVenueContribs (string memory _poll, address _staker) public view returns (uint total) {\n      // dibs[] memory dibsList = allDibsPaidBy(_staker);\n\n\n      // gives an out of bounds error (or munches it into VM..blah..blah)\n      // trying to access ...[address(0)]\n      // total = pollData[_poll].staked[_staker].venueContribution[_staker] + pollData[_poll].staked[_staker].venueContribution[address(0)];\n      total = pollData[_poll].staked[_staker].venueContribution[_staker];\n\n      // for(uint16 i = 0; i < dibsList.length; i++) {\n      //   total += dibsList[i].amount;\n      // }\n\n      return total;\n    }\n\n    // NB refundVenueStake and refundStake BOTH call this, so one will revert.\n    // TODO: Add checks into those functions\n    event emptyStakeRemoved (string _poll, address _staker);\n    function removeEmptyStake (string memory _poll, address _staker) public {\n      // uint rep=pollData[_poll].staked[msg.sender].rep;\n      // uint venueContributions = totalVenueContribs (_poll, _staker);\n      // require (rep==0 && venueContributions==0, 'Staker has non empty stake or venue contribution');\n      // delete pollData[_poll].staked[msg.sender];\n      // emit emptyStakeRemoved(_poll, msg.sender);\n    }\n\n    // NB these require returning complex type.\n    // Keep the commented code, but integrate it direct into functions which need it (and eventually use new ABI encoder on it ;)\n\n    // function allDibsPaidBy(string memory _poll, address _staker) public view returns (dibs[] memory) {\n    //   uint16 size=0;\n    //   uint16 i;\n    //   for(i = 0; i < pollData[_poll].dibsCalled.length; i++) {\n    //     if (pollData[_poll].dibsCalled[i].payer == _staker)\n    //       size++;\n    //   }\n    //   dibs[size] memory dibsList = new dibs[](size);\n    //   for(uint16 i = 0; i < pollData[_poll].dibsCalled.length; i++) {\n    //     if (pollData[_poll].dibsCalled[i].payer == _staker)\n    //       dibsList.push(pollData[_poll].dibsCalled[i]);\n    //   }\n    //   return dibsList;\n    // }\n    //\n    // function allDibsPaidFor(string memory _poll, address _recipient) public view returns (dibs[] memory) {\n    //   uint16 size=0;\n    //   uint16 i;\n    //   for(i = 0; i < pollData[_poll].dibsCalled.length; i++) {\n    //     if (pollData[_poll].dibsCalled[i].recipient == _recipient)\n    //       size++;\n    //   }\n    //   dibs[size] memory dibsList = new dibs[](size);\n    //   for(i = 0; i < pollData[_poll].dibsCalled.length; i++) {\n    //     if (pollData[_poll].dibsCalled[i].recipient == _recipient)\n    //       dibsList.push(pollData[_poll].dibsCalled[i]);\n    //   }\n    //   return dibsList;\n    // }\n\n\n    function doRefund (address to, uint amount) private returns (bool){\n      // do moneyyyzz\n      return true;\n    }\n\n    // NB proportional refunds are not vulnerable to gas exhaustion but covering refunds may be.\n    // Hence populating the 0x0 staker's stake with the refunded stakes, to maintain the size of stakes compared to venuePot.\n    event venuePotDisbursed (string _poll, address to, address by, uint amount);\n    // Any staker can call refund of excess venue pot.\n    // Disbursement to venue payer must wait until initiator has actively set venue payer (eg to self);\n    function refundVenueStakes(string memory _poll) public isStaker(_poll) {\n      address[] memory stakers = getStakerAddresses(_poll);\n      int equalShare = (pollData[_poll].venueCost) / int(stakers.length);\n      uint pot = pollData[_poll].venuePot;\n      uint spareCash =1234;\n      uint16 i =0;\n      uint16 j =0;\n\n      if (pot==0)\n        return;\n      // This would be so much simpler if you could compare whethere a possibly negative number is smaller than a positive one.\n      // and would be safer, not having a 2's complement risk. Fucking rectangulists.\n      if ((pollData[_poll].venueCost<0) || uint(pollData[_poll].venueCost) < pollData[_poll].venuePot)\n        spareCash = uint( int(pollData[_poll].venuePot) - pollData[_poll].venueCost );\n\n      // // proportional refunds:\n      // // allows recipients of gifted contributions to get a refund too\n      for (i=0; i<stakers.length; i++) {\n        uint refund = 0;\n        address[] memory recipients = new address[](2);\n        int[] memory amounts = new int[](2);\n        //   for (stakes = allDibsPaidBy(staker).concat(staker.stake[staker]).concat(staker.stake[0x0]))\n        recipients[0] = address(0);\n        recipients[1] = stakers[i];\n        // what if this loop runs out of gas? Will the totals that everything is based on still be a good starting point?\n        for (j=0; j<recipients.length; j++) {\n          amounts[j] = int( pollData[_poll].staked[stakers[i]].venueContribution[recipients[j]] );\n          refund += ( spareCash * (uint(amounts[j])) / pot );\n          pollData[_poll].staked[stakers[i]].venueContribution[recipients[j]] = 0;\n          // maintain a tally of refunded stakes in case of gas exhaustion.\n          pollData[_poll].staked[address(0)].venueContribution[address(0)] += refund;\n          if (pollData[_poll].venuePot >= refund)\n            pollData[_poll].venuePot -= refund;\n          // else\n          //   revert ('Someone emptied the pot!!');\n        }\n        if (refund>0 || uint160(bytes20(recipients[j]))>0) {  //likely fail\n        // if (refund>0 || j>0) {\n        // Temporarily catch the zero refunds which should be more\n        // if (uint160(bytes20(recipients[j]))>0) {  // failing!\n        // if (j>0) {\n          if (doRefund(stakers[i], refund))\n            emit venuePotDisbursed (_poll, stakers[i], msg.sender, refund);  // cannot get it to issue nonzero last param. Previously failed on literal zero but now works :/\n\n        }\n      }\n      pollData[_poll].staked[address(0)].venueContribution[address(0)] = 0;\n\n      //\n      // // covering refunds:\n      // // gifted contributions are used only to top up recipients'\n      // for (i=0; i<stakers.length; i++) {\n      //   int refund = 0;\n      //   int totalPaid = 0;\n      //   address[] memory recipients = new address[](2);\n      //   int[] memory amounts = new int[](2);\n      //   //   for (stakes = allDibsPaidBy(staker).concat(staker.stake[staker]).concat(staker.stake[0x0]))\n      //   recipients[0] = address(0);\n      //   recipients[1] = stakers[i];\n      //   for (j=0; j<recipients.length; j++) {\n      //     amounts[j] = int( pollData[_poll].staked[stakers[i]].venueContribution[recipients[j]] );\n      //     totalPaid += amounts[j];\n      //   }\n      //   if (totalPaid > int(equalShare))\n      //     for (j=0; j<recipients.length; j++) {\n      //       // too tired for this!!\n      //     }\n      // }\n\n\n\n      //     for (stakes = allDibsPaidFor(staker).concat(staker.stake[staker]).concat(staker.stake[0x0]))\n      //       if amount>=shortfall\n      //         totalPaid += shortfall\n      //         shorten(stake)\n      //       else\n      //         totalPaid += amount\n      //         remove(stake) including own stake!\n      //     refund(0)\n      // for stakers\n      //   if exists(stake) (ie those who were not removed in last round)\n      //     for (stakes = allDibsPaidBy(staker).concat(staker.stake[staker]).concat(staker.stake[0x0]))\n      //       if amount>=shortfall\n      //         totalPaid += shortfall\n      //         refund += rest\n      //       else\n      //         totalPaid += amount\n      //       remove(stake)\n      //     refund (refund)\n      //     emitsolidity uint16\n      //\n\n      if (pollData[_poll].staked[msg.sender].rep == 0)\n        removeEmptyStake(_poll, msg.sender);\n    }\n\n    event repRefund (address staker, uint staked, uint refunded);\n    event refundFail (address _staker);\n    function refundStake (string memory _poll, bytes32 _reveal) public {\n      // Uncomment them - this is for testing by, amount!\n      // require (pollData[_poll].staked[msg.sender].rep > 0, 'Sender has nothing staked for this poll');\n      // require (pollData[_poll].ownCheckInIndex[msg.sender] > 0, 'Sender has not submitted an attendance proof for this poll');\n      if (!validate(address(0), _poll, _reveal)) {\n        emit refundFail(msg.sender);\n        revert ('Invalid proof');\n      }\n\n      (uint num, uint denom) = multiplier();\n      uint refund = num.mul(pollData[_poll].staked[msg.sender].rep) / denom;\n      if (rep[msg.sender] + refund > maxRep())\n        refund = pollData[_poll].staked[msg.sender].rep;\n\n      pollData[_poll].staked[msg.sender].rep = 0;\n      rep[msg.sender] += refund;\n      emit repRefund (msg.sender, pollData[_poll].staked[msg.sender].rep, refund);\n      if (totalVenueContribs(_poll, msg.sender) == 0)\n        removeEmptyStake(_poll, msg.sender);\n    }\n\n\n    function emitVenueStakeRefunded (string memory _poll, address _to, address _by, uint _amount, uint8 _repeat) public  {\n      for (uint8 i=0; _repeat>0 && i<_repeat; i++) {\n        emit venuePotDisbursed (_poll, _to, _by, _amount);\n      }\n      if (_repeat==5)\n        emit venuePotDisbursed (_poll, pollData[_poll].venuePayer, _by, _amount);\n    }\n\n    function emitVenuePotRefunded (string memory _poll, address _to, address _by, uint _amount) public {\n      emit venuePotDisbursed (_poll, pollData[_poll].venuePayer, _by, _amount);\n    }\n\n    function emitrepRefunded (address _staker, uint _staked, uint _refunded) public {\n      emit repRefund (_staker, _staked, _refunded);\n    }\n\n    function emitrefundFail (address _staker) public {\n      emit refundFail (_staker);\n    }\n\n\n\n    event numberLoggerLikeImUsingFuckingJava (string, uint);\n    // cheapo validator - this one just counts how many people included you in their proof, with no attempt at making the proofs agree.\n    // currently counts votes in favour of each stakers, which will help, but doesn't flag which poroofs disagree\n    function validate(address _pollContract, string memory _poll, bytes32 _reveal) public returns (bool) {\n        // require (_pollContract==howeverYoullIdentifySelf, 'wrong Poll contract - something needs upgrading');\nreturn true;\n        address[] memory stakers = getStakerAddresses(_poll);\n        address[][] memory proofs = getproofsAsAddresses(_poll);\n        uint16 i;\n        uint16 sendersIndex;\n        bool stakerPresent;\n\n        uint8 threshold = 1 ;   //  do not set to 0 - div0 error!\n        // emit numberLoggerLikeImUsingFuckingJava('stakers',stakers.length);\n        // emit numberLoggerLikeImUsingFuckingJava('proofs',proofs.length);\n\n        // proofCounter memory pc;\n        for(i = 0; i < stakers.length; i++) {\n            // emit logStuff(\"started loop\");\n            stakerPresent = false;\n            if (stakers[i]==msg.sender)\n              sendersIndex=i;\n            for(uint j = 0; j < proofs[i].length; j++) {\n              if (proofs[i][j] == msg.sender)\n                stakerPresent = true;\n              stakerPresentIn[proofs[i][j]]++;     // increase the present count for the address who this staker marked present\n              // if this staker claims someone is here but the majority disagree, then emit disagreement;\n            }\n            // if (!stakerPresent)\n            //   impugnProof(i);\n            //   // if I am not present, emit a disagreement;\n        }\n        // if stakerPresentIn[sendersIndex] < proofs[i].length {\n        //   bePissedOff();\n        // }\n\n        // update majorities\n        // check previous disagreements\n\n        if ((stakerPresentIn[msg.sender]>=threshold) && (proofs[i].length/ stakerPresentIn[msg.sender] < 2)) {\n          return true;\n        }\n        // add reversion logic\n\n\n\n\n        // // deal with 0 < threshold < 1\n        // if(percentageThreshold>0) {\n        //   threshold = percentageThreshold*stakers.length;\n        // }\n        // if (pc.senderIsPresent && (proofs.length-pc.fakeProofs >= threshold)) {\n        //     return true;\n        // }\n        // return false;\n\n        // if (!pc.senderIsPresent)\n        //     revert('Sender did not register attendance');\n\n        // if (!pc.senderIsPresent)\n        //     emit logStuff('Sender did not register attendance');\n        // if (proofs.length-pc.fakeProofs < threshold)\n        //     emit logStuff('Not enough attendees in consensus');\n        // if (proofs.length == pc.fakeProofs)\n        //     emit logStuff('All proofs were fake');\n        // emit numberLoggerLikeImUsingFuckingJava ('fakeProofs',pc.fakeProofs);\n        // emit numberLoggerLikeImUsingFuckingJava ('proofs.length',proofs.length);\n        // return true;\n    }\n\n    function proofType() public pure returns (uint8) {\n      return vType;\n    }\n\n    function encodeFunctionName (string memory name) internal pure returns (bytes4) {\n        // TODO: cache for readability!\n        // if (\"staker\")\n        //     return\n        // if (\"proof\")\n        //     return\n        return bytes4(keccak256(bytes(name)));\n    }\n\n    // split a serialised string of addresses (as received from main contract).\n    // NB - only works in this validator - other validators will use multiple types within serialised string\n    function splitToAddresses(string memory _concatenated) internal pure returns (address[] memory result) {\n        strings.slice memory delim = \",\".toSlice();\n        strings.slice memory source = _concatenated.toSlice();\n        address[] memory parts = new address[](source.count(delim));\n\n        for(uint i = 0; i < parts.length; i++) {\n           parts[i] = source.split(delim).toString().toAddress();\n        }\n        return parts;\n\n    }\n\n    function bytesToAddress(bytes memory _bytes) public pure returns (address) {\n      address tempAddress;\n      assembly {\n          tempAddress := div(mload(add(add(_bytes, 0x20), 0)), 0x1000000000000000000000000)\n      }\n      return tempAddress;\n    }\n\n    function toString(address account) public pure returns(string memory) {\n        return toString(abi.encodePacked(account), 5);\n    }\n\n    function toString(uint256 value) public pure returns(string memory) {\n        return toString(abi.encodePacked(value), 0);\n    }\n\n    function toString(bytes32 value) public pure returns(string memory) {\n        return toString(abi.encodePacked(value), 0);\n    }\n\n    function toString(bytes memory data, uint16 len) public pure returns(string memory) {\n        bytes memory alphabet = \"0123456789abcdef\";\n        uint16 strLen = 20;  // It's 20. The length is just fucking 20.  uint16(data.length);\n        // Pretty simple if statement - why won't it work ?\n        // if (len>0) {\n        //     strLen = len;\n        // }\n\n\n        bytes memory str = new bytes(2 + strLen * 2);\n        str[0] = '0';\n        str[1] = 'x';\n        for (uint i = 0; i < strLen; i++) {\n            str[2+i*2] = alphabet[uint(uint8(data[i] >> 4))];\n            str[3+i*2] = alphabet[uint(uint8(data[i] & 0x0f))];\n        }\n        return string(str);\n    }\n\n\n    function bytes32ToBytes(bytes32 _bytes32) public pure returns (bytes memory){\n        // string memory str = string(_bytes32);\n        // TypeError: Explicit type conversion not allowed from \"bytes32\" to \"string storage pointer\"\n        bytes memory bytesArray = new bytes(32);\n        for (uint256 i; i < 32; i++) {\n            bytesArray[i] = _bytes32[i];\n        }\n        return bytesArray;\n    }\n\n    // function bytesToBytes32(bytes b, uint offset) private pure returns (bytes32) {\n    //     bytes32 out;\n\n    //     for (uint i = 0; i < 32; i++) {\n    //         out |= bytes32(b[offset + i] & 0xFF) >> (i * 8);\n    //     }\n    //     return out;\n    // }\n\n\n    function bytesToBytes32(bytes memory b) public pure returns (bytes32 bts) {\n        bytes32 i;\n        //NB size etc= 32b = 0x20b\n        assembly { i := mload(add(b, 0x20)) }\n        bts = i;\n    }\n\n    function bytes32ToString(bytes32 _bytes32) public pure returns (string memory ){\n        bytes memory bytesArray = bytes32ToBytes(_bytes32);\n        return string(bytesArray);\n    }\n\n    function bytes32ArrayToString (bytes32[] memory data) public pure returns (string memory ) {\n        bytes memory bytesString = new bytes(data.length * 32);\n        uint urlLength;\n        uint i=0;\n        for (i=0; i<data.length; i++) {\n            for (uint j=0; j<32; j++) {\n                byte char = byte(bytes32(uint(data[i]) * 2 ** (8 * j)));\n                if (char != 0) {\n                    bytesString[urlLength] = char;\n                    urlLength += 1;\n                }\n            }\n        }\n        bytes memory bytesStringTrimmed = new bytes(urlLength);\n        for (i=0; i<urlLength; i++) {\n            bytesStringTrimmed[i] = bytesString[i];\n        }\n        return string(bytesStringTrimmed);\n    }\n\n    function stringToBytes32Array(string memory source) public pure returns (bytes32[] memory result) {\n        // uint16 words = uint16( (bytes(source).length+31)/32 );\n        uint16 words = 1;\n        for(uint16 i=0; i<=words; i++) {\n          uint16 offset = 32*(i+1);\n          bytes32 word;\n          assembly {\n            word := mload(add(source, offset))\n          }\n          result[i] = word;\n        }\n        return result;\n    }\n\n    // TODO !!!\n    // function bytes32ToUint (bytes32 data) returns (uint) {\n    //     return 2;\n    // }\n\n    function bytesSplit32(bytes  memory data) public pure returns (bytes32, bytes memory ) {\n        uint8 splitAt = 32;                             // all (if variable split, pass in splitAt)\n        uint256 taillength = 0;\n        if (data.length > splitAt)\n            taillength = data.length-splitAt;\n        bytes32 temp;\n        // bytes32 head;                                   // 32b split\n        bytes memory head = new bytes(splitAt);         // variable length split\n        bytes memory tail = new bytes(taillength);\n        for(uint i=0;i<=data.length-1;i++){\n            if (i<splitAt)\n                head[i] = bytes(data)[i] ;\n            else\n                tail[i-splitAt] = bytes(data)[i] ;\n        }\n        return (bytesToBytes32(head), tail);\n    }\n\n    // calls fallback function of pollAddress, passing 4 byte encoded function name to remote contract to select method.\n    // NB future better: just get the ABI of the finished Poll conmtract, and use that!\n    // NB in sol 0.6 + fallback cannot return anything\n    // NB future optimisation : we are not using the functionality of string here, since string must have come from a bytes32\n    event CrossContractValidateBegin();\n    event CrossContractValidateEnd();\n    function crossContractCall (bytes4 fnNameHash, string  memory poll, uint256 valid, uint8 vt) public returns (bytes32[] memory) {\n    address pollContract = pollAddress;\n\n        emit CrossContractValidateBegin();\n        assembly {\n            let ptr := mload(0x40)\n            calldatacopy(ptr, 0, calldatasize)\n            let result := delegatecall(gas, pollContract, ptr, calldatasize, 0, 0)\n            let size := returndatasize\n            returndatacopy(ptr, 0, size)\n            switch result\n            case 0 { revert(ptr, size) }\n            default { return(ptr, size) }\n        }\n        emit CrossContractValidateEnd();\n    }\n\n}\n",
  "sourcePath": "/home/teide/randomCode/lunchcoin/contracts.v1/contracts/MutualAgreement.sol",
  "compiler": {
    "name": "solc",
    "version": "0.5.17+commit.d19bba13.Emscripten.clang"
  },
  "schemaVersion": "3.0.2",
  "updatedAt": "2020-07-04T14:04:08.526Z",
  "devdoc": {
    "methods": {}
  },
  "userdoc": {
    "methods": {}
  }
}