{
  "contractName": "MutualAgreement",
  "abi": [
    {
      "inputs": [],
      "payable": false,
      "stateMutability": "nonpayable",
      "type": "constructor",
      "signature": "constructor"
    },
    {
      "anonymous": false,
      "inputs": [],
      "name": "CrossContractValidateBegin",
      "type": "event",
      "signature": "0x1ff50e4650f7f1e5b26a5f5e921b803deee4a95a1b6ef46e05992b3bc1dcdb8c"
    },
    {
      "anonymous": false,
      "inputs": [],
      "name": "CrossContractValidateEnd",
      "type": "event",
      "signature": "0x8d3a809bf7de78d4f05cff7e28d114c50c5b6b828274326dec15c0119a574f81"
    },
    {
      "anonymous": false,
      "inputs": [
        {
          "indexed": false,
          "internalType": "address",
          "name": "",
          "type": "address"
        },
        {
          "indexed": false,
          "internalType": "string",
          "name": "",
          "type": "string"
        }
      ],
      "name": "disreputableStakerIgnored",
      "type": "event",
      "signature": "0x5b8a56dcf3c46c1155547d5fcd97b1a751382df7f906feb9d53f5cd53271308f"
    },
    {
      "anonymous": false,
      "inputs": [
        {
          "indexed": false,
          "internalType": "string",
          "name": "_poll",
          "type": "string"
        },
        {
          "indexed": false,
          "internalType": "address",
          "name": "_staker",
          "type": "address"
        }
      ],
      "name": "emptyStakeRemoved",
      "type": "event",
      "signature": "0xbcdb1351c7b0043b8c36c050954a8f50bd16196d7f967f2e0c7b2a17440d5979"
    },
    {
      "anonymous": false,
      "inputs": [
        {
          "indexed": false,
          "internalType": "string",
          "name": "",
          "type": "string"
        },
        {
          "indexed": false,
          "internalType": "string",
          "name": "",
          "type": "string"
        },
        {
          "indexed": false,
          "internalType": "address",
          "name": "",
          "type": "address"
        },
        {
          "indexed": false,
          "internalType": "uint8",
          "name": "",
          "type": "uint8"
        },
        {
          "indexed": false,
          "internalType": "bytes32[]",
          "name": "",
          "type": "bytes32[]"
        }
      ],
      "name": "gpResult",
      "type": "event",
      "signature": "0xd2fc72c97aeb0e8367f33ed670eff5bed73dab77cab530bd44311a95ae547398"
    },
    {
      "anonymous": false,
      "inputs": [
        {
          "indexed": false,
          "internalType": "string",
          "name": "",
          "type": "string"
        }
      ],
      "name": "logStuff",
      "type": "event",
      "signature": "0xbef39ac07ea6b8a7a08590612f317b1db2e9821fea4739345478345d853321e7"
    },
    {
      "anonymous": false,
      "inputs": [
        {
          "indexed": false,
          "internalType": "string",
          "name": "",
          "type": "string"
        }
      ],
      "name": "newPollCreated",
      "type": "event",
      "signature": "0xac34e99d8501f1cacded4cd798d4f7bf0b6b8f73b0995c9129c476b096c67ca7"
    },
    {
      "anonymous": false,
      "inputs": [
        {
          "indexed": false,
          "internalType": "string",
          "name": "",
          "type": "string"
        },
        {
          "indexed": false,
          "internalType": "uint256",
          "name": "",
          "type": "uint256"
        }
      ],
      "name": "numberLoggerLikeImUsingFuckingJava",
      "type": "event",
      "signature": "0xfed296e202df9b481ea0f4586ce8acea759915ccb7cc65f185c4249a87d1091c"
    },
    {
      "anonymous": false,
      "inputs": [
        {
          "indexed": false,
          "internalType": "address",
          "name": "",
          "type": "address"
        }
      ],
      "name": "proofUpdated",
      "type": "event",
      "signature": "0xd0adafca5f88ebee186251179caad6d29ee5ad555a79bfe4d8a00e3a87988a2b"
    },
    {
      "anonymous": false,
      "inputs": [
        {
          "indexed": false,
          "internalType": "string",
          "name": "poll",
          "type": "string"
        },
        {
          "indexed": false,
          "internalType": "address",
          "name": "by",
          "type": "address"
        }
      ],
      "name": "proofsWindowClosed",
      "type": "event",
      "signature": "0xc2b1ad619f75c5b190b6f26a4b118a5ec58ad98a0a76cef82a67099f76c03336"
    },
    {
      "anonymous": false,
      "inputs": [
        {
          "indexed": false,
          "internalType": "address",
          "name": "_staker",
          "type": "address"
        }
      ],
      "name": "refundFail",
      "type": "event",
      "signature": "0xf79d39278918f1a3dc8522bfdea96d506ed15dd2cc97156b182f5c8895ab7b71"
    },
    {
      "anonymous": false,
      "inputs": [
        {
          "indexed": false,
          "internalType": "address",
          "name": "staker",
          "type": "address"
        },
        {
          "indexed": false,
          "internalType": "uint256",
          "name": "staked",
          "type": "uint256"
        },
        {
          "indexed": false,
          "internalType": "uint256",
          "name": "refunded",
          "type": "uint256"
        }
      ],
      "name": "repRefund",
      "type": "event",
      "signature": "0x391dd8dd49c61a65c7ebe8745ea4c81bc4d5a6dd59d8bda3ba1f9a9114bf64eb"
    },
    {
      "anonymous": false,
      "inputs": [
        {
          "indexed": false,
          "internalType": "address",
          "name": "",
          "type": "address"
        },
        {
          "indexed": false,
          "internalType": "string",
          "name": "",
          "type": "string"
        }
      ],
      "name": "stakeNotAccepted",
      "type": "event",
      "signature": "0xbdaeb13301d6416e47b70f09ade9e4ae93d6bd468d3833197ea44af2e955f0fe"
    },
    {
      "anonymous": false,
      "inputs": [
        {
          "indexed": false,
          "internalType": "address",
          "name": "",
          "type": "address"
        },
        {
          "indexed": false,
          "internalType": "string",
          "name": "",
          "type": "string"
        },
        {
          "indexed": false,
          "internalType": "uint256",
          "name": "",
          "type": "uint256"
        }
      ],
      "name": "staked",
      "type": "event",
      "signature": "0x9435991b430d6fe3d331f4a4e60ab537af0083a1880199a6838e4c92a2cbe4fb"
    },
    {
      "anonymous": false,
      "inputs": [
        {
          "indexed": false,
          "internalType": "string",
          "name": "_poll",
          "type": "string"
        },
        {
          "indexed": false,
          "internalType": "address",
          "name": "to",
          "type": "address"
        },
        {
          "indexed": false,
          "internalType": "address",
          "name": "by",
          "type": "address"
        },
        {
          "indexed": false,
          "internalType": "uint256",
          "name": "amount",
          "type": "uint256"
        }
      ],
      "name": "venuePotDisbursed",
      "type": "event",
      "signature": "0x5ee9688c98e0f205ec05ae1bb4703913ce6aaffae0ed525d1e5e2303750811e7"
    },
    {
      "anonymous": false,
      "inputs": [
        {
          "indexed": false,
          "internalType": "bytes",
          "name": "",
          "type": "bytes"
        }
      ],
      "name": "whassahash",
      "type": "event",
      "signature": "0xee5443e0769176cacb5e7cebe33b561327ef2a06863e7fa72ec9be7cc2d82b60"
    },
    {
      "anonymous": false,
      "inputs": [
        {
          "indexed": false,
          "internalType": "bytes32",
          "name": "",
          "type": "bytes32"
        }
      ],
      "name": "whassakeccack",
      "type": "event",
      "signature": "0xa457a29197b7db5513e7fa40d359d53b392afa4785e7b4e899898a92798d4849"
    },
    {
      "payable": true,
      "stateMutability": "payable",
      "type": "fallback"
    },
    {
      "constant": true,
      "inputs": [
        {
          "internalType": "string",
          "name": "",
          "type": "string"
        }
      ],
      "name": "pollData",
      "outputs": [
        {
          "internalType": "address",
          "name": "initiator",
          "type": "address"
        },
        {
          "internalType": "uint256",
          "name": "minStake",
          "type": "uint256"
        },
        {
          "internalType": "int256",
          "name": "venueCost",
          "type": "int256"
        },
        {
          "internalType": "uint256",
          "name": "venuePot",
          "type": "uint256"
        },
        {
          "internalType": "address",
          "name": "venuePayer",
          "type": "address"
        },
        {
          "internalType": "uint8",
          "name": "minParticipants",
          "type": "uint8"
        },
        {
          "components": [
            {
              "internalType": "uint256",
              "name": "start",
              "type": "uint256"
            },
            {
              "internalType": "uint256",
              "name": "end",
              "type": "uint256"
            }
          ],
          "internalType": "struct MutualAgreement.TimeRange",
          "name": "eventTime",
          "type": "tuple"
        },
        {
          "internalType": "bool",
          "name": "proofsWindowClosed",
          "type": "bool"
        }
      ],
      "payable": false,
      "stateMutability": "view",
      "type": "function",
      "signature": "0x4a0f2fd7"
    },
    {
      "constant": false,
      "inputs": [],
      "name": "getValuesWhichtheFuckenConstructorShouldHaveSet",
      "outputs": [
        {
          "internalType": "uint256",
          "name": "",
          "type": "uint256"
        },
        {
          "internalType": "uint256",
          "name": "",
          "type": "uint256"
        }
      ],
      "payable": false,
      "stateMutability": "nonpayable",
      "type": "function",
      "signature": "0xba5868ba"
    },
    {
      "constant": false,
      "inputs": [
        {
          "internalType": "string",
          "name": "_poll",
          "type": "string"
        }
      ],
      "name": "initialiseDemo",
      "outputs": [],
      "payable": false,
      "stateMutability": "nonpayable",
      "type": "function",
      "signature": "0x7514d750"
    },
    {
      "constant": true,
      "inputs": [],
      "name": "multiplier",
      "outputs": [
        {
          "internalType": "uint256",
          "name": "numerator",
          "type": "uint256"
        },
        {
          "internalType": "uint256",
          "name": "denominator",
          "type": "uint256"
        }
      ],
      "payable": false,
      "stateMutability": "view",
      "type": "function",
      "signature": "0x1b3ed722"
    },
    {
      "constant": true,
      "inputs": [],
      "name": "maxRep",
      "outputs": [
        {
          "internalType": "uint256",
          "name": "maxRep",
          "type": "uint256"
        }
      ],
      "payable": false,
      "stateMutability": "view",
      "type": "function",
      "signature": "0x63039be8"
    },
    {
      "constant": false,
      "inputs": [
        {
          "internalType": "string",
          "name": "message",
          "type": "string"
        }
      ],
      "name": "doEmit",
      "outputs": [],
      "payable": false,
      "stateMutability": "nonpayable",
      "type": "function",
      "signature": "0x58666c04"
    },
    {
      "constant": true,
      "inputs": [
        {
          "internalType": "string",
          "name": "_poll",
          "type": "string"
        }
      ],
      "name": "isPoll",
      "outputs": [
        {
          "internalType": "bool",
          "name": "",
          "type": "bool"
        }
      ],
      "payable": false,
      "stateMutability": "view",
      "type": "function",
      "signature": "0x67bc5638"
    },
    {
      "constant": true,
      "inputs": [
        {
          "internalType": "string",
          "name": "_poll",
          "type": "string"
        }
      ],
      "name": "getPoll",
      "outputs": [
        {
          "internalType": "address",
          "name": "initiator",
          "type": "address"
        },
        {
          "internalType": "uint256",
          "name": "minStake",
          "type": "uint256"
        },
        {
          "internalType": "int256",
          "name": "venueCost",
          "type": "int256"
        },
        {
          "internalType": "uint256",
          "name": "venuePot",
          "type": "uint256"
        },
        {
          "internalType": "uint8",
          "name": "minParticipants",
          "type": "uint8"
        },
        {
          "internalType": "uint256",
          "name": "start",
          "type": "uint256"
        },
        {
          "internalType": "uint256",
          "name": "end",
          "type": "uint256"
        },
        {
          "internalType": "bool",
          "name": "proofsWindowClosed",
          "type": "bool"
        },
        {
          "internalType": "bytes32[5][]",
          "name": "ownCheckInIndex",
          "type": "bytes32[5][]"
        }
      ],
      "payable": false,
      "stateMutability": "view",
      "type": "function",
      "signature": "0x10a688e3"
    },
    {
      "constant": true,
      "inputs": [
        {
          "internalType": "string",
          "name": "_poll",
          "type": "string"
        }
      ],
      "name": "getPollStruct",
      "outputs": [
        {
          "components": [
            {
              "internalType": "address",
              "name": "initiator",
              "type": "address"
            },
            {
              "internalType": "uint256",
              "name": "minStake",
              "type": "uint256"
            },
            {
              "internalType": "int256",
              "name": "venueCost",
              "type": "int256"
            },
            {
              "internalType": "uint256",
              "name": "venuePot",
              "type": "uint256"
            },
            {
              "internalType": "address",
              "name": "venuePayer",
              "type": "address"
            },
            {
              "internalType": "uint8",
              "name": "minParticipants",
              "type": "uint8"
            },
            {
              "internalType": "uint8",
              "name": "participants",
              "type": "uint8"
            },
            {
              "components": [
                {
                  "internalType": "uint256",
                  "name": "start",
                  "type": "uint256"
                },
                {
                  "internalType": "uint256",
                  "name": "end",
                  "type": "uint256"
                }
              ],
              "internalType": "struct MutualAgreement.TimeRange",
              "name": "eventTime",
              "type": "tuple"
            },
            {
              "internalType": "bool",
              "name": "proofsWindowClosed",
              "type": "bool"
            }
          ],
          "internalType": "struct MutualAgreement.PollExternal",
          "name": "returnPoll",
          "type": "tuple"
        }
      ],
      "payable": false,
      "stateMutability": "view",
      "type": "function",
      "signature": "0x4665ecb4"
    },
    {
      "constant": false,
      "inputs": [
        {
          "internalType": "bytes32",
          "name": "_hash",
          "type": "bytes32"
        },
        {
          "internalType": "bytes32[]",
          "name": "_data",
          "type": "bytes32[]"
        }
      ],
      "name": "setByHash",
      "outputs": [],
      "payable": false,
      "stateMutability": "nonpayable",
      "type": "function",
      "signature": "0x6026ad9c"
    },
    {
      "constant": true,
      "inputs": [
        {
          "internalType": "bytes32",
          "name": "_hash",
          "type": "bytes32"
        }
      ],
      "name": "getByHash",
      "outputs": [
        {
          "internalType": "bytes32[]",
          "name": "",
          "type": "bytes32[]"
        }
      ],
      "payable": false,
      "stateMutability": "view",
      "type": "function",
      "signature": "0xa2dd3d47"
    },
    {
      "constant": true,
      "inputs": [
        {
          "internalType": "string",
          "name": "_poll",
          "type": "string"
        },
        {
          "internalType": "string",
          "name": "_mapName",
          "type": "string"
        }
      ],
      "name": "get",
      "outputs": [
        {
          "internalType": "bytes32[]",
          "name": "",
          "type": "bytes32[]"
        }
      ],
      "payable": false,
      "stateMutability": "view",
      "type": "function",
      "signature": "0x3e10510b"
    },
    {
      "constant": false,
      "inputs": [
        {
          "internalType": "string",
          "name": "_poll",
          "type": "string"
        },
        {
          "internalType": "string",
          "name": "_mapName",
          "type": "string"
        },
        {
          "internalType": "address",
          "name": "_stakerOrZero",
          "type": "address"
        },
        {
          "internalType": "uint8",
          "name": "_vt",
          "type": "uint8"
        },
        {
          "internalType": "bytes32[]",
          "name": "_data",
          "type": "bytes32[]"
        }
      ],
      "name": "set",
      "outputs": [],
      "payable": false,
      "stateMutability": "nonpayable",
      "type": "function",
      "signature": "0x062ffb07"
    },
    {
      "constant": false,
      "inputs": [
        {
          "internalType": "string",
          "name": "_poll",
          "type": "string"
        },
        {
          "internalType": "string",
          "name": "_mapName",
          "type": "string"
        },
        {
          "internalType": "uint8",
          "name": "_vt",
          "type": "uint8"
        },
        {
          "internalType": "string",
          "name": "data",
          "type": "string"
        }
      ],
      "name": "setString",
      "outputs": [],
      "payable": false,
      "stateMutability": "nonpayable",
      "type": "function",
      "signature": "0x2742bea8"
    },
    {
      "constant": false,
      "inputs": [
        {
          "internalType": "string",
          "name": "_poll",
          "type": "string"
        },
        {
          "internalType": "int256",
          "name": "_cost",
          "type": "int256"
        }
      ],
      "name": "setVenueCost",
      "outputs": [],
      "payable": false,
      "stateMutability": "nonpayable",
      "type": "function",
      "signature": "0x88a80f23"
    },
    {
      "constant": false,
      "inputs": [
        {
          "internalType": "string",
          "name": "_poll",
          "type": "string"
        },
        {
          "internalType": "address",
          "name": "_staker",
          "type": "address"
        },
        {
          "internalType": "uint256",
          "name": "_rep",
          "type": "uint256"
        }
      ],
      "name": "setRep",
      "outputs": [],
      "payable": false,
      "stateMutability": "nonpayable",
      "type": "function",
      "signature": "0x405a6adb"
    },
    {
      "constant": true,
      "inputs": [
        {
          "internalType": "address",
          "name": "_staker",
          "type": "address"
        }
      ],
      "name": "getRep",
      "outputs": [
        {
          "internalType": "uint256",
          "name": "",
          "type": "uint256"
        }
      ],
      "payable": false,
      "stateMutability": "view",
      "type": "function",
      "signature": "0x6a2ebc3f"
    },
    {
      "constant": false,
      "inputs": [
        {
          "internalType": "address",
          "name": "recipient",
          "type": "address"
        }
      ],
      "name": "mineRep",
      "outputs": [
        {
          "internalType": "uint256",
          "name": "newRep",
          "type": "uint256"
        }
      ],
      "payable": false,
      "stateMutability": "nonpayable",
      "type": "function",
      "signature": "0xc4a3496e"
    },
    {
      "constant": false,
      "inputs": [
        {
          "internalType": "string",
          "name": "poll",
          "type": "string"
        },
        {
          "internalType": "address",
          "name": "initiator",
          "type": "address"
        },
        {
          "internalType": "uint256",
          "name": "minStake",
          "type": "uint256"
        },
        {
          "internalType": "int256",
          "name": "venueCost",
          "type": "int256"
        },
        {
          "internalType": "address",
          "name": "venuePayer",
          "type": "address"
        },
        {
          "internalType": "uint8",
          "name": "participants",
          "type": "uint8"
        }
      ],
      "name": "createPoll",
      "outputs": [],
      "payable": false,
      "stateMutability": "nonpayable",
      "type": "function",
      "signature": "0x235ff72b"
    },
    {
      "constant": false,
      "inputs": [
        {
          "internalType": "string",
          "name": "_poll",
          "type": "string"
        },
        {
          "internalType": "address",
          "name": "_staker",
          "type": "address"
        }
      ],
      "name": "getStakersProof",
      "outputs": [
        {
          "internalType": "bytes32[]",
          "name": "",
          "type": "bytes32[]"
        }
      ],
      "payable": false,
      "stateMutability": "nonpayable",
      "type": "function",
      "signature": "0x898fa03b"
    },
    {
      "constant": false,
      "inputs": [
        {
          "internalType": "string",
          "name": "_poll",
          "type": "string"
        },
        {
          "internalType": "string",
          "name": "_mapName",
          "type": "string"
        },
        {
          "internalType": "address",
          "name": "_stakerOrZero",
          "type": "address"
        },
        {
          "internalType": "uint8",
          "name": "_vt",
          "type": "uint8"
        },
        {
          "internalType": "bytes32[]",
          "name": "data",
          "type": "bytes32[]"
        }
      ],
      "name": "getProofEmitHashesOnlyWithStaker",
      "outputs": [],
      "payable": false,
      "stateMutability": "nonpayable",
      "type": "function",
      "signature": "0x7682484d"
    },
    {
      "constant": false,
      "inputs": [
        {
          "internalType": "string",
          "name": "_poll",
          "type": "string"
        },
        {
          "internalType": "address",
          "name": "_staker",
          "type": "address"
        },
        {
          "internalType": "uint8",
          "name": "_vt",
          "type": "uint8"
        }
      ],
      "name": "addStaker",
      "outputs": [],
      "payable": false,
      "stateMutability": "nonpayable",
      "type": "function",
      "signature": "0xed3d3205"
    },
    {
      "constant": true,
      "inputs": [
        {
          "internalType": "string",
          "name": "_poll",
          "type": "string"
        }
      ],
      "name": "getStakerAddresses",
      "outputs": [
        {
          "internalType": "address[]",
          "name": "",
          "type": "address[]"
        }
      ],
      "payable": false,
      "stateMutability": "view",
      "type": "function",
      "signature": "0x5a31204c"
    },
    {
      "constant": false,
      "inputs": [
        {
          "internalType": "string",
          "name": "_poll",
          "type": "string"
        }
      ],
      "name": "getproofsAsAddresses",
      "outputs": [
        {
          "internalType": "address[][]",
          "name": "",
          "type": "address[][]"
        }
      ],
      "payable": false,
      "stateMutability": "nonpayable",
      "type": "function",
      "signature": "0x0dd990c7"
    },
    {
      "constant": false,
      "inputs": [
        {
          "internalType": "string",
          "name": "_poll",
          "type": "string"
        },
        {
          "internalType": "string",
          "name": "_mapName",
          "type": "string"
        },
        {
          "internalType": "address",
          "name": "_impersonatedStaker",
          "type": "address"
        },
        {
          "internalType": "uint8",
          "name": "_vt",
          "type": "uint8"
        },
        {
          "internalType": "bytes32[]",
          "name": "data",
          "type": "bytes32[]"
        }
      ],
      "name": "setCheckedInWithStaker",
      "outputs": [],
      "payable": false,
      "stateMutability": "nonpayable",
      "type": "function",
      "signature": "0x9478485e"
    },
    {
      "constant": false,
      "inputs": [
        {
          "internalType": "string",
          "name": "_poll",
          "type": "string"
        },
        {
          "internalType": "address",
          "name": "_impersonatedStaker",
          "type": "address"
        },
        {
          "internalType": "address[]",
          "name": "_newProof",
          "type": "address[]"
        }
      ],
      "name": "checkIn",
      "outputs": [],
      "payable": false,
      "stateMutability": "nonpayable",
      "type": "function",
      "signature": "0xbf6cd601"
    },
    {
      "constant": false,
      "inputs": [
        {
          "internalType": "string",
          "name": "_poll",
          "type": "string"
        },
        {
          "internalType": "address",
          "name": "_impersonatedStaker",
          "type": "address"
        },
        {
          "internalType": "address[]",
          "name": "_newProof",
          "type": "address[]"
        }
      ],
      "name": "addProof",
      "outputs": [],
      "payable": false,
      "stateMutability": "nonpayable",
      "type": "function",
      "signature": "0x5d8636c0"
    },
    {
      "constant": false,
      "inputs": [
        {
          "internalType": "string",
          "name": "_poll",
          "type": "string"
        },
        {
          "internalType": "address[]",
          "name": "_newProof",
          "type": "address[]"
        }
      ],
      "name": "addProofSelf",
      "outputs": [],
      "payable": false,
      "stateMutability": "nonpayable",
      "type": "function",
      "signature": "0x09421c25"
    },
    {
      "constant": false,
      "inputs": [
        {
          "internalType": "string",
          "name": "_poll",
          "type": "string"
        }
      ],
      "name": "closeProofsWindow",
      "outputs": [],
      "payable": false,
      "stateMutability": "nonpayable",
      "type": "function",
      "signature": "0x8fee464b"
    },
    {
      "constant": false,
      "inputs": [
        {
          "internalType": "string",
          "name": "_poll",
          "type": "string"
        }
      ],
      "name": "reopenProofsWindow",
      "outputs": [],
      "payable": false,
      "stateMutability": "nonpayable",
      "type": "function",
      "signature": "0xe68043df"
    },
    {
      "constant": true,
      "inputs": [
        {
          "internalType": "string",
          "name": "_poll",
          "type": "string"
        }
      ],
      "name": "isProofsWindowClosed",
      "outputs": [
        {
          "internalType": "bool",
          "name": "",
          "type": "bool"
        }
      ],
      "payable": false,
      "stateMutability": "view",
      "type": "function",
      "signature": "0x0f58bb42"
    },
    {
      "constant": false,
      "inputs": [
        {
          "internalType": "string",
          "name": "_poll",
          "type": "string"
        },
        {
          "internalType": "address",
          "name": "_impersonatedStaker",
          "type": "address"
        },
        {
          "internalType": "uint256",
          "name": "_rep",
          "type": "uint256"
        },
        {
          "internalType": "uint256",
          "name": "_venueContribution",
          "type": "uint256"
        },
        {
          "internalType": "address",
          "name": "_venueContributionFor",
          "type": "address"
        }
      ],
      "name": "addStake",
      "outputs": [],
      "payable": false,
      "stateMutability": "nonpayable",
      "type": "function",
      "signature": "0xf4602b2e"
    },
    {
      "constant": true,
      "inputs": [
        {
          "internalType": "string",
          "name": "_poll",
          "type": "string"
        },
        {
          "internalType": "address",
          "name": "_staker",
          "type": "address"
        }
      ],
      "name": "totalRepStaked",
      "outputs": [
        {
          "internalType": "uint256",
          "name": "",
          "type": "uint256"
        }
      ],
      "payable": false,
      "stateMutability": "view",
      "type": "function",
      "signature": "0xe40a42ab"
    },
    {
      "constant": true,
      "inputs": [
        {
          "internalType": "string",
          "name": "_poll",
          "type": "string"
        },
        {
          "internalType": "address",
          "name": "_staker",
          "type": "address"
        }
      ],
      "name": "totalVenueContribs",
      "outputs": [
        {
          "internalType": "uint256",
          "name": "total",
          "type": "uint256"
        }
      ],
      "payable": false,
      "stateMutability": "view",
      "type": "function",
      "signature": "0x7c34d108"
    },
    {
      "constant": false,
      "inputs": [
        {
          "internalType": "string",
          "name": "_poll",
          "type": "string"
        },
        {
          "internalType": "address",
          "name": "_staker",
          "type": "address"
        }
      ],
      "name": "removeEmptyStake",
      "outputs": [],
      "payable": false,
      "stateMutability": "nonpayable",
      "type": "function",
      "signature": "0x23e51210"
    },
    {
      "constant": false,
      "inputs": [
        {
          "internalType": "string",
          "name": "_poll",
          "type": "string"
        }
      ],
      "name": "refundVenueStakes",
      "outputs": [],
      "payable": false,
      "stateMutability": "nonpayable",
      "type": "function",
      "signature": "0x6622f2cf"
    },
    {
      "constant": false,
      "inputs": [
        {
          "internalType": "string",
          "name": "_poll",
          "type": "string"
        },
        {
          "internalType": "bytes32",
          "name": "_reveal",
          "type": "bytes32"
        }
      ],
      "name": "refundStake",
      "outputs": [],
      "payable": false,
      "stateMutability": "nonpayable",
      "type": "function",
      "signature": "0xd76db9d6"
    },
    {
      "constant": false,
      "inputs": [
        {
          "internalType": "string",
          "name": "_poll",
          "type": "string"
        },
        {
          "internalType": "address",
          "name": "_to",
          "type": "address"
        },
        {
          "internalType": "address",
          "name": "_by",
          "type": "address"
        },
        {
          "internalType": "uint256",
          "name": "_amount",
          "type": "uint256"
        },
        {
          "internalType": "uint8",
          "name": "_repeat",
          "type": "uint8"
        }
      ],
      "name": "emitVenueStakeRefunded",
      "outputs": [],
      "payable": false,
      "stateMutability": "nonpayable",
      "type": "function",
      "signature": "0xc591bb14"
    },
    {
      "constant": false,
      "inputs": [
        {
          "internalType": "string",
          "name": "_poll",
          "type": "string"
        },
        {
          "internalType": "address",
          "name": "_to",
          "type": "address"
        },
        {
          "internalType": "address",
          "name": "_by",
          "type": "address"
        },
        {
          "internalType": "uint256",
          "name": "_amount",
          "type": "uint256"
        }
      ],
      "name": "emitVenuePotRefunded",
      "outputs": [],
      "payable": false,
      "stateMutability": "nonpayable",
      "type": "function",
      "signature": "0x833b3d0e"
    },
    {
      "constant": false,
      "inputs": [
        {
          "internalType": "address",
          "name": "_staker",
          "type": "address"
        },
        {
          "internalType": "uint256",
          "name": "_staked",
          "type": "uint256"
        },
        {
          "internalType": "uint256",
          "name": "_refunded",
          "type": "uint256"
        }
      ],
      "name": "emitrepRefunded",
      "outputs": [],
      "payable": false,
      "stateMutability": "nonpayable",
      "type": "function",
      "signature": "0xbf49657a"
    },
    {
      "constant": false,
      "inputs": [
        {
          "internalType": "address",
          "name": "_staker",
          "type": "address"
        }
      ],
      "name": "emitrefundFail",
      "outputs": [],
      "payable": false,
      "stateMutability": "nonpayable",
      "type": "function",
      "signature": "0xdc0f7df3"
    },
    {
      "constant": false,
      "inputs": [
        {
          "internalType": "address",
          "name": "_pollContract",
          "type": "address"
        },
        {
          "internalType": "string",
          "name": "_poll",
          "type": "string"
        },
        {
          "internalType": "bytes32",
          "name": "_reveal",
          "type": "bytes32"
        }
      ],
      "name": "validate",
      "outputs": [
        {
          "internalType": "bool",
          "name": "",
          "type": "bool"
        }
      ],
      "payable": false,
      "stateMutability": "nonpayable",
      "type": "function",
      "signature": "0x8a9392c0"
    },
    {
      "constant": true,
      "inputs": [],
      "name": "proofType",
      "outputs": [
        {
          "internalType": "uint8",
          "name": "",
          "type": "uint8"
        }
      ],
      "payable": false,
      "stateMutability": "pure",
      "type": "function",
      "signature": "0x05af5d35"
    },
    {
      "constant": true,
      "inputs": [
        {
          "internalType": "bytes",
          "name": "_bytes",
          "type": "bytes"
        }
      ],
      "name": "bytesToAddress",
      "outputs": [
        {
          "internalType": "address",
          "name": "",
          "type": "address"
        }
      ],
      "payable": false,
      "stateMutability": "pure",
      "type": "function",
      "signature": "0x42526e4e"
    },
    {
      "constant": true,
      "inputs": [
        {
          "internalType": "address",
          "name": "account",
          "type": "address"
        }
      ],
      "name": "toString",
      "outputs": [
        {
          "internalType": "string",
          "name": "",
          "type": "string"
        }
      ],
      "payable": false,
      "stateMutability": "pure",
      "type": "function",
      "signature": "0x56ca623e"
    },
    {
      "constant": true,
      "inputs": [
        {
          "internalType": "uint256",
          "name": "value",
          "type": "uint256"
        }
      ],
      "name": "toString",
      "outputs": [
        {
          "internalType": "string",
          "name": "",
          "type": "string"
        }
      ],
      "payable": false,
      "stateMutability": "pure",
      "type": "function",
      "signature": "0x6900a3ae"
    },
    {
      "constant": true,
      "inputs": [
        {
          "internalType": "bytes",
          "name": "data",
          "type": "bytes"
        },
        {
          "internalType": "uint16",
          "name": "len",
          "type": "uint16"
        }
      ],
      "name": "toString",
      "outputs": [
        {
          "internalType": "string",
          "name": "",
          "type": "string"
        }
      ],
      "payable": false,
      "stateMutability": "pure",
      "type": "function",
      "signature": "0xa1bac85f"
    },
    {
      "constant": true,
      "inputs": [
        {
          "internalType": "bytes32",
          "name": "value",
          "type": "bytes32"
        }
      ],
      "name": "toString",
      "outputs": [
        {
          "internalType": "string",
          "name": "",
          "type": "string"
        }
      ],
      "payable": false,
      "stateMutability": "pure",
      "type": "function",
      "signature": "0xb11a19e8"
    },
    {
      "constant": true,
      "inputs": [
        {
          "internalType": "bytes32",
          "name": "_bytes32",
          "type": "bytes32"
        }
      ],
      "name": "bytes32ToBytes",
      "outputs": [
        {
          "internalType": "bytes",
          "name": "",
          "type": "bytes"
        }
      ],
      "payable": false,
      "stateMutability": "pure",
      "type": "function",
      "signature": "0x4c0999c7"
    },
    {
      "constant": true,
      "inputs": [
        {
          "internalType": "bytes",
          "name": "b",
          "type": "bytes"
        }
      ],
      "name": "bytesToBytes32",
      "outputs": [
        {
          "internalType": "bytes32",
          "name": "bts",
          "type": "bytes32"
        }
      ],
      "payable": false,
      "stateMutability": "pure",
      "type": "function",
      "signature": "0xbfe370d9"
    },
    {
      "constant": true,
      "inputs": [
        {
          "internalType": "bytes32",
          "name": "_bytes32",
          "type": "bytes32"
        }
      ],
      "name": "bytes32ToString",
      "outputs": [
        {
          "internalType": "string",
          "name": "",
          "type": "string"
        }
      ],
      "payable": false,
      "stateMutability": "pure",
      "type": "function",
      "signature": "0x9201de55"
    },
    {
      "constant": true,
      "inputs": [
        {
          "internalType": "bytes32[]",
          "name": "data",
          "type": "bytes32[]"
        }
      ],
      "name": "bytes32ArrayToString",
      "outputs": [
        {
          "internalType": "string",
          "name": "",
          "type": "string"
        }
      ],
      "payable": false,
      "stateMutability": "pure",
      "type": "function",
      "signature": "0x9cbc87a3"
    },
    {
      "constant": true,
      "inputs": [
        {
          "internalType": "string",
          "name": "source",
          "type": "string"
        }
      ],
      "name": "stringToBytes32Array",
      "outputs": [
        {
          "internalType": "bytes32[]",
          "name": "result",
          "type": "bytes32[]"
        }
      ],
      "payable": false,
      "stateMutability": "pure",
      "type": "function",
      "signature": "0x91652043"
    },
    {
      "constant": true,
      "inputs": [
        {
          "internalType": "bytes",
          "name": "data",
          "type": "bytes"
        }
      ],
      "name": "bytesSplit32",
      "outputs": [
        {
          "internalType": "bytes32",
          "name": "",
          "type": "bytes32"
        },
        {
          "internalType": "bytes",
          "name": "",
          "type": "bytes"
        }
      ],
      "payable": false,
      "stateMutability": "pure",
      "type": "function",
      "signature": "0x26a9cdf7"
    },
    {
      "constant": false,
      "inputs": [
        {
          "internalType": "bytes4",
          "name": "fnNameHash",
          "type": "bytes4"
        },
        {
          "internalType": "string",
          "name": "poll",
          "type": "string"
        },
        {
          "internalType": "uint256",
          "name": "valid",
          "type": "uint256"
        },
        {
          "internalType": "uint8",
          "name": "vt",
          "type": "uint8"
        }
      ],
      "name": "crossContractCall",
      "outputs": [
        {
          "internalType": "bytes32[]",
          "name": "",
          "type": "bytes32[]"
        }
      ],
      "payable": false,
      "stateMutability": "nonpayable",
      "type": "function",
      "signature": "0x8e3dca0b"
    }
  ],
  "bytecode": "0x60806040526107d0600b556105dc600c55600f8054600160a060020a031916739d26a8a5db7dc10689692caf8d52c912958409cf17905534801561004257600080fd5b50614b66806100526000396000f3fe60806040526004361061036d576000357c0100000000000000000000000000000000000000000000000000000000900480637514d750116101e3578063a2dd3d4711610114578063c591bb14116100b2578063e40a42ab1161008c578063e40a42ab14610a4e578063e68043df14610a6e578063ed3d320514610a8e578063f4602b2e14610aae5761036d565b8063c591bb14146109ee578063d76db9d614610a0e578063dc0f7df314610a2e5761036d565b8063bf49657a116100ee578063bf49657a1461096e578063bf6cd6011461098e578063bfe370d9146109ae578063c4a3496e146109ce5761036d565b8063a2dd3d4714610939578063b11a19e814610739578063ba5868ba146109595761036d565b80638e3dca0b116101815780639201de551161015b5780639201de55146108b95780639478485e146108d95780639cbc87a3146108f9578063a1bac85f146109195761036d565b80638e3dca0b146108595780638fee464b1461087957806391652043146108995761036d565b8063833b3d0e116101bd578063833b3d0e146107d957806388a80f23146107f9578063898fa03b146108195780638a9392c0146108395761036d565b80637514d750146107795780637682484d146107995780637c34d108146107b95761036d565b806342526e4e116102bd5780635d8636c01161025b5780636622f2cf116102355780636622f2cf146106f957806367bc5638146107195780636900a3ae146107395780636a2ebc3f146107595761036d565b80635d8636c0146106975780636026ad9c146106b757806363039be8146106d75761036d565b80634c0999c7116102975780634c0999c7146105fd57806356ca623e1461062a57806358666c041461064a5780635a31204c1461066a5761036d565b806342526e4e1461056f5780634665ecb41461059c5780634a0f2fd7146105c95761036d565b80631b3ed7221161032a57806326a9cdf71161030457806326a9cdf7146104d45780632742bea8146105025780633e10510b14610522578063405a6adb1461054f5761036d565b80631b3ed72214610471578063235ff72b1461049457806323e51210146104b45761036d565b806305af5d3514610377578063062ffb07146103a257806309421c25146103c25780630dd990c7146103e25780630f58bb421461040f57806310a688e31461043c575b610375610ace565b005b34801561038357600080fd5b5061038c610b0b565b6040516103999190614930565b60405180910390f35b3480156103ae57600080fd5b506103756103bd366004613dd4565b610b11565b3480156103ce57600080fd5b506103756103dd366004613ccf565b610c50565b3480156103ee57600080fd5b506104026103fd3660046138e2565b610c5f565b6040516103999190614764565b34801561041b57600080fd5b5061042f61042a3660046138e2565b610db2565b6040516103999190614786565b34801561044857600080fd5b5061045c6104573660046138e2565b610de1565b604051610399999897969594939291906146b9565b34801561047d57600080fd5b50610486610f3e565b604051610399929190614915565b3480156104a057600080fd5b506103756104af366004613b58565b610f46565b3480156104c057600080fd5b506103756104cf36600461395e565b610c5b565b3480156104e057600080fd5b506104f46104ef3660046138e2565b611154565b6040516103999291906147a2565b34801561050e57600080fd5b5061037561051d366004613e83565b61129c565b34801561052e57600080fd5b5061054261053d366004613d75565b611307565b6040516103999190614775565b34801561055b57600080fd5b5061037561056a366004613b0f565b61139f565b34801561057b57600080fd5b5061058f61058a3660046138e2565b6113bc565b60405161039991906145ae565b3480156105a857600080fd5b506105bc6105b73660046138e2565b6113ca565b6040516103999190614906565b3480156105d557600080fd5b506105e96105e43660046138e2565b61141a565b604051610399989796959493929190614641565b34801561060957600080fd5b5061061d6106183660046137f9565b6114a6565b60405161039991906147b0565b34801561063657600080fd5b5061061d610645366004613707565b61151b565b34801561065657600080fd5b506103756106653660046138e2565b611547565b34801561067657600080fd5b5061068a6106853660046138e2565b611581565b6040516103999190614753565b3480156106a357600080fd5b506103756106b2366004613a9d565b611653565b3480156106c357600080fd5b506103756106d2366004613817565b6117b9565b3480156106e357600080fd5b506106ec6117dd565b6040516103999190614794565b34801561070557600080fd5b506103756107143660046138e2565b6117e3565b34801561072557600080fd5b5061042f6107343660046138e2565b611e05565b34801561074557600080fd5b5061061d6107543660046137f9565b611fa5565b34801561076557600080fd5b506106ec610774366004613707565b611fd1565b34801561078557600080fd5b506103756107943660046138e2565b611fec565b3480156107a557600080fd5b506103756107b4366004613dd4565b61203d565b3480156107c557600080fd5b506106ec6107d436600461395e565b61214f565b3480156107e557600080fd5b506103756107f43660046139a5565b61219d565b34801561080557600080fd5b50610375610814366004613d2e565b6121f8565b34801561082557600080fd5b5061054261083436600461395e565b6122b2565b34801561084557600080fd5b5061042f61085436600461372d565b61242e565b34801561086557600080fd5b50610542610874366004613869565b6125dd565b34801561088557600080fd5b506103756108943660046138e2565b61263b565b3480156108a557600080fd5b506105426108b43660046138e2565b6126a0565b3480156108c557600080fd5b5061061d6108d43660046137f9565b6126f1565b3480156108e557600080fd5b506103756108f4366004613dd4565b6126fd565b34801561090557600080fd5b5061061d6109143660046137c4565b61281e565b34801561092557600080fd5b5061061d610934366004613917565b612986565b34801561094557600080fd5b506105426109543660046137f9565b612b82565b34801561096557600080fd5b50610486612be4565b34801561097a57600080fd5b50610375610989366004613792565b612bee565b34801561099a57600080fd5b506103756109a9366004613a9d565b612c2e565b3480156109ba57600080fd5b506106ec6109c93660046138e2565b612daa565b3480156109da57600080fd5b506106ec6109e9366004613707565b612db1565b3480156109fa57600080fd5b50610375610a09366004613a11565b612e42565b348015610a1a57600080fd5b50610375610a29366004613d2e565b612eff565b348015610a3a57600080fd5b50610375610a49366004613707565b6130d1565b348015610a5a57600080fd5b506106ec610a6936600461395e565b613100565b348015610a7a57600080fd5b50610375610a893660046138e2565b613152565b348015610a9a57600080fd5b50610375610aa9366004613c75565b61318a565b348015610aba57600080fd5b50610375610ac9366004613bf6565b613233565b60606000368080601f0160208091040260200160405190810160405280939291908181526020018383808284376000920191909152505050505050565b60015b90565b6000600160a060020a038416610b5b5785610b2b86613459565b84604051602001610b3e9392919061457b565b604051602081830303815290604052805190602001209050610b99565b85610b6586613459565b85606060020a0285604051602001610b809493929190614553565b6040516020818303038152906040528051906020012090505b8151604051908082528060200260200182016040528015610bc4578160200160208202803883390190505b5060008281526002602090815260409091208251610be893919291909101906134a9565b5060005b82518161ffff161015610c4757828161ffff1681518110610c0957fe5b6020026020010151600260008481526020019081526020016000208261ffff1681548110610c3357fe5b600091825260209091200155600101610bec565b50505050505050565b610c5b823383611653565b5050565b606080610c6b83611581565b905060608151604051908082528060200260200182016040528015610ca457816020015b6060815260200190600190039081610c8f5790505b509050606060005b83518161ffff161015610da657610cda86858361ffff1681518110610ccd57fe5b60200260200101516122b2565b91508151604051908082528060200260200182016040528015610d07578160200160208202803883390190505b50838261ffff1681518110610d1857fe5b602090810291909101015260005b82518161ffff161015610d9d57610d5661058a848361ffff1681518110610d4957fe5b60200260200101516114a6565b848361ffff1681518110610d6657fe5b60200260200101518261ffff1681518110610d7d57fe5b600160a060020a0390921660209283029190910190910152600101610d26565b50600101610cac565b5090925050505b919050565b6000600382604051610dc49190614503565b9081526040519081900360200190206007015460ff169050919050565b600080600080600080600080606060038a604051610dff9190614503565b90815260405190819003602001812054600160a060020a03169950600390610e28908c90614503565b908152602001604051809103902060010154975060038a604051610e4c9190614503565b908152602001604051809103902060020154965060038a604051610e709190614503565b908152602001604051809103902060030154955060038a604051610e949190614503565b9081526040519081900360200181206004015460ff74010000000000000000000000000000000000000000909104169550600390610ed3908c90614503565b9081526040519081900360200181206007015460ff169250600390610ef9908c90614503565b908152604051908190036020018120600501549450600390610f1c908c90614503565b9081526040519081900360200190206006015492509193959799909294969850565b600560049091565b610f4f86611e05565b15610f785760405160e560020a62461bcd028152600401610f6f906148f6565b60405180910390fd5b60008411610f9b5760405160e560020a62461bcd028152600401610f6f906148a6565b600160a060020a038516610ffb5733600387604051610fba9190614503565b9081526040519081900360200190208054600160a060020a039290921673ffffffffffffffffffffffffffffffffffffffff19909216919091179055611049565b8460038760405161100c9190614503565b9081526040519081900360200190208054600160a060020a039290921673ffffffffffffffffffffffffffffffffffffffff199092169190911790555b8360038760405161105a9190614503565b908152602001604051809103902060010181905550826003876040516110809190614503565b908152602001604051809103902060020181905550816003876040516110a69190614503565b908152602001604051809103902060040160006101000a815481600160a060020a030219169083600160a060020a03160217905550806003876040516110ec9190614503565b908152602001604051809103902060040160146101000a81548160ff021916908360ff1602179055507fac34e99d8501f1cacded4cd798d4f7bf0b6b8f73b0995c9129c476b096c67ca78660405161114491906147b0565b60405180910390a1505050505050565b80516000906060906020908390821015611172578160ff1685510390505b600060608360ff166040519080825280601f01601f1916602001820160405280156111a4576020820181803883390190505b5090506060836040519080825280601f01601f1916602001820160405280156111d4576020820181803883390190505b50905060005b60018951038111611285578560ff16811015611236578881815181106111fc57fe5b602001015160f860020a900460f860020a0283828151811061121a57fe5b6020010190600160f860020a031916908160001a90535061127d565b88818151811061124257fe5b602001015160f860020a900460f860020a02828760ff1683038151811061126557fe5b6020010190600160f860020a031916908160001a9053505b6001016111da565b5061128f82612daa565b9650945050505050915091565b6000846112a885613459565b846040516020016112bb9392919061457b565b6040516020818303038152906040528051906020012090506112dc826126a0565b600082815260026020908152604090912082516112ff93919291909101906134a9565b505050505050565b606060008361131584613459565b60016040516020016113299392919061457b565b60408051601f198184030181528282528051602091820120600081815260028352839020805480840286018401909452838552909450919083018282801561139057602002820191906000526020600020905b81548152602001906001019080831161137c575b50505050509150505b92915050565b600160a060020a0390911660009081526001602052604090205550565b60200151606060020a900490565b6113d26134f4565b6103e8602080830191909152619c40604083018190526060830152600360a0830181905260c083015260e0820180516501728eee95609052516501728ef01c00910152919050565b80516020818301810180516003808352938301948301949094209390528254600184015460028501549385015460048601546040805180820190915260058801548152600688015495810195909552600790960154600160a060020a0393841696929594919383169274010000000000000000000000000000000000000000900460ff90811692911688565b60408051602080825281830190925260609182919060208201818038833901905050905060005b6020811015611514578381602081106114e257fe5b1a60f860020a028282815181106114f557fe5b6020010190600160f860020a031916908160001a9053506001016114cd565b5092915050565b60606113998260405160200161153191906144d9565b6040516020818303038152906040526005612986565b7fbef39ac07ea6b8a7a08590612f317b1db2e9821fea4739345478345d853321e78160405161157691906147b0565b60405180910390a150565b6060806115c3836040518060400160405280600681526020017f7374616b65720000000000000000000000000000000000000000000000000000815250611307565b9050606081516040519080825280602002602001820160405280156115f2578160200160208202803883390190505b50905060005b82518161ffff16101561164b5761161b61058a848361ffff1681518110610d4957fe5b828261ffff168151811061162b57fe5b600160a060020a03909216602092830291909101909101526001016115f8565b509392505050565b600082905060608251604051908082528060200260200182016040528015611685578160200160208202803883390190505b5090506000856116b7604051806040016040528060058152602001600080516020614ae4833981519152815250613459565b86606060020a0260016040516020016116d39493929190614553565b60408051601f198184030181529190528051602090910120905060005b84518161ffff16101561174d57848161ffff168151811061170d57fe5b6020026020010151606060020a026bffffffffffffffffffffffff1916838261ffff168151811061173a57fe5b60209081029190910101526001016116f0565b506000818152600260205260409020541561179a577fd0adafca5f88ebee186251179caad6d29ee5ad555a79bfe4d8a00e3a87988a2b8360405161179191906145ae565b60405180910390a15b60008181526002602090815260409091208351610c47928501906134a9565b600082815260026020908152604090912082516117d8928401906134a9565b505050565b610bb890565b8060606117ef82611581565b90506000805b82518110156118385733600160a060020a031683828151811061181457fe5b6020026020010151600160a060020a0316141561183057600191505b6001016117f5565b50806118595760405160e560020a62461bcd028152600401610f6f906148b6565b606061186485611581565b90506000815160038760405161187a9190614503565b9081526020016040518091039020600201548161189357fe5b05905060006003876040516118a89190614503565b9081526040519081900360200190206003015490506104d2600080836118d357505050505050611dff565b600060038b6040516118e59190614503565b9081526020016040518091039020600201541280611944575060038a60405161190e9190614503565b90815260200160405180910390206003015460038b6040516119309190614503565b908152602001604051809103902060020154105b156119915760038a6040516119599190614503565b90815260200160405180910390206002015460038b60405161197b9190614503565b9081526020016040518091039020600301540392505b600091505b85518261ffff161015611d7a576040805160028082526060808301845260009390929190602083019080388339505060408051600280825260608083018452949550909250906020830190803883390190505090506000826000815181106119fa57fe5b6020026020010190600160a060020a03169081600160a060020a031681525050888561ffff1681518110611a2a57fe5b602002602001015182600181518110611a3f57fe5b6020026020010190600160a060020a03169081600160a060020a031681525050600093505b81518461ffff161015611cc25760038d604051611a819190614503565b908152602001604051809103902060080160008a8761ffff1681518110611aa457fe5b6020026020010151600160a060020a0316600160a060020a031681526020019081526020016000206003016000838661ffff1681518110611ae157fe5b6020026020010151600160a060020a0316600160a060020a0316815260200190815260200160002054818561ffff1681518110611b1a57fe5b60200260200101818152505086818561ffff1681518110611b3757fe5b6020026020010151870281611b4857fe5b0483019250600060038e604051611b5f9190614503565b908152602001604051809103902060080160008b8861ffff1681518110611b8257fe5b6020026020010151600160a060020a0316600160a060020a031681526020019081526020016000206003016000848761ffff1681518110611bbf57fe5b6020026020010151600160a060020a0316600160a060020a03168152602001908152602001600020819055508260038e604051611bfc9190614503565b9081526020016040518091039020600801600080600160a060020a0316600160a060020a03168152602001908152602001600020600301600080600160a060020a0316600160a060020a03168152602001908152602001600020600082825401925050819055508260038e604051611c749190614503565b90815260200160405180910390206003015410611cb7578260038e604051611c9c9190614503565b90815260405190819003602001902060030180549190910390555b600190930192611a64565b6000831180611cfe57506000828561ffff1681518110611cde57fe5b6020026020010151606060020a02606060020a9004600160a060020a0316115b15611d6c57611d24898661ffff1681518110611d1657fe5b602002602001015184613464565b15611d6c57600080516020614b048339815191528d8a8761ffff1681518110611d4957fe5b60200260200101513386604051611d6394939291906147e1565b60405180910390a15b505060019092019150611996565b600060038b604051611d8c9190614503565b90815260408051918290036020908101832060008080526008909101825282812060039081019092529190912092909255611dc8908c90614503565b90815260408051602092819003830190203360009081526008909101909252902054611df857611df88a33610c5b565b5050505050505b50505050565b600080600160a060020a0316600383604051611e219190614503565b90815260405190819003602001902054600160a060020a0316141580611e6857506000600383604051611e549190614503565b908152602001604051809103902060010154115b80611e9457506000600383604051611e809190614503565b908152602001604051809103902060020154135b80611ec057506000600383604051611eac9190614503565b908152602001604051809103902060030154115b80611f0957506000600383604051611ed89190614503565b9081526040519081900360200190206004015460ff7401000000000000000000000000000000000000000090910416115b80611f365750600382604051611f1f9190614503565b9081526040519081900360200190206007015460ff165b80611f6357506000600383604051611f4e9190614503565b90815260405190819003602001902060050154115b80611f9057506000600383604051611f7b9190614503565b90815260405190819003602001902060060154115b15611f9d57506001610dad565b506000919050565b606061139982604051602001611fbb91906144ee565b6040516020818303038152906040526000612986565b600160a060020a031660009081526001602052604090205490565b6103e8600382604051611fff9190614503565b9081526020016040518091039020600101819055506130d46003826040516120279190614503565b9081526040519081900360200190206002015550565b60008561204986613459565b858560405160200161205e949392919061450f565b6040516020818303038152906040528051906020012090507fee5443e0769176cacb5e7cebe33b561327ef2a06863e7fa72ec9be7cc2d82b60866120a187613459565b86866040516020016120b6949392919061450f565b60408051601f19818403018152908290526120d0916147b0565b60405180910390a17fa457a29197b7db5513e7fa40d359d53b392afa4785e7b4e899898a92798d4849816040516121079190614794565b60405180910390a17fd2fc72c97aeb0e8367f33ed670eff5bed73dab77cab530bd44311a95ae5473988686868661213e8b8a6122b2565b604051611144959493929190614848565b60006003836040516121619190614503565b9081526040805160209281900383019020600160a060020a03949094166000908152600890940182528084206003019091529091205492915050565b600080516020614b04833981519152846003866040516121bd9190614503565b908152604051908190036020018120600401546121ea9291600160a060020a03909116908690869061481b565b60405180910390a150505050565b8133600160a060020a03166003826040516122139190614503565b90815260405190819003602001902054600160a060020a0316148061226957506000600160a060020a031660038260405161224e9190614503565b90815260405190819003602001902054600160a060020a0316145b15612297578160038460405161227f9190614503565b908152604051908190036020019020600201556117d8565b60405160e560020a62461bcd028152600401610f6f906148d6565b60606000836122e3604051806040016040528060058152602001600080516020614ae4833981519152815250613459565b8460016040516020016122f9949392919061450f565b6040516020818303038152906040528051906020012090507fee5443e0769176cacb5e7cebe33b561327ef2a06863e7fa72ec9be7cc2d82b608461235f604051806040016040528060058152602001600080516020614ae4833981519152815250613459565b856001604051602001612375949392919061450f565b60408051601f198184030181529082905261238f916147b0565b60405180910390a17fa457a29197b7db5513e7fa40d359d53b392afa4785e7b4e899898a92798d4849816040516123c69190614794565b60405180910390a160008181526002602090815260409182902080548351818402810184019094528084529091830182828015611390576020028201919060005260206000209081548152602001906001019080831161137c57505050505091505092915050565b60016125d6565b85518461ffff16101561255c576000915033600160a060020a0316868561ffff168151811061246057fe5b6020026020010151600160a060020a0316141561247b578392505b60005b858561ffff168151811061248e57fe5b6020026020010151518110156125505733600160a060020a0316868661ffff16815181106124b857fe5b602002602001015182815181106124cb57fe5b6020026020010151600160a060020a031614156124e757600192505b600e6000878761ffff16815181106124fb57fe5b6020026020010151838151811061250e57fe5b602090810291909101810151600160a060020a03168252810191909152604001600020805461ffff198116600161ffff9283168101909216179091550161247e565b50600190930192612435565b336000908152600e602052604090205460ff821661ffff909116108015906125bb5750336000908152600e6020526040902054855160029161ffff90811691889188169081106125a857fe5b602002602001015151816125b857fe5b04105b156125cf57600196505050505050506125d6565b5050505050505b9392505050565b600f54604051606091600160a060020a0316907f1ff50e4650f7f1e5b26a5f5e921b803deee4a95a1b6ef46e05992b3bc1dcdb8c90600090a160405136600082376000803683855af43d806000843e818015612637578184f35b8184fd5b600160038260405161264d9190614503565b908152604051908190036020018120600701805492151560ff19909316929092179091557fc2b1ad619f75c5b190b6f26a4b118a5ec58ad98a0a76cef82a67099f76c033369061157690839033906147c1565b6060600160005b8161ffff168161ffff16116126ea57602060018201028481015184518190869061ffff86169081106126d557fe5b602090810291909101015250506001016126a7565b5050919050565b6060806125d6836114a6565b60008561270986613459565b858560405160200161271e949392919061450f565b6040516020818303038152906040528051906020012090507fee5443e0769176cacb5e7cebe33b561327ef2a06863e7fa72ec9be7cc2d82b608661276187613459565b8686604051602001612776949392919061450f565b60408051601f1981840301815290829052612790916147b0565b60405180910390a17fa457a29197b7db5513e7fa40d359d53b392afa4785e7b4e899898a92798d4849816040516127c79190614794565b60405180910390a1600081815260026020908152604090912083516127ee928501906134a9565b507fd2fc72c97aeb0e8367f33ed670eff5bed73dab77cab530bd44311a95ae5473988686868661213e8b8a6122b2565b60608082516020026040519080825280601f01601f191660200182016040528015612850576020820181803883390190505b5090506000805b84518110156128f45760005b60208110156128eb5760008160080260020a87848151811061288157fe5b60209081029190910101510290507fff000000000000000000000000000000000000000000000000000000000000008116156128e257808585815181106128c457fe5b6020010190600160f860020a031916908160001a9053506001840193505b50600101612863565b50600101612857565b6060826040519080825280601f01601f191660200182016040528015612921576020820181803883390190505b509050600091505b8282101561297d5783828151811061293d57fe5b602001015160f860020a900460f860020a0281838151811061295b57fe5b6020010190600160f860020a031916908160001a905350600190910190612929565b95945050505050565b604080518082018252601081527f303132333435363738396162636465660000000000000000000000000000000060208201528151602a808252606082810190945260149184916020820181803883390190505090507f300000000000000000000000000000000000000000000000000000000000000081600081518110612a0a57fe5b6020010190600160f860020a031916908160001a9053507f780000000000000000000000000000000000000000000000000000000000000081600181518110612a4f57fe5b6020010190600160f860020a031916908160001a90535060005b8261ffff16811015612b7857836004888381518110612a8457fe5b602001015160f860020a900460f860020a02600160f860020a031916908060020a820491505060f860020a900460ff1681518110612abe57fe5b602001015160f860020a900460f860020a02828260020260020181518110612ae257fe5b6020010190600160f860020a031916908160001a90535083878281518110612b0657fe5b602001015160f860020a900460f860020a02600f60f860020a021660f860020a900460ff1681518110612b3557fe5b602001015160f860020a900460f860020a02828260020260030181518110612b5957fe5b6020010190600160f860020a031916908160001a905350600101612a69565b5095945050505050565b600081815260026020908152604091829020805483518184028101840190945280845260609392830182828015612bd857602002820191906000526020600020905b815481526020019060010190808311612bc4575b50505050509050919050565b600b54600c549091565b7f391dd8dd49c61a65c7ebe8745ea4c81bc4d5a6dd59d8bda3ba1f9a9114bf64eb838383604051612c2193929190614745565b60405180910390a1505050565b60008290506000600385604051612c459190614503565b9081526040805160209281900383018120600160a060020a038616600090815260099091018452828120548751808452808602840190950190935261ffff9092169350909182916060918015612ca5578160200160208202803883390190505b509050600091505b85518261ffff161015612d0d57858261ffff1681518110612cca57fe5b6020026020010151606060020a026bffffffffffffffffffffffff1916818361ffff1681518110612cf757fe5b6020908102919091010152600190910190612cad565b612d3e88604051806040016040528060058152602001600080516020614ae483398151915281525087600185610b11565b83600101600389604051612d529190614503565b9081526020016040518091039020600901600087600160a060020a0316600160a060020a0316815260200190815260200160002060006101000a81548161ffff021916908361ffff1602179055505050505050505050565b6020015190565b600160a060020a03811660009081526008602052604081205460ff1615612ddb5750600c54612e03565b50600160a060020a0381166000908152600860205260409020805460ff19166001179055600b545b600160a060020a0382166000908152600160205260409020548110611f9d57600160a060020a0382166000908152600160205260409020819055610dad565b60005b60008260ff16118015612e5d57508160ff168160ff16105b15612e9557600080516020614b0483398151915286868686604051612e85949392919061481b565b60405180910390a1600101612e45565b508060ff1660051415612ef857600080516020614b0483398151915285600387604051612ec29190614503565b90815260405190819003602001812060040154612eef9291600160a060020a03909116908790879061481b565b60405180910390a15b5050505050565b612f0b6000838361242e565b612f61577ff79d39278918f1a3dc8522bfdea96d506ed15dd2cc97156b182f5c8895ab7b7133604051612f3e91906145bc565b60405180910390a160405160e560020a62461bcd028152600401610f6f906148e6565b600080612f6c610f3e565b91509150600081612faf600387604051612f869190614503565b90815260408051602092819003830190203360009081526008909101909252902054859061346c565b81612fb657fe5b049050612fc16117dd565b336000908152600160205260409020548201111561300e57600385604051612fe99190614503565b9081526040805160209281900383019020336000908152600890910190925290205490505b60006003866040516130209190614503565b90815260408051918290036020908101832033600081815260089092018352838220959095556001909152208054840190557f391dd8dd49c61a65c7ebe8745ea4c81bc4d5a6dd59d8bda3ba1f9a9114bf64eb9190600390613083908990614503565b908152604080519182900360209081018320336000908152600890910190915220546130b1929185906145ca565b60405180910390a16130c3853361214f565b612ef857612ef88533610c5b565b7ff79d39278918f1a3dc8522bfdea96d506ed15dd2cc97156b182f5c8895ab7b718160405161157691906145ae565b60006003836040516131129190614503565b9081526020016040518091039020600801600083600160a060020a0316600160a060020a0316815260200190815260200160002060000154905092915050565b60006003826040516131649190614503565b908152604051908190036020019020600701805491151560ff1990921691909117905550565b6000836131cb6040518060400160405280600681526020017f7374616b65720000000000000000000000000000000000000000000000000000815250613459565b836040516020016131de9392919061457b565b60408051808303601f1901815291815281516020928301206000908152600283529081208054600181018255908252919020606060020a949094026bffffffffffffffffffffffff1916930192909255505050565b83821561330657600060038760405161324c9190614503565b908152604080519182900360209081018320600160a060020a0380871660009081526008909201835283822090881682526003908101909252919091205492508591613299908a90614503565b9081526040805160209281900383018120600160a060020a03878116600090815260089092018552838220908916825260039081019094529190912080549390930190925585916132eb908a90614503565b90815260405190819003602001902060030180549091019055505b83156112ff5760038660405161331c9190614503565b908152602001604051809103902060010154841015613373577fbdaeb13301d6416e47b70f09ade9e4ae93d6bd468d3833197ea44af2e955f0fe81876040516133669291906145f2565b60405180910390a16112ff565b600160a060020a0381166000908152600160205260409020548411156133c4577f5b8a56dcf3c46c1155547d5fcd97b1a751382df7f906feb9d53f5cd53271308f81876040516133669291906145f2565b600160a060020a03811660009081526001602052604090819020805486900390555184906003906133f6908990614503565b908152604080519182900360209081018320600160a060020a038616600090815260089091019091522080549092019091557f9435991b430d6fe3d331f4a4e60ab537af0083a1880199a6838e4c92a2cbe4fb9061114490839089908890614612565b805160209091012090565b600192915050565b60008261347b57506000611399565b8282028284828161348857fe5b04146125d65760405160e560020a62461bcd028152600401610f6f906148c6565b8280548282559060005260206000209081019282156134e4579160200282015b828111156134e45782518255916020019190600101906134c9565b506134f092915061355e565b5090565b6040518061012001604052806000600160a060020a031681526020016000815260200160008152602001600081526020016000600160a060020a03168152602001600060ff168152602001600060ff168152602001613551613578565b8152600060209091015290565b610b0e91905b808211156134f05760008155600101613564565b604051806040016040528060008152602001600081525090565b803561139981614aa8565b600082601f8301126135ae57600080fd5b81356135c16135bc82614965565b61493e565b915081818352602084019350602081019050838560208402820111156135e657600080fd5b60005b8381101561361257816135fc8882613592565b84525060209283019291909101906001016135e9565b5050505092915050565b600082601f83011261362d57600080fd5b813561363b6135bc82614965565b9150818183526020840193506020810190508385602084028201111561366057600080fd5b60005b838110156136125781613676888261368c565b8452506020928301929190910190600101613663565b803561139981614abf565b803561139981614ac8565b600082601f8301126136b357600080fd5b81356136c16135bc82614986565b915080825260208301602083018583830111156136dd57600080fd5b6136e8838284614a38565b50505092915050565b803561139981614ad1565b803561139981614ada565b60006020828403121561371957600080fd5b60006137258484613592565b949350505050565b60008060006060848603121561374257600080fd5b600061374e8686613592565b935050602084013567ffffffffffffffff81111561376b57600080fd5b613777868287016136a2565b92505060406137888682870161368c565b9150509250925092565b6000806000606084860312156137a757600080fd5b60006137b38686613592565b93505060206137778682870161368c565b6000602082840312156137d657600080fd5b813567ffffffffffffffff8111156137ed57600080fd5b6137258482850161361c565b60006020828403121561380b57600080fd5b6000613725848461368c565b6000806040838503121561382a57600080fd5b6000613836858561368c565b925050602083013567ffffffffffffffff81111561385357600080fd5b61385f8582860161361c565b9150509250929050565b6000806000806080858703121561387f57600080fd5b600061388b8787613697565b945050602085013567ffffffffffffffff8111156138a857600080fd5b6138b4878288016136a2565b93505060406138c58782880161368c565b92505060606138d6878288016136fc565b91505092959194509250565b6000602082840312156138f457600080fd5b813567ffffffffffffffff81111561390b57600080fd5b613725848285016136a2565b6000806040838503121561392a57600080fd5b823567ffffffffffffffff81111561394157600080fd5b61394d858286016136a2565b925050602061385f858286016136f1565b6000806040838503121561397157600080fd5b823567ffffffffffffffff81111561398857600080fd5b613994858286016136a2565b925050602061385f85828601613592565b600080600080608085870312156139bb57600080fd5b843567ffffffffffffffff8111156139d257600080fd5b6139de878288016136a2565b94505060206139ef87828801613592565b9350506040613a0087828801613592565b92505060606138d68782880161368c565b600080600080600060a08688031215613a2957600080fd5b853567ffffffffffffffff811115613a4057600080fd5b613a4c888289016136a2565b9550506020613a5d88828901613592565b9450506040613a6e88828901613592565b9350506060613a7f8882890161368c565b9250506080613a90888289016136fc565b9150509295509295909350565b600080600060608486031215613ab257600080fd5b833567ffffffffffffffff811115613ac957600080fd5b613ad5868287016136a2565b9350506020613ae686828701613592565b925050604084013567ffffffffffffffff811115613b0357600080fd5b6137888682870161359d565b600080600060608486031215613b2457600080fd5b833567ffffffffffffffff811115613b3b57600080fd5b613b47868287016136a2565b935050602061377786828701613592565b60008060008060008060c08789031215613b7157600080fd5b863567ffffffffffffffff811115613b8857600080fd5b613b9489828a016136a2565b9650506020613ba589828a01613592565b9550506040613bb689828a0161368c565b9450506060613bc789828a0161368c565b9350506080613bd889828a01613592565b92505060a0613be989828a016136fc565b9150509295509295509295565b600080600080600060a08688031215613c0e57600080fd5b853567ffffffffffffffff811115613c2557600080fd5b613c31888289016136a2565b9550506020613c4288828901613592565b9450506040613c538882890161368c565b9350506060613c648882890161368c565b9250506080613a9088828901613592565b600080600060608486031215613c8a57600080fd5b833567ffffffffffffffff811115613ca157600080fd5b613cad868287016136a2565b9350506020613cbe86828701613592565b9250506040613788868287016136fc565b60008060408385031215613ce257600080fd5b823567ffffffffffffffff811115613cf957600080fd5b613d05858286016136a2565b925050602083013567ffffffffffffffff811115613d2257600080fd5b61385f8582860161359d565b60008060408385031215613d4157600080fd5b823567ffffffffffffffff811115613d5857600080fd5b613d64858286016136a2565b925050602061385f8582860161368c565b60008060408385031215613d8857600080fd5b823567ffffffffffffffff811115613d9f57600080fd5b613dab858286016136a2565b925050602083013567ffffffffffffffff811115613dc857600080fd5b61385f858286016136a2565b600080600080600060a08688031215613dec57600080fd5b853567ffffffffffffffff811115613e0357600080fd5b613e0f888289016136a2565b955050602086013567ffffffffffffffff811115613e2c57600080fd5b613e38888289016136a2565b9450506040613e4988828901613592565b9350506060613e5a888289016136fc565b925050608086013567ffffffffffffffff811115613e7757600080fd5b613a908882890161361c565b60008060008060808587031215613e9957600080fd5b843567ffffffffffffffff811115613eb057600080fd5b613ebc878288016136a2565b945050602085013567ffffffffffffffff811115613ed957600080fd5b613ee5878288016136a2565b9350506040613ef6878288016136fc565b925050606085013567ffffffffffffffff811115613f1357600080fd5b6138d6878288016136a2565b6000613f2b8383613f6e565b505060200190565b60006125d68383613fe1565b6000613f4b83836140eb565b505060a00190565b6000613f2b838361419f565b613f6881614a27565b82525050565b613f68816149c7565b613f68613f83826149c7565b614a70565b6000613f93826149b4565b613f9d81856149be565b9350613fa8836149ae565b8060005b83811015613fd6578151613fc08882613f1f565b9750613fcb836149ae565b925050600101613fac565b509495945050505050565b6000613fec826149b4565b613ff681856149be565b9350614001836149ae565b8060005b83811015613fd65781516140198882613f1f565b9750614024836149ae565b925050600101614005565b600061403a826149b4565b61404481856149be565b935083602082028501614056856149ae565b8060005b8581101561409057848403895281516140738582613f33565b945061407e836149ae565b60209a909a019992505060010161405a565b5091979650505050505050565b60006140a8826149b4565b6140b281856149be565b93506140bd836149ae565b8060005b83811015613fd65781516140d58882613f3f565b97506140e0836149ae565b9250506001016140c1565b6140f4816149b8565b6140fe8184610dad565b925061410982610b0e565b8060005b838110156112ff5781516141218782613f53565b965061412c836149ae565b92505060010161410d565b6000614142826149b4565b61414c81856149be565b9350614157836149ae565b8060005b83811015613fd657815161416f8882613f53565b975061417a836149ae565b92505060010161415b565b613f68816149d2565b613f6861419a826149d7565b610b0e565b613f6881610b0e565b613f6861419a82610b0e565b613f6861419a826149e9565b60006141cb826149b4565b6141d581856149be565b93506141e5818560208601614a44565b6141ee81614a8c565b9093019392505050565b6000614203826149b4565b61420d8185610dad565b935061421d818560208601614a44565b9290920192915050565b60006142346014836149be565b7f6d696e5374616b65206d75737420626520736574000000000000000000000000815260200192915050565b600061426d6034836149be565b7f46756e6374696f6e206d6179206f6e6c792062652063616c6c6564206279206181527f207374616b6572206f6e207468697320706f6c6c000000000000000000000000602082015260400192915050565b60006142cc6021836149be565b7f536166654d6174683a206d756c7469706c69636174696f6e206f766572666c6f81527f7700000000000000000000000000000000000000000000000000000000000000602082015260400192915050565b600061432b6032836149be565b7f56656e756520636f7374206d6179206f6e6c792062652073657420627920696e81527f697461746f72206f662074686520706f6c6c0000000000000000000000000000602082015260400192915050565b600061438a600d836149be565b7f496e76616c69642070726f6f6600000000000000000000000000000000000000815260200192915050565b60006143c36014836149be565b7f506f6c6c2065786973747320616c72656164792e000000000000000000000000815260200192915050565b80516101408301906144018482613f6e565b506020820151614414602085018261419f565b506040820151614427604085018261419f565b50606082015161443a606085018261419f565b50608082015161444d6080850182613f6e565b5060a082015161446060a08501826144bf565b5060c082015161447360c08501826144bf565b5060e082015161448660e085018261449b565b50610100820151611dff610120850182614185565b805160408301906144ac848261419f565b506020820151611dff602085018261419f565b613f6881614a21565b613f686144d482614a21565b614a81565b60006144e58284613f77565b50601401919050565b60006144fa82846141a8565b50602001919050565b60006125d682846141f8565b600061451b82876141f8565b915061452782866141b4565b6004820191506145378285613f77565b60148201915061454782846144c8565b50600101949350505050565b600061455f82876141f8565b915061456b82866141b4565b600482019150614537828561418e565b600061458782866141f8565b915061459382856141b4565b6004820191506145a382846144c8565b506001019392505050565b602081016113998284613f6e565b602081016113998284613f5f565b606081016145d88286613f5f565b6145e5602083018561419f565b613725604083018461419f565b604081016146008285613f6e565b818103602083015261372581846141c0565b606081016146208286613f6e565b818103602083015261463281856141c0565b9050613725604083018461419f565b6101208101614650828b613f6e565b61465d602083018a61419f565b61466a604083018961419f565b614677606083018861419f565b6146846080830187613f6e565b61469160a08301866144bf565b61469e60c083018561449b565b6146ac610100830184614185565b9998505050505050505050565b61012081016146c8828c613f6e565b6146d5602083018b61419f565b6146e2604083018a61419f565b6146ef606083018961419f565b6146fc60808301886144bf565b61470960a083018761419f565b61471660c083018661419f565b61472360e0830185614185565b818103610100830152614736818461409d565b9b9a5050505050505050505050565b606081016145d88286613f6e565b602080825281016125d68184613f88565b602080825281016125d6818461402f565b602080825281016125d68184614137565b602081016113998284614185565b60208101611399828461419f565b60408101614600828561419f565b602080825281016125d681846141c0565b604080825281016147d281856141c0565b90506125d66020830184613f5f565b608080825281016147f281876141c0565b90506148016020830186613f6e565b61480e6040830185613f5f565b61297d606083018461419f565b6080808252810161482c81876141c0565b905061483b6020830186613f6e565b61480e6040830185613f6e565b60a0808252810161485981886141c0565b9050818103602083015261486d81876141c0565b905061487c6040830186613f6e565b61488960608301856144bf565b818103608083015261489b8184614137565b979650505050505050565b6020808252810161139981614227565b6020808252810161139981614260565b60208082528101611399816142bf565b602080825281016113998161431e565b602080825281016113998161437d565b60208082528101611399816143b6565b610140810161139982846143ef565b60408101614923828561419f565b6125d6602083018461419f565b6020810161139982846144bf565b60405181810167ffffffffffffffff8111828210171561495d57600080fd5b604052919050565b600067ffffffffffffffff82111561497c57600080fd5b5060209081020190565b600067ffffffffffffffff82111561499d57600080fd5b506020601f91909101601f19160190565b60200190565b5190565b50600590565b90815260200190565b600061139982614a15565b151590565b6bffffffffffffffffffffffff191690565b7fffffffff000000000000000000000000000000000000000000000000000000001690565b61ffff1690565b600160a060020a031690565b60ff1690565b6000611399826000611399826149c7565b82818337506000910152565b60005b83811015614a5f578181015183820152602001614a47565b83811115611dff5750506000910152565b600061139982600061139982614a9f565b600061139982614a96565b601f01601f191690565b60f860020a0290565b606060020a0290565b614ab1816149c7565b8114614abc57600080fd5b50565b614ab181610b0e565b614ab1816149e9565b614ab181614a0e565b614ab181614a2156fe70726f6f660000000000000000000000000000000000000000000000000000005ee9688c98e0f205ec05ae1bb4703913ce6aaffae0ed525d1e5e2303750811e7a365627a7a72315820418ec144d7affb67d4a3d1b95a66ab8cebfa5962a6d45d3e600ac5ab9aa5ba956c6578706572696d656e74616cf564736f6c63430005110040",
  "source": "pragma solidity ^0.5.7;\npragma experimental ABIEncoderV2;\n\nimport \"./strings.sol\";\nimport \"./stringCasting.sol\";\n// import \"./BytesLib.sol\";\nimport \"./SafeMath.sol\";\n\n/* Lunchcoin validator contract - mutual agreement */\ncontract MutualAgreement {\n    // Common storage structure for ALL contacts using this storage.\n    // _, __, __ , etc are unused in this contract, but must remain to occupy their slots.\n\n    address owner;  // is set by TokenStorage.. but retain types and order.\n\n    struct TimeRange {\n      uint start;\n      uint end;\n    }\n\n    struct Stake {\n      uint rep;\n      TimeRange[] available;\n      uint availabilityExpires;\n      mapping (address => uint) venueContribution;\n    }\n\n    struct Dibs {\n      address payer;\n      address recipient;\n      uint amount;\n    }\n\n    struct Poll {\n      address initiator;\n      uint minStake;\n      int venueCost;\n      uint venuePot;\n      address venuePayer;\n      uint8 minParticipants;\n      TimeRange eventTime;\n      bool proofsWindowClosed;\n      mapping (address => Stake) staked;\n      mapping (address => uint16) ownCheckInIndex;           // 1-indexed: ownCheckInIndex[s]==0 => nothing there.\n      Dibs[] dibsCalled;\n    }\n\n\n    struct PollExternal {\n      address initiator;\n      uint minStake;\n      int venueCost;\n      uint venuePot;\n      address venuePayer;\n      uint8 minParticipants;\n      uint8 participants;\n      TimeRange eventTime;\n      bool proofsWindowClosed;\n      // NB external view of Poll can never correctly represent ownCheckInIndex (a mapping to a dynamic array).\n      // Need to either make it indicative, or fixed size.\n\n      // getting arrays with web3 is weird. Possibly claims ABI error?\n      // bytes32[5][] cantremember;\n      // address[] provers;\n      // dibs[] dibsCalled;\n    }\n\n    // shared across contracts\n    mapping (address => uint) rep;\n    mapping (bytes32 => bytes32[]) allTheData;\n    mapping (string => Poll) public pollData;\n    mapping (bytes32 => bool) resultsCache;\n\n    // used only in Poll\n    mapping(uint8 => address) internal __validators;\n    mapping(uint8 => string) internal __validatorNames;\n    mapping(address => uint) internal __cashBalance;\n    mapping(address => bool) internal stakerKnown;      // will move to Poll\n    mapping(address => bool) internal isCurrentMiner;      // will move to Poll\n    address[] knownMiners;\n    uint initialRep = 2000;      // will move to Poll\n    uint topupRep = 1500;        // will move to Poll\n    address __selfAddy ;\n\n\n    // unused - previously for Storage Proxy\n    //    mapping (address => bool) internal _allowedAccess;\n\n    // used only in Validators\n    mapping (address => uint16) stakerPresentIn;\n\n      // used for testing only - will be deleted.\n      address pollAddress = 0x9D26a8a5Db7dC10689692caF8d52C912958409CF;\n\n    // constants: Do not use space in storage.\n    uint8 constant vType=1;\n    string constant vDesc = \"mutual agreement\";\n        // delete me!\n\n    struct proofCounter {\n        bool fakeProof;\n        int8 duplicateProofs;\n        uint8 fakeProofs;\n        bool senderIsPresent;\n    }\n\n\n    using strings for *;\n    using stringcast for string;\n    using SafeMath for int;\n    using SafeMath for uint;\n\n    function () payable external {\n        _fallback();\n    }\n\n    // function() external payable {\n    //     // NB sol 0.6+ better syntax for calldata arrays : https://solidity.readthedocs.io/en/v0.6.0/types.html#array-slices\n    //     bytes memory input = msg.data;\n    //\n    //     // TODO: This is V.0 accepting a string (really a bytes32) of EXACTLY 32 bytes, eg a doodle poll without the https:// ;)\n    //     bytes32 __ownAdress;  // NB assuming 32b rather than 20b for calldata loose packing. Remember to get rid of this line when optimising!\n    //     bytes memory usefulData;\n    //     bytes32 poll32;\n    //     bytes memory __reveal;\n    //     // demo result! (we don;t need more th     // will move to Pollan bool really ;)\n    //     uint256 valid = 7331;\n    //\n    //     (__ownAdress, usefulData) = (bytesSplit32(input));\n    //     (poll32, __reveal) = (bytesSplit32(usefulData));\n    //\n    //     // NB other validators will need to additionally retrieve reveal data from msg.data\n    //     bytes32[] memory stakers = crossContractCall (encodeFunctionName(\"staker\"), bytes32ToString(poll32), valid, vType);\n    //     bytes32[] memory proofs = crossContractCall (encodeFunctionName(\"proof\"), bytes32ToString(poll32), valid, vType);\n    //\n    // }\n\n    constructor () public {\n      uint initialRep = 2000;      // will move to Poll\n      uint topupRep = 1500;       // will move to Poll\n    }\n\nfunction getValuesWhichtheFuckenConstructorShouldHaveSet () public returns (uint, uint) {\n  return (initialRep, topupRep);\n}\n\n    function initialiseDemo (string memory _poll) public {\n\n      pollData[_poll].minStake = 1000;\n      pollData[_poll].venueCost = 12500;\n      // pollData[_poll].staked[msg.sender].rep = 1;\n      // pollData[_poll].staked[msg.sender].venueContribution =\n      // pollData[_poll].staked[msg.sender].venueContribution[msg.sender] = 15000;\n    }\n\n    function _fallback() internal {\n        bytes memory input = msg.data;\n\n    }\n\n    function multiplier() public view returns (uint numerator, uint denominator) {\n      return (5,4);\n    }\n\n    function maxRep() public view returns (uint maxRep) {\n      return (3000);\n    }\n\n    modifier isMiner() {\n      if (isCurrentMiner[msg.sender])\n        _;\n      else\n        revert ('Not authorised to mine rep');\n    }\n\n\n    modifier isInitiator(string memory _poll) {\n      if (pollData[_poll].initiator == msg.sender || pollData[_poll].initiator == address(0))\n        _;\n      else\n        revert ('Venue cost may only be set by initator of the poll');\n    }\n\n    event logStuff (string);\n    modifier isStaker(string memory _poll) {\n      address[] memory stakers = getStakerAddresses(_poll);\n      bool senderIsPresent;\n\n      for(uint i = 0; i < stakers.length; i++) {\n        if (stakers[i] == msg.sender) {\n          senderIsPresent = true;\n        }\n      }\n      require(senderIsPresent, \"Function may only be called by a staker on this poll\");\n      _;\n    }\n\n    function doEmit (string memory message) public {\n      emit logStuff (message);\n    }\n\n    function isPoll(string memory _poll) public view returns (bool) {\n      if (\n        pollData[_poll].initiator!=address(0)\n        || pollData[_poll].minStake >0\n        || pollData[_poll].venueCost >0\n        || pollData[_poll].venuePot >0\n        || pollData[_poll].minParticipants >0\n        || pollData[_poll].proofsWindowClosed\n        || pollData[_poll].eventTime.start >0\n        || pollData[_poll].eventTime.end > 0\n      ) return true;\n      return false;\n    }\n\n    function getPoll(string memory _poll) public view returns (\n      address initiator,\n      uint minStake,\n      // uint venueContribution,\n      int venueCost,\n      uint venuePot,\n      uint8 minParticipants,\n      uint start,\n      uint end,\n      bool proofsWindowClosed,\n      // dibs[] memory dibsCalled,\n      bytes32[5][] memory ownCheckInIndex ) {\n\n      initiator = pollData[_poll].initiator;\n      minStake = pollData[_poll].minStake;\n      venueCost = pollData[_poll].venueCost;\n      venuePot = pollData[_poll].venuePot;\n      minParticipants = pollData[_poll].minParticipants;\n      proofsWindowClosed = pollData[_poll].proofsWindowClosed;\n      start = pollData[_poll].eventTime.start;\n      end = pollData[_poll].eventTime.end;\n      // start = 1591535900000;\n      // end = 1591536000000;\n      // dibsCalled = pollData[_poll].dibsCalled;\n      // stake = pollData[_poll].staked[_staker].rep;\n      // venueContribution = pollData[_poll].staked[_staker].venueContribution[_staker];\n\n      return (initiator, minStake, venueCost, venuePot, minParticipants, start, end, proofsWindowClosed, ownCheckInIndex);\n    }\n\n    function getPollStruct(string memory _poll) public view returns (PollExternal memory returnPoll) {\n\n      // bytes32[5][] ownCheckInIndex;\n      // address[] provers;\n      // dibs[] dibsCalled;\n\n        returnPoll.minStake = 1000;\n        returnPoll.venueCost = 40000;\n        returnPoll.venuePot = 40000;\n        returnPoll.minParticipants = 3;\n        returnPoll.participants = 3;\n        returnPoll.eventTime.start = 1591535900000;\n        returnPoll.eventTime.end = 1591536000000;\n      return returnPoll;\n    }\n\n    function setByHash (bytes32 _hash, bytes32[] memory _data) public {\n      allTheData[_hash] = _data;\n    }\n\n    function getByHash (bytes32 _hash) public view returns (bytes32[] memory) {\n      return (allTheData[_hash]);\n    }\n\n    function get (string memory _poll, string memory _mapName) public view returns (bytes32[] memory) {\n        bytes32 hash = keccak256(abi.encodePacked(_poll, encodeFunctionName(_mapName), vType));\n        return (allTheData[hash]);\n    }\n\n    function set (string memory _poll, string memory _mapName, address _stakerOrZero, uint8 _vt, bytes32[] memory _data) public {\n      bytes32 hash;\n      if (_stakerOrZero == address(0)) {\n        hash = keccak256(abi.encodePacked(_poll, encodeFunctionName(_mapName), _vt));\n      } else {\n        hash = keccak256(abi.encodePacked(_poll, encodeFunctionName(_mapName), bytes20(_stakerOrZero), _vt));\n      }\n      allTheData[hash] = new bytes32[](_data.length);\n      // bytes32[] memory data = new bytes32[](_data.length);\n      for(uint16 i=0; i < _data.length; i++) {\n        allTheData[hash][i] = _data[i];\n      }\n      // allTheData[hash] = data;\n\n      // tried a number of ways and it is always reverting (when called via checkIn)\n    }\n\n    function setString (string memory _poll, string memory _mapName, uint8 _vt, string memory data) public {\n      bytes32 hash = keccak256(abi.encodePacked(_poll, encodeFunctionName(_mapName), _vt));\n      allTheData[hash] = stringToBytes32Array(data);\n    }\n\n\n    // NB vulnerable until proper poll facoty in place, since isInitiator allows any caller if poll.iniator == 0x0\n    function setVenueCost (string memory _poll, int _cost) public isInitiator(_poll) {\n      pollData[_poll].venueCost = _cost;\n    }\n\n\n    function setRep (string memory _poll, address _staker, uint _rep) public {\n      rep[_staker] = _rep;\n    }\n\n    function getRep (address _staker) public view returns (uint) {\n      return rep[_staker];\n    }\n\n    function mineRep(address recipient) public returns (uint newRep) {\n      if (stakerKnown[recipient])\n        newRep = topupRep;\n      else {\n        stakerKnown[recipient] = true;\n        newRep = initialRep;\n      }\n      if (newRep >= rep[recipient]) {\n        rep[recipient] = newRep;\n        return (newRep);\n      }\n      return (0);\n    }\n\n    event newPollCreated(string);\n    function createPoll(string memory poll, address initiator, uint minStake, int venueCost, address venuePayer, uint8 participants) public {\n      require (!isPoll(poll), 'Poll exists already.');\n      require (minStake>0, 'minStake must be set');\n      if (initiator == address(0))\n        pollData[poll].initiator = msg.sender;\n      else\n        pollData[poll].initiator = initiator;\n      pollData[poll].minStake = minStake;\n      pollData[poll].venueCost = venueCost;\n      pollData[poll].venuePayer = venuePayer;\n      pollData[poll].minParticipants = participants;\n\n      emit newPollCreated(poll);\n    }\n\n\n\n    event whassahash(bytes);\n    event whassakeccack(bytes32);\n    function getStakersProof (string memory _poll, address _staker) public returns (bytes32[] memory) {\n      bytes32 hash = keccak256(abi.encodePacked(_poll, encodeFunctionName(\"proof\"), _staker, vType));\n      emit whassahash(abi.encodePacked(_poll, encodeFunctionName(\"proof\"), _staker, vType));\n      emit whassakeccack(hash);\n      return (allTheData[hash]);\n    }\n\n    function getProofEmitHashesOnlyWithStaker (string memory _poll, string memory _mapName, address _stakerOrZero, uint8 _vt, bytes32[] memory data) public {\n      bytes32 hash = keccak256(abi.encodePacked(_poll, encodeFunctionName(_mapName), _stakerOrZero, _vt));\n      emit whassahash(abi.encodePacked(_poll, encodeFunctionName(_mapName), _stakerOrZero, _vt));\n      emit whassakeccack(hash);\n\n      emit gpResult(_poll, _mapName, _stakerOrZero, _vt, getStakersProof(_poll, _stakerOrZero));\n    }\n\n\n    function addStaker (string memory _poll, address _staker, uint8 _vt) public {\n      bytes32 hash = keccak256(abi.encodePacked(_poll, encodeFunctionName(\"staker\"), _vt));\n      allTheData[hash].push (bytes32(bytes20(_staker)));\n    }\n\n    function getStakerAddresses (string memory _poll ) public view returns (address[] memory) {\n      bytes32[] memory rawStakers = get(_poll, \"staker\");\n      address[] memory stakers = new address[](rawStakers.length);\n      for(uint16 i=0; i < rawStakers.length; i++) {\n          stakers[i] = bytesToAddress(bytes32ToBytes(rawStakers[i]));\n      }\n      return stakers;\n    }\n\n\n//NB This is returning a WRONG result, but of the right type. You've probably got indices mixed up.\n    function getproofsAsAddresses (string memory _poll ) public returns (address[][] memory) {\n      address[] memory stakers = getStakerAddresses(_poll);\n      address[][] memory proofs = new address[][](stakers.length);\n      bytes32[] memory rawProof;\n\n      for(uint16 i=0; i < stakers.length; i++) {\n        rawProof = getStakersProof(_poll, stakers[i]);\n        proofs[i] = new address[](rawProof.length);\n        for(uint16 j=0; j < rawProof.length; j++) {\n            proofs[i][j]=(bytesToAddress(bytes32ToBytes(rawProof[j])));\n        }\n      }\n      return (proofs);\n    }\n\n    event gpResult(string, string, address, uint8, bytes32[]);\n    function setCheckedInWithStaker (string memory _poll, string memory _mapName, address _impersonatedStaker, uint8 _vt, bytes32[] memory data) public {\n      bytes32 hash = keccak256(abi.encodePacked(_poll, encodeFunctionName(_mapName), _impersonatedStaker, _vt));\n      emit whassahash(abi.encodePacked(_poll, encodeFunctionName(_mapName), _impersonatedStaker, _vt));\n      emit whassakeccack(hash);\n      allTheData[hash] = data;\n      emit gpResult(_poll, _mapName, _impersonatedStaker, _vt, getStakersProof(_poll, _impersonatedStaker));\n    }\n\n    function checkIn (string memory _poll, address _impersonatedStaker, address[] memory _newProof) public {\n      address sender = _impersonatedStaker;   //  should be msg.sender\n      uint16 idx = pollData[_poll].ownCheckInIndex[sender];\n      bool hasStaked = false;\n      uint16 i;\n\n      // if (idx==0) {\n      //   idx = uint16(getStakerAddresses(_poll ).length);\n      //   add (_poll, \"proof\", vType, _newProof);\n      //   pollData[_poll].ownCheckInIndex[sender] = idx+1;    // would be an off-by-one but ownIndex is 1-indexed ;)\n      //   return;\n      // }\n      // proofs[idx] = bytes32(bytes20(_newProof));\n\n      // bytes32[] memory stakers = get(_poll, \"staker\");\n      // for (i=0; i<stakers.length; i++) {\n      //   if bytes32(bytes20((stakers[i]))==sender\n      //     hasStaked = true;\n      // }\n      // if (hasStaked = false)\n      //   revert ('Staker has not staked in this poll')\n      bytes32[] memory proofB32 = new bytes32[](_newProof.length);\n      for (i=0; i<_newProof.length; i++) {\n        proofB32[i]=bytes32(bytes20(_newProof[i]));\n      }\n      set ( _poll, \"proof\", sender, vType, proofB32);\n      pollData[_poll].ownCheckInIndex[sender] = idx+1;\n    }\n\n    event proofUpdated(address);\n    function addProof (string memory _poll, address _impersonatedStaker, address[] memory _newProof) public {\n      address sender = _impersonatedStaker;   //  should be msg.sender\n      bytes32[] memory proofB32 = new bytes32[](_newProof.length);\n      bytes32 hash = keccak256(abi.encodePacked(_poll, encodeFunctionName(\"proof\"), bytes20(_impersonatedStaker), vType));\n      for (uint16 i=0; i<_newProof.length; i++) {\n        proofB32[i]=bytes32(bytes20(_newProof[i]));\n      }\n      if (allTheData[hash].length>0)\n        emit proofUpdated(sender);\n      allTheData[hash]=(proofB32);\n    }\n\n    function addProofSelf (string memory _poll, address[] memory _newProof) public {\n      addProof (_poll, msg.sender, _newProof);\n    }\n\n\n    event proofsWindowClosed (string poll, address by);\n    function closeProofsWindow (string memory _poll) public {\n      // require (isElibgible(msg.sender), \"msg.sender did not stake in this poll\");\n      // require (time.now()>.pollData[_poll].eventTime.end || AllstakersSubmittedProofs(), \"Not all stakers have submitted proofs and the event is not yet over\");\n      // require (, \"\");\n      pollData[_poll].proofsWindowClosed = true;\n      emit proofsWindowClosed (_poll, msg.sender);\n\n      // NB here assuming that poll can be closed once all stakers have submitted a proof.\n      // The alternative would allow a non-attending staker to hold up refunds (by refusing to submit 'I can't make it')\n      // but this way means that early provers cannot necessarily revise rpoofs which turn out not to fit consensus\n      // This policy may be better left to differ between validators.\n    }\n\n    function reopenProofsWindow (string memory _poll) public {\n      pollData[_poll].proofsWindowClosed = false;\n    }\n\n    function isProofsWindowClosed (string memory _poll) public view returns (bool ) {\n      return pollData[_poll].proofsWindowClosed;\n    }\n\n\n    event stakeNotAccepted(address, string);\n    event disreputableStakerIgnored(address, string);\n    event staked(address, string, uint);\n    // TODO: accept one TimeRange for all stakes.\n    // TODO: accept TimeRanges per stake (need to change up the data structures!)\n    function addStake (string memory _poll, address _impersonatedStaker, uint _rep, uint _venueContribution, address _venueContributionFor ) public {\n      address sender = _impersonatedStaker;\n      if (_venueContribution>0) {\n        uint currentVC = pollData[_poll].staked[sender].venueContribution[_venueContributionFor];\n        pollData[_poll].staked[sender].venueContribution[_venueContributionFor] += _venueContribution;\n        pollData[_poll].venuePot += _venueContribution;\n      }\n      if (_rep>0) {\n        if (_rep<pollData[_poll].minStake) {\n          emit stakeNotAccepted(sender, _poll);              // aNt!p4ttrnn ###\n        } else\n        if (rep[sender]<_rep) {\n          emit disreputableStakerIgnored(sender, _poll);\n        } else {\n          rep[sender] -= _rep;\n          pollData[_poll].staked[sender].rep += _rep;\n          emit staked(sender, _poll, _rep);\n        }\n      }\n    }\n\n    function totalRepStaked (string memory _poll, address _staker) public view returns (uint) {\n      return pollData[_poll].staked[_staker].rep;\n    }\n\n    function totalVenueContribs (string memory _poll, address _staker) public view returns (uint total) {\n      // dibs[] memory dibsList = allDibsPaidBy(_staker);\n\n\n      // gives an out of bounds error (or munches it into VM..blah..blah)\n      // trying to access ...[address(0)]\n      // total = pollData[_poll].staked[_staker].venueContribution[_staker] + pollData[_poll].staked[_staker].venueContribution[address(0)];\n      total = pollData[_poll].staked[_staker].venueContribution[_staker];\n\n      // for(uint16 i = 0; i < dibsList.length; i++) {\n      //   total += dibsList[i].amount;\n      // }\n\n      return total;\n    }\n\n    // NB refundVenueStake and refundStake BOTH call this, so one will revert.\n    // TODO: Add checks into those functions\n    event emptyStakeRemoved (string _poll, address _staker);\n    function removeEmptyStake (string memory _poll, address _staker) public {\n      // uint rep=pollData[_poll].staked[msg.sender].rep;\n      // uint venueContributions = totalVenueContribs (_poll, _staker);\n      // require (rep==0 && venueContributions==0, 'Staker has non empty stake or venue contribution');\n      // delete pollData[_poll].staked[msg.sender];\n      // emit emptyStakeRemoved(_poll, msg.sender);\n    }\n\n    // NB these require returning complex type.\n    // Keep the commented code, but integrate it direct into functions which need it (and eventually use new ABI encoder on it ;)\n\n    // function allDibsPaidBy(string memory _poll, address _staker) public view returns (dibs[] memory) {\n    //   uint16 size=0;\n    //   uint16 i;\n    //   for(i = 0; i < pollData[_poll].dibsCalled.length; i++) {\n    //     if (pollData[_poll].dibsCalled[i].payer == _staker)\n    //       size++;\n    //   }\n    //   dibs[size] memory dibsList = new dibs[](size);\n    //   for(uint16 i = 0; i < pollData[_poll].dibsCalled.length; i++) {\n    //     if (pollData[_poll].dibsCalled[i].payer == _staker)\n    //       dibsList.push(pollData[_poll].dibsCalled[i]);\n    //   }\n    //   return dibsList;\n    // }\n    //\n    // function allDibsPaidFor(string memory _poll, address _recipient) public view returns (dibs[] memory) {\n    //   uint16 size=0;\n    //   uint16 i;\n    //   for(i = 0; i < pollData[_poll].dibsCalled.length; i++) {\n    //     if (pollData[_poll].dibsCalled[i].recipient == _recipient)\n    //       size++;\n    //   }\n    //   dibs[size] memory dibsList = new dibs[](size);\n    //   for(i = 0; i < pollData[_poll].dibsCalled.length; i++) {\n    //     if (pollData[_poll].dibsCalled[i].recipient == _recipient)\n    //       dibsList.push(pollData[_poll].dibsCalled[i]);\n    //   }\n    //   return dibsList;\n    // }\n\n\n    function doRefund (address to, uint amount) private returns (bool){\n      // do moneyyyzz\n      return true;\n    }\n\n    // NB proportional refunds are not vulnerable to gas exhaustion but covering refunds may be.\n    // Hence populating the 0x0 staker's stake with the refunded stakes, to maintain the size of stakes compared to venuePot.\n    event venuePotDisbursed (string _poll, address to, address by, uint amount);\n    // Any staker can call refund of excess venue pot.\n    // Disbursement to venue payer must wait until initiator has actively set venue payer (eg to self);\n    function refundVenueStakes(string memory _poll) public isStaker(_poll) {\n      address[] memory stakers = getStakerAddresses(_poll);\n      int equalShare = (pollData[_poll].venueCost) / int(stakers.length);\n      uint pot = pollData[_poll].venuePot;\n      uint spareCash =1234;\n      uint16 i =0;\n      uint16 j =0;\n\n      if (pot==0)\n        return;\n      // This would be so much simpler if you could compare whethere a possibly negative number is smaller than a positive one.\n      // and would be safer, not having a 2's complement risk. Fucking rectangulists.\n      if ((pollData[_poll].venueCost<0) || uint(pollData[_poll].venueCost) < pollData[_poll].venuePot)\n        spareCash = uint( int(pollData[_poll].venuePot) - pollData[_poll].venueCost );\n\n      // // proportional refunds:\n      // // allows recipients of gifted contributions to get a refund too\n      for (i=0; i<stakers.length; i++) {\n        uint refund = 0;\n        address[] memory recipients = new address[](2);\n        int[] memory amounts = new int[](2);\n        //   for (stakes = allDibsPaidBy(staker).concat(staker.stake[staker]).concat(staker.stake[0x0]))\n        recipients[0] = address(0);\n        recipients[1] = stakers[i];\n        // what if this loop runs out of gas? Will the totals that everything is based on still be a good starting point?\n        for (j=0; j<recipients.length; j++) {\n          amounts[j] = int( pollData[_poll].staked[stakers[i]].venueContribution[recipients[j]] );\n          refund += ( spareCash * (uint(amounts[j])) / pot );\n          pollData[_poll].staked[stakers[i]].venueContribution[recipients[j]] = 0;\n          // maintain a tally of refunded stakes in case of gas exhaustion.\n          pollData[_poll].staked[address(0)].venueContribution[address(0)] += refund;\n          if (pollData[_poll].venuePot >= refund)\n            pollData[_poll].venuePot -= refund;\n          // else\n          //   revert ('Someone emptied the pot!!');\n        }\n        if (refund>0 || uint160(bytes20(recipients[j]))>0) {  //likely fail\n        // if (refund>0 || j>0) {\n        // Temporarily catch the zero refunds which should be more\n        // if (uint160(bytes20(recipients[j]))>0) {  // failing!\n        // if (j>0) {\n          if (doRefund(stakers[i], refund))\n            emit venuePotDisbursed (_poll, stakers[i], msg.sender, refund);  // cannot get it to issue nonzero last param. Previously failed on literal zero but now works :/\n\n        }\n      }\n      pollData[_poll].staked[address(0)].venueContribution[address(0)] = 0;\n\n      //\n      // // covering refunds:\n      // // gifted contributions are used only to top up recipients'\n      // for (i=0; i<stakers.length; i++) {\n      //   int refund = 0;\n      //   int totalPaid = 0;\n      //   address[] memory recipients = new address[](2);\n      //   int[] memory amounts = new int[](2);\n      //   //   for (stakes = allDibsPaidBy(staker).concat(staker.stake[staker]).concat(staker.stake[0x0]))\n      //   recipients[0] = address(0);\n      //   recipients[1] = stakers[i];\n      //   for (j=0; j<recipients.length; j++) {\n      //     amounts[j] = int( pollData[_poll].staked[stakers[i]].venueContribution[recipients[j]] );\n      //     totalPaid += amounts[j];\n      //   }\n      //   if (totalPaid > int(equalShare))\n      //     for (j=0; j<recipients.length; j++) {\n      //       // too tired for this!!\n      //     }\n      // }\n\n\n\n      //     for (stakes = allDibsPaidFor(staker).concat(staker.stake[staker]).concat(staker.stake[0x0]))\n      //       if amount>=shortfall\n      //         totalPaid += shortfall\n      //         shorten(stake)\n      //       else\n      //         totalPaid += amount\n      //         remove(stake) including own stake!\n      //     refund(0)\n      // for stakers\n      //   if exists(stake) (ie those who were not removed in last round)\n      //     for (stakes = allDibsPaidBy(staker).concat(staker.stake[staker]).concat(staker.stake[0x0]))\n      //       if amount>=shortfall\n      //         totalPaid += shortfall\n      //         refund += rest\n      //       else\n      //         totalPaid += amount\n      //       remove(stake)\n      //     refund (refund)\n      //     emitsolidity uint16\n      //\n\n      if (pollData[_poll].staked[msg.sender].rep == 0)\n        removeEmptyStake(_poll, msg.sender);\n    }\n\n    event repRefund (address staker, uint staked, uint refunded);\n    event refundFail (address _staker);\n    function refundStake (string memory _poll, bytes32 _reveal) public {\n      // Uncomment them - this is for testing by, amount!\n      // require (pollData[_poll].staked[msg.sender].rep > 0, 'Sender has nothing staked for this poll');\n      // require (pollData[_poll].ownCheckInIndex[msg.sender] > 0, 'Sender has not submitted an attendance proof for this poll');\n      if (!validate(address(0), _poll, _reveal)) {\n        emit refundFail(msg.sender);\n        revert ('Invalid proof');\n      }\n\n      (uint num, uint denom) = multiplier();\n      uint refund = num.mul(pollData[_poll].staked[msg.sender].rep) / denom;\n      if (rep[msg.sender] + refund > maxRep())\n        refund = pollData[_poll].staked[msg.sender].rep;\n\n      pollData[_poll].staked[msg.sender].rep = 0;\n      rep[msg.sender] += refund;\n      emit repRefund (msg.sender, pollData[_poll].staked[msg.sender].rep, refund);\n      if (totalVenueContribs(_poll, msg.sender) == 0)\n        removeEmptyStake(_poll, msg.sender);\n    }\n\n\n    function emitVenueStakeRefunded (string memory _poll, address _to, address _by, uint _amount, uint8 _repeat) public  {\n      for (uint8 i=0; _repeat>0 && i<_repeat; i++) {\n        emit venuePotDisbursed (_poll, _to, _by, _amount);\n      }\n      if (_repeat==5)\n        emit venuePotDisbursed (_poll, pollData[_poll].venuePayer, _by, _amount);\n    }\n\n    function emitVenuePotRefunded (string memory _poll, address _to, address _by, uint _amount) public {\n      emit venuePotDisbursed (_poll, pollData[_poll].venuePayer, _by, _amount);\n    }\n\n    function emitrepRefunded (address _staker, uint _staked, uint _refunded) public {\n      emit repRefund (_staker, _staked, _refunded);\n    }\n\n    function emitrefundFail (address _staker) public {\n      emit refundFail (_staker);\n    }\n\n\n\n    event numberLoggerLikeImUsingFuckingJava (string, uint);\n    // cheapo validator - this one just counts how many people included you in their proof, with no attempt at making the proofs agree.\n    // currently counts votes in favour of each stakers, which will help, but doesn't flag which poroofs disagree\n    function validate(address _pollContract, string memory _poll, bytes32 _reveal) public returns (bool) {\n        // require (_pollContract==howeverYoullIdentifySelf, 'wrong Poll contract - something needs upgrading');\nreturn true;\n        address[] memory stakers = getStakerAddresses(_poll);\n        address[][] memory proofs = getproofsAsAddresses(_poll);\n        uint16 i;\n        uint16 sendersIndex;\n        bool stakerPresent;\n\n        uint8 threshold = 1 ;   //  do not set to 0 - div0 error!\n        // emit numberLoggerLikeImUsingFuckingJava('stakers',stakers.length);\n        // emit numberLoggerLikeImUsingFuckingJava('proofs',proofs.length);\n\n        // proofCounter memory pc;\n        for(i = 0; i < stakers.length; i++) {\n            // emit logStuff(\"started loop\");\n            stakerPresent = false;\n            if (stakers[i]==msg.sender)\n              sendersIndex=i;\n            for(uint j = 0; j < proofs[i].length; j++) {\n              if (proofs[i][j] == msg.sender)\n                stakerPresent = true;\n              stakerPresentIn[proofs[i][j]]++;     // increase the present count for the address who this staker marked present\n              // if this staker claims someone is here but the majority disagree, then emit disagreement;\n            }\n            // if (!stakerPresent)\n            //   impugnProof(i);\n            //   // if I am not present, emit a disagreement;\n        }\n        // if stakerPresentIn[sendersIndex] < proofs[i].length {\n        //   bePissedOff();\n        // }\n\n        // update majorities\n        // check previous disagreements\n\n        if ((stakerPresentIn[msg.sender]>=threshold) && (proofs[i].length/ stakerPresentIn[msg.sender] < 2)) {\n          return true;\n        }\n        // add reversion logic\n\n\n\n\n        // // deal with 0 < threshold < 1\n        // if(percentageThreshold>0) {\n        //   threshold = percentageThreshold*stakers.length;\n        // }\n        // if (pc.senderIsPresent && (proofs.length-pc.fakeProofs >= threshold)) {\n        //     return true;\n        // }\n        // return false;\n\n        // if (!pc.senderIsPresent)\n        //     revert('Sender did not register attendance');\n\n        // if (!pc.senderIsPresent)\n        //     emit logStuff('Sender did not register attendance');\n        // if (proofs.length-pc.fakeProofs < threshold)\n        //     emit logStuff('Not enough attendees in consensus');\n        // if (proofs.length == pc.fakeProofs)\n        //     emit logStuff('All proofs were fake');\n        // emit numberLoggerLikeImUsingFuckingJava ('fakeProofs',pc.fakeProofs);\n        // emit numberLoggerLikeImUsingFuckingJava ('proofs.length',proofs.length);\n        // return true;\n    }\n\n    function proofType() public pure returns (uint8) {\n      return vType;\n    }\n\n    function encodeFunctionName (string memory name) internal pure returns (bytes4) {\n        // TODO: cache for readability!\n        // if (\"staker\")\n        //     return\n        // if (\"proof\")\n        //     return\n        return bytes4(keccak256(bytes(name)));\n    }\n\n    // split a serialised string of addresses (as received from main contract).\n    // NB - only works in this validator - other validators will use multiple types within serialised string\n    function splitToAddresses(string memory _concatenated) internal pure returns (address[] memory result) {\n        strings.slice memory delim = \",\".toSlice();\n        strings.slice memory source = _concatenated.toSlice();\n        address[] memory parts = new address[](source.count(delim));\n\n        for(uint i = 0; i < parts.length; i++) {\n           parts[i] = source.split(delim).toString().toAddress();\n        }\n        return parts;\n\n    }\n\n    function bytesToAddress(bytes memory _bytes) public pure returns (address) {\n      address tempAddress;\n      assembly {\n          tempAddress := div(mload(add(add(_bytes, 0x20), 0)), 0x1000000000000000000000000)\n      }\n      return tempAddress;\n    }\n\n    function toString(address account) public pure returns(string memory) {\n        return toString(abi.encodePacked(account), 5);\n    }\n\n    function toString(uint256 value) public pure returns(string memory) {\n        return toString(abi.encodePacked(value), 0);\n    }\n\n    function toString(bytes32 value) public pure returns(string memory) {\n        return toString(abi.encodePacked(value), 0);\n    }\n\n    function toString(bytes memory data, uint16 len) public pure returns(string memory) {\n        bytes memory alphabet = \"0123456789abcdef\";\n        uint16 strLen = 20;  // It's 20. The length is just fucking 20.  uint16(data.length);\n        // Pretty simple if statement - why won't it work ?\n        // if (len>0) {\n        //     strLen = len;\n        // }\n\n\n        bytes memory str = new bytes(2 + strLen * 2);\n        str[0] = '0';\n        str[1] = 'x';\n        for (uint i = 0; i < strLen; i++) {\n            str[2+i*2] = alphabet[uint(uint8(data[i] >> 4))];\n            str[3+i*2] = alphabet[uint(uint8(data[i] & 0x0f))];\n        }\n        return string(str);\n    }\n\n\n    function bytes32ToBytes(bytes32 _bytes32) public pure returns (bytes memory){\n        // string memory str = string(_bytes32);\n        // TypeError: Explicit type conversion not allowed from \"bytes32\" to \"string storage pointer\"\n        bytes memory bytesArray = new bytes(32);\n        for (uint256 i; i < 32; i++) {\n            bytesArray[i] = _bytes32[i];\n        }\n        return bytesArray;\n    }\n\n    // function bytesToBytes32(bytes b, uint offset) private pure returns (bytes32) {\n    //     bytes32 out;\n\n    //     for (uint i = 0; i < 32; i++) {\n    //         out |= bytes32(b[offset + i] & 0xFF) >> (i * 8);\n    //     }\n    //     return out;\n    // }\n\n\n    function bytesToBytes32(bytes memory b) public pure returns (bytes32 bts) {\n        bytes32 i;\n        //NB size etc= 32b = 0x20b\n        assembly { i := mload(add(b, 0x20)) }\n        bts = i;\n    }\n\n    function bytes32ToString(bytes32 _bytes32) public pure returns (string memory ){\n        bytes memory bytesArray = bytes32ToBytes(_bytes32);\n        return string(bytesArray);\n    }\n\n    function bytes32ArrayToString (bytes32[] memory data) public pure returns (string memory ) {\n        bytes memory bytesString = new bytes(data.length * 32);\n        uint urlLength;\n        uint i=0;\n        for (i=0; i<data.length; i++) {\n            for (uint j=0; j<32; j++) {\n                byte char = byte(bytes32(uint(data[i]) * 2 ** (8 * j)));\n                if (char != 0) {\n                    bytesString[urlLength] = char;\n                    urlLength += 1;\n                }\n            }\n        }\n        bytes memory bytesStringTrimmed = new bytes(urlLength);\n        for (i=0; i<urlLength; i++) {\n            bytesStringTrimmed[i] = bytesString[i];\n        }\n        return string(bytesStringTrimmed);\n    }\n\n    function stringToBytes32Array(string memory source) public pure returns (bytes32[] memory result) {\n        // uint16 words = uint16( (bytes(source).length+31)/32 );\n        uint16 words = 1;\n        for(uint16 i=0; i<=words; i++) {\n          uint16 offset = 32*(i+1);\n          bytes32 word;\n          assembly {\n            word := mload(add(source, offset))\n          }\n          result[i] = word;\n        }\n        return result;\n    }\n\n    // TODO !!!\n    // function bytes32ToUint (bytes32 data) returns (uint) {\n    //     return 2;\n    // }\n\n    function bytesSplit32(bytes  memory data) public pure returns (bytes32, bytes memory ) {\n        uint8 splitAt = 32;                             // all (if variable split, pass in splitAt)\n        uint256 taillength = 0;\n        if (data.length > splitAt)\n            taillength = data.length-splitAt;\n        bytes32 temp;\n        // bytes32 head;                                   // 32b split\n        bytes memory head = new bytes(splitAt);         // variable length split\n        bytes memory tail = new bytes(taillength);\n        for(uint i=0;i<=data.length-1;i++){\n            if (i<splitAt)\n                head[i] = bytes(data)[i] ;\n            else\n                tail[i-splitAt] = bytes(data)[i] ;\n        }\n        return (bytesToBytes32(head), tail);\n    }\n\n    // calls fallback function of pollAddress, passing 4 byte encoded function name to remote contract to select method.\n    // NB future better: just get the ABI of the finished Poll conmtract, and use that!\n    // NB in sol 0.6 + fallback cannot return anything\n    // NB future optimisation : we are not using the functionality of string here, since string must have come from a bytes32\n    event CrossContractValidateBegin();\n    event CrossContractValidateEnd();\n    function crossContractCall (bytes4 fnNameHash, string  memory poll, uint256 valid, uint8 vt) public returns (bytes32[] memory) {\n    address pollContract = pollAddress;\n\n        emit CrossContractValidateBegin();\n        assembly {\n            let ptr := mload(0x40)\n            calldatacopy(ptr, 0, calldatasize)\n            let result := delegatecall(gas, pollContract, ptr, calldatasize, 0, 0)\n            let size := returndatasize\n            returndatacopy(ptr, 0, size)\n            switch result\n            case 0 { revert(ptr, size) }\n            default { return(ptr, size) }\n        }\n        emit CrossContractValidateEnd();\n    }\n\n}\n",
  "sourcePath": "/home/teide/randomCode/lunchcoin/contracts.v1/contracts/MutualAgreement.sol",
  "compiler": {
    "name": "solc",
    "version": "0.5.17+commit.d19bba13.Emscripten.clang"
  },
  "schemaVersion": "3.0.2",
  "updatedAt": "2020-07-06T11:53:32.980Z",
  "devdoc": {
    "methods": {}
  },
  "userdoc": {
    "methods": {}
  }
}