{
  "contractName": "Ownable",
  "abi": [
    {
      "constant": true,
      "inputs": [
        {
          "internalType": "address",
          "name": "account",
          "type": "address"
        }
      ],
      "name": "isOwner",
      "outputs": [
        {
          "internalType": "bool",
          "name": "",
          "type": "bool"
        }
      ],
      "payable": false,
      "stateMutability": "view",
      "type": "function"
    }
  ],
  "bytecode": "0x608060405234801561001057600080fd5b5060e38061001f6000396000f3fe6080604052348015600f57600080fd5b50600436106044577c010000000000000000000000000000000000000000000000000000000060003504632f54bf6e81146049575b600080fd5b607960048036036020811015605d57600080fd5b503573ffffffffffffffffffffffffffffffffffffffff16608d565b604080519115158252519081900360200190f35b60005473ffffffffffffffffffffffffffffffffffffffff9081169116149056fea265627a7a723158206b8bc25e0877401d38dbcfd0c7227a763a37905dcf94028f6770a114ebea8db464736f6c63430005110032",
  "source": "pragma solidity >=0.4.21 <0.6.0;\n\n\n/**\n * @author Arvind Kalra (github.com/arvindkalra) and Pranav Singhal (github.com/pranav-singhal)\n * @title Ownable\n * @dev The Ownable contract has an owner address, and provides basic authorization control\n * functions, this simplifies the implementation of \"user permissions\". This adds two-phase\n * ownership control to OpenZeppelin's Ownable class. In this model, the original owner\n * designates a new owner but does not actually transfer ownership. The new owner then accepts\n * ownership and completes the transfer.\n */\ncontract Ownable {\n    address _owner;\n\n    modifier onlyOwner() {\n        require(isOwner(msg.sender), \"OwnerRole: caller does not have the Owner role\");\n        _;\n    }\n\n    function isOwner(address account) public view returns (bool) {\n        return account == _owner;\n    }\n}\n",
  "sourcePath": "/home/teide/randomCode/lunchcoin/contracts.v1/contracts/Ownable.sol",
  "compiler": {
    "name": "solc",
    "version": "0.5.17+commit.d19bba13.Emscripten.clang"
  },
  "schemaVersion": "3.0.2",
  "updatedAt": "2020-06-29T13:51:00.726Z",
  "devdoc": {
    "author": "Arvind Kalra (github.com/arvindkalra) and Pranav Singhal (github.com/pranav-singhal)",
    "details": "The Ownable contract has an owner address, and provides basic authorization control functions, this simplifies the implementation of \"user permissions\". This adds two-phase ownership control to OpenZeppelin's Ownable class. In this model, the original owner designates a new owner but does not actually transfer ownership. The new owner then accepts ownership and completes the transfer.",
    "methods": {},
    "title": "Ownable"
  },
  "userdoc": {
    "methods": {}
  }
}