{
  "contractName": "Ownable",
  "abi": [
    {
      "constant": true,
      "inputs": [
        {
          "internalType": "address",
          "name": "account",
          "type": "address"
        }
      ],
      "name": "isOwner",
      "outputs": [
        {
          "internalType": "bool",
          "name": "",
          "type": "bool"
        }
      ],
      "payable": false,
      "stateMutability": "view",
      "type": "function"
    }
  ],
  "bytecode": "0x608060405234801561001057600080fd5b50610114806100206000396000f3fe6080604052348015600f57600080fd5b506004361060285760003560e01c80632f54bf6e14602d575b600080fd5b606c60048036036020811015604157600080fd5b81019080803573ffffffffffffffffffffffffffffffffffffffff1690602001909291905050506086565b604051808215151515815260200191505060405180910390f35b60008060009054906101000a900473ffffffffffffffffffffffffffffffffffffffff1673ffffffffffffffffffffffffffffffffffffffff168273ffffffffffffffffffffffffffffffffffffffff1614905091905056fea265627a7a72315820ebdfe5c4fc0ab8005fa117c7d4e645b022a74a8751d2c60aa052877a96490db264736f6c63430005100032",
  "source": "pragma solidity >=0.4.21 <0.6.0;\n\n\n/**\n * @author Arvind Kalra (github.com/arvindkalra) and Pranav Singhal (github.com/pranav-singhal)\n * @title Ownable\n * @dev The Ownable contract has an owner address, and provides basic authorization control\n * functions, this simplifies the implementation of \"user permissions\". This adds two-phase\n * ownership control to OpenZeppelin's Ownable class. In this model, the original owner\n * designates a new owner but does not actually transfer ownership. The new owner then accepts\n * ownership and completes the transfer.\n */\ncontract Ownable {\n    address _owner;\n\n    modifier onlyOwner() {\n        require(isOwner(msg.sender), \"OwnerRole: caller does not have the Owner role\");\n        _;\n    }\n\n    function isOwner(address account) public view returns (bool) {\n        return account == _owner;\n    }\n}\n",
  "sourcePath": "/home/teide/randomCode/lunchcoin/contracts.v1/contracts/Ownable.sol",
  "compiler": {
    "name": "solc",
    "version": "0.5.16+commit.9c3226ce.Emscripten.clang"
  },
  "schemaVersion": "3.2.0",
  "updatedAt": "2020-06-28T21:24:07.212Z",
  "devdoc": {
    "author": "Arvind Kalra (github.com/arvindkalra) and Pranav Singhal (github.com/pranav-singhal)",
    "details": "The Ownable contract has an owner address, and provides basic authorization control functions, this simplifies the implementation of \"user permissions\". This adds two-phase ownership control to OpenZeppelin's Ownable class. In this model, the original owner designates a new owner but does not actually transfer ownership. The new owner then accepts ownership and completes the transfer.",
    "methods": {},
    "title": "Ownable"
  },
  "userdoc": {
    "methods": {}
  }
}