{
  "contractName": "PollReference",
  "abi": [
    {
      "inputs": [],
      "payable": false,
      "stateMutability": "nonpayable",
      "type": "constructor",
      "signature": "constructor"
    },
    {
      "anonymous": false,
      "inputs": [],
      "name": "CrossContractValidateBegin",
      "type": "event",
      "signature": "0x1ff50e4650f7f1e5b26a5f5e921b803deee4a95a1b6ef46e05992b3bc1dcdb8c"
    },
    {
      "anonymous": false,
      "inputs": [],
      "name": "CrossContractValidateEnd",
      "type": "event",
      "signature": "0x8d3a809bf7de78d4f05cff7e28d114c50c5b6b828274326dec15c0119a574f81"
    },
    {
      "anonymous": false,
      "inputs": [
        {
          "indexed": false,
          "internalType": "bool",
          "name": "",
          "type": "bool"
        }
      ],
      "name": "CrossContractValidateReturned",
      "type": "event",
      "signature": "0xd65038c0be209d4ae257f7e73a69b8b787796717cd2ce67d00d7e02c9de1020e"
    },
    {
      "payable": true,
      "stateMutability": "payable",
      "type": "fallback"
    },
    {
      "constant": true,
      "inputs": [
        {
          "internalType": "address",
          "name": "",
          "type": "address"
        }
      ],
      "name": "cashBalance",
      "outputs": [
        {
          "internalType": "uint256",
          "name": "",
          "type": "uint256"
        }
      ],
      "payable": false,
      "stateMutability": "view",
      "type": "function",
      "signature": "0x406de18c"
    },
    {
      "constant": true,
      "inputs": [
        {
          "internalType": "uint8",
          "name": "",
          "type": "uint8"
        }
      ],
      "name": "validatorNames",
      "outputs": [
        {
          "internalType": "string",
          "name": "",
          "type": "string"
        }
      ],
      "payable": false,
      "stateMutability": "view",
      "type": "function",
      "signature": "0x8ee879c7"
    },
    {
      "constant": true,
      "inputs": [
        {
          "internalType": "uint8",
          "name": "",
          "type": "uint8"
        }
      ],
      "name": "validators",
      "outputs": [
        {
          "internalType": "address",
          "name": "",
          "type": "address"
        }
      ],
      "payable": false,
      "stateMutability": "view",
      "type": "function",
      "signature": "0x965457ba"
    },
    {
      "constant": true,
      "inputs": [],
      "name": "getOwner",
      "outputs": [
        {
          "internalType": "address",
          "name": "",
          "type": "address"
        }
      ],
      "payable": false,
      "stateMutability": "view",
      "type": "function",
      "signature": "0x893d20e8"
    },
    {
      "constant": true,
      "inputs": [
        {
          "internalType": "string",
          "name": "_poll",
          "type": "string"
        },
        {
          "internalType": "string",
          "name": "_mapName",
          "type": "string"
        },
        {
          "internalType": "uint8",
          "name": "_vt",
          "type": "uint8"
        }
      ],
      "name": "retrieve",
      "outputs": [
        {
          "internalType": "bytes32[]",
          "name": "",
          "type": "bytes32[]"
        }
      ],
      "payable": false,
      "stateMutability": "view",
      "type": "function",
      "signature": "0xd122491a"
    },
    {
      "constant": false,
      "inputs": [
        {
          "internalType": "string",
          "name": "_poll",
          "type": "string"
        },
        {
          "internalType": "string",
          "name": "_mapName",
          "type": "string"
        },
        {
          "internalType": "uint8",
          "name": "_vt",
          "type": "uint8"
        },
        {
          "internalType": "bytes32[]",
          "name": "data",
          "type": "bytes32[]"
        }
      ],
      "name": "set",
      "outputs": [],
      "payable": false,
      "stateMutability": "nonpayable",
      "type": "function",
      "signature": "0x5e3e225f"
    },
    {
      "constant": false,
      "inputs": [],
      "name": "justSetStuff",
      "outputs": [
        {
          "internalType": "string",
          "name": "ace",
          "type": "string"
        }
      ],
      "payable": false,
      "stateMutability": "nonpayable",
      "type": "function",
      "signature": "0x7197624e"
    },
    {
      "constant": false,
      "inputs": [
        {
          "internalType": "string",
          "name": "_poll",
          "type": "string"
        },
        {
          "internalType": "string",
          "name": "_mapName",
          "type": "string"
        },
        {
          "internalType": "uint8",
          "name": "_vt",
          "type": "uint8"
        },
        {
          "internalType": "address",
          "name": "newMember",
          "type": "address"
        }
      ],
      "name": "add",
      "outputs": [],
      "payable": false,
      "stateMutability": "nonpayable",
      "type": "function",
      "signature": "0x6b2019d4"
    },
    {
      "constant": true,
      "inputs": [
        {
          "internalType": "string",
          "name": "source",
          "type": "string"
        }
      ],
      "name": "string32ToBytes32",
      "outputs": [
        {
          "internalType": "bytes32",
          "name": "result",
          "type": "bytes32"
        }
      ],
      "payable": false,
      "stateMutability": "pure",
      "type": "function",
      "signature": "0x29eece6f"
    },
    {
      "constant": true,
      "inputs": [
        {
          "internalType": "string",
          "name": "source",
          "type": "string"
        }
      ],
      "name": "splitToAddresses",
      "outputs": [
        {
          "internalType": "address[]",
          "name": "result",
          "type": "address[]"
        }
      ],
      "payable": false,
      "stateMutability": "pure",
      "type": "function",
      "signature": "0x77456a7b"
    },
    {
      "constant": true,
      "inputs": [
        {
          "internalType": "bytes",
          "name": "b",
          "type": "bytes"
        }
      ],
      "name": "bytesToBytes4",
      "outputs": [
        {
          "internalType": "bytes4",
          "name": "bts",
          "type": "bytes4"
        }
      ],
      "payable": false,
      "stateMutability": "pure",
      "type": "function",
      "signature": "0x83c7f14c"
    },
    {
      "constant": true,
      "inputs": [
        {
          "internalType": "bytes",
          "name": "b",
          "type": "bytes"
        }
      ],
      "name": "bytesToBytes32",
      "outputs": [
        {
          "internalType": "bytes32",
          "name": "bts",
          "type": "bytes32"
        }
      ],
      "payable": false,
      "stateMutability": "pure",
      "type": "function",
      "signature": "0xbfe370d9"
    },
    {
      "constant": true,
      "inputs": [
        {
          "internalType": "bytes32",
          "name": "_bytes32",
          "type": "bytes32"
        }
      ],
      "name": "bytes32ToBytes",
      "outputs": [
        {
          "internalType": "bytes",
          "name": "",
          "type": "bytes"
        }
      ],
      "payable": false,
      "stateMutability": "pure",
      "type": "function",
      "signature": "0x4c0999c7"
    },
    {
      "constant": true,
      "inputs": [
        {
          "internalType": "bytes32",
          "name": "_bytes32",
          "type": "bytes32"
        }
      ],
      "name": "bytes32ToString",
      "outputs": [
        {
          "internalType": "string",
          "name": "",
          "type": "string"
        }
      ],
      "payable": false,
      "stateMutability": "pure",
      "type": "function",
      "signature": "0x9201de55"
    },
    {
      "constant": true,
      "inputs": [
        {
          "internalType": "bytes",
          "name": "data",
          "type": "bytes"
        }
      ],
      "name": "bytesSplit4",
      "outputs": [
        {
          "internalType": "bytes4",
          "name": "",
          "type": "bytes4"
        },
        {
          "internalType": "bytes",
          "name": "",
          "type": "bytes"
        }
      ],
      "payable": false,
      "stateMutability": "pure",
      "type": "function",
      "signature": "0xe381047d"
    },
    {
      "constant": true,
      "inputs": [
        {
          "internalType": "bytes",
          "name": "data",
          "type": "bytes"
        }
      ],
      "name": "bytesSplit32",
      "outputs": [
        {
          "internalType": "bytes32",
          "name": "",
          "type": "bytes32"
        },
        {
          "internalType": "bytes",
          "name": "",
          "type": "bytes"
        }
      ],
      "payable": false,
      "stateMutability": "pure",
      "type": "function",
      "signature": "0x26a9cdf7"
    },
    {
      "constant": true,
      "inputs": [
        {
          "internalType": "string",
          "name": "name",
          "type": "string"
        }
      ],
      "name": "encodeFunctionName",
      "outputs": [
        {
          "internalType": "bytes4",
          "name": "",
          "type": "bytes4"
        }
      ],
      "payable": false,
      "stateMutability": "pure",
      "type": "function",
      "signature": "0x94c6f3b1"
    },
    {
      "constant": true,
      "inputs": [
        {
          "internalType": "string",
          "name": "packed",
          "type": "string"
        }
      ],
      "name": "unpackData",
      "outputs": [
        {
          "internalType": "bytes32[]",
          "name": "result",
          "type": "bytes32[]"
        }
      ],
      "payable": false,
      "stateMutability": "pure",
      "type": "function",
      "signature": "0xe505b8f2"
    },
    {
      "constant": false,
      "inputs": [
        {
          "internalType": "bytes32",
          "name": "poll32",
          "type": "bytes32"
        },
        {
          "internalType": "bytes4",
          "name": "fnNameHash",
          "type": "bytes4"
        },
        {
          "internalType": "bytes32",
          "name": "data",
          "type": "bytes32"
        },
        {
          "internalType": "uint8",
          "name": "vt",
          "type": "uint8"
        }
      ],
      "name": "storeResult",
      "outputs": [],
      "payable": false,
      "stateMutability": "nonpayable",
      "type": "function",
      "signature": "0x06efc69c"
    },
    {
      "constant": true,
      "inputs": [
        {
          "internalType": "string",
          "name": "_poll",
          "type": "string"
        },
        {
          "internalType": "uint8",
          "name": "validationType",
          "type": "uint8"
        }
      ],
      "name": "serialiseStakers",
      "outputs": [
        {
          "internalType": "string",
          "name": "",
          "type": "string"
        }
      ],
      "payable": false,
      "stateMutability": "view",
      "type": "function",
      "signature": "0x56024939"
    },
    {
      "constant": true,
      "inputs": [
        {
          "internalType": "string",
          "name": "_poll",
          "type": "string"
        },
        {
          "internalType": "uint8",
          "name": "validationType",
          "type": "uint8"
        }
      ],
      "name": "serialiseProofs",
      "outputs": [
        {
          "internalType": "string",
          "name": "",
          "type": "string"
        }
      ],
      "payable": false,
      "stateMutability": "view",
      "type": "function",
      "signature": "0x13311a1c"
    },
    {
      "constant": false,
      "inputs": [
        {
          "internalType": "address",
          "name": "_pollContract",
          "type": "address"
        },
        {
          "internalType": "string",
          "name": "_poll",
          "type": "string"
        },
        {
          "internalType": "bytes32",
          "name": "_reveal",
          "type": "bytes32"
        }
      ],
      "name": "xcValidate",
      "outputs": [
        {
          "internalType": "bool",
          "name": "success",
          "type": "bool"
        }
      ],
      "payable": true,
      "stateMutability": "payable",
      "type": "function",
      "signature": "0x6411df2f"
    },
    {
      "constant": false,
      "inputs": [
        {
          "internalType": "address",
          "name": "_validator",
          "type": "address"
        },
        {
          "internalType": "bytes4",
          "name": "fnNameHash",
          "type": "bytes4"
        },
        {
          "internalType": "string",
          "name": "poll",
          "type": "string"
        },
        {
          "internalType": "uint8",
          "name": "vt",
          "type": "uint8"
        },
        {
          "internalType": "bytes32[]",
          "name": "reveal",
          "type": "bytes32[]"
        }
      ],
      "name": "crossContractValidateCall",
      "outputs": [
        {
          "internalType": "bytes32[]",
          "name": "",
          "type": "bytes32[]"
        }
      ],
      "payable": false,
      "stateMutability": "nonpayable",
      "type": "function",
      "signature": "0xc1c09847"
    },
    {
      "constant": false,
      "inputs": [
        {
          "internalType": "string",
          "name": "_poll",
          "type": "string"
        },
        {
          "internalType": "string",
          "name": "data",
          "type": "string"
        }
      ],
      "name": "callValidator_MututalAgreement",
      "outputs": [
        {
          "internalType": "bool",
          "name": "",
          "type": "bool"
        }
      ],
      "payable": false,
      "stateMutability": "nonpayable",
      "type": "function",
      "signature": "0x8d894b28"
    }
  ],
  "bytecode": "0x60806040526107d0600b556105dc600c553480156200001d57600080fd5b507f1471eb6eb2c5e789fc3de43f8ce62938c7d1836ec861730447e2ada8fd81017b8054600160a060020a03191673a145493cc19b0bc6c5a2ca86e9ba38bb435e3f5b17905560408051808201909152601081527f4d757475616c2041677265656d656e740000000000000000000000000000000060208281019182526001600052600690529051620000d2917f3e5fec24aa4dc4e5aee2e025e51e1392c72a2500577559fae9665c6d52bd6a3191620000eb565b50600d8054600160a060020a0319163017905562000190565b828054600181600116156101000203166002900490600052602060002090601f016020900481019282601f106200012e57805160ff19168380011785556200015e565b828001600101855582156200015e579182015b828111156200015e57825182559160200191906001019062000141565b506200016c92915062000170565b5090565b6200018d91905b808211156200016c576000815560010162000177565b90565b6120ce80620001a06000396000f3fe608060405260043610610168576000357c01000000000000000000000000000000000000000000000000000000009004806383c7f14c116100d3578063965457ba1161008c578063965457ba14610573578063bfe370d914610384578063c1c0984714610593578063d122491a146105c0578063e381047d146105e0578063e505b8f21461060e57610168565b806383c7f14c146104a9578063893d20e8146104d15780638d894b28146104f35780638ee879c7146105135780639201de551461053357806394c6f3b11461055357610168565b8063560249391161012557806356024939146103ec5780635e3e225f146104075780636411df2f146104275780636b2019d4146104475780637197624e1461046757806377456a7b1461047c57610168565b806306efc69c1461030857806313311a1c1461032557806326a9cdf71461035657806329eece6f14610384578063406de18c146103ac5780634c0999c7146103cc575b60606000368080601f016020809104026020016040519081016040528093929190818152602001838380828437600092018290525093945060609250839150819050826101b48661062e565b945092506101c184610776565b90955093506101cf84610776565b60408051808201909152600681527f7374616b6572000000000000000000000000000000000000000000000000000060208201529193509150610211906108a7565b7bffffffffffffffffffffffffffffffffffffffffffffffffffffffff198481169116141561025f5761025c610257610249876108b2565b610252846108c5565b610914565b61093a565b91505b61029d6040518060400160405280600581526020017f70726f6f660000000000000000000000000000000000000000000000000000008152506108a7565b7bffffffffffffffffffffffffffffffffffffffffffffffffffffffff19848116911614156102e6576102e36102576102d5876108b2565b6102de846108c5565b610941565b91505b6102fa8584846102f5856108c5565b610966565b610100604051605881538181f35b34801561031457600080fd5b506103236102f5366004611936565b005b34801561033157600080fd5b506103406102de366004611bc7565b60405161034d9190611ec2565b60405180910390f35b34801561036257600080fd5b50610376610371366004611997565b610776565b60405161034d929190611e86565b34801561039057600080fd5b5061039f610257366004611997565b60405161034d9190611e78565b3480156103b857600080fd5b5061039f6103c73660046117f0565b6109d9565b3480156103d857600080fd5b506103406103e7366004611918565b6109eb565b3480156103f857600080fd5b50610340610252366004611bc7565b34801561041357600080fd5b50610323610422366004611b2b565b610a60565b61043a6104353660046118b3565b610ab8565b60405161034d9190611e6a565b34801561045357600080fd5b50610323610462366004611aa7565b610ac1565b34801561047357600080fd5b50610340610b3f565b34801561048857600080fd5b5061049c610497366004611997565b610cc8565b60405161034d9190611e48565b3480156104b557600080fd5b506104c4610257366004611997565b60405161034d9190611ea6565b3480156104dd57600080fd5b506104e6610dd4565b60405161034d9190611e3a565b3480156104ff57600080fd5b5061043a61050e3660046119cc565b610df1565b34801561051f57600080fd5b5061034061052e366004611c0e565b610fe2565b34801561053f57600080fd5b5061034061054e366004611918565b6108b2565b34801561055f57600080fd5b506104c461056e366004611997565b6108a7565b34801561057f57600080fd5b506104e661058e366004611c0e565b61107d565b34801561059f57600080fd5b506105b36105ae36600461180e565b6110a5565b60405161034d9190611e59565b3480156105cc57600080fd5b506105b36105db366004611a35565b6110fb565b3480156105ec57600080fd5b506106006105fb366004611997565b61062e565b60405161034d929190611eb4565b34801561061a57600080fd5b506105b3610629366004611997565b611192565b8051600090606090600490839082101561064c578160ff1685510390505b600060608360ff166040519080825280601f01601f19166020018201604052801561067e576020820181803883390190505b5090506060836040519080825280601f01601f1916602001820160405280156106ae576020820181803883390190505b50905060005b6001895103811161075f578560ff16811015610710578881815181106106d657fe5b602001015160f860020a900460f860020a028382815181106106f457fe5b6020010190600160f860020a031916908160001a905350610757565b88818151811061071c57fe5b602001015160f860020a900460f860020a02828760ff1683038151811061073f57fe5b6020010190600160f860020a031916908160001a9053505b6001016106b4565b506107698261093a565b9650945050505050915091565b80516000906060906020908390821015610794578160ff1685510390505b600060608360ff166040519080825280601f01601f1916602001820160405280156107c6576020820181803883390190505b5090506060836040519080825280601f01601f1916602001820160405280156107f6576020820181803883390190505b50905060005b6001895103811161075f578560ff168110156108585788818151811061081e57fe5b602001015160f860020a900460f860020a0283828151811061083c57fe5b6020010190600160f860020a031916908160001a90535061089f565b88818151811061086457fe5b602001015160f860020a900460f860020a02828760ff1683038151811061088757fe5b6020010190600160f860020a031916908160001a9053505b6001016107fc565b805160209091012090565b6060806108be836109eb565b9392505050565b600060018251101561090c576040517f08c379a000000000000000000000000000000000000000000000000000000000815260040161090390611ed3565b60405180910390fd5b506001015190565b606080604051806060016040528060248152602001612068602491399150505b92915050565b6020015190565b6060806040518060600160405280602381526020016120456023913990505092915050565b8060ff16600114156109d357600084848360405160200161098993929190611deb565b6040516020818303038152906040528051906020012090506109ad610629846108b2565b600082815260026020908152604090912082516109d09391929190910190611677565b50505b50505050565b60076020526000908152604090205481565b60408051602080825281830190925260609182919060208201818038833901905050905060005b6020811015610a5957838160208110610a2757fe5b1a60f860020a02828281518110610a3a57fe5b6020010190600160f860020a031916908160001a905350600101610a12565b5092915050565b600084610a6c856108a7565b84604051602001610a7f93929190611e22565b60408051601f1981840301815291815281516020928301206000818152600284529190912084519193506109d092909190850190611677565b60009392505050565b600084610acd856108a7565b84604051602001610ae093929190611e22565b60408051808303601f19018152918152815160209283012060009081526002835290812080546001810182559082529190206c01000000000000000000000000939093026bffffffffffffffffffffffff191692019190915550505050565b606060007f71776572747975696f706173646667686a6b6c7a786376626e6d31323334353660010290506060808282600081518110610b7a57fe5b6020026020010181815250508282600081518110610b9457fe5b6020026020010181815250508281600181518110610bae57fe5b6020026020010181815250508281600181518110610bc857fe5b602002602001018181525050610c4b6040518060400160405280602081526020017f646f6f646c652e636f6d2f706f6c6c2f723972623335666969627673336161358152506040518060400160405280600681526020017f7374616b65720000000000000000000000000000000000000000000000000000815250600185610a60565b610cc26040518060400160405280602081526020017f646f6f646c652e636f6d2f706f6c6c2f723972623335666969627673336161358152506040518060400160405280600581526020017f70726f6f66000000000000000000000000000000000000000000000000000000815250600184610a60565b50505090565b6060610cd26116c2565b610cdb8361120e565b9050610ce56116c2565b610d236040518060400160405280600181526020017f2c0000000000000000000000000000000000000000000000000000000000000081525061120e565b90506060610d37838363ffffffff61123316565b600101604051908082528060200260200182016040528015610d63578160200160208202803883390190505b50905060005b8151811015610dcb57610d92610d8d610d88868663ffffffff61129916565b6112ac565b6112fc565b828281518110610d9e57fe5b73ffffffffffffffffffffffffffffffffffffffff90921660209283029190910190910152600101610d69565b50949350505050565b60005473ffffffffffffffffffffffffffffffffffffffff165b90565b60016000818152600660209081527f3e5fec24aa4dc4e5aee2e025e51e1392c72a2500577559fae9665c6d52bd6a31805460408051600283881615610100026000190190931692909204601f8101859004850283018501909152808252939493610ee993919291830182828015610ea95780601f10610e7e57610100808354040283529160200191610ea9565b820191906000526020600020905b815481529060010190602001808311610e8c57829003601f168201915b50505050506040518060400160405280601081526020017f4d757475616c2041677265656d656e740000000000000000000000000000000081525061146f565b610eef57fe5b60ff8116600090815260056020526040812054606091610f279173ffffffffffffffffffffffffffffffffffffffff16908790610ab8565b5060ff8216600090815260056020908152604091829020548251808401909352600883527f76616c696461746500000000000000000000000000000000000000000000000091830191909152610fa19173ffffffffffffffffffffffffffffffffffffffff90911690610f99906108a7565b8785856110a5565b507fd65038c0be209d4ae257f7e73a69b8b787796717cd2ce67d00d7e02c9de1020e6000604051610fd29190611e6a565b60405180910390a1505092915050565b60066020908152600091825260409182902080548351601f6002600019610100600186161502019093169290920491820184900484028101840190945280845290918301828280156110755780601f1061104a57610100808354040283529160200191611075565b820191906000526020600020905b81548152906001019060200180831161105857829003601f168201915b505050505081565b60056020526000908152604090205473ffffffffffffffffffffffffffffffffffffffff1681565b60405160609086906020907f1ff50e4650f7f1e5b26a5f5e921b803deee4a95a1b6ef46e05992b3bc1dcdb8c90600090a160405136600082376000803683865af43d806000843e8180156110f7578184f35b8184fd5b6060600084611109856108a7565b8460405160200161111c93929190611e22565b60408051601f198184030181528282528051602091820120600081815260028352839020805480840286018401909452838552909450919083018282801561118357602002820191906000526020600020905b81548152602001906001019080831161116f575b50505050509150509392505050565b60608061119e83610cc8565b80519091505b60001981019060ff161561120757818160ff16815181106111c157fe5b60200260200101516c01000000000000000000000000026bffffffffffffffffffffffff1916838260ff16815181106111f657fe5b6020026020010181815250506111a4565b5050919050565b6112166116c2565b506040805180820190915281518152602082810190820152919050565b6000808260000151611257856000015186602001518660000151876020015161150b565b0190505b83516020850151018111610a5957825160208086015186519186015160019095019461129192918503909103908490849061150b565b01905061125b565b6112a16116c2565b610a598383836115c8565b60608082600001516040519080825280601f01601f1916602001820160405280156112de576020820181803883390190505b5090506000602082019050610a598185602001518660000151611639565b60008181808060025b602a811015611464576101008402935084818151811061132157fe5b602001015160f860020a900460f860020a0260f860020a9004925084816001018151811061134b57fe5b602001015160f860020a900460f860020a0260f860020a9004915060618360ff161015801561137e575060668360ff1611155b1561138e576057830392506113da565b60308360ff16101580156113a6575060398360ff1611155b156113b6576030830392506113da565b60418360ff16101580156113ce575060468360ff1611155b156113da576037830392505b60618260ff16101580156113f2575060668260ff1611155b156114025760578203915061144e565b60308260ff161015801561141a575060398260ff1611155b1561142a5760308203915061144e565b60418260ff1610158015611442575060468260ff1611155b1561144e576037820391505b60ff601084028301169390930192600201611305565b509195945050505050565b80518251600091849184911461148a57600092505050610934565b60005b82518110156114ff578181815181106114a257fe5b602001015160f860020a900460f860020a02600160f860020a0319168382815181106114ca57fe5b602001015160f860020a900460f860020a02600160f860020a031916146114f75760009350505050610934565b60010161148d565b50600195945050505050565b600083818685116115b9576020851161157e5783518251600019600860208990030260020a011991821690888a018890039083165b8281146115705781861061155e578a8a0196505050505050506115c0565b50600190940180519094908316611540565b8596505050505050506115c0565b508383206000905b85880382116115b757858320818114156115a657839450505050506115c0565b506001928301929190910190611586565b505b5050508284015b949350505050565b6115d06116c2565b60006115ee856000015186602001518660000151876020015161150b565b6020808701805191860191909152805182038552865190519192500181141561161a5760008552611630565b8351835186519101900385528351810160208601525b50909392505050565b5b60208110611659578151835260209283019290910190601f190161163a565b905182516020929092036101000a6000190180199091169116179052565b8280548282559060005260206000209081019282156116b2579160200282015b828111156116b2578251825591602001919060010190611697565b506116be9291506116dc565b5090565b604051806040016040528060008152602001600081525090565b610dee91905b808211156116be57600081556001016116e2565b803561093481612012565b600082601f83011261171257600080fd5b813561172561172082611f0a565b611ee3565b9150818183526020840193506020810190508385602084028201111561174a57600080fd5b60005b8381101561177657816117608882611780565b845250602092830192919091019060010161174d565b5050505092915050565b803561093481612029565b803561093481612032565b600082601f8301126117a757600080fd5b81356117b561172082611f2b565b915080825260208301602083018583830111156117d157600080fd5b6117dc838284611fbc565b50505092915050565b80356109348161203b565b60006020828403121561180257600080fd5b60006115c084846116f6565b600080600080600060a0868803121561182657600080fd5b600061183288886116f6565b95505060206118438882890161178b565b945050604086013567ffffffffffffffff81111561186057600080fd5b61186c88828901611796565b935050606061187d888289016117e5565b925050608086013567ffffffffffffffff81111561189a57600080fd5b6118a688828901611701565b9150509295509295909350565b6000806000606084860312156118c857600080fd5b60006118d486866116f6565b935050602084013567ffffffffffffffff8111156118f157600080fd5b6118fd86828701611796565b925050604061190e86828701611780565b9150509250925092565b60006020828403121561192a57600080fd5b60006115c08484611780565b6000806000806080858703121561194c57600080fd5b60006119588787611780565b94505060206119698782880161178b565b935050604061197a87828801611780565b925050606061198b878288016117e5565b91505092959194509250565b6000602082840312156119a957600080fd5b813567ffffffffffffffff8111156119c057600080fd5b6115c084828501611796565b600080604083850312156119df57600080fd5b823567ffffffffffffffff8111156119f657600080fd5b611a0285828601611796565b925050602083013567ffffffffffffffff811115611a1f57600080fd5b611a2b85828601611796565b9150509250929050565b600080600060608486031215611a4a57600080fd5b833567ffffffffffffffff811115611a6157600080fd5b611a6d86828701611796565b935050602084013567ffffffffffffffff811115611a8a57600080fd5b611a9686828701611796565b925050604061190e868287016117e5565b60008060008060808587031215611abd57600080fd5b843567ffffffffffffffff811115611ad457600080fd5b611ae087828801611796565b945050602085013567ffffffffffffffff811115611afd57600080fd5b611b0987828801611796565b9350506040611b1a878288016117e5565b925050606061198b878288016116f6565b60008060008060808587031215611b4157600080fd5b843567ffffffffffffffff811115611b5857600080fd5b611b6487828801611796565b945050602085013567ffffffffffffffff811115611b8157600080fd5b611b8d87828801611796565b9350506040611b9e878288016117e5565b925050606085013567ffffffffffffffff811115611bbb57600080fd5b61198b87828801611701565b60008060408385031215611bda57600080fd5b823567ffffffffffffffff811115611bf157600080fd5b611bfd85828601611796565b9250506020611a2b858286016117e5565b600060208284031215611c2057600080fd5b60006115c084846117e5565b6000611c388383611c4c565b505060200190565b6000611c388383611d0b565b611c5581611f6b565b82525050565b6000611c6682611f59565b611c708185611f5d565b9350611c7b83611f53565b8060005b83811015611ca9578151611c938882611c2c565b9750611c9e83611f53565b925050600101611c7f565b509495945050505050565b6000611cbf82611f59565b611cc98185611f5d565b9350611cd483611f53565b8060005b83811015611ca9578151611cec8882611c40565b9750611cf783611f53565b925050600101611cd8565b611c5581611f76565b611c5581610dee565b611c55611d2082610dee565b610dee565b611c5581611f7b565b611c55611d2082611f7b565b6000611d4582611f59565b611d4f8185611f5d565b9350611d5f818560208601611fc8565b611d6881611fff565b9093019392505050565b6000611d7d82611f59565b611d878185611f66565b9350611d97818560208601611fc8565b9290920192915050565b6000611dae601283611f5d565b7f52656164206f7574206f6620626f756e64730000000000000000000000000000815260200192915050565b611c55611de682611fb6565b611ff4565b6000611df78286611d14565b602082019150611e078285611d2e565b600482019150611e178284611dda565b506001019392505050565b6000611e2e8286611d72565b9150611e078285611d2e565b602081016109348284611c4c565b602080825281016108be8184611c5b565b602080825281016108be8184611cb4565b602081016109348284611d02565b602081016109348284611d0b565b60408101611e948285611d0b565b81810360208301526115c08184611d3a565b602081016109348284611d25565b60408101611e948285611d25565b602080825281016108be8184611d3a565b6020808252810161093481611da1565b60405181810167ffffffffffffffff81118282101715611f0257600080fd5b604052919050565b600067ffffffffffffffff821115611f2157600080fd5b5060209081020190565b600067ffffffffffffffff821115611f4257600080fd5b506020601f91909101601f19160190565b60200190565b5190565b90815260200190565b919050565b600061093482611f9d565b151590565b7bffffffffffffffffffffffffffffffffffffffffffffffffffffffff191690565b73ffffffffffffffffffffffffffffffffffffffff1690565b60ff1690565b82818337506000910152565b60005b83811015611fe3578181015183820152602001611fcb565b838111156109d35750506000910152565b600061093482612009565b601f01601f191690565b60f860020a0290565b61201b81611f6b565b811461202657600080fd5b50565b61201b81610dee565b61201b81611f7b565b61201b81611fb656fe526573756c7421202d2066726f6d20706f6c6c2e73657269616c69736550726f6f6673526573756c7421202d2066726f6d20706f6c6c2e73657269616c6973655374616b657273a365627a7a72315820d20e0c157a123a92ed65c82e7a1dcc897f8450dd39f31855161804ff54108cba6c6578706572696d656e74616cf564736f6c63430005110040",
  "source": "pragma solidity ^0.5.7;\npragma experimental ABIEncoderV2;\n\nimport \"./strings.sol\";\n// import \"github.com/GNSPS/solidity-bytes-utils/contracts/BytesLib.sol\";   // requires sol 0.5+\nimport \"./stringCasting.sol\";\n\ncontract PollReference {\n    // Common storage structure for ALL contacts using this storage.\n    // _, __, __ , etc are unused in this contract, but must remain to occupy their slots.\n\n    address owner;  // is set by TokenStorage.. but retain types and order.\n\n    struct TimeRange {\n      uint start;\n      uint end;\n    }\n\n    struct Stake {\n      uint rep;\n      TimeRange[] available;\n      uint availabilityExpires;\n    }\n\n    struct Dibs {\n      address payer;\n      address recipient;\n      uint amount;\n    }\n\n    struct Poll {\n      address initiator;\n      uint minStake;\n      int venueCost;\n      uint venuePot;\n      address venuePayer;\n      uint8 minParticipants;\n      TimeRange eventTime;\n      bool proofsWindowClosed;\n      mapping (address => Stake) staked;\n      mapping (address => uint16) ownCheckInIndex;           // 1-indexed: ownCheckInIndex[s]==0 => nothing there.\n      Dibs[] dibsCalled;\n    }\n\n    // shared across contracts\n    mapping (address => uint) rep;\n    mapping (bytes32 => bytes32[]) allTheData;\n    mapping (bytes32 => Poll) pollData;\n    mapping (bytes32 => bool) resultsCache;\n\n    // used only in Poll\n    mapping(uint8 => address) public validators;\n    mapping(uint8 => string) public validatorNames;\n    mapping(address => uint) public cashBalance;\n    mapping(address => bool) internal stakerKnown;      // will move to Poll\n    mapping(address => bool) internal isCurrentMiner;      // will move to Poll\n    address[] knownMiners;\n    uint initialRep = 2000;      // will move to Poll\n    uint topupRep = 1500;        // will move to Poll\n    address selfAddy ;\n\n    // unused - previously for Storage Proxy\n    //    mapping (address => bool) internal _allowedAccess;\n\n\n    using strings for *;\n    using stringcast for string;\n\n    constructor () public /* is PollCommunity */ {\n        validators[1] = address(0xA145493CC19b0BC6C5a2cA86e9BA38BB435E3F5b);\n        validatorNames[1] = \"Mutual Agreement\";\n        selfAddy = address(this);\n        // constructed = 1;\n    }\n\n\n    // function getPollOK() public view returns (uint8) {\n    //   return ok;\n    // }\n    //\n    // function setPollOK (uint8 _ok) public {\n    //   ok = _ok;\n    // }\n    //\n    // function getPollResult() public view returns (uint8) {\n    //   return result;\n    // }\n    //\n    // function setPollResult (uint8 _result) public {\n    //   result = _result;\n    // }\n    //\n    // function getMyMap(uint idx) public view returns (uint) {\n    //   return myMap[idx];\n    // }\n    //\n    // function setMyMap (uint idx, uint _myMap) public {\n    //   myMap[idx] = _myMap;\n    // }\n\n    function getOwner() public view returns (address) {\n      return owner;\n    }\n\n    function() external payable {\n        // NB sol 0.6+ better syntax for calldata arrays : https://solidity.readthedocs.io/en/v0.6.0/types.html#array-slices\n        bytes memory input = msg.data;\n\n        // TODO: This is V.0 accepting a string (really a bytes32) of EXACTLY 32 bytes, eg a doodle poll without the https:// ;)\n        bytes32 poll32;\n        bytes memory rest;\n        bytes4 fnNameHash;\n        bytes32 result;\n        bytes memory vType;\n\n        (fnNameHash, rest) = (bytesSplit4(input));\n        (poll32, rest) = (bytesSplit32(rest));\n        (result, vType) = (bytesSplit32(rest));\n\n        if (fnNameHash == encodeFunctionName(\"staker\")) {\n            //NB wrapping these in bytes32 for testing, but keep as strings until you are ready to deserialise bytes32, cos they still good here!\n            // NB serialiseStakers depreacted - removed from validaotr\n            result = string32ToBytes32( serialiseStakers(bytes32ToString(poll32), toUint8(vType)) );\n        }\n        // NB serialiseProofs deprecated - removed from validator\n        if (fnNameHash == encodeFunctionName(\"proof\")) {\n            //NB wrapping these in bytes32 for testing, but keep as strings until you are ready to deserialise bytes32, cos they still good here!\n            result = string32ToBytes32(serialiseProofs(bytes32ToString(poll32), toUint8(vType)) );\n        }\n        // Warning: This hack introduces possible griefing attack - better would be to force EVM to return the result of this lookup from fallback, not store and retreive it :/\n\n        storeResult(poll32, fnNameHash, result, toUint8(vType));\n\n        assembly {\n            let size := 256\n            let ptr := mload(0x40)\n            mstore8(ptr, 88)\n            return(ptr, size)\n        }\n    }\n\n    // function ownAddress () public view returns (address) {\n    //     return selfAddy;\n    // }\n    //\n    // function getStateVars () public view returns (uint256, address, string memory, address, int8) {\n    //     return (notes, validators[1], validatorNames[1], selfAddy, constructed);\n    // }\n    //\n    // event ValidatorSet();\n    // function setValidator1 (address newAddy) public returns (bool) {\n    //     validators[1] = newAddy;\n    //     emit ValidatorSet();\n    //     return true;\n    // }\n    //\n    // function getValidator1 () public view returns (address) {\n    //     return validators[1];\n    // }\n    //\n    // function setValidator1Name (string memory newName) public returns (bool) {\n    //     validatorNames[1] = newName;\n    //     emit ValidatorSet();\n    //     return true;\n    // }\n    //\n    // function getValidator1Name () public view returns (string memory) {\n    //     return validatorNames[1];\n    // }\n\n    // event RetrievedDataCache(string, uint256, bytes32[]);\n    function retrieve (string memory _poll, string memory _mapName, uint8 _vt) public view returns (bytes32[] memory) {\n        bytes32 hash = keccak256(abi.encodePacked(_poll, encodeFunctionName(_mapName), _vt));\n        // emit RetrievedDataCache(\"Poll context:\", notes, allTheData[hash]);\n        return (allTheData[hash]);\n    }\n\n    function set (string memory _poll, string memory _mapName, uint8 _vt, bytes32[] memory data) public {\n      bytes32 hash = keccak256(abi.encodePacked(_poll, encodeFunctionName(_mapName), _vt));\n      allTheData[hash] = data;\n    }\n\n    function justSetStuff() public returns (string memory ace) {\n      bytes32 b1 = bytes32(0x71776572747975696f706173646667686a6b6c7a786376626e6d313233343536);\n      bytes32[] memory inp1;\n      bytes32[] memory inp2;\n      inp1[0] = b1;\n      inp1[0] = b1;\n      inp2[1] = b1;\n      inp2[1] = b1;\n      // NB serialiseProofs deprecated - removed from validator\n      set (\"doodle.com/poll/r9rb35fiibvs3aa5\", \"staker\", 1, inp1);\n      set (\"doodle.com/poll/r9rb35fiibvs3aa5\", \"proof\", 1, inp2);\n    }\n\n    function add (string memory _poll, string memory _mapName, uint8 _vt, address newMember) public {\n      bytes32 hash = keccak256(abi.encodePacked(_poll, encodeFunctionName(_mapName), _vt));\n      allTheData[hash].push (bytes32(bytes20(newMember)));\n    }\n\n    function stringsEqual (string memory _a, string memory _b) internal pure returns (bool) {\n        bytes memory a = bytes(_a);\n        bytes memory b = bytes(_b);\n\n        if (a.length != b.length)\n            return false;\n\n        for (uint i = 0; i < a.length; i ++)\n            if (a[i] != b[i])\n                return false;\n\n        return true;\n    }\n\n    function string32ToBytes32(string memory source) public pure returns (bytes32 result) {\n        assembly {\n        result := mload(add(source, 32))\n        }\n    }\n\n    // split a serialised string of addresses (as received from main contract).\n    // NB - only works in mutual agreement validator - other validators will use multiple types within serialised string\n    function splitToAddresses(string memory source) public pure returns (address[] memory result) {\n        strings.slice memory packed = source.toSlice();\n        strings.slice memory delim = \",\".toSlice();\n        address[] memory parts = new address[](packed.count(delim)+1);  // why doesn't this lose a member?\n\n        for(uint i = 0; i < parts.length; i++) {\n           parts[i] = packed.split(delim).toString().toAddress();\n        }\n        return parts;\n    }\n\n    // function stringToBytes32(string memory source) {\n    //     bytes32[] memory result;\n    //     strings.slice memory remainder = source.toSlice();\n    //     while (remainder.length >= 32) {\n\n    //     }\n\n    // }\n\n\n\n    function bytesToBytes4(bytes  memory b)  public pure returns (bytes4 bts) {\n        bytes4 i = 0x50505050;\n        assembly { i := mload(add(b, 0x20)) }\n        bts = i;\n    }\n\n    function bytesToBytes32(bytes  memory b)  public pure returns (bytes32 bts) {\n        bytes32 i;\n        //NB size etc= 32b = 0x20b\n        assembly { i := mload(add(b, 0x20)) }\n        bts = i;\n    }\n\n    function toUint8(bytes memory _bytes) internal pure returns (uint8) {\n        require(_bytes.length >= (1), \"Read out of bounds\");\n        uint8 tempUint;\n\n        assembly {\n            tempUint := mload(add(add(_bytes, 0x1), 0))\n        }\n\n        return tempUint;\n    }\n\n    function bytes32ToBytes(bytes32 _bytes32) public pure returns (bytes memory){\n        // string memory str = string(_bytes32);\n        // TypeError: Explicit type conversion not allowed from \"bytes32\" to \"string storage pointer\"\n        bytes memory bytesArray = new bytes(32);\n        for (uint256 i; i < 32; i++) {\n            bytesArray[i] = _bytes32[i];\n        }\n        return bytesArray;\n    }\n\n    function bytes32ToString(bytes32 _bytes32) public pure returns (string memory){\n        bytes memory bytesArray = bytes32ToBytes(_bytes32);\n        return string(bytesArray);\n    }\n\n    function bytesSplit4(bytes memory data) public pure returns (bytes4, bytes memory) {\n        uint8 splitAt = 4;                             // all (if variable split, pass in splitAt)\n        uint256 taillength = 0;\n        if (data.length > splitAt)\n            taillength = data.length-splitAt;\n        bytes4 temp;\n        // bytes4 head;                                   // 4b split\n        bytes memory head = new bytes(splitAt);         // variable length split\n        bytes memory tail = new bytes(taillength);\n        for(uint i=0;i<=data.length-1;i++){\n            if (i<splitAt)\n                head[i] = bytes(data)[i] ;\n            else\n                tail[i-splitAt] = bytes(data)[i] ;\n        }\n        return (bytesToBytes4(head), tail);\n    }\n\n    function bytesSplit32(bytes memory data) public pure returns (bytes32, bytes memory) {\n        uint8 splitAt = 32;                             // all (if variable split, pass in splitAt)\n        uint256 taillength = 0;\n        if (data.length > splitAt)\n            taillength = data.length-splitAt;\n        bytes32 temp;\n        // bytes32 head;                                   // 32b split\n        bytes memory head = new bytes(splitAt);         // variable length split\n        bytes memory tail = new bytes(taillength);\n        for(uint i=0;i<=data.length-1;i++){\n            if (i<splitAt)\n                head[i] = bytes(data)[i] ;\n            else\n                tail[i-splitAt] = bytes(data)[i] ;\n        }\n        return (bytesToBytes32(head), tail);\n    }\n\n\n    function encodeFunctionName (string memory name) public pure returns (bytes4) {\n        // TODO: cache for readability!\n        // if (\"staker\")\n        //     return\n        // if (\"proof\")\n        //     return\n        return bytes4(keccak256(bytes(name)));\n    }\n\n    // temporary functionality to repoint to simple example, eg splitToAddresses\n    function unpackData (string memory packed) public pure returns (bytes32[] memory result) {\n        //NB relying on splitToAddresses doing string splitting here, as we rely on .length - available only on fixed size array.\n        address[] memory asAddresses = splitToAddresses(packed) ;\n        uint8 i = uint8(asAddresses.length) ;\n\n        while (i-- > 0) {\n            result[i] = bytes32(bytes20(asAddresses[i]));\n        }\n        return result;\n    }\n\n    function storeResult(bytes32 poll32, bytes4 fnNameHash, bytes32 data, uint8 vt)  public {\n        // uint256 notesToStore = 10000+vt;\n        if (vt == 1) {\n\n            bytes32 hash = keccak256(abi.encodePacked(poll32, fnNameHash, vt));\n\n            allTheData[hash] = unpackData(bytes32ToString(data));\n            // notesToStore=260;\n        }\n        // notes += notesToStore;\n    }\n\n    function serialiseStakers(string memory _poll, uint8 validationType) public view returns (string memory) {\n        string memory result = \"Result! - from poll.serialiseStakers\";\n        return result;\n    }\n\n    function serialiseProofs(string memory _poll, uint8 validationType) public view returns (string memory) {\n        string memory result = \"Result! - from poll.serialiseProofs\";\n    }\n\n    function xcValidate(address _pollContract, string memory _poll, bytes32 _reveal) public payable returns (bool success) {\n    }\n\n        // calls fallback function of contract at validatorAddress, passing 4 byte encoded function name to it to select method.\n    // NB in sol 0.6 + fallback cannot return anything\n    // NB future optimisation : we are not using the functionality of string here, since string must have come from a bytes32\n    event CrossContractValidateBegin();\n    event CrossContractValidateEnd();\n    function crossContractValidateCall (address _validator, bytes4 fnNameHash, string memory poll, uint8 vt, bytes32[] memory reveal)  public returns (bytes32[] memory) {\n        address validator = _validator;\n\n        uint8 offset = 32;\n        // NB 32b offset as space for validator contract address! (assumes no tight packing in calldata)\n        // TODO: this will need to be chucked at the other end, unless you want to do the subtraction in assembly :/\n\n        emit CrossContractValidateBegin();\n        assembly {\n            let ptr := mload(0x40)\n            calldatacopy(ptr, 0, calldatasize)\n            let result := delegatecall(gas, validator, ptr, calldatasize, 0, 0)\n            let size := returndatasize\n            returndatacopy(ptr, 0, size)\n            switch result\n            case 0 { revert(ptr, size) }\n            default { return(ptr, size) }\n        }\n        emit CrossContractValidateEnd();\n    }\n\n    event CrossContractValidateReturned(bool);\n    function callValidator_MututalAgreement(string memory _poll, string memory data) public returns (bool) {\n        uint8 vType = 1;\n        assert (stringsEqual(validatorNames[vType], \"Mutual Agreement\"));\n        bytes32[] memory empty;\n\n        // reveal parameter is unused in mutual agreement\n        xcValidate(validators[vType], _poll, bytes32(0) );\n        crossContractValidateCall(validators[vType], encodeFunctionName(\"validate\") , _poll, vType, empty );\n        //TODO: get return value!\n\n        emit CrossContractValidateReturned(false);\n\n\n    }\n}\n",
  "sourcePath": "/home/teide/randomCode/lunchcoin/contracts.v1/contracts/PollReference.sol",
  "compiler": {
    "name": "solc",
    "version": "0.5.17+commit.d19bba13.Emscripten.clang"
  },
  "schemaVersion": "3.0.2",
  "updatedAt": "2020-06-29T13:51:04.285Z",
  "devdoc": {
    "methods": {}
  },
  "userdoc": {
    "methods": {}
  }
}