{
  "contractName": "PollReference",
  "abi": [
    {
      "inputs": [],
      "payable": false,
      "stateMutability": "nonpayable",
      "type": "constructor"
    },
    {
      "anonymous": false,
      "inputs": [],
      "name": "CrossContractValidateBegin",
      "type": "event"
    },
    {
      "anonymous": false,
      "inputs": [],
      "name": "CrossContractValidateEnd",
      "type": "event"
    },
    {
      "anonymous": false,
      "inputs": [
        {
          "indexed": false,
          "internalType": "bool",
          "name": "",
          "type": "bool"
        }
      ],
      "name": "CrossContractValidateReturned",
      "type": "event"
    },
    {
      "payable": true,
      "stateMutability": "payable",
      "type": "fallback"
    },
    {
      "constant": true,
      "inputs": [
        {
          "internalType": "uint8",
          "name": "",
          "type": "uint8"
        }
      ],
      "name": "validatorNames",
      "outputs": [
        {
          "internalType": "string",
          "name": "",
          "type": "string"
        }
      ],
      "payable": false,
      "stateMutability": "view",
      "type": "function"
    },
    {
      "constant": true,
      "inputs": [
        {
          "internalType": "uint8",
          "name": "",
          "type": "uint8"
        }
      ],
      "name": "validators",
      "outputs": [
        {
          "internalType": "address",
          "name": "",
          "type": "address"
        }
      ],
      "payable": false,
      "stateMutability": "view",
      "type": "function"
    },
    {
      "constant": true,
      "inputs": [],
      "name": "getOwner",
      "outputs": [
        {
          "internalType": "address",
          "name": "",
          "type": "address"
        }
      ],
      "payable": false,
      "stateMutability": "view",
      "type": "function"
    },
    {
      "constant": true,
      "inputs": [],
      "name": "getFlag",
      "outputs": [
        {
          "internalType": "int256",
          "name": "",
          "type": "int256"
        }
      ],
      "payable": false,
      "stateMutability": "view",
      "type": "function"
    },
    {
      "constant": false,
      "inputs": [
        {
          "internalType": "int256",
          "name": "_flag",
          "type": "int256"
        }
      ],
      "name": "setFlag",
      "outputs": [],
      "payable": false,
      "stateMutability": "nonpayable",
      "type": "function"
    },
    {
      "constant": true,
      "inputs": [
        {
          "internalType": "string",
          "name": "_poll",
          "type": "string"
        },
        {
          "internalType": "string",
          "name": "_fnName",
          "type": "string"
        },
        {
          "internalType": "uint8",
          "name": "_vt",
          "type": "uint8"
        }
      ],
      "name": "retrieve",
      "outputs": [
        {
          "internalType": "bytes32[]",
          "name": "",
          "type": "bytes32[]"
        }
      ],
      "payable": false,
      "stateMutability": "view",
      "type": "function"
    },
    {
      "constant": false,
      "inputs": [
        {
          "internalType": "string",
          "name": "_poll",
          "type": "string"
        },
        {
          "internalType": "string",
          "name": "_fnName",
          "type": "string"
        },
        {
          "internalType": "uint8",
          "name": "_vt",
          "type": "uint8"
        },
        {
          "internalType": "bytes32[]",
          "name": "data",
          "type": "bytes32[]"
        }
      ],
      "name": "set",
      "outputs": [],
      "payable": false,
      "stateMutability": "nonpayable",
      "type": "function"
    },
    {
      "constant": false,
      "inputs": [],
      "name": "justSetStuff",
      "outputs": [
        {
          "internalType": "string",
          "name": "ace",
          "type": "string"
        }
      ],
      "payable": false,
      "stateMutability": "nonpayable",
      "type": "function"
    },
    {
      "constant": false,
      "inputs": [
        {
          "internalType": "string",
          "name": "_poll",
          "type": "string"
        },
        {
          "internalType": "string",
          "name": "_fnName",
          "type": "string"
        },
        {
          "internalType": "uint8",
          "name": "_vt",
          "type": "uint8"
        },
        {
          "internalType": "address",
          "name": "newMember",
          "type": "address"
        }
      ],
      "name": "add",
      "outputs": [],
      "payable": false,
      "stateMutability": "nonpayable",
      "type": "function"
    },
    {
      "constant": true,
      "inputs": [
        {
          "internalType": "string",
          "name": "source",
          "type": "string"
        }
      ],
      "name": "string32ToBytes32",
      "outputs": [
        {
          "internalType": "bytes32",
          "name": "result",
          "type": "bytes32"
        }
      ],
      "payable": false,
      "stateMutability": "pure",
      "type": "function"
    },
    {
      "constant": true,
      "inputs": [
        {
          "internalType": "string",
          "name": "source",
          "type": "string"
        }
      ],
      "name": "splitToAddresses",
      "outputs": [
        {
          "internalType": "address[]",
          "name": "result",
          "type": "address[]"
        }
      ],
      "payable": false,
      "stateMutability": "pure",
      "type": "function"
    },
    {
      "constant": true,
      "inputs": [
        {
          "internalType": "bytes",
          "name": "b",
          "type": "bytes"
        }
      ],
      "name": "bytesToBytes4",
      "outputs": [
        {
          "internalType": "bytes4",
          "name": "bts",
          "type": "bytes4"
        }
      ],
      "payable": false,
      "stateMutability": "pure",
      "type": "function"
    },
    {
      "constant": true,
      "inputs": [
        {
          "internalType": "bytes",
          "name": "b",
          "type": "bytes"
        }
      ],
      "name": "bytesToBytes32",
      "outputs": [
        {
          "internalType": "bytes32",
          "name": "bts",
          "type": "bytes32"
        }
      ],
      "payable": false,
      "stateMutability": "pure",
      "type": "function"
    },
    {
      "constant": true,
      "inputs": [
        {
          "internalType": "bytes32",
          "name": "_bytes32",
          "type": "bytes32"
        }
      ],
      "name": "bytes32ToBytes",
      "outputs": [
        {
          "internalType": "bytes",
          "name": "",
          "type": "bytes"
        }
      ],
      "payable": false,
      "stateMutability": "pure",
      "type": "function"
    },
    {
      "constant": true,
      "inputs": [
        {
          "internalType": "bytes32",
          "name": "_bytes32",
          "type": "bytes32"
        }
      ],
      "name": "bytes32ToString",
      "outputs": [
        {
          "internalType": "string",
          "name": "",
          "type": "string"
        }
      ],
      "payable": false,
      "stateMutability": "pure",
      "type": "function"
    },
    {
      "constant": true,
      "inputs": [
        {
          "internalType": "bytes",
          "name": "data",
          "type": "bytes"
        }
      ],
      "name": "bytesSplit4",
      "outputs": [
        {
          "internalType": "bytes4",
          "name": "",
          "type": "bytes4"
        },
        {
          "internalType": "bytes",
          "name": "",
          "type": "bytes"
        }
      ],
      "payable": false,
      "stateMutability": "pure",
      "type": "function"
    },
    {
      "constant": true,
      "inputs": [
        {
          "internalType": "bytes",
          "name": "data",
          "type": "bytes"
        }
      ],
      "name": "bytesSplit32",
      "outputs": [
        {
          "internalType": "bytes32",
          "name": "",
          "type": "bytes32"
        },
        {
          "internalType": "bytes",
          "name": "",
          "type": "bytes"
        }
      ],
      "payable": false,
      "stateMutability": "pure",
      "type": "function"
    },
    {
      "constant": true,
      "inputs": [
        {
          "internalType": "string",
          "name": "name",
          "type": "string"
        }
      ],
      "name": "encodeFunctionName",
      "outputs": [
        {
          "internalType": "bytes4",
          "name": "",
          "type": "bytes4"
        }
      ],
      "payable": false,
      "stateMutability": "pure",
      "type": "function"
    },
    {
      "constant": true,
      "inputs": [
        {
          "internalType": "string",
          "name": "packed",
          "type": "string"
        }
      ],
      "name": "unpackData",
      "outputs": [
        {
          "internalType": "bytes32[]",
          "name": "result",
          "type": "bytes32[]"
        }
      ],
      "payable": false,
      "stateMutability": "pure",
      "type": "function"
    },
    {
      "constant": false,
      "inputs": [
        {
          "internalType": "bytes32",
          "name": "poll32",
          "type": "bytes32"
        },
        {
          "internalType": "bytes4",
          "name": "fnNameHash",
          "type": "bytes4"
        },
        {
          "internalType": "bytes32",
          "name": "data",
          "type": "bytes32"
        },
        {
          "internalType": "uint8",
          "name": "vt",
          "type": "uint8"
        }
      ],
      "name": "storeResult",
      "outputs": [],
      "payable": false,
      "stateMutability": "nonpayable",
      "type": "function"
    },
    {
      "constant": true,
      "inputs": [
        {
          "internalType": "string",
          "name": "_poll",
          "type": "string"
        },
        {
          "internalType": "uint8",
          "name": "validationType",
          "type": "uint8"
        }
      ],
      "name": "serialiseStakers",
      "outputs": [
        {
          "internalType": "string",
          "name": "",
          "type": "string"
        }
      ],
      "payable": false,
      "stateMutability": "view",
      "type": "function"
    },
    {
      "constant": true,
      "inputs": [
        {
          "internalType": "string",
          "name": "_poll",
          "type": "string"
        },
        {
          "internalType": "uint8",
          "name": "validationType",
          "type": "uint8"
        }
      ],
      "name": "serialiseProofs",
      "outputs": [
        {
          "internalType": "string",
          "name": "",
          "type": "string"
        }
      ],
      "payable": false,
      "stateMutability": "view",
      "type": "function"
    },
    {
      "constant": false,
      "inputs": [
        {
          "internalType": "address",
          "name": "_pollContract",
          "type": "address"
        },
        {
          "internalType": "string",
          "name": "_poll",
          "type": "string"
        },
        {
          "internalType": "bytes32",
          "name": "_reveal",
          "type": "bytes32"
        }
      ],
      "name": "xcValidate",
      "outputs": [
        {
          "internalType": "bool",
          "name": "success",
          "type": "bool"
        }
      ],
      "payable": true,
      "stateMutability": "payable",
      "type": "function"
    },
    {
      "constant": false,
      "inputs": [
        {
          "internalType": "address",
          "name": "_validator",
          "type": "address"
        },
        {
          "internalType": "bytes4",
          "name": "fnNameHash",
          "type": "bytes4"
        },
        {
          "internalType": "string",
          "name": "poll",
          "type": "string"
        },
        {
          "internalType": "uint8",
          "name": "vt",
          "type": "uint8"
        },
        {
          "internalType": "bytes32[]",
          "name": "reveal",
          "type": "bytes32[]"
        }
      ],
      "name": "crossContractValidateCall",
      "outputs": [
        {
          "internalType": "bytes32[]",
          "name": "",
          "type": "bytes32[]"
        }
      ],
      "payable": false,
      "stateMutability": "nonpayable",
      "type": "function"
    },
    {
      "constant": false,
      "inputs": [
        {
          "internalType": "string",
          "name": "_poll",
          "type": "string"
        },
        {
          "internalType": "string",
          "name": "data",
          "type": "string"
        }
      ],
      "name": "callValidator_MututalAgreement",
      "outputs": [
        {
          "internalType": "bool",
          "name": "",
          "type": "bool"
        }
      ],
      "payable": false,
      "stateMutability": "nonpayable",
      "type": "function"
    }
  ],
  "bytecode": "0x60806040523480156200001157600080fd5b5073a145493cc19b0bc6c5a2ca86e9ba38bb435e3f5b60036000600160ff16815260200190815260200160002060006101000a81548173ffffffffffffffffffffffffffffffffffffffff021916908373ffffffffffffffffffffffffffffffffffffffff1602179055506040518060400160405280601081526020017f4d757475616c2041677265656d656e740000000000000000000000000000000081525060046000600160ff1681526020019081526020016000209080519060200190620000de92919062000126565b5030600560006101000a81548173ffffffffffffffffffffffffffffffffffffffff021916908373ffffffffffffffffffffffffffffffffffffffff160217905550620001d5565b828054600181600116156101000203166002900490600052602060002090601f016020900481019282601f106200016957805160ff19168380011785556200019a565b828001600101855582156200019a579182015b82811115620001995782518255916020019190600101906200017c565b5b509050620001a99190620001ad565b5090565b620001d291905b80821115620001ce576000816000905550600101620001b4565b5090565b90565b61335580620001e56000396000f3fe6080604052600436106101665760003560e01c806383c7f14c116100d1578063965457ba1161008a578063d122491a11610064578063d122491a1461188c578063e381047d14611a4d578063e505b8f214611bd3578063f963393014611cf057610166565b8063965457ba1461152b578063bfe370d9146115a9578063c1c098471461168557610166565b806383c7f14c14610fbe578063893d20e8146110d85780638d894b281461112f5780638ee879c7146112a65780639201de551461135d57806394c6f3b11461141157610166565b80635e3e225f116101235780635e3e225f1461094d5780636411df2f14610b4d5780636b2019d414610c4a5780637197624e14610dd6578063761e814614610e6657806377456a7b14610ea157610166565b806306efc69c1461035e57806313311a1c146103d957806326a9cdf71461052757806329eece6f1461066f5780634c0999c71461074b57806356024939146107ff575b60606000368080601f016020809104026020016040519081016040528093929190818152602001838380828437600081840152601f19601f8201169050808301925050505050505090506000606060008060606101c286611d1b565b80955081945050506101d384611ea6565b80955081965050506101e484611ea6565b809250819350505061022a6040518060400160405280601081526020017f73657269616c6973655374616b65727300000000000000000000000000000000815250612031565b7bffffffffffffffffffffffffffffffffffffffffffffffffffffffff1916837bffffffffffffffffffffffffffffffffffffffffffffffffffffffff191614156102945761029161028c61027e87612042565b61028784612059565b6120e7565b61210f565b91505b6102d26040518060400160405280600f81526020017f73657269616c69736550726f6f66730000000000000000000000000000000000815250612031565b7bffffffffffffffffffffffffffffffffffffffffffffffffffffffff1916837bffffffffffffffffffffffffffffffffffffffffffffffffffffffff1916141561033c5761033961033461032687612042565b61032f84612059565b61211d565b61210f565b91505b61035085848461034b85612059565b612142565b610100604051605881538181f35b34801561036a57600080fd5b506103d76004803603608081101561038157600080fd5b810190808035906020019092919080357bffffffffffffffffffffffffffffffffffffffffffffffffffffffff1916906020019092919080359060200190929190803560ff169060200190929190505050612142565b005b3480156103e557600080fd5b506104ac600480360360408110156103fc57600080fd5b810190808035906020019064010000000081111561041957600080fd5b82018360208201111561042b57600080fd5b8035906020019184600183028401116401000000008311171561044d57600080fd5b91908080601f016020809104026020016040519081016040528093929190818152602001838380828437600081840152601f19601f820116905080830192505050505050509192919290803560ff16906020019092919050505061211d565b6040518080602001828103825283818151815260200191508051906020019080838360005b838110156104ec5780820151818401526020810190506104d1565b50505050905090810190601f1680156105195780820380516001836020036101000a031916815260200191505b509250505060405180910390f35b34801561053357600080fd5b506105ed6004803603602081101561054a57600080fd5b810190808035906020019064010000000081111561056757600080fd5b82018360208201111561057957600080fd5b8035906020019184600183028401116401000000008311171561059b57600080fd5b91908080601f016020809104026020016040519081016040528093929190818152602001838380828437600081840152601f19601f820116905080830192505050505050509192919290505050611ea6565b6040518083815260200180602001828103825283818151815260200191508051906020019080838360005b83811015610633578082015181840152602081019050610618565b50505050905090810190601f1680156106605780820380516001836020036101000a031916815260200191505b50935050505060405180910390f35b34801561067b57600080fd5b506107356004803603602081101561069257600080fd5b81019080803590602001906401000000008111156106af57600080fd5b8201836020820111156106c157600080fd5b803590602001918460018302840111640100000000831117156106e357600080fd5b91908080601f016020809104026020016040519081016040528093929190818152602001838380828437600081840152601f19601f82011690508083019250505050505050919291929050505061210f565b6040518082815260200191505060405180910390f35b34801561075757600080fd5b506107846004803603602081101561076e57600080fd5b8101908080359060200190929190505050612210565b6040518080602001828103825283818151815260200191508051906020019080838360005b838110156107c45780820151818401526020810190506107a9565b50505050905090810190601f1680156107f15780820380516001836020036101000a031916815260200191505b509250505060405180910390f35b34801561080b57600080fd5b506108d26004803603604081101561082257600080fd5b810190808035906020019064010000000081111561083f57600080fd5b82018360208201111561085157600080fd5b8035906020019184600183028401116401000000008311171561087357600080fd5b91908080601f016020809104026020016040519081016040528093929190818152602001838380828437600081840152601f19601f820116905080830192505050505050509192919290803560ff1690602001909291905050506120e7565b6040518080602001828103825283818151815260200191508051906020019080838360005b838110156109125780820151818401526020810190506108f7565b50505050905090810190601f16801561093f5780820380516001836020036101000a031916815260200191505b509250505060405180910390f35b34801561095957600080fd5b50610b4b6004803603608081101561097057600080fd5b810190808035906020019064010000000081111561098d57600080fd5b82018360208201111561099f57600080fd5b803590602001918460018302840111640100000000831117156109c157600080fd5b91908080601f016020809104026020016040519081016040528093929190818152602001838380828437600081840152601f19601f82011690508083019250505050505050919291929080359060200190640100000000811115610a2457600080fd5b820183602082011115610a3657600080fd5b80359060200191846001830284011164010000000083111715610a5857600080fd5b91908080601f016020809104026020016040519081016040528093929190818152602001838380828437600081840152601f19601f820116905080830192505050505050509192919290803560ff16906020019092919080359060200190640100000000811115610ac857600080fd5b820183602082011115610ada57600080fd5b80359060200191846020830284011164010000000083111715610afc57600080fd5b919080806020026020016040519081016040528093929190818152602001838360200280828437600081840152601f19601f8201169050808301925050505050505091929192905050506122b8565b005b610c3060048036036060811015610b6357600080fd5b81019080803573ffffffffffffffffffffffffffffffffffffffff16906020019092919080359060200190640100000000811115610ba057600080fd5b820183602082011115610bb257600080fd5b80359060200191846001830284011164010000000083111715610bd457600080fd5b91908080601f016020809104026020016040519081016040528093929190818152602001838380828437600081840152601f19601f820116905080830192505050505050509192919290803590602001909291905050506123bc565b604051808215151515815260200191505060405180910390f35b348015610c5657600080fd5b50610dd460048036036080811015610c6d57600080fd5b8101908080359060200190640100000000811115610c8a57600080fd5b820183602082011115610c9c57600080fd5b80359060200191846001830284011164010000000083111715610cbe57600080fd5b91908080601f016020809104026020016040519081016040528093929190818152602001838380828437600081840152601f19601f82011690508083019250505050505050919291929080359060200190640100000000811115610d2157600080fd5b820183602082011115610d3357600080fd5b80359060200191846001830284011164010000000083111715610d5557600080fd5b91908080601f016020809104026020016040519081016040528093929190818152602001838380828437600081840152601f19601f820116905080830192505050505050509192919290803560ff169060200190929190803573ffffffffffffffffffffffffffffffffffffffff1690602001909291905050506123c5565b005b348015610de257600080fd5b50610deb6124f0565b6040518080602001828103825283818151815260200191508051906020019080838360005b83811015610e2b578082015181840152602081019050610e10565b50505050905090810190601f168015610e585780820380516001836020036101000a031916815260200191505b509250505060405180910390f35b348015610e7257600080fd5b50610e9f60048036036020811015610e8957600080fd5b8101908080359060200190929190505050612679565b005b348015610ead57600080fd5b50610f6760048036036020811015610ec457600080fd5b8101908080359060200190640100000000811115610ee157600080fd5b820183602082011115610ef357600080fd5b80359060200191846001830284011164010000000083111715610f1557600080fd5b91908080601f016020809104026020016040519081016040528093929190818152602001838380828437600081840152601f19601f820116905080830192505050505050509192919290505050612683565b6040518080602001828103825283818151815260200191508051906020019060200280838360005b83811015610faa578082015181840152602081019050610f8f565b505050509050019250505060405180910390f35b348015610fca57600080fd5b5061108460048036036020811015610fe157600080fd5b8101908080359060200190640100000000811115610ffe57600080fd5b82018360208201111561101057600080fd5b8035906020019184600183028401116401000000008311171561103257600080fd5b91908080601f016020809104026020016040519081016040528093929190818152602001838380828437600081840152601f19601f8201169050808301925050505050505091929192905050506127ba565b60405180827bffffffffffffffffffffffffffffffffffffffffffffffffffffffff19167bffffffffffffffffffffffffffffffffffffffffffffffffffffffff1916815260200191505060405180910390f35b3480156110e457600080fd5b506110ed6127d7565b604051808273ffffffffffffffffffffffffffffffffffffffff1673ffffffffffffffffffffffffffffffffffffffff16815260200191505060405180910390f35b34801561113b57600080fd5b5061128c6004803603604081101561115257600080fd5b810190808035906020019064010000000081111561116f57600080fd5b82018360208201111561118157600080fd5b803590602001918460018302840111640100000000831117156111a357600080fd5b91908080601f016020809104026020016040519081016040528093929190818152602001838380828437600081840152601f19601f8201169050808301925050505050505091929192908035906020019064010000000081111561120657600080fd5b82018360208201111561121857600080fd5b8035906020019184600183028401116401000000008311171561123a57600080fd5b91908080601f016020809104026020016040519081016040528093929190818152602001838380828437600081840152601f19601f820116905080830192505050505050509192919290505050612800565b604051808215151515815260200191505060405180910390f35b3480156112b257600080fd5b506112e2600480360360208110156112c957600080fd5b81019080803560ff169060200190929190505050612a0f565b6040518080602001828103825283818151815260200191508051906020019080838360005b83811015611322578082015181840152602081019050611307565b50505050905090810190601f16801561134f5780820380516001836020036101000a031916815260200191505b509250505060405180910390f35b34801561136957600080fd5b506113966004803603602081101561138057600080fd5b8101908080359060200190929190505050612042565b6040518080602001828103825283818151815260200191508051906020019080838360005b838110156113d65780820151818401526020810190506113bb565b50505050905090810190601f1680156114035780820380516001836020036101000a031916815260200191505b509250505060405180910390f35b34801561141d57600080fd5b506114d76004803603602081101561143457600080fd5b810190808035906020019064010000000081111561145157600080fd5b82018360208201111561146357600080fd5b8035906020019184600183028401116401000000008311171561148557600080fd5b91908080601f016020809104026020016040519081016040528093929190818152602001838380828437600081840152601f19601f820116905080830192505050505050509192919290505050612031565b60405180827bffffffffffffffffffffffffffffffffffffffffffffffffffffffff19167bffffffffffffffffffffffffffffffffffffffffffffffffffffffff1916815260200191505060405180910390f35b34801561153757600080fd5b506115676004803603602081101561154e57600080fd5b81019080803560ff169060200190929190505050612abf565b604051808273ffffffffffffffffffffffffffffffffffffffff1673ffffffffffffffffffffffffffffffffffffffff16815260200191505060405180910390f35b3480156115b557600080fd5b5061166f600480360360208110156115cc57600080fd5b81019080803590602001906401000000008111156115e957600080fd5b8201836020820111156115fb57600080fd5b8035906020019184600183028401116401000000008311171561161d57600080fd5b91908080601f016020809104026020016040519081016040528093929190818152602001838380828437600081840152601f19601f820116905080830192505050505050509192919290505050612af2565b6040518082815260200191505060405180910390f35b34801561169157600080fd5b50611835600480360360a08110156116a857600080fd5b81019080803573ffffffffffffffffffffffffffffffffffffffff16906020019092919080357bffffffffffffffffffffffffffffffffffffffffffffffffffffffff191690602001909291908035906020019064010000000081111561170e57600080fd5b82018360208201111561172057600080fd5b8035906020019184600183028401116401000000008311171561174257600080fd5b91908080601f016020809104026020016040519081016040528093929190818152602001838380828437600081840152601f19601f820116905080830192505050505050509192919290803560ff169060200190929190803590602001906401000000008111156117b257600080fd5b8201836020820111156117c457600080fd5b803590602001918460208302840111640100000000831117156117e657600080fd5b919080806020026020016040519081016040528093929190818152602001838360200280828437600081840152601f19601f820116905080830192505050505050509192919290505050612b05565b6040518080602001828103825283818151815260200191508051906020019060200280838360005b8381101561187857808201518184015260208101905061185d565b505050509050019250505060405180910390f35b34801561189857600080fd5b506119f6600480360360608110156118af57600080fd5b81019080803590602001906401000000008111156118cc57600080fd5b8201836020820111156118de57600080fd5b8035906020019184600183028401116401000000008311171561190057600080fd5b91908080601f016020809104026020016040519081016040528093929190818152602001838380828437600081840152601f19601f8201169050808301925050505050505091929192908035906020019064010000000081111561196357600080fd5b82018360208201111561197557600080fd5b8035906020019184600183028401116401000000008311171561199757600080fd5b91908080601f016020809104026020016040519081016040528093929190818152602001838380828437600081840152601f19601f820116905080830192505050505050509192919290803560ff169060200190929190505050612b65565b6040518080602001828103825283818151815260200191508051906020019060200280838360005b83811015611a39578082015181840152602081019050611a1e565b505050509050019250505060405180910390f35b348015611a5957600080fd5b50611b1360048036036020811015611a7057600080fd5b8101908080359060200190640100000000811115611a8d57600080fd5b820183602082011115611a9f57600080fd5b80359060200191846001830284011164010000000083111715611ac157600080fd5b91908080601f016020809104026020016040519081016040528093929190818152602001838380828437600081840152601f19601f820116905080830192505050505050509192919290505050611d1b565b60405180837bffffffffffffffffffffffffffffffffffffffffffffffffffffffff19167bffffffffffffffffffffffffffffffffffffffffffffffffffffffff1916815260200180602001828103825283818151815260200191508051906020019080838360005b83811015611b97578082015181840152602081019050611b7c565b50505050905090810190601f168015611bc45780820380516001836020036101000a031916815260200191505b50935050505060405180910390f35b348015611bdf57600080fd5b50611c9960048036036020811015611bf657600080fd5b8101908080359060200190640100000000811115611c1357600080fd5b820183602082011115611c2557600080fd5b80359060200191846001830284011164010000000083111715611c4757600080fd5b91908080601f016020809104026020016040519081016040528093929190818152602001838380828437600081840152601f19601f820116905080830192505050505050509192919290505050612ca8565b6040518080602001828103825283818151815260200191508051906020019060200280838360005b83811015611cdc578082015181840152602081019050611cc1565b505050509050019250505060405180910390f35b348015611cfc57600080fd5b50611d05612d23565b6040518082815260200191505060405180910390f35b6000606060006004905060008090508160ff1685511115611d40578160ff1685510390505b600060608360ff166040519080825280601f01601f191660200182016040528015611d7a5781602001600182028038833980820191505090505b5090506060836040519080825280601f01601f191660200182016040528015611db25781602001600182028038833980820191505090505b50905060008090505b60018951038111611e8d578560ff16811015611e2857888181518110611ddd57fe5b602001015160f81c60f81b838281518110611df457fe5b60200101907effffffffffffffffffffffffffffffffffffffffffffffffffffffffffffff1916908160001a905350611e80565b888181518110611e3457fe5b602001015160f81c60f81b828760ff16830381518110611e5057fe5b60200101907effffffffffffffffffffffffffffffffffffffffffffffffffffffffffffff1916908160001a9053505b8080600101915050611dbb565b50611e97826127ba565b81965096505050505050915091565b6000606060006020905060008090508160ff1685511115611ecb578160ff1685510390505b600060608360ff166040519080825280601f01601f191660200182016040528015611f055781602001600182028038833980820191505090505b5090506060836040519080825280601f01601f191660200182016040528015611f3d5781602001600182028038833980820191505090505b50905060008090505b60018951038111612018578560ff16811015611fb357888181518110611f6857fe5b602001015160f81c60f81b838281518110611f7f57fe5b60200101907effffffffffffffffffffffffffffffffffffffffffffffffffffffffffffff1916908160001a90535061200b565b888181518110611fbf57fe5b602001015160f81c60f81b828760ff16830381518110611fdb57fe5b60200101907effffffffffffffffffffffffffffffffffffffffffffffffffffffffffffff1916908160001a9053505b8080600101915050611f46565b5061202282612af2565b81965096505050505050915091565b600081805190602001209050919050565b60608061204e83612210565b905080915050919050565b60006001825110156120d3576040517f08c379a00000000000000000000000000000000000000000000000000000000081526004018080602001828103825260128152602001807f52656164206f7574206f6620626f756e6473000000000000000000000000000081525060200191505060405180910390fd5b600080600184010151905080915050919050565b6060806040518060600160405280602481526020016132fd6024913990508091505092915050565b600060208201519050919050565b6060806040518060600160405280602381526020016132da6023913990505092915050565b60018160ff16141561220a57600084848360405160200180848152602001837bffffffffffffffffffffffffffffffffffffffffffffffffffffffff19167bffffffffffffffffffffffffffffffffffffffffffffffffffffffff191681526004018260ff1660ff1660f81b815260010193505050506040516020818303038152906040528051906020012090506121e16121dc84612042565b612ca8565b60016000838152602001908152602001600020908051906020019061220792919061324d565b50505b50505050565b60608060206040519080825280601f01601f1916602001820160405280156122475781602001600182028038833980820191505090505b50905060005b60208110156122ae5783816020811061226257fe5b1a60f81b82828151811061227257fe5b60200101907effffffffffffffffffffffffffffffffffffffffffffffffffffffffffffff1916908160001a905350808060010191505061224d565b5080915050919050565b6000846122c485612031565b846040516020018084805190602001908083835b602083106122fb57805182526020820191506020810190506020830392506122d8565b6001836020036101000a038019825116818451168082178552505050505050905001837bffffffffffffffffffffffffffffffffffffffffffffffffffffffff19167bffffffffffffffffffffffffffffffffffffffffffffffffffffffff191681526004018260ff1660ff1660f81b81526001019350505050604051602081830303815290604052805190602001209050816001600083815260200190815260200160002090805190602001906123b492919061324d565b505050505050565b60009392505050565b6000846123d185612031565b846040516020018084805190602001908083835b6020831061240857805182526020820191506020810190506020830392506123e5565b6001836020036101000a038019825116818451168082178552505050505050905001837bffffffffffffffffffffffffffffffffffffffffffffffffffffffff19167bffffffffffffffffffffffffffffffffffffffffffffffffffffffff191681526004018260ff1660ff1660f81b81526001019350505050604051602081830303815290604052805190602001209050600160008281526020019081526020016000208260601b6bffffffffffffffffffffffff191690806001815401808255809150509060018203906000526020600020016000909192909190915055505050505050565b606060007f71776572747975696f706173646667686a6b6c7a786376626e6d31323334353660001b9050606080828260008151811061252b57fe5b602002602001018181525050828260008151811061254557fe5b602002602001018181525050828160018151811061255f57fe5b602002602001018181525050828160018151811061257957fe5b6020026020010181815250506125fc6040518060400160405280602081526020017f646f6f646c652e636f6d2f706f6c6c2f6837706874773575327468687a396b348152506040518060400160405280601081526020017f73657269616c6973655374616b657273000000000000000000000000000000008152506001856122b8565b6126736040518060400160405280602081526020017f646f6f646c652e636f6d2f706f6c6c2f6837706874773575327468687a396b348152506040518060400160405280600f81526020017f73657269616c69736550726f6f667300000000000000000000000000000000008152506001846122b8565b50505090565b8060068190555050565b606061268d61329a565b61269683612d2d565b90506126a061329a565b6126de6040518060400160405280600181526020017f2c00000000000000000000000000000000000000000000000000000000000000815250612d2d565b9050606060016126f78385612d5b90919063ffffffff16565b016040519080825280602002602001820160405280156127265781602001602082028038833980820191505090505b50905060008090505b81518110156127ae5761275b6127566127518587612dd090919063ffffffff16565b612dea565b612e4c565b82828151811061276757fe5b602002602001019073ffffffffffffffffffffffffffffffffffffffff16908173ffffffffffffffffffffffffffffffffffffffff1681525050808060010191505061272f565b50809350505050919050565b600080635050505060e01b90506020830151905080915050919050565b60008060009054906101000a900473ffffffffffffffffffffffffffffffffffffffff16905090565b600080600190506128f7600460008360ff1660ff1681526020019081526020016000208054600181600116156101000203166002900480601f0160208091040260200160405190810160405280929190818152602001828054600181600116156101000203166002900480156128b75780601f1061288c576101008083540402835291602001916128b7565b820191906000526020600020905b81548152906001019060200180831161289a57829003601f168201915b50505050506040518060400160405280601081526020017f4d757475616c2041677265656d656e7400000000000000000000000000000000815250612fbe565b6128fd57fe5b6060612946600360008460ff1660ff16815260200190815260200160002060009054906101000a900473ffffffffffffffffffffffffffffffffffffffff16866000801b6123bc565b506129ca600360008460ff1660ff16815260200190815260200160002060009054906101000a900473ffffffffffffffffffffffffffffffffffffffff166129c26040518060400160405280600881526020017f76616c6964617465000000000000000000000000000000000000000000000000815250612031565b878585612b05565b507fd65038c0be209d4ae257f7e73a69b8b787796717cd2ce67d00d7e02c9de1020e6000604051808215151515815260200191505060405180910390a1505092915050565b60046020528060005260406000206000915090508054600181600116156101000203166002900480601f016020809104026020016040519081016040528092919081815260200182805460018160011615610100020316600290048015612ab75780601f10612a8c57610100808354040283529160200191612ab7565b820191906000526020600020905b815481529060010190602001808311612a9a57829003601f168201915b505050505081565b60036020528060005260406000206000915054906101000a900473ffffffffffffffffffffffffffffffffffffffff1681565b6000806020830151905080915050919050565b606060008690506000602090507f1ff50e4650f7f1e5b26a5f5e921b803deee4a95a1b6ef46e05992b3bc1dcdb8c60405160405180910390a160405136600082376000803683865af43d806000843e8160008114612b61578184f35b8184fd5b6060600084612b7385612031565b846040516020018084805190602001908083835b60208310612baa5780518252602082019150602081019050602083039250612b87565b6001836020036101000a038019825116818451168082178552505050505050905001837bffffffffffffffffffffffffffffffffffffffffffffffffffffffff19167bffffffffffffffffffffffffffffffffffffffffffffffffffffffff191681526004018260ff1660ff1660f81b8152600101935050505060405160208183030381529060405280519060200120905060016000828152602001908152602001600020805480602002602001604051908101604052809291908181526020018280548015612c9957602002820191906000526020600020905b815481526020019060010190808311612c85575b50505050509150509392505050565b606080612cb483612683565b90506000815190505b6000818060019003925060ff161115612d1957818160ff1681518110612cdf57fe5b602002602001015160601b6bffffffffffffffffffffffff1916838260ff1681518110612d0857fe5b602002602001018181525050612cbd565b8292505050919050565b6000600654905090565b612d3561329a565b600060208301905060405180604001604052808451815260200182815250915050919050565b6000808260000151612d7f856000015186602001518660000151876020015161308b565b0190505b83600001518460200151018111612dc95781806001019250508260000151612dc185602001518303866000015103838660000151876020015161308b565b019050612d83565b5092915050565b612dd861329a565b612de3838383613166565b5092915050565b60608082600001516040519080825280601f01601f191660200182016040528015612e245781602001600182028038833980820191505090505b5090506000602082019050612e428185602001518660000151613204565b8192505050919050565b6000606082905060008090506000806000600290505b602a811015612fb15761010084029350848181518110612e7e57fe5b602001015160f81c60f81b60f81c9250846001820181518110612e9d57fe5b602001015160f81c60f81b60f81c915060618360ff1610158015612ec5575060668360ff1611155b15612ed557605783039250612f23565b60308360ff1610158015612eed575060398360ff1611155b15612efd57603083039250612f22565b60418360ff1610158015612f15575060468360ff1611155b15612f21576037830392505b5b5b60618260ff1610158015612f3b575060668260ff1611155b15612f4b57605782039150612f99565b60308260ff1610158015612f63575060398260ff1611155b15612f7357603082039150612f98565b60418260ff1610158015612f8b575060468260ff1611155b15612f97576037820391505b5b5b81601084020160ff1684019350600281019050612e62565b5082945050505050919050565b6000606083905060608390508051825114612fde57600092505050613085565b60008090505b825181101561307d57818181518110612ff957fe5b602001015160f81c60f81b7effffffffffffffffffffffffffffffffffffffffffffffffffffffffffffff191683828151811061303257fe5b602001015160f81c60f81b7effffffffffffffffffffffffffffffffffffffffffffffffffffffffffffff1916146130705760009350505050613085565b8080600101915050612fe4565b506001925050505b92915050565b6000808490506000868511613156576020851161311057600060018660200360080260020a031960001b905060008186511690506000878a8a0103905060008386511690505b828114613102578186106130ef578a8a01965050505050505061315e565b85806001019650508386511690506130d1565b85965050505050505061315e565b60008585209050600091505b8588038211613154576000868420905080821415613140578394505050505061315e565b60018401935050818060010192505061311c565b505b868601925050505b949350505050565b61316e61329a565b600061318c856000015186602001518660000151876020015161308b565b905084602001518360200181815250508460200151810383600001818152505084600001518560200151018114156131ce5760008560000181815250506131f9565b8360000151836000015101856000018181510391508181525050836000015181018560200181815250505b829150509392505050565b5b602081106132285781518352602083019250602082019150602081039050613205565b60006001826020036101000a0390508019835116818551168181178652505050505050565b828054828255906000526020600020908101928215613289579160200282015b8281111561328857825182559160200191906001019061326d565b5b50905061329691906132b4565b5090565b604051806040016040528060008152602001600081525090565b6132d691905b808211156132d25760008160009055506001016132ba565b5090565b9056fe526573756c7421202d2066726f6d20706f6c6c2e73657269616c69736550726f6f6673526573756c7421202d2066726f6d20706f6c6c2e73657269616c6973655374616b657273a265627a7a72315820304aed5c36d8958c5f664de89a3fdf8467d2722032d5260c722a8c4c1e124ff764736f6c63430005100032",
  "source": "pragma solidity ^0.5.0;\n\nimport \"./strings.sol\";\n// import \"github.com/GNSPS/solidity-bytes-utils/contracts/BytesLib.sol\";   // requires sol 0.5+\nimport \"./stringCasting.sol\";\n\ncontract PollReference {\n    // Common storage structure for ALL contacts using this storage.\n    // _, __, __ , etc are unused in this contract, but must remain to occupy their slots.\n\n    address owner;  // is set by TokenStorage.. but retain types and order.\n\n    struct timeRange {\n      uint start;\n      uint end;\n    }\n\n    struct stake {\n      uint rep;\n      timeRange[] available;\n      uint availabilityExpires;\n    }\n\n    struct Poll {\n      address initiator;\n      uint minStake;\n      uint venueCost;\n      uint8 minParticipants;\n      timeRange eventTime;\n      mapping (address => stake) staked;\n      mapping (address => bytes32[]) committedProofs;\n    }\n\n    // shared across contracts\n    mapping (bytes32 => bytes32[]) allTheData;\n    mapping (bytes32 => bool) resultsCache;\n\n    // used only in Poll\n    mapping(uint8 => address) public validators;\n    mapping(uint8 => string) public validatorNames;\n    address selfAddy ;\n    int flag;\n\n    // unused - previously for Storage Proxy\n    //    mapping (address => bool) internal _allowedAccess;\n\n\n    using strings for *;\n    using stringcast for string;\n\n    constructor () public /* is PollCommunity */ {\n        validators[1] = address(0xA145493CC19b0BC6C5a2cA86e9BA38BB435E3F5b);\n        validatorNames[1] = \"Mutual Agreement\";\n        selfAddy = address(this);\n        // constructed = 1;\n    }\n\n\n    // function getPollOK() public view returns (uint8) {\n    //   return ok;\n    // }\n    //\n    // function setPollOK (uint8 _ok) public {\n    //   ok = _ok;\n    // }\n    //\n    // function getPollResult() public view returns (uint8) {\n    //   return result;\n    // }\n    //\n    // function setPollResult (uint8 _result) public {\n    //   result = _result;\n    // }\n    //\n    // function getMyMap(uint idx) public view returns (uint) {\n    //   return myMap[idx];\n    // }\n    //\n    // function setMyMap (uint idx, uint _myMap) public {\n    //   myMap[idx] = _myMap;\n    // }\n\n    function getOwner() public view returns (address) {\n      return owner;\n    }\n\n    function getFlag() public view returns (int) {\n      return flag;\n    }\n\n    function setFlag(int _flag) public {\n      flag = _flag;\n    }\n\n    function() external payable {\n        // NB sol 0.6+ better syntax for calldata arrays : https://solidity.readthedocs.io/en/v0.6.0/types.html#array-slices\n        bytes memory input = msg.data;\n\n        // TODO: This is V.0 accepting a string (really a bytes32) of EXACTLY 32 bytes, eg a doodle poll without the https:// ;)\n        bytes32 poll32;\n        bytes memory rest;\n        bytes4 fnNameHash;\n        bytes32 result;\n        bytes memory vType;\n\n        (fnNameHash, rest) = (bytesSplit4(input));\n        (poll32, rest) = (bytesSplit32(rest));\n        (result, vType) = (bytesSplit32(rest));\n\n        if (fnNameHash == encodeFunctionName(\"serialiseStakers\")) {\n            //NB wrapping these in bytes32 for testing, but keep as strings until you are ready to deserialise bytes32, cos they still good here!\n            result = string32ToBytes32( serialiseStakers(bytes32ToString(poll32), toUint8(vType)) );\n        }\n        if (fnNameHash == encodeFunctionName(\"serialiseProofs\")) {\n            //NB wrapping these in bytes32 for testing, but keep as strings until you are ready to deserialise bytes32, cos they still good here!\n            result = string32ToBytes32(serialiseProofs(bytes32ToString(poll32), toUint8(vType)) );\n        }\n        // Warning: This hack introduces possible griefing attack - better would be to force EVM to return the result of this lookup from fallback, not store and retreive it :/\n\n        storeResult(poll32, fnNameHash, result, toUint8(vType));\n\n        assembly {\n            let size := 256\n            let ptr := mload(0x40)\n            mstore8(ptr, 88)\n            return(ptr, size)\n        }\n    }\n\n    // function ownAddress () public view returns (address) {\n    //     return selfAddy;\n    // }\n    //\n    // function getStateVars () public view returns (uint256, address, string memory, address, int8) {\n    //     return (notes, validators[1], validatorNames[1], selfAddy, constructed);\n    // }\n    //\n    // event ValidatorSet();\n    // function setValidator1 (address newAddy) public returns (bool) {\n    //     validators[1] = newAddy;\n    //     emit ValidatorSet();\n    //     return true;\n    // }\n    //\n    // function getValidator1 () public view returns (address) {\n    //     return validators[1];\n    // }\n    //\n    // function setValidator1Name (string memory newName) public returns (bool) {\n    //     validatorNames[1] = newName;\n    //     emit ValidatorSet();\n    //     return true;\n    // }\n    //\n    // function getValidator1Name () public view returns (string memory) {\n    //     return validatorNames[1];\n    // }\n\n    // event RetrievedDataCache(string, uint256, bytes32[]);\n    function retrieve (string memory _poll, string memory _fnName, uint8 _vt) public view returns (bytes32[] memory) {\n        bytes32 hash = keccak256(abi.encodePacked(_poll, encodeFunctionName(_fnName), _vt));\n        // emit RetrievedDataCache(\"Poll context:\", notes, allTheData[hash]);\n        return (allTheData[hash]);\n    }\n\n    function set (string memory _poll, string memory _fnName, uint8 _vt, bytes32[] memory data) public {\n      bytes32 hash = keccak256(abi.encodePacked(_poll, encodeFunctionName(_fnName), _vt));\n      allTheData[hash] = data;\n    }\n\n    function justSetStuff() public returns (string memory ace) {\n      bytes32 b1 = bytes32(0x71776572747975696f706173646667686a6b6c7a786376626e6d313233343536);\n      bytes32[] memory inp1;\n      bytes32[] memory inp2;\n      inp1[0] = b1;\n      inp1[0] = b1;\n      inp2[1] = b1;\n      inp2[1] = b1;\n      set (\"doodle.com/poll/h7phtw5u2thhz9k4\", \"serialiseStakers\", 1, inp1);\n      set (\"doodle.com/poll/h7phtw5u2thhz9k4\", \"serialiseProofs\", 1, inp2);\n    }\n\n    function add (string memory _poll, string memory _fnName, uint8 _vt, address newMember) public {\n      bytes32 hash = keccak256(abi.encodePacked(_poll, encodeFunctionName(_fnName), _vt));\n      allTheData[hash].push (bytes32(bytes20(newMember)));\n    }\n\n    function stringsEqual (string memory _a, string memory _b) internal pure returns (bool) {\n        bytes memory a = bytes(_a);\n        bytes memory b = bytes(_b);\n\n        if (a.length != b.length)\n            return false;\n\n        for (uint i = 0; i < a.length; i ++)\n            if (a[i] != b[i])\n                return false;\n\n        return true;\n    }\n\n    function string32ToBytes32(string memory source) public pure returns (bytes32 result) {\n        assembly {\n        result := mload(add(source, 32))\n        }\n    }\n\n    // split a serialised string of addresses (as received from main contract).\n    // NB - only works in mutual agreement validator - other validators will use multiple types within serialised string\n    function splitToAddresses(string memory source) public pure returns (address[] memory result) {\n        strings.slice memory packed = source.toSlice();\n        strings.slice memory delim = \",\".toSlice();\n        address[] memory parts = new address[](packed.count(delim)+1);  // why doesn't this lose a member?\n\n        for(uint i = 0; i < parts.length; i++) {\n           parts[i] = packed.split(delim).toString().toAddress();\n        }\n        return parts;\n    }\n\n    // function stringToBytes32(string memory source) {\n    //     bytes32[] memory result;\n    //     strings.slice memory remainder = source.toSlice();\n    //     while (remainder.length >= 32) {\n\n    //     }\n\n    // }\n\n\n\n    function bytesToBytes4(bytes  memory b)  public pure returns (bytes4 bts) {\n        bytes4 i = 0x50505050;\n        assembly { i := mload(add(b, 0x20)) }\n        bts = i;\n    }\n\n    function bytesToBytes32(bytes  memory b)  public pure returns (bytes32 bts) {\n        bytes32 i;\n        //NB size etc= 32b = 0x20b\n        assembly { i := mload(add(b, 0x20)) }\n        bts = i;\n    }\n\n    function toUint8(bytes memory _bytes) internal pure returns (uint8) {\n        require(_bytes.length >= (1), \"Read out of bounds\");\n        uint8 tempUint;\n\n        assembly {\n            tempUint := mload(add(add(_bytes, 0x1), 0))\n        }\n\n        return tempUint;\n    }\n\n    function bytes32ToBytes(bytes32 _bytes32) public pure returns (bytes memory){\n        // string memory str = string(_bytes32);\n        // TypeError: Explicit type conversion not allowed from \"bytes32\" to \"string storage pointer\"\n        bytes memory bytesArray = new bytes(32);\n        for (uint256 i; i < 32; i++) {\n            bytesArray[i] = _bytes32[i];\n        }\n        return bytesArray;\n    }\n\n    function bytes32ToString(bytes32 _bytes32) public pure returns (string memory){\n        bytes memory bytesArray = bytes32ToBytes(_bytes32);\n        return string(bytesArray);\n    }\n\n    function bytesSplit4(bytes memory data) public pure returns (bytes4, bytes memory) {\n        uint8 splitAt = 4;                             // all (if variable split, pass in splitAt)\n        uint256 taillength = 0;\n        if (data.length > splitAt)\n            taillength = data.length-splitAt;\n        bytes4 temp;\n        // bytes4 head;                                   // 4b split\n        bytes memory head = new bytes(splitAt);         // variable length split\n        bytes memory tail = new bytes(taillength);\n        for(uint i=0;i<=data.length-1;i++){\n            if (i<splitAt)\n                head[i] = bytes(data)[i] ;\n            else\n                tail[i-splitAt] = bytes(data)[i] ;\n        }\n        return (bytesToBytes4(head), tail);\n    }\n\n    function bytesSplit32(bytes memory data) public pure returns (bytes32, bytes memory) {\n        uint8 splitAt = 32;                             // all (if variable split, pass in splitAt)\n        uint256 taillength = 0;\n        if (data.length > splitAt)\n            taillength = data.length-splitAt;\n        bytes32 temp;\n        // bytes32 head;                                   // 32b split\n        bytes memory head = new bytes(splitAt);         // variable length split\n        bytes memory tail = new bytes(taillength);\n        for(uint i=0;i<=data.length-1;i++){\n            if (i<splitAt)\n                head[i] = bytes(data)[i] ;\n            else\n                tail[i-splitAt] = bytes(data)[i] ;\n        }\n        return (bytesToBytes32(head), tail);\n    }\n\n\n    function encodeFunctionName (string memory name) public pure returns (bytes4) {\n        // TODO: cache for readability!\n        // if (\"serialiseStakers\")\n        //     return\n        // if (\"serialiseStakers\")\n        //     return\n        return bytes4(keccak256(bytes(name)));\n    }\n\n    // temporary functionality to repoint to simple example, eg splitToAddresses\n    function unpackData (string memory packed) public pure returns (bytes32[] memory result) {\n        //NB relying on splitToAddresses doing string splitting here, as we rely on .length - available only on fixed size array.\n        address[] memory asAddresses = splitToAddresses(packed) ;\n        uint8 i = uint8(asAddresses.length) ;\n\n        while (i-- > 0) {\n            result[i] = bytes32(bytes20(asAddresses[i]));\n        }\n        return result;\n    }\n\n    function storeResult(bytes32 poll32, bytes4 fnNameHash, bytes32 data, uint8 vt)  public {\n        // uint256 notesToStore = 10000+vt;\n        if (vt == 1) {\n\n            bytes32 hash = keccak256(abi.encodePacked(poll32, fnNameHash, vt));\n\n            allTheData[hash] = unpackData(bytes32ToString(data));\n            // notesToStore=260;\n        }\n        // notes += notesToStore;\n    }\n\n    function serialiseStakers(string memory _poll, uint8 validationType) public view returns (string memory) {\n        string memory result = \"Result! - from poll.serialiseStakers\";\n        return result;\n    }\n\n    function serialiseProofs(string memory _poll, uint8 validationType) public view returns (string memory) {\n        string memory result = \"Result! - from poll.serialiseProofs\";\n    }\n\n    function xcValidate(address _pollContract, string memory _poll, bytes32 _reveal) public payable returns (bool success) {\n    }\n\n        // calls fallback function of contract at validatorAddress, passing 4 byte encoded function name to it to select method.\n    // NB in sol 0.6 + fallback cannot return anything\n    // NB future optimisation : we are not using the functionality of string here, since string must have come from a bytes32\n    event CrossContractValidateBegin();\n    event CrossContractValidateEnd();\n    function crossContractValidateCall (address _validator, bytes4 fnNameHash, string memory poll, uint8 vt, bytes32[] memory reveal)  public returns (bytes32[] memory) {\n        address validator = _validator;\n\n        uint8 offset = 32;\n        // NB 32b offset as space for validator contract address! (assumes no tight packing in calldata)\n        // TODO: this will need to be chucked at the other end, unless you want to do the subtraction in assembly :/\n\n        emit CrossContractValidateBegin();\n        assembly {\n            let ptr := mload(0x40)\n            calldatacopy(ptr, 0, calldatasize)\n            let result := delegatecall(gas, validator, ptr, calldatasize, 0, 0)\n            let size := returndatasize\n            returndatacopy(ptr, 0, size)\n            switch result\n            case 0 { revert(ptr, size) }\n            default { return(ptr, size) }\n        }\n        emit CrossContractValidateEnd();\n    }\n\n    event CrossContractValidateReturned(bool);\n    function callValidator_MututalAgreement(string memory _poll, string memory data) public returns (bool) {\n        uint8 vType = 1;\n        assert (stringsEqual(validatorNames[vType], \"Mutual Agreement\"));\n        bytes32[] memory empty;\n\n        // reveal parameter is unused in mutual agreement\n        xcValidate(validators[vType], _poll, bytes32(0) );\n        crossContractValidateCall(validators[vType], encodeFunctionName(\"validate\") , _poll, vType, empty );\n        //TODO: get return value!\n\n        emit CrossContractValidateReturned(false);\n\n\n    }\n}\n",
  "sourcePath": "/home/teide/randomCode/truffletings/proxyBox/contracts/PollReference.sol",
  "compiler": {
    "name": "solc",
    "version": "0.5.16+commit.9c3226ce.Emscripten.clang"
  },
  "schemaVersion": "3.2.0",
  "updatedAt": "2020-06-07T09:29:13.424Z",
  "networkType": "ethereum",
  "devdoc": {
    "methods": {}
  },
  "userdoc": {
    "methods": {}
  }
}