{
  "contractName": "PollReference",
  "abi": [
    {
      "inputs": [],
      "payable": false,
      "stateMutability": "nonpayable",
      "type": "constructor"
    },
    {
      "anonymous": false,
      "inputs": [],
      "name": "CrossContractValidateBegin",
      "type": "event"
    },
    {
      "anonymous": false,
      "inputs": [],
      "name": "CrossContractValidateEnd",
      "type": "event"
    },
    {
      "anonymous": false,
      "inputs": [
        {
          "indexed": false,
          "internalType": "bool",
          "name": "",
          "type": "bool"
        }
      ],
      "name": "CrossContractValidateReturned",
      "type": "event"
    },
    {
      "payable": true,
      "stateMutability": "payable",
      "type": "fallback"
    },
    {
      "constant": true,
      "inputs": [
        {
          "internalType": "address",
          "name": "",
          "type": "address"
        }
      ],
      "name": "cashBalance",
      "outputs": [
        {
          "internalType": "uint256",
          "name": "",
          "type": "uint256"
        }
      ],
      "payable": false,
      "stateMutability": "view",
      "type": "function"
    },
    {
      "constant": true,
      "inputs": [
        {
          "internalType": "uint8",
          "name": "",
          "type": "uint8"
        }
      ],
      "name": "validatorNames",
      "outputs": [
        {
          "internalType": "string",
          "name": "",
          "type": "string"
        }
      ],
      "payable": false,
      "stateMutability": "view",
      "type": "function"
    },
    {
      "constant": true,
      "inputs": [
        {
          "internalType": "uint8",
          "name": "",
          "type": "uint8"
        }
      ],
      "name": "validators",
      "outputs": [
        {
          "internalType": "address",
          "name": "",
          "type": "address"
        }
      ],
      "payable": false,
      "stateMutability": "view",
      "type": "function"
    },
    {
      "constant": true,
      "inputs": [],
      "name": "getOwner",
      "outputs": [
        {
          "internalType": "address",
          "name": "",
          "type": "address"
        }
      ],
      "payable": false,
      "stateMutability": "view",
      "type": "function"
    },
    {
      "constant": true,
      "inputs": [
        {
          "internalType": "string",
          "name": "_poll",
          "type": "string"
        },
        {
          "internalType": "string",
          "name": "_mapName",
          "type": "string"
        },
        {
          "internalType": "uint8",
          "name": "_vt",
          "type": "uint8"
        }
      ],
      "name": "retrieve",
      "outputs": [
        {
          "internalType": "bytes32[]",
          "name": "",
          "type": "bytes32[]"
        }
      ],
      "payable": false,
      "stateMutability": "view",
      "type": "function"
    },
    {
      "constant": false,
      "inputs": [
        {
          "internalType": "string",
          "name": "_poll",
          "type": "string"
        },
        {
          "internalType": "string",
          "name": "_mapName",
          "type": "string"
        },
        {
          "internalType": "uint8",
          "name": "_vt",
          "type": "uint8"
        },
        {
          "internalType": "bytes32[]",
          "name": "data",
          "type": "bytes32[]"
        }
      ],
      "name": "set",
      "outputs": [],
      "payable": false,
      "stateMutability": "nonpayable",
      "type": "function"
    },
    {
      "constant": false,
      "inputs": [],
      "name": "justSetStuff",
      "outputs": [
        {
          "internalType": "string",
          "name": "ace",
          "type": "string"
        }
      ],
      "payable": false,
      "stateMutability": "nonpayable",
      "type": "function"
    },
    {
      "constant": false,
      "inputs": [
        {
          "internalType": "string",
          "name": "_poll",
          "type": "string"
        },
        {
          "internalType": "string",
          "name": "_mapName",
          "type": "string"
        },
        {
          "internalType": "uint8",
          "name": "_vt",
          "type": "uint8"
        },
        {
          "internalType": "address",
          "name": "newMember",
          "type": "address"
        }
      ],
      "name": "add",
      "outputs": [],
      "payable": false,
      "stateMutability": "nonpayable",
      "type": "function"
    },
    {
      "constant": true,
      "inputs": [
        {
          "internalType": "string",
          "name": "source",
          "type": "string"
        }
      ],
      "name": "string32ToBytes32",
      "outputs": [
        {
          "internalType": "bytes32",
          "name": "result",
          "type": "bytes32"
        }
      ],
      "payable": false,
      "stateMutability": "pure",
      "type": "function"
    },
    {
      "constant": true,
      "inputs": [
        {
          "internalType": "string",
          "name": "source",
          "type": "string"
        }
      ],
      "name": "splitToAddresses",
      "outputs": [
        {
          "internalType": "address[]",
          "name": "result",
          "type": "address[]"
        }
      ],
      "payable": false,
      "stateMutability": "pure",
      "type": "function"
    },
    {
      "constant": true,
      "inputs": [
        {
          "internalType": "bytes",
          "name": "b",
          "type": "bytes"
        }
      ],
      "name": "bytesToBytes4",
      "outputs": [
        {
          "internalType": "bytes4",
          "name": "bts",
          "type": "bytes4"
        }
      ],
      "payable": false,
      "stateMutability": "pure",
      "type": "function"
    },
    {
      "constant": true,
      "inputs": [
        {
          "internalType": "bytes",
          "name": "b",
          "type": "bytes"
        }
      ],
      "name": "bytesToBytes32",
      "outputs": [
        {
          "internalType": "bytes32",
          "name": "bts",
          "type": "bytes32"
        }
      ],
      "payable": false,
      "stateMutability": "pure",
      "type": "function"
    },
    {
      "constant": true,
      "inputs": [
        {
          "internalType": "bytes32",
          "name": "_bytes32",
          "type": "bytes32"
        }
      ],
      "name": "bytes32ToBytes",
      "outputs": [
        {
          "internalType": "bytes",
          "name": "",
          "type": "bytes"
        }
      ],
      "payable": false,
      "stateMutability": "pure",
      "type": "function"
    },
    {
      "constant": true,
      "inputs": [
        {
          "internalType": "bytes32",
          "name": "_bytes32",
          "type": "bytes32"
        }
      ],
      "name": "bytes32ToString",
      "outputs": [
        {
          "internalType": "string",
          "name": "",
          "type": "string"
        }
      ],
      "payable": false,
      "stateMutability": "pure",
      "type": "function"
    },
    {
      "constant": true,
      "inputs": [
        {
          "internalType": "bytes",
          "name": "data",
          "type": "bytes"
        }
      ],
      "name": "bytesSplit4",
      "outputs": [
        {
          "internalType": "bytes4",
          "name": "",
          "type": "bytes4"
        },
        {
          "internalType": "bytes",
          "name": "",
          "type": "bytes"
        }
      ],
      "payable": false,
      "stateMutability": "pure",
      "type": "function"
    },
    {
      "constant": true,
      "inputs": [
        {
          "internalType": "bytes",
          "name": "data",
          "type": "bytes"
        }
      ],
      "name": "bytesSplit32",
      "outputs": [
        {
          "internalType": "bytes32",
          "name": "",
          "type": "bytes32"
        },
        {
          "internalType": "bytes",
          "name": "",
          "type": "bytes"
        }
      ],
      "payable": false,
      "stateMutability": "pure",
      "type": "function"
    },
    {
      "constant": true,
      "inputs": [
        {
          "internalType": "string",
          "name": "name",
          "type": "string"
        }
      ],
      "name": "encodeFunctionName",
      "outputs": [
        {
          "internalType": "bytes4",
          "name": "",
          "type": "bytes4"
        }
      ],
      "payable": false,
      "stateMutability": "pure",
      "type": "function"
    },
    {
      "constant": true,
      "inputs": [
        {
          "internalType": "string",
          "name": "packed",
          "type": "string"
        }
      ],
      "name": "unpackData",
      "outputs": [
        {
          "internalType": "bytes32[]",
          "name": "result",
          "type": "bytes32[]"
        }
      ],
      "payable": false,
      "stateMutability": "pure",
      "type": "function"
    },
    {
      "constant": false,
      "inputs": [
        {
          "internalType": "bytes32",
          "name": "poll32",
          "type": "bytes32"
        },
        {
          "internalType": "bytes4",
          "name": "fnNameHash",
          "type": "bytes4"
        },
        {
          "internalType": "bytes32",
          "name": "data",
          "type": "bytes32"
        },
        {
          "internalType": "uint8",
          "name": "vt",
          "type": "uint8"
        }
      ],
      "name": "storeResult",
      "outputs": [],
      "payable": false,
      "stateMutability": "nonpayable",
      "type": "function"
    },
    {
      "constant": true,
      "inputs": [
        {
          "internalType": "string",
          "name": "_poll",
          "type": "string"
        },
        {
          "internalType": "uint8",
          "name": "validationType",
          "type": "uint8"
        }
      ],
      "name": "serialiseStakers",
      "outputs": [
        {
          "internalType": "string",
          "name": "",
          "type": "string"
        }
      ],
      "payable": false,
      "stateMutability": "view",
      "type": "function"
    },
    {
      "constant": true,
      "inputs": [
        {
          "internalType": "string",
          "name": "_poll",
          "type": "string"
        },
        {
          "internalType": "uint8",
          "name": "validationType",
          "type": "uint8"
        }
      ],
      "name": "serialiseProofs",
      "outputs": [
        {
          "internalType": "string",
          "name": "",
          "type": "string"
        }
      ],
      "payable": false,
      "stateMutability": "view",
      "type": "function"
    },
    {
      "constant": false,
      "inputs": [
        {
          "internalType": "address",
          "name": "_pollContract",
          "type": "address"
        },
        {
          "internalType": "string",
          "name": "_poll",
          "type": "string"
        },
        {
          "internalType": "bytes32",
          "name": "_reveal",
          "type": "bytes32"
        }
      ],
      "name": "xcValidate",
      "outputs": [
        {
          "internalType": "bool",
          "name": "success",
          "type": "bool"
        }
      ],
      "payable": true,
      "stateMutability": "payable",
      "type": "function"
    },
    {
      "constant": false,
      "inputs": [
        {
          "internalType": "address",
          "name": "_validator",
          "type": "address"
        },
        {
          "internalType": "bytes4",
          "name": "fnNameHash",
          "type": "bytes4"
        },
        {
          "internalType": "string",
          "name": "poll",
          "type": "string"
        },
        {
          "internalType": "uint8",
          "name": "vt",
          "type": "uint8"
        },
        {
          "internalType": "bytes32[]",
          "name": "reveal",
          "type": "bytes32[]"
        }
      ],
      "name": "crossContractValidateCall",
      "outputs": [
        {
          "internalType": "bytes32[]",
          "name": "",
          "type": "bytes32[]"
        }
      ],
      "payable": false,
      "stateMutability": "nonpayable",
      "type": "function"
    },
    {
      "constant": false,
      "inputs": [
        {
          "internalType": "string",
          "name": "_poll",
          "type": "string"
        },
        {
          "internalType": "string",
          "name": "data",
          "type": "string"
        }
      ],
      "name": "callValidator_MututalAgreement",
      "outputs": [
        {
          "internalType": "bool",
          "name": "",
          "type": "bool"
        }
      ],
      "payable": false,
      "stateMutability": "nonpayable",
      "type": "function"
    }
  ],
  "bytecode": "0x60806040523480156200001157600080fd5b5073a145493cc19b0bc6c5a2ca86e9ba38bb435e3f5b60056000600160ff16815260200190815260200160002060006101000a81548173ffffffffffffffffffffffffffffffffffffffff021916908373ffffffffffffffffffffffffffffffffffffffff1602179055506040518060400160405280601081526020017f4d757475616c2041677265656d656e740000000000000000000000000000000081525060066000600160ff1681526020019081526020016000209080519060200190620000de92919062000126565b5030600860006101000a81548173ffffffffffffffffffffffffffffffffffffffff021916908373ffffffffffffffffffffffffffffffffffffffff160217905550620001d5565b828054600181600116156101000203166002900490600052602060002090601f016020900481019282601f106200016957805160ff19168380011785556200019a565b828001600101855582156200019a579182015b82811115620001995782518255916020019190600101906200017c565b5b509050620001a99190620001ad565b5090565b620001d291905b80821115620001ce576000816000905550600101620001b4565b5090565b90565b612a9980620001e56000396000f3fe60806040526004361061014b5760003560e01c806383c7f14c116100b6578063965457ba1161006f578063965457ba14610721578063bfe370d91461075e578063c1c098471461079b578063d122491a146107d8578063e381047d14610815578063e505b8f2146108535761014b565b806383c7f14c146105c5578063893d20e8146106025780638d894b281461062d5780638ee879c71461066a5780639201de55146106a757806394c6f3b1146106e45761014b565b80635602493911610108578063560249391461049e5780635e3e225f146104db5780636411df2f146105045780636b2019d4146105345780637197624e1461055d57806377456a7b146105885761014b565b806306efc69c1461034357806313311a1c1461036c57806326a9cdf7146103a957806329eece6f146103e7578063406de18c146104245780634c0999c714610461575b60606000368080601f016020809104026020016040519081016040528093929190818152602001838380828437600081840152601f19601f8201169050808301925050505050505090506000606060008060606101a786610890565b80955081945050506101b884610a1b565b80955081965050506101c984610a1b565b809250819350505061020f6040518060400160405280600681526020017f7374616b65720000000000000000000000000000000000000000000000000000815250610ba6565b7bffffffffffffffffffffffffffffffffffffffffffffffffffffffff1916837bffffffffffffffffffffffffffffffffffffffffffffffffffffffff191614156102795761027661027161026387610bb7565b61026c84610bce565b610c29565b610c51565b91505b6102b76040518060400160405280600581526020017f70726f6f66000000000000000000000000000000000000000000000000000000815250610ba6565b7bffffffffffffffffffffffffffffffffffffffffffffffffffffffff1916837bffffffffffffffffffffffffffffffffffffffffffffffffffffffff191614156103215761031e61031961030b87610bb7565b61031484610bce565b610c5f565b610c51565b91505b61033585848461033085610bce565b610c84565b610100604051605881538181f35b34801561034f57600080fd5b5061036a60048036036103659190810190611ecd565b610c84565b005b34801561037857600080fd5b50610393600480360361038e91908101906121db565b610c5f565b6040516103a091906126d8565b60405180910390f35b3480156103b557600080fd5b506103d060048036036103cb9190810190611f30565b610a1b565b6040516103de929190612619565b60405180910390f35b3480156103f357600080fd5b5061040e60048036036104099190810190611f71565b610c51565b60405161041b91906125fe565b60405180910390f35b34801561043057600080fd5b5061044b60048036036104469190810190611d6d565b610cff565b604051610458919061271a565b60405180910390f35b34801561046d57600080fd5b5061048860048036036104839190810190611ea4565b610d17565b6040516104959190612694565b60405180910390f35b3480156104aa57600080fd5b506104c560048036036104c091908101906121db565b610c29565b6040516104d291906126d8565b60405180910390f35b3480156104e757600080fd5b5061050260048036036104fd9190810190612130565b610dbf565b005b61051e60048036036105199190810190611e3d565b610e25565b60405161052b91906125e3565b60405180910390f35b34801561054057600080fd5b5061055b6004803603610556919081019061209d565b610e2e565b005b34801561056957600080fd5b50610572610ebb565b60405161057f91906126d8565b60405180910390f35b34801561059457600080fd5b506105af60048036036105aa9190810190611f71565b611044565b6040516105bc919061259f565b60405180910390f35b3480156105d157600080fd5b506105ec60048036036105e79190810190611f30565b61117b565b6040516105f99190612649565b60405180910390f35b34801561060e57600080fd5b50610617611198565b6040516106249190612584565b60405180910390f35b34801561063957600080fd5b50610654600480360361064f9190810190611fb2565b6111c1565b60405161066191906125e3565b60405180910390f35b34801561067657600080fd5b50610691600480360361068c919081019061222f565b6113cc565b60405161069e91906126b6565b60405180910390f35b3480156106b357600080fd5b506106ce60048036036106c99190810190611ea4565b610bb7565b6040516106db91906126d8565b60405180910390f35b3480156106f057600080fd5b5061070b60048036036107069190810190611f71565b610ba6565b6040516107189190612649565b60405180910390f35b34801561072d57600080fd5b506107486004803603610743919081019061222f565b61147c565b6040516107559190612584565b60405180910390f35b34801561076a57600080fd5b5061078560048036036107809190810190611f30565b6114af565b60405161079291906125fe565b60405180910390f35b3480156107a757600080fd5b506107c260048036036107bd9190810190611d96565b6114c2565b6040516107cf91906125c1565b60405180910390f35b3480156107e457600080fd5b506107ff60048036036107fa919081019061201e565b611522565b60405161080c91906125c1565b60405180910390f35b34801561082157600080fd5b5061083c60048036036108379190810190611f30565b610890565b60405161084a929190612664565b60405180910390f35b34801561085f57600080fd5b5061087a60048036036108759190810190611f71565b6115c7565b60405161088791906125c1565b60405180910390f35b6000606060006004905060008090508160ff16855111156108b5578160ff1685510390505b600060608360ff166040519080825280601f01601f1916602001820160405280156108ef5781602001600182028038833980820191505090505b5090506060836040519080825280601f01601f1916602001820160405280156109275781602001600182028038833980820191505090505b50905060008090505b60018951038111610a02578560ff1681101561099d5788818151811061095257fe5b602001015160f81c60f81b83828151811061096957fe5b60200101907effffffffffffffffffffffffffffffffffffffffffffffffffffffffffffff1916908160001a9053506109f5565b8881815181106109a957fe5b602001015160f81c60f81b828760ff168303815181106109c557fe5b60200101907effffffffffffffffffffffffffffffffffffffffffffffffffffffffffffff1916908160001a9053505b8080600101915050610930565b50610a0c8261117b565b81965096505050505050915091565b6000606060006020905060008090508160ff1685511115610a40578160ff1685510390505b600060608360ff166040519080825280601f01601f191660200182016040528015610a7a5781602001600182028038833980820191505090505b5090506060836040519080825280601f01601f191660200182016040528015610ab25781602001600182028038833980820191505090505b50905060008090505b60018951038111610b8d578560ff16811015610b2857888181518110610add57fe5b602001015160f81c60f81b838281518110610af457fe5b60200101907effffffffffffffffffffffffffffffffffffffffffffffffffffffffffffff1916908160001a905350610b80565b888181518110610b3457fe5b602001015160f81c60f81b828760ff16830381518110610b5057fe5b60200101907effffffffffffffffffffffffffffffffffffffffffffffffffffffffffffff1916908160001a9053505b8080600101915050610abb565b50610b97826114af565b81965096505050505050915091565b600081805190602001209050919050565b606080610bc383610d17565b905080915050919050565b6000600182511015610c15576040517f08c379a0000000000000000000000000000000000000000000000000000000008152600401610c0c906126fa565b60405180910390fd5b600080600184010151905080915050919050565b606080604051806060016040528060248152602001612a336024913990508091505092915050565b600060208201519050919050565b606080604051806060016040528060238152602001612a106023913990505092915050565b60018160ff161415610cf9576000848483604051602001610ca79392919061250e565b604051602081830303815290604052805190602001209050610cd0610ccb84610bb7565b6115c7565b600260008381526020019081526020016000209080519060200190610cf6929190611b62565b50505b50505050565b60076020528060005260406000206000915090505481565b60608060206040519080825280601f01601f191660200182016040528015610d4e5781602001600182028038833980820191505090505b50905060005b6020811015610db557838160208110610d6957fe5b1a60f81b828281518110610d7957fe5b60200101907effffffffffffffffffffffffffffffffffffffffffffffffffffffffffffff1916908160001a9053508080600101915050610d54565b5080915050919050565b600084610dcb85610ba6565b84604051602001610dde9392919061254b565b60405160208183030381529060405280519060200120905081600260008381526020019081526020016000209080519060200190610e1d929190611b62565b505050505050565b60009392505050565b600084610e3a85610ba6565b84604051602001610e4d9392919061254b565b604051602081830303815290604052805190602001209050600260008281526020019081526020016000208260601b6bffffffffffffffffffffffff191690806001815401808255809150509060018203906000526020600020016000909192909190915055505050505050565b606060007f71776572747975696f706173646667686a6b6c7a786376626e6d31323334353660001b90506060808282600081518110610ef657fe5b6020026020010181815250508282600081518110610f1057fe5b6020026020010181815250508281600181518110610f2a57fe5b6020026020010181815250508281600181518110610f4457fe5b602002602001018181525050610fc76040518060400160405280602081526020017f646f6f646c652e636f6d2f706f6c6c2f723972623335666969627673336161358152506040518060400160405280600681526020017f7374616b65720000000000000000000000000000000000000000000000000000815250600185610dbf565b61103e6040518060400160405280602081526020017f646f6f646c652e636f6d2f706f6c6c2f723972623335666969627673336161358152506040518060400160405280600581526020017f70726f6f66000000000000000000000000000000000000000000000000000000815250600184610dbf565b50505090565b606061104e611baf565b61105783611642565b9050611061611baf565b61109f6040518060400160405280600181526020017f2c00000000000000000000000000000000000000000000000000000000000000815250611642565b9050606060016110b8838561167090919063ffffffff16565b016040519080825280602002602001820160405280156110e75781602001602082028038833980820191505090505b50905060008090505b815181101561116f5761111c61111761111285876116e590919063ffffffff16565b6116ff565b611761565b82828151811061112857fe5b602002602001019073ffffffffffffffffffffffffffffffffffffffff16908173ffffffffffffffffffffffffffffffffffffffff168152505080806001019150506110f0565b50809350505050919050565b600080635050505060e01b90506020830151905080915050919050565b60008060009054906101000a900473ffffffffffffffffffffffffffffffffffffffff16905090565b600080600190506112b8600660008360ff1660ff1681526020019081526020016000208054600181600116156101000203166002900480601f0160208091040260200160405190810160405280929190818152602001828054600181600116156101000203166002900480156112785780601f1061124d57610100808354040283529160200191611278565b820191906000526020600020905b81548152906001019060200180831161125b57829003601f168201915b50505050506040518060400160405280601081526020017f4d757475616c2041677265656d656e74000000000000000000000000000000008152506118d3565b6112be57fe5b6060611307600560008460ff1660ff16815260200190815260200160002060009054906101000a900473ffffffffffffffffffffffffffffffffffffffff16866000801b610e25565b5061138b600560008460ff1660ff16815260200190815260200160002060009054906101000a900473ffffffffffffffffffffffffffffffffffffffff166113836040518060400160405280600881526020017f76616c6964617465000000000000000000000000000000000000000000000000815250610ba6565b8785856114c2565b507fd65038c0be209d4ae257f7e73a69b8b787796717cd2ce67d00d7e02c9de1020e60006040516113bc91906125e3565b60405180910390a1505092915050565b60066020528060005260406000206000915090508054600181600116156101000203166002900480601f0160208091040260200160405190810160405280929190818152602001828054600181600116156101000203166002900480156114745780601f1061144957610100808354040283529160200191611474565b820191906000526020600020905b81548152906001019060200180831161145757829003601f168201915b505050505081565b60056020528060005260406000206000915054906101000a900473ffffffffffffffffffffffffffffffffffffffff1681565b6000806020830151905080915050919050565b606060008690506000602090507f1ff50e4650f7f1e5b26a5f5e921b803deee4a95a1b6ef46e05992b3bc1dcdb8c60405160405180910390a160405136600082376000803683865af43d806000843e816000811461151e578184f35b8184fd5b606060008461153085610ba6565b846040516020016115439392919061254b565b604051602081830303815290604052805190602001209050600260008281526020019081526020016000208054806020026020016040519081016040528092919081815260200182805480156115b857602002820191906000526020600020905b8154815260200190600101908083116115a4575b50505050509150509392505050565b6060806115d383611044565b90506000815190505b6000818060019003925060ff16111561163857818160ff16815181106115fe57fe5b602002602001015160601b6bffffffffffffffffffffffff1916838260ff168151811061162757fe5b6020026020010181815250506115dc565b8292505050919050565b61164a611baf565b600060208301905060405180604001604052808451815260200182815250915050919050565b600080826000015161169485600001518660200151866000015187602001516119a0565b0190505b836000015184602001510181116116de57818060010192505082600001516116d68560200151830386600001510383866000015187602001516119a0565b019050611698565b5092915050565b6116ed611baf565b6116f8838383611a7b565b5092915050565b60608082600001516040519080825280601f01601f1916602001820160405280156117395781602001600182028038833980820191505090505b50905060006020820190506117578185602001518660000151611b19565b8192505050919050565b6000606082905060008090506000806000600290505b602a8110156118c6576101008402935084818151811061179357fe5b602001015160f81c60f81b60f81c92508460018201815181106117b257fe5b602001015160f81c60f81b60f81c915060618360ff16101580156117da575060668360ff1611155b156117ea57605783039250611838565b60308360ff1610158015611802575060398360ff1611155b1561181257603083039250611837565b60418360ff161015801561182a575060468360ff1611155b15611836576037830392505b5b5b60618260ff1610158015611850575060668260ff1611155b15611860576057820391506118ae565b60308260ff1610158015611878575060398260ff1611155b15611888576030820391506118ad565b60418260ff16101580156118a0575060468260ff1611155b156118ac576037820391505b5b5b81601084020160ff1684019350600281019050611777565b5082945050505050919050565b60006060839050606083905080518251146118f35760009250505061199a565b60008090505b82518110156119925781818151811061190e57fe5b602001015160f81c60f81b7effffffffffffffffffffffffffffffffffffffffffffffffffffffffffffff191683828151811061194757fe5b602001015160f81c60f81b7effffffffffffffffffffffffffffffffffffffffffffffffffffffffffffff191614611985576000935050505061199a565b80806001019150506118f9565b506001925050505b92915050565b6000808490506000868511611a6b5760208511611a2557600060018660200360080260020a031960001b905060008186511690506000878a8a0103905060008386511690505b828114611a1757818610611a04578a8a019650505050505050611a73565b85806001019650508386511690506119e6565b859650505050505050611a73565b60008585209050600091505b8588038211611a69576000868420905080821415611a555783945050505050611a73565b600184019350508180600101925050611a31565b505b868601925050505b949350505050565b611a83611baf565b6000611aa185600001518660200151866000015187602001516119a0565b90508460200151836020018181525050846020015181038360000181815250508460000151856020015101811415611ae3576000856000018181525050611b0e565b8360000151836000015101856000018181510391508181525050836000015181018560200181815250505b829150509392505050565b5b60208110611b3d5781518352602083019250602082019150602081039050611b1a565b60006001826020036101000a0390508019835116818551168181178652505050505050565b828054828255906000526020600020908101928215611b9e579160200282015b82811115611b9d578251825591602001919060010190611b82565b5b509050611bab9190611bc9565b5090565b604051806040016040528060008152602001600081525090565b611beb91905b80821115611be7576000816000905550600101611bcf565b5090565b90565b600081359050611bfd816129b3565b92915050565b600082601f830112611c1457600080fd5b8135611c27611c2282612762565b612735565b91508181835260208401935060208101905083856020840282011115611c4c57600080fd5b60005b83811015611c7c5781611c628882611c86565b845260208401935060208301925050600181019050611c4f565b5050505092915050565b600081359050611c95816129ca565b92915050565b600081359050611caa816129e1565b92915050565b600082601f830112611cc157600080fd5b8135611cd4611ccf8261278a565b612735565b91508082526020830160208301858383011115611cf057600080fd5b611cfb83828461292d565b50505092915050565b600082601f830112611d1557600080fd5b8135611d28611d23826127b6565b612735565b91508082526020830160208301858383011115611d4457600080fd5b611d4f83828461292d565b50505092915050565b600081359050611d67816129f8565b92915050565b600060208284031215611d7f57600080fd5b6000611d8d84828501611bee565b91505092915050565b600080600080600060a08688031215611dae57600080fd5b6000611dbc88828901611bee565b9550506020611dcd88828901611c9b565b945050604086013567ffffffffffffffff811115611dea57600080fd5b611df688828901611d04565b9350506060611e0788828901611d58565b925050608086013567ffffffffffffffff811115611e2457600080fd5b611e3088828901611c03565b9150509295509295909350565b600080600060608486031215611e5257600080fd5b6000611e6086828701611bee565b935050602084013567ffffffffffffffff811115611e7d57600080fd5b611e8986828701611d04565b9250506040611e9a86828701611c86565b9150509250925092565b600060208284031215611eb657600080fd5b6000611ec484828501611c86565b91505092915050565b60008060008060808587031215611ee357600080fd5b6000611ef187828801611c86565b9450506020611f0287828801611c9b565b9350506040611f1387828801611c86565b9250506060611f2487828801611d58565b91505092959194509250565b600060208284031215611f4257600080fd5b600082013567ffffffffffffffff811115611f5c57600080fd5b611f6884828501611cb0565b91505092915050565b600060208284031215611f8357600080fd5b600082013567ffffffffffffffff811115611f9d57600080fd5b611fa984828501611d04565b91505092915050565b60008060408385031215611fc557600080fd5b600083013567ffffffffffffffff811115611fdf57600080fd5b611feb85828601611d04565b925050602083013567ffffffffffffffff81111561200857600080fd5b61201485828601611d04565b9150509250929050565b60008060006060848603121561203357600080fd5b600084013567ffffffffffffffff81111561204d57600080fd5b61205986828701611d04565b935050602084013567ffffffffffffffff81111561207657600080fd5b61208286828701611d04565b925050604061209386828701611d58565b9150509250925092565b600080600080608085870312156120b357600080fd5b600085013567ffffffffffffffff8111156120cd57600080fd5b6120d987828801611d04565b945050602085013567ffffffffffffffff8111156120f657600080fd5b61210287828801611d04565b935050604061211387828801611d58565b925050606061212487828801611bee565b91505092959194509250565b6000806000806080858703121561214657600080fd5b600085013567ffffffffffffffff81111561216057600080fd5b61216c87828801611d04565b945050602085013567ffffffffffffffff81111561218957600080fd5b61219587828801611d04565b93505060406121a687828801611d58565b925050606085013567ffffffffffffffff8111156121c357600080fd5b6121cf87828801611c03565b91505092959194509250565b600080604083850312156121ee57600080fd5b600083013567ffffffffffffffff81111561220857600080fd5b61221485828601611d04565b925050602061222585828601611d58565b9150509250929050565b60006020828403121561224157600080fd5b600061224f84828501611d58565b91505092915050565b60006122648383612288565b60208301905092915050565b600061227c8383612371565b60208301905092915050565b612291816128a2565b82525050565b6122a0816128a2565b82525050565b60006122b182612802565b6122bb8185612853565b93506122c6836127e2565b8060005b838110156122f75781516122de8882612258565b97506122e983612839565b9250506001810190506122ca565b5085935050505092915050565b600061230f8261280d565b6123198185612864565b9350612324836127f2565b8060005b8381101561235557815161233c8882612270565b975061234783612846565b925050600181019050612328565b5085935050505092915050565b61236b816128b4565b82525050565b61237a816128c0565b82525050565b612389816128c0565b82525050565b6123a061239b826128c0565b61296f565b82525050565b6123af816128ca565b82525050565b6123c66123c1826128ca565b612979565b82525050565b60006123d782612818565b6123e18185612875565b93506123f181856020860161293c565b6123fa81612995565b840191505092915050565b60006124108261282e565b61241a8185612886565b935061242a81856020860161293c565b61243381612995565b840191505092915050565b60006124498261282e565b6124538185612897565b935061246381856020860161293c565b80840191505092915050565b600061247a82612823565b6124848185612886565b935061249481856020860161293c565b61249d81612995565b840191505092915050565b60006124b5601283612886565b91507f52656164206f7574206f6620626f756e647300000000000000000000000000006000830152602082019050919050565b6124f181612916565b82525050565b61250861250382612920565b612983565b82525050565b600061251a828661238f565b60208201915061252a82856123b5565b60048201915061253a82846124f7565b600182019150819050949350505050565b6000612557828661243e565b915061256382856123b5565b60048201915061257382846124f7565b600182019150819050949350505050565b60006020820190506125996000830184612297565b92915050565b600060208201905081810360008301526125b981846122a6565b905092915050565b600060208201905081810360008301526125db8184612304565b905092915050565b60006020820190506125f86000830184612362565b92915050565b60006020820190506126136000830184612380565b92915050565b600060408201905061262e6000830185612380565b818103602083015261264081846123cc565b90509392505050565b600060208201905061265e60008301846123a6565b92915050565b600060408201905061267960008301856123a6565b818103602083015261268b81846123cc565b90509392505050565b600060208201905081810360008301526126ae81846123cc565b905092915050565b600060208201905081810360008301526126d0818461246f565b905092915050565b600060208201905081810360008301526126f28184612405565b905092915050565b60006020820190508181036000830152612713816124a8565b9050919050565b600060208201905061272f60008301846124e8565b92915050565b6000604051905081810181811067ffffffffffffffff8211171561275857600080fd5b8060405250919050565b600067ffffffffffffffff82111561277957600080fd5b602082029050602081019050919050565b600067ffffffffffffffff8211156127a157600080fd5b601f19601f8301169050602081019050919050565b600067ffffffffffffffff8211156127cd57600080fd5b601f19601f8301169050602081019050919050565b6000819050602082019050919050565b6000819050602082019050919050565b600081519050919050565b600081519050919050565b600081519050919050565b600081519050919050565b600081519050919050565b6000602082019050919050565b6000602082019050919050565b600082825260208201905092915050565b600082825260208201905092915050565b600082825260208201905092915050565b600082825260208201905092915050565b600081905092915050565b60006128ad826128f6565b9050919050565b60008115159050919050565b6000819050919050565b60007fffffffff0000000000000000000000000000000000000000000000000000000082169050919050565b600073ffffffffffffffffffffffffffffffffffffffff82169050919050565b6000819050919050565b600060ff82169050919050565b82818337600083830152505050565b60005b8381101561295a57808201518184015260208101905061293f565b83811115612969576000848401525b50505050565b6000819050919050565b6000819050919050565b600061298e826129a6565b9050919050565b6000601f19601f8301169050919050565b60008160f81b9050919050565b6129bc816128a2565b81146129c757600080fd5b50565b6129d3816128c0565b81146129de57600080fd5b50565b6129ea816128ca565b81146129f557600080fd5b50565b612a0181612920565b8114612a0c57600080fd5b5056fe526573756c7421202d2066726f6d20706f6c6c2e73657269616c69736550726f6f6673526573756c7421202d2066726f6d20706f6c6c2e73657269616c6973655374616b657273a365627a7a723158207356d5256a4e0b488cebdb351a6fb65ca5f710e2b205110eeb54b460ea99a5c16c6578706572696d656e74616cf564736f6c63430005100040",
  "source": "pragma solidity ^0.5.7;\npragma experimental ABIEncoderV2;\n\nimport \"./strings.sol\";\n// import \"github.com/GNSPS/solidity-bytes-utils/contracts/BytesLib.sol\";   // requires sol 0.5+\nimport \"./stringCasting.sol\";\n\ncontract PollReference {\n    // Common storage structure for ALL contacts using this storage.\n    // _, __, __ , etc are unused in this contract, but must remain to occupy their slots.\n\n    address owner;  // is set by TokenStorage.. but retain types and order.\n\n    struct TimeRange {\n      uint start;\n      uint end;\n    }\n\n    struct Stake {\n      uint rep;\n      TimeRange[] available;\n      uint availabilityExpires;\n    }\n\n    struct Dibs {\n      address payer;\n      address recipient;\n      uint amount;\n    }\n\n    struct Poll {\n      address initiator;\n      uint minStake;\n      int venueCost;\n      uint venuePot;\n      address venuePayer;\n      uint8 minParticipants;\n      TimeRange eventTime;\n      bool proofsWindowClosed;\n      mapping (address => Stake) staked;\n      mapping (address => uint16) ownCheckInIndex;           // 1-indexed: ownCheckInIndex[s]==0 => nothing there.\n      Dibs[] dibsCalled;\n    }\n\n    // shared across contracts\n    mapping (address => uint) rep;\n    mapping (bytes32 => bytes32[]) allTheData;\n    mapping (bytes32 => Poll) pollData;\n    mapping (bytes32 => bool) resultsCache;\n\n    // used only in Poll\n    mapping(uint8 => address) public validators;\n    mapping(uint8 => string) public validatorNames;\n    mapping(address => uint) public cashBalance;\n    address selfAddy ;\n\n    // unused - previously for Storage Proxy\n    //    mapping (address => bool) internal _allowedAccess;\n\n\n    using strings for *;\n    using stringcast for string;\n\n    constructor () public /* is PollCommunity */ {\n        validators[1] = address(0xA145493CC19b0BC6C5a2cA86e9BA38BB435E3F5b);\n        validatorNames[1] = \"Mutual Agreement\";\n        selfAddy = address(this);\n        // constructed = 1;\n    }\n\n\n    // function getPollOK() public view returns (uint8) {\n    //   return ok;\n    // }\n    //\n    // function setPollOK (uint8 _ok) public {\n    //   ok = _ok;\n    // }\n    //\n    // function getPollResult() public view returns (uint8) {\n    //   return result;\n    // }\n    //\n    // function setPollResult (uint8 _result) public {\n    //   result = _result;\n    // }\n    //\n    // function getMyMap(uint idx) public view returns (uint) {\n    //   return myMap[idx];\n    // }\n    //\n    // function setMyMap (uint idx, uint _myMap) public {\n    //   myMap[idx] = _myMap;\n    // }\n\n    function getOwner() public view returns (address) {\n      return owner;\n    }\n\n    function() external payable {\n        // NB sol 0.6+ better syntax for calldata arrays : https://solidity.readthedocs.io/en/v0.6.0/types.html#array-slices\n        bytes memory input = msg.data;\n\n        // TODO: This is V.0 accepting a string (really a bytes32) of EXACTLY 32 bytes, eg a doodle poll without the https:// ;)\n        bytes32 poll32;\n        bytes memory rest;\n        bytes4 fnNameHash;\n        bytes32 result;\n        bytes memory vType;\n\n        (fnNameHash, rest) = (bytesSplit4(input));\n        (poll32, rest) = (bytesSplit32(rest));\n        (result, vType) = (bytesSplit32(rest));\n\n        if (fnNameHash == encodeFunctionName(\"staker\")) {\n            //NB wrapping these in bytes32 for testing, but keep as strings until you are ready to deserialise bytes32, cos they still good here!\n            // NB serialiseStakers depreacted - removed from validaotr\n            result = string32ToBytes32( serialiseStakers(bytes32ToString(poll32), toUint8(vType)) );\n        }\n        // NB serialiseProofs deprecated - removed from validator\n        if (fnNameHash == encodeFunctionName(\"proof\")) {\n            //NB wrapping these in bytes32 for testing, but keep as strings until you are ready to deserialise bytes32, cos they still good here!\n            result = string32ToBytes32(serialiseProofs(bytes32ToString(poll32), toUint8(vType)) );\n        }\n        // Warning: This hack introduces possible griefing attack - better would be to force EVM to return the result of this lookup from fallback, not store and retreive it :/\n\n        storeResult(poll32, fnNameHash, result, toUint8(vType));\n\n        assembly {\n            let size := 256\n            let ptr := mload(0x40)\n            mstore8(ptr, 88)\n            return(ptr, size)\n        }\n    }\n\n    // function ownAddress () public view returns (address) {\n    //     return selfAddy;\n    // }\n    //\n    // function getStateVars () public view returns (uint256, address, string memory, address, int8) {\n    //     return (notes, validators[1], validatorNames[1], selfAddy, constructed);\n    // }\n    //\n    // event ValidatorSet();\n    // function setValidator1 (address newAddy) public returns (bool) {\n    //     validators[1] = newAddy;\n    //     emit ValidatorSet();\n    //     return true;\n    // }\n    //\n    // function getValidator1 () public view returns (address) {\n    //     return validators[1];\n    // }\n    //\n    // function setValidator1Name (string memory newName) public returns (bool) {\n    //     validatorNames[1] = newName;\n    //     emit ValidatorSet();\n    //     return true;\n    // }\n    //\n    // function getValidator1Name () public view returns (string memory) {\n    //     return validatorNames[1];\n    // }\n\n    // event RetrievedDataCache(string, uint256, bytes32[]);\n    function retrieve (string memory _poll, string memory _mapName, uint8 _vt) public view returns (bytes32[] memory) {\n        bytes32 hash = keccak256(abi.encodePacked(_poll, encodeFunctionName(_mapName), _vt));\n        // emit RetrievedDataCache(\"Poll context:\", notes, allTheData[hash]);\n        return (allTheData[hash]);\n    }\n\n    function set (string memory _poll, string memory _mapName, uint8 _vt, bytes32[] memory data) public {\n      bytes32 hash = keccak256(abi.encodePacked(_poll, encodeFunctionName(_mapName), _vt));\n      allTheData[hash] = data;\n    }\n\n    function justSetStuff() public returns (string memory ace) {\n      bytes32 b1 = bytes32(0x71776572747975696f706173646667686a6b6c7a786376626e6d313233343536);\n      bytes32[] memory inp1;\n      bytes32[] memory inp2;\n      inp1[0] = b1;\n      inp1[0] = b1;\n      inp2[1] = b1;\n      inp2[1] = b1;\n      // NB serialiseProofs deprecated - removed from validator\n      set (\"doodle.com/poll/r9rb35fiibvs3aa5\", \"staker\", 1, inp1);\n      set (\"doodle.com/poll/r9rb35fiibvs3aa5\", \"proof\", 1, inp2);\n    }\n\n    function add (string memory _poll, string memory _mapName, uint8 _vt, address newMember) public {\n      bytes32 hash = keccak256(abi.encodePacked(_poll, encodeFunctionName(_mapName), _vt));\n      allTheData[hash].push (bytes32(bytes20(newMember)));\n    }\n\n    function stringsEqual (string memory _a, string memory _b) internal pure returns (bool) {\n        bytes memory a = bytes(_a);\n        bytes memory b = bytes(_b);\n\n        if (a.length != b.length)\n            return false;\n\n        for (uint i = 0; i < a.length; i ++)\n            if (a[i] != b[i])\n                return false;\n\n        return true;\n    }\n\n    function string32ToBytes32(string memory source) public pure returns (bytes32 result) {\n        assembly {\n        result := mload(add(source, 32))\n        }\n    }\n\n    // split a serialised string of addresses (as received from main contract).\n    // NB - only works in mutual agreement validator - other validators will use multiple types within serialised string\n    function splitToAddresses(string memory source) public pure returns (address[] memory result) {\n        strings.slice memory packed = source.toSlice();\n        strings.slice memory delim = \",\".toSlice();\n        address[] memory parts = new address[](packed.count(delim)+1);  // why doesn't this lose a member?\n\n        for(uint i = 0; i < parts.length; i++) {\n           parts[i] = packed.split(delim).toString().toAddress();\n        }\n        return parts;\n    }\n\n    // function stringToBytes32(string memory source) {\n    //     bytes32[] memory result;\n    //     strings.slice memory remainder = source.toSlice();\n    //     while (remainder.length >= 32) {\n\n    //     }\n\n    // }\n\n\n\n    function bytesToBytes4(bytes  memory b)  public pure returns (bytes4 bts) {\n        bytes4 i = 0x50505050;\n        assembly { i := mload(add(b, 0x20)) }\n        bts = i;\n    }\n\n    function bytesToBytes32(bytes  memory b)  public pure returns (bytes32 bts) {\n        bytes32 i;\n        //NB size etc= 32b = 0x20b\n        assembly { i := mload(add(b, 0x20)) }\n        bts = i;\n    }\n\n    function toUint8(bytes memory _bytes) internal pure returns (uint8) {\n        require(_bytes.length >= (1), \"Read out of bounds\");\n        uint8 tempUint;\n\n        assembly {\n            tempUint := mload(add(add(_bytes, 0x1), 0))\n        }\n\n        return tempUint;\n    }\n\n    function bytes32ToBytes(bytes32 _bytes32) public pure returns (bytes memory){\n        // string memory str = string(_bytes32);\n        // TypeError: Explicit type conversion not allowed from \"bytes32\" to \"string storage pointer\"\n        bytes memory bytesArray = new bytes(32);\n        for (uint256 i; i < 32; i++) {\n            bytesArray[i] = _bytes32[i];\n        }\n        return bytesArray;\n    }\n\n    function bytes32ToString(bytes32 _bytes32) public pure returns (string memory){\n        bytes memory bytesArray = bytes32ToBytes(_bytes32);\n        return string(bytesArray);\n    }\n\n    function bytesSplit4(bytes memory data) public pure returns (bytes4, bytes memory) {\n        uint8 splitAt = 4;                             // all (if variable split, pass in splitAt)\n        uint256 taillength = 0;\n        if (data.length > splitAt)\n            taillength = data.length-splitAt;\n        bytes4 temp;\n        // bytes4 head;                                   // 4b split\n        bytes memory head = new bytes(splitAt);         // variable length split\n        bytes memory tail = new bytes(taillength);\n        for(uint i=0;i<=data.length-1;i++){\n            if (i<splitAt)\n                head[i] = bytes(data)[i] ;\n            else\n                tail[i-splitAt] = bytes(data)[i] ;\n        }\n        return (bytesToBytes4(head), tail);\n    }\n\n    function bytesSplit32(bytes memory data) public pure returns (bytes32, bytes memory) {\n        uint8 splitAt = 32;                             // all (if variable split, pass in splitAt)\n        uint256 taillength = 0;\n        if (data.length > splitAt)\n            taillength = data.length-splitAt;\n        bytes32 temp;\n        // bytes32 head;                                   // 32b split\n        bytes memory head = new bytes(splitAt);         // variable length split\n        bytes memory tail = new bytes(taillength);\n        for(uint i=0;i<=data.length-1;i++){\n            if (i<splitAt)\n                head[i] = bytes(data)[i] ;\n            else\n                tail[i-splitAt] = bytes(data)[i] ;\n        }\n        return (bytesToBytes32(head), tail);\n    }\n\n\n    function encodeFunctionName (string memory name) public pure returns (bytes4) {\n        // TODO: cache for readability!\n        // if (\"staker\")\n        //     return\n        // if (\"proof\")\n        //     return\n        return bytes4(keccak256(bytes(name)));\n    }\n\n    // temporary functionality to repoint to simple example, eg splitToAddresses\n    function unpackData (string memory packed) public pure returns (bytes32[] memory result) {\n        //NB relying on splitToAddresses doing string splitting here, as we rely on .length - available only on fixed size array.\n        address[] memory asAddresses = splitToAddresses(packed) ;\n        uint8 i = uint8(asAddresses.length) ;\n\n        while (i-- > 0) {\n            result[i] = bytes32(bytes20(asAddresses[i]));\n        }\n        return result;\n    }\n\n    function storeResult(bytes32 poll32, bytes4 fnNameHash, bytes32 data, uint8 vt)  public {\n        // uint256 notesToStore = 10000+vt;\n        if (vt == 1) {\n\n            bytes32 hash = keccak256(abi.encodePacked(poll32, fnNameHash, vt));\n\n            allTheData[hash] = unpackData(bytes32ToString(data));\n            // notesToStore=260;\n        }\n        // notes += notesToStore;\n    }\n\n    function serialiseStakers(string memory _poll, uint8 validationType) public view returns (string memory) {\n        string memory result = \"Result! - from poll.serialiseStakers\";\n        return result;\n    }\n\n    function serialiseProofs(string memory _poll, uint8 validationType) public view returns (string memory) {\n        string memory result = \"Result! - from poll.serialiseProofs\";\n    }\n\n    function xcValidate(address _pollContract, string memory _poll, bytes32 _reveal) public payable returns (bool success) {\n    }\n\n        // calls fallback function of contract at validatorAddress, passing 4 byte encoded function name to it to select method.\n    // NB in sol 0.6 + fallback cannot return anything\n    // NB future optimisation : we are not using the functionality of string here, since string must have come from a bytes32\n    event CrossContractValidateBegin();\n    event CrossContractValidateEnd();\n    function crossContractValidateCall (address _validator, bytes4 fnNameHash, string memory poll, uint8 vt, bytes32[] memory reveal)  public returns (bytes32[] memory) {\n        address validator = _validator;\n\n        uint8 offset = 32;\n        // NB 32b offset as space for validator contract address! (assumes no tight packing in calldata)\n        // TODO: this will need to be chucked at the other end, unless you want to do the subtraction in assembly :/\n\n        emit CrossContractValidateBegin();\n        assembly {\n            let ptr := mload(0x40)\n            calldatacopy(ptr, 0, calldatasize)\n            let result := delegatecall(gas, validator, ptr, calldatasize, 0, 0)\n            let size := returndatasize\n            returndatacopy(ptr, 0, size)\n            switch result\n            case 0 { revert(ptr, size) }\n            default { return(ptr, size) }\n        }\n        emit CrossContractValidateEnd();\n    }\n\n    event CrossContractValidateReturned(bool);\n    function callValidator_MututalAgreement(string memory _poll, string memory data) public returns (bool) {\n        uint8 vType = 1;\n        assert (stringsEqual(validatorNames[vType], \"Mutual Agreement\"));\n        bytes32[] memory empty;\n\n        // reveal parameter is unused in mutual agreement\n        xcValidate(validators[vType], _poll, bytes32(0) );\n        crossContractValidateCall(validators[vType], encodeFunctionName(\"validate\") , _poll, vType, empty );\n        //TODO: get return value!\n\n        emit CrossContractValidateReturned(false);\n\n\n    }\n}\n",
  "sourcePath": "/home/teide/randomCode/lunchcoin/contracts.v1/contracts/PollReference.sol",
  "compiler": {
    "name": "solc",
    "version": "0.5.16+commit.9c3226ce.Emscripten.clang"
  },
  "schemaVersion": "3.2.0",
  "updatedAt": "2020-06-27T21:22:32.756Z",
  "networkType": "ethereum",
  "devdoc": {
    "methods": {}
  },
  "userdoc": {
    "methods": {}
  }
}