{
  "contractName": "PollReference",
  "abi": [
    {
      "inputs": [],
      "payable": false,
      "stateMutability": "nonpayable",
      "type": "constructor"
    },
    {
      "anonymous": false,
      "inputs": [],
      "name": "CrossContractValidateBegin",
      "type": "event"
    },
    {
      "anonymous": false,
      "inputs": [],
      "name": "CrossContractValidateEnd",
      "type": "event"
    },
    {
      "anonymous": false,
      "inputs": [
        {
          "indexed": false,
          "internalType": "bool",
          "name": "",
          "type": "bool"
        }
      ],
      "name": "CrossContractValidateReturned",
      "type": "event"
    },
    {
      "payable": true,
      "stateMutability": "payable",
      "type": "fallback"
    },
    {
      "constant": true,
      "inputs": [
        {
          "internalType": "address",
          "name": "",
          "type": "address"
        }
      ],
      "name": "cashBalance",
      "outputs": [
        {
          "internalType": "uint256",
          "name": "",
          "type": "uint256"
        }
      ],
      "payable": false,
      "stateMutability": "view",
      "type": "function"
    },
    {
      "constant": true,
      "inputs": [
        {
          "internalType": "uint8",
          "name": "",
          "type": "uint8"
        }
      ],
      "name": "validatorNames",
      "outputs": [
        {
          "internalType": "string",
          "name": "",
          "type": "string"
        }
      ],
      "payable": false,
      "stateMutability": "view",
      "type": "function"
    },
    {
      "constant": true,
      "inputs": [
        {
          "internalType": "uint8",
          "name": "",
          "type": "uint8"
        }
      ],
      "name": "validators",
      "outputs": [
        {
          "internalType": "address",
          "name": "",
          "type": "address"
        }
      ],
      "payable": false,
      "stateMutability": "view",
      "type": "function"
    },
    {
      "constant": true,
      "inputs": [],
      "name": "getOwner",
      "outputs": [
        {
          "internalType": "address",
          "name": "",
          "type": "address"
        }
      ],
      "payable": false,
      "stateMutability": "view",
      "type": "function"
    },
    {
      "constant": true,
      "inputs": [],
      "name": "getFlag",
      "outputs": [
        {
          "internalType": "int256",
          "name": "",
          "type": "int256"
        }
      ],
      "payable": false,
      "stateMutability": "view",
      "type": "function"
    },
    {
      "constant": false,
      "inputs": [
        {
          "internalType": "int256",
          "name": "_flag",
          "type": "int256"
        }
      ],
      "name": "setFlag",
      "outputs": [],
      "payable": false,
      "stateMutability": "nonpayable",
      "type": "function"
    },
    {
      "constant": true,
      "inputs": [
        {
          "internalType": "string",
          "name": "_poll",
          "type": "string"
        },
        {
          "internalType": "string",
          "name": "_fnName",
          "type": "string"
        },
        {
          "internalType": "uint8",
          "name": "_vt",
          "type": "uint8"
        }
      ],
      "name": "retrieve",
      "outputs": [
        {
          "internalType": "bytes32[]",
          "name": "",
          "type": "bytes32[]"
        }
      ],
      "payable": false,
      "stateMutability": "view",
      "type": "function"
    },
    {
      "constant": false,
      "inputs": [
        {
          "internalType": "string",
          "name": "_poll",
          "type": "string"
        },
        {
          "internalType": "string",
          "name": "_fnName",
          "type": "string"
        },
        {
          "internalType": "uint8",
          "name": "_vt",
          "type": "uint8"
        },
        {
          "internalType": "bytes32[]",
          "name": "data",
          "type": "bytes32[]"
        }
      ],
      "name": "set",
      "outputs": [],
      "payable": false,
      "stateMutability": "nonpayable",
      "type": "function"
    },
    {
      "constant": false,
      "inputs": [],
      "name": "justSetStuff",
      "outputs": [
        {
          "internalType": "string",
          "name": "ace",
          "type": "string"
        }
      ],
      "payable": false,
      "stateMutability": "nonpayable",
      "type": "function"
    },
    {
      "constant": false,
      "inputs": [
        {
          "internalType": "string",
          "name": "_poll",
          "type": "string"
        },
        {
          "internalType": "string",
          "name": "_fnName",
          "type": "string"
        },
        {
          "internalType": "uint8",
          "name": "_vt",
          "type": "uint8"
        },
        {
          "internalType": "address",
          "name": "newMember",
          "type": "address"
        }
      ],
      "name": "add",
      "outputs": [],
      "payable": false,
      "stateMutability": "nonpayable",
      "type": "function"
    },
    {
      "constant": true,
      "inputs": [
        {
          "internalType": "string",
          "name": "source",
          "type": "string"
        }
      ],
      "name": "string32ToBytes32",
      "outputs": [
        {
          "internalType": "bytes32",
          "name": "result",
          "type": "bytes32"
        }
      ],
      "payable": false,
      "stateMutability": "pure",
      "type": "function"
    },
    {
      "constant": true,
      "inputs": [
        {
          "internalType": "string",
          "name": "source",
          "type": "string"
        }
      ],
      "name": "splitToAddresses",
      "outputs": [
        {
          "internalType": "address[]",
          "name": "result",
          "type": "address[]"
        }
      ],
      "payable": false,
      "stateMutability": "pure",
      "type": "function"
    },
    {
      "constant": true,
      "inputs": [
        {
          "internalType": "bytes",
          "name": "b",
          "type": "bytes"
        }
      ],
      "name": "bytesToBytes4",
      "outputs": [
        {
          "internalType": "bytes4",
          "name": "bts",
          "type": "bytes4"
        }
      ],
      "payable": false,
      "stateMutability": "pure",
      "type": "function"
    },
    {
      "constant": true,
      "inputs": [
        {
          "internalType": "bytes",
          "name": "b",
          "type": "bytes"
        }
      ],
      "name": "bytesToBytes32",
      "outputs": [
        {
          "internalType": "bytes32",
          "name": "bts",
          "type": "bytes32"
        }
      ],
      "payable": false,
      "stateMutability": "pure",
      "type": "function"
    },
    {
      "constant": true,
      "inputs": [
        {
          "internalType": "bytes32",
          "name": "_bytes32",
          "type": "bytes32"
        }
      ],
      "name": "bytes32ToBytes",
      "outputs": [
        {
          "internalType": "bytes",
          "name": "",
          "type": "bytes"
        }
      ],
      "payable": false,
      "stateMutability": "pure",
      "type": "function"
    },
    {
      "constant": true,
      "inputs": [
        {
          "internalType": "bytes32",
          "name": "_bytes32",
          "type": "bytes32"
        }
      ],
      "name": "bytes32ToString",
      "outputs": [
        {
          "internalType": "string",
          "name": "",
          "type": "string"
        }
      ],
      "payable": false,
      "stateMutability": "pure",
      "type": "function"
    },
    {
      "constant": true,
      "inputs": [
        {
          "internalType": "bytes",
          "name": "data",
          "type": "bytes"
        }
      ],
      "name": "bytesSplit4",
      "outputs": [
        {
          "internalType": "bytes4",
          "name": "",
          "type": "bytes4"
        },
        {
          "internalType": "bytes",
          "name": "",
          "type": "bytes"
        }
      ],
      "payable": false,
      "stateMutability": "pure",
      "type": "function"
    },
    {
      "constant": true,
      "inputs": [
        {
          "internalType": "bytes",
          "name": "data",
          "type": "bytes"
        }
      ],
      "name": "bytesSplit32",
      "outputs": [
        {
          "internalType": "bytes32",
          "name": "",
          "type": "bytes32"
        },
        {
          "internalType": "bytes",
          "name": "",
          "type": "bytes"
        }
      ],
      "payable": false,
      "stateMutability": "pure",
      "type": "function"
    },
    {
      "constant": true,
      "inputs": [
        {
          "internalType": "string",
          "name": "name",
          "type": "string"
        }
      ],
      "name": "encodeFunctionName",
      "outputs": [
        {
          "internalType": "bytes4",
          "name": "",
          "type": "bytes4"
        }
      ],
      "payable": false,
      "stateMutability": "pure",
      "type": "function"
    },
    {
      "constant": true,
      "inputs": [
        {
          "internalType": "string",
          "name": "packed",
          "type": "string"
        }
      ],
      "name": "unpackData",
      "outputs": [
        {
          "internalType": "bytes32[]",
          "name": "result",
          "type": "bytes32[]"
        }
      ],
      "payable": false,
      "stateMutability": "pure",
      "type": "function"
    },
    {
      "constant": false,
      "inputs": [
        {
          "internalType": "bytes32",
          "name": "poll32",
          "type": "bytes32"
        },
        {
          "internalType": "bytes4",
          "name": "fnNameHash",
          "type": "bytes4"
        },
        {
          "internalType": "bytes32",
          "name": "data",
          "type": "bytes32"
        },
        {
          "internalType": "uint8",
          "name": "vt",
          "type": "uint8"
        }
      ],
      "name": "storeResult",
      "outputs": [],
      "payable": false,
      "stateMutability": "nonpayable",
      "type": "function"
    },
    {
      "constant": true,
      "inputs": [
        {
          "internalType": "string",
          "name": "_poll",
          "type": "string"
        },
        {
          "internalType": "uint8",
          "name": "validationType",
          "type": "uint8"
        }
      ],
      "name": "serialiseStakers",
      "outputs": [
        {
          "internalType": "string",
          "name": "",
          "type": "string"
        }
      ],
      "payable": false,
      "stateMutability": "view",
      "type": "function"
    },
    {
      "constant": true,
      "inputs": [
        {
          "internalType": "string",
          "name": "_poll",
          "type": "string"
        },
        {
          "internalType": "uint8",
          "name": "validationType",
          "type": "uint8"
        }
      ],
      "name": "serialiseProofs",
      "outputs": [
        {
          "internalType": "string",
          "name": "",
          "type": "string"
        }
      ],
      "payable": false,
      "stateMutability": "view",
      "type": "function"
    },
    {
      "constant": false,
      "inputs": [
        {
          "internalType": "address",
          "name": "_pollContract",
          "type": "address"
        },
        {
          "internalType": "string",
          "name": "_poll",
          "type": "string"
        },
        {
          "internalType": "bytes32",
          "name": "_reveal",
          "type": "bytes32"
        }
      ],
      "name": "xcValidate",
      "outputs": [
        {
          "internalType": "bool",
          "name": "success",
          "type": "bool"
        }
      ],
      "payable": true,
      "stateMutability": "payable",
      "type": "function"
    },
    {
      "constant": false,
      "inputs": [
        {
          "internalType": "address",
          "name": "_validator",
          "type": "address"
        },
        {
          "internalType": "bytes4",
          "name": "fnNameHash",
          "type": "bytes4"
        },
        {
          "internalType": "string",
          "name": "poll",
          "type": "string"
        },
        {
          "internalType": "uint8",
          "name": "vt",
          "type": "uint8"
        },
        {
          "internalType": "bytes32[]",
          "name": "reveal",
          "type": "bytes32[]"
        }
      ],
      "name": "crossContractValidateCall",
      "outputs": [
        {
          "internalType": "bytes32[]",
          "name": "",
          "type": "bytes32[]"
        }
      ],
      "payable": false,
      "stateMutability": "nonpayable",
      "type": "function"
    },
    {
      "constant": false,
      "inputs": [
        {
          "internalType": "string",
          "name": "_poll",
          "type": "string"
        },
        {
          "internalType": "string",
          "name": "data",
          "type": "string"
        }
      ],
      "name": "callValidator_MututalAgreement",
      "outputs": [
        {
          "internalType": "bool",
          "name": "",
          "type": "bool"
        }
      ],
      "payable": false,
      "stateMutability": "nonpayable",
      "type": "function"
    }
  ],
  "bytecode": "0x60806040523480156200001157600080fd5b5073a145493cc19b0bc6c5a2ca86e9ba38bb435e3f5b60046000600160ff16815260200190815260200160002060006101000a81548173ffffffffffffffffffffffffffffffffffffffff021916908373ffffffffffffffffffffffffffffffffffffffff1602179055506040518060400160405280601081526020017f4d757475616c2041677265656d656e740000000000000000000000000000000081525060056000600160ff1681526020019081526020016000209080519060200190620000de92919062000126565b5030600760006101000a81548173ffffffffffffffffffffffffffffffffffffffff021916908373ffffffffffffffffffffffffffffffffffffffff160217905550620001d5565b828054600181600116156101000203166002900490600052602060002090601f016020900481019282601f106200016957805160ff19168380011785556200019a565b828001600101855582156200019a579182015b82811115620001995782518255916020019190600101906200017c565b5b509050620001a99190620001ad565b5090565b620001d291905b80821115620001ce576000816000905550600101620001b4565b5090565b90565b612bc080620001e56000396000f3fe6080604052600436106101815760003560e01c806383c7f14c116100d1578063965457ba1161008a578063d122491a11610064578063d122491a14610837578063e381047d14610874578063e505b8f2146108b2578063f9633930146108ef57610181565b8063965457ba14610780578063bfe370d9146107bd578063c1c09847146107fa57610181565b806383c7f14c14610624578063893d20e8146106615780638d894b281461068c5780638ee879c7146106c95780639201de551461070657806394c6f3b11461074357610181565b8063560249391161013e5780636b2019d4116101185780636b2019d41461056a5780637197624e14610593578063761e8146146105be57806377456a7b146105e757610181565b806356024939146104d45780635e3e225f146105115780636411df2f1461053a57610181565b806306efc69c1461037957806313311a1c146103a257806326a9cdf7146103df57806329eece6f1461041d578063406de18c1461045a5780634c0999c714610497575b60606000368080601f016020809104026020016040519081016040528093929190818152602001838380828437600081840152601f19601f8201169050808301925050505050505090506000606060008060606101dd8661091a565b80955081945050506101ee84610aa5565b80955081965050506101ff84610aa5565b80925081935050506102456040518060400160405280601081526020017f73657269616c6973655374616b65727300000000000000000000000000000000815250610c30565b7bffffffffffffffffffffffffffffffffffffffffffffffffffffffff1916837bffffffffffffffffffffffffffffffffffffffffffffffffffffffff191614156102af576102ac6102a761029987610c41565b6102a284610c58565b610cb3565b610cdb565b91505b6102ed6040518060400160405280600f81526020017f73657269616c69736550726f6f66730000000000000000000000000000000000815250610c30565b7bffffffffffffffffffffffffffffffffffffffffffffffffffffffff1916837bffffffffffffffffffffffffffffffffffffffffffffffffffffffff191614156103575761035461034f61034187610c41565b61034a84610c58565b610ce9565b610cdb565b91505b61036b85848461036685610c58565b610d0e565b610100604051605881538181f35b34801561038557600080fd5b506103a0600480360361039b9190810190611f80565b610d0e565b005b3480156103ae57600080fd5b506103c960048036036103c491908101906122b7565b610ce9565b6040516103d691906127de565b60405180910390f35b3480156103eb57600080fd5b5061040660048036036104019190810190611fe3565b610aa5565b604051610414929190612704565b60405180910390f35b34801561042957600080fd5b50610444600480360361043f919081019061204d565b610cdb565b60405161045191906126e9565b60405180910390f35b34801561046657600080fd5b50610481600480360361047c9190810190611e20565b610d89565b60405161048e9190612820565b60405180910390f35b3480156104a357600080fd5b506104be60048036036104b99190810190611f57565b610da1565b6040516104cb919061277f565b60405180910390f35b3480156104e057600080fd5b506104fb60048036036104f691908101906122b7565b610cb3565b60405161050891906127de565b60405180910390f35b34801561051d57600080fd5b506105386004803603610533919081019061220c565b610e49565b005b610554600480360361054f9190810190611ef0565b610eaf565b60405161056191906126ce565b60405180910390f35b34801561057657600080fd5b50610591600480360361058c9190810190612179565b610eb8565b005b34801561059f57600080fd5b506105a8610f45565b6040516105b591906127de565b60405180910390f35b3480156105ca57600080fd5b506105e560048036036105e09190810190612024565b6110ce565b005b3480156105f357600080fd5b5061060e6004803603610609919081019061204d565b6110d8565b60405161061b919061268a565b60405180910390f35b34801561063057600080fd5b5061064b60048036036106469190810190611fe3565b61120f565b6040516106589190612734565b60405180910390f35b34801561066d57600080fd5b5061067661122c565b604051610683919061266f565b60405180910390f35b34801561069857600080fd5b506106b360048036036106ae919081019061208e565b611255565b6040516106c091906126ce565b60405180910390f35b3480156106d557600080fd5b506106f060048036036106eb919081019061230b565b611460565b6040516106fd91906127bc565b60405180910390f35b34801561071257600080fd5b5061072d60048036036107289190810190611f57565b610c41565b60405161073a91906127de565b60405180910390f35b34801561074f57600080fd5b5061076a6004803603610765919081019061204d565b610c30565b6040516107779190612734565b60405180910390f35b34801561078c57600080fd5b506107a760048036036107a2919081019061230b565b611510565b6040516107b4919061266f565b60405180910390f35b3480156107c957600080fd5b506107e460048036036107df9190810190611fe3565b611543565b6040516107f191906126e9565b60405180910390f35b34801561080657600080fd5b50610821600480360361081c9190810190611e49565b611556565b60405161082e91906126ac565b60405180910390f35b34801561084357600080fd5b5061085e600480360361085991908101906120fa565b6115b6565b60405161086b91906126ac565b60405180910390f35b34801561088057600080fd5b5061089b60048036036108969190810190611fe3565b61091a565b6040516108a992919061274f565b60405180910390f35b3480156108be57600080fd5b506108d960048036036108d4919081019061204d565b61165b565b6040516108e691906126ac565b60405180910390f35b3480156108fb57600080fd5b506109046116d6565b60405161091191906127a1565b60405180910390f35b6000606060006004905060008090508160ff168551111561093f578160ff1685510390505b600060608360ff166040519080825280601f01601f1916602001820160405280156109795781602001600182028038833980820191505090505b5090506060836040519080825280601f01601f1916602001820160405280156109b15781602001600182028038833980820191505090505b50905060008090505b60018951038111610a8c578560ff16811015610a27578881815181106109dc57fe5b602001015160f81c60f81b8382815181106109f357fe5b60200101907effffffffffffffffffffffffffffffffffffffffffffffffffffffffffffff1916908160001a905350610a7f565b888181518110610a3357fe5b602001015160f81c60f81b828760ff16830381518110610a4f57fe5b60200101907effffffffffffffffffffffffffffffffffffffffffffffffffffffffffffff1916908160001a9053505b80806001019150506109ba565b50610a968261120f565b81965096505050505050915091565b6000606060006020905060008090508160ff1685511115610aca578160ff1685510390505b600060608360ff166040519080825280601f01601f191660200182016040528015610b045781602001600182028038833980820191505090505b5090506060836040519080825280601f01601f191660200182016040528015610b3c5781602001600182028038833980820191505090505b50905060008090505b60018951038111610c17578560ff16811015610bb257888181518110610b6757fe5b602001015160f81c60f81b838281518110610b7e57fe5b60200101907effffffffffffffffffffffffffffffffffffffffffffffffffffffffffffff1916908160001a905350610c0a565b888181518110610bbe57fe5b602001015160f81c60f81b828760ff16830381518110610bda57fe5b60200101907effffffffffffffffffffffffffffffffffffffffffffffffffffffffffffff1916908160001a9053505b8080600101915050610b45565b50610c2182611543565b81965096505050505050915091565b600081805190602001209050919050565b606080610c4d83610da1565b905080915050919050565b6000600182511015610c9f576040517f08c379a0000000000000000000000000000000000000000000000000000000008152600401610c9690612800565b60405180910390fd5b600080600184010151905080915050919050565b606080604051806060016040528060248152602001612b5a6024913990508091505092915050565b600060208201519050919050565b606080604051806060016040528060238152602001612b376023913990505092915050565b60018160ff161415610d83576000848483604051602001610d31939291906125f9565b604051602081830303815290604052805190602001209050610d5a610d5584610c41565b61165b565b600160008381526020019081526020016000209080519060200190610d80929190611c00565b50505b50505050565b60066020528060005260406000206000915090505481565b60608060206040519080825280601f01601f191660200182016040528015610dd85781602001600182028038833980820191505090505b50905060005b6020811015610e3f57838160208110610df357fe5b1a60f81b828281518110610e0357fe5b60200101907effffffffffffffffffffffffffffffffffffffffffffffffffffffffffffff1916908160001a9053508080600101915050610dde565b5080915050919050565b600084610e5585610c30565b84604051602001610e6893929190612636565b60405160208183030381529060405280519060200120905081600160008381526020019081526020016000209080519060200190610ea7929190611c00565b505050505050565b60009392505050565b600084610ec485610c30565b84604051602001610ed793929190612636565b604051602081830303815290604052805190602001209050600160008281526020019081526020016000208260601b6bffffffffffffffffffffffff191690806001815401808255809150509060018203906000526020600020016000909192909190915055505050505050565b606060007f71776572747975696f706173646667686a6b6c7a786376626e6d31323334353660001b90506060808282600081518110610f8057fe5b6020026020010181815250508282600081518110610f9a57fe5b6020026020010181815250508281600181518110610fb457fe5b6020026020010181815250508281600181518110610fce57fe5b6020026020010181815250506110516040518060400160405280602081526020017f646f6f646c652e636f6d2f706f6c6c2f6837706874773575327468687a396b348152506040518060400160405280601081526020017f73657269616c6973655374616b65727300000000000000000000000000000000815250600185610e49565b6110c86040518060400160405280602081526020017f646f6f646c652e636f6d2f706f6c6c2f6837706874773575327468687a396b348152506040518060400160405280600f81526020017f73657269616c69736550726f6f66730000000000000000000000000000000000815250600184610e49565b50505090565b8060088190555050565b60606110e2611c4d565b6110eb836116e0565b90506110f5611c4d565b6111336040518060400160405280600181526020017f2c000000000000000000000000000000000000000000000000000000000000008152506116e0565b90506060600161114c838561170e90919063ffffffff16565b0160405190808252806020026020018201604052801561117b5781602001602082028038833980820191505090505b50905060008090505b8151811015611203576111b06111ab6111a6858761178390919063ffffffff16565b61179d565b6117ff565b8282815181106111bc57fe5b602002602001019073ffffffffffffffffffffffffffffffffffffffff16908173ffffffffffffffffffffffffffffffffffffffff16815250508080600101915050611184565b50809350505050919050565b600080635050505060e01b90506020830151905080915050919050565b60008060009054906101000a900473ffffffffffffffffffffffffffffffffffffffff16905090565b6000806001905061134c600560008360ff1660ff1681526020019081526020016000208054600181600116156101000203166002900480601f01602080910402602001604051908101604052809291908181526020018280546001816001161561010002031660029004801561130c5780601f106112e15761010080835404028352916020019161130c565b820191906000526020600020905b8154815290600101906020018083116112ef57829003601f168201915b50505050506040518060400160405280601081526020017f4d757475616c2041677265656d656e7400000000000000000000000000000000815250611971565b61135257fe5b606061139b600460008460ff1660ff16815260200190815260200160002060009054906101000a900473ffffffffffffffffffffffffffffffffffffffff16866000801b610eaf565b5061141f600460008460ff1660ff16815260200190815260200160002060009054906101000a900473ffffffffffffffffffffffffffffffffffffffff166114176040518060400160405280600881526020017f76616c6964617465000000000000000000000000000000000000000000000000815250610c30565b878585611556565b507fd65038c0be209d4ae257f7e73a69b8b787796717cd2ce67d00d7e02c9de1020e600060405161145091906126ce565b60405180910390a1505092915050565b60056020528060005260406000206000915090508054600181600116156101000203166002900480601f0160208091040260200160405190810160405280929190818152602001828054600181600116156101000203166002900480156115085780601f106114dd57610100808354040283529160200191611508565b820191906000526020600020905b8154815290600101906020018083116114eb57829003601f168201915b505050505081565b60046020528060005260406000206000915054906101000a900473ffffffffffffffffffffffffffffffffffffffff1681565b6000806020830151905080915050919050565b606060008690506000602090507f1ff50e4650f7f1e5b26a5f5e921b803deee4a95a1b6ef46e05992b3bc1dcdb8c60405160405180910390a160405136600082376000803683865af43d806000843e81600081146115b2578184f35b8184fd5b60606000846115c485610c30565b846040516020016115d793929190612636565b6040516020818303038152906040528051906020012090506001600082815260200190815260200160002080548060200260200160405190810160405280929190818152602001828054801561164c57602002820191906000526020600020905b815481526020019060010190808311611638575b50505050509150509392505050565b606080611667836110d8565b90506000815190505b6000818060019003925060ff1611156116cc57818160ff168151811061169257fe5b602002602001015160601b6bffffffffffffffffffffffff1916838260ff16815181106116bb57fe5b602002602001018181525050611670565b8292505050919050565b6000600854905090565b6116e8611c4d565b600060208301905060405180604001604052808451815260200182815250915050919050565b60008082600001516117328560000151866020015186600001518760200151611a3e565b0190505b8360000151846020015101811161177c5781806001019250508260000151611774856020015183038660000151038386600001518760200151611a3e565b019050611736565b5092915050565b61178b611c4d565b611796838383611b19565b5092915050565b60608082600001516040519080825280601f01601f1916602001820160405280156117d75781602001600182028038833980820191505090505b50905060006020820190506117f58185602001518660000151611bb7565b8192505050919050565b6000606082905060008090506000806000600290505b602a811015611964576101008402935084818151811061183157fe5b602001015160f81c60f81b60f81c925084600182018151811061185057fe5b602001015160f81c60f81b60f81c915060618360ff1610158015611878575060668360ff1611155b15611888576057830392506118d6565b60308360ff16101580156118a0575060398360ff1611155b156118b0576030830392506118d5565b60418360ff16101580156118c8575060468360ff1611155b156118d4576037830392505b5b5b60618260ff16101580156118ee575060668260ff1611155b156118fe5760578203915061194c565b60308260ff1610158015611916575060398260ff1611155b156119265760308203915061194b565b60418260ff161015801561193e575060468260ff1611155b1561194a576037820391505b5b5b81601084020160ff1684019350600281019050611815565b5082945050505050919050565b600060608390506060839050805182511461199157600092505050611a38565b60008090505b8251811015611a30578181815181106119ac57fe5b602001015160f81c60f81b7effffffffffffffffffffffffffffffffffffffffffffffffffffffffffffff19168382815181106119e557fe5b602001015160f81c60f81b7effffffffffffffffffffffffffffffffffffffffffffffffffffffffffffff191614611a235760009350505050611a38565b8080600101915050611997565b506001925050505b92915050565b6000808490506000868511611b095760208511611ac357600060018660200360080260020a031960001b905060008186511690506000878a8a0103905060008386511690505b828114611ab557818610611aa2578a8a019650505050505050611b11565b8580600101965050838651169050611a84565b859650505050505050611b11565b60008585209050600091505b8588038211611b07576000868420905080821415611af35783945050505050611b11565b600184019350508180600101925050611acf565b505b868601925050505b949350505050565b611b21611c4d565b6000611b3f8560000151866020015186600001518760200151611a3e565b90508460200151836020018181525050846020015181038360000181815250508460000151856020015101811415611b81576000856000018181525050611bac565b8360000151836000015101856000018181510391508181525050836000015181018560200181815250505b829150509392505050565b5b60208110611bdb5781518352602083019250602082019150602081039050611bb8565b60006001826020036101000a0390508019835116818551168181178652505050505050565b828054828255906000526020600020908101928215611c3c579160200282015b82811115611c3b578251825591602001919060010190611c20565b5b509050611c499190611c67565b5090565b604051806040016040528060008152602001600081525090565b611c8991905b80821115611c85576000816000905550600101611c6d565b5090565b90565b600081359050611c9b81612ac3565b92915050565b600082601f830112611cb257600080fd5b8135611cc5611cc082612868565b61283b565b91508181835260208401935060208101905083856020840282011115611cea57600080fd5b60005b83811015611d1a5781611d008882611d24565b845260208401935060208301925050600181019050611ced565b5050505092915050565b600081359050611d3381612ada565b92915050565b600081359050611d4881612af1565b92915050565b600082601f830112611d5f57600080fd5b8135611d72611d6d82612890565b61283b565b91508082526020830160208301858383011115611d8e57600080fd5b611d99838284612a3d565b50505092915050565b600081359050611db181612b08565b92915050565b600082601f830112611dc857600080fd5b8135611ddb611dd6826128bc565b61283b565b91508082526020830160208301858383011115611df757600080fd5b611e02838284612a3d565b50505092915050565b600081359050611e1a81612b1f565b92915050565b600060208284031215611e3257600080fd5b6000611e4084828501611c8c565b91505092915050565b600080600080600060a08688031215611e6157600080fd5b6000611e6f88828901611c8c565b9550506020611e8088828901611d39565b945050604086013567ffffffffffffffff811115611e9d57600080fd5b611ea988828901611db7565b9350506060611eba88828901611e0b565b925050608086013567ffffffffffffffff811115611ed757600080fd5b611ee388828901611ca1565b9150509295509295909350565b600080600060608486031215611f0557600080fd5b6000611f1386828701611c8c565b935050602084013567ffffffffffffffff811115611f3057600080fd5b611f3c86828701611db7565b9250506040611f4d86828701611d24565b9150509250925092565b600060208284031215611f6957600080fd5b6000611f7784828501611d24565b91505092915050565b60008060008060808587031215611f9657600080fd5b6000611fa487828801611d24565b9450506020611fb587828801611d39565b9350506040611fc687828801611d24565b9250506060611fd787828801611e0b565b91505092959194509250565b600060208284031215611ff557600080fd5b600082013567ffffffffffffffff81111561200f57600080fd5b61201b84828501611d4e565b91505092915050565b60006020828403121561203657600080fd5b600061204484828501611da2565b91505092915050565b60006020828403121561205f57600080fd5b600082013567ffffffffffffffff81111561207957600080fd5b61208584828501611db7565b91505092915050565b600080604083850312156120a157600080fd5b600083013567ffffffffffffffff8111156120bb57600080fd5b6120c785828601611db7565b925050602083013567ffffffffffffffff8111156120e457600080fd5b6120f085828601611db7565b9150509250929050565b60008060006060848603121561210f57600080fd5b600084013567ffffffffffffffff81111561212957600080fd5b61213586828701611db7565b935050602084013567ffffffffffffffff81111561215257600080fd5b61215e86828701611db7565b925050604061216f86828701611e0b565b9150509250925092565b6000806000806080858703121561218f57600080fd5b600085013567ffffffffffffffff8111156121a957600080fd5b6121b587828801611db7565b945050602085013567ffffffffffffffff8111156121d257600080fd5b6121de87828801611db7565b93505060406121ef87828801611e0b565b925050606061220087828801611c8c565b91505092959194509250565b6000806000806080858703121561222257600080fd5b600085013567ffffffffffffffff81111561223c57600080fd5b61224887828801611db7565b945050602085013567ffffffffffffffff81111561226557600080fd5b61227187828801611db7565b935050604061228287828801611e0b565b925050606085013567ffffffffffffffff81111561229f57600080fd5b6122ab87828801611ca1565b91505092959194509250565b600080604083850312156122ca57600080fd5b600083013567ffffffffffffffff8111156122e457600080fd5b6122f085828601611db7565b925050602061230185828601611e0b565b9150509250929050565b60006020828403121561231d57600080fd5b600061232b84828501611e0b565b91505092915050565b60006123408383612364565b60208301905092915050565b6000612358838361244d565b60208301905092915050565b61236d816129a8565b82525050565b61237c816129a8565b82525050565b600061238d82612908565b6123978185612959565b93506123a2836128e8565b8060005b838110156123d35781516123ba8882612334565b97506123c58361293f565b9250506001810190506123a6565b5085935050505092915050565b60006123eb82612913565b6123f5818561296a565b9350612400836128f8565b8060005b83811015612431578151612418888261234c565b97506124238361294c565b925050600181019050612404565b5085935050505092915050565b612447816129ba565b82525050565b612456816129c6565b82525050565b612465816129c6565b82525050565b61247c612477826129c6565b612a7f565b82525050565b61248b816129d0565b82525050565b6124a261249d826129d0565b612a89565b82525050565b60006124b38261291e565b6124bd818561297b565b93506124cd818560208601612a4c565b6124d681612aa5565b840191505092915050565b6124ea816129fc565b82525050565b60006124fb82612934565b612505818561298c565b9350612515818560208601612a4c565b61251e81612aa5565b840191505092915050565b600061253482612934565b61253e818561299d565b935061254e818560208601612a4c565b80840191505092915050565b600061256582612929565b61256f818561298c565b935061257f818560208601612a4c565b61258881612aa5565b840191505092915050565b60006125a060128361298c565b91507f52656164206f7574206f6620626f756e647300000000000000000000000000006000830152602082019050919050565b6125dc81612a26565b82525050565b6125f36125ee82612a30565b612a93565b82525050565b6000612605828661246b565b6020820191506126158285612491565b60048201915061262582846125e2565b600182019150819050949350505050565b60006126428286612529565b915061264e8285612491565b60048201915061265e82846125e2565b600182019150819050949350505050565b60006020820190506126846000830184612373565b92915050565b600060208201905081810360008301526126a48184612382565b905092915050565b600060208201905081810360008301526126c681846123e0565b905092915050565b60006020820190506126e3600083018461243e565b92915050565b60006020820190506126fe600083018461245c565b92915050565b6000604082019050612719600083018561245c565b818103602083015261272b81846124a8565b90509392505050565b60006020820190506127496000830184612482565b92915050565b60006040820190506127646000830185612482565b818103602083015261277681846124a8565b90509392505050565b6000602082019050818103600083015261279981846124a8565b905092915050565b60006020820190506127b660008301846124e1565b92915050565b600060208201905081810360008301526127d6818461255a565b905092915050565b600060208201905081810360008301526127f881846124f0565b905092915050565b6000602082019050818103600083015261281981612593565b9050919050565b600060208201905061283560008301846125d3565b92915050565b6000604051905081810181811067ffffffffffffffff8211171561285e57600080fd5b8060405250919050565b600067ffffffffffffffff82111561287f57600080fd5b602082029050602081019050919050565b600067ffffffffffffffff8211156128a757600080fd5b601f19601f8301169050602081019050919050565b600067ffffffffffffffff8211156128d357600080fd5b601f19601f8301169050602081019050919050565b6000819050602082019050919050565b6000819050602082019050919050565b600081519050919050565b600081519050919050565b600081519050919050565b600081519050919050565b600081519050919050565b6000602082019050919050565b6000602082019050919050565b600082825260208201905092915050565b600082825260208201905092915050565b600082825260208201905092915050565b600082825260208201905092915050565b600081905092915050565b60006129b382612a06565b9050919050565b60008115159050919050565b6000819050919050565b60007fffffffff0000000000000000000000000000000000000000000000000000000082169050919050565b6000819050919050565b600073ffffffffffffffffffffffffffffffffffffffff82169050919050565b6000819050919050565b600060ff82169050919050565b82818337600083830152505050565b60005b83811015612a6a578082015181840152602081019050612a4f565b83811115612a79576000848401525b50505050565b6000819050919050565b6000819050919050565b6000612a9e82612ab6565b9050919050565b6000601f19601f8301169050919050565b60008160f81b9050919050565b612acc816129a8565b8114612ad757600080fd5b50565b612ae3816129c6565b8114612aee57600080fd5b50565b612afa816129d0565b8114612b0557600080fd5b50565b612b11816129fc565b8114612b1c57600080fd5b50565b612b2881612a30565b8114612b3357600080fd5b5056fe526573756c7421202d2066726f6d20706f6c6c2e73657269616c69736550726f6f6673526573756c7421202d2066726f6d20706f6c6c2e73657269616c6973655374616b657273a365627a7a723158208883a87694e2b852dd1b61f7403e7a33919b3319e055a575a672f1f477f368fb6c6578706572696d656e74616cf564736f6c63430005100040",
  "source": "pragma solidity ^0.5.7;\npragma experimental ABIEncoderV2;\n\nimport \"./strings.sol\";\n// import \"github.com/GNSPS/solidity-bytes-utils/contracts/BytesLib.sol\";   // requires sol 0.5+\nimport \"./stringCasting.sol\";\n\ncontract PollReference {\n    // Common storage structure for ALL contacts using this storage.\n    // _, __, __ , etc are unused in this contract, but must remain to occupy their slots.\n\n    address owner;  // is set by TokenStorage.. but retain types and order.\n\n    struct timeRange {\n      uint start;\n      uint end;\n    }\n\n    struct stake {\n      uint rep;\n      timeRange[] available;\n      uint availabilityExpires;\n    }\n\n    struct Poll {\n      address initiator;\n      uint minStake;\n      uint venueCost;\n      uint8 minParticipants;\n      timeRange eventTime;\n      mapping (address => stake) staked;\n      mapping (address => bytes32[]) committedProofs;\n    }\n\n    // shared across contracts\n    mapping (bytes32 => bytes32[]) allTheData;\n    mapping (bytes32 => Poll) pollData;\n    mapping (bytes32 => bool) resultsCache;\n\n    // used only in Poll\n    mapping(uint8 => address) public validators;\n    mapping(uint8 => string) public validatorNames;\n    mapping(address => uint) public cashBalance;\n    address selfAddy ;\n    int flag;\n\n    // unused - previously for Storage Proxy\n    //    mapping (address => bool) internal _allowedAccess;\n\n\n    using strings for *;\n    using stringcast for string;\n\n    constructor () public /* is PollCommunity */ {\n        validators[1] = address(0xA145493CC19b0BC6C5a2cA86e9BA38BB435E3F5b);\n        validatorNames[1] = \"Mutual Agreement\";\n        selfAddy = address(this);\n        // constructed = 1;\n    }\n\n\n    // function getPollOK() public view returns (uint8) {\n    //   return ok;\n    // }\n    //\n    // function setPollOK (uint8 _ok) public {\n    //   ok = _ok;\n    // }\n    //\n    // function getPollResult() public view returns (uint8) {\n    //   return result;\n    // }\n    //\n    // function setPollResult (uint8 _result) public {\n    //   result = _result;\n    // }\n    //\n    // function getMyMap(uint idx) public view returns (uint) {\n    //   return myMap[idx];\n    // }\n    //\n    // function setMyMap (uint idx, uint _myMap) public {\n    //   myMap[idx] = _myMap;\n    // }\n\n    function getOwner() public view returns (address) {\n      return owner;\n    }\n\n    function getFlag() public view returns (int) {\n      return flag;\n    }\n\n    function setFlag(int _flag) public {\n      flag = _flag;\n    }\n\n    function() external payable {\n        // NB sol 0.6+ better syntax for calldata arrays : https://solidity.readthedocs.io/en/v0.6.0/types.html#array-slices\n        bytes memory input = msg.data;\n\n        // TODO: This is V.0 accepting a string (really a bytes32) of EXACTLY 32 bytes, eg a doodle poll without the https:// ;)\n        bytes32 poll32;\n        bytes memory rest;\n        bytes4 fnNameHash;\n        bytes32 result;\n        bytes memory vType;\n\n        (fnNameHash, rest) = (bytesSplit4(input));\n        (poll32, rest) = (bytesSplit32(rest));\n        (result, vType) = (bytesSplit32(rest));\n\n        if (fnNameHash == encodeFunctionName(\"serialiseStakers\")) {\n            //NB wrapping these in bytes32 for testing, but keep as strings until you are ready to deserialise bytes32, cos they still good here!\n            result = string32ToBytes32( serialiseStakers(bytes32ToString(poll32), toUint8(vType)) );\n        }\n        if (fnNameHash == encodeFunctionName(\"serialiseProofs\")) {\n            //NB wrapping these in bytes32 for testing, but keep as strings until you are ready to deserialise bytes32, cos they still good here!\n            result = string32ToBytes32(serialiseProofs(bytes32ToString(poll32), toUint8(vType)) );\n        }\n        // Warning: This hack introduces possible griefing attack - better would be to force EVM to return the result of this lookup from fallback, not store and retreive it :/\n\n        storeResult(poll32, fnNameHash, result, toUint8(vType));\n\n        assembly {\n            let size := 256\n            let ptr := mload(0x40)\n            mstore8(ptr, 88)\n            return(ptr, size)\n        }\n    }\n\n    // function ownAddress () public view returns (address) {\n    //     return selfAddy;\n    // }\n    //\n    // function getStateVars () public view returns (uint256, address, string memory, address, int8) {\n    //     return (notes, validators[1], validatorNames[1], selfAddy, constructed);\n    // }\n    //\n    // event ValidatorSet();\n    // function setValidator1 (address newAddy) public returns (bool) {\n    //     validators[1] = newAddy;\n    //     emit ValidatorSet();\n    //     return true;\n    // }\n    //\n    // function getValidator1 () public view returns (address) {\n    //     return validators[1];\n    // }\n    //\n    // function setValidator1Name (string memory newName) public returns (bool) {\n    //     validatorNames[1] = newName;\n    //     emit ValidatorSet();\n    //     return true;\n    // }\n    //\n    // function getValidator1Name () public view returns (string memory) {\n    //     return validatorNames[1];\n    // }\n\n    // event RetrievedDataCache(string, uint256, bytes32[]);\n    function retrieve (string memory _poll, string memory _fnName, uint8 _vt) public view returns (bytes32[] memory) {\n        bytes32 hash = keccak256(abi.encodePacked(_poll, encodeFunctionName(_fnName), _vt));\n        // emit RetrievedDataCache(\"Poll context:\", notes, allTheData[hash]);\n        return (allTheData[hash]);\n    }\n\n    function set (string memory _poll, string memory _fnName, uint8 _vt, bytes32[] memory data) public {\n      bytes32 hash = keccak256(abi.encodePacked(_poll, encodeFunctionName(_fnName), _vt));\n      allTheData[hash] = data;\n    }\n\n    function justSetStuff() public returns (string memory ace) {\n      bytes32 b1 = bytes32(0x71776572747975696f706173646667686a6b6c7a786376626e6d313233343536);\n      bytes32[] memory inp1;\n      bytes32[] memory inp2;\n      inp1[0] = b1;\n      inp1[0] = b1;\n      inp2[1] = b1;\n      inp2[1] = b1;\n      set (\"doodle.com/poll/h7phtw5u2thhz9k4\", \"serialiseStakers\", 1, inp1);\n      set (\"doodle.com/poll/h7phtw5u2thhz9k4\", \"serialiseProofs\", 1, inp2);\n    }\n\n    function add (string memory _poll, string memory _fnName, uint8 _vt, address newMember) public {\n      bytes32 hash = keccak256(abi.encodePacked(_poll, encodeFunctionName(_fnName), _vt));\n      allTheData[hash].push (bytes32(bytes20(newMember)));\n    }\n\n    function stringsEqual (string memory _a, string memory _b) internal pure returns (bool) {\n        bytes memory a = bytes(_a);\n        bytes memory b = bytes(_b);\n\n        if (a.length != b.length)\n            return false;\n\n        for (uint i = 0; i < a.length; i ++)\n            if (a[i] != b[i])\n                return false;\n\n        return true;\n    }\n\n    function string32ToBytes32(string memory source) public pure returns (bytes32 result) {\n        assembly {\n        result := mload(add(source, 32))\n        }\n    }\n\n    // split a serialised string of addresses (as received from main contract).\n    // NB - only works in mutual agreement validator - other validators will use multiple types within serialised string\n    function splitToAddresses(string memory source) public pure returns (address[] memory result) {\n        strings.slice memory packed = source.toSlice();\n        strings.slice memory delim = \",\".toSlice();\n        address[] memory parts = new address[](packed.count(delim)+1);  // why doesn't this lose a member?\n\n        for(uint i = 0; i < parts.length; i++) {\n           parts[i] = packed.split(delim).toString().toAddress();\n        }\n        return parts;\n    }\n\n    // function stringToBytes32(string memory source) {\n    //     bytes32[] memory result;\n    //     strings.slice memory remainder = source.toSlice();\n    //     while (remainder.length >= 32) {\n\n    //     }\n\n    // }\n\n\n\n    function bytesToBytes4(bytes  memory b)  public pure returns (bytes4 bts) {\n        bytes4 i = 0x50505050;\n        assembly { i := mload(add(b, 0x20)) }\n        bts = i;\n    }\n\n    function bytesToBytes32(bytes  memory b)  public pure returns (bytes32 bts) {\n        bytes32 i;\n        //NB size etc= 32b = 0x20b\n        assembly { i := mload(add(b, 0x20)) }\n        bts = i;\n    }\n\n    function toUint8(bytes memory _bytes) internal pure returns (uint8) {\n        require(_bytes.length >= (1), \"Read out of bounds\");\n        uint8 tempUint;\n\n        assembly {\n            tempUint := mload(add(add(_bytes, 0x1), 0))\n        }\n\n        return tempUint;\n    }\n\n    function bytes32ToBytes(bytes32 _bytes32) public pure returns (bytes memory){\n        // string memory str = string(_bytes32);\n        // TypeError: Explicit type conversion not allowed from \"bytes32\" to \"string storage pointer\"\n        bytes memory bytesArray = new bytes(32);\n        for (uint256 i; i < 32; i++) {\n            bytesArray[i] = _bytes32[i];\n        }\n        return bytesArray;\n    }\n\n    function bytes32ToString(bytes32 _bytes32) public pure returns (string memory){\n        bytes memory bytesArray = bytes32ToBytes(_bytes32);\n        return string(bytesArray);\n    }\n\n    function bytesSplit4(bytes memory data) public pure returns (bytes4, bytes memory) {\n        uint8 splitAt = 4;                             // all (if variable split, pass in splitAt)\n        uint256 taillength = 0;\n        if (data.length > splitAt)\n            taillength = data.length-splitAt;\n        bytes4 temp;\n        // bytes4 head;                                   // 4b split\n        bytes memory head = new bytes(splitAt);         // variable length split\n        bytes memory tail = new bytes(taillength);\n        for(uint i=0;i<=data.length-1;i++){\n            if (i<splitAt)\n                head[i] = bytes(data)[i] ;\n            else\n                tail[i-splitAt] = bytes(data)[i] ;\n        }\n        return (bytesToBytes4(head), tail);\n    }\n\n    function bytesSplit32(bytes memory data) public pure returns (bytes32, bytes memory) {\n        uint8 splitAt = 32;                             // all (if variable split, pass in splitAt)\n        uint256 taillength = 0;\n        if (data.length > splitAt)\n            taillength = data.length-splitAt;\n        bytes32 temp;\n        // bytes32 head;                                   // 32b split\n        bytes memory head = new bytes(splitAt);         // variable length split\n        bytes memory tail = new bytes(taillength);\n        for(uint i=0;i<=data.length-1;i++){\n            if (i<splitAt)\n                head[i] = bytes(data)[i] ;\n            else\n                tail[i-splitAt] = bytes(data)[i] ;\n        }\n        return (bytesToBytes32(head), tail);\n    }\n\n\n    function encodeFunctionName (string memory name) public pure returns (bytes4) {\n        // TODO: cache for readability!\n        // if (\"serialiseStakers\")\n        //     return\n        // if (\"serialiseStakers\")\n        //     return\n        return bytes4(keccak256(bytes(name)));\n    }\n\n    // temporary functionality to repoint to simple example, eg splitToAddresses\n    function unpackData (string memory packed) public pure returns (bytes32[] memory result) {\n        //NB relying on splitToAddresses doing string splitting here, as we rely on .length - available only on fixed size array.\n        address[] memory asAddresses = splitToAddresses(packed) ;\n        uint8 i = uint8(asAddresses.length) ;\n\n        while (i-- > 0) {\n            result[i] = bytes32(bytes20(asAddresses[i]));\n        }\n        return result;\n    }\n\n    function storeResult(bytes32 poll32, bytes4 fnNameHash, bytes32 data, uint8 vt)  public {\n        // uint256 notesToStore = 10000+vt;\n        if (vt == 1) {\n\n            bytes32 hash = keccak256(abi.encodePacked(poll32, fnNameHash, vt));\n\n            allTheData[hash] = unpackData(bytes32ToString(data));\n            // notesToStore=260;\n        }\n        // notes += notesToStore;\n    }\n\n    function serialiseStakers(string memory _poll, uint8 validationType) public view returns (string memory) {\n        string memory result = \"Result! - from poll.serialiseStakers\";\n        return result;\n    }\n\n    function serialiseProofs(string memory _poll, uint8 validationType) public view returns (string memory) {\n        string memory result = \"Result! - from poll.serialiseProofs\";\n    }\n\n    function xcValidate(address _pollContract, string memory _poll, bytes32 _reveal) public payable returns (bool success) {\n    }\n\n        // calls fallback function of contract at validatorAddress, passing 4 byte encoded function name to it to select method.\n    // NB in sol 0.6 + fallback cannot return anything\n    // NB future optimisation : we are not using the functionality of string here, since string must have come from a bytes32\n    event CrossContractValidateBegin();\n    event CrossContractValidateEnd();\n    function crossContractValidateCall (address _validator, bytes4 fnNameHash, string memory poll, uint8 vt, bytes32[] memory reveal)  public returns (bytes32[] memory) {\n        address validator = _validator;\n\n        uint8 offset = 32;\n        // NB 32b offset as space for validator contract address! (assumes no tight packing in calldata)\n        // TODO: this will need to be chucked at the other end, unless you want to do the subtraction in assembly :/\n\n        emit CrossContractValidateBegin();\n        assembly {\n            let ptr := mload(0x40)\n            calldatacopy(ptr, 0, calldatasize)\n            let result := delegatecall(gas, validator, ptr, calldatasize, 0, 0)\n            let size := returndatasize\n            returndatacopy(ptr, 0, size)\n            switch result\n            case 0 { revert(ptr, size) }\n            default { return(ptr, size) }\n        }\n        emit CrossContractValidateEnd();\n    }\n\n    event CrossContractValidateReturned(bool);\n    function callValidator_MututalAgreement(string memory _poll, string memory data) public returns (bool) {\n        uint8 vType = 1;\n        assert (stringsEqual(validatorNames[vType], \"Mutual Agreement\"));\n        bytes32[] memory empty;\n\n        // reveal parameter is unused in mutual agreement\n        xcValidate(validators[vType], _poll, bytes32(0) );\n        crossContractValidateCall(validators[vType], encodeFunctionName(\"validate\") , _poll, vType, empty );\n        //TODO: get return value!\n\n        emit CrossContractValidateReturned(false);\n\n\n    }\n}\n",
  "sourcePath": "/home/teide/randomCode/lunchcoin/contracts.v1/contracts/PollReference.sol",
  "compiler": {
    "name": "solc",
    "version": "0.5.16+commit.9c3226ce.Emscripten.clang"
  },
  "schemaVersion": "3.2.0",
  "updatedAt": "2020-06-10T19:25:49.745Z",
  "networkType": "ethereum",
  "devdoc": {
    "methods": {}
  },
  "userdoc": {
    "methods": {}
  }
}