{
  "contractName": "StringsAndBytes",
  "abi": [
    {
      "anonymous": false,
      "inputs": [
        {
          "indexed": false,
          "internalType": "bytes32",
          "name": "_bytes32",
          "type": "bytes32"
        },
        {
          "indexed": false,
          "internalType": "bytes",
          "name": "_bytes",
          "type": "bytes"
        }
      ],
      "name": "Bytes32ToBytes",
      "type": "event"
    },
    {
      "anonymous": false,
      "inputs": [
        {
          "indexed": false,
          "internalType": "bytes32",
          "name": "_bytes32",
          "type": "bytes32"
        },
        {
          "indexed": false,
          "internalType": "string",
          "name": "memory_string",
          "type": "string"
        }
      ],
      "name": "Bytes32ToString",
      "type": "event"
    },
    {
      "anonymous": false,
      "inputs": [
        {
          "indexed": false,
          "internalType": "bytes",
          "name": "_bytes",
          "type": "bytes"
        },
        {
          "indexed": false,
          "internalType": "string",
          "name": "_string",
          "type": "string"
        }
      ],
      "name": "BytesToString",
      "type": "event"
    },
    {
      "anonymous": false,
      "inputs": [
        {
          "indexed": false,
          "internalType": "string",
          "name": "str",
          "type": "string"
        },
        {
          "indexed": false,
          "internalType": "uint256",
          "name": "length",
          "type": "uint256"
        },
        {
          "indexed": false,
          "internalType": "bool",
          "name": "result",
          "type": "bool"
        }
      ],
      "name": "IsStringEqualOrShorterThan",
      "type": "event"
    },
    {
      "anonymous": false,
      "inputs": [
        {
          "indexed": false,
          "internalType": "address",
          "name": "msgSenderAddress",
          "type": "address"
        },
        {
          "indexed": false,
          "internalType": "string",
          "name": "memorymsgSenderAsString",
          "type": "string"
        }
      ],
      "name": "MsgSenderAddressToStringTest",
      "type": "event"
    },
    {
      "anonymous": false,
      "inputs": [
        {
          "indexed": false,
          "internalType": "string",
          "name": "_string",
          "type": "string"
        },
        {
          "indexed": false,
          "internalType": "bytes32",
          "name": "_bytes32",
          "type": "bytes32"
        }
      ],
      "name": "StringToBytes32",
      "type": "event"
    },
    {
      "anonymous": false,
      "inputs": [
        {
          "indexed": false,
          "internalType": "string",
          "name": "_string",
          "type": "string"
        },
        {
          "indexed": false,
          "internalType": "bytes",
          "name": "_bytes",
          "type": "bytes"
        }
      ],
      "name": "StringToBytesArray",
      "type": "event"
    },
    {
      "anonymous": false,
      "inputs": [
        {
          "indexed": false,
          "internalType": "string",
          "name": "str1",
          "type": "string"
        },
        {
          "indexed": false,
          "internalType": "string",
          "name": "str2",
          "type": "string"
        },
        {
          "indexed": false,
          "internalType": "string",
          "name": "result",
          "type": "string"
        }
      ],
      "name": "TestStringsConcatenation",
      "type": "event"
    },
    {
      "anonymous": false,
      "inputs": [
        {
          "indexed": false,
          "internalType": "string",
          "name": "str1",
          "type": "string"
        },
        {
          "indexed": false,
          "internalType": "string",
          "name": "str2",
          "type": "string"
        },
        {
          "indexed": false,
          "internalType": "string",
          "name": "str3",
          "type": "string"
        },
        {
          "indexed": false,
          "internalType": "string",
          "name": "result",
          "type": "string"
        }
      ],
      "name": "TestStringsJoin",
      "type": "event"
    },
    {
      "constant": true,
      "inputs": [],
      "name": "lastTestBoolResult",
      "outputs": [
        {
          "internalType": "bool",
          "name": "",
          "type": "bool"
        }
      ],
      "payable": false,
      "stateMutability": "view",
      "type": "function"
    },
    {
      "constant": true,
      "inputs": [],
      "name": "lastTestBytes32Result",
      "outputs": [
        {
          "internalType": "bytes32",
          "name": "",
          "type": "bytes32"
        }
      ],
      "payable": false,
      "stateMutability": "view",
      "type": "function"
    },
    {
      "constant": true,
      "inputs": [],
      "name": "lastTestBytesResult",
      "outputs": [
        {
          "internalType": "bytes",
          "name": "",
          "type": "bytes"
        }
      ],
      "payable": false,
      "stateMutability": "view",
      "type": "function"
    },
    {
      "constant": true,
      "inputs": [],
      "name": "lastTestStringResult",
      "outputs": [
        {
          "internalType": "string",
          "name": "",
          "type": "string"
        }
      ],
      "payable": false,
      "stateMutability": "view",
      "type": "function"
    },
    {
      "constant": true,
      "inputs": [
        {
          "internalType": "string",
          "name": "source",
          "type": "string"
        }
      ],
      "name": "stringToBytes32",
      "outputs": [
        {
          "internalType": "bytes32",
          "name": "result",
          "type": "bytes32"
        }
      ],
      "payable": false,
      "stateMutability": "pure",
      "type": "function"
    },
    {
      "constant": false,
      "inputs": [
        {
          "internalType": "string",
          "name": "_string",
          "type": "string"
        }
      ],
      "name": "stringToBytes32Test",
      "outputs": [
        {
          "internalType": "bytes32",
          "name": "",
          "type": "bytes32"
        }
      ],
      "payable": false,
      "stateMutability": "nonpayable",
      "type": "function"
    },
    {
      "constant": true,
      "inputs": [
        {
          "internalType": "string",
          "name": "str",
          "type": "string"
        },
        {
          "internalType": "uint256",
          "name": "length",
          "type": "uint256"
        }
      ],
      "name": "isStringEqualOrShorterThan",
      "outputs": [
        {
          "internalType": "bool",
          "name": "",
          "type": "bool"
        }
      ],
      "payable": false,
      "stateMutability": "pure",
      "type": "function"
    },
    {
      "constant": false,
      "inputs": [
        {
          "internalType": "string",
          "name": "str",
          "type": "string"
        },
        {
          "internalType": "uint256",
          "name": "length",
          "type": "uint256"
        }
      ],
      "name": "isStringEqualOrShorterThanTest",
      "outputs": [
        {
          "internalType": "bool",
          "name": "",
          "type": "bool"
        }
      ],
      "payable": false,
      "stateMutability": "nonpayable",
      "type": "function"
    },
    {
      "constant": true,
      "inputs": [
        {
          "internalType": "bytes",
          "name": "_bytes",
          "type": "bytes"
        }
      ],
      "name": "bytesArrayToString",
      "outputs": [
        {
          "internalType": "string",
          "name": "",
          "type": "string"
        }
      ],
      "payable": false,
      "stateMutability": "pure",
      "type": "function"
    },
    {
      "constant": false,
      "inputs": [
        {
          "internalType": "bytes",
          "name": "_bytes",
          "type": "bytes"
        }
      ],
      "name": "bytesArrayToStringTest",
      "outputs": [
        {
          "internalType": "string",
          "name": "",
          "type": "string"
        }
      ],
      "payable": false,
      "stateMutability": "nonpayable",
      "type": "function"
    },
    {
      "constant": true,
      "inputs": [
        {
          "internalType": "string",
          "name": "str",
          "type": "string"
        }
      ],
      "name": "stringToBytesArray",
      "outputs": [
        {
          "internalType": "bytes",
          "name": "",
          "type": "bytes"
        }
      ],
      "payable": false,
      "stateMutability": "pure",
      "type": "function"
    },
    {
      "constant": false,
      "inputs": [
        {
          "internalType": "string",
          "name": "str",
          "type": "string"
        }
      ],
      "name": "stringToBytesArrayTest",
      "outputs": [
        {
          "internalType": "bytes",
          "name": "",
          "type": "bytes"
        }
      ],
      "payable": false,
      "stateMutability": "nonpayable",
      "type": "function"
    },
    {
      "constant": true,
      "inputs": [
        {
          "internalType": "bytes32",
          "name": "_bytes32",
          "type": "bytes32"
        }
      ],
      "name": "bytes32ToBytes",
      "outputs": [
        {
          "internalType": "bytes",
          "name": "",
          "type": "bytes"
        }
      ],
      "payable": false,
      "stateMutability": "pure",
      "type": "function"
    },
    {
      "constant": false,
      "inputs": [
        {
          "internalType": "bytes32",
          "name": "_bytes32",
          "type": "bytes32"
        }
      ],
      "name": "bytes32ToBytesTest",
      "outputs": [
        {
          "internalType": "bytes",
          "name": "",
          "type": "bytes"
        }
      ],
      "payable": false,
      "stateMutability": "nonpayable",
      "type": "function"
    },
    {
      "constant": true,
      "inputs": [
        {
          "internalType": "bytes32",
          "name": "_bytes32",
          "type": "bytes32"
        }
      ],
      "name": "bytes32ToString",
      "outputs": [
        {
          "internalType": "string",
          "name": "",
          "type": "string"
        }
      ],
      "payable": false,
      "stateMutability": "pure",
      "type": "function"
    },
    {
      "constant": false,
      "inputs": [
        {
          "internalType": "bytes32",
          "name": "_bytes32",
          "type": "bytes32"
        }
      ],
      "name": "bytes32ToStringTest",
      "outputs": [
        {
          "internalType": "string",
          "name": "",
          "type": "string"
        }
      ],
      "payable": false,
      "stateMutability": "nonpayable",
      "type": "function"
    },
    {
      "constant": false,
      "inputs": [
        {
          "internalType": "address",
          "name": "_address",
          "type": "address"
        }
      ],
      "name": "addressToAsciiString",
      "outputs": [
        {
          "internalType": "string",
          "name": "",
          "type": "string"
        }
      ],
      "payable": false,
      "stateMutability": "nonpayable",
      "type": "function"
    },
    {
      "constant": true,
      "inputs": [
        {
          "internalType": "bytes1",
          "name": "b",
          "type": "bytes1"
        }
      ],
      "name": "char",
      "outputs": [
        {
          "internalType": "bytes1",
          "name": "c",
          "type": "bytes1"
        }
      ],
      "payable": false,
      "stateMutability": "pure",
      "type": "function"
    },
    {
      "constant": false,
      "inputs": [
        {
          "internalType": "address",
          "name": "_address",
          "type": "address"
        }
      ],
      "name": "addressToString",
      "outputs": [
        {
          "internalType": "string",
          "name": "",
          "type": "string"
        }
      ],
      "payable": false,
      "stateMutability": "nonpayable",
      "type": "function"
    },
    {
      "constant": false,
      "inputs": [],
      "name": "messageSenderAddressToString",
      "outputs": [
        {
          "internalType": "string",
          "name": "",
          "type": "string"
        }
      ],
      "payable": false,
      "stateMutability": "nonpayable",
      "type": "function"
    },
    {
      "constant": false,
      "inputs": [],
      "name": "messageSenderAddressToStringTest",
      "outputs": [
        {
          "internalType": "string",
          "name": "",
          "type": "string"
        }
      ],
      "payable": false,
      "stateMutability": "nonpayable",
      "type": "function"
    },
    {
      "constant": false,
      "inputs": [
        {
          "internalType": "string",
          "name": "str1",
          "type": "string"
        },
        {
          "internalType": "string",
          "name": "str2",
          "type": "string"
        }
      ],
      "name": "stringsConcatenation",
      "outputs": [
        {
          "internalType": "string",
          "name": "",
          "type": "string"
        }
      ],
      "payable": false,
      "stateMutability": "nonpayable",
      "type": "function"
    },
    {
      "constant": false,
      "inputs": [
        {
          "internalType": "string",
          "name": "str1",
          "type": "string"
        },
        {
          "internalType": "string",
          "name": "str2",
          "type": "string"
        }
      ],
      "name": "stringsConcatenationTest",
      "outputs": [
        {
          "internalType": "string",
          "name": "",
          "type": "string"
        }
      ],
      "payable": false,
      "stateMutability": "nonpayable",
      "type": "function"
    },
    {
      "constant": false,
      "inputs": [
        {
          "internalType": "string",
          "name": "str1",
          "type": "string"
        },
        {
          "internalType": "string",
          "name": "str2",
          "type": "string"
        },
        {
          "internalType": "string",
          "name": "str3",
          "type": "string"
        }
      ],
      "name": "stringsJoin",
      "outputs": [
        {
          "internalType": "string",
          "name": "",
          "type": "string"
        }
      ],
      "payable": false,
      "stateMutability": "nonpayable",
      "type": "function"
    },
    {
      "constant": false,
      "inputs": [
        {
          "internalType": "string",
          "name": "str1",
          "type": "string"
        },
        {
          "internalType": "string",
          "name": "str2",
          "type": "string"
        },
        {
          "internalType": "string",
          "name": "str3",
          "type": "string"
        }
      ],
      "name": "stringsJoinTest",
      "outputs": [
        {
          "internalType": "string",
          "name": "",
          "type": "string"
        }
      ],
      "payable": false,
      "stateMutability": "nonpayable",
      "type": "function"
    }
  ],
  "bytecode": "0x608060405234801561001057600080fd5b50612e22806100206000396000f3fe608060405234801561001057600080fd5b50600436106101735760003560e01c80636919258d116100de578063a9ead91c11610097578063cfb5192811610071578063cfb51928146116b7578063ef0c930a14611786578063f12c68fe14611809578063fc30b93a1461182757610173565b8063a9ead91c146112bb578063bf090c8614611378578063cc29f8111461145557610173565b80636919258d14610d675780636964bd5f14610dea57806369f9ad2f14610f1e578063702dfa8e14610fc65780639201de55146111915780639b5522a61461123857610173565b80634056012e116101305780634056012e1461061f5780634978ac3f146108815780634c0999c714610a4c5780635e57966d14610af357806361f6e62e14610bb057806362bb85c114610ce457610173565b80630ca5791e146101785780630f7a69991461021f5780631b7df0ca1461035357806321e836bd146103fa57806329f260591461052e578063385dc640146105fd575b600080fd5b6101a46004803603602081101561018e57600080fd5b8101908080359060200190929190505050611904565b6040518080602001828103825283818151815260200191508051906020019080838360005b838110156101e45780820151818401526020810190506101c9565b50505050905090810190601f1680156102115780820380516001836020036101000a031916815260200191505b509250505060405180910390f35b6102d86004803603602081101561023557600080fd5b810190808035906020019064010000000081111561025257600080fd5b82018360208201111561026457600080fd5b8035906020019184600183028401116401000000008311171561028657600080fd5b91908080601f016020809104026020016040519081016040528093929190818152602001838380828437600081840152601f19601f820116905080830192505050505050509192919290505050611a89565b6040518080602001828103825283818151815260200191508051906020019080838360005b838110156103185780820151818401526020810190506102fd565b50505050905090810190601f1680156103455780820380516001836020036101000a031916815260200191505b509250505060405180910390f35b61037f6004803603602081101561036957600080fd5b8101908080359060200190929190505050611a93565b6040518080602001828103825283818151815260200191508051906020019080838360005b838110156103bf5780820151818401526020810190506103a4565b50505050905090810190601f1680156103ec5780820380516001836020036101000a031916815260200191505b509250505060405180910390f35b6104b36004803603602081101561041057600080fd5b810190808035906020019064010000000081111561042d57600080fd5b82018360208201111561043f57600080fd5b8035906020019184600183028401116401000000008311171561046157600080fd5b91908080601f016020809104026020016040519081016040528093929190818152602001838380828437600081840152601f19601f820116905080830192505050505050509192919290505050611c18565b6040518080602001828103825283818151815260200191508051906020019080838360005b838110156104f35780820151818401526020810190506104d8565b50505050905090810190601f1680156105205780820380516001836020036101000a031916815260200191505b509250505060405180910390f35b6105e76004803603602081101561054457600080fd5b810190808035906020019064010000000081111561056157600080fd5b82018360208201111561057357600080fd5b8035906020019184600183028401116401000000008311171561059557600080fd5b91908080601f016020809104026020016040519081016040528093929190818152602001838380828437600081840152601f19601f820116905080830192505050505050509192919290505050611d4f565b6040518082815260200191505060405180910390f35b610605611e11565b604051808215151515815260200191505060405180910390f35b6108066004803603606081101561063557600080fd5b810190808035906020019064010000000081111561065257600080fd5b82018360208201111561066457600080fd5b8035906020019184600183028401116401000000008311171561068657600080fd5b91908080601f016020809104026020016040519081016040528093929190818152602001838380828437600081840152601f19601f820116905080830192505050505050509192919290803590602001906401000000008111156106e957600080fd5b8201836020820111156106fb57600080fd5b8035906020019184600183028401116401000000008311171561071d57600080fd5b91908080601f016020809104026020016040519081016040528093929190818152602001838380828437600081840152601f19601f8201169050808301925050505050505091929192908035906020019064010000000081111561078057600080fd5b82018360208201111561079257600080fd5b803590602001918460018302840111640100000000831117156107b457600080fd5b91908080601f016020809104026020016040519081016040528093929190818152602001838380828437600081840152601f19601f820116905080830192505050505050509192919290505050611e24565b6040518080602001828103825283818151815260200191508051906020019080838360005b8381101561084657808201518184015260208101905061082b565b50505050905090810190601f1680156108735780820380516001836020036101000a031916815260200191505b509250505060405180910390f35b6109d16004803603604081101561089757600080fd5b81019080803590602001906401000000008111156108b457600080fd5b8201836020820111156108c657600080fd5b803590602001918460018302840111640100000000831117156108e857600080fd5b91908080601f016020809104026020016040519081016040528093929190818152602001838380828437600081840152601f19601f8201169050808301925050505050505091929192908035906020019064010000000081111561094b57600080fd5b82018360208201111561095d57600080fd5b8035906020019184600183028401116401000000008311171561097f57600080fd5b91908080601f016020809104026020016040519081016040528093929190818152602001838380828437600081840152601f19601f820116905080830192505050505050509192919290505050612039565b6040518080602001828103825283818151815260200191508051906020019080838360005b83811015610a115780820151818401526020810190506109f6565b50505050905090810190601f168015610a3e5780820380516001836020036101000a031916815260200191505b509250505060405180910390f35b610a7860048036036020811015610a6257600080fd5b810190808035906020019092919050505061205d565b6040518080602001828103825283818151815260200191508051906020019080838360005b83811015610ab8578082015181840152602081019050610a9d565b50505050905090810190601f168015610ae55780820380516001836020036101000a031916815260200191505b509250505060405180910390f35b610b3560048036036020811015610b0957600080fd5b81019080803573ffffffffffffffffffffffffffffffffffffffff169060200190929190505050612105565b6040518080602001828103825283818151815260200191508051906020019080838360005b83811015610b75578082015181840152602081019050610b5a565b50505050905090810190601f168015610ba25780820380516001836020036101000a031916815260200191505b509250505060405180910390f35b610c6960048036036020811015610bc657600080fd5b8101908080359060200190640100000000811115610be357600080fd5b820183602082011115610bf557600080fd5b80359060200191846001830284011164010000000083111715610c1757600080fd5b91908080601f016020809104026020016040519081016040528093929190818152602001838380828437600081840152601f19601f820116905080830192505050505050509192919290505050612155565b6040518080602001828103825283818151815260200191508051906020019080838360005b83811015610ca9578082015181840152602081019050610c8e565b50505050905090810190601f168015610cd65780820380516001836020036101000a031916815260200191505b509250505060405180910390f35b610cec61228c565b6040518080602001828103825283818151815260200191508051906020019080838360005b83811015610d2c578082015181840152602081019050610d11565b50505050905090810190601f168015610d595780820380516001836020036101000a031916815260200191505b509250505060405180910390f35b610d6f61232a565b6040518080602001828103825283818151815260200191508051906020019080838360005b83811015610daf578082015181840152602081019050610d94565b50505050905090810190601f168015610ddc5780820380516001836020036101000a031916815260200191505b509250505060405180910390f35b610ea360048036036020811015610e0057600080fd5b8101908080359060200190640100000000811115610e1d57600080fd5b820183602082011115610e2f57600080fd5b80359060200191846001830284011164010000000083111715610e5157600080fd5b91908080601f016020809104026020016040519081016040528093929190818152602001838380828437600081840152601f19601f820116905080830192505050505050509192919290505050612426565b6040518080602001828103825283818151815260200191508051906020019080838360005b83811015610ee3578082015181840152602081019050610ec8565b50505050905090810190601f168015610f105780820380516001836020036101000a031916815260200191505b509250505060405180910390f35b610f6c60048036036020811015610f3457600080fd5b8101908080357effffffffffffffffffffffffffffffffffffffffffffffffffffffffffffff19169060200190929190505050612430565b60405180827effffffffffffffffffffffffffffffffffffffffffffffffffffffffffffff19167effffffffffffffffffffffffffffffffffffffffffffffffffffffffffffff1916815260200191505060405180910390f35b61111660048036036040811015610fdc57600080fd5b8101908080359060200190640100000000811115610ff957600080fd5b82018360208201111561100b57600080fd5b8035906020019184600183028401116401000000008311171561102d57600080fd5b91908080601f016020809104026020016040519081016040528093929190818152602001838380828437600081840152601f19601f8201169050808301925050505050505091929192908035906020019064010000000081111561109057600080fd5b8201836020820111156110a257600080fd5b803590602001918460018302840111640100000000831117156110c457600080fd5b91908080601f016020809104026020016040519081016040528093929190818152602001838380828437600081840152601f19601f820116905080830192505050505050509192919290505050612464565b6040518080602001828103825283818151815260200191508051906020019080838360005b8381101561115657808201518184015260208101905061113b565b50505050905090810190601f1680156111835780820380516001836020036101000a031916815260200191505b509250505060405180910390f35b6111bd600480360360208110156111a757600080fd5b810190808035906020019092919050505061260a565b6040518080602001828103825283818151815260200191508051906020019080838360005b838110156111fd5780820151818401526020810190506111e2565b50505050905090810190601f16801561122a5780820380516001836020036101000a031916815260200191505b509250505060405180910390f35b611240612621565b6040518080602001828103825283818151815260200191508051906020019080838360005b83811015611280578082015181840152602081019050611265565b50505050905090810190601f1680156112ad5780820380516001836020036101000a031916815260200191505b509250505060405180910390f35b6112fd600480360360208110156112d157600080fd5b81019080803573ffffffffffffffffffffffffffffffffffffffff169060200190929190505050612631565b6040518080602001828103825283818151815260200191508051906020019080838360005b8381101561133d578082015181840152602081019050611322565b50505050905090810190601f16801561136a5780820380516001836020036101000a031916815260200191505b509250505060405180910390f35b61143b6004803603604081101561138e57600080fd5b81019080803590602001906401000000008111156113ab57600080fd5b8201836020820111156113bd57600080fd5b803590602001918460018302840111640100000000831117156113df57600080fd5b91908080601f016020809104026020016040519081016040528093929190818152602001838380828437600081840152601f19601f82011690508083019250505050505050919291929080359060200190929190505050612780565b604051808215151515815260200191505060405180910390f35b61163c6004803603606081101561146b57600080fd5b810190808035906020019064010000000081111561148857600080fd5b82018360208201111561149a57600080fd5b803590602001918460018302840111640100000000831117156114bc57600080fd5b91908080601f016020809104026020016040519081016040528093929190818152602001838380828437600081840152601f19601f8201169050808301925050505050505091929192908035906020019064010000000081111561151f57600080fd5b82018360208201111561153157600080fd5b8035906020019184600183028401116401000000008311171561155357600080fd5b91908080601f016020809104026020016040519081016040528093929190818152602001838380828437600081840152601f19601f820116905080830192505050505050509192919290803590602001906401000000008111156115b657600080fd5b8201836020820111156115c857600080fd5b803590602001918460018302840111640100000000831117156115ea57600080fd5b91908080601f016020809104026020016040519081016040528093929190818152602001838380828437600081840152601f19601f82011690508083019250505050505050919291929050505061278f565b6040518080602001828103825283818151815260200191508051906020019080838360005b8381101561167c578082015181840152602081019050611661565b50505050905090810190601f1680156116a95780820380516001836020036101000a031916815260200191505b509250505060405180910390f35b611770600480360360208110156116cd57600080fd5b81019080803590602001906401000000008111156116ea57600080fd5b8201836020820111156116fc57600080fd5b8035906020019184600183028401116401000000008311171561171e57600080fd5b91908080601f016020809104026020016040519081016040528093929190818152602001838380828437600081840152601f19601f820116905080830192505050505050509192919290505050612897565b6040518082815260200191505060405180910390f35b61178e6128a5565b6040518080602001828103825283818151815260200191508051906020019080838360005b838110156117ce5780820151818401526020810190506117b3565b50505050905090810190601f1680156117fb5780820380516001836020036101000a031916815260200191505b509250505060405180910390f35b611811612943565b6040518082815260200191505060405180910390f35b6118ea6004803603604081101561183d57600080fd5b810190808035906020019064010000000081111561185a57600080fd5b82018360208201111561186c57600080fd5b8035906020019184600183028401116401000000008311171561188e57600080fd5b91908080601f016020809104026020016040519081016040528093929190818152602001838380828437600081840152601f19601f82011690508083019250505050505050919291929080359060200190929190505050612949565b604051808215151515815260200191505060405180910390f35b606061190f8261260a565b60009080519060200190611924929190612c94565b507fbf24a4e0f19f2a27477b1dadfa65a69b862ef4022147c0ffb4969fac0bf96e4f82600060405180838152602001806020018281038252838181546001816001161561010002031660029004815260200191508054600181600116156101000203166002900480156119d85780601f106119ad576101008083540402835291602001916119d8565b820191906000526020600020905b8154815290600101906020018083116119bb57829003601f168201915b5050935050505060405180910390a160008054600181600116156101000203166002900480601f016020809104026020016040519081016040528092919081815260200182805460018160011615610100020316600290048015611a7d5780601f10611a5257610100808354040283529160200191611a7d565b820191906000526020600020905b815481529060010190602001808311611a6057829003601f168201915b50505050509050919050565b6060819050919050565b6060611a9e8261205d565b60029080519060200190611ab3929190612d14565b507fac23f4c000f6eb0b4dcb20827c224010aa1e6919439d4600d40b9e647aaf7e778260026040518083815260200180602001828103825283818154600181600116156101000203166002900481526020019150805460018160011615610100020316600290048015611b675780601f10611b3c57610100808354040283529160200191611b67565b820191906000526020600020905b815481529060010190602001808311611b4a57829003601f168201915b5050935050505060405180910390a160028054600181600116156101000203166002900480601f016020809104026020016040519081016040528092919081815260200182805460018160011615610100020316600290048015611c0c5780601f10611be157610100808354040283529160200191611c0c565b820191906000526020600020905b815481529060010190602001808311611bef57829003601f168201915b50505050509050919050565b606080611c2483612426565b90507f1c8c647507ef07150fd2b382a4853669604d1a160f26ac85e8b0313c8e848e1d8382604051808060200180602001838103835285818151815260200191508051906020019080838360005b83811015611c8d578082015181840152602081019050611c72565b50505050905090810190601f168015611cba5780820380516001836020036101000a031916815260200191505b50838103825284818151815260200191508051906020019080838360005b83811015611cf3578082015181840152602081019050611cd8565b50505050905090810190601f168015611d205780820380516001836020036101000a031916815260200191505b5094505050505060405180910390a18060009080519060200190611d45929190612c94565b5080915050919050565b600080611d5b83612897565b9050806001819055507fdf5583089169d6e0a32220bf240b649981d28939ec10783f685eda2c5f95c45683826040518080602001838152602001828103825284818151815260200191508051906020019080838360005b83811015611dcd578082015181840152602081019050611db2565b50505050905090810190601f168015611dfa5780820380516001836020036101000a031916815260200191505b50935050505060405180910390a180915050919050565b600360009054906101000a900460ff1681565b606080611e3285858561278f565b90508060009080519060200190611e4a929190612c94565b507f8bfaf51b7be5c63c79e066e82f06fea5118539ec249fa7356d9281075b1a4e7f858585846040518080602001806020018060200180602001858103855289818151815260200191508051906020019080838360005b83811015611ebc578082015181840152602081019050611ea1565b50505050905090810190601f168015611ee95780820380516001836020036101000a031916815260200191505b50858103845288818151815260200191508051906020019080838360005b83811015611f22578082015181840152602081019050611f07565b50505050905090810190601f168015611f4f5780820380516001836020036101000a031916815260200191505b50858103835287818151815260200191508051906020019080838360005b83811015611f88578082015181840152602081019050611f6d565b50505050905090810190601f168015611fb55780820380516001836020036101000a031916815260200191505b50858103825286818151815260200191508051906020019080838360005b83811015611fee578082015181840152602081019050611fd3565b50505050905090810190601f16801561201b5780820380516001836020036101000a031916815260200191505b509850505050505050505060405180910390a1809150509392505050565b606061205561204784612a45565b61205084612a45565b612a73565b905092915050565b60608060206040519080825280601f01601f1916602001820160405280156120945781602001600182028038833980820191505090505b50905060005b60208110156120fb578381602081106120af57fe5b1a60f81b8282815181106120bf57fe5b60200101907effffffffffffffffffffffffffffffffffffffffffffffffffffffffffffff1916908160001a905350808060010191505061209a565b5080915050919050565b606061214e6040518060400160405280600281526020017f307800000000000000000000000000000000000000000000000000000000000081525061214984612631565b612039565b9050919050565b60608061216183611a89565b90508060029080519060200190612179929190612d14565b507ff355c495d37f357a5871a89ace1c33b9243d5f8cfc556cf5ef42acf859050cbf8382604051808060200180602001838103835285818151815260200191508051906020019080838360005b838110156121e15780820151818401526020810190506121c6565b50505050905090810190601f16801561220e5780820380516001836020036101000a031916815260200191505b50838103825284818151815260200191508051906020019080838360005b8381101561224757808201518184015260208101905061222c565b50505050905090810190601f1680156122745780820380516001836020036101000a031916815260200191505b5094505050505060405180910390a180915050919050565b60028054600181600116156101000203166002900480601f0160208091040260200160405190810160405280929190818152602001828054600181600116156101000203166002900480156123225780601f106122f757610100808354040283529160200191612322565b820191906000526020600020905b81548152906001019060200180831161230557829003601f168201915b505050505081565b60608061233633612631565b90507f110a5a86fc08c450dc73f49b542e0e0321d78721e88460f149f04b043762fe463382604051808373ffffffffffffffffffffffffffffffffffffffff1673ffffffffffffffffffffffffffffffffffffffff16815260200180602001828103825283818151815260200191508051906020019080838360005b838110156123cd5780820151818401526020810190506123b2565b50505050905090810190601f1680156123fa5780820380516001836020036101000a031916815260200191505b50935050505060405180910390a1806000908051906020019061241e929190612c94565b508091505090565b6060819050919050565b6000600a8260f81c60ff1610156124525760308260f81c0160f81b905061245f565b60578260f81c0160f81b90505b919050565b6060806124718484612039565b90508060009080519060200190612489929190612c94565b507f68844b2c297c6e57865913ac6894432d3f7a6081437b1f5c2ca49e07859246c584848360405180806020018060200180602001848103845287818151815260200191508051906020019080838360005b838110156124f65780820151818401526020810190506124db565b50505050905090810190601f1680156125235780820380516001836020036101000a031916815260200191505b50848103835286818151815260200191508051906020019080838360005b8381101561255c578082015181840152602081019050612541565b50505050905090810190601f1680156125895780820380516001836020036101000a031916815260200191505b50848103825285818151815260200191508051906020019080838360005b838110156125c25780820151818401526020810190506125a7565b50505050905090810190601f1680156125ef5780820380516001836020036101000a031916815260200191505b50965050505050505060405180910390a18091505092915050565b6060806126168361205d565b905080915050919050565b606061262c33612105565b905090565b60608060286040519080825280601f01601f1916602001820160405280156126685781602001600182028038833980820191505090505b50905060008090505b60148110156127765760008160130360080260020a8573ffffffffffffffffffffffffffffffffffffffff16816126a457fe5b0460f81b9050600060108260f81c60ff16816126bc57fe5b0460f81b905060008160f81c6010028360f81c0360f81b90506126de82612430565b8585600202815181106126ed57fe5b60200101907effffffffffffffffffffffffffffffffffffffffffffffffffffffffffffff1916908160001a90535061272581612430565b85600186600202018151811061273757fe5b60200101907effffffffffffffffffffffffffffffffffffffffffffffffffffffffffffff1916908160001a9053505050508080600101915050612671565b5080915050919050565b60008183511115905092915050565b6060612799612d94565b6127d76040518060400160405280600181526020017f2000000000000000000000000000000000000000000000000000000000000000815250612a45565b90506060600360405190808252806020026020018201604052801561281657816020015b612803612dae565b8152602001906001900390816127fb5790505b50905061282286612a45565b8160008151811061282f57fe5b602002602001018190525061284385612a45565b8160018151811061285057fe5b602002602001018190525061286484612a45565b8160028151811061287157fe5b602002602001018190525060606128888383612af5565b90508093505050509392505050565b600060208201519050919050565b60008054600181600116156101000203166002900480601f01602080910402602001604051908101604052809291908181526020018280546001816001161561010002031660029004801561293b5780601f106129105761010080835404028352916020019161293b565b820191906000526020600020905b81548152906001019060200180831161291e57829003601f168201915b505050505081565b60015481565b60006129558383612780565b600360006101000a81548160ff0219169083151502179055507f2e082328ca8f9d5051602678ac988f41a777e7c156a69044079928709ec871858383600360009054906101000a900460ff16604051808060200184815260200183151515158152602001828103825285818151815260200191508051906020019080838360005b838110156129f15780820151818401526020810190506129d6565b50505050905090810190601f168015612a1e5780820380516001836020036101000a031916815260200191505b5094505050505060405180910390a1600360009054906101000a900460ff16905092915050565b612a4d612d94565b600060208301905060405180604001604052808451815260200182815250915050919050565b60608082600001518460000151016040519080825280601f01601f191660200182016040528015612ab35781602001600182028038833980820191505090505b5090506000602082019050612ad18186602001518760000151612c4b565b612aea8560000151820185602001518660000151612c4b565b819250505092915050565b60606000809050600083511415612b1e5760405180602001604052806000815250915050612c45565b600060018451038560000151029050600091505b8351821015612b6457838281518110612b4757fe5b602002602001015160000151810190508180600101925050612b32565b6060816040519080825280601f01601f191660200182016040528015612b995781602001600182028038833980820191505090505b5090506000602082019050600093505b8551841015612c3d57612beb81878681518110612bc257fe5b602002602001015160200151888781518110612bda57fe5b602002602001015160000151612c4b565b858481518110612bf757fe5b602002602001015160000151810190506001865103841015612c3057612c268188602001518960000151612c4b565b8660000151810190505b8380600101945050612ba9565b819450505050505b92915050565b5b60208110612c6f5781518352602083019250602082019150602081039050612c4c565b60006001826020036101000a0390508019835116818551168181178652505050505050565b828054600181600116156101000203166002900490600052602060002090601f016020900481019282601f10612cd557805160ff1916838001178555612d03565b82800160010185558215612d03579182015b82811115612d02578251825591602001919060010190612ce7565b5b509050612d109190612dc8565b5090565b828054600181600116156101000203166002900490600052602060002090601f016020900481019282601f10612d5557805160ff1916838001178555612d83565b82800160010185558215612d83579182015b82811115612d82578251825591602001919060010190612d67565b5b509050612d909190612dc8565b5090565b604051806040016040528060008152602001600081525090565b604051806040016040528060008152602001600081525090565b612dea91905b80821115612de6576000816000905550600101612dce565b5090565b9056fea265627a7a723158200ab249499c870466ecf2d12a3b49d893e869ea3d8fd51bf14359b5129c1da40364736f6c63430005100032",
  "source": "pragma solidity >=0.4.21 <0.6.0;\n\n\ncontract StringsAndBytes {\n\n    /* --- public variables for storing tests results */\n    string public lastTestStringResult; //\n    bytes32 public lastTestBytes32Result; //\n    bytes public lastTestBytesResult; // bytes: dynamically-sized byte array\n    bool public lastTestBoolResult; //\n\n\n    function stringToBytes32(string memory source) public pure returns (bytes32 result) {\n        // require(bytes(source).length <= 32); // causes error\n        // but string have to be max 32 chars\n        // https://ethereum.stackexchange.com/questions/9603/understanding-mload-assembly-function\n        // http://solidity.readthedocs.io/en/latest/assembly.html\n        assembly {\n        result := mload(add(source, 32))\n        }\n    }//\n    function stringToBytes32Test(string memory _string)  public returns (bytes32) {\n        bytes32 _bytes32 = stringToBytes32(_string);\n        lastTestBytes32Result = _bytes32;\n        emit StringToBytes32(_string, _bytes32);\n        return _bytes32;\n    }//\n    event StringToBytes32(\n    string _string,\n    bytes32 _bytes32\n    );\n\n    function isStringEqualOrShorterThan(string memory str, uint256 length) public pure returns (bool){\n        return bytes(str).length <= length;\n    }//\n    function isStringEqualOrShorterThanTest(string memory str, uint256 length) public returns (bool){\n\n        lastTestBoolResult = isStringEqualOrShorterThan(str, length);\n        emit IsStringEqualOrShorterThan(str, length, lastTestBoolResult);\n\n        return lastTestBoolResult;\n    } //\n    event IsStringEqualOrShorterThan(string str, uint256 length, bool result);\n\n    /* bytes to string */\n    function bytesArrayToString(bytes memory _bytes) public pure returns (string memory) {\n        return string(_bytes);\n    } //\n    function bytesArrayToStringTest(bytes memory _bytes) public returns (string memory) {\n        string memory result = bytesArrayToString(_bytes);\n        emit BytesToString(_bytes, result);\n        lastTestStringResult = result;\n        return result;\n    } //\n    event BytesToString(\n    bytes _bytes,\n    string _string\n    );\n\n    /* string to bytes */\n    function stringToBytesArray(string memory str) public pure returns (bytes memory){\n        return bytes(str);\n    } //\n    function stringToBytesArrayTest(string memory str) public returns (bytes memory){\n        bytes memory result = stringToBytesArray(str);\n        lastTestBytesResult = result;\n        emit StringToBytesArray(str, result);\n        return result;\n    } //\n    event StringToBytesArray(string _string, bytes _bytes);\n\n    /* bytes32 (fixed-size array) to bytes (dynamically-sized array) */\n    function bytes32ToBytes(bytes32 _bytes32) public pure returns (bytes memory){\n        // string memory str = string(_bytes32);\n        // TypeError: Explicit type conversion not allowed from \"bytes32\" to \"string storage pointer\"\n        bytes memory bytesArray = new bytes(32);\n        for (uint256 i; i < 32; i++) {\n            bytesArray[i] = _bytes32[i];\n        }\n        return bytesArray;\n    }//\n    function bytes32ToBytesTest(bytes32 _bytes32) public returns (bytes memory){\n        lastTestBytesResult = bytes32ToBytes(_bytes32);\n        emit Bytes32ToBytes(_bytes32, lastTestBytesResult);\n        return lastTestBytesResult;\n    }//\n    event Bytes32ToBytes(bytes32 _bytes32, bytes _bytes);\n\n    /* bytes32 to string */\n    // see also:\n    // https://ethereum.stackexchange.com/questions/2519/how-to-convert-a-bytes32-to-string\n    // https://ethereum.stackexchange.com/questions/1081/how-to-concatenate-a-bytes32-array-to-a-string\n    function bytes32ToString(bytes32 _bytes32) public pure returns (string memory){\n        bytes memory bytesArray = bytes32ToBytes(_bytes32);\n        return string(bytesArray);\n    }//\n    function bytes32ToStringTest(bytes32 _bytes32) public returns (string memory){\n        lastTestStringResult = bytes32ToString(_bytes32);\n        emit Bytes32ToString(_bytes32, lastTestStringResult);\n        return lastTestStringResult;\n    }//\n    event Bytes32ToString(bytes32 _bytes32, string memory_string);\n\n\n    /*\n    function bytes32ToSring(bytes32 _bytes32) public returns (string memory){\n        // string memory str = string(_bytes32);\n        // TypeError: Explicit type conversion not allowed from \"bytes32\" to \"string storage pointer\"\n        bytes memory bytesArray = new bytes(32);\n        for (uint256 i; i < 32; i++) {\n            bytesArray[i] = _bytes32[i];\n        }\n        string memory str = string(bytesArray);\n        // for test:\n        lastStringResult = str;\n        Bytes32ToString(_bytes32, str);\n        //\n        return str;\n    }\n    */\n\n    /*\n    // https://ethereum.stackexchange.com/questions/2519/how-to-convert-a-bytes32-to-string\n    // https://ethereum.stackexchange.com/questions/1081/how-to-concatenate-a-bytes32-array-to-a-string\n    function bytes32ToString(bytes32 x) public pure returns (string memory) {\n        bytes memory bytesString = new bytes(32);\n        uint charCount = 0;\n        for (uint j = 0; j < 32; j++) {\n            byte char = byte(bytes32(uint(x) * 2 ** (8 * j)));\n            if (char != 0) {\n                bytesString[charCount] = char;\n                charCount++;\n            }\n        }\n        bytes memory bytesStringTrimmed = new bytes(charCount);\n        for (j = 0; j < charCount; j++) {\n            bytesStringTrimmed[j] = bytesString[j];\n        }b\n        string memory result = string(bytesStringTrimmed);\n        return result;\n    }\n    */\n\n    /* ethereum address to string */\n    // https://ethereum.stackexchange.com/questions/8346/convert-address-to-string\n    // https://ethereum.stackexchange.com/a/8447/1964\n    function addressToAsciiString(address _address) public returns (string memory) {\n        bytes memory s = new bytes(40);\n        for (uint i = 0; i < 20; i++) {\n            byte b = byte(uint8(uint(_address) / (2 ** (8 * (19 - i)))));\n            byte hi = byte(uint8(b) / 16);\n            byte lo = byte(uint8(b) - 16 * uint8(hi));\n            s[2 * i] = char(hi);\n            s[2 * i + 1] = char(lo);\n        }\n        return string(s);\n    } //\n    function char(byte b)  public pure returns (byte c) {\n        if (uint8(b) < 10) return byte(uint8(b) + 0x30);\n        else return byte(uint8(b) + 0x57);\n    }\n\n\n    function addressToString(address _address) public returns (string memory) {\n        return stringsConcatenation(\"0x\", addressToAsciiString(_address));\n    }\n\n    function messageSenderAddressToString() public returns (string memory){\n        return addressToString(msg.sender);\n    }\n\n    function messageSenderAddressToStringTest() public returns (string memory) {\n        string memory senderString = addressToAsciiString(msg.sender);\n        emit MsgSenderAddressToStringTest(msg.sender, senderString);\n        lastTestStringResult = senderString;\n        return senderString;\n    } //\n    event MsgSenderAddressToStringTest(address msgSenderAddress, string memorymsgSenderAsString);\n\n    /* --------------------- strings functions begin        */\n    /* --- https://github.com/Arachnid/solidity-stringutils */\n\n    struct slice {uint _len; uint _ptr;}\n\n    function memcpy(uint dest, uint src, uint len) private pure {\n        for (; len >= 32; len -= 32) {\n            assembly {\n            mstore(dest, mload(src))\n            }\n            dest += 32;\n            src += 32;\n        }\n        uint mask = 256 ** (32 - len) - 1;\n        assembly {\n        let srcpart := and(mload(src), not(mask))\n        let destpart := and(mload(dest), mask)\n        mstore(dest, or(destpart, srcpart))\n        }\n    }\n\n    /*\n     * @dev Returns a slice containing the entire string.\n     * @param self The string to make a slice from.\n     * @return A newly allocated slice containing the entire string.\n     */\n    function toSlice(string memory self) internal pure returns (slice memory) {\n        uint ptr;\n        assembly {\n        ptr := add(self, 0x20)\n        }\n        return slice(bytes(self).length, ptr);\n    }\n\n    /*\n     * @dev Returns a newly allocated string containing the concatenation of `self` and `other`.\n     * @param self The first slice to concatenate.\n     * @param other The second slice to concatenate.\n     * @return The concatenation of the two strings.\n     */\n    function concat(slice memory self, slice memory other) internal returns (string memory) {\n        string memory ret = new string(self._len + other._len);\n        uint retptr;\n        assembly {retptr := add(ret, 32)}\n        memcpy(retptr, self._ptr, self._len);\n        memcpy(retptr + self._len, other._ptr, other._len);\n        return ret;\n    }\n\n    /*\n     * @dev Joins an array of slices, using `self` as a delimiter, returning a newly allocated string.\n     * @param self The delimiter to use.\n     * @param parts A list of slices to join.\n     * @return A newly allocated string containing all the slices in `parts`, joined with `self`.\n     */\n    function join(slice memory self, slice[] memory parts) internal returns (string memory) {\n        uint i = 0;\n        if (parts.length == 0)\n        return \"\";\n        uint length = self._len * (parts.length - 1);\n        for (i = 0; i < parts.length; i++)\n        length += parts[i]._len;\n        string memory ret = new string(length);\n        uint retptr;\n        assembly {retptr := add(ret, 32)}\n        for (i = 0; i < parts.length; i++) {\n            memcpy(retptr, parts[i]._ptr, parts[i]._len);\n            retptr += parts[i]._len;\n            if (i < parts.length - 1) {\n                memcpy(retptr, self._ptr, self._len);\n                retptr += self._len;\n            }\n        }\n        return ret;\n    }\n    /* --------------------- strings -- end   */\n\n    function stringsConcatenation(string memory str1, string memory str2) public returns (string memory) {\n        return concat(toSlice(str1), toSlice(str2));\n    } //\n    function stringsConcatenationTest(string memory str1, string memory str2) public returns (string memory) {\n        string memory result = stringsConcatenation(str1, str2);\n        lastTestStringResult = result;\n        emit TestStringsConcatenation(str1, str2, result);\n        return result;\n    } //\n    event TestStringsConcatenation(string str1, string str2, string result);\n\n    function stringsJoin(string memory str1, string memory str2, string memory str3) public returns (string memory) {\n        slice memory delimiter = toSlice(\" \");\n        // see: http://solidity.readthedocs.io/en/v0.4.15/types.html#arrays\n        // http://solidity.readthedocs.io/en/v0.4.15/types.html#allocating-memory-arrays\n        slice[] memory slicesArray = new slice[](3);\n        slicesArray[0] = toSlice(str1);\n        slicesArray[1] = toSlice(str2);\n        slicesArray[2] = toSlice(str3);\n        string memory result = join(delimiter, slicesArray);\n        return result;\n    } //\n    function stringsJoinTest(string memory str1, string memory str2, string memory str3) public returns (string memory) {\n        string memory result = stringsJoin(str1, str2, str3);\n        lastTestStringResult = result;\n        emit TestStringsJoin(str1, str2, str3, result);\n        return result;\n    } //\n    event TestStringsJoin(string str1, string str2, string str3, string result);\n\n}\n",
  "sourcePath": "/home/teide/randomCode/lunchcoin/contracts.v1/contracts/stringasandbytes.sol",
  "compiler": {
    "name": "solc",
    "version": "0.5.16+commit.9c3226ce.Emscripten.clang"
  },
  "schemaVersion": "3.2.0",
  "updatedAt": "2020-06-10T19:25:20.194Z",
  "devdoc": {
    "methods": {}
  },
  "userdoc": {
    "methods": {}
  }
}