{
  "contractName": "StringsAndBytes",
  "abi": [
    {
      "anonymous": false,
      "inputs": [
        {
          "indexed": false,
          "internalType": "bytes32",
          "name": "_bytes32",
          "type": "bytes32"
        },
        {
          "indexed": false,
          "internalType": "bytes",
          "name": "_bytes",
          "type": "bytes"
        }
      ],
      "name": "Bytes32ToBytes",
      "type": "event"
    },
    {
      "anonymous": false,
      "inputs": [
        {
          "indexed": false,
          "internalType": "bytes32",
          "name": "_bytes32",
          "type": "bytes32"
        },
        {
          "indexed": false,
          "internalType": "string",
          "name": "memory_string",
          "type": "string"
        }
      ],
      "name": "Bytes32ToString",
      "type": "event"
    },
    {
      "anonymous": false,
      "inputs": [
        {
          "indexed": false,
          "internalType": "bytes",
          "name": "_bytes",
          "type": "bytes"
        },
        {
          "indexed": false,
          "internalType": "string",
          "name": "_string",
          "type": "string"
        }
      ],
      "name": "BytesToString",
      "type": "event"
    },
    {
      "anonymous": false,
      "inputs": [
        {
          "indexed": false,
          "internalType": "string",
          "name": "str",
          "type": "string"
        },
        {
          "indexed": false,
          "internalType": "uint256",
          "name": "length",
          "type": "uint256"
        },
        {
          "indexed": false,
          "internalType": "bool",
          "name": "result",
          "type": "bool"
        }
      ],
      "name": "IsStringEqualOrShorterThan",
      "type": "event"
    },
    {
      "anonymous": false,
      "inputs": [
        {
          "indexed": false,
          "internalType": "address",
          "name": "msgSenderAddress",
          "type": "address"
        },
        {
          "indexed": false,
          "internalType": "string",
          "name": "memorymsgSenderAsString",
          "type": "string"
        }
      ],
      "name": "MsgSenderAddressToStringTest",
      "type": "event"
    },
    {
      "anonymous": false,
      "inputs": [
        {
          "indexed": false,
          "internalType": "string",
          "name": "_string",
          "type": "string"
        },
        {
          "indexed": false,
          "internalType": "bytes32",
          "name": "_bytes32",
          "type": "bytes32"
        }
      ],
      "name": "StringToBytes32",
      "type": "event"
    },
    {
      "anonymous": false,
      "inputs": [
        {
          "indexed": false,
          "internalType": "string",
          "name": "_string",
          "type": "string"
        },
        {
          "indexed": false,
          "internalType": "bytes",
          "name": "_bytes",
          "type": "bytes"
        }
      ],
      "name": "StringToBytesArray",
      "type": "event"
    },
    {
      "anonymous": false,
      "inputs": [
        {
          "indexed": false,
          "internalType": "string",
          "name": "str1",
          "type": "string"
        },
        {
          "indexed": false,
          "internalType": "string",
          "name": "str2",
          "type": "string"
        },
        {
          "indexed": false,
          "internalType": "string",
          "name": "result",
          "type": "string"
        }
      ],
      "name": "TestStringsConcatenation",
      "type": "event"
    },
    {
      "anonymous": false,
      "inputs": [
        {
          "indexed": false,
          "internalType": "string",
          "name": "str1",
          "type": "string"
        },
        {
          "indexed": false,
          "internalType": "string",
          "name": "str2",
          "type": "string"
        },
        {
          "indexed": false,
          "internalType": "string",
          "name": "str3",
          "type": "string"
        },
        {
          "indexed": false,
          "internalType": "string",
          "name": "result",
          "type": "string"
        }
      ],
      "name": "TestStringsJoin",
      "type": "event"
    },
    {
      "constant": true,
      "inputs": [],
      "name": "lastTestBoolResult",
      "outputs": [
        {
          "internalType": "bool",
          "name": "",
          "type": "bool"
        }
      ],
      "payable": false,
      "stateMutability": "view",
      "type": "function"
    },
    {
      "constant": true,
      "inputs": [],
      "name": "lastTestBytes32Result",
      "outputs": [
        {
          "internalType": "bytes32",
          "name": "",
          "type": "bytes32"
        }
      ],
      "payable": false,
      "stateMutability": "view",
      "type": "function"
    },
    {
      "constant": true,
      "inputs": [],
      "name": "lastTestBytesResult",
      "outputs": [
        {
          "internalType": "bytes",
          "name": "",
          "type": "bytes"
        }
      ],
      "payable": false,
      "stateMutability": "view",
      "type": "function"
    },
    {
      "constant": true,
      "inputs": [],
      "name": "lastTestStringResult",
      "outputs": [
        {
          "internalType": "string",
          "name": "",
          "type": "string"
        }
      ],
      "payable": false,
      "stateMutability": "view",
      "type": "function"
    },
    {
      "constant": true,
      "inputs": [
        {
          "internalType": "string",
          "name": "source",
          "type": "string"
        }
      ],
      "name": "stringToBytes32",
      "outputs": [
        {
          "internalType": "bytes32",
          "name": "result",
          "type": "bytes32"
        }
      ],
      "payable": false,
      "stateMutability": "pure",
      "type": "function"
    },
    {
      "constant": false,
      "inputs": [
        {
          "internalType": "string",
          "name": "_string",
          "type": "string"
        }
      ],
      "name": "stringToBytes32Test",
      "outputs": [
        {
          "internalType": "bytes32",
          "name": "",
          "type": "bytes32"
        }
      ],
      "payable": false,
      "stateMutability": "nonpayable",
      "type": "function"
    },
    {
      "constant": true,
      "inputs": [
        {
          "internalType": "string",
          "name": "str",
          "type": "string"
        },
        {
          "internalType": "uint256",
          "name": "length",
          "type": "uint256"
        }
      ],
      "name": "isStringEqualOrShorterThan",
      "outputs": [
        {
          "internalType": "bool",
          "name": "",
          "type": "bool"
        }
      ],
      "payable": false,
      "stateMutability": "pure",
      "type": "function"
    },
    {
      "constant": false,
      "inputs": [
        {
          "internalType": "string",
          "name": "str",
          "type": "string"
        },
        {
          "internalType": "uint256",
          "name": "length",
          "type": "uint256"
        }
      ],
      "name": "isStringEqualOrShorterThanTest",
      "outputs": [
        {
          "internalType": "bool",
          "name": "",
          "type": "bool"
        }
      ],
      "payable": false,
      "stateMutability": "nonpayable",
      "type": "function"
    },
    {
      "constant": true,
      "inputs": [
        {
          "internalType": "bytes",
          "name": "_bytes",
          "type": "bytes"
        }
      ],
      "name": "bytesArrayToString",
      "outputs": [
        {
          "internalType": "string",
          "name": "",
          "type": "string"
        }
      ],
      "payable": false,
      "stateMutability": "pure",
      "type": "function"
    },
    {
      "constant": false,
      "inputs": [
        {
          "internalType": "bytes",
          "name": "_bytes",
          "type": "bytes"
        }
      ],
      "name": "bytesArrayToStringTest",
      "outputs": [
        {
          "internalType": "string",
          "name": "",
          "type": "string"
        }
      ],
      "payable": false,
      "stateMutability": "nonpayable",
      "type": "function"
    },
    {
      "constant": true,
      "inputs": [
        {
          "internalType": "string",
          "name": "str",
          "type": "string"
        }
      ],
      "name": "stringToBytesArray",
      "outputs": [
        {
          "internalType": "bytes",
          "name": "",
          "type": "bytes"
        }
      ],
      "payable": false,
      "stateMutability": "pure",
      "type": "function"
    },
    {
      "constant": false,
      "inputs": [
        {
          "internalType": "string",
          "name": "str",
          "type": "string"
        }
      ],
      "name": "stringToBytesArrayTest",
      "outputs": [
        {
          "internalType": "bytes",
          "name": "",
          "type": "bytes"
        }
      ],
      "payable": false,
      "stateMutability": "nonpayable",
      "type": "function"
    },
    {
      "constant": true,
      "inputs": [
        {
          "internalType": "bytes32",
          "name": "_bytes32",
          "type": "bytes32"
        }
      ],
      "name": "bytes32ToBytes",
      "outputs": [
        {
          "internalType": "bytes",
          "name": "",
          "type": "bytes"
        }
      ],
      "payable": false,
      "stateMutability": "pure",
      "type": "function"
    },
    {
      "constant": false,
      "inputs": [
        {
          "internalType": "bytes32",
          "name": "_bytes32",
          "type": "bytes32"
        }
      ],
      "name": "bytes32ToBytesTest",
      "outputs": [
        {
          "internalType": "bytes",
          "name": "",
          "type": "bytes"
        }
      ],
      "payable": false,
      "stateMutability": "nonpayable",
      "type": "function"
    },
    {
      "constant": true,
      "inputs": [
        {
          "internalType": "bytes32",
          "name": "_bytes32",
          "type": "bytes32"
        }
      ],
      "name": "bytes32ToString",
      "outputs": [
        {
          "internalType": "string",
          "name": "",
          "type": "string"
        }
      ],
      "payable": false,
      "stateMutability": "pure",
      "type": "function"
    },
    {
      "constant": false,
      "inputs": [
        {
          "internalType": "bytes32",
          "name": "_bytes32",
          "type": "bytes32"
        }
      ],
      "name": "bytes32ToStringTest",
      "outputs": [
        {
          "internalType": "string",
          "name": "",
          "type": "string"
        }
      ],
      "payable": false,
      "stateMutability": "nonpayable",
      "type": "function"
    },
    {
      "constant": false,
      "inputs": [
        {
          "internalType": "address",
          "name": "_address",
          "type": "address"
        }
      ],
      "name": "addressToAsciiString",
      "outputs": [
        {
          "internalType": "string",
          "name": "",
          "type": "string"
        }
      ],
      "payable": false,
      "stateMutability": "nonpayable",
      "type": "function"
    },
    {
      "constant": true,
      "inputs": [
        {
          "internalType": "bytes1",
          "name": "b",
          "type": "bytes1"
        }
      ],
      "name": "char",
      "outputs": [
        {
          "internalType": "bytes1",
          "name": "c",
          "type": "bytes1"
        }
      ],
      "payable": false,
      "stateMutability": "pure",
      "type": "function"
    },
    {
      "constant": false,
      "inputs": [
        {
          "internalType": "address",
          "name": "_address",
          "type": "address"
        }
      ],
      "name": "addressToString",
      "outputs": [
        {
          "internalType": "string",
          "name": "",
          "type": "string"
        }
      ],
      "payable": false,
      "stateMutability": "nonpayable",
      "type": "function"
    },
    {
      "constant": false,
      "inputs": [],
      "name": "messageSenderAddressToString",
      "outputs": [
        {
          "internalType": "string",
          "name": "",
          "type": "string"
        }
      ],
      "payable": false,
      "stateMutability": "nonpayable",
      "type": "function"
    },
    {
      "constant": false,
      "inputs": [],
      "name": "messageSenderAddressToStringTest",
      "outputs": [
        {
          "internalType": "string",
          "name": "",
          "type": "string"
        }
      ],
      "payable": false,
      "stateMutability": "nonpayable",
      "type": "function"
    },
    {
      "constant": false,
      "inputs": [
        {
          "internalType": "string",
          "name": "str1",
          "type": "string"
        },
        {
          "internalType": "string",
          "name": "str2",
          "type": "string"
        }
      ],
      "name": "stringsConcatenation",
      "outputs": [
        {
          "internalType": "string",
          "name": "",
          "type": "string"
        }
      ],
      "payable": false,
      "stateMutability": "nonpayable",
      "type": "function"
    },
    {
      "constant": false,
      "inputs": [
        {
          "internalType": "string",
          "name": "str1",
          "type": "string"
        },
        {
          "internalType": "string",
          "name": "str2",
          "type": "string"
        }
      ],
      "name": "stringsConcatenationTest",
      "outputs": [
        {
          "internalType": "string",
          "name": "",
          "type": "string"
        }
      ],
      "payable": false,
      "stateMutability": "nonpayable",
      "type": "function"
    },
    {
      "constant": false,
      "inputs": [
        {
          "internalType": "string",
          "name": "str1",
          "type": "string"
        },
        {
          "internalType": "string",
          "name": "str2",
          "type": "string"
        },
        {
          "internalType": "string",
          "name": "str3",
          "type": "string"
        }
      ],
      "name": "stringsJoin",
      "outputs": [
        {
          "internalType": "string",
          "name": "",
          "type": "string"
        }
      ],
      "payable": false,
      "stateMutability": "nonpayable",
      "type": "function"
    },
    {
      "constant": false,
      "inputs": [
        {
          "internalType": "string",
          "name": "str1",
          "type": "string"
        },
        {
          "internalType": "string",
          "name": "str2",
          "type": "string"
        },
        {
          "internalType": "string",
          "name": "str3",
          "type": "string"
        }
      ],
      "name": "stringsJoinTest",
      "outputs": [
        {
          "internalType": "string",
          "name": "",
          "type": "string"
        }
      ],
      "payable": false,
      "stateMutability": "nonpayable",
      "type": "function"
    }
  ],
  "bytecode": "0x608060405234801561001057600080fd5b50612075806100206000396000f3fe608060405234801561001057600080fd5b5060043610610190576000357c0100000000000000000000000000000000000000000000000000000000900480636919258d116100fb578063a9ead91c116100b4578063cfb519281161008e578063cfb5192814610ca0578063ef0c930a14610d46578063f12c68fe14610d4e578063fc30b93a14610d5657610190565b8063a9ead91c14610a11578063bf090c8614610a44578063cc29f81114610aec57610190565b80636919258d146108435780636964bd5f1461022757806369f9ad2f1461084b578063702dfa8e146108bf5780639201de55146109ec5780639b5522a614610a0957610190565b80634056012e1161014d5780634056012e146104645780634978ac3f146106185780634c0999c7146107455780635e57966d1461076257806361f6e62e1461079557806362bb85c11461083b57610190565b80630ca5791e146101955780630f7a6999146102275780631b7df0ca146102cd57806321e836bd146102ea57806329f2605914610390578063385dc64014610448575b600080fd5b6101b2600480360360208110156101ab57600080fd5b5035610dfe565b6040805160208082528351818301528351919283929083019185019080838360005b838110156101ec5781810151838201526020016101d4565b50505050905090810190601f1680156102195780820380516001836020036101000a031916815260200191505b509250505060405180910390f35b6101b26004803603602081101561023d57600080fd5b81019060208101813564010000000081111561025857600080fd5b82018360208201111561026a57600080fd5b8035906020019184600183028401116401000000008311171561028c57600080fd5b91908080601f016020809104026020016040519081016040528093929190818152602001838380828437600092019190915250929550610f66945050505050565b6101b2600480360360208110156102e357600080fd5b5035610f69565b6101b26004803603602081101561030057600080fd5b81019060208101813564010000000081111561031b57600080fd5b82018360208201111561032d57600080fd5b8035906020019184600183028401116401000000008311171561034f57600080fd5b91908080601f016020809104026020016040519081016040528093929190818152602001838380828437600092019190915250929550611094945050505050565b610436600480360360208110156103a657600080fd5b8101906020810181356401000000008111156103c157600080fd5b8201836020820111156103d357600080fd5b803590602001918460018302840111640100000000831117156103f557600080fd5b91908080601f0160208091040260200160405190810160405280939291908181526020018383808284376000920191909152509295506111bc945050505050565b60408051918252519081900360200190f35b610450611278565b604080519115158252519081900360200190f35b6101b26004803603606081101561047a57600080fd5b81019060208101813564010000000081111561049557600080fd5b8201836020820111156104a757600080fd5b803590602001918460018302840111640100000000831117156104c957600080fd5b91908080601f016020809104026020016040519081016040528093929190818152602001838380828437600092019190915250929594936020810193503591505064010000000081111561051c57600080fd5b82018360208201111561052e57600080fd5b8035906020019184600183028401116401000000008311171561055057600080fd5b91908080601f01602080910402602001604051908101604052809392919081815260200183838082843760009201919091525092959493602081019350359150506401000000008111156105a357600080fd5b8201836020820111156105b557600080fd5b803590602001918460018302840111640100000000831117156105d757600080fd5b91908080601f016020809104026020016040519081016040528093929190818152602001838380828437600092019190915250929550611281945050505050565b6101b26004803603604081101561062e57600080fd5b81019060208101813564010000000081111561064957600080fd5b82018360208201111561065b57600080fd5b8035906020019184600183028401116401000000008311171561067d57600080fd5b91908080601f01602080910402602001604051908101604052809392919081815260200183838082843760009201919091525092959493602081019350359150506401000000008111156106d057600080fd5b8201836020820111156106e257600080fd5b8035906020019184600183028401116401000000008311171561070457600080fd5b91908080601f01602080910402602001604051908101604052809392919081815260200183838082843760009201919091525092955061147c945050505050565b6101b26004803603602081101561075b57600080fd5b50356114a1565b6101b26004803603602081101561077857600080fd5b503573ffffffffffffffffffffffffffffffffffffffff16611527565b6101b2600480360360208110156107ab57600080fd5b8101906020810181356401000000008111156107c657600080fd5b8201836020820111156107d857600080fd5b803590602001918460018302840111640100000000831117156107fa57600080fd5b91908080601f016020809104026020016040519081016040528093929190818152602001838380828437600092019190915250929550611570945050505050565b6101b2611699565b6101b2611724565b61088a6004803603602081101561086157600080fd5b50357fff0000000000000000000000000000000000000000000000000000000000000016611818565b604080517fff000000000000000000000000000000000000000000000000000000000000009092168252519081900360200190f35b6101b2600480360360408110156108d557600080fd5b8101906020810181356401000000008111156108f057600080fd5b82018360208201111561090257600080fd5b8035906020019184600183028401116401000000008311171561092457600080fd5b91908080601f016020809104026020016040519081016040528093929190818152602001838380828437600092019190915250929594936020810193503591505064010000000081111561097757600080fd5b82018360208201111561098957600080fd5b803590602001918460018302840111640100000000831117156109ab57600080fd5b91908080601f01602080910402602001604051908101604052809392919081815260200183838082843760009201919091525092955061185c945050505050565b6101b260048036036020811015610a0257600080fd5b50356119ee565b6101b2611a01565b6101b260048036036020811015610a2757600080fd5b503573ffffffffffffffffffffffffffffffffffffffff16611a11565b61045060048036036040811015610a5a57600080fd5b810190602081018135640100000000811115610a7557600080fd5b820183602082011115610a8757600080fd5b80359060200191846001830284011164010000000083111715610aa957600080fd5b91908080601f0160208091040260200160405190810160405280939291908181526020018383808284376000920191909152509295505091359250611b3f915050565b6101b260048036036060811015610b0257600080fd5b810190602081018135640100000000811115610b1d57600080fd5b820183602082011115610b2f57600080fd5b80359060200191846001830284011164010000000083111715610b5157600080fd5b91908080601f0160208091040260200160405190810160405280939291908181526020018383808284376000920191909152509295949360208101935035915050640100000000811115610ba457600080fd5b820183602082011115610bb657600080fd5b80359060200191846001830284011164010000000083111715610bd857600080fd5b91908080601f0160208091040260200160405190810160405280939291908181526020018383808284376000920191909152509295949360208101935035915050640100000000811115610c2b57600080fd5b820183602082011115610c3d57600080fd5b80359060200191846001830284011164010000000083111715610c5f57600080fd5b91908080601f016020809104026020016040519081016040528093929190818152602001838380828437600092019190915250929550611b46945050505050565b61043660048036036020811015610cb657600080fd5b810190602081018135640100000000811115610cd157600080fd5b820183602082011115610ce357600080fd5b80359060200191846001830284011164010000000083111715610d0557600080fd5b91908080601f016020809104026020016040519081016040528093929190818152602001838380828437600092019190915250929550611c41945050505050565b6101b2611c48565b610436611ca3565b61045060048036036040811015610d6c57600080fd5b810190602081018135640100000000811115610d8757600080fd5b820183602082011115610d9957600080fd5b80359060200191846001830284011164010000000083111715610dbb57600080fd5b91908080601f0160208091040260200160405190810160405280939291908181526020018383808284376000920191909152509295505091359250611ca9915050565b6060610e09826119ee565b8051610e1d91600091602090910190611f8e565b50604080518381526020810182815260008054600260001961010060018416150201909116049383018490527fbf24a4e0f19f2a27477b1dadfa65a69b862ef4022147c0ffb4969fac0bf96e4f938693919290606083019084908015610ec45780601f10610e9957610100808354040283529160200191610ec4565b820191906000526020600020905b815481529060010190602001808311610ea757829003601f168201915b5050935050505060405180910390a16000805460408051602060026001851615610100026000190190941693909304601f81018490048402820184019092528181529291830182828015610f595780601f10610f2e57610100808354040283529160200191610f59565b820191906000526020600020905b815481529060010190602001808311610f3c57829003601f168201915b505050505090505b919050565b90565b6060610f74826114a1565b8051610f8891600291602090910190611f8e565b5060408051838152602081018281526002805460001961010060018316150201168190049383018490527fac23f4c000f6eb0b4dcb20827c224010aa1e6919439d4600d40b9e647aaf7e7793869391929060608301908490801561102d5780601f106110025761010080835404028352916020019161102d565b820191906000526020600020905b81548152906001019060200180831161101057829003601f168201915b5050935050505060405180910390a16002805460408051602060018416156101000260001901909316849004601f81018490048402820184019092528181529291830182828015610f595780601f10610f2e57610100808354040283529160200191610f59565b6060806110a083610f66565b90507f1c8c647507ef07150fd2b382a4853669604d1a160f26ac85e8b0313c8e848e1d8382604051808060200180602001838103835285818151815260200191508051906020019080838360005b838110156111065781810151838201526020016110ee565b50505050905090810190601f1680156111335780820380516001836020036101000a031916815260200191505b50838103825284518152845160209182019186019080838360005b8381101561116657818101518382015260200161114e565b50505050905090810190601f1680156111935780820380516001836020036101000a031916815260200191505b5094505050505060405180910390a180516111b5906000906020840190611f8e565b5092915050565b6000806111c883611c41565b9050806001819055507fdf5583089169d6e0a32220bf240b649981d28939ec10783f685eda2c5f95c45683826040518080602001838152602001828103825284818151815260200191508051906020019080838360005b8381101561123757818101518382015260200161121f565b50505050905090810190601f1680156112645780820380516001836020036101000a031916815260200191505b50935050505060405180910390a192915050565b60035460ff1681565b60608061128f858585611b46565b80519091506112a5906000906020840190611f8e565b507f8bfaf51b7be5c63c79e066e82f06fea5118539ec249fa7356d9281075b1a4e7f858585846040518080602001806020018060200180602001858103855289818151815260200191508051906020019080838360005b838110156113145781810151838201526020016112fc565b50505050905090810190601f1680156113415780820380516001836020036101000a031916815260200191505b5085810384528851815288516020918201918a019080838360005b8381101561137457818101518382015260200161135c565b50505050905090810190601f1680156113a15780820380516001836020036101000a031916815260200191505b50858103835287518152875160209182019189019080838360005b838110156113d45781810151838201526020016113bc565b50505050905090810190601f1680156114015780820380516001836020036101000a031916815260200191505b50858103825286518152865160209182019188019080838360005b8381101561143457818101518382015260200161141c565b50505050905090810190601f1680156114615780820380516001836020036101000a031916815260200191505b509850505050505050505060405180910390a1949350505050565b606061149861148a84611d8b565b61149384611d8b565b611db0565b90505b92915050565b60408051602080825281830190925260609182919060208201818038833901905050905060005b60208110156111b5578381602081106114dd57fe5b1a60f860020a028282815181106114f057fe5b60200101907effffffffffffffffffffffffffffffffffffffffffffffffffffffffffffff1916908160001a9053506001016114c8565b606061149b6040518060400160405280600281526020017f307800000000000000000000000000000000000000000000000000000000000081525061156b84611a11565b61147c565b60608061157c83610f66565b8051909150611592906002906020840190611f8e565b507ff355c495d37f357a5871a89ace1c33b9243d5f8cfc556cf5ef42acf859050cbf8382604051808060200180602001838103835285818151815260200191508051906020019080838360005b838110156115f75781810151838201526020016115df565b50505050905090810190601f1680156116245780820380516001836020036101000a031916815260200191505b50838103825284518152845160209182019186019080838360005b8381101561165757818101518382015260200161163f565b50505050905090810190601f1680156116845780820380516001836020036101000a031916815260200191505b5094505050505060405180910390a192915050565b6002805460408051602060018416156101000260001901909316849004601f8101849004840282018401909252818152929183018282801561171c5780601f106116f15761010080835404028352916020019161171c565b820191906000526020600020905b8154815290600101906020018083116116ff57829003601f168201915b505050505081565b60608061173033611a11565b90507f110a5a86fc08c450dc73f49b542e0e0321d78721e88460f149f04b043762fe463382604051808373ffffffffffffffffffffffffffffffffffffffff1673ffffffffffffffffffffffffffffffffffffffff16815260200180602001828103825283818151815260200191508051906020019080838360005b838110156117c45781810151838201526020016117ac565b50505050905090810190601f1680156117f15780820380516001836020036101000a031916815260200191505b50935050505060405180910390a18051611812906000906020840190611f8e565b50905090565b6000600a60ff60f860020a8404161015611844578160f860020a900460300160f860020a029050610f61565b8160f860020a900460570160f860020a029050610f61565b606080611869848461147c565b805190915061187f906000906020840190611f8e565b507f68844b2c297c6e57865913ac6894432d3f7a6081437b1f5c2ca49e07859246c584848360405180806020018060200180602001848103845287818151815260200191508051906020019080838360005b838110156118e95781810151838201526020016118d1565b50505050905090810190601f1680156119165780820380516001836020036101000a031916815260200191505b50848103835286518152865160209182019188019080838360005b83811015611949578181015183820152602001611931565b50505050905090810190601f1680156119765780820380516001836020036101000a031916815260200191505b50848103825285518152855160209182019187019080838360005b838110156119a9578181015183820152602001611991565b50505050905090810190601f1680156119d65780820380516001836020036101000a031916815260200191505b50965050505050505060405180910390a19392505050565b6060806119fa836114a1565b9392505050565b6060611a0c33611527565b905090565b604080516028808252606082810190935282919060208201818038833901905050905060005b60148110156111b55760008160130360080260020a8573ffffffffffffffffffffffffffffffffffffffff1681611a6a57fe5b0460f860020a029050600060108260f860020a900460ff1681611a8957fe5b0460f860020a90810291508082046010028184040302611aa882611818565b858560020281518110611ab757fe5b60200101907effffffffffffffffffffffffffffffffffffffffffffffffffffffffffffff1916908160001a905350611aef81611818565b858560020260010181518110611b0157fe5b60200101907effffffffffffffffffffffffffffffffffffffffffffffffffffffffffffff1916908160001a9053505060019092019150611a379050565b9051111590565b6060611b5061200c565b611b8e6040518060400160405280600181526020017f2000000000000000000000000000000000000000000000000000000000000000815250611d8b565b6040805160038082526080820190925291925060609190816020015b611bb261200c565b815260200190600190039081611baa579050509050611bd086611d8b565b81600081518110611bdd57fe5b6020026020010181905250611bf185611d8b565b81600181518110611bfe57fe5b6020026020010181905250611c1284611d8b565b81600281518110611c1f57fe5b60200260200101819052506060611c368383611e24565b979650505050505050565b6020015190565b6000805460408051602060026001851615610100026000190190941693909304601f8101849004840282018401909252818152929183018282801561171c5780601f106116f15761010080835404028352916020019161171c565b60015481565b6000611cb58383611b3f565b6003805460ff1916911515919091179081905560408051602080820186905260ff90931680151592820192909252606080825286519082015285517f2e082328ca8f9d5051602678ac988f41a777e7c156a69044079928709ec871859387938793909290918291608083019187019080838360005b83811015611d42578181015183820152602001611d2a565b50505050905090810190601f168015611d6f5780820380516001836020036101000a031916815260200191505b5094505050505060405180910390a15060035460ff1692915050565b611d9361200c565b506040805180820190915281518152602082810190820152919050565b60608082600001518460000151016040519080825280601f01601f191660200182016040528015611de8576020820181803883390190505b5090506000602082019050611e068186602001518760000151611f50565b845160208501518551611e1c9284019190611f50565b509392505050565b8051606090600090611e4657505060408051602081019091526000815261149b565b508151835160009160001901025b8351821015611e8157838281518110611e6957fe5b60209081029190910101515160019092019101611e54565b6060816040519080825280601f01601f191660200182016040528015611eae576020820181803883390190505b50600093509050602081015b8551841015611f4657611efc81878681518110611ed357fe5b602002602001015160200151888781518110611eeb57fe5b602002602001015160000151611f50565b858481518110611f0857fe5b602002602001015160000151810190506001865103841015611f3b57611f378188602001518960000151611f50565b8651015b600190930192611eba565b5095945050505050565b5b60208110611f70578151835260209283019290910190601f1901611f51565b905182516020929092036101000a6000190180199091169116179052565b828054600181600116156101000203166002900490600052602060002090601f016020900481019282601f10611fcf57805160ff1916838001178555611ffc565b82800160010185558215611ffc579182015b82811115611ffc578251825591602001919060010190611fe1565b50612008929150612026565b5090565b604051806040016040528060008152602001600081525090565b610f6691905b80821115612008576000815560010161202c56fea265627a7a7231582016a043c25423025cafff38c0c386b41dbdf672bdf121fcbb97c603bfd0c0056f64736f6c63430005110032",
  "source": "pragma solidity >=0.4.21 <0.6.0;\n\n\ncontract StringsAndBytes {\n\n    /* --- public variables for storing tests results */\n    string public lastTestStringResult; //\n    bytes32 public lastTestBytes32Result; //\n    bytes public lastTestBytesResult; // bytes: dynamically-sized byte array\n    bool public lastTestBoolResult; //\n\n\n    function stringToBytes32(string memory source) public pure returns (bytes32 result) {\n        // require(bytes(source).length <= 32); // causes error\n        // but string have to be max 32 chars\n        // https://ethereum.stackexchange.com/questions/9603/understanding-mload-assembly-function\n        // http://solidity.readthedocs.io/en/latest/assembly.html\n        assembly {\n        result := mload(add(source, 32))\n        }\n    }//\n    function stringToBytes32Test(string memory _string)  public returns (bytes32) {\n        bytes32 _bytes32 = stringToBytes32(_string);\n        lastTestBytes32Result = _bytes32;\n        emit StringToBytes32(_string, _bytes32);\n        return _bytes32;\n    }//\n    event StringToBytes32(\n    string _string,\n    bytes32 _bytes32\n    );\n\n    function isStringEqualOrShorterThan(string memory str, uint256 length) public pure returns (bool){\n        return bytes(str).length <= length;\n    }//\n    function isStringEqualOrShorterThanTest(string memory str, uint256 length) public returns (bool){\n\n        lastTestBoolResult = isStringEqualOrShorterThan(str, length);\n        emit IsStringEqualOrShorterThan(str, length, lastTestBoolResult);\n\n        return lastTestBoolResult;\n    } //\n    event IsStringEqualOrShorterThan(string str, uint256 length, bool result);\n\n    /* bytes to string */\n    function bytesArrayToString(bytes memory _bytes) public pure returns (string memory) {\n        return string(_bytes);\n    } //\n    function bytesArrayToStringTest(bytes memory _bytes) public returns (string memory) {\n        string memory result = bytesArrayToString(_bytes);\n        emit BytesToString(_bytes, result);\n        lastTestStringResult = result;\n        return result;\n    } //\n    event BytesToString(\n    bytes _bytes,\n    string _string\n    );\n\n    /* string to bytes */\n    function stringToBytesArray(string memory str) public pure returns (bytes memory){\n        return bytes(str);\n    } //\n    function stringToBytesArrayTest(string memory str) public returns (bytes memory){\n        bytes memory result = stringToBytesArray(str);\n        lastTestBytesResult = result;\n        emit StringToBytesArray(str, result);\n        return result;\n    } //\n    event StringToBytesArray(string _string, bytes _bytes);\n\n    /* bytes32 (fixed-size array) to bytes (dynamically-sized array) */\n    function bytes32ToBytes(bytes32 _bytes32) public pure returns (bytes memory){\n        // string memory str = string(_bytes32);\n        // TypeError: Explicit type conversion not allowed from \"bytes32\" to \"string storage pointer\"\n        bytes memory bytesArray = new bytes(32);\n        for (uint256 i; i < 32; i++) {\n            bytesArray[i] = _bytes32[i];\n        }\n        return bytesArray;\n    }//\n    function bytes32ToBytesTest(bytes32 _bytes32) public returns (bytes memory){\n        lastTestBytesResult = bytes32ToBytes(_bytes32);\n        emit Bytes32ToBytes(_bytes32, lastTestBytesResult);\n        return lastTestBytesResult;\n    }//\n    event Bytes32ToBytes(bytes32 _bytes32, bytes _bytes);\n\n    /* bytes32 to string */\n    // see also:\n    // https://ethereum.stackexchange.com/questions/2519/how-to-convert-a-bytes32-to-string\n    // https://ethereum.stackexchange.com/questions/1081/how-to-concatenate-a-bytes32-array-to-a-string\n    function bytes32ToString(bytes32 _bytes32) public pure returns (string memory){\n        bytes memory bytesArray = bytes32ToBytes(_bytes32);\n        return string(bytesArray);\n    }//\n    function bytes32ToStringTest(bytes32 _bytes32) public returns (string memory){\n        lastTestStringResult = bytes32ToString(_bytes32);\n        emit Bytes32ToString(_bytes32, lastTestStringResult);\n        return lastTestStringResult;\n    }//\n    event Bytes32ToString(bytes32 _bytes32, string memory_string);\n\n\n    /*\n    function bytes32ToSring(bytes32 _bytes32) public returns (string memory){\n        // string memory str = string(_bytes32);\n        // TypeError: Explicit type conversion not allowed from \"bytes32\" to \"string storage pointer\"\n        bytes memory bytesArray = new bytes(32);\n        for (uint256 i; i < 32; i++) {\n            bytesArray[i] = _bytes32[i];\n        }\n        string memory str = string(bytesArray);\n        // for test:\n        lastStringResult = str;\n        Bytes32ToString(_bytes32, str);\n        //\n        return str;\n    }\n    */\n\n    /*\n    // https://ethereum.stackexchange.com/questions/2519/how-to-convert-a-bytes32-to-string\n    // https://ethereum.stackexchange.com/questions/1081/how-to-concatenate-a-bytes32-array-to-a-string\n    function bytes32ToString(bytes32 x) public pure returns (string memory) {\n        bytes memory bytesString = new bytes(32);\n        uint charCount = 0;\n        for (uint j = 0; j < 32; j++) {\n            byte char = byte(bytes32(uint(x) * 2 ** (8 * j)));\n            if (char != 0) {\n                bytesString[charCount] = char;\n                charCount++;\n            }\n        }\n        bytes memory bytesStringTrimmed = new bytes(charCount);\n        for (j = 0; j < charCount; j++) {\n            bytesStringTrimmed[j] = bytesString[j];\n        }b\n        string memory result = string(bytesStringTrimmed);\n        return result;\n    }\n    */\n\n    /* ethereum address to string */\n    // https://ethereum.stackexchange.com/questions/8346/convert-address-to-string\n    // https://ethereum.stackexchange.com/a/8447/1964\n    function addressToAsciiString(address _address) public returns (string memory) {\n        bytes memory s = new bytes(40);\n        for (uint i = 0; i < 20; i++) {\n            byte b = byte(uint8(uint(_address) / (2 ** (8 * (19 - i)))));\n            byte hi = byte(uint8(b) / 16);\n            byte lo = byte(uint8(b) - 16 * uint8(hi));\n            s[2 * i] = char(hi);\n            s[2 * i + 1] = char(lo);\n        }\n        return string(s);\n    } //\n    function char(byte b)  public pure returns (byte c) {\n        if (uint8(b) < 10) return byte(uint8(b) + 0x30);\n        else return byte(uint8(b) + 0x57);\n    }\n\n\n    function addressToString(address _address) public returns (string memory) {\n        return stringsConcatenation(\"0x\", addressToAsciiString(_address));\n    }\n\n    function messageSenderAddressToString() public returns (string memory){\n        return addressToString(msg.sender);\n    }\n\n    function messageSenderAddressToStringTest() public returns (string memory) {\n        string memory senderString = addressToAsciiString(msg.sender);\n        emit MsgSenderAddressToStringTest(msg.sender, senderString);\n        lastTestStringResult = senderString;\n        return senderString;\n    } //\n    event MsgSenderAddressToStringTest(address msgSenderAddress, string memorymsgSenderAsString);\n\n    /* --------------------- strings functions begin        */\n    /* --- https://github.com/Arachnid/solidity-stringutils */\n\n    struct slice {uint _len; uint _ptr;}\n\n    function memcpy(uint dest, uint src, uint len) private pure {\n        for (; len >= 32; len -= 32) {\n            assembly {\n            mstore(dest, mload(src))\n            }\n            dest += 32;\n            src += 32;\n        }\n        uint mask = 256 ** (32 - len) - 1;\n        assembly {\n        let srcpart := and(mload(src), not(mask))\n        let destpart := and(mload(dest), mask)\n        mstore(dest, or(destpart, srcpart))\n        }\n    }\n\n    /*\n     * @dev Returns a slice containing the entire string.\n     * @param self The string to make a slice from.\n     * @return A newly allocated slice containing the entire string.\n     */\n    function toSlice(string memory self) internal pure returns (slice memory) {\n        uint ptr;\n        assembly {\n        ptr := add(self, 0x20)\n        }\n        return slice(bytes(self).length, ptr);\n    }\n\n    /*\n     * @dev Returns a newly allocated string containing the concatenation of `self` and `other`.\n     * @param self The first slice to concatenate.\n     * @param other The second slice to concatenate.\n     * @return The concatenation of the two strings.\n     */\n    function concat(slice memory self, slice memory other) internal returns (string memory) {\n        string memory ret = new string(self._len + other._len);\n        uint retptr;\n        assembly {retptr := add(ret, 32)}\n        memcpy(retptr, self._ptr, self._len);\n        memcpy(retptr + self._len, other._ptr, other._len);\n        return ret;\n    }\n\n    /*\n     * @dev Joins an array of slices, using `self` as a delimiter, returning a newly allocated string.\n     * @param self The delimiter to use.\n     * @param parts A list of slices to join.\n     * @return A newly allocated string containing all the slices in `parts`, joined with `self`.\n     */\n    function join(slice memory self, slice[] memory parts) internal returns (string memory) {\n        uint i = 0;\n        if (parts.length == 0)\n        return \"\";\n        uint length = self._len * (parts.length - 1);\n        for (i = 0; i < parts.length; i++)\n        length += parts[i]._len;\n        string memory ret = new string(length);\n        uint retptr;\n        assembly {retptr := add(ret, 32)}\n        for (i = 0; i < parts.length; i++) {\n            memcpy(retptr, parts[i]._ptr, parts[i]._len);\n            retptr += parts[i]._len;\n            if (i < parts.length - 1) {\n                memcpy(retptr, self._ptr, self._len);\n                retptr += self._len;\n            }\n        }\n        return ret;\n    }\n    /* --------------------- strings -- end   */\n\n    function stringsConcatenation(string memory str1, string memory str2) public returns (string memory) {\n        return concat(toSlice(str1), toSlice(str2));\n    } //\n    function stringsConcatenationTest(string memory str1, string memory str2) public returns (string memory) {\n        string memory result = stringsConcatenation(str1, str2);\n        lastTestStringResult = result;\n        emit TestStringsConcatenation(str1, str2, result);\n        return result;\n    } //\n    event TestStringsConcatenation(string str1, string str2, string result);\n\n    function stringsJoin(string memory str1, string memory str2, string memory str3) public returns (string memory) {\n        slice memory delimiter = toSlice(\" \");\n        // see: http://solidity.readthedocs.io/en/v0.4.15/types.html#arrays\n        // http://solidity.readthedocs.io/en/v0.4.15/types.html#allocating-memory-arrays\n        slice[] memory slicesArray = new slice[](3);\n        slicesArray[0] = toSlice(str1);\n        slicesArray[1] = toSlice(str2);\n        slicesArray[2] = toSlice(str3);\n        string memory result = join(delimiter, slicesArray);\n        return result;\n    } //\n    function stringsJoinTest(string memory str1, string memory str2, string memory str3) public returns (string memory) {\n        string memory result = stringsJoin(str1, str2, str3);\n        lastTestStringResult = result;\n        emit TestStringsJoin(str1, str2, str3, result);\n        return result;\n    } //\n    event TestStringsJoin(string str1, string str2, string str3, string result);\n\n}\n",
  "sourcePath": "/home/teide/randomCode/lunchcoin/contracts.v1/contracts/stringasandbytes.sol",
  "compiler": {
    "name": "solc",
    "version": "0.5.17+commit.d19bba13.Emscripten.clang"
  },
  "schemaVersion": "3.0.2",
  "updatedAt": "2020-07-04T14:14:09.288Z",
  "devdoc": {
    "methods": {}
  },
  "userdoc": {
    "methods": {}
  }
}