{
  "contractName": "TokenStorage",
  "abi": [
    {
      "inputs": [],
      "payable": false,
      "stateMutability": "nonpayable",
      "type": "constructor"
    },
    {
      "constant": true,
      "inputs": [
        {
          "internalType": "string",
          "name": "",
          "type": "string"
        }
      ],
      "name": "__pollData",
      "outputs": [
        {
          "internalType": "address",
          "name": "initiator",
          "type": "address"
        },
        {
          "internalType": "uint256",
          "name": "minStake",
          "type": "uint256"
        },
        {
          "internalType": "uint256",
          "name": "venueCost",
          "type": "uint256"
        },
        {
          "internalType": "uint256",
          "name": "venuePot",
          "type": "uint256"
        },
        {
          "internalType": "address",
          "name": "venuePayer",
          "type": "address"
        },
        {
          "internalType": "uint8",
          "name": "minParticipants",
          "type": "uint8"
        },
        {
          "components": [
            {
              "internalType": "uint256",
              "name": "start",
              "type": "uint256"
            },
            {
              "internalType": "uint256",
              "name": "end",
              "type": "uint256"
            }
          ],
          "internalType": "struct TokenStorage.TimeRange",
          "name": "eventTime",
          "type": "tuple"
        },
        {
          "internalType": "bool",
          "name": "proofsWindowClosed",
          "type": "bool"
        }
      ],
      "payable": false,
      "stateMutability": "view",
      "type": "function"
    },
    {
      "constant": true,
      "inputs": [
        {
          "internalType": "address",
          "name": "account",
          "type": "address"
        }
      ],
      "name": "isOwner",
      "outputs": [
        {
          "internalType": "bool",
          "name": "",
          "type": "bool"
        }
      ],
      "payable": false,
      "stateMutability": "view",
      "type": "function"
    },
    {
      "constant": false,
      "inputs": [
        {
          "internalType": "address",
          "name": "proxyContract",
          "type": "address"
        }
      ],
      "name": "setProxyContract",
      "outputs": [],
      "payable": false,
      "stateMutability": "nonpayable",
      "type": "function"
    },
    {
      "constant": true,
      "inputs": [],
      "name": "getRegistryContract",
      "outputs": [
        {
          "internalType": "address",
          "name": "",
          "type": "address"
        }
      ],
      "payable": false,
      "stateMutability": "view",
      "type": "function"
    },
    {
      "constant": false,
      "inputs": [
        {
          "internalType": "address",
          "name": "_tokenHolder",
          "type": "address"
        },
        {
          "internalType": "address",
          "name": "_spender",
          "type": "address"
        },
        {
          "internalType": "uint256",
          "name": "_value",
          "type": "uint256"
        }
      ],
      "name": "setAllowance",
      "outputs": [],
      "payable": false,
      "stateMutability": "nonpayable",
      "type": "function"
    },
    {
      "constant": true,
      "inputs": [
        {
          "internalType": "address",
          "name": "_tokenHolder",
          "type": "address"
        },
        {
          "internalType": "address",
          "name": "_spender",
          "type": "address"
        }
      ],
      "name": "getAllowance",
      "outputs": [
        {
          "internalType": "uint256",
          "name": "",
          "type": "uint256"
        }
      ],
      "payable": false,
      "stateMutability": "view",
      "type": "function"
    },
    {
      "constant": false,
      "inputs": [
        {
          "internalType": "address",
          "name": "_addr",
          "type": "address"
        },
        {
          "internalType": "uint256",
          "name": "_value",
          "type": "uint256"
        }
      ],
      "name": "addBalance",
      "outputs": [],
      "payable": false,
      "stateMutability": "nonpayable",
      "type": "function"
    },
    {
      "constant": false,
      "inputs": [
        {
          "internalType": "address",
          "name": "_addr",
          "type": "address"
        },
        {
          "internalType": "uint256",
          "name": "_value",
          "type": "uint256"
        }
      ],
      "name": "subBalance",
      "outputs": [],
      "payable": false,
      "stateMutability": "nonpayable",
      "type": "function"
    },
    {
      "constant": false,
      "inputs": [
        {
          "internalType": "address",
          "name": "_addr",
          "type": "address"
        },
        {
          "internalType": "uint256",
          "name": "_value",
          "type": "uint256"
        }
      ],
      "name": "setBalance",
      "outputs": [],
      "payable": false,
      "stateMutability": "nonpayable",
      "type": "function"
    },
    {
      "constant": true,
      "inputs": [
        {
          "internalType": "address",
          "name": "_addr",
          "type": "address"
        }
      ],
      "name": "getBalance",
      "outputs": [
        {
          "internalType": "uint256",
          "name": "",
          "type": "uint256"
        }
      ],
      "payable": false,
      "stateMutability": "view",
      "type": "function"
    },
    {
      "constant": false,
      "inputs": [
        {
          "internalType": "uint256",
          "name": "_value",
          "type": "uint256"
        }
      ],
      "name": "addTotalSupply",
      "outputs": [],
      "payable": false,
      "stateMutability": "nonpayable",
      "type": "function"
    },
    {
      "constant": false,
      "inputs": [
        {
          "internalType": "uint256",
          "name": "_value",
          "type": "uint256"
        }
      ],
      "name": "subTotalSupply",
      "outputs": [],
      "payable": false,
      "stateMutability": "nonpayable",
      "type": "function"
    },
    {
      "constant": false,
      "inputs": [
        {
          "internalType": "uint256",
          "name": "_value",
          "type": "uint256"
        }
      ],
      "name": "setTotalSupply",
      "outputs": [],
      "payable": false,
      "stateMutability": "nonpayable",
      "type": "function"
    },
    {
      "constant": true,
      "inputs": [],
      "name": "getTotalSupply",
      "outputs": [
        {
          "internalType": "uint256",
          "name": "",
          "type": "uint256"
        }
      ],
      "payable": false,
      "stateMutability": "view",
      "type": "function"
    }
  ],
  "bytecode": "0x6080604052739d26a8a5db7dc10689692caf8d52c912958409cf600b60006101000a81548173ffffffffffffffffffffffffffffffffffffffff021916908373ffffffffffffffffffffffffffffffffffffffff1602179055506000600e5534801561006a57600080fd5b50336000806101000a81548173ffffffffffffffffffffffffffffffffffffffff021916908373ffffffffffffffffffffffffffffffffffffffff1602179055506115de806100ba6000396000f3fe608060405234801561001057600080fd5b50600436106100ea5760003560e01c8063c4e41b221161008c578063e30443bc11610066578063e30443bc1461024e578063e468688e1461026a578063f7ea7a3d14610286578063f8b2cb4f146102a2576100ea565b8063c4e41b22146101f8578063cf8eeb7e14610216578063da46098c14610232576100ea565b80632f54bf6e116100c85780632f54bf6e1461017257806336ca3d73146101a25780637137ed47146101c057806382838c76146101dc576100ea565b80630af4187d146100ef57806321e5383a1461011f5780632c3a6be21461013b575b600080fd5b61010960048036036101049190810190610f88565b6102d2565b6040516101169190611435565b60405180910390f35b61013960048036036101349190810190611013565b6103e9565b005b6101556004803603610150919081019061104f565b610512565b6040516101699897969594939291906112f9565b60405180910390f35b61018c60048036036101879190810190610f5f565b6105e8565b6040516101999190611378565b60405180910390f35b6101aa610641565b6040516101b791906112de565b60405180910390f35b6101da60048036036101d59190810190610f5f565b61066b565b005b6101f660048036036101f19190810190611090565b610767565b005b610200610815565b60405161020d9190611435565b60405180910390f35b610230600480360361022b9190810190611013565b6108af565b005b61024c60048036036102479190810190610fc4565b6109d8565b005b61026860048036036102639190810190611013565b610aee565b005b610284600480360361027f9190810190611090565b610bc6565b005b6102a0600480360361029b9190810190611090565b610c74565b005b6102bc60048036036102b79190810190610f5f565b610d0e565b6040516102c99190611435565b60405180910390f35b6000600160009054906101000a900473ffffffffffffffffffffffffffffffffffffffff1673ffffffffffffffffffffffffffffffffffffffff163373ffffffffffffffffffffffffffffffffffffffff1614610364576040517f08c379a000000000000000000000000000000000000000000000000000000000815260040161035b90611415565b60405180910390fd5b600c60008473ffffffffffffffffffffffffffffffffffffffff1673ffffffffffffffffffffffffffffffffffffffff16815260200190815260200160002060008373ffffffffffffffffffffffffffffffffffffffff1673ffffffffffffffffffffffffffffffffffffffff16815260200190815260200160002054905092915050565b600160009054906101000a900473ffffffffffffffffffffffffffffffffffffffff1673ffffffffffffffffffffffffffffffffffffffff163373ffffffffffffffffffffffffffffffffffffffff1614610479576040517f08c379a000000000000000000000000000000000000000000000000000000000815260040161047090611415565b60405180910390fd5b6104cb81600d60008573ffffffffffffffffffffffffffffffffffffffff1673ffffffffffffffffffffffffffffffffffffffff16815260200190815260200160002054610de790919063ffffffff16565b600d60008473ffffffffffffffffffffffffffffffffffffffff1673ffffffffffffffffffffffffffffffffffffffff168152602001908152602001600020819055505050565b6004818051602081018201805184825260208301602085012081835280955050505050506000915090508060000160009054906101000a900473ffffffffffffffffffffffffffffffffffffffff16908060010154908060020154908060030154908060040160009054906101000a900473ffffffffffffffffffffffffffffffffffffffff16908060040160149054906101000a900460ff16908060050160405180604001604052908160008201548152602001600182015481525050908060070160009054906101000a900460ff16905088565b60008060009054906101000a900473ffffffffffffffffffffffffffffffffffffffff1673ffffffffffffffffffffffffffffffffffffffff168273ffffffffffffffffffffffffffffffffffffffff16149050919050565b6000600160009054906101000a900473ffffffffffffffffffffffffffffffffffffffff16905090565b610674336105e8565b6106b3576040517f08c379a00000000000000000000000000000000000000000000000000000000081526004016106aa906113f5565b60405180910390fd5b600073ffffffffffffffffffffffffffffffffffffffff168173ffffffffffffffffffffffffffffffffffffffff161415610723576040517f08c379a000000000000000000000000000000000000000000000000000000000815260040161071a906113b5565b60405180910390fd5b80600160006101000a81548173ffffffffffffffffffffffffffffffffffffffff021916908373ffffffffffffffffffffffffffffffffffffffff16021790555050565b600160009054906101000a900473ffffffffffffffffffffffffffffffffffffffff1673ffffffffffffffffffffffffffffffffffffffff163373ffffffffffffffffffffffffffffffffffffffff16146107f7576040517f08c379a00000000000000000000000000000000000000000000000000000000081526004016107ee90611415565b60405180910390fd5b61080c81600e54610e3c90919063ffffffff16565b600e8190555050565b6000600160009054906101000a900473ffffffffffffffffffffffffffffffffffffffff1673ffffffffffffffffffffffffffffffffffffffff163373ffffffffffffffffffffffffffffffffffffffff16146108a7576040517f08c379a000000000000000000000000000000000000000000000000000000000815260040161089e90611415565b60405180910390fd5b600e54905090565b600160009054906101000a900473ffffffffffffffffffffffffffffffffffffffff1673ffffffffffffffffffffffffffffffffffffffff163373ffffffffffffffffffffffffffffffffffffffff161461093f576040517f08c379a000000000000000000000000000000000000000000000000000000000815260040161093690611415565b60405180910390fd5b61099181600d60008573ffffffffffffffffffffffffffffffffffffffff1673ffffffffffffffffffffffffffffffffffffffff16815260200190815260200160002054610e3c90919063ffffffff16565b600d60008473ffffffffffffffffffffffffffffffffffffffff1673ffffffffffffffffffffffffffffffffffffffff168152602001908152602001600020819055505050565b600160009054906101000a900473ffffffffffffffffffffffffffffffffffffffff1673ffffffffffffffffffffffffffffffffffffffff163373ffffffffffffffffffffffffffffffffffffffff1614610a68576040517f08c379a0000000000000000000000000000000000000000000000000000000008152600401610a5f90611415565b60405180910390fd5b80600c60008573ffffffffffffffffffffffffffffffffffffffff1673ffffffffffffffffffffffffffffffffffffffff16815260200190815260200160002060008473ffffffffffffffffffffffffffffffffffffffff1673ffffffffffffffffffffffffffffffffffffffff16815260200190815260200160002081905550505050565b600160009054906101000a900473ffffffffffffffffffffffffffffffffffffffff1673ffffffffffffffffffffffffffffffffffffffff163373ffffffffffffffffffffffffffffffffffffffff1614610b7e576040517f08c379a0000000000000000000000000000000000000000000000000000000008152600401610b7590611415565b60405180910390fd5b80600d60008473ffffffffffffffffffffffffffffffffffffffff1673ffffffffffffffffffffffffffffffffffffffff168152602001908152602001600020819055505050565b600160009054906101000a900473ffffffffffffffffffffffffffffffffffffffff1673ffffffffffffffffffffffffffffffffffffffff163373ffffffffffffffffffffffffffffffffffffffff1614610c56576040517f08c379a0000000000000000000000000000000000000000000000000000000008152600401610c4d90611415565b60405180910390fd5b610c6b81600e54610de790919063ffffffff16565b600e8190555050565b600160009054906101000a900473ffffffffffffffffffffffffffffffffffffffff1673ffffffffffffffffffffffffffffffffffffffff163373ffffffffffffffffffffffffffffffffffffffff1614610d04576040517f08c379a0000000000000000000000000000000000000000000000000000000008152600401610cfb90611415565b60405180910390fd5b80600e8190555050565b6000600160009054906101000a900473ffffffffffffffffffffffffffffffffffffffff1673ffffffffffffffffffffffffffffffffffffffff163373ffffffffffffffffffffffffffffffffffffffff1614610da0576040517f08c379a0000000000000000000000000000000000000000000000000000000008152600401610d9790611415565b60405180910390fd5b600d60008373ffffffffffffffffffffffffffffffffffffffff1673ffffffffffffffffffffffffffffffffffffffff168152602001908152602001600020549050919050565b600080828401905083811015610e32576040517f08c379a0000000000000000000000000000000000000000000000000000000008152600401610e29906113d5565b60405180910390fd5b8091505092915050565b6000610e7e83836040518060400160405280601e81526020017f536166654d6174683a207375627472616374696f6e206f766572666c6f770000815250610e86565b905092915050565b6000838311158290610ece576040517f08c379a0000000000000000000000000000000000000000000000000000000008152600401610ec59190611393565b60405180910390fd5b5060008385039050809150509392505050565b600081359050610ef08161156d565b92915050565b600082601f830112610f0757600080fd5b8135610f1a610f158261147d565b611450565b91508082526020830160208301858383011115610f3657600080fd5b610f4183828461151a565b50505092915050565b600081359050610f5981611584565b92915050565b600060208284031215610f7157600080fd5b6000610f7f84828501610ee1565b91505092915050565b60008060408385031215610f9b57600080fd5b6000610fa985828601610ee1565b9250506020610fba85828601610ee1565b9150509250929050565b600080600060608486031215610fd957600080fd5b6000610fe786828701610ee1565b9350506020610ff886828701610ee1565b925050604061100986828701610f4a565b9150509250925092565b6000806040838503121561102657600080fd5b600061103485828601610ee1565b925050602061104585828601610f4a565b9150509250929050565b60006020828403121561106157600080fd5b600082013567ffffffffffffffff81111561107b57600080fd5b61108784828501610ef6565b91505092915050565b6000602082840312156110a257600080fd5b60006110b084828501610f4a565b91505092915050565b6110c2816114c5565b82525050565b6110d1816114d7565b82525050565b60006110e2826114a9565b6110ec81856114b4565b93506110fc818560208601611529565b6111058161155c565b840191505092915050565b600061111d6039836114b4565b91507f496e76616c6964416464726573733a20696e76616c696420616464726573732060008301527f70617373656420666f722070726f787920636f6e7472616374000000000000006020830152604082019050919050565b6000611183601b836114b4565b91507f536166654d6174683a206164646974696f6e206f766572666c6f7700000000006000830152602082019050919050565b60006111c3602e836114b4565b91507f4f776e6572526f6c653a2063616c6c657220646f6573206e6f7420686176652060008301527f746865204f776e657220726f6c650000000000000000000000000000000000006020830152604082019050919050565b6000611229603f836114b4565b91507f41636365737344656e6965643a20546869732061646472657373206973206e6f60008301527f7420616c6c6f77656420746f20616363657373207468652073746f72616765006020830152604082019050919050565b60408201600082015161129860008501826112b1565b5060208201516112ab60208501826112b1565b50505050565b6112ba81611503565b82525050565b6112c981611503565b82525050565b6112d88161150d565b82525050565b60006020820190506112f360008301846110b9565b92915050565b60006101208201905061130f600083018b6110b9565b61131c602083018a6112c0565b61132960408301896112c0565b61133660608301886112c0565b61134360808301876110b9565b61135060a08301866112cf565b61135d60c0830185611282565b61136b6101008301846110c8565b9998505050505050505050565b600060208201905061138d60008301846110c8565b92915050565b600060208201905081810360008301526113ad81846110d7565b905092915050565b600060208201905081810360008301526113ce81611110565b9050919050565b600060208201905081810360008301526113ee81611176565b9050919050565b6000602082019050818103600083015261140e816111b6565b9050919050565b6000602082019050818103600083015261142e8161121c565b9050919050565b600060208201905061144a60008301846112c0565b92915050565b6000604051905081810181811067ffffffffffffffff8211171561147357600080fd5b8060405250919050565b600067ffffffffffffffff82111561149457600080fd5b601f19601f8301169050602081019050919050565b600081519050919050565b600082825260208201905092915050565b60006114d0826114e3565b9050919050565b60008115159050919050565b600073ffffffffffffffffffffffffffffffffffffffff82169050919050565b6000819050919050565b600060ff82169050919050565b82818337600083830152505050565b60005b8381101561154757808201518184015260208101905061152c565b83811115611556576000848401525b50505050565b6000601f19601f8301169050919050565b611576816114c5565b811461158157600080fd5b50565b61158d81611503565b811461159857600080fd5b5056fea365627a7a72315820bdd56cdbae72fd2134647b5ff5aa83460cefd66ef336507252f75d2cedaa74346c6578706572696d656e74616cf564736f6c63430005100040",
  "source": "pragma solidity ^0.5.7;\npragma experimental ABIEncoderV2;\n\nimport \"openzeppelin-solidity/contracts/math/SafeMath.sol\";\nimport './Ownable.sol';\n\n/**\n* @author Arvind Kalra (github.com/arvindkalra) and Pranav Singhal (github.com/pranav-singhal)\n* @title TokenStorage\n*/\ncontract TokenStorage  is Ownable{\n    using SafeMath for uint256;\n\n    // Common storage structure for ALL contacts using this storage.\n    // _, __, __ , etc are unused in this contract, but must remain to occupy their slots.\n\n    address internal _registryContract;\n\n    struct TimeRange {\n      uint start;\n      uint end;\n    }\n\n    struct Stake {\n      uint rep;\n      TimeRange[] available;\n      uint availabilityExpires;\n      mapping (address => uint) venueContribution;\n    }\n\n    struct Dibs {\n      address payer;\n      address recipient;\n      uint amount;\n    }\n\n\n\n\n    struct Poll {\n      address initiator;\n      uint minStake;\n      uint venueCost;\n      uint venuePot;\n      address venuePayer;\n      uint8 minParticipants;\n      TimeRange eventTime;\n      bool proofsWindowClosed;\n      mapping (address => Stake) staked;\n      mapping (address => uint16) ownCheckInIndex;           // 1-indexed: ownCheckInIndex[s]==0 => nothing there.\n      Dibs[] dibsCalled;\n    }\n\n\n    struct PollExternal {\n      address initiator;\n      uint minStake;\n      uint venueCost;\n      uint venuePot;\n      address venuePayer;\n      uint8 minParticipants;\n      uint8 participants;\n      TimeRange eventTime;\n      bool proofsWindowClosed;\n      // NB external view of Poll can never correctly represent ownCheckInIndex (a mapping to a dynamic array).\n      // Need to either make it indicative, or fixed size.\n\n      // getting arrays with web3 is weird. Possibly claims ABI error?\n      // bytes32[5][] cantremember;\n      // address[] provers;\n      // dibs[] dibsCalled;\n    }\n\n    // shared across contracts\n    mapping (address => uint) __rep;\n    mapping (bytes32 => bytes32[]) __allTheData;\n    mapping (string => Poll) public __pollData;\n    mapping (bytes32 => bool) __resultsCache;\n\n    // used only in Poll\n    mapping(uint8 => address) internal __validators;\n    mapping(uint8 => string) internal __validatorNames;\n    mapping(address => uint) internal __cashBalance;\n    address __selfAddy ;\n\n\n    // unused - previously for Storage Proxy\n    //    mapping (address => bool) internal _allowedAccess;\n\n    // used only in Validators\n    mapping (address => uint16) __stakerPresentIn;\n\n      // used for testing only - will be deleted.\n      address __pollAddress = 0x9D26a8a5Db7dC10689692caF8d52C912958409CF;\n\n    // constants: Do not use space in storage.\n    uint8 constant __vType=1;\n    string constant __vDesc = \"mutual agreement\";\n\n\n    constructor() public {\n        _owner = msg.sender;\n    }\n\n    function setProxyContract(address proxyContract) onlyOwner public{\n        require(proxyContract != address(0), \"InvalidAddress: invalid address passed for proxy contract\");\n        _registryContract = proxyContract;\n    }\n\n    function getRegistryContract() view public returns(address){\n        return _registryContract;\n    }\n\n    //    function addDeligateContract(address upgradedDeligatee) public{\n    //        require(msg.sender == _registryContract, \"AccessDenied: only registry contract allowed access\");\n    //        _allowedAccess[upgradedDeligatee] = true;\n    //    }\n\n    modifier onlyAllowedAccess() {\n        require(msg.sender == _registryContract, \"AccessDenied: This address is not allowed to access the storage\");\n        _;\n    }\n\n    // Allowances with its Getter and Setter\n    mapping (address => mapping (address => uint256)) internal _allowances;\n\n    function setAllowance(address _tokenHolder, address _spender, uint256 _value) public onlyAllowedAccess {\n        _allowances[_tokenHolder][_spender] = _value;\n    }\n\n    function getAllowance(address _tokenHolder, address _spender) public view onlyAllowedAccess returns(uint256){\n        return _allowances[_tokenHolder][_spender];\n    }\n\n\n    // Balances with its Getter and Setter\n    mapping (address => uint256) internal _balances;\n    function addBalance(address _addr, uint256 _value) public onlyAllowedAccess {\n        _balances[_addr] = _balances[_addr].add(_value);\n    }\n\n    function subBalance(address _addr, uint256 _value) public onlyAllowedAccess {\n        _balances[_addr] = _balances[_addr].sub(_value);\n    }\n\n    function setBalance(address _addr, uint256 _value) public onlyAllowedAccess {\n        _balances[_addr] = _value;\n    }\n\n    function getBalance(address _addr) public view onlyAllowedAccess returns(uint256){\n        return _balances[_addr];\n    }\n\n    // Total Supply with Getter and Setter\n    uint256 internal _totalSupply = 0;\n\n    function addTotalSupply(uint256 _value) public onlyAllowedAccess {\n        _totalSupply = _totalSupply.add(_value);\n    }\n\n    function subTotalSupply(uint256 _value) public onlyAllowedAccess {\n        _totalSupply = _totalSupply.sub(_value);\n    }\n\n    function setTotalSupply(uint256 _value) public onlyAllowedAccess {\n        _totalSupply = _value;\n    }\n\n    function getTotalSupply() public view onlyAllowedAccess returns(uint256) {\n        return(_totalSupply);\n    }\n}\n",
  "sourcePath": "/home/teide/randomCode/lunchcoin/contracts.v1/contracts/TokenStorage.sol",
  "compiler": {
    "name": "solc",
    "version": "0.5.16+commit.9c3226ce.Emscripten.clang"
  },
  "schemaVersion": "3.2.0",
  "updatedAt": "2020-06-25T16:06:52.884Z",
  "networkType": "ethereum",
  "devdoc": {
    "author": "Arvind Kalra (github.com/arvindkalra) and Pranav Singhal (github.com/pranav-singhal)",
    "methods": {},
    "title": "TokenStorage"
  },
  "userdoc": {
    "methods": {}
  }
}