{
  "contractName": "TokenStorage",
  "abi": [
    {
      "inputs": [],
      "payable": false,
      "stateMutability": "nonpayable",
      "type": "constructor"
    },
    {
      "constant": true,
      "inputs": [
        {
          "internalType": "string",
          "name": "",
          "type": "string"
        }
      ],
      "name": "__pollData",
      "outputs": [
        {
          "internalType": "address",
          "name": "initiator",
          "type": "address"
        },
        {
          "internalType": "uint256",
          "name": "minStake",
          "type": "uint256"
        },
        {
          "internalType": "uint256",
          "name": "venueCost",
          "type": "uint256"
        },
        {
          "internalType": "uint256",
          "name": "venuePot",
          "type": "uint256"
        },
        {
          "internalType": "uint8",
          "name": "minParticipants",
          "type": "uint8"
        },
        {
          "components": [
            {
              "internalType": "uint256",
              "name": "start",
              "type": "uint256"
            },
            {
              "internalType": "uint256",
              "name": "end",
              "type": "uint256"
            }
          ],
          "internalType": "struct TokenStorage.TimeRange",
          "name": "eventTime",
          "type": "tuple"
        },
        {
          "internalType": "bool",
          "name": "proofsWindowClosed",
          "type": "bool"
        }
      ],
      "payable": false,
      "stateMutability": "view",
      "type": "function"
    },
    {
      "constant": true,
      "inputs": [
        {
          "internalType": "address",
          "name": "account",
          "type": "address"
        }
      ],
      "name": "isOwner",
      "outputs": [
        {
          "internalType": "bool",
          "name": "",
          "type": "bool"
        }
      ],
      "payable": false,
      "stateMutability": "view",
      "type": "function"
    },
    {
      "constant": false,
      "inputs": [
        {
          "internalType": "address",
          "name": "proxyContract",
          "type": "address"
        }
      ],
      "name": "setProxyContract",
      "outputs": [],
      "payable": false,
      "stateMutability": "nonpayable",
      "type": "function"
    },
    {
      "constant": true,
      "inputs": [],
      "name": "getRegistryContract",
      "outputs": [
        {
          "internalType": "address",
          "name": "",
          "type": "address"
        }
      ],
      "payable": false,
      "stateMutability": "view",
      "type": "function"
    },
    {
      "constant": false,
      "inputs": [
        {
          "internalType": "address",
          "name": "_tokenHolder",
          "type": "address"
        },
        {
          "internalType": "address",
          "name": "_spender",
          "type": "address"
        },
        {
          "internalType": "uint256",
          "name": "_value",
          "type": "uint256"
        }
      ],
      "name": "setAllowance",
      "outputs": [],
      "payable": false,
      "stateMutability": "nonpayable",
      "type": "function"
    },
    {
      "constant": true,
      "inputs": [
        {
          "internalType": "address",
          "name": "_tokenHolder",
          "type": "address"
        },
        {
          "internalType": "address",
          "name": "_spender",
          "type": "address"
        }
      ],
      "name": "getAllowance",
      "outputs": [
        {
          "internalType": "uint256",
          "name": "",
          "type": "uint256"
        }
      ],
      "payable": false,
      "stateMutability": "view",
      "type": "function"
    },
    {
      "constant": false,
      "inputs": [
        {
          "internalType": "address",
          "name": "_addr",
          "type": "address"
        },
        {
          "internalType": "uint256",
          "name": "_value",
          "type": "uint256"
        }
      ],
      "name": "addBalance",
      "outputs": [],
      "payable": false,
      "stateMutability": "nonpayable",
      "type": "function"
    },
    {
      "constant": false,
      "inputs": [
        {
          "internalType": "address",
          "name": "_addr",
          "type": "address"
        },
        {
          "internalType": "uint256",
          "name": "_value",
          "type": "uint256"
        }
      ],
      "name": "subBalance",
      "outputs": [],
      "payable": false,
      "stateMutability": "nonpayable",
      "type": "function"
    },
    {
      "constant": false,
      "inputs": [
        {
          "internalType": "address",
          "name": "_addr",
          "type": "address"
        },
        {
          "internalType": "uint256",
          "name": "_value",
          "type": "uint256"
        }
      ],
      "name": "setBalance",
      "outputs": [],
      "payable": false,
      "stateMutability": "nonpayable",
      "type": "function"
    },
    {
      "constant": true,
      "inputs": [
        {
          "internalType": "address",
          "name": "_addr",
          "type": "address"
        }
      ],
      "name": "getBalance",
      "outputs": [
        {
          "internalType": "uint256",
          "name": "",
          "type": "uint256"
        }
      ],
      "payable": false,
      "stateMutability": "view",
      "type": "function"
    },
    {
      "constant": false,
      "inputs": [
        {
          "internalType": "uint256",
          "name": "_value",
          "type": "uint256"
        }
      ],
      "name": "addTotalSupply",
      "outputs": [],
      "payable": false,
      "stateMutability": "nonpayable",
      "type": "function"
    },
    {
      "constant": false,
      "inputs": [
        {
          "internalType": "uint256",
          "name": "_value",
          "type": "uint256"
        }
      ],
      "name": "subTotalSupply",
      "outputs": [],
      "payable": false,
      "stateMutability": "nonpayable",
      "type": "function"
    },
    {
      "constant": false,
      "inputs": [
        {
          "internalType": "uint256",
          "name": "_value",
          "type": "uint256"
        }
      ],
      "name": "setTotalSupply",
      "outputs": [],
      "payable": false,
      "stateMutability": "nonpayable",
      "type": "function"
    },
    {
      "constant": true,
      "inputs": [],
      "name": "getTotalSupply",
      "outputs": [
        {
          "internalType": "uint256",
          "name": "",
          "type": "uint256"
        }
      ],
      "payable": false,
      "stateMutability": "view",
      "type": "function"
    }
  ],
  "bytecode": "0x6080604052739d26a8a5db7dc10689692caf8d52c912958409cf600b60006101000a81548173ffffffffffffffffffffffffffffffffffffffff021916908373ffffffffffffffffffffffffffffffffffffffff1602179055506000600e5534801561006a57600080fd5b50336000806101000a81548173ffffffffffffffffffffffffffffffffffffffff021916908373ffffffffffffffffffffffffffffffffffffffff1602179055506115a8806100ba6000396000f3fe608060405234801561001057600080fd5b50600436106100ea5760003560e01c8063c4e41b221161008c578063e30443bc11610066578063e30443bc1461024d578063e468688e14610269578063f7ea7a3d14610285578063f8b2cb4f146102a1576100ea565b8063c4e41b22146101f7578063cf8eeb7e14610215578063da46098c14610231576100ea565b80632f54bf6e116100c85780632f54bf6e1461017157806336ca3d73146101a15780637137ed47146101bf57806382838c76146101db576100ea565b80630af4187d146100ef57806321e5383a1461011f5780632c3a6be21461013b575b600080fd5b61010960048036036101049190810190610f61565b6102d1565b60405161011691906113ff565b60405180910390f35b61013960048036036101349190810190610fec565b6103e8565b005b61015560048036036101509190810190611028565b610511565b60405161016897969594939291906112d2565b60405180910390f35b61018b60048036036101869190810190610f38565b6105c1565b6040516101989190611342565b60405180910390f35b6101a961061a565b6040516101b691906112b7565b60405180910390f35b6101d960048036036101d49190810190610f38565b610644565b005b6101f560048036036101f09190810190611069565b610740565b005b6101ff6107ee565b60405161020c91906113ff565b60405180910390f35b61022f600480360361022a9190810190610fec565b610888565b005b61024b60048036036102469190810190610f9d565b6109b1565b005b61026760048036036102629190810190610fec565b610ac7565b005b610283600480360361027e9190810190611069565b610b9f565b005b61029f600480360361029a9190810190611069565b610c4d565b005b6102bb60048036036102b69190810190610f38565b610ce7565b6040516102c891906113ff565b60405180910390f35b6000600160009054906101000a900473ffffffffffffffffffffffffffffffffffffffff1673ffffffffffffffffffffffffffffffffffffffff163373ffffffffffffffffffffffffffffffffffffffff1614610363576040517f08c379a000000000000000000000000000000000000000000000000000000000815260040161035a906113df565b60405180910390fd5b600c60008473ffffffffffffffffffffffffffffffffffffffff1673ffffffffffffffffffffffffffffffffffffffff16815260200190815260200160002060008373ffffffffffffffffffffffffffffffffffffffff1673ffffffffffffffffffffffffffffffffffffffff16815260200190815260200160002054905092915050565b600160009054906101000a900473ffffffffffffffffffffffffffffffffffffffff1673ffffffffffffffffffffffffffffffffffffffff163373ffffffffffffffffffffffffffffffffffffffff1614610478576040517f08c379a000000000000000000000000000000000000000000000000000000000815260040161046f906113df565b60405180910390fd5b6104ca81600d60008573ffffffffffffffffffffffffffffffffffffffff1673ffffffffffffffffffffffffffffffffffffffff16815260200190815260200160002054610dc090919063ffffffff16565b600d60008473ffffffffffffffffffffffffffffffffffffffff1673ffffffffffffffffffffffffffffffffffffffff168152602001908152602001600020819055505050565b6004818051602081018201805184825260208301602085012081835280955050505050506000915090508060000160009054906101000a900473ffffffffffffffffffffffffffffffffffffffff16908060010154908060020154908060030154908060040160009054906101000a900460ff16908060050160405180604001604052908160008201548152602001600182015481525050908060070160009054906101000a900460ff16905087565b60008060009054906101000a900473ffffffffffffffffffffffffffffffffffffffff1673ffffffffffffffffffffffffffffffffffffffff168273ffffffffffffffffffffffffffffffffffffffff16149050919050565b6000600160009054906101000a900473ffffffffffffffffffffffffffffffffffffffff16905090565b61064d336105c1565b61068c576040517f08c379a0000000000000000000000000000000000000000000000000000000008152600401610683906113bf565b60405180910390fd5b600073ffffffffffffffffffffffffffffffffffffffff168173ffffffffffffffffffffffffffffffffffffffff1614156106fc576040517f08c379a00000000000000000000000000000000000000000000000000000000081526004016106f39061137f565b60405180910390fd5b80600160006101000a81548173ffffffffffffffffffffffffffffffffffffffff021916908373ffffffffffffffffffffffffffffffffffffffff16021790555050565b600160009054906101000a900473ffffffffffffffffffffffffffffffffffffffff1673ffffffffffffffffffffffffffffffffffffffff163373ffffffffffffffffffffffffffffffffffffffff16146107d0576040517f08c379a00000000000000000000000000000000000000000000000000000000081526004016107c7906113df565b60405180910390fd5b6107e581600e54610e1590919063ffffffff16565b600e8190555050565b6000600160009054906101000a900473ffffffffffffffffffffffffffffffffffffffff1673ffffffffffffffffffffffffffffffffffffffff163373ffffffffffffffffffffffffffffffffffffffff1614610880576040517f08c379a0000000000000000000000000000000000000000000000000000000008152600401610877906113df565b60405180910390fd5b600e54905090565b600160009054906101000a900473ffffffffffffffffffffffffffffffffffffffff1673ffffffffffffffffffffffffffffffffffffffff163373ffffffffffffffffffffffffffffffffffffffff1614610918576040517f08c379a000000000000000000000000000000000000000000000000000000000815260040161090f906113df565b60405180910390fd5b61096a81600d60008573ffffffffffffffffffffffffffffffffffffffff1673ffffffffffffffffffffffffffffffffffffffff16815260200190815260200160002054610e1590919063ffffffff16565b600d60008473ffffffffffffffffffffffffffffffffffffffff1673ffffffffffffffffffffffffffffffffffffffff168152602001908152602001600020819055505050565b600160009054906101000a900473ffffffffffffffffffffffffffffffffffffffff1673ffffffffffffffffffffffffffffffffffffffff163373ffffffffffffffffffffffffffffffffffffffff1614610a41576040517f08c379a0000000000000000000000000000000000000000000000000000000008152600401610a38906113df565b60405180910390fd5b80600c60008573ffffffffffffffffffffffffffffffffffffffff1673ffffffffffffffffffffffffffffffffffffffff16815260200190815260200160002060008473ffffffffffffffffffffffffffffffffffffffff1673ffffffffffffffffffffffffffffffffffffffff16815260200190815260200160002081905550505050565b600160009054906101000a900473ffffffffffffffffffffffffffffffffffffffff1673ffffffffffffffffffffffffffffffffffffffff163373ffffffffffffffffffffffffffffffffffffffff1614610b57576040517f08c379a0000000000000000000000000000000000000000000000000000000008152600401610b4e906113df565b60405180910390fd5b80600d60008473ffffffffffffffffffffffffffffffffffffffff1673ffffffffffffffffffffffffffffffffffffffff168152602001908152602001600020819055505050565b600160009054906101000a900473ffffffffffffffffffffffffffffffffffffffff1673ffffffffffffffffffffffffffffffffffffffff163373ffffffffffffffffffffffffffffffffffffffff1614610c2f576040517f08c379a0000000000000000000000000000000000000000000000000000000008152600401610c26906113df565b60405180910390fd5b610c4481600e54610dc090919063ffffffff16565b600e8190555050565b600160009054906101000a900473ffffffffffffffffffffffffffffffffffffffff1673ffffffffffffffffffffffffffffffffffffffff163373ffffffffffffffffffffffffffffffffffffffff1614610cdd576040517f08c379a0000000000000000000000000000000000000000000000000000000008152600401610cd4906113df565b60405180910390fd5b80600e8190555050565b6000600160009054906101000a900473ffffffffffffffffffffffffffffffffffffffff1673ffffffffffffffffffffffffffffffffffffffff163373ffffffffffffffffffffffffffffffffffffffff1614610d79576040517f08c379a0000000000000000000000000000000000000000000000000000000008152600401610d70906113df565b60405180910390fd5b600d60008373ffffffffffffffffffffffffffffffffffffffff1673ffffffffffffffffffffffffffffffffffffffff168152602001908152602001600020549050919050565b600080828401905083811015610e0b576040517f08c379a0000000000000000000000000000000000000000000000000000000008152600401610e029061139f565b60405180910390fd5b8091505092915050565b6000610e5783836040518060400160405280601e81526020017f536166654d6174683a207375627472616374696f6e206f766572666c6f770000815250610e5f565b905092915050565b6000838311158290610ea7576040517f08c379a0000000000000000000000000000000000000000000000000000000008152600401610e9e919061135d565b60405180910390fd5b5060008385039050809150509392505050565b600081359050610ec981611537565b92915050565b600082601f830112610ee057600080fd5b8135610ef3610eee82611447565b61141a565b91508082526020830160208301858383011115610f0f57600080fd5b610f1a8382846114e4565b50505092915050565b600081359050610f328161154e565b92915050565b600060208284031215610f4a57600080fd5b6000610f5884828501610eba565b91505092915050565b60008060408385031215610f7457600080fd5b6000610f8285828601610eba565b9250506020610f9385828601610eba565b9150509250929050565b600080600060608486031215610fb257600080fd5b6000610fc086828701610eba565b9350506020610fd186828701610eba565b9250506040610fe286828701610f23565b9150509250925092565b60008060408385031215610fff57600080fd5b600061100d85828601610eba565b925050602061101e85828601610f23565b9150509250929050565b60006020828403121561103a57600080fd5b600082013567ffffffffffffffff81111561105457600080fd5b61106084828501610ecf565b91505092915050565b60006020828403121561107b57600080fd5b600061108984828501610f23565b91505092915050565b61109b8161148f565b82525050565b6110aa816114a1565b82525050565b60006110bb82611473565b6110c5818561147e565b93506110d58185602086016114f3565b6110de81611526565b840191505092915050565b60006110f660398361147e565b91507f496e76616c6964416464726573733a20696e76616c696420616464726573732060008301527f70617373656420666f722070726f787920636f6e7472616374000000000000006020830152604082019050919050565b600061115c601b8361147e565b91507f536166654d6174683a206164646974696f6e206f766572666c6f7700000000006000830152602082019050919050565b600061119c602e8361147e565b91507f4f776e6572526f6c653a2063616c6c657220646f6573206e6f7420686176652060008301527f746865204f776e657220726f6c650000000000000000000000000000000000006020830152604082019050919050565b6000611202603f8361147e565b91507f41636365737344656e6965643a20546869732061646472657373206973206e6f60008301527f7420616c6c6f77656420746f20616363657373207468652073746f72616765006020830152604082019050919050565b604082016000820151611271600085018261128a565b506020820151611284602085018261128a565b50505050565b611293816114cd565b82525050565b6112a2816114cd565b82525050565b6112b1816114d7565b82525050565b60006020820190506112cc6000830184611092565b92915050565b6000610100820190506112e8600083018a611092565b6112f56020830189611299565b6113026040830188611299565b61130f6060830187611299565b61131c60808301866112a8565b61132960a083018561125b565b61133660e08301846110a1565b98975050505050505050565b600060208201905061135760008301846110a1565b92915050565b6000602082019050818103600083015261137781846110b0565b905092915050565b60006020820190508181036000830152611398816110e9565b9050919050565b600060208201905081810360008301526113b88161114f565b9050919050565b600060208201905081810360008301526113d88161118f565b9050919050565b600060208201905081810360008301526113f8816111f5565b9050919050565b60006020820190506114146000830184611299565b92915050565b6000604051905081810181811067ffffffffffffffff8211171561143d57600080fd5b8060405250919050565b600067ffffffffffffffff82111561145e57600080fd5b601f19601f8301169050602081019050919050565b600081519050919050565b600082825260208201905092915050565b600061149a826114ad565b9050919050565b60008115159050919050565b600073ffffffffffffffffffffffffffffffffffffffff82169050919050565b6000819050919050565b600060ff82169050919050565b82818337600083830152505050565b60005b838110156115115780820151818401526020810190506114f6565b83811115611520576000848401525b50505050565b6000601f19601f8301169050919050565b6115408161148f565b811461154b57600080fd5b50565b611557816114cd565b811461156257600080fd5b5056fea365627a7a72315820015db832d592107c3064d32936343675f3950ee83be91d737bbcfc755dbda0066c6578706572696d656e74616cf564736f6c63430005100040",
  "source": "pragma solidity ^0.5.7;\npragma experimental ABIEncoderV2;\n\nimport \"openzeppelin-solidity/contracts/math/SafeMath.sol\";\nimport './Ownable.sol';\n\n/**\n* @author Arvind Kalra (github.com/arvindkalra) and Pranav Singhal (github.com/pranav-singhal)\n* @title TokenStorage\n*/\ncontract TokenStorage  is Ownable{\n    using SafeMath for uint256;\n\n    // Common storage structure for ALL contacts using this storage.\n    // _, __, __ , etc are unused in this contract, but must remain to occupy their slots.\n\n    address internal _registryContract;\n\n    struct TimeRange {\n      uint start;\n      uint end;\n    }\n\n    struct Stake {\n      uint rep;\n      TimeRange[] available;\n      uint availabilityExpires;\n      mapping (address => uint) venueContribution;\n    }\n\n    struct dibs {\n      address payer;\n      address recipient;\n      uint amount;\n    }\n\n\n\n\n    struct Poll {\n      address initiator;\n      uint minStake;\n      uint venueCost;\n      uint venuePot;\n      uint8 minParticipants;\n      TimeRange eventTime;\n      bool proofsWindowClosed;\n      mapping (address => Stake) staked;\n      mapping (address => uint16) ownCheckInIndex;           // 1-indexed: ownCheckInIndex[s]==0 => nothing there.\n      dibs[] dibsCalled;\n    }\n\n\n    struct PollExternal {\n      address initiator;\n      uint minStake;\n      uint venueCost;\n      uint venuePot;\n      uint8 minParticipants;\n      uint8 participants;\n      TimeRange eventTime;\n      bool proofsWindowClosed;\n      // NB external view of Poll can never correctly represent ownCheckInIndex (a mapping to a dynamic array).\n      // Need to either make it indicative, or fixed size.\n\n      // getting arrays with web3 is weird. Possibly claims ABI error?\n      // bytes32[5][] cantremember;\n      // address[] provers;\n      // dibs[] dibsCalled;\n    }\n\n    // shared across contracts\n    mapping (address => uint) __rep;\n    mapping (bytes32 => bytes32[]) __allTheData;\n    mapping (string => Poll) public __pollData;\n    mapping (bytes32 => bool) __resultsCache;\n\n    // used only in Poll\n    mapping(uint8 => address) internal __validators;\n    mapping(uint8 => string) internal __validatorNames;\n    mapping(address => uint) internal __cashBalance;\n    address __selfAddy ;\n\n\n    // unused - previously for Storage Proxy\n    //    mapping (address => bool) internal _allowedAccess;\n\n    // used only in Validators\n    mapping (address => uint16) __stakerPresentIn;\n\n      // used for testing only - will be deleted.\n      address __pollAddress = 0x9D26a8a5Db7dC10689692caF8d52C912958409CF;\n\n    // constants: Do not use space in storage.\n    uint8 constant __vType=1;\n    string constant __vDesc = \"mutual agreement\";\n\n\n    constructor() public {\n        _owner = msg.sender;\n    }\n\n    function setProxyContract(address proxyContract) onlyOwner public{\n        require(proxyContract != address(0), \"InvalidAddress: invalid address passed for proxy contract\");\n        _registryContract = proxyContract;\n    }\n\n    function getRegistryContract() view public returns(address){\n        return _registryContract;\n    }\n\n    //    function addDeligateContract(address upgradedDeligatee) public{\n    //        require(msg.sender == _registryContract, \"AccessDenied: only registry contract allowed access\");\n    //        _allowedAccess[upgradedDeligatee] = true;\n    //    }\n\n    modifier onlyAllowedAccess() {\n        require(msg.sender == _registryContract, \"AccessDenied: This address is not allowed to access the storage\");\n        _;\n    }\n\n    // Allowances with its Getter and Setter\n    mapping (address => mapping (address => uint256)) internal _allowances;\n\n    function setAllowance(address _tokenHolder, address _spender, uint256 _value) public onlyAllowedAccess {\n        _allowances[_tokenHolder][_spender] = _value;\n    }\n\n    function getAllowance(address _tokenHolder, address _spender) public view onlyAllowedAccess returns(uint256){\n        return _allowances[_tokenHolder][_spender];\n    }\n\n\n    // Balances with its Getter and Setter\n    mapping (address => uint256) internal _balances;\n    function addBalance(address _addr, uint256 _value) public onlyAllowedAccess {\n        _balances[_addr] = _balances[_addr].add(_value);\n    }\n\n    function subBalance(address _addr, uint256 _value) public onlyAllowedAccess {\n        _balances[_addr] = _balances[_addr].sub(_value);\n    }\n\n    function setBalance(address _addr, uint256 _value) public onlyAllowedAccess {\n        _balances[_addr] = _value;\n    }\n\n    function getBalance(address _addr) public view onlyAllowedAccess returns(uint256){\n        return _balances[_addr];\n    }\n\n    // Total Supply with Getter and Setter\n    uint256 internal _totalSupply = 0;\n\n    function addTotalSupply(uint256 _value) public onlyAllowedAccess {\n        _totalSupply = _totalSupply.add(_value);\n    }\n\n    function subTotalSupply(uint256 _value) public onlyAllowedAccess {\n        _totalSupply = _totalSupply.sub(_value);\n    }\n\n    function setTotalSupply(uint256 _value) public onlyAllowedAccess {\n        _totalSupply = _value;\n    }\n\n    function getTotalSupply() public view onlyAllowedAccess returns(uint256) {\n        return(_totalSupply);\n    }\n}\n",
  "sourcePath": "/home/teide/randomCode/lunchcoin/contracts.v1/contracts/TokenStorage.sol",
  "compiler": {
    "name": "solc",
    "version": "0.5.16+commit.9c3226ce.Emscripten.clang"
  },
  "schemaVersion": "3.2.0",
  "updatedAt": "2020-06-17T09:30:02.790Z",
  "networkType": "ethereum",
  "devdoc": {
    "author": "Arvind Kalra (github.com/arvindkalra) and Pranav Singhal (github.com/pranav-singhal)",
    "methods": {},
    "title": "TokenStorage"
  },
  "userdoc": {
    "methods": {}
  }
}