{
  "contractName": "TokenProxy",
  "abi": [
    {
      "inputs": [
        {
          "internalType": "address",
          "name": "_implementation",
          "type": "address"
        },
        {
          "internalType": "address",
          "name": "storageAddress",
          "type": "address"
        }
      ],
      "payable": false,
      "stateMutability": "nonpayable",
      "type": "constructor",
      "signature": "constructor"
    },
    {
      "anonymous": false,
      "inputs": [
        {
          "indexed": false,
          "internalType": "address",
          "name": "implementation",
          "type": "address"
        }
      ],
      "name": "Upgraded",
      "type": "event",
      "signature": "0xbc7cd75a20ee27fd9adebab32041f755214dbc6bffa90cc0225b39da2e5c2d3b"
    },
    {
      "payable": true,
      "stateMutability": "payable",
      "type": "fallback"
    },
    {
      "constant": true,
      "inputs": [
        {
          "internalType": "address",
          "name": "account",
          "type": "address"
        }
      ],
      "name": "isOwner",
      "outputs": [
        {
          "internalType": "bool",
          "name": "",
          "type": "bool"
        }
      ],
      "payable": false,
      "stateMutability": "view",
      "type": "function",
      "signature": "0x2f54bf6e"
    },
    {
      "constant": false,
      "inputs": [
        {
          "internalType": "address",
          "name": "newImplementation",
          "type": "address"
        }
      ],
      "name": "upgradeTo",
      "outputs": [],
      "payable": false,
      "stateMutability": "nonpayable",
      "type": "function",
      "signature": "0x3659cfe6"
    },
    {
      "constant": true,
      "inputs": [],
      "name": "implementation",
      "outputs": [
        {
          "internalType": "address",
          "name": "",
          "type": "address"
        }
      ],
      "payable": false,
      "stateMutability": "view",
      "type": "function",
      "signature": "0x5c60da1b"
    }
  ],
  "bytecode": "0x608060405234801561001057600080fd5b506040516105643803806105648339818101604052604081101561003357600080fd5b508051602090910151604051829080602361050682396040519081900360230190206000805160206104e683398151915214905061006d57fe5b61007f816401000000006100b4810204565b506000805433600160a060020a03199182161790915560018054909116600160a060020a039290921691909117905550610133565b6100c68164010000000061012d810204565b61011b576040517f08c379a000000000000000000000000000000000000000000000000000000000815260040180806020018281038252603b815260200180610529603b913960400191505060405180910390fd5b6000805160206104e683398151915255565b3b151590565b6103a4806101426000396000f3fe608060405260043610610050577c010000000000000000000000000000000000000000000000000000000060003504632f54bf6e811461005a5780633659cfe6146100ae5780635c60da1b146100ee575b61005861012c565b005b34801561006657600080fd5b5061009a6004803603602081101561007d57600080fd5b503573ffffffffffffffffffffffffffffffffffffffff16610146565b604080519115158252519081900360200190f35b3480156100ba57600080fd5b50610058600480360360208110156100d157600080fd5b503573ffffffffffffffffffffffffffffffffffffffff16610167565b3480156100fa57600080fd5b506101036101d1565b6040805173ffffffffffffffffffffffffffffffffffffffff9092168252519081900360200190f35b610134610144565b61014461013f6101e0565b610205565b565b60005473ffffffffffffffffffffffffffffffffffffffff90811691161490565b61017033610146565b6101c5576040517f08c379a000000000000000000000000000000000000000000000000000000000815260040180806020018281038252602e815260200180610307602e913960400191505060405180910390fd5b6101ce81610229565b50565b60006101db6101e0565b905090565b7f7050c9e0f4ca769c69bd3a8ef740bc37934f8e2c036e5a723fd8ee048ed3f8c35490565b3660008037600080366000845af43d6000803e808015610224573d6000f35b3d6000fd5b6102328161027e565b6040805173ffffffffffffffffffffffffffffffffffffffff8316815290517fbc7cd75a20ee27fd9adebab32041f755214dbc6bffa90cc0225b39da2e5c2d3b9181900360200190a150565b61028781610300565b6102dc576040517f08c379a000000000000000000000000000000000000000000000000000000000815260040180806020018281038252603b815260200180610335603b913960400191505060405180910390fd5b7f7050c9e0f4ca769c69bd3a8ef740bc37934f8e2c036e5a723fd8ee048ed3f8c355565b3b15159056fe4f776e6572526f6c653a2063616c6c657220646f6573206e6f74206861766520746865204f776e657220726f6c6543616e6e6f742073657420612070726f787920696d706c656d656e746174696f6e20746f2061206e6f6e2d636f6e74726163742061646472657373a265627a7a7231582050ed91f18fac492d156362fb99788c183415c0c38b73658d03ec8832cc6a720164736f6c634300051100327050c9e0f4ca769c69bd3a8ef740bc37934f8e2c036e5a723fd8ee048ed3f8c36f72672e7a657070656c696e6f732e70726f78792e696d706c656d656e746174696f6e43616e6e6f742073657420612070726f787920696d706c656d656e746174696f6e20746f2061206e6f6e2d636f6e74726163742061646472657373",
  "source": "pragma solidity >=0.4.21 <0.6.0;\n\nimport \"./TokenStorage.sol\";\nimport \"./UpgradeabilityProxy.sol\";\nimport './Ownable.sol';\n\n/**\n* @author Arvind Kalra (github.com/arvindkalra) and Pranav Singhal (github.com/pranav-singhal)\n* @title TokenProxy\n* @notice A proxy contract that serves the latest implementation of TokenProxy.\n*/\ncontract TokenProxy is UpgradeabilityProxy, Ownable {\n    TokenStorage private dataStore;\n\n    constructor(address _implementation, address storageAddress)\n    UpgradeabilityProxy(_implementation)\n    public {\n        _owner = msg.sender;\n        dataStore = TokenStorage(storageAddress);\n    }\n\n    /**\n    * @dev Upgrade the backing implementation of the proxy.\n    * Only the admin can call this function.\n    * @param newImplementation Address of the new implementation.\n    */\n    function upgradeTo(address newImplementation) public onlyOwner {\n        _upgradeTo(newImplementation);\n    }\n\n    /**\n    * @return The address of the implementation.\n    */\n    function implementation() public view returns (address) {\n        return _implementation();\n    }\n}\n",
  "sourcePath": "/home/teide/randomCode/lunchcoin/contracts.v1/contracts/TokenProxy.sol",
  "compiler": {
    "name": "solc",
    "version": "0.5.17+commit.d19bba13.Emscripten.clang"
  },
  "schemaVersion": "3.0.2",
  "updatedAt": "2020-06-29T12:27:21.151Z",
  "devdoc": {
    "author": "Arvind Kalra (github.com/arvindkalra) and Pranav Singhal (github.com/pranav-singhal)",
    "methods": {
      "implementation()": {
        "return": "The address of the implementation."
      },
      "upgradeTo(address)": {
        "details": "Upgrade the backing implementation of the proxy. Only the admin can call this function.",
        "params": {
          "newImplementation": "Address of the new implementation."
        }
      }
    },
    "title": "TokenProxy"
  },
  "userdoc": {
    "methods": {},
    "notice": "A proxy contract that serves the latest implementation of TokenProxy."
  }
}