{
  "contractName": "TokenStorage",
  "abi": [
    {
      "inputs": [],
      "payable": false,
      "stateMutability": "nonpayable",
      "type": "constructor"
    },
    {
      "constant": true,
      "inputs": [
        {
          "internalType": "uint8",
          "name": "",
          "type": "uint8"
        }
      ],
      "name": "__validatorNames",
      "outputs": [
        {
          "internalType": "string",
          "name": "",
          "type": "string"
        }
      ],
      "payable": false,
      "stateMutability": "view",
      "type": "function"
    },
    {
      "constant": true,
      "inputs": [
        {
          "internalType": "uint8",
          "name": "",
          "type": "uint8"
        }
      ],
      "name": "__validators",
      "outputs": [
        {
          "internalType": "address",
          "name": "",
          "type": "address"
        }
      ],
      "payable": false,
      "stateMutability": "view",
      "type": "function"
    },
    {
      "constant": true,
      "inputs": [
        {
          "internalType": "address",
          "name": "account",
          "type": "address"
        }
      ],
      "name": "isOwner",
      "outputs": [
        {
          "internalType": "bool",
          "name": "",
          "type": "bool"
        }
      ],
      "payable": false,
      "stateMutability": "view",
      "type": "function"
    },
    {
      "constant": false,
      "inputs": [
        {
          "internalType": "address",
          "name": "proxyContract",
          "type": "address"
        }
      ],
      "name": "setProxyContract",
      "outputs": [],
      "payable": false,
      "stateMutability": "nonpayable",
      "type": "function"
    },
    {
      "constant": true,
      "inputs": [],
      "name": "getRegistryContract",
      "outputs": [
        {
          "internalType": "address",
          "name": "",
          "type": "address"
        }
      ],
      "payable": false,
      "stateMutability": "view",
      "type": "function"
    },
    {
      "constant": false,
      "inputs": [
        {
          "internalType": "address",
          "name": "_tokenHolder",
          "type": "address"
        },
        {
          "internalType": "address",
          "name": "_spender",
          "type": "address"
        },
        {
          "internalType": "uint256",
          "name": "_value",
          "type": "uint256"
        }
      ],
      "name": "setAllowance",
      "outputs": [],
      "payable": false,
      "stateMutability": "nonpayable",
      "type": "function"
    },
    {
      "constant": true,
      "inputs": [
        {
          "internalType": "address",
          "name": "_tokenHolder",
          "type": "address"
        },
        {
          "internalType": "address",
          "name": "_spender",
          "type": "address"
        }
      ],
      "name": "getAllowance",
      "outputs": [
        {
          "internalType": "uint256",
          "name": "",
          "type": "uint256"
        }
      ],
      "payable": false,
      "stateMutability": "view",
      "type": "function"
    },
    {
      "constant": false,
      "inputs": [
        {
          "internalType": "address",
          "name": "_addr",
          "type": "address"
        },
        {
          "internalType": "uint256",
          "name": "_value",
          "type": "uint256"
        }
      ],
      "name": "addBalance",
      "outputs": [],
      "payable": false,
      "stateMutability": "nonpayable",
      "type": "function"
    },
    {
      "constant": false,
      "inputs": [
        {
          "internalType": "address",
          "name": "_addr",
          "type": "address"
        },
        {
          "internalType": "uint256",
          "name": "_value",
          "type": "uint256"
        }
      ],
      "name": "subBalance",
      "outputs": [],
      "payable": false,
      "stateMutability": "nonpayable",
      "type": "function"
    },
    {
      "constant": false,
      "inputs": [
        {
          "internalType": "address",
          "name": "_addr",
          "type": "address"
        },
        {
          "internalType": "uint256",
          "name": "_value",
          "type": "uint256"
        }
      ],
      "name": "setBalance",
      "outputs": [],
      "payable": false,
      "stateMutability": "nonpayable",
      "type": "function"
    },
    {
      "constant": true,
      "inputs": [
        {
          "internalType": "address",
          "name": "_addr",
          "type": "address"
        }
      ],
      "name": "getBalance",
      "outputs": [
        {
          "internalType": "uint256",
          "name": "",
          "type": "uint256"
        }
      ],
      "payable": false,
      "stateMutability": "view",
      "type": "function"
    },
    {
      "constant": false,
      "inputs": [
        {
          "internalType": "uint256",
          "name": "_value",
          "type": "uint256"
        }
      ],
      "name": "addTotalSupply",
      "outputs": [],
      "payable": false,
      "stateMutability": "nonpayable",
      "type": "function"
    },
    {
      "constant": false,
      "inputs": [
        {
          "internalType": "uint256",
          "name": "_value",
          "type": "uint256"
        }
      ],
      "name": "subTotalSupply",
      "outputs": [],
      "payable": false,
      "stateMutability": "nonpayable",
      "type": "function"
    },
    {
      "constant": false,
      "inputs": [
        {
          "internalType": "uint256",
          "name": "_value",
          "type": "uint256"
        }
      ],
      "name": "setTotalSupply",
      "outputs": [],
      "payable": false,
      "stateMutability": "nonpayable",
      "type": "function"
    },
    {
      "constant": true,
      "inputs": [],
      "name": "getTotalSupply",
      "outputs": [
        {
          "internalType": "uint256",
          "name": "",
          "type": "uint256"
        }
      ],
      "payable": false,
      "stateMutability": "view",
      "type": "function"
    }
  ],
  "bytecode": "0x6080604052739d26a8a5db7dc10689692caf8d52c912958409cf600860006101000a81548173ffffffffffffffffffffffffffffffffffffffff021916908373ffffffffffffffffffffffffffffffffffffffff1602179055506000600b5534801561006a57600080fd5b50336000806101000a81548173ffffffffffffffffffffffffffffffffffffffff021916908373ffffffffffffffffffffffffffffffffffffffff160217905550611466806100ba6000396000f3fe608060405234801561001057600080fd5b50600436106100f55760003560e01c80639013724411610097578063e30443bc11610066578063e30443bc146104cd578063e468688e1461051b578063f7ea7a3d14610549578063f8b2cb4f14610577576100f5565b80639013724414610349578063c4e41b22146103f3578063cf8eeb7e14610411578063da46098c1461045f576100f5565b80632f54bf6e116100d35780632f54bf6e1461023157806336ca3d731461028d5780637137ed47146102d757806382838c761461031b576100f5565b80630af4187d146100fa57806319b5fc8b1461017257806321e5383a146101e3575b600080fd5b61015c6004803603604081101561011057600080fd5b81019080803573ffffffffffffffffffffffffffffffffffffffff169060200190929190803573ffffffffffffffffffffffffffffffffffffffff1690602001909291905050506105cf565b6040518082815260200191505060405180910390f35b6101a16004803603602081101561018857600080fd5b81019080803560ff1690602001909291905050506106fc565b604051808273ffffffffffffffffffffffffffffffffffffffff1673ffffffffffffffffffffffffffffffffffffffff16815260200191505060405180910390f35b61022f600480360360408110156101f957600080fd5b81019080803573ffffffffffffffffffffffffffffffffffffffff1690602001909291908035906020019092919050505061072f565b005b6102736004803603602081101561024757600080fd5b81019080803573ffffffffffffffffffffffffffffffffffffffff16906020019092919050505061086e565b604051808215151515815260200191505060405180910390f35b6102956108c7565b604051808273ffffffffffffffffffffffffffffffffffffffff1673ffffffffffffffffffffffffffffffffffffffff16815260200191505060405180910390f35b610319600480360360208110156102ed57600080fd5b81019080803573ffffffffffffffffffffffffffffffffffffffff1690602001909291905050506108f1565b005b6103476004803603602081101561033157600080fd5b8101908080359060200190929190505050610a19565b005b6103786004803603602081101561035f57600080fd5b81019080803560ff169060200190929190505050610add565b6040518080602001828103825283818151815260200191508051906020019080838360005b838110156103b857808201518184015260208101905061039d565b50505050905090810190601f1680156103e55780820380516001836020036101000a031916815260200191505b509250505060405180910390f35b6103fb610b8d565b6040518082815260200191505060405180910390f35b61045d6004803603604081101561042757600080fd5b81019080803573ffffffffffffffffffffffffffffffffffffffff16906020019092919080359060200190929190505050610c3d565b005b6104cb6004803603606081101561047557600080fd5b81019080803573ffffffffffffffffffffffffffffffffffffffff169060200190929190803573ffffffffffffffffffffffffffffffffffffffff16906020019092919080359060200190929190505050610d7c565b005b610519600480360360408110156104e357600080fd5b81019080803573ffffffffffffffffffffffffffffffffffffffff16906020019092919080359060200190929190505050610ea8565b005b6105476004803603602081101561053157600080fd5b8101908080359060200190929190505050610f96565b005b6105756004803603602081101561055f57600080fd5b810190808035906020019092919050505061105a565b005b6105b96004803603602081101561058d57600080fd5b81019080803573ffffffffffffffffffffffffffffffffffffffff16906020019092919050505061110a565b6040518082815260200191505060405180910390f35b6000600160009054906101000a900473ffffffffffffffffffffffffffffffffffffffff1673ffffffffffffffffffffffffffffffffffffffff163373ffffffffffffffffffffffffffffffffffffffff1614610677576040517f08c379a000000000000000000000000000000000000000000000000000000000815260040180806020018281038252603f8152602001806113f3603f913960400191505060405180910390fd5b600960008473ffffffffffffffffffffffffffffffffffffffff1673ffffffffffffffffffffffffffffffffffffffff16815260200190815260200160002060008373ffffffffffffffffffffffffffffffffffffffff1673ffffffffffffffffffffffffffffffffffffffff16815260200190815260200160002054905092915050565b60046020528060005260406000206000915054906101000a900473ffffffffffffffffffffffffffffffffffffffff1681565b600160009054906101000a900473ffffffffffffffffffffffffffffffffffffffff1673ffffffffffffffffffffffffffffffffffffffff163373ffffffffffffffffffffffffffffffffffffffff16146107d5576040517f08c379a000000000000000000000000000000000000000000000000000000000815260040180806020018281038252603f8152602001806113f3603f913960400191505060405180910390fd5b61082781600a60008573ffffffffffffffffffffffffffffffffffffffff1673ffffffffffffffffffffffffffffffffffffffff168152602001908152602001600020546111f990919063ffffffff16565b600a60008473ffffffffffffffffffffffffffffffffffffffff1673ffffffffffffffffffffffffffffffffffffffff168152602001908152602001600020819055505050565b60008060009054906101000a900473ffffffffffffffffffffffffffffffffffffffff1673ffffffffffffffffffffffffffffffffffffffff168273ffffffffffffffffffffffffffffffffffffffff16149050919050565b6000600160009054906101000a900473ffffffffffffffffffffffffffffffffffffffff16905090565b6108fa3361086e565b61094f576040517f08c379a000000000000000000000000000000000000000000000000000000000815260040180806020018281038252602e8152602001806113c5602e913960400191505060405180910390fd5b600073ffffffffffffffffffffffffffffffffffffffff168173ffffffffffffffffffffffffffffffffffffffff1614156109d5576040517f08c379a000000000000000000000000000000000000000000000000000000000815260040180806020018281038252603981526020018061138c6039913960400191505060405180910390fd5b80600160006101000a81548173ffffffffffffffffffffffffffffffffffffffff021916908373ffffffffffffffffffffffffffffffffffffffff16021790555050565b600160009054906101000a900473ffffffffffffffffffffffffffffffffffffffff1673ffffffffffffffffffffffffffffffffffffffff163373ffffffffffffffffffffffffffffffffffffffff1614610abf576040517f08c379a000000000000000000000000000000000000000000000000000000000815260040180806020018281038252603f8152602001806113f3603f913960400191505060405180910390fd5b610ad481600b5461128190919063ffffffff16565b600b8190555050565b60056020528060005260406000206000915090508054600181600116156101000203166002900480601f016020809104026020016040519081016040528092919081815260200182805460018160011615610100020316600290048015610b855780601f10610b5a57610100808354040283529160200191610b85565b820191906000526020600020905b815481529060010190602001808311610b6857829003601f168201915b505050505081565b6000600160009054906101000a900473ffffffffffffffffffffffffffffffffffffffff1673ffffffffffffffffffffffffffffffffffffffff163373ffffffffffffffffffffffffffffffffffffffff1614610c35576040517f08c379a000000000000000000000000000000000000000000000000000000000815260040180806020018281038252603f8152602001806113f3603f913960400191505060405180910390fd5b600b54905090565b600160009054906101000a900473ffffffffffffffffffffffffffffffffffffffff1673ffffffffffffffffffffffffffffffffffffffff163373ffffffffffffffffffffffffffffffffffffffff1614610ce3576040517f08c379a000000000000000000000000000000000000000000000000000000000815260040180806020018281038252603f8152602001806113f3603f913960400191505060405180910390fd5b610d3581600a60008573ffffffffffffffffffffffffffffffffffffffff1673ffffffffffffffffffffffffffffffffffffffff1681526020019081526020016000205461128190919063ffffffff16565b600a60008473ffffffffffffffffffffffffffffffffffffffff1673ffffffffffffffffffffffffffffffffffffffff168152602001908152602001600020819055505050565b600160009054906101000a900473ffffffffffffffffffffffffffffffffffffffff1673ffffffffffffffffffffffffffffffffffffffff163373ffffffffffffffffffffffffffffffffffffffff1614610e22576040517f08c379a000000000000000000000000000000000000000000000000000000000815260040180806020018281038252603f8152602001806113f3603f913960400191505060405180910390fd5b80600960008573ffffffffffffffffffffffffffffffffffffffff1673ffffffffffffffffffffffffffffffffffffffff16815260200190815260200160002060008473ffffffffffffffffffffffffffffffffffffffff1673ffffffffffffffffffffffffffffffffffffffff16815260200190815260200160002081905550505050565b600160009054906101000a900473ffffffffffffffffffffffffffffffffffffffff1673ffffffffffffffffffffffffffffffffffffffff163373ffffffffffffffffffffffffffffffffffffffff1614610f4e576040517f08c379a000000000000000000000000000000000000000000000000000000000815260040180806020018281038252603f8152602001806113f3603f913960400191505060405180910390fd5b80600a60008473ffffffffffffffffffffffffffffffffffffffff1673ffffffffffffffffffffffffffffffffffffffff168152602001908152602001600020819055505050565b600160009054906101000a900473ffffffffffffffffffffffffffffffffffffffff1673ffffffffffffffffffffffffffffffffffffffff163373ffffffffffffffffffffffffffffffffffffffff161461103c576040517f08c379a000000000000000000000000000000000000000000000000000000000815260040180806020018281038252603f8152602001806113f3603f913960400191505060405180910390fd5b61105181600b546111f990919063ffffffff16565b600b8190555050565b600160009054906101000a900473ffffffffffffffffffffffffffffffffffffffff1673ffffffffffffffffffffffffffffffffffffffff163373ffffffffffffffffffffffffffffffffffffffff1614611100576040517f08c379a000000000000000000000000000000000000000000000000000000000815260040180806020018281038252603f8152602001806113f3603f913960400191505060405180910390fd5b80600b8190555050565b6000600160009054906101000a900473ffffffffffffffffffffffffffffffffffffffff1673ffffffffffffffffffffffffffffffffffffffff163373ffffffffffffffffffffffffffffffffffffffff16146111b2576040517f08c379a000000000000000000000000000000000000000000000000000000000815260040180806020018281038252603f8152602001806113f3603f913960400191505060405180910390fd5b600a60008373ffffffffffffffffffffffffffffffffffffffff1673ffffffffffffffffffffffffffffffffffffffff168152602001908152602001600020549050919050565b600080828401905083811015611277576040517f08c379a000000000000000000000000000000000000000000000000000000000815260040180806020018281038252601b8152602001807f536166654d6174683a206164646974696f6e206f766572666c6f77000000000081525060200191505060405180910390fd5b8091505092915050565b60006112c383836040518060400160405280601e81526020017f536166654d6174683a207375627472616374696f6e206f766572666c6f7700008152506112cb565b905092915050565b6000838311158290611378576040517f08c379a00000000000000000000000000000000000000000000000000000000081526004018080602001828103825283818151815260200191508051906020019080838360005b8381101561133d578082015181840152602081019050611322565b50505050905090810190601f16801561136a5780820380516001836020036101000a031916815260200191505b509250505060405180910390fd5b506000838503905080915050939250505056fe496e76616c6964416464726573733a20696e76616c696420616464726573732070617373656420666f722070726f787920636f6e74726163744f776e6572526f6c653a2063616c6c657220646f6573206e6f74206861766520746865204f776e657220726f6c6541636365737344656e6965643a20546869732061646472657373206973206e6f7420616c6c6f77656420746f20616363657373207468652073746f72616765a265627a7a723158200ef0dabd474e5082060e1754e0e04d694db7cf06eeabcf305fce793d8eb3157564736f6c63430005100032",
  "source": "pragma solidity >=0.4.21 <0.6.0;\n\nimport \"openzeppelin-solidity/contracts/math/SafeMath.sol\";\nimport './Ownable.sol';\n\n/**\n* @author Arvind Kalra (github.com/arvindkalra) and Pranav Singhal (github.com/pranav-singhal)\n* @title TokenStorage\n*/\ncontract TokenStorage  is Ownable{\n    using SafeMath for uint256;\n\n    // Common storage structure for ALL contacts using this storage.\n    // Rename identifiers, eg to _, __, __ , etc. but retain types and order.\n\n    // Access Modifier for Storage contract\n    address internal _registryContract;\n\n    struct timeRange {\n      uint start;\n      uint end;\n    }\n\n    struct stake {\n      uint rep;\n      timeRange[] available;\n      uint availabilityExpires;\n    }\n\n    struct Poll {\n      address initiator;\n      uint minStake;\n      uint venueCost;\n      uint8 minParticipants;\n      timeRange eventTime;\n      mapping (address => stake) staked;\n      mapping (address => bytes32[]) committedProofs;\n    }\n\n    // shared across contracts\n    mapping (bytes32 => bytes32[]) allTheData;\n    mapping (bytes32 => bool) resultsCache;\n\n    // used only in Poll\n    mapping(uint8 => address) public __validators;\n    mapping(uint8 => string) public __validatorNames;\n    address __selfAddy ;\n\n    // unused - previously for Storage Proxy\n    //    mapping (address => bool) internal _allowedAccess;\n\n    // used only in Validators\n    int flag;\n\n      // used for testing only - will be deleted.\n      address __pollAddress = 0x9D26a8a5Db7dC10689692caF8d52C912958409CF;\n\n    // constants: Do not use space in storage.\n    uint8 constant __vType=1;\n    string constant __vDesc = \"mutual agreement\";\n\n\n    constructor() public {\n        _owner = msg.sender;\n    }\n\n    function setProxyContract(address proxyContract) onlyOwner public{\n        require(proxyContract != address(0), \"InvalidAddress: invalid address passed for proxy contract\");\n        _registryContract = proxyContract;\n    }\n\n    function getRegistryContract() view public returns(address){\n        return _registryContract;\n    }\n\n    //    function addDeligateContract(address upgradedDeligatee) public{\n    //        require(msg.sender == _registryContract, \"AccessDenied: only registry contract allowed access\");\n    //        _allowedAccess[upgradedDeligatee] = true;\n    //    }\n\n    modifier onlyAllowedAccess() {\n        require(msg.sender == _registryContract, \"AccessDenied: This address is not allowed to access the storage\");\n        _;\n    }\n\n    // Allowances with its Getter and Setter\n    mapping (address => mapping (address => uint256)) internal _allowances;\n\n    function setAllowance(address _tokenHolder, address _spender, uint256 _value) public onlyAllowedAccess {\n        _allowances[_tokenHolder][_spender] = _value;\n    }\n\n    function getAllowance(address _tokenHolder, address _spender) public view onlyAllowedAccess returns(uint256){\n        return _allowances[_tokenHolder][_spender];\n    }\n\n\n    // Balances with its Getter and Setter\n    mapping (address => uint256) internal _balances;\n    function addBalance(address _addr, uint256 _value) public onlyAllowedAccess {\n        _balances[_addr] = _balances[_addr].add(_value);\n    }\n\n    function subBalance(address _addr, uint256 _value) public onlyAllowedAccess {\n        _balances[_addr] = _balances[_addr].sub(_value);\n    }\n\n    function setBalance(address _addr, uint256 _value) public onlyAllowedAccess {\n        _balances[_addr] = _value;\n    }\n\n    function getBalance(address _addr) public view onlyAllowedAccess returns(uint256){\n        return _balances[_addr];\n    }\n\n    // Total Supply with Getter and Setter\n    uint256 internal _totalSupply = 0;\n\n    function addTotalSupply(uint256 _value) public onlyAllowedAccess {\n        _totalSupply = _totalSupply.add(_value);\n    }\n\n    function subTotalSupply(uint256 _value) public onlyAllowedAccess {\n        _totalSupply = _totalSupply.sub(_value);\n    }\n\n    function setTotalSupply(uint256 _value) public onlyAllowedAccess {\n        _totalSupply = _value;\n    }\n\n    function getTotalSupply() public view onlyAllowedAccess returns(uint256) {\n        return(_totalSupply);\n    }\n}\n",
  "sourcePath": "/home/teide/randomCode/truffletings/proxyBox/contracts/TokenStorage.sol",
  "compiler": {
    "name": "solc",
    "version": "0.5.16+commit.9c3226ce.Emscripten.clang"
  },
  "schemaVersion": "3.2.0",
  "updatedAt": "2020-06-07T09:29:12.103Z",
  "networkType": "ethereum",
  "devdoc": {
    "author": "Arvind Kalra (github.com/arvindkalra) and Pranav Singhal (github.com/pranav-singhal)",
    "methods": {},
    "title": "TokenStorage"
  },
  "userdoc": {
    "methods": {}
  }
}